:100000000C9482150C94AC150C94AC150C94AC1596
:100010000C94533E0C94CB3E0C94A33E0C947B3E2C
:100020000C94AC150C94AC150C94AC150C94AC154C
:100030000C94AC150C942B560C94AC150C94AC157C
:100040000C94AC150C94F9450C94A8C70C94AC1501
:100050000C94AB390C94AC150C94AC150C94AC15F9
:100060000C94AC150C94AC150C94AC150C94AC150C
:100070000C94AC150C94AC150C94AC150C94AC15FC
:100080000C94AC150C94AC150C94AC1508A2B8A04B
:10009000EFA044A2EFA0EFA0EFA0EFA0EFA0EFA091
:1000A000EFA0EFA0EFA0EFA0EFA0EFA0EFA0EFA0D8
:1000B000EFA0EFA0EFA0EFA0EFA0EFA0EFA0EFA0C8
:1000C000EFA0EFA0EFA0EFA03EA2EFA0EFA0EFA067
:1000D000EFA0EFA0EFA0EFA0EFA017A2EFA0EFA07E
:1000E000EFA0EFA0EFA0EFA0EFA0EFA0EFA0EFA098
:1000F0005BA2ECA099C69CC68FC693C6B3C6B3C616
:10010000A0C6A4C6AAC6AEC617C71CC721C72BC7A0
:1001100059C759C735C73DC745C74FC74E414E4957
:100120004E495459494E46CDCCCC3D0AD7233C17B5
:10013000B7D13877CC2B329595E6241FB14F0A0002
:100140000020410000C84200401C4620BCBE4CCAF2
:100150001B0E5AAEC59D74434F4D4D554E494341FC
:1001600054494F4E0044525952554E004552524F39
:10017000525300494E464F004543484F00536C656B
:1001800065702E2E2E00486F6D65205859206669C7
:100190007273740A00486F6D652058592066697241
:1001A000737400436C69636B20746F2072657375A0
:1001B0006D652E2E2E004E6F206D6F76652E0045DC
:1001C0006E642066696C65206C6973740A00426510
:1001D00067696E2066696C65206C6973740A002813
:1001E0006E6F2066696C6529005344207072696ED9
:1001F00074696E67206279746520004E6F742053B5
:1002000044207072696E74696E670A004375727279
:10021000656E742066696C653A200046696C6520DD
:1002200064656C657465643A0044656C6574696FF7
:100230006E206661696C65642C2046696C653A20A5
:10024000002569730025696D20256973002569689B
:100250002025696D2025697300256964202569685A
:100260002025696D20256973002569792025696439
:10027000202569682025696D202569730050726901
:100280006E742074696D653A2000780173016C0109
:10029000650157016F66660044454255473A004B79
:1002A000494C4C45442E20004D3131332053006FD2
:1002B0006B0020573A004520436F6F6C696E672EC4
:1002C0002E2E00452048656174696E672E2E2E0023
:1002D00020573A0042656420636F6F6C696E672E29
:1002E0002E2E004265642068656174696E672E2E4B
:1002F0002E003344205072696E746572204F66661A
:100300002E002C20002C2000544845524D414C5FBB
:1003100050524F54454354494F4E004155544F524B
:1003200045504F52545F53445F535441545553000A
:10033000454D455247454E43595F504152534552F2
:1003400000434153455F4C494748545F4252494737
:1003500048544E45535300544F47474C455F4C4912
:100360004748545300534F4654574152455F504FEE
:10037000574552004255494C445F50455243454E03
:1003800054004C4556454C494E475F44415441004A
:100390005A5F50524F4245004155544F4C455645C7
:1003A0004C005052494E545F4A4F420050524F4702
:1003B00052455353004155544F5245504F52545F8C
:1003C00054454D5000564F4C554D455452494300ED
:1003D000454550524F4D0053455249414C5F584F8F
:1003E0004E5F584F4646004649524D574152455F71
:1003F0004E414D453A4D61726C696E20627567667B
:1004000069782D312E312E782028476974687562FD
:100410002920534F555243455F434F44455F555242
:100420004C3A68747470733A2F2F676974687562F8
:100430002E636F6D2F4D61726C696E4669726D77B8
:100440006172652F4D61726C696E2050524F544F2E
:10045000434F4C5F56455253494F4E3A312E302050
:100460004D414348494E455F545950453A33442025
:100470005072696E74657220455854525544455205
:100480005F434F554E543A3120555549443A6365C0
:100490006465326132662D343161322D343734383F
:1004A0002D396231322D6335356336326633363756
:1004B00066660A002F2F20004D31343520533C69E9
:1004C0006E6465783E206F7574206F662072616E71
:1004D00067652028302D31290A0020540020520061
:1004E000416363656C65726174696F6E3A20500098
:1004F000205A00205900580020204D61783A2000F1
:10050000205A00205900580020204D696E3A2000E2
:100510004F6E20004F666600536F667420656E64F0
:1005200073746F70733A200020466C6F773A200026
:1005300000010F150E12FFFFFFFF16170E13FFFF2E
:10054000FFFF03021A14FFFFFFFFFFFFFF0C04FF72
:10055000FFFF01000EFFFFFF0C190DFF1820643A8A
:100560000020693A0020703A00496E76616C696437
:100570002065787472756465720A0043290A006107
:10058000626C656420286D696E2074656D70200052
:10059000436F6C6420657874727564657320617252
:1005A00065200020643A0020693A0020703A004E2D
:1005B0006F2063617365206C696768740A00454544
:1005C00050524F4D204F4B0A0041637469766520AD
:1005D00045787472756465723A2000496E76616C74
:1005E00069642065787472756465720A004B494CC1
:1005F0004C45442E200053544F505045442E20006B
:100600005072696E7465722073746F7070656420C7
:1006100064756520746F206572726F72732E204648
:10062000697820746865206572726F7220616E64EB
:1006300020757365204D39393920746F20726573C8
:10064000746172742E202854656D706572617475C2
:1006500072652069732072657365742E205365740A
:1006600020697420616674657220726573746172AA
:1006700074696E67290A004E6F20436865636B7367
:10068000756D2077697468206C696E65206E756D74
:100690006265722C204C617374204C696E653A203F
:1006A000004E6F20436865636B73756D20776974C6
:1006B00068206C696E65206E756D6265722C204CC9
:1006C000617374204C696E653A2000636865636BE2
:1006D00073756D206D69736D617463682C204C6156
:1006E0007374204C696E653A20004C696E65204E2B
:1006F000756D626572206973206E6F74204C617332
:1007000074204C696E65204E756D6265722B312CBC
:10071000204C617374204C696E653A20004D313174
:1007200030004D333100534420726561642065729E
:10073000726F720A00446F6E65207072696E746920
:100740006E672066696C650A0020496E76616C6987
:10075000642065787472756465722000000040C082
:100760000000A0C00000000000005E4300005E43E7
:1007700000006643486F6D696E67206661696C654D
:10078000640050726F7465637465642050696E0A0A
:1007900000205A3A0020593A0020436F756E7420A9
:1007A000583A0020453A00205A3A0020593A005859
:1007B0003A003A004361703A004B642000236465BC
:1007C00066696E652044454641554C545F004B694F
:1007D000200023646566696E652044454641554C9A
:1007E000545F004B70200023646566696E65204489
:1007F000454641554C545F00504944204175746F43
:1008000074756E652066696E697368656421205031
:10081000757420746865206C617374204B702C2093
:100820004B6920616E64204B6420636F6E7374614A
:100830006E74732066726F6D2062656C6F772069CD
:100840006E746F20436F6E66696775726174696F4D
:100850006E2E680A00504944204175746F74756E9D
:1008600065206661696C6564212074696D656F75CA
:10087000740A00453120544845524D414C20525590
:100880004E415741590042454420544845524D413C
:100890004C2052554E4157415900546865726D6164
:1008A0006C2052756E617761790045312048656131
:1008B00074696E67206661696C65640042656420D6
:1008C00068656174696E67206661696C656400487B
:1008D000656174696E67206661696C656400504982
:1008E00044204175746F74756E65206661696C652E
:1008F00064212054656D7065726174757265207431
:100900006F6F20686967680A00204B643A200020F6
:100910004B693A2000204B703A20000A20436C615A
:100920007373696320504944200A002054753A20AB
:1009300000204B753A2000206D61783A2000206D30
:10094000696E3A200020643A200020626961733A9F
:100950002000504944204175746F74756E6520669F
:1009600061696C65642120426164206578747275E8
:10097000646572206E756D6265720A00504944208C
:100980004175746F74756E652073746172740A00BA
:10099000486F6D6520257325732573206669727312
:1009A00074002066697273740A005A005900580076
:1009B000486F6D6520004F666673657473206170C3
:1009C000706C696564004572723A20546F6F2066DE
:1009D00061722100546F6F206661722066726F6DC4
:1009E000207265666572656E636520706F696E74EE
:1009F0000A001FFFFFFFFFFFFF600000000001FF74
:100A0000400000000000FF8000000000007F83CF56
:100A100000000C303F87FF80000C301F867980007B
:100A20000C000F8C30C7838C30E78C30CFC7CC31B3
:100A3000F38C30DCECEC33B98C30D86C6C33198C23
:100A400030D06C0C33198C30D86C0C33198C30DCF2
:100A50006C0E3B198C30CF7C079F198C30C77C0300
:100A60008F19400000000000026000000000000636
:100A70001FFFFFFFFFFFF82020506C616E6E657254
:100A800042756666657242797465733A2000204645
:100A9000726565204D656D6F72793A2000436F6D08
:100AA00070696C65643A20446563203136203230C9
:100AB00031380A00207C20417574686F723A202812
:100AC00052616C665F452C20414E455420413620D2
:100AD000636F6E666967290A00323031382D30370E
:100AE0002D333100204C617374205570646174653E
:100AF000643A20006275676669782D312E312E7850
:100B00000A004D61726C696E0020536F66747761E4
:100B100072652052657365740A00205761746368BA
:100B2000646F672052657365740A002042726F77A4
:100B30006E206F75742052657365740A00204578C5
:100B40007465726E616C2052657365740A00506F33
:100B500077657255700A0073746172740A0061756A
:100B6000746F25692E67006572726F7220777269E3
:100B700074696E6720746F2066696C650A00456E43
:100B80006473746F707320256320256320256320B0
:100B9000256300205A3A0020593A0020583A00654F
:100BA0006E6473746F7073206869743A2000446FC8
:100BB0006E6520736176696E672066696C652E0AC2
:100BC000004D32390048617264636F64656420448B
:100BD000656661756C742053657474696E67732003
:100BE0004C6F616465640A002823000088130000CC
:100BF00032000000102700000000C8430000C84376
:100C0000000080400000C8410000C8420000C84207
:100C10000000C8430000BE4220286D6D290020441A
:100C20000020490020204D33303420500020440063
:100C300020490020204D33303120500050494420BD
:100C400073657474696E67733A0A00204600204227
:100C50000020480020204D3134352053004D617470
:100C6000657269616C20686561747570207061726D
:100C7000616D65746572733A0A00205A002059004C
:100C800020204D323036205800486F6D65206F6649
:100C9000667365743A0A00204500205A0020590006
:100CA00020580020540020530020204D32303520A1
:100CB000510020453C6D61785F655F6A65726B3EEF
:100CC0000020583C6D61785F785F6A65726B3E20EA
:100CD000593C6D61785F795F6A65726B3E205A3C62
:100CE0006D61785F7A5F6A65726B3E004164766120
:100CF0006E6365643A20513C6D696E5F7365676D24
:100D0000656E745F74696D655F75733E20533C6DED
:100D1000696E5F66656564726174653E20543C6D02
:100D2000696E5F74726176656C5F66656564726139
:100D300074653E0020540020520020204D32303493
:100D4000205000416363656C65726174696F6E2049
:100D500028756E6974732F7332293A20503C707273
:100D6000696E745F616363656C3E20523C726574AA
:100D7000726163745F616363656C3E20543C74729E
:100D80006176656C5F616363656C3E0A00204500B7
:100D9000205A0020590020204D3230312058004D7B
:100DA0006178696D756D20416363656C657261740E
:100DB000696F6E2028756E6974732F7332293A0A31
:100DC00000204500205A0020590020204D323033A9
:100DD0002058004D6178696D756D20666565647297
:100DE000617465732028756E6974732F73293A0ACC
:100DF00000204500205A0020590020204D39322083
:100E0000580053746570732070657220756E697434
:100E10003A0A0020204D3230302044300A00202091
:100E20004D3230302044002044697361626C656447
:100E30000A0046696C616D656E742073657474692F
:100E40006E67733A0020204D3134392043203B2017
:100E5000556E69747320696E2043656C7369757390
:100E60000A002020473231202020203B00545249E4
:100E7000474745524544006F70656E003A20007A3E
:100E80005F6D696E00795F6D696E00785F6D696E88
:100E9000005265706F7274696E6720656E6473745A
:100EA0006F70207374617475730A006265640A0060
:100EB0002C2073797374656D2073746F7070656422
:100EC00021204865617465725F49443A200042659B
:100ED000642068656174696E67206661696C656429
:100EE0000048656174696E67206661696C656400BD
:100EF00045312048656174696E67206661696C657B
:100F0000640048656174696E67206661696C656438
:100F1000001000AA03F0013A0190022201300310F0
:100F200001D00302017004F7001005ED00B005E5E3
:100F3000005006DD00F006D7009007D1003008CC45
:100F400000D008C7007009C300100ABE00B00ABB79
:100F500000500BB700F00BB300900CB000D00DAAFE
:100F600000100FA5005010A00090119B00D0129609
:100F700000B014900090168B0070188500501A80F5
:100F800000301C7B00B01E750030216F00B023695B
:100F9000003026640010285F00902A5A00702C55FB
:100FA00000F02E4F0070314800B0324500F0334160
:100FB0000070363900103737005038330090392D23
:100FC00000D03A2700B03C1C00503D1700F03D1106
:100FD00000903E0900D03FE5FF4531204572723A4E
:100FE000204D415854454D50004572723A204D41B4
:100FF0005854454D5020424544004D415854454DAC
:1010000050207472696767657265640045312045D8
:1010100072723A204D494E54454D50004572723A15
:10102000204D494E54454D5020424544004D494EB7
:1010300054454D5020747269676765726564004D50
:10104000383420582059205A204500202F002042B3
:10105000403A0020403A0025753A25303275002587
:101060003032753A253032750025756420253032CE
:10107000753A2530327500202020202020005A00AB
:101080005900202020200058000920000000000006
:1010900000000000000000003FFFF0000000000022
:1010A0000000000000000038007000000000000098
:1010B00000000000000030FC3000000000000000D4
:1010C000000000000020FC100000000000000000F4
:1010D0000000000020781000000000000000000068
:1010E00000000020301000000000000000000000A0
:1010F00000002C00D03FC000000000000000208253
:10110000002E31D07FE00000000000000010410000
:101110002F7BD07FE0000000000000001041002F76
:101120007BD07FE0000000000000002082002E3114
:10113000D03FC0000000000000004104002C00D09F
:101140003FC0000000000000008208002030107F37
:10115000E0000000000000008208002078107FE01E
:101160000000000000000041040020FC107FE000AF
:1011700000000000000020820030FC301F800000D2
:1011800000000000000000003800700F00000000A8
:1011900000000000FFFFC03FFFF00600000000005D
:1011A000000000FFFFC00000000000000000000081
:1011B00000000000003FFFF0000000000000000001
:1011C0000000000038007000000000000000000077
:1011D0000000003186300000000000000000000028
:1011E0000000238710000000000000000000000045
:1011F00000278790000000000000000000000000B1
:101200002F87D00000000000000000000000002F29
:1012100003D03FC00000000000000020820020300A
:10122000107FE00000000000000010410020781056
:101230007FE0000000000000001041002078107FD7
:10124000E0000000000000002082002030103FC0BD
:10125000000000000000004104002F03D03FC00048
:101260000000000000008208002F87D07FE000000F
:1012700000000000008208002787907FE000000047
:10128000000000004104002387107FE00000000000
:101290000000002082003186301F80000000000026
:1012A00000000000003800700F0000000000000087
:1012B00000FFFFC03FFFF00600000000000000003C
:1012C000FFFFC00000003344205072696E746572E5
:1012D0002052656164792E005072696E74696E6780
:1012E0002E2E2E005072696E7420706175736564C5
:1012F000005072696E742061626F72746564004D93
:101300003231004E6F2053442063617264004368A1
:10131000616E67652053442063617264004D323111
:10132000005072696E742066726F6D2053440053D2
:10133000746F70207072696E7400526573756D659C
:10134000207072696E7400496E69742E20534420B7
:1013500063617264005061757365207072696E74A8
:1013600000436F6E74726F6C0050726570617265CD
:101370000054756E6500496E666F20736372656513
:101380006E0024F4D43050C38E20C2A24017828B4A
:101390007011127A910D816CD90AA861E108C758C1
:1013A0006607615143061E4B5D05C145A7041A41FE
:1013B0001104093D9803713931034036DB0265336E
:1013C0009102D4305402802E1D02632CEE01752A46
:1013D000C501B028A001102781018F2564012B24AD
:1013E0004B01E0223401AC211F018D200D01801F33
:1013F000FC00841EED00971DDF00B81CD200E61B28
:10140000C600201BBC00641AB200B219A8000A1959
:10141000A0006A189900D117910040178B00B516EB
:10142000840031167E00B31579003A157300C71495
:101430006F0058146A00EE136600881363002513CA
:101440005E00C7125B006C12570015125400C111E8
:10145000510070114F0021114B00D61049008D1022
:1014600047004610440002104200C00F4000800FA9
:101470003E00420F3C00060F3B00CB0E3800930E9F
:1014800037005C0E3500270E3400F30D3200C10D1D
:101490003100900D3000600D2E00320D2D00050D35
:1014A0002C00D90C2B00AE0C2900850C29005C0CFB
:1014B0002700350C27000E0C2600E80B2400C40B77
:1014C0002400A00B23007D0B23005A0B2100390BB5
:1014D0002100180B2000F80A1F00D90A1E00BB0AC1
:1014E0001E009D0A1D00800A1D00630A1C00470A99
:1014F0001B002C0A1B00110A1A00F7091A00DD094B
:101500001900C4091900AB091900920917007B09D9
:101510001800630917004C09160036091600200947
:1015200016000A091500F5081500E0081400CC089B
:101530001400B8081400A4081400900813007D08D3
:1015400012006B08130058081200460812003408F5
:101550001100230811001208110001081100F00702
:101560001000E0071000D0071000C0071000B007FF
:101570000F00A107100091070E0083070F007407EA
:101580000F0065070E0057070E0049070E003B07C6
:101590000D002E070E0020070D0013070D00060793
:1015A0000D00F9060C00ED060D00E0060C00D40657
:1015B0000C00C8060C00BC060C00B0060C00A4060B
:1015C0000B0099060C008D060B0082060B007706B7
:1015D0000B006C060B0061060A0057060B004C0658
:1015E0000A0042060A0038060A002E060A002406EF
:1015F0000A001A060A001006090007060A00FD057F
:101600000900F4050900EB050900E2050900D90508
:101610000900D0050900C7050900BE050900B50588
:101620000800AD050800A50509009C050800940503
:1016300008008C050800840508007C050800740576
:1016400008006C050700650508005D0507005605E4
:1016500008004E050700470507004005080038054B
:101660000700310507002A050700230507001C05B0
:101670000600160507000F0507000805060002050D
:101680000700FB040600F5040700EE040600E8046A
:101690000600E2040700DB040600D5040600CF04C0
:1016A0000600C9040600C3040600BD040600B70412
:1016B0000600B1040500AC040600A6040600A00460
:1016C00005009B04060095040500900406008A04AA
:1016D000050085040500800406007A0405007504F1
:1016E0000500700405006B04050066040500610434
:1016F00005005C04050057040500520405004D0474
:10170000050048040500430405003E0404003A04B3
:10171000050035040500300404002C0405002704EE
:101720000400230405001E0404001A040400160427
:101730000500110404000D0404000904050004045C
:10174000040000040400FC030400F8030400F40394
:101750000400F0030400EC030400E8030400E403C5
:101760000400E0030400DC030400D8030400D403F5
:101770000400D0030400CC030400C8030300C50325
:10178000030024F404D9201BC40C5C0E9804C40983
:101790005F0265077101F405F900FB04B30048041A
:1017A0008700C10369005803550003034500BE02CA
:1017B0003A008402310053022A0029022500040263
:1017C0002000E4011C00C8011900AF0117009801B6
:1017D0001400840113007101100061011000510117
:1017E0000E0043010D0036010B002B010B00200100
:1017F0000B00150109000C01090003010800FB00A2
:101800000800F3000800EB000700E4000600DE001B
:101810000600D8000600D2000600CC000500C70074
:101820000500C2000500BD000400B9000400B500B9
:101830000400B1000400AD000400A9000400A500EC
:101840000300A20003009F0004009B000300980017
:1018500003009500020093000300900003008D0038
:1018600002008B0003008800020086000200840052
:101870000300810002007F0002007D0002007B0067
:101880000200790002007700010076000200740077
:10189000020072000100710002006F0002006D0082
:1018A00001006C0002006A0001006900020067008C
:1018B0000100660001006500010064000200620092
:1018C000010061000100600001005F0002005D0096
:1018D00001005C0001005B0001005A00010059009A
:1018E000010058000100570001005600010055009A
:1018F0000100540001005300000053000100520099
:10190000010051000100500001004F0001004E0095
:1019100000004E0001004D0001004C0001004B0092
:1019200000004B0001004A0001004900010048008E
:10193000000048000100470001004600000046008A
:101940000100450000004500010044000100430083
:10195000000043000100420000004200010041007D
:10196000000041000100400001003F0000003F0076
:1019700001003E0000003E0001003D0000003D006F
:1019800001003C0000003C0000003C0001003B0066
:1019900000003B0001003A0000003A00010039005D
:1019A0000000390001003800000038000000380055
:1019B000010037000000370001003600000036004B
:1019C0000000360001003500000035000000350041
:1019D0000100340000003400000034000100330036
:1019E000000033000000330001003200000032002C
:1019F0000000320001003100000031000000310021
:101A000001003000000030000000300001002F0015
:101A100000002F0000002F0000002F0001002E000A
:101A200000002E0000002E0001002D0000002D00FF
:101A300000002D0000002D0001002C0000002C00F3
:101A400000002C0000002C0001002B0000002B00E7
:101A500000002B0000002B0001002A0000002A00DB
:101A600000002A0000002A000100290000002900CF
:101A700000002900000029000000290001002800C2
:101A800000002800000028000000280000002800B6
:101A900001002700000027000000270000002700A9
:101AA000000027000100260000002600000026009C
:101AB000000026000000260001002500000025008F
:101AC0000000250000002500000025000000250082
:101AD0000100240000002400000024000000240075
:101AE0000000240001002300000023000000230068
:101AF000000023000000230000002300000023005A
:101B0000010022000000220000002200000022004C
:101B1000000022000000220001002100000021003E
:101B20000000210000002100000021000000210031
:101B30000000210001002000000020000000200023
:101B40000000200000002000000020000000200015
:101B50000000200001001F0000001F0000001F0007
:101B600000001F0000001F0000001F0000001F00F9
:101B700001001E0000001E0000001E0000001E00EC
:101B80000000043700001E290000511B00005810FF
:101B9000000010090000CC040000780200004101A0
:101BA000000000060900FE0701920321207FFF07C5
:101BB000FF07FF0000000600000107070602008083
:101BC000808080800080030202060105A0A0050736
:101BD000070600005050F850F8505005070706005F
:101BE000002078A07028F020050707060000C0C874
:101BF00010204098180507070600006090A040A834
:101C00009068020303060104C04080030707060131
:101C100000204080808040200307070601008040AC
:101C2000202020408005050506000120A870A8207E
:101C30000505050600012020F82020020303060206
:101C4000FFC04080050101060003F80202020602FF
:101C500000C0C005050506000108102040800507EA
:101C600007060000708888888888700307070601C7
:101C70000040C040404040E0050707060000708873
:101C800008708080F8050707060000F8102010088B
:101C900008F005070706000010305090F8101005F6
:101CA0000707060000F880F0080888700507070697
:101CB0000000708080F0888870050707060000F833
:101CC0000810202020200507070600007088887073
:101CD00088887005070706000070888878080870F3
:101CE000020505060200C0C000C0C00206060602CA
:101CF000FFC0C000C040800407070600001020405D
:101D000080402010050303060002F800F8040707CE
:101D100006010080402010204080050707060000D3
:101D2000708808102000200507070600007088084A
:101D300068A8A870050707060000708888F88888DA
:101D400088050707060000F08888F08888F00507F6
:101D500007060000708880808088700507070600ED
:101D600000F08888888888F0050707060000F8805A
:101D700080F08080F8050707060000F88080F0807A
:101D80008080050707060000708880B88888700585
:101D90000707060000888888F888888801070706F2
:101DA0000200808080808080800507070600003860
:101DB0001010101090600507070600008890A0C062
:101DC000A09088050707060000808080808080F84A
:101DD00005070706000088D8A888888888050707AF
:101DE0000600008888C8A8988888050707060000AC
:101DF00070888888888870050707060000F0888842
:101E0000F080808005070706000070888888A89009
:101E100068050707060000F08888F0A0908805078D
:101E200007060000788080700808F00507070600A4
:101E300000F82020202020200507070600008888C1
:101E40008888888870050707060000888888888841
:101E500050200507070600008888888888A8500554
:101E60000707060000888850205088880507070665
:101E7000000088888850202020050707060000F809
:101E80000810204080F8030707060100E0808080EA
:101E90008080E0050505060001804020100803074A
:101EA00007060100E02020202020E00503030600B3
:101EB00004205088050101060000F8020202060213
:101EC000058040050505060000700878887805073C
:101ED000070600008080B0C88888F0050505060068
:101EE0000070808088700507070600000808689861
:101EF0008888780505050600007088F88070050759
:101F0000070600003048E040404040050606060055
:101F1000FF7088887808700507070600008080B089
:101F2000C8888888010707060200800080808080BA
:101F3000800308080601FF200020202020A0400484
:101F40000707060000808090A0C0A0900307070646
:101F50000100C04040404040E0050505060000D0BB
:101F6000A8A8A8A8050505060000B0C888888805A7
:101F7000050506000070888888700506060600FFC3
:101F8000F08888F080800506060600FF788888784B
:101F90000808050505060000B0C880808005050515
:101FA00006000070807008F004070706000040403B
:101FB000E0404040300505050600008888889868A4
:101FC00005050506000088888850200505050600DF
:101FD000008888A8A85005050506000088502050F4
:101FE000880506060600FF888888780870050505BC
:101FF000060000F8102040F8030707060100204003
:1020000040804040200107070602008080808080D9
:102010008080030707060100804040204040800583
:10202000020206000268900000000600000000485E
:102030004200004842000080400000000020746F11
:102040006F206C6F6E6720657874727573696F6E40
:102050002070726576656E7465640A0020636F6C2B
:102060006420657874727573696F6E20707265761E
:10207000656E7465640A004D6F766520302E316D93
:102080006D004D6F766520316D6D004D6F7665206A
:1020900031306D6D004D6F76652061786973004554
:1020A00078747275646572004D6F7665205A004DC4
:1020B0006F76652059004D6F76652058004578741D
:1020C0007275646572004D6F7665205A004D6F76AB
:1020D000652059004D6F766520580050726570611B
:1020E000726500496E697469616C697A652045455D
:1020F00050524F4D00436F6E74726F6C0052657397
:10210000746F7265206661696C73616665004C6FFF
:1021100061642073657474696E677300496E6974D5
:1021200069616C697A6520454550524F4D00537482
:102130006F72652073657474696E67730046696CAD
:10214000616D656E74004D6F74696F6E0054656DDE
:102150007065726174757265004D61696E005072D0
:1021600065686561742041425320636F6E6600505C
:1021700072656865617420504C4120636F6E660023
:102180005049442D44005049442D44005049442DA9
:1021900049005049442D49005049442D50005049B0
:1021A000442D500046616E20737065656400466181
:1021B0006E2073706565640046616E20737065659E
:1021C00064004265640042656400426564004E6FCD
:1021D0007A7A6C65004E6F7A7A6C65004E6F7A7A07
:1021E0006C6500436F6E74726F6C0053746F726530
:1021F0002073657474696E6773004265640042659C
:102200006400426564004E6F7A7A6C65004E6F7AA6
:102210007A6C65004E6F7A7A6C650046616E207349
:10222000706565640046616E207370656564004684
:10223000616E2073706565640054656D70657261D0
:102240007475726500454550524F4D20646174614C
:1022500073697A65206572726F722E0A00290A000E
:102260002062797465733B20637263200053657448
:1022700074696E67732053746F7265642028002937
:102280000A002062797465733B206372632000202A
:1022900073746F7265642073657474696E677320FC
:1022A0007265747269657665642028002028636110
:1022B0006C63756C6174656429210A0020213D20DE
:1022C00000454550524F4D20435243206D69736D78
:1022D00061746368202D202873746F7265642920EF
:1022E000002053697A653A2000496E6465783A2087
:1022F00000204D61726C696E3D563535290A002803
:10230000454550524F4D3D00454550524F4D20766A
:10231000657273696F6E206D69736D617463682097
:10232000005654726176206D696E00565472617663
:10233000206D696E005654726176206D696E00568C
:102340006D696E00566D696E00566D696E00566D52
:102350006178204500566D6178204500566D6178A2
:10236000204500566D6178205A00566D6178205ADC
:1023700000566D6178205A00566D617820590056DC
:102380006D6178205900566D6178205900566D6155
:1023900078205800566D6178205800566D6178207D
:1023A00058004D6F74696F6E00416D617820450073
:1023B000416D6178204500416D6178205A00416D82
:1023C0006178205A00416D6178205900416D617833
:1023D000205900416D6178205800416D6178205886
:1023E00000412D74726176656C00412D74726176C6
:1023F000656C00412D7265747261637400412D72C9
:1024000065747261637400416363656C004163636A
:10241000656C004D6F74696F6E0056652D6A65724C
:102420006B0056652D6A65726B0056652D6A657284
:102430006B00567A2D6A65726B00567A2D6A65724A
:102440006B0056792D6A65726B0056792D6A65723C
:102450006B0056792D6A65726B0056782D6A65722D
:102460006B0056782D6A65726B0056782D6A65721E
:102470006B004D6F74696F6E004573746570732FD8
:102480006D6D004573746570732F6D6D005A7374B4
:102490006570732F6D6D005A73746570732F6D6D59
:1024A000005973746570732F6D6D00597374657086
:1024B000732F6D6D005873746570732F6D6D0058B8
:1024C00073746570732F6D6D004D6F74696F6E005E
:1024D00000002200250028002B000000200023001F
:1024E000260029000202020202020202040404047D
:1024F00004040404030303030303030301010101B0
:1025000001010101010204081020408001020408B9
:1025100010204080010204081020408080402010DC
:102520000804020100000001020000000000000099
:102530000403080700000000000000000000000085
:10254000000000004D3234004D3233202573005519
:102550006E6B6E6F776E20636F6D6D616E643A2087
:10256000220053442063617264206F6B0A006F7015
:10257000656E526F6F74206661696C65640A0076DF
:102580006F6C756D652E696E6974206661696C6526
:10259000640A00534420696E6974206661696C0A9C
:1025A0000053746570732F6D6D004A65726B004146
:1025B0006363656C65726174696F6E0056656C6FFC
:1025C0006369747900436F6E74726F6C0046696C56
:1025D0002E204469612E0046696C2E204469612ECC
:1025E000004F6666004F6E20004520696E206D6DBD
:1025F0003300436F6E74726F6C0043616E6E6F7464
:1026000020656E746572207375626469723A200089
:10261000022E2E000152656672657368004D616975
:102620006E0000060900FE0000000000010900081D
:10263000FE000005080806000040F0C88888987869
:1026400010050808060000C0F88888888888F80502
:1026500005050600012030F83020050808060000B6
:102660002070F820202020E00509090600FF2070D6
:10267000A8A8B8888870200509090600FFE080C076
:10268000B0A8283028280509090600FFF8A888887E
:10269000888888A8F8050A0A0600FE205050505085
:1026A00088A8A8887003030306000340A0407C3C70
:1026B0003E5E2B3D3F2F5B5D3B2C2A225C006F7002
:1026C000656E206661696C65642C2046696C653AAC
:1026D000200043616E6E6F74206F70656E2073759D
:1026E0006264697220006563686F3A004531205466
:1026F0004845524D414C2052554E41574159004298
:10270000454420544845524D414C2052554E415766
:10271000415900546865726D616C2052756E617725
:10272000617900526573656E643A20006F6B00201A
:10273000746F6F206C6F6E67206578747275736943
:102740006F6E2070726576656E7465640A00206332
:102750006F6C6420657874727573696F6E20707227
:102760006576656E7465640A00627573793A2070E7
:10277000617573656420666F7220696E7075740A86
:1027800000627573793A2070617573656420666FB5
:102790007220757365720A00627573793A207072DF
:1027A0006F63657373696E670A004B494C4C45440F
:1027B0002E20004B494C4C20636175736564206288
:1027C0007920746F6F206D75636820696E61637422
:1027D0006976652074696D65202D20637572726558
:1027E0006E7420636F6D6D616E643A2000506C658D
:1027F000617365207265736574005052494E54458B
:10280000522048414C544544005072696E746572C0
:102810002068616C7465642E206B696C6C282920BB
:1028200063616C6C6564210A00656E717565756520
:10283000696E67202200000040C00000A0C00000B8
:1028400000005761726E696E673A20486F6D696E5D
:10285000672042756D702044697669736F72203C01
:1028600020310A000202040000A0400000A0400045
:10287000000040000061430000634300006643FF26
:10288000FFFF466C6F7700466C6F7700466C6F7782
:102890000046616E2073706565640046616E20734A
:1028A000706565640046616E207370656564004202
:1028B00065640042656400426564004E6F7A7A6C1C
:1028C00065004E6F7A7A6C65004E6F7A7A6C65009F
:1028D0005370656564005370656564005370656589
:1028E00064004D61696E00507265686561742050C6
:1028F0004C4120456E6400507265686561742050DB
:102900004C412042656400507265686561742050D6
:102910004C41005072657061726500507265686567
:1029200061742041425320456E64005072656865B1
:1029300061742041425320426564005072656865AD
:102940006174204142530050726570617265004DA0
:10295000343238005072656865617420504C410013
:10296000436F6F6C646F776E005072656865617459
:10297000204142530044697361626C652073746541
:102980007070657273004D38340053657420686F41
:102990006D65206F666673657473004175746F2092
:1029A000686F6D6500473238004D6F76652061783D
:1029B0006973004D61696E004D6F76652058004D5A
:1029C0006F76652059004D6F7665205A0045787402
:1029D0007275646572004572726F722077726974E5
:1029E000696E6720746F20454550524F4D210A0093
:1029F00057726974696E6720746F2066696C653AF6
:102A000020006F70656E206661696C65642C2046DD
:102A1000696C653A20006F70656E206661696C654F
:102A2000642C2046696C653A200046696C65207309
:102A3000656C65637465640A002053697A653A20A1
:102A40000046696C65206F70656E65643A200020F1
:102A500066696C653A2000646F696E67006672652E
:102A60007368004E6F772000454E44205355425204
:102A70004F5554494E450A002220706F73002220A2
:102A8000706172656E743A2200535542524F55542C
:102A9000494E452043414C4C207461726765743A3D
:102AA00022004B494C4C45442E2000747279696ECB
:102AB0006720746F2063616C6C207375622D67638F
:102AC0006F64652066696C6573207769746820742B
:102AD0006F6F206D616E79206C6576656C732E204A
:102AE0004D4158206C6576656C2069733A004572DB
:102AF000726F723A0000002100240027002A0000B3
:102B00004FD0FAD011241FBECFEFD0E4DEBFCDBF2F
:102B100012E0A0E0B1E0E2E5F9EB01E00BBF02C09A
:102B200007900D92A035B107D9F722E1A0E5B2E0F8
:102B300001C01D92A93AB207E1F715E1C1E8D5E15C
:102B400004C02197FE010E94F7D9C038D107C9F708
:102B50000E940DC80C949CDC0C9400002F923F92B4
:102B60004F925F926F927F928F929F92AF92BF929D
:102B7000CF92DF92EF92FF920F931F93CF93DF9349
:102B8000CDB7DEB7E7970FB6F894DEBF0FBECDBF67
:102B900021E0209346128091B7118D3409F4CEC103
:102BA000843511F40C94C525873411F00C94092652
:102BB0008091B5119091B6118C31910509F4D6C070
:102BC0004CF497FDB7C182309105A4F0049709F445
:102BD0008FC0B0C18B35910509F4DFC08C359105EC
:102BE00009F4DFC08A35910509F0A4C110925C0296
:102BF0000C940B2680910701882311F40C940B266A
:102C0000B7E48B2EB1E09B2E10E6E12E12E1F12EFF
:102C100002EA17E088E7A82E82E1B82E98E5C92ECF
:102C200092E0D92E712CD4018D914D010E948B2DF3
:102C3000882319F10E94582DF6012081211104C02A
:102C400020915C02222341F0D8012D913D914D91BC
:102C50005C910E9409DA0AC0B3E07B1639F0F501F5
:102C600020813181428153810E9408DAD7016D931E
:102C70007D938D939C9313970AC0F8018081918175
:102C8000A281B381F70180839183A283B38373947C
:102C9000F4E0EF0EF11C0C5F1F4F24E0A20EB11CFC
:102CA0003FEFC31AD30A44E07412BDCF86E40E94FA
:102CB000D42D8823C9F00E94582D20E030E0A901CE
:102CC0000E948CDB181684F40E94582D20E030E01E
:102CD00040E752E40E948CDA609317017093180168
:102CE0008093190190931A010E9428B40C940B262A
:102CF00080E50E94D42D882329F00E94142D6B01B9
:102D00007C0103C0C12CD12C760183E50E94D42D17
:102D1000882361F00E94582D20E030E04AE754E417
:102D20000E94D3D50E9405DB6B017C010E945E3BB3
:102D30008091680E811105C060E08DE791E00E94EE
:102D400080650E949CC7C60ED71EE81EF91E0E9411
:102D50009CC7DC01CB018C199D09AE09BF09B7FDE9
:102D600002C00C940B260E94A9B2F1CF8091D00230
:102D70008770873011F00C9410268FE40E94D42DB8
:102D8000882319F00E94482D03C08FE40E948B2DE8
:102D900081110C940B260C94102620935C020C9449
:102DA0000B2677E4272E71E0372EE4E5EE2EE2E1E4
:102DB000FE2E22EA37E03BA32AA3F8E7CF2EF2E16A
:102DC000DF2E00E010E0D1018D911D010E94D42D75
:102DD000882309F44BC00E94582D2B013C0113306D
:102DE00049F0F60120813181428153810E9408DA45
:102DF0002B013C01AAA1BBA12D913D914D915C916C
:102E0000C301B2010E9408DA4B015C012DEB37E3EC
:102E100046E855EB0E948CDB87FD0AC02DEB37E3BB
:102E200046E855E3C501B4010E946DD51816F4F4C7
:102E3000133051F44092AE075092AF076092B00742
:102E40007092B10701E012C0A5019401F701608101
:102E50007181828193810E9409DAD7016D937D93FC
:102E60008D939C931397812F0E94742B1F5FB4E066
:102E7000EB0EF11CEAA1FBA13496FBA3EAA3F4E05C
:102E8000CF0ED11C143009F09ECF002309F44EC0A0
:102E900020E030E0A9016091AE077091AF0780910A
:102EA000B0079091B1070E9409DA2091F60C309199
:102EB000F70C4091F80C5091F90C0E94D3D50E9468
:102EC00091DB6093E40E7093E50E8093E60E909391
:102ED000E70E9091C20E8091C30E981719F00E94D0
:102EE000003B24C00E945E3B80916F00982F92703F
:102EF00081FF05C080916F008D7F80936F004091AE
:102F0000E40E5091E50E6091E60E7091E70E40934D
:102F10001F05509320056093210570932205992386
:102F200029F080916F00826080936F000E94E036EC
:102F30000C940B260E94BC950C940B268091B51125
:102F40009091B6118237910509F487C70CF0DDC066
:102F50008B34910509F418C50CF067C088319105D0
:102F600009F494C2ACF58231910509F4AAC6BCF407
:102F700097FF02C00C94C225823091050CF4B6C1B3
:102F8000419711F00C94C22560E086EB91E00E941D
:102F900080655E985E9815985E980C940B26853136
:102FA000910509F458C23CF4449711F00C94C225E1
:102FB000EEECF1E012C28631910509F450C2479758
:102FC00011F00C94C225E091B311F091B41151C2EB
:102FD0008D31910511F40C940B26C4F48A319105BE
:102FE00009F463C20CF45BC28B31910509F46BC226
:102FF0004C9711F00C94C22540E060E08091B31131
:103000009091B4110E9448C40C940B268F31910505
:1030100009F4CFC30CF4EFC28032910509F47DC3EB
:103020008A9709F47CC40C94C2258836910509F46A
:10303000B7C40CF042C08235910509F43AC624F5B4
:103040008D34910509F4A8C40CF4A2C4813591050E
:1030500011F00C94C2250E94C9460E949B3B10921D
:10306000130810921208109257021092560268EE3E
:1030700073E080E090E00E94916460E082EF92E073
:103080000E9480650C940B268435910509F419C6BD
:103090000CF413C68535910509F446C68C359105A7
:1030A00011F00C94C22597E4C92E91E0D92E2AEE96
:1030B000E22E2CE0F22E10E050C68D36910509F478
:1030C00079C59CF48A36910509F4C3C50CF430C562
:1030D0008B36910509F4DBC58C36910511F00C9403
:1030E000C225109206010C940B268F36910509F427
:1030F0009BC40CF486C48037910509F4E8C4813779
:10310000910509F4E8C40C94C2258D3D910511F494
:103110000C9421230CF05FC08B39910509F423C571
:103120001CF58737910509F48CC774F48537910530
:1031300009F42BC70CF038C78337910511F00C94B4
:10314000C225E7EEF3E0C6C68937910509F484C7C6
:103150000CF47AC78C38910509F448C5813991057A
:1031600009F481C70C94C2258C3C910511F40C9490
:103170003021F4F4883C910511F40C94AB2034F424
:103180008E3B910509F450C50C94C225893C9105EC
:1031900011F40C94FB208B3C910511F00C94C2258A
:1031A000E7E4EE2EE1E0FE2E02EE17E00C94212182
:1031B0008E3C910511F40C94102214F40C94A5216A
:1031C000833D910509F48EC08C3D910511F40C945A
:1031D00014230C94C2258C3A31E0930711F40C941B
:1031E0003222F4F58F3251E0950711F40C94D62475
:1031F000DCF48C32B1E09B0711F40C94B9233CF45D
:10320000823E910511F40C9490230C94C2258D32CA
:10321000F1E09F0711F40C94E2238E32914011F4F7
:103220000C9482240C94C225833631E0930709F470
:1032300055C03CF48033914011F40C94D9240C9483
:10324000C2258039A1E09A0711F40C946C258A39C3
:10325000914011F00C94C2250E943B2C0C940B263B
:10326000883FE1E09E0711F40C948125ECF4853F42
:1032700021E0920711F40C946F254CF4843F9140A7
:1032800011F00C94C2250E944F860C940B26863FA9
:1032900051E0950711F40C947225873F914011F489
:1032A0000C9475250C94C2258B38B3E09B0711F460
:1032B0000C940B263CF48C30924011F40C94A42511
:1032C0000C94C225803A23E0920709F465C2873E38
:1032D000934011F40C94AD250C94C225EEEEFAE265
:1032E0000C945925E6EEF6E20C943522A090B31129
:1032F000B090B41180E50E94D42D882359F00E942B
:10330000142D6B017C0111E0672B682B692B31F4C4
:1033100010E004C010E0C12CD12C760183E50E949E
:10332000D42D882311F40C9439270E94582D20E0C5
:1033300030E04AE754E40E94D3D50E9405DB6B01DC
:103340007C0111110BC0672B682B692B39F4A11478
:10335000B10421F0D5018C91811102C010E001C0AF
:1033600011E00E945E3B112329F061E0C5010E943B
:10337000BA6505C060E083EA91E00E94806583E061
:103380008093461281E080938205C114D104E10448
:10339000F104B1F00E949CC7C60ED71EE81EF91EAC
:1033A0000E949CC7DC01CB018C199D09AE09BF09A5
:1033B000B7FF0DC08091820581110C943E2707C094
:1033C00080918205882319F00E94A9B2F9CF0E944A
:1033D000F04C109282050C940B2684918F010F5FA4
:1033E0001F4F882321F00E94E72DF801F6CF10929D
:1033F000861189E39FE00E943CA68BE1E9E3FFE0B0
:10340000DE01159601900D928A95E1F78091370FB4
:103410009091380F9C838B8381EF91E09A8389830D
:1034200040E050E0BE016F5F7F4F80E090E00E947F
:103430005EAECE0101960E942CB2EFEBF1E08491DA
:103440008F010F5F1F4F882311F40C940B260E94ED
:10345000E72DF801F4CF0E949B940C940B26109258
:10346000080F1092090F0C940B26803209F4108279
:10347000319680818111F9CF40E061E08091B311F4
:103480009091B4110E9448C40C940B268091090FAE
:1034900081112093080F0E94A1550C940B261092C5
:1034A000080F0E94C5550C940B268091090F8823A4
:1034B00011F40C940B2683E50E94D42D81110C94F9
:1034C00042270C940B2683E40E948B2D882309F459
:1034D00050C0ECE0F2E084918F010F5F1F4F882312
:1034E00021F00E94E72DF801F6CF8091D4108111D0
:1034F00003C0EFEDF1E012C0BE016F5F7F4F81EDC1
:1035000090E10E9403A58E010F5F1F4FF80181918A
:103510008F01882349F10E94E72DF8CF84918F0114
:103520000F5F1F4F882301F10E94E72DF801F6CFAE
:103530005AE8C52E52E0D52EE12CF12C20E08091E6
:10354000E90C90E00E2C02C0959587950A94E2F75D
:1035500080FD9AC2BFEFEB1AFB0AE2E0CE0ED11C4F
:10356000F5E0EF16F10459F78AE00E94E72D0C947C
:103570000B268091090F882339F08091080F88234A
:1035800019F0E9EEF1E003C0EBEFF1E028C084911F
:103590008F010F5F1F4F882321F00E94E72DF80154
:1035A000F6CF609182117091831180918411909176
:1035B00085114AE00E9496308FE20E94E72D6091CB
:1035C0007E1170917F1180918011909181114AE05C
:1035D0000E9496308AE00E94E72D0C940B2684917D
:1035E0008F010F5F1F4F882311F40C940B260E944C
:1035F000E72DF801F4CF8091090F882311F40C9482
:103600000B2681ED90E10E9481C281ED90E10E9444
:10361000DEA41092070F1092060F8091090F8823E5
:1036200011F40C940B260091B3111091B4110E9467
:1036300051AEB801CE0180960E9467B08C01892BF3
:1036400011F40C940B2668A179A16115710511F094
:103650006C5F7F4F19821C8222E0A801CE01019687
:103660000E948DAA811102C0F12C14C0CE010196D6
:103670000E94BFAD8823C1F361E0CE0101960E9494
:10368000E7A4009789F325EEDC012C931C820E94AD
:1036900026C0F82ECE0101960E94E12DF11003C044
:1036A000E9E2F2E022C0EBE1F2E084917F01BFEFBA
:1036B000EB1AFB0A882321F00E94E72DF701F5CFD2
:1036C000F80181918F01882319F00E94E72DF8CF2E
:1036D0008AE00E94E72D10928211109283111092BD
:1036E0008411109285110C940B2684917F012FEF89
:1036F000E21AF20A882321F00E94E72DF701F5CFA4
:10370000D8018D918D01882319F00E94E72DF8CF03
:103710008EE20E94E72D0C940B268091080F8111F8
:103720000E945E3B8091090F882311F40C940B26B4
:1037300080E50E94D42D882319F00E94482D03C0F3
:1037400080E50E948B2D182F482F61E08091B311E6
:103750009091B4110E9448C483E50E94D42D88231F
:1037600081F00E94242DAB01BC0140938211509343
:103770008311609384117093851181ED90E10E9413
:10378000F4A38091090F882319F081E08093080F3A
:1037900011110C940B267FCE8091B3119091B4112E
:1037A00021E02093070F40E060E00E9448C40C94A1
:1037B0000B260E9452557B018C0120E831E541E047
:1037C00050E00E9474D9C9016DE671E00E94B0D941
:1037D0004B015C01C801B70120E13EE040E050E050
:1037E0000E9474D9CA01B90128E130E040E050E0FC
:1037F0000E9474D9762E672EC62ED72E6CE3262E05
:10380000312C412C512CC801B701A20191010E9419
:1038100074D9F62EE72ECA01B901A20191010E94C6
:1038200074D9CB018E010F5F1F4F8114910499F061
:10383000EF92FF927F936F936F927F92BF92AF92BE
:103840009F928F9289E692E09F938F931F930F939D
:103850000E9405D513C0A114B104B1F0EF92FF92FC
:103860007F936F936F927F92BF92AF9289E592E0C0
:103870009F938F931F930F930E9405D50FB6F894D3
:10388000DEBF0FBECDBF30C0CD2879F0EF92FF92E2
:103890007F936F936F927F928DE492E09F938F93CB
:1038A0001F930F930E9405D5E9CF892B69F0EF9202
:1038B000FF927F936F9385E492E09F938F931F9382
:1038C0000F930E9405D5DACFEF92FF9281E492E048
:1038D0009F938F931F930F930E9405D50F900F9086
:1038E0000F900F900F900F9060E0C8010E94BA6592
:1038F000E6EEF6E284917F019FEFE91AF90A882348
:1039000021F00E94E72DF701F5CFB8018DE792E095
:103910000E94B75D8AE00E94E72D0C940B2683E598
:103920000E94D42D882311F40C940B260E94342D70
:10393000E82E80E50E94D42D882311F40C940B26E8
:103940000E94342D182F87FF02C00C940B2689E4A7
:103950000E94D42D882341F00E94482D81110C949F
:10396000A02AE0E3F5E00BC089E40E948B2DF6CF9E
:103970003196A5E0ED35FA0711F40C94A02A849154
:103980001813F6CF0C94752A0E94A1550C940B269F
:103990000E94C5550C940B260E94DA550C940B26F8
:1039A00088E690E00E94033181110C940B268091EF
:1039B000E90C83FF02C00C940B2683E50E94D42DF2
:1039C000882311F40C940B260E94582D0E94FEDAD5
:1039D00070934F0D60934E0D80E00E947D460E94D3
:1039E000582D20E030E04AEA52E40E946DD51816C6
:1039F00014F40C940B260E94DA550E94F04C0C949F
:103A00000B268EE40E94D42D882311F40C940B26EF
:103A10000E94242D609396127093971280939812AF
:103A2000909399120C940B2683E50E948B2D88238A
:103A300059F083E50E94D42D882319F00E94342D7B
:103A400001C080E08093E90CE6EEF6E284918F01FC
:103A50000F5F1F4F811103C0E8E9F2E004C00E942C
:103A6000E72DF801F3CF84918F010F5F1F4F88235B
:103A700021F00E94E72DF801F6CF8091E90C811129
:103A800057CDE4E9F2E018C0BB24B394B20E222370
:103A900019F08CE20E94E72DF60185919491FC01CA
:103AA00084918F010F5F1F4F882321F00E94E72D23
:103AB000F801F6CF2B2D4ECD84918F010F5F1F4F54
:103AC000882309F451CD0E94E72DF801F5CF8FE945
:103AD00092E00E9448B283E50E94D42D811103C078
:103AE000E6EEF6E20DC00E94342D8D3320F4809373
:103AF00031010C940B268CE3809331010C940B263E
:103B000084918F010F5F1F4F882321F00E94E72DC2
:103B1000F801F6CF4091310150E060E070E088EAB2
:103B200092E00E94645D8AE00E94E72D0C940B26CF
:103B300089E690E00E940331811111C0EFEAF2E0C2
:103B400084918F010F5F1F4F882321F00E94E72D82
:103B5000F801F6CF0E9474458AE00E94E72D10928A
:103B600046120C94B52A83E50E94D42D882311F4C3
:103B70000C940B260E94342D182F8D3308F01CE373
:103B8000109353120E949CC76B017C01212F30E0DF
:103B9000A8EEB3E00E94A1D9C60ED71EE81EF91EFA
:103BA000C0924F12D0925012E0925112F0925212E3
:103BB0000C940B268DE690E00E94033181110C9449
:103BC0000B268091E90C83FF02C00C940B2683E541
:103BD0000E94D42D8DA381110C94532782E50E945D
:103BE000D42D81110C9453270C940B268091E90C51
:103BF00083FF02C00C940B2683E50E94D42D8823FA
:103C000011F40C940B260E94582D0E94FEDA6238A3
:103C1000710514F062E870E070934D0D60934C0DE7
:103C20000E9431460C940B268091E90C83FF02C060
:103C30000C940B2683E50E94D42D8FA781110C9440
:103C4000392982E50E94D42D81110C9439290C94D4
:103C50000B2680E50E94D42D811106C083E50E94C9
:103C6000D42D882361F006C00E94342D81110C945C
:103C70000B26F4CF0E94242D6F3F710510F06FEFDB
:103C800070E070931308609312080C940B2680E583
:103C90000E94D42D811106C01092130810921208B0
:103CA0000C940B260E94242D672B11F00C940B26EC
:103CB000F3CF10925B020C940B2681E080935B02A1
:103CC000AAC783E50E94D42D882399F00E94582D1D
:103CD00020E030E04AE754E40E94D3D50E9405DB9F
:103CE00060933201709333018093340190933501D6
:103CF00092C788E50E948B2D81110C94502A89E58A
:103D00000E948B2D81110C94502A8AE50E948B2DE4
:103D100081110C94502A85E40E948B2D81110C9402
:103D2000502A0E949B3B77C783E50E948B2D8823F6
:103D300009F471C70E94582D20E030E04AE754E4AE
:103D40000E94D3D50E9405DB60934B1270934C12F6
:103D500080934D1290934E125EC7F60181916F01D0
:103D60000E948B2D882309F46EC0133009F063C0C4
:103D70000E94582D4B015C0120E030E040EA51E404
:103D80000E946DD587FF4EC0A50194016091F60C8D
:103D90007091F70C8091F80C9091F90C0E948CDADC
:103DA0002B013C019B01AC016091BE077091BF07E4
:103DB0008091C0079091C1070E94D3D56093BE0740
:103DC0007093BF078093C0079093C107A30192012E
:103DD0006091EE077091EF078091F0079091F107E5
:103DE0000E94D3D56093EE077093EF078093F0079E
:103DF0009093F1076091CE077091CF078091D00723
:103E00009091D1070E9472D5A30192010E94D3D54F
:103E10000E9405DB6093CE077093CF078093D00795
:103E20009093D1078092F60C9092F70CA092F80C28
:103E3000B092F90C08C00E94582DD7016D937D9364
:103E40008D939C9313971F5FB4E0EB0EF11C14301D
:103E500009F083CF0E94075FDEC60E945E3B83E5C8
:103E60000E94D42D882309F461C80E94242D623059
:103E7000710509F05BC80E94EEB58BE50E94E72D45
:103E800060913A1270913B1280913C1290913D12D8
:103E900042E00E94363940913E1250913F126091AB
:103EA00040127091411285E093E00E94815D409143
:103EB000421250914312609144127091451282E077
:103EC00093E00E94815D8DE50E94E72D8AE00E94CB
:103ED000E72DA1C684918F010F5F1F4F882321F02A
:103EE0000E94E72DF801F6CF60E087ED93E00E9495
:103EF000A93661E080ED93E00E94A93661E085EC8F
:103F000093E00E94A93661E085EB93E00E94A93618
:103F100060E08CEA93E00E94A93661E082EA93E0D7
:103F20000E94A93660E088E993E00E94A93660E02B
:103F300080E993E00E94A93660E082E893E00E9465
:103F4000A93660E084E793E00E94A93660E085E648
:103F500093E00E94A93660E087E593E00E94A936CD
:103F600060E081E493E00E94A93660E080E393E0A2
:103F70000E94A93660E08BE193E00E94A93661E0DF
:103F800088E093E00E94A93646C68091B3119091D3
:103F9000B411FC012081211103C00E94F04C3BC6EA
:103FA00060E00E94BA6537C60091B3111091B41158
:103FB00083E0D12C40E08150E9F0D8019C91292F79
:103FC0002B7F2134C1F711962C912133A1F7913425
:103FD00021F0953421F441E002C0DD24D39498010E
:103FE0002E5F3F4F89012F5F3F4FF8019081903244
:103FF000C9F3E1CF442369F0E6EEF6E284917F0154
:104000002FEFE21AF20A882321F00E94E72DF70130
:10401000F5CFDD2069F0E4EBF4E084917F013FEF20
:10402000E31AF30A882321F00E94E72DF701F5CF68
:10403000D8018D918D01882309F496CA0E94E72D3D
:10404000F7CF0E94263EE7C581E08093CF028093A0
:10405000CE020E94C93DDFC51092CF021092CE025F
:104060000E94C93DD8C583E50E94D42D882319F04C
:104070000E94242D02C060E070E08B011127023005
:104080001105D4F0EEEEFAE284918F010F5F1F4F1D
:10409000811103C0E8EBF4E004C00E94E72DF801B1
:1040A000F3CF84918F010F5F1F4F882309F4B3C5AD
:1040B0000E94E72DF801F5CF88E40E94D42D8823D3
:1040C000A9F00E94242D6A3A71053CF06530B1E0F8
:1040D0007B072CF064E071E002C06AEA70E0F8014E
:1040E000EE0FFF1FED5EF24F7183608386E40E9446
:1040F000D42D8823A9F00E94242DF801EE0FFF1F74
:10410000E95EF24F718360836F3F710519F014F01F
:104110006FEF70E077FF02C060E070E07183608352
:1041200082E40E94D42D882309F475C50E94242DB1
:104130006530710534F0643771052CF063E770E089
:1041400002C065E070E0000F111FF801E15FF24F5F
:104150007183608360C588EC90E00E940331811117
:104160005AC584E40E948B2D882309F441C00E9423
:10417000582D6B017C0111E020E030E0A9010E9484
:104180006DD5811101C010E01093650E20E030E084
:10419000A901C701B6010E946DD5882349F10E948B
:1041A000582DE091760424E0E29FF0011124EF59AC
:1041B000F14F608371838283938320E030E0A90113
:1041C0006091610E7091620E8091630E9091640E09
:1041D0000E946DD581110CC080E090E0A0E4B0E4B5
:1041E0008093610E9093620EA093630EB093640E61
:1041F0000E94683A10C5F7E4EF2EF1E0FF2E05E2C9
:104200001DE0D7018D917D010E948B2D882349F0FF
:104210000E94582D0E9405DBF80160837183828320
:1042200093830C5F1F4FFDE005331F0751F70E947A
:10423000D25DF1C40C5F1F4FF7E0023F1F0709F486
:10424000EAC4D7018D917D010E948B2D882391F3C3
:104250000E94582DF8016083718382839383EACF93
:1042600083E50E94D42D8823A1F00E94582D6093ED
:10427000DA077093DB078093DC079093DD07609388
:10428000D6077093D7078093D8079093D90710E08B
:1042900001C011E080E50E94D42D882359F00E94CE
:1042A000582D6093DA077093DB078093DC079093B7
:1042B000DD0710E082E50E94D42D882359F00E948A
:1042C000582D6093DE077093DF078093E00790938B
:1042D000E10710E084E50E94D42D882359F00E9464
:1042E000582D6093D6077093D7078093D807909383
:1042F000D90791C4112309F48EC44091DA07509173
:10430000DB076091DC077091DD0780EE94E00E948E
:10431000815D4091DE075091DF076091E007709169
:10432000E1078DED94E00E94815D4091D6075091A8
:10433000D7076091D8077091D9078AED94E00E9461
:10434000815D8AE00E94E72D66C481E50E948B2D85
:10435000882351F00E94142D6093F6077093F7079D
:104360008093F8079093F90783E50E948B2D8823AB
:1043700051F00E94582D60930E0870930F0880939F
:1043800010089093110884E50E948B2D882351F02A
:104390000E94582D60930A0870930B0880930C08B4
:1043A00090930D0888E50E948B2D882351F00E9480
:1043B000582D6093B2077093B3078093B40790931E
:1043C000B50789E50E948B2D882351F00E94582D56
:1043D0006093B6077093B7078093B8079093B907B7
:1043E0008AE50E948B2D882351F00E94582D6093FE
:1043F000BA077093BB078093BC079093BD0785E411
:104400000E948B2D882309F406C40E94582D6093C6
:10441000BE077093BF078093C0079093C107FBC38B
:1044200067E4C62E61E0D62E71EDE72E72E0F72E1E
:1044300010E0D6018D916D010E948B2D882351F0E3
:104440000E94582DF7016083718382839383812FAB
:104450000E94742B1F5FF4E0EF0EF11C133049F73C
:104460000C9496170E94AA37D6C384918F010F5FD0
:104470001F4F882321F00E94E72DF801F6CF83E536
:104480000E948B2D882321F00E94482D80934601A5
:10449000E8E1F5E084918F010F5F1F4F882321F041
:1044A0000E94E72DF801F6CF80914601882319F08C
:1044B000E0E1F5E002C0E4E1F5E084918F010F5FF7
:1044C0001F4F811103C0E8E0F5E004C00E94E72D12
:1044D000F801F3CF84918F010F5F1F4F882321F0E4
:1044E0000E94E72DF801F6CF2091781230917912D1
:1044F00040917A1250917B126091841270918512D2
:1045000080918612909187120E9409DAAB01BC015A
:1045100086E095E00E94815D20917C1230917D12B1
:1045200040917E1250917F12609188127091891291
:1045300080918A1290918B120E9409DAAB01BC0122
:1045400083E095E00E94815D20918012309181127C
:10455000409182125091831260918C1270918D1251
:1045600080918E1290918F120E9409DAAB01BC01EA
:1045700080E095E00E94815DE8EFF4E084918F0196
:104580000F5F1F4F882321F00E94E72DF801F6CF1F
:10459000209178123091791240917A1250917B12C9
:1045A00060913A0170913B0180913C0190913D01F5
:1045B0000E9409DAAB01BC0186EF94E00E94815DA4
:1045C00020917C1230917D1240917E1250917F1289
:1045D00060913E0170913F018091400190914101B5
:1045E0000E9409DAAB01BC0183EF94E00E94815D77
:1045F0002091801230918112409182125091831249
:104600006091420170914301809144019091450174
:104610000E9409DAAB01BC0180EF94E00E94815D49
:104620008AE00E94E72DF7C283E50E94D42D8823FB
:1046300009F4F1C20E94242D70933901609338016E
:10464000EAC28DED90E00E9403318111E4C283E55E
:104650000E94D42D811103C0E6EEF6E23BC000912A
:10466000760410E00E94242D000F111FF801EA5C6F
:10467000FE4F718360838091760490E08C01000F7F
:10468000111F000F111F9801255E3E4F7901880F01
:10469000991FFC01EA5CFE4F60817181072E000CBE
:1046A000880B990B0E9474D52AE037ED43E25CE356
:1046B0000E94D3D5F801EC58FD4E20813181428112
:1046C00053810E94D3D5D7016D937D938D939C9395
:1046D0001397A1C284918F010F5F1F4F882321F090
:1046E0000E94E72DF801F6CF85E40E94E72D809126
:1046F0007604805D0E94E72DE0917604F0E0EE0FF5
:10470000FF1FEA5CFE4F6081718188E295E00E94A4
:104710009E5D85E20E94E72D8AE00E94E72D7BC224
:1047200080E50E948B2D882309F475C20E94242DF8
:104730006B017C0183E50E94D42D882321F00E9427
:10474000242D8B0102C00FEF1FEFC80101960397C4
:1047500008F061C2D7FC5FC28C2DE0E3F5E09491D4
:10476000891709F4C2C63196B5E0ED35FB07B9F7F4
:10477000BFC683E50E94D42D882319F00E94242D02
:1047800002C064E071E079A368A380E50E94D42DA3
:10479000882339F00E94242D6938E3E17E0730F444
:1047A00002C068EE73E07A83698304C088E893E10D
:1047B0009A838983BE01605E7F4FCE0101960E947D
:1047C0002CC629C285E40E94D42D811110C080E539
:1047D0000E948B2D882391F00E94582D6093030D29
:1047E0007093040D8093050D9093060D07C00E94F1
:1047F000342D882361F3EEEEFAE271C089E40E9461
:104800008B2D882381F00E94582D2CEA35EC47E24D
:104810005EE30E94D3D560930B0D70930C0D8093D3
:104820000D0D90930E0D84E40E948B2D882381F052
:104830000E94582D2CEA35EC47E25EE30E948CDAA8
:104840006093070D7093080D8093090D90930A0DE6
:10485000E6EEF6E284918F010F5F1F4F882321F06F
:104860000E94E72DF801F6CF4091030D5091040D01
:104870006091050D7091060D85E695E00E94815DC1
:104880002CEA35EC47E25EE360910B0D70910C0D64
:1048900080910D0D90910E0D0E948CDAAB01BC0140
:1048A00081E695E00E94815D2CEA35EC47E25EE30B
:1048B0006091070D7091080D8091090D90910A0D7E
:1048C0000E94D3D5AB01BC018DE595E00E94815DCE
:1048D0008AE00E94E72D9FC10E94E72DF801849194
:1048E0008F010F5F1F4F8111F7CFE9E6F5E084914B
:1048F0008F010F5F1F4F882309F48DC10E94E72DA0
:10490000F801F5CF83E50E948B2D182F882371F0D5
:104910000E94582D0E94FEDA7093200160931F01BF
:1049200021E0672B09F020E02093140880E50E9425
:104930008B2D882359F020911F0130912001232BCA
:1049400011F00E94482D8093140865C1111163C1B4
:10495000E6EEF6E284918F010F5F1F4F882321F06E
:104960000E94E72DF801F6CF80911408882319F0F2
:1049700065E072E002C068E072E080E995E00E94C4
:10498000B75D60911F01709120018FE795E00E9453
:104990009E5DEBE7F5E084918F010F5F1F4F882349
:1049A00009F439C10E94E72DF801F5CF0E94613169
:1049B00032C180E50E948B2D882351F00E94582D32
:1049C00060936F04709370048093710490937204E9
:1049D00089E40E948B2D882381F00E94582D2CEAB7
:1049E00035EC47E25EE30E94D3D560936B0470938D
:1049F0006C0480936D0490936E0484E40E948B2D6C
:104A0000882381F00E94582D2CEA35EC47E25EE3C2
:104A10000E948CDA60936704709368048093690441
:104A200090936A04E6EEF6E284918F010F5F1F4FC8
:104A3000882321F00E94E72DF801F6CF40916F0402
:104A40005091700460917104709172048BEA95E04A
:104A50000E94815D2CEA35EC47E25EE360916B04D5
:104A600070916C0480916D0490916E040E948CDAB8
:104A7000AB01BC0187EA95E00E94815D2CEA35EC30
:104A800047E25EE360916704709168048091690475
:104A900090916A040E94D3D5AB01BC0183EA95E0F2
:104AA0000E94815D8AE00E94E72DB5C00E94E72D3B
:104AB000F80184918F010F5F1F4F8111F7CFEFEA4B
:104AC000F5E084918F010F5F1F4F882309F4A3C085
:104AD0000E94E72DF801F5CF0E945E3B9CC00E942A
:104AE000418699C00E94F64296C083E50E948B2DB4
:104AF000882321F00E94482D91E089270E94F33EEF
:104B00008AC02093240D0E94AB801092240D88232C
:104B100009F481C0E6EEF6E284918F010F5F1F4F2A
:104B2000811103C0EEEBF5E004C00E94E72DF8010F
:104B3000F3CF84918F010F5F1F4F882309F46BC05F
:104B40000E94E72DF801F5CF8091080F882309F422
:104B500062C081E080930B0F5EC081E0809307010B
:104B60001092A10783E50E94D42D882339F00E947A
:104B7000482D811150C00E9427B64DC083E50E9488
:104B80008B2DF7CF0E94BC9546C0F090B5110E94C6
:104B90005E3BFF2029F1E6EEF6E284918F010F5F84
:104BA0001F4F882321F00E94E72DF801F6CF84E5FE
:104BB0000E94E72D6F2D70E080E090E04AE00E94B7
:104BC000963080E20E94E72DEBEDF5E084918F01B5
:104BD0000F5F1F4F8823F9F00E94E72DF801F6CFF1
:104BE00010927605E6EEF6E284918F010F5F1F4F7B
:104BF000882321F00E94E72DF801F6CF6091760519
:104C000070E089EC95E00E949E5D8AE00E94E72DAD
:104C100002C00E94BC95109246120E940AB6A5C41A
:104C20000E945E3B8091170190911801A09119019B
:104C3000B0911A018093520290935302A0935402B0
:104C4000B0935502809138019091390190935102AF
:104C50008093500284E690E090933901809338016C
:104C600011E01093CF020E94C93D88E50E948B2D70
:104C7000982E89E50E948B2DA82E8AE50E948B2D07
:104C8000882E911005C0A11005C0B82CB12605C012
:104C9000A11002C0B12C01C0B82C80E1E2EAF7E01B
:104CA000A0E6B2E101900D928A95E1F782E50E94BB
:104CB000D42D882369F00E94582D2B013C0120E05F
:104CC00030E0A9010E946DD5882309F43FC006C0D9
:104CD000412C512CA0EA6A2EA0E47A2EB11005C016
:104CE000911003C0AA2009F442C040926812509269
:104CF000691260926A1270926B12A3019201609124
:104D0000AA077091AB078091AC079091AD070E9404
:104D10006DD587FF1BC019821A821B821C822091CD
:104D2000A6073091A7074091A8075091A907609165
:104D3000A2077091A3078091A4079091A507DE01B7
:104D400011966D01830172010E942876B11005C091
:104D5000911003C0A11006C00AC080E00E942AB1D1
:104D6000BB20C1F381E00E942AB1B11003C08820AA
:104D700009F459C08091D00283708330F1F060E073
:104D800085E991E00E948065E6EEF6E284918F016C
:104D90000F5F1F4F811103C0E6E8F1E004C00E94DD
:104DA000E72DF801F3CF84918F010F5F1F4F882308
:104DB000D1F10E94E72DF801F6CF0E94312C80E05E
:104DC00090E0AEEDB2E48093601290936112A093F4
:104DD0006212B09363128093641290936512A09351
:104DE0006612B0936712E090AA07F090AB070091AB
:104DF000AC071091AD07E0926812F092691200932F
:104E00006A1210936B1219821A821B821C82FE0195
:104E100031966F019C01AD01BC01CD010E94287645
:104E200082E00E942AB10E94312C8091CE028093B0
:104E3000CF020E94C93D8091520290915302A091ED
:104E40005402B09155028093170190931801A093DA
:104E50001901B0931A0180915002909151029093E0
:104E600039018093380183E0809316010E94E03677
:104E7000D2CE11110C94AE190C94A7190E94A9B2AC
:104E80000C94D0190E94242DAB01BC0140938211D7
:104E900050938311609384117093851181ED90E19B
:104EA0000E94F4A3B8CE0E94582D0E94FEDA70939F
:104EB0004F0D60934E0D80E00E947D460E94582D5C
:104EC00020E030E04AEA52E40E946DD518162CF03A
:104ED0000E94DA550E94F04C02C00E94A1556091D8
:104EE0004E0D70914F0D072E000C880B990B0E94F0
:104EF00074D56B017C018090150890901608A090E5
:104F00001708B0901808A50194010E948CDB1816B0
:104F10005CF02DA1211110C0A5019401C701B601BB
:104F20000E948CDB18161CF483EC92E002C086EB26
:104F300092E060E00E94806581E0809306011AA6FD
:104F40001BA61CA61DA618AA19AA1AAA1BAA1EA24D
:104F50001CAAFCE3FDAB2CE12EAB36E43FABC12C2D
:104F6000D12C80E8E82E9FEBF92E412C512C3201F8
:104F700060914E0D70914F0D072E000C880B990B10
:104F80000E9474D5162F072F8AA39CA39601A70110
:104F90000E946DD58823F1F02091150830911608F4
:104FA00040911708509118088DA1612F702F811121
:104FB00009C08AA19CA10E946DD5881F8827881FDF
:104FC0008EA30CC08AA19CA10E946DD587FD4AC109
:104FD0001EA204C01C2D0D2DEAA2FCA20E949CC79B
:104FE0006B017C01DC01CB0128A939A94AA95BA985
:104FF000821B930BA40BB50BB7FD3BC0D701C601B9
:1050000088519C4FAF4FBF4F88AB99ABAAABBBAB9E
:105010000E947445E2EBF2E084915F019FEFA91AD0
:10502000B90A882321F00E94E72DF501F5CF41143C
:10503000510461047104B9F0D301C201805F984D3D
:10504000AF4FBF4FBC01CD016C197D098E099F097F
:1050500028EE33E040E050E00E9474D9CA01B90163
:105060000E94453103C08FE30E94E72D8AE00E9431
:10507000E72D0E94A9B20E949CC7609347127093CB
:1050800048128093491290934A122090150830904C
:105090001608A0911708AEA7B0911808BFA79101F4
:1050A000AD01612F702F8AA19CA10E9408DA4B01EB
:1050B0005C0120E030E0A9010E948CDB87FF04C086
:1050C000B7FAB094B7F8B094411451046104710474
:1050D00059F420E030E040E85FE3C501B4010E94EC
:1050E0006DD587FF0DC00AC020E030E040E450E4F9
:1050F000C501B4010E948CDB181614F42601370197
:10510000EEA1EE2391F12AA53BA54CA55DA52115A5
:1051100031054105510541F0D701C601821B930BB2
:10512000A40BB50BB7FD21C091014EA55FA56CA9DD
:105130007DA98EA99FA90E9408DA20E030E040EC0A
:105140005FE30E946DD587FD8DC0D701C601805AEF
:105150009541AF4FBF4F8AA79BA7ACA7BDA72CAA6D
:105160003DAA9EA59EABAFA5AFAB8091060188235B
:1051700009F478C0411451046104710429F4C12E6A
:10518000D02EEAA0FCA0F4CEB0E1CB1AB7E2DB0A45
:10519000E108F108C418D508E608F708F7FE62C070
:1051A000EECF411451046104710409F41AC1D30112
:1051B000C201805F984DAF4FBF4FBC01CD016C194C
:1051C0007D098E099F0928EE33E040E050E00E94FF
:1051D00074D9CA01B9010E9445318AE00E94E72DC5
:1051E0000E94A9B20E949CC7609347127093481214
:1051F0008093491290934A122090C4043090C504C1
:10520000A091C604AAA7B091C704BEA79101AD01A1
:10521000612F702F8AA19CA10E9408DA4B015C01CA
:1052200020E030E0A9010E948CDB87FF04C0B7FAC0
:10523000B094B7F8B094411451046104710409F0BA
:10524000D4C020E030E040E85FE3C501B4010E9433
:105250006DD587FDD5C0EDA1E111D5C080910601C6
:10526000811104C180910601882309F4D4CC0C94E7
:10527000CD1F0E94582D0E94FEDA623871050CF095
:105280000CC170934D0D60934C0D0E9431460E94ED
:10529000582D20E030E040EA50E40E948CDB1816E4
:1052A00014F40E94A15560914C0D70914D0D072E84
:1052B000000C880B990B0E9474D52091C404309186
:1052C000C5044091C6045091C7040E948CDB181697
:1052D0001CF483EE92E002C084ED92E060E00E9454
:1052E000806581E080930601809176058093760445
:1052F0001EA21FA218A619A618AA19AA1AAA1BAAA2
:105300001DA21CAAECE3EDABFCE1FEAB26E42FAB47
:10531000C12CD12C30E8E32E4FEBF42E412C512C34
:10532000320160914C0D70914D0D072E000C880BD1
:10533000990B0E9474D5162F072F8AA39CA3960160
:10534000A7010E946DD58823F1F02091C40430910B
:10535000C5044091C6045091C7048FA5612F702FDA
:10536000811109C08AA19CA10E946DD5881F882740
:10537000881F8DA30CC08AA19CA10E946DD587FDBA
:1053800071CF1DA204C01C2D0D2DEAA2FCA20E940B
:105390009CC76B017C01DC01CB0128A939A94AA972
:1053A0005BA9821B930BA40BB50BB7FD19CFD701DB
:1053B000C60188519C4FAF4FBF4F88AB99ABAAAB8A
:1053C000BBAB0E947445E0EDF2E084915F019FEF7A
:1053D000A91AB90A882309F4E4CE0E94E72DF50141
:1053E000F4CF8FE30E94E72DF8CE20E030E040E4D8
:1053F00050E4C501B4010E948CDB18160CF02BCFD1
:105400002601370128CF2EA13FA148A559A5211576
:1054100031054105510541F0D701C601821B930BAF
:10542000A40BB50BB7FD1ACF91014AA55EA56CA9D7
:105430007DA98EA99FA90E9408DA20E030E040EC07
:105440005FE30E946DD587FD0DCFD701C601805A5D
:105450009541AF4FBF4F8EA39FA3A8A7B9A72CAA72
:105460003DAA9AA59EABAEA5AFABF8CE41145104B0
:105470006104710429F4C12ED02EEAA0FCA051CF02
:10548000B0E1CB1AB7E2DB0AE108F108C418D5088D
:10549000E608F708F7FEE6CEEECF62E870E0F1CE60
:1054A0000E945E3B88E50E948B2D882331F05E9A36
:1054B0008091D0028E7F8093D00289E50E948B2D4F
:1054C000882331F05E9A8091D0028D7F8093D00244
:1054D0008AE50E948B2D882309F49DCB159A809133
:1054E000D0028B7F8093D00296CB0E94F2C793CBE1
:1054F0000E945E3BBC2C60E08C2D0E94B4C60F3F26
:105500004FEF140759F48C2D0E94CE9731E020E024
:10551000892B09F030E0032F122F05C0013011054F
:1055200061F401E010E08B2D0E94CE978017910767
:1055300009F471CB0E94A9B2F6CF00E010E0F3CFDE
:1055400061E0812F0E94B4C66E2D812F0E94F797D3
:10555000F12CB701812F0E94F0C6143009F05BCB0B
:10556000F0921308E092120856CBE7960FB6F89423
:10557000DEBF0FBECDBFDF91CF911F910F91FF9086
:10558000EF90DF90CF90BF90AF909F908F907F90E3
:105590006F905F904F903F902F9008959091E1020F
:1055A000E92FF0E0E352FD4F80839F5F943018F4C1
:1055B0009093E10202C01092E102809164048F5F37
:1055C000809364040895089580E090E008958091A8
:1055D000381290913912981759F0E92FF0E0E854F9
:1055E000FE4E80819F5F9F779093391290E00895DF
:1055F0008FEF9FEF08950F931F93CF93DF93EC01ED
:105600000E949CC70E811F812885398501151105CF
:105610002105310559F52C852223A9F13A85215020
:105620002C8721E0230F2A874D85241301C01A8679
:10563000FE0124E0329FE00DF11D1124068517853F
:10564000208931890A831B832C833D83DC01CB01B4
:10565000800F911FA11DB11D8E839F83A887B987DD
:105660008C819D81892B79F0419A0DC0DC01CB01A1
:10567000801B910BA20BB30BB7FD05C041981E8296
:105680001F8218861986DF91CF911F910F9108957F
:10569000CF92DF92EF920F931F93CF93DF9300D0BF
:1056A00000D0CDB7DEB7E090760519821A821B8252
:1056B0001C82CE0101966C0107E111E02EEA37E071
:1056C0004AEA57E066EA77E082EA97E00E94BC681F
:1056D0000F900F900F900F90DF91CF911F910F912E
:1056E000EF90DF90CF9008950F931F93CF93DF93A8
:1056F00094E0899FE00111248E0108581D4EFE019F
:10570000EF52FD4FDE01AC5ABD4E2D913D914D91B2
:105710005C9160817181828193810E9409DAF80134
:105720006083718382839383FE01E45AF84F8591ED
:105730009591A591B491FE01EC57FD4E8083918324
:10574000A283B383FE01E859F84F85919591A59105
:10575000B491C65CDE4F88839983AA83BB83DF91B3
:10576000CF911F910F910895CF93FC0120812B338E
:10577000A9F020916404243088F4C62FBC018091E4
:10578000E102F0E68F9FC00111248D519D4F0E94D0
:105790006DDC8C2F0E94CE2A81E001C080E0CF9189
:1057A0000895DF92EF92FF920F931F93CF93DF93B1
:1057B000CDB7DEB76E970FB6F894DEBF0FBECDBF84
:1057C00060915C0D70915D0D6115710509F14DE100
:1057D00050E0CE0101967C010E94DCD41E8EF701C0
:1057E0008F010E191F09D190DD2019F09AE0D9120E
:1057F000F7CFF701E00FF11F108260E0C7010E94B0
:10580000B42B882329F0C7010E940BB2811109C073
:1058100081E020915C0D30915D0D232BA1F480E09F
:1058200012C0DD2049F00F5F1F4F80915C0D9091F9
:105830005D0D080F191F02C000E010E010935D0D10
:1058400000935C0DE5CF6E960FB6F894DEBF0FBEE9
:10585000CDBFDF91CF911F910F91FF90EF90DF901F
:1058600008952EEA37E04AEA57E066EA77E082EAEE
:1058700097E00C942D5ECF9380916F00C82FC2707B
:1058800081FF05C080916F008D7F80936F008091B4
:10589000C30E8093C20E8093C10E8093C00E84E627
:1058A0008093BF0E0E94AE3D88EE93E09093FB0C78
:1058B0008093FA0CCC2329F080916F008260809352
:1058C0006F0081E0809306050E945E3B0E94EEB56A
:1058D0008CE0EAE3F2E1A2EAB7E001900D928A954A
:1058E000E1F7CF910C94312C2F923F924F925F921F
:1058F0006F927F929F92AF92BF92CF92DF92EF9280
:10590000FF920F931F93CF93DF93CDB7DEB7289706
:105910000FB6F894DEBF0FBECDBF1A012B01922E39
:10592000F32EC82ED12CF601E158F74DE491AA24AC
:10593000A3941E160CF4A12CBB24B39420E030E0F9
:10594000A901C201B1010E948CDB18160CF0B12C28
:10595000CC0CDD1CCC0CDD1CC6018E55984F3C01D7
:10596000FC0110821182128213820E94312CF301F9
:105970002082318242825382E090760520E030E03E
:10598000A901B801892D9F2D0E946DD581110AC0F2
:10599000F601E35DFF4D85919591A591B4918C0140
:1059A0009A2EFB2EC801A92DBF2D8D839E83AF8318
:1059B000B88719821A821B821C82CE0101966C0163
:1059C0008E010B5F1F4F2EEA37E04AEA57E066EA86
:1059D00077E082EA97E00E94BC680E945E3BAB14CD
:1059E00059F08091E202882319F01092E20204C07B
:1059F00084E797E00E9448B228960FB6F894DEBF7D
:105A00000FBECDBFDF91CF911F910F91FF90EF900F
:105A1000DF90CF90BF90AF909F907F906F905F90FE
:105A20004F903F902F90089580915D0290915E027B
:105A3000009731F04AE050E060E070E00C94A5D3AC
:105A400060E070E0CB01089580915D0290915E026C
:105A5000009731F04AE050E060E070E00C9477D2BB
:105A600060E070E0CB0108950E94242D97FD0CC0EA
:105A70000E94242D6F3F71058105910509F034F4D2
:105A80000E94242D862F089580E008958FEF0895B9
:105A900080915D0290915E02892B39F00E94342D35
:105AA00091E0811103C090E001C091E0892F089539
:105AB0000F931F93CF9380915D0290915E020097A8
:105AC000F1F0FC018F01C1912C2F2F7D89F0C5349D
:105AD00011F0C536B9F7F801108260E070E00E945D
