:100000000C947B150C94A5150C94A5150C94A515B2
:100010000C94A33D0C941B3E0C94F33D0C94CB3DEF
:100020000C94A5150C94A5150C94A5150C94A51568
:100030000C94A5150C947B550C94A5150C94A51542
:100040000C94A5150C9449450C9486C70C94A515E1
:100050000C948E390C94A5150C94A5150C94A5152B
:100060000C94A5150C94A5150C94A5150C94A51528
:100070000C94A5150C94A5150C94A5150C94A51518
:100080000C94A5150C94A5150C94A515EBA19BA09B
:10009000D2A027A2D2A0D2A0D2A0D2A0D2A0D2A079
:1000A000D2A0D2A0D2A0D2A0D2A0D2A0D2A0D2A0C0
:1000B000D2A0D2A0D2A0D2A0D2A0D2A0D2A0D2A0B0
:1000C000D2A0D2A0D2A0D2A021A2D2A0D2A0D2A04F
:1000D000D2A0D2A0D2A0D2A0D2A0FAA1D2A0D2A067
:1000E000D2A0D2A0D2A0D2A0D2A0D2A0D2A0D2A080
:1000F0003EA2CFA077C67AC66DC671C691C691C61C
:100100007EC682C688C68CC6F5C6FAC6FFC609C7B3
:1001100037C737C713C71BC723C72DC74E414E4923
:100120004E495459494E46CDCCCC3D0AD7233C17B5
:10013000B7D13877CC2B329595E6241FB14F0A0002
:100140000020410000C84200401C4620BCBE4CCAF2
:100150001B0E5AAEC59D74434F4D4D554E494341FC
:1001600054494F4E0044525952554E004552524F39
:10017000525300494E464F004543484F00536C656B
:1001800065702E2E2E00486F6D65205859206669C7
:100190007273740A00486F6D652058592066697241
:1001A000737400436C69636B20746F2072657375A0
:1001B0006D652E2E2E004E6F206D6F76652E0045DC
:1001C0006E642066696C65206C6973740A00426510
:1001D00067696E2066696C65206C6973740A002813
:1001E0006E6F2066696C6529005344207072696ED9
:1001F00074696E67206279746520004E6F742053B5
:1002000044207072696E74696E670A004375727279
:10021000656E742066696C653A200046696C6520DD
:1002200064656C657465643A0044656C6574696FF7
:100230006E206661696C65642C2046696C653A20A5
:10024000002569730025696D20256973002569689B
:100250002025696D2025697300256964202569685A
:100260002025696D20256973002569792025696439
:10027000202569682025696D202569730050726901
:100280006E742074696D653A2000780173016C0109
:10029000650157016F66660044454255473A004B79
:1002A000494C4C45442E20004D3131332053006FD2
:1002B0006B0020573A004520436F6F6C696E672EC4
:1002C0002E2E00452048656174696E672E2E2E0023
:1002D00020573A0042656420636F6F6C696E672E29
:1002E0002E2E004265642068656174696E672E2E4B
:1002F0002E003344205072696E746572204F66661A
:100300002E002C20002C2000544845524D414C5FBB
:1003100050524F54454354494F4E004155544F524B
:1003200045504F52545F53445F535441545553000A
:10033000454D455247454E43595F504152534552F2
:1003400000434153455F4C494748545F4252494737
:1003500048544E45535300544F47474C455F4C4912
:100360004748545300534F4654574152455F504FEE
:10037000574552004255494C445F50455243454E03
:1003800054004C4556454C494E475F44415441004A
:100390005A5F50524F4245004155544F4C455645C7
:1003A0004C005052494E545F4A4F420050524F4702
:1003B00052455353004155544F5245504F52545F8C
:1003C00054454D5000564F4C554D455452494300ED
:1003D000454550524F4D0053455249414C5F584F8F
:1003E0004E5F584F4646004649524D574152455F71
:1003F0004E414D453A4D61726C696E20312E312E61
:100400003920284769746875622920534F55524333
:10041000455F434F44455F55524C3A68747470735E
:100420003A2F2F6769746875622E636F6D2F4D6167
:10043000726C696E4669726D776172652F4D61727B
:100440006C696E2050524F544F434F4C5F5645528B
:1004500053494F4E3A312E30204D414348494E4585
:100460005F545950453A3344205072696E74657236
:100470002045585452554445525F434F554E543AC7
:100480003120555549443A63656465326132662DC1
:10049000343161322D343734382D396231322D63A5
:1004A00035356336326633363766660A002F2F20BD
:1004B000004D31343520533C696E6465783E206FC1
:1004C0007574206F662072616E67652028302D314B
:1004D000290A00205400205200416363656C657254
:1004E0006174696F6E3A205000205A0020590058FC
:1004F0000020204D61783A2000205A0020590058F1
:100500000020204D696E3A20004F6E20004F666635
:1005100000536F667420656E6473746F70733A2055
:100520000020466C6F773A200000010F150E12FF75
:10053000FFFFFF16170E13FFFFFFFF03021A14FF42
:10054000FFFFFFFFFFFF0C04FFFFFF01000EFFFF97
:10055000FF0C190DFF1820643A0020693A00207042
:100560003A00496E76616C696420657874727564CE
:1005700065720A0043290A0061626C656420286D77
:10058000696E2074656D702000436F6C642065781F
:1005900074727564657320617265200020643A008E
:1005A00020693A0020703A004E6F20636173652025
:1005B0006C696768740A00454550524F4D204F4B97
:1005C0000A004163746976652045787472756465C4
:1005D000723A2000496E76616C69642065787472A5
:1005E000756465720A004B494C4C45442E200053FB
:1005F000544F505045442E20005072696E746572FD
:100600002073746F707065642064756520746F204A
:100610006572726F72732E20466978207468652047
:100620006572726F7220616E6420757365204D393A
:10063000393920746F20726573746172742E2028AA
:1006400054656D706572617475726520697320728E
:10065000657365742E205365742069742061667417
:1006600065722072657374617274696E67290A001D
:100670004E6F20436865636B73756D20776974688E
:10068000206C696E65206E756D6265722C204C6100
:100690007374204C696E653A20004E6F2043686584
:1006A000636B73756D2077697468206C696E652063
:1006B0006E756D6265722C204C617374204C696E8E
:1006C000653A2000636865636B73756D206D6973AF
:1006D0006D617463682C204C617374204C696E6585
:1006E0003A20004C696E65204E756D626572206916
:1006F00073206E6F74204C617374204C696E65209A
:100700004E756D6265722B312C204C617374204CD8
:10071000696E653A20004D313130004D3331005360
:10072000442072656164206572726F720A00446FC2
:100730006E65207072696E74696E672066696C659B
:100740000A0020496E76616C696420657874727560
:100750006465722000000040C00000A0C0000000DE
:100760000000005E4300005E4300006643486F6D7A
:10077000696E67206661696C65640050726F7465AC
:10078000637465642050696E0A00205A3A0020594B
:100790003A0020436F756E7420583A0020453A00A5
:1007A000205A3A0020593A00583A003A0043617002
:1007B0003A004B64200023646566696E65204445F9
:1007C0004641554C545F004B6920002364656669BF
:1007D0006E652044454641554C545F004B702000E7
:1007E00023646566696E652044454641554C545FF7
:1007F00000504944204175746F74756E65206669B8
:100800006E69736865642120507574207468652072
:100810006C617374204B702C204B6920616E6420D6
:100820004B6420636F6E7374616E74732066726FB5
:100830006D2062656C6F7720696E746F20436F6EF8
:1008400066696775726174696F6E2E680A00504937
:1008500044204175746F74756E65206661696C65BE
:1008600064212074696D656F75740A0045312054E8
:100870004845524D414C2052554E41574159004236
:10088000454420544845524D414C2052554E415705
:10089000415900546865726D616C2052756E6177C4
:1008A00061790045312048656174696E6720666131
:1008B000696C6564004265642068656174696E678F
:1008C000206661696C65640048656174696E6720C3
:1008D0006661696C656400504944204175746F74A9
:1008E000756E65206661696C6564212054656D7064
:1008F0006572617475726520746F6F2068696768CE
:100900000A00204B643A2000204B693A2000204B1B
:10091000703A20000A20436C617373696320504968
:1009200044200A002054753A2000204B753A2000DC
:10093000206D61783A2000206D696E3A20002064B5
:100940003A200020626961733A20005049442041F6
:1009500075746F74756E65206661696C65642120BD
:10096000426164206578747275646572206E756D7D
:100970006265720A00504944204175746F74756E47
:10098000652073746172740A00486F6D6520257369
:10099000257325732066697273740020666972730B
:1009A000740A005A0059005800486F6D6520004FC6
:1009B000666673657473206170706C696564004568
:1009C00072723A20546F6F206661722100546F6F0B
:1009D000206661722066726F6D2072656665726551
:1009E0006E636520706F696E740A0048617264639B
:1009F0006F6465642044656661756C74205365742A
:100A000074696E6773204C6F616465640A00282303
:100A100000008813000032000000102700000000D2
:100A2000C8430000C843000080400000C8410000E7
:100A3000C8420000C8420000C8430000BE4220284F
:100A40006D6D290020440020490020204D333034B2
:100A500020500020440020490020204D3330312018
:100A600050005049442073657474696E67733A0A84
:100A70000020460020420020480020204D3134351F
:100A80002053004D6174657269616C206865617402
:100A9000757020706172616D65746572733A0A00D9
:100AA000205A0020590020204D323036205800486E
:100AB0006F6D65206F66667365743A0A00204500A5
:100AC000205A0020590020580020540020530020B4
:100AD000204D32303520510020453C6D61785F65F6
:100AE0005F6A65726B3E0020583C6D61785F785F8D
:100AF0006A65726B3E20593C6D61785F795F6A650B
:100B0000726B3E205A3C6D61785F7A5F6A65726BEA
:100B10003E00416476616E6365643A20513C6D69C4
:100B20006E5F7365676D656E745F74696D655F7523
:100B3000733E20533C6D696E5F66656564726174D7
:100B4000653E20543C6D696E5F74726176656C5FC2
:100B500066656564726174653E0020540020520031
:100B600020204D323034205000416363656C657243
:100B70006174696F6E2028756E6974732F733229E2
:100B80003A20503C7072696E745F616363656C3EBD
:100B900020523C726574726163745F616363656C5B
:100BA0003E20543C74726176656C5F616363656C72
:100BB0003E0A00204500205A0020590020204D32D6
:100BC00030312058004D6178696D756D2041636347
:100BD000656C65726174696F6E2028756E697473D7
:100BE0002F7332293A0A00204500205A002059006C
:100BF00020204D3230332058004D6178696D756D7D
:100C0000206665656472617465732028756E697409
:100C1000732F73293A0A00204500205A00205900FA
:100C200020204D3932205800537465707320706550
:100C30007220756E69743A0A0020204D32303020DF
:100C400044300A0020204D323030204400204469D6
:100C50007361626C65640A0046696C616D656E74EF
:100C60002073657474696E67733A0020204D3134C7
:100C7000392043203B20556E69747320696E2043F0
:100C8000656C736975730A0020204732312020207B
:100C9000203B00545249474745524544006F706518
:100CA0006E003A20007A5F6D696E00795F6D696E43
:100CB00000785F6D696E005265706F7274696E675F
:100CC00020656E6473746F70207374617475730A39
:100CD000006265640A002C2073797374656D20735B
:100CE000746F7070656421204865617465725F4936
:100CF000443A20004265642068656174696E67202B
:100D00006661696C65640048656174696E67206638
:100D100061696C65640045312048656174696E677E
:100D2000206661696C65640048656174696E67205E
:100D30006661696C6564001000AA03F0013A0190D5
:100D400002220130031001D00302017004F70010E9
:100D500005ED00B005E5005006DD00F006D7009077
:100D600007D1003008CC00D008C7007009C30010BC
:100D70000ABE00B00ABB00500BB700F00BB30090E6
:100D80000CB000D00DAA00100FA5005010A00090CC
:100D9000119B00D0129600B014900090168B00703A
:100DA000188500501A8000301C7B00B01E75003082
:100DB000216F00B02369003026640010285F009086
:100DC0002A5A00702C5500F02E4F0070314800B0A8
:100DD000324500F03341007036390010373700508B
:100DE00038330090392D00D03A2700B03C1C005019
:100DF0003D1700F03D1100903E0900D03FE5FF4552
:100E000031204572723A204D415854454D500045AD
:100E100072723A204D415854454D5020424544008D
:100E20004D415854454D502074726967676572652D
:100E300064004531204572723A204D494E54454D6B
:100E400050004572723A204D494E54454D50204253
:100E50004544004D494E54454D50207472696767B2
:100E600065726564004D383420582059205A204559
:100E700000202F002042403A0020403A0025753AD9
:100E80002530327500253032753A2530327500250F
:100E9000756420253032753A2530327500202020C7
:100EA000202020005A00590020202020005800094E
:100EB00020000000000000000000000000003FFFD4
:100EC000F00000000000000000000000003800708A
:100ED00000000000000000000000000030FC3000B6
:100EE000000000000000000000000020FC100000D6
:100EF000000000000000000000002078100000004A
:100F00000000000000000000002030100000000081
:100F100000000000000000002C00D03FC0000000D6
:100F2000000000002082002E31D07FE00000000091
:100F30000000001041002F7BD07FE0000000000087
:100F400000001041002F7BD07FE000000000000077
:100F5000002082002E31D03FC000000000000000C1
:100F60004104002C00D03FC00000000000000082BF
:100F700008002030107FE000000000000000820820
:100F8000002078107FE00000000000000041040015
:100F900020FC107FE00000000000000020820030F4
:100FA000FC301F800000000000000000000038003E
:100FB000700F0000000000000000FFFFC03FFFF0C6
:100FC000060000000000000000FFFFC0000000005D
:100FD00000000000000000000000003FFFF00000E3
:100FE0000000000000000000000038007000000059
:100FF000000000000000000000318630000000000A
:101000000000000000000000238710000000000026
:101010000000000000000027879000000000000092
:101020000000000000002F87D0000000000000003A
:1010300000000000002F03D03FC0000000000000AF
:10104000002082002030107FE0000000000000003F
:101050001041002078107FE0000000000000001028
:1010600041002078107FE000000000000000208296
:10107000002030103FC000000000000000410400CC
:101080002F03D03FC0000000000000008208002FA6
:1010900087D07FE000000000000000820800278762
:1010A000907FE00000000000000041040023871052
:1010B0007FE0000000000000002082003186301F29
:1010C00080000000000000000000003800700F00E9
:1010D00000000000000000FFFFC03FFFF00600001E
:1010E000000000000000FFFFC0000000334420505B
:1010F00072696E7465722052656164792E00507257
:10110000696E74696E672E2E2E005072696E74209F
:10111000706175736564005072696E742061626FEE
:1011200072746564004D3231004E6F205344206369
:10113000617264004368616E676520534420636197
:101140007264004D3231005072696E742066726FA5
:101150006D2053440053746F70207072696E740078
:10116000526573756D65207072696E7400496E69A1
:10117000742E20534420636172640050617573655E
:10118000207072696E7400436F6E74726F6C0050E1
:101190007265706172650054756E6500496E666FA8
:1011A0002073637265656E0024F4D43050C38E20C2
:1011B000C2A24017828B7011127A910D816CD90AEC
:1011C000A861E108C7586607615143061E4B5D05DB
:1011D000C145A7041A411104093D9803713931032F
:1011E0004036DB0265339102D4305402802E1D025A
:1011F000632CEE01752AC501B028A00110278101DA
:101200008F2564012B244B01E0223401AC211F0106
:101210008D200D01801FFC00841EED00971DDF0056
:10122000B81CD200E61BC600201BBC00641AB2002A
:10123000B219A8000A19A0006A189900D1179100E4
:1012400040178B00B516840031167E00B315790067
:101250003A157300C7146F0058146A00EE13660045
:101260008813630025135E00C7125B006C125700E1
:1012700015125400C111510070114F0021114B0083
:10128000D61049008D10470046104400021042005D
:10129000C00F4000800F3E00420F3C00060F3B0095
:1012A000CB0E3800930E37005C0E3500270E34004D
:1012B000F30D3200C10D3100900D3000600D2E0095
:1012C000320D2D00050D2C00D90C2B00AE0C290081
:1012D000850C29005C0C2700350C27000E0C26001D
:1012E000E80B2400C40B2400A00B23007D0B23007B
:1012F0005A0B2100390B2100180B2000F80A1F009F
:10130000D90A1E00BB0A1E009D0A1D00800A1D008E
:10131000630A1C00470A1B002C0A1B00110A1A0052
:10132000F7091A00DD091900C4091900AB091900F1
:10133000920917007B091800630917004C09160071
:1013400036091600200916000A091500F5081500CF
:10135000E0081400CC081400B8081400A408140015
:10136000900813007D0812006B0813005808120043
:101370004608120034081100230811001208110059
:1013800001081100F0071000E0071000D00710005E
:10139000C0071000B0070F00A107100091070E0052
:1013A00083070F0074070F0065070E0057070E0034
:1013B00049070E003B070D002E070E0020070D0009
:1013C00013070D0006070D00F9060C00ED060D00D1
:1013D000E0060C00D4060C00C8060C00BC060C008D
:1013E000B0060C00A4060B0099060C008D060B003D
:1013F00082060B0077060B006C060B0061060A00E4
:1014000057060B004C060A0042060A0038060A007E
:101410002E060A0024060A001A060A001006090011
:1014200007060A00FD050900F4050900EB0509009F
:10143000E2050900D9050900D0050900C705090022
:10144000BE050900B5050800AD050800A5050900A1
:101450009C050800940508008C0508008405080018
:101460007C050800740508006C0507006505080088
:101470005D050700560508004E05070047050700F3
:101480004005080038050700310507002A05070058
:10149000230507001C050600160507000F050700B9
:1014A0000805060002050700FB040600F504070016
:1014B000EE040600E8040600E2040700DB04060070
:1014C000D5040600CF040600C9040600C3040600C4
:1014D000BD040600B7040600B1040500AC04060014
:1014E000A6040600A00405009B0406009504050060
:1014F000900406008A0405008504050080040600A7
:101500007A04050075040500700405006B040500ED
:1015100066040500610405005C040500570405002D
:10152000520405004D04050048040500430405006D
:101530003E0404003A0405003504050030040400AC
:101540002C04050027040400230405001E040400E5
:101550001A04040016040500110404000D0404001C
:10156000090405000404040000040400FC03040052
:10157000F8030400F4030400F0030400EC03040087
:10158000E8030400E4030400E0030400DC030400B7
:10159000D8030400D4030400D0030400CC030400E7
:1015A000C8030300C503030024F404D9201BC40CA2
:1015B0005C0E9804C4095F0265077101F405F90027
:1015C000FB04B30048048700C103690058035500B9
:1015D00003034500BE023A008402310053022A0090
:1015E0002902250004022000E4011C00C8011900A2
:1015F000AF0117009801140084011300710110005D
:101600006101100051010E0043010D0036010B0075
:101610002B010B0020010B00150109000C01090032
:1016200003010800FB000800F3000800EB000700BE
:10163000E4000600DE000600D8000600D200060026
:10164000CC000500C7000500C2000500BD00040075
:10165000B9000400B5000400B1000400AD000400AE
:10166000A9000400A5000300A20003009F000400DD
:101670009B00030098000300950002009300030004
:10168000900003008D0002008B0003008800020020
:101690008600020084000300810002007F00020037
:1016A0007D0002007B00020079000200770001004B
:1016B0007600020074000200720001007100020056
:1016C0006F0002006D0001006C0002006A00010062
:1016D000690002006700010066000100650001006A
:1016E000640002006200010061000100600001006E
:1016F0005F0002005D0001005C0001005B00010072
:101700005A00010059000100580001005700010073
:101710005600010055000100540001005300000074
:10172000530001005200010051000100500001006F
:101730004F0001004E0000004E0001004D0001006E
:101740004C0001004B0000004B0001004A0001006A
:101750004900010048000000480001004700010066
:101760004600000046000100450000004500010061
:10177000440001004300000043000100420000005B
:101780004200010041000000410001004000010052
:101790003F0000003F0001003E0000003E0001004D
:1017A0003D0000003D0001003C0000003C00000046
:1017B0003C0001003B0000003B0001003A0000003B
:1017C0003A00010039000000390001003800000033
:1017D0003800000038000100370000003700010029
:1017E0003600000036000000360001003500000021
:1017F0003500000035000100340000003400000016
:101800003400010033000000330000003300010009
:101810003200000032000000320001003100000000
:1018200031000000310001003000000030000000F5
:10183000300001002F0000002F0000002F000000EA
:101840002F0001002E0000002E0000002E000100DD
:101850002D0000002D0000002D0000002D000100D3
:101860002C0000002C0000002C0000002C000100C7
:101870002B0000002B0000002B0000002B000100BB
:101880002A0000002A0000002A0000002A000100AF
:1018900029000000290000002900000029000000A4
:1018A0002900010028000000280000002800000096
:1018B0002800000028000100270000002700000089
:1018C000270000002700000027000100260000007C
:1018D000260000002600000026000000260001006F
:1018E0002500000025000000250000002500000064
:1018F0002500000025000100240000002400000055
:101900002400000024000000240001002300000047
:10191000230000002300000023000000230000003B
:10192000230000002300010022000000220000002C
:10193000220000002200000022000000220001001E
:101940002100000021000000210000002100000013
:101950002100000021000000210001002000000003
:1019600020000000200000002000000020000000F7
:101970002000000020000000200001001F000000E7
:101980001F0000001F0000001F0000001F000000DB
:101990001F0000001F0001001E0000001E000000CC
:1019A0001E0000001E000000043700001E29000079
:1019B000511B00005810000010090000CC0400006A
:1019C0007802000041010000000048420000484247
:1019D000000080400000000020746F6F206C6F6E6C
:1019E0006720657874727573696F6E2070726576A2
:1019F000656E7465640A0020636F6C64206578749A
:101A0000727573696F6E2070726576656E74656449
:101A10000A001FFFFFFFFFFFFF600000000001FF43
:101A2000400000000000FF8000000000007F83CF26
:101A300000000C303F87FF80000C301F867980004B
:101A40000C000F8C30C7838C30E78C30CFC7CC3183
:101A5000F38C30DCECEC33B98C30D86C6C33198CF3
:101A600030D06C0C33198C30D86C0C33198C30DCC2
:101A70006C0E3B198C30CF7C079F198C30C77C03D0
:101A80008F19400000000000026000000000000606
:101A90001FFFFFFFFFFFF82020506C616E6E657224
:101AA00042756666657242797465733A2000204615
:101AB000726565204D656D6F72793A2000436F6DD8
:101AC00070696C65643A2044656320313620323099
:101AD00031380A00207C20417574686F723A2028E2
:101AE00052616C665F452C20414E455420413620A2
:101AF000636F6E666967290A00323031382D3038DD
:101B00002D303100204C6173742055706461746510
:101B1000643A2000312E312E390A004D61726C6911
:101B20006E0020536F66747761726520526573652D
:101B3000740A00205761746368646F67205265738C
:101B400065740A002042726F776E206F75742052A0
:101B5000657365740A002045787465726E616C2047
:101B600052657365740A00506F77657255700A008C
:101B700073746172740A006175746F25692E670051
:101B80006572726F722077726974696E6720746F04
:101B90002066696C650A00456E6473746F7073200B
:101BA000256320256320256320256300205A3A0001
:101BB00020593A0020583A00656E6473746F707350
:101BC000206869743A2000446F6E652073617669FD
:101BD0006E672066696C652E0A004D3239004D6FC4
:101BE000766520302E316D6D004D6F766520316D3C
:101BF0006D004D6F76652031306D6D004D6F7665EF
:101C00002061786973004578747275646572004D5F
:101C10006F7665205A004D6F76652059004D6F76BE
:101C2000652058004578747275646572004D6F7652
:101C300065205A004D6F76652059004D6F766520FE
:101C400058005072657061726500496E697469610F
:101C50006C697A6520454550524F4D00436F6E7454
:101C6000726F6C00526573746F7265206661696C87
:101C700073616665004C6F61642073657474696E8E
:101C8000677300496E697469616C697A65204545BE
:101C900050524F4D0053746F7265207365747469B0
:101CA0006E67730046696C616D656E74004D6F748C
:101CB000696F6E0054656D70657261747572650050
:101CC0004D61696E005072656865617420414253D0
:101CD00020636F6E66005072656865617420504CB9
:101CE0004120636F6E66005049442D4400504944C2
:101CF0002D44005049442D49005049442D4900507D
:101D000049442D50005049442D500046616E2073C7
:101D1000706565640046616E207370656564004699
:101D2000616E20737065656400426564004265649D
:101D300000426564004E6F7A7A6C65004E6F7A7A65
:101D40006C65004E6F7A7A6C6500436F6E74726FCB
:101D50006C0053746F72652073657474696E677379
:101D6000004265640042656400426564004E6F7A1B
:101D70007A6C65004E6F7A7A6C65004E6F7A7A6C79
:101D8000650046616E2073706565640046616E2073
:101D900073706565640046616E20737065656400EC
:101DA00054656D7065726174757265005374657009
:101DB000732F6D6D004A65726B00416363656C65DE
:101DC000726174696F6E0056656C6F636974790037
:101DD000436F6E74726F6C0046696C2E20446961AB
:101DE0002E0046696C2E204469612E004F66660005
:101DF0004F6E20004520696E206D6D3300436F6E7D
:101E000074726F6C0043616E6E6F7420656E7465E2
:101E100072207375626469723A2000022E2E0001EE
:101E200052656672657368004D61696E000006094F
:101E300000FE0701920321207FFF07FF07FF00003C
:101E400000060000010707060200808080808000F5
:101E500080030202060105A0A00507070600005046
:101E600050F850F850500507070600002078A07081
:101E700028F020050707060000C0C8102040981869
:101E80000507070600006090A040A89068020303C1
:101E9000060104C04080030707060100204080803F
:101EA000804020030707060100804020202040805A
:101EB00005050506000120A870A8200505050600F7
:101EC000012020F820200203030602FFC040800505
:101ED0000101060003F8020202060200C0C0050567
:101EE0000506000108102040800507070600007065
:101EF00088888888887003070706010040C0404032
:101F00004040E0050707060000708808708080F8F0
:101F1000050707060000F81020100808F00507075D
:101F200006000010305090F810100507070600005A
:101F3000F880F008088870050707060000708080A8
:101F4000F0888870050707060000F8081020202098
:101F500020050707060000708888708888700507CC
:101F600007060000708888780808700205050602D8
:101F700000C0C000C0C00206060602FFC0C000C00C
:101F80004080040707060000102040804020100514
:101F90000303060002F800F804070706010080406A
:101FA00020102040800507070600007088081020D8
:101FB000002005070706000070880868A8A87005BB
:101FC0000707060000708888F888888805070706D4
:101FD0000000F08888F08888F00507070600007088
:101FE000888080808870050707060000F088888850
:101FF0008888F0050707060000F88080F08080F8E8
:10200000050707060000F88080F08080800507073C
:10201000060000708880B8888870050707060000F1
:10202000888888F8888888010707060200808080F1
:10203000808080800507070600003810101010907F
:10204000600507070600008890A0C0A090880507DB
:1020500007060000808080808080F8050707060062
:102060000088D8A88888888805070706000088881F
:10207000C8A898888805070706000070888888889F
:102080008870050707060000F08888F080808005CA
:10209000070706000070888888A89068050707066B
:1020A0000000F08888F0A0908805070706000078F7
:1020B0008080700808F0050707060000F82020203F
:1020C00020202005070706000088888888888870F7
:1020D00005070706000088888888885020050707BC
:1020E0000600008888888888A85005070706000031
:1020F000888850205088880507070600008888884F
:1021000050202020050707060000F8081020408016
:10211000F8030707060100E08080808080E0050565
:10212000050600018040201008030707060100E0B3
:102130002020202020E0050303060004205088050D
:102140000101060000F802020206020580400505B2
:1021500005060000700878887805070706000080EB
:1021600080B0C88888F0050505060000708080886A
:102170007005070706000008086898888878050534
:10218000050600007088F88070050707060000301B
:1021900048E0404040400506060600FF7088887809
:1021A00008700507070600008080B0C8888888018D
:1021B00007070602008000808080808003080806F0
:1021C00001FF200020202020A04004070706000077
:1021D000808090A0C0A090030707060100C0404087
:1021E000404040E0050505060000D0A8A8A8A805C5
:1021F0000505060000B0C8888888050505060000AA
:1022000070888888700506060600FFF08888F080D0
:10221000800506060600FF78888878080805050509
:10222000060000B0C88080800505050600007080AB
:102230007008F00407070600004040E040404030CE
:1022400005050506000088888898680505050600CC
:102250000088888850200505050600008888A8A801
:102260005005050506000088502050880506060622
:1022700000FF888888780870050505060000F810BA
:102280002040F8030707060100204040804040201E
:102290000107070602008080808080808003070796
:1022A00006010080404020404080050202060002F6
:1022B0006890000000060000454550524F4D2064D4
:1022C00061746173697A65206572726F722E0A009B
:1022D000290A002062797465733B206372632000D1
:1022E00053657474696E67732053746F72656420EC
:1022F0002800290A002062797465733B20637263A9
:1023000020002073746F7265642073657474696E45
:102310006773207265747269657665642028002091
:102320002863616C63756C6174656429210A0020FF
:10233000213D2000454550524F4D20435243206DD2
:1023400069736D61746368202D202873746F7265E2
:10235000642920002053697A653A2000496E64653B
:10236000783A2000204D61726C696E3D56353529F2
:102370000A0028454550524F4D3D00454550524FAB
:102380004D2076657273696F6E206D69736D61742F
:10239000636820005654726176206D696E00565451
:1023A000726176206D696E005654726176206D6997
:1023B0006E00566D696E00566D696E00566D696EE1
:1023C00000566D6178204500566D617820450056B5
:1023D0006D6178204500566D6178205A00566D6118
:1023E00078205A00566D6178205A00566D61782029
:1023F0005900566D6178205900566D61782059005A
:10240000566D6178205800566D6178205800566DE1
:1024100061782058004D6F74696F6E00416D61786E
:10242000204500416D6178204500416D6178205A5A
:1024300000416D6178205A00416D6178205900415A
:102440006D6178205900416D6178205800416D61BF
:1024500078205800412D74726176656C00412D74AE
:10246000726176656C00412D7265747261637400EF
:10247000412D7265747261637400416363656C0021
:10248000416363656C004D6F74696F6E0056652D16
:102490006A65726B0056652D6A65726B0056652D14
:1024A0006A65726B00567A2D6A65726B00567A2DDA
:1024B0006A65726B0056792D6A65726B0056792DCC
:1024C0006A65726B0056792D6A65726B0056782DBD
:1024D0006A65726B0056782D6A65726B0056782DAE
:1024E0006A65726B004D6F74696F6E004573746539
:1024F00070732F6D6D004573746570732F6D6D0073
:102500005A73746570732F6D6D005A7374657073B0
:102510002F6D6D005973746570732F6D6D00597355
:10252000746570732F6D6D005873746570732F6DC3
:102530006D005873746570732F6D6D004D6F746905
:102540006F6E0000002200250028002B00000020F4
:1025500000230026002900020202020202020204F5
:102560000404040404040403030303030303030136
:102570000101010101010101020408102040800154
:1025800002040810204080010204081020408080CE
:1025900040201008040201000000010200000000B9
:1025A0000000000403080700000000000000000015
:1025B000000000000000004D3234004D3233202571
:1025C0007300556E6B6E6F776E20636F6D6D616E0D
:1025D000643A20220053442063617264206F6B0AC6
:1025E000006F70656E526F6F74206661696C656410
:1025F0000A00766F6C756D652E696E697420666170
:10260000696C65640A00534420696E6974206661D0
:10261000696C0A0000060900FE00000000000109C4
:102620000008FE000005080806000040F0C8888881
:10263000987810050808060000C0F88888888888FF
:10264000F80505050600012030F8302005080806C9
:1026500000002070F820202020E00509090600FF76
:102660002070A8A8B8888870200509090600FFE036
:1026700080C0B0A8283028280509090600FFF8A85E
:102680008888888888A8F8050A0A0600FE20505025
:10269000505088A8A8887003030306000340A04098
:1026A0007C3C3E5E2B3D3F2F5B5D3B2C2A225C0039
:1026B000526573656E643A20006F6B0020746F6F13
:1026C000206C6F6E6720657874727573696F6E2009
:1026D00070726576656E7465640A0020636F6C6461
:1026E00020657874727573696F6E20707265766597
:1026F0006E7465640A00627573793A20706175734F
:10270000656420666F7220696E7075740A00627568
:1027100073793A2070617573656420666F722075F5
:102720007365720A00627573793A2070726F63651F
:102730007373696E670A004B494C4C45442E200068
:102740004B494C4C20636175736564206279207439
:102750006F6F206D75636820696E6163746976655B
:102760002074696D65202D2063757272656E74200A
:10277000636F6D6D616E643A2000506C65617365C6
:10278000207265736574005052494E54455220487A
:10279000414C544544005072696E74657220686102
:1027A0006C7465642E206B696C6C28292063616CE5
:1027B0006C6564210A00656E7175657565696E6783
:1027C000202200000040C00000A0C0000000005710
:1027D00061726E696E673A20486F6D696E6720425C
:1027E000756D702044697669736F72203C20310AE0
:1027F000000202040000A0400000A04000000040D1
:10280000000061430000634300006643FFFFFF4692
:102810006C6F7700466C6F7700466C6F770046618F
:102820006E2073706565640046616E207370656527
:10283000640046616E2073706565640042656400E3
:1028400042656400426564004E6F7A7A6C65004EA2
:102850006F7A7A6C65004E6F7A7A6C65005370659A
:102860006564005370656564005370656564004D70
:1028700061696E005072656865617420504C41203A
:10288000456E64005072656865617420504C41204B
:10289000426564005072656865617420504C410067
:1028A0005072657061726500507265686561742070
:1028B00041425320456E6400507265686561742022
:1028C000414253204265640050726568656174201E
:1028D0004142530050726570617265004D34323868
:1028E000005072656865617420504C4100436F6F01
:1028F0006C646F776E005072656865617420414248
:10290000530044697361626C65207374657070650F
:102910007273004D38340053657420686F6D652004
:102920006F666673657473004175746F20686F6DB0
:102930006500473238004D6F766520617869730015
:102940004D61696E004D6F76652058004D6F76655C
:102950002059004D6F7665205A0045787472756471
:1029600065720043616E6E6F74206F70656E2073C8
:10297000756264697220006563686F3A00453120B2
:10298000544845524D414C2052554E4157415900F3
:1029900042454420544845524D414C2052554E41E9
:1029A00057415900546865726D616C2052756E61B3
:1029B000776179004572726F722077726974696EFF
:1029C0006720746F20454550524F4D210A005772C1
:1029D0006974696E6720746F2066696C653A2000BF
:1029E0006F70656E206661696C65642C2046696C49
:1029F000653A20006F70656E206661696C65642CB5
:102A00002046696C653A200046696C652073656CE8
:102A100065637465640A002053697A653A2000464C
:102A2000696C65206F70656E65643A200020666988
:102A30006C653A2000646F696E6700667265736842
:102A4000004E6F772000454E4420535542524F555B
:102A500054494E450A002220706F73002220706195
:102A600072656E743A2200535542524F5554494E86
:102A7000452043414C4C207461726765743A2200D2
:102A80004B494C4C45442E2000747279696E672086
:102A9000746F2063616C6C207375622D67636F6463
:102AA000652066696C6573207769746820746F6F40
:102AB000206D616E79206C6576656C732E204D41BA
:102AC00058206C6576656C2069733A004572726FA8
:102AD000723A006F70656E206661696C65642C20C7
:102AE00046696C653A200000002100240027002A76
:102AF000000057D036D011241FBECFEFD0E4DEBF88
:102B0000CDBF12E0A0E0B1E0E0E2F9EB01E00BBFE5
:102B100002C007900D92AA34B107D9F722E1AAE4C6
:102B2000B2E001C01D92A33AB207E1F715E1CAE78E
:102B3000D5E104C02197FE010E94DED9C937D10733
:102B4000C9F70E94EBC70C9483DC0C9400002F9211
:102B50003F924F925F926F927F928F929F92AF922D
:102B6000BF92CF92DF92EF92FF920F931F93CF937A
:102B7000DF93CDB7DEB7E7970FB6F894DEBF0FBE91
:102B8000CDBF11E01093120F8091830E8D3409F4A4
:102B9000CEC1843511F40C94A925873411F00C941E
:102BA000ED258091810E9091820E8C31910509F472
:102BB000D6C04CF497FDB7C182309105A4F00497BC
:102BC00009F48FC0B0C18B35910509F4DFC08C3595
:102BD000910509F4DFC08A35910509F0A4C110926E
:102BE00056020C94EF2580910001882311F40C9477
:102BF000EF25B7E48B2EB1E09B2E1CE2E12E1FE007
:102C0000F12E0CED15E084E4A82E8FE0B82E92E5AD
:102C1000C92E92E0D92E712CD4018D914D010E94C4
:102C20006E2D882319F10E943B2DF6012081211180
:102C300004C020915602222341F0D8012D913D91EC
:102C40004D915C910E94F0D90AC0B3E07B1639F037
:102C5000F50120813181428153810E94EFD9D70152
:102C60006D937D938D939C9313970AC0F801808197
:102C70009181A281B381F70180839183A283B38381
:102C80007394F4E0EF0EF11C0C5F1F4F24E0A20ED2
:102C9000B11C3FEFC31AD30A44E07412BDCF86E4DF
:102CA0000E94B72D8823C9F00E943B2D20E030E020
:102CB000A9010E9473DB181684F40E943B2D20E0CA
:102CC00030E040E752E40E9473DA60930E017093A3
:102CD0000F0180931001909311010E9466AE0C9435
:102CE000EF2580E50E94B72D882329F00E94F72C5C
:102CF0006B017C0103C0C12CD12C760183E50E94BD
:102D0000B72D882361F00E943B2D20E030E04AE798
:102D100054E40E94BAD50E94ECDA6B017C010E9457
:102D2000AE3A8091640F811105C060E08DE791E0BB
:102D30000E945F850E947AC7C60ED71EE81EF91E44
:102D40000E947AC7DC01CB018C199D09AE09BF092D
:102D5000B7FD02C00C94EF250E94E7ACF1CF809143
:102D6000450B8770873011F00C94F4258FE40E9496
:102D7000B72D882319F00E942B2D03C08FE40E94E9
:102D80006E2D81110C94EF250C94F42510935602AE
:102D90000C94EF2577E4272E71E0372EE0E2EE2E3B
:102DA000EFE0FE2E2CED35E03BA32AA3F4E4CF2E7A
:102DB000FFE0DF2E00E010E0D1018D911D010E94A7
:102DC000B72D882309F44BC00E943B2D2B013C01F9
:102DD000133049F0F60120813181428153810E94F4
:102DE000EFD92B013C01AAA1BBA12D913D914D91A1
:102DF0005C91C301B2010E94EFD94B015C012DEB44
:102E000037E346E855EB0E9473DB87FD0AC02DEBE4
:102E100037E346E855E3C501B4010E9454D51816BE
:102E2000F4F4133051F44092E8055092E9056092B1
:102E3000EA057092EB0501E012C0A5019401F701CB
:102E400060817181828193810E94F0D9D7016D9355
:102E50007D938D939C931397812F0E94572B1F5F17
:102E6000B4E0EB0EF11CEAA1FBA13496FBA3EAA3AC
:102E7000F4E0CF0ED11C143009F09ECF002309F4EA
:102E80004EC020E030E0A9016091E8057091E905AD
:102E90008091EA059091EB050E94F0D92091300BCA
:102EA0003091310B4091320B5091330B0E94BAD5C7
:102EB0000E9478DB6093E00F7093E10F8093E20F44
:102EC0009093E30F9091BE0F8091BF0F981719F068
:102ED0000E94503A24C00E94AE3A80916F00982F11
:102EE000927081FF05C080916F008D7F80936F008D
:102EF0004091E00F5091E10F6091E20F7091E30F6C
:102F00004093790350937A0360937B0370937C031F
:102F1000992329F080916F00826080936F000E9456
:102F2000C3360C94EF250E94CD9D0C94EF25809123
:102F3000810E9091820E8237910509F481C70CF0C1
:102F4000DDC08B34910509F411C50CF067C08831E0
:102F5000910509F485C2ACF58231910509F4A4C646
:102F6000BCF497FF02C00C94A625823091050CF4A6
:102F7000A7C1419711F00C94A62560E086EB91E083
:102F80000E945F855E985E9815985E980C94EF2578
:102F90008531910509F449C23CF4449711F00C9431
:102FA000A625EEECF1E003C28631910509F441C299
:102FB000479711F00C94A625E0917F0EF091800EBA
:102FC00042C28D31910511F40C94EF25C4F48A317D
:102FD000910509F454C20CF44CC28B31910509F4EB
:102FE0005CC24C9711F00C94A62540E060E0809103
:102FF0007F0E9091800E0E9484C40C94EF258F3137
:10300000910509F4C8C30CF4E0C28032910509F4BB
:1030100076C38A9709F475C40C94A6258836910561
:1030200009F4B0C40CF042C08235910509F435C6EC
:1030300024F58D34910509F4A1C40CF49BC48135A9
:10304000910511F00C94A6250E9419460E94EB3AB6
:1030500010924D0610924C0610925102109250029E
:1030600068EE73E080E090E00E94708460E082EFA0
:1030700092E00E945F850C94EF258435910509F458
:1030800013C60CF40DC68535910509F440C68C3580
:10309000910511F00C94A62597E4C92E91E0D92E44
:1030A00024E2E22E2BE0F22E10E04AC68D36910586
:1030B00009F476C59CF48A36910509F4C0C50CF470
:1030C0002DC58B36910509F4D8C58C36910511F0C4
:1030D0000C94A62510921E010C94EF258F369105B5
:1030E00009F494C40CF47FC48037910509F4E1C459
:1030F0008137910509F4E5C40C94A6258D3D910511
:1031000011F40C9411230CF05FC08B39910509F474
:1031100020C51CF58737910509F486C774F48537F7
:10312000910509F425C70CF032C78337910511F0DA
:103130000C94A625E7EEF3E0C0C68937910509F4A3
:103140007EC70CF474C78C38910509F445C58139E4
:10315000910509F47BC70C94A6258C3C910511F4CC
:103160000C942321F4F4883C910511F40C949E20D6
:1031700034F48E3B910509F44DC50C94A625893C89
:10318000910511F40C94EE208B3C910511F00C94F8
:10319000A625E7E4EE2EE1E0FE2E0CE116E00C940D
:1031A00014218E3C910511F40C94032214F40C9418
:1031B0009821833D910509F47FC08C3D910511F460
:1031C0000C9404230C94A6258A3921E0920709F473
:1031D00074C474F58E3241E0940711F40C94722497
:1031E00084F48C32A1E09A0711F40C94A92314F012
:1031F0000C94D223823E910511F40C9480230C94FC
:10320000A6258033E1E09E0711F40C94C92414F440
:103210000C94C624833621E0920709F449C0803912
:10322000914011F00C94A6250E94AE3A0C94EF2523
:10323000873F41E0940711F40C946225FCF4843F2D
:10324000A1E09A0711F40C945C254CF48C3A91405F
:1032500011F00C94A6250E948D370C94EF25853F24
:10326000F1E09F0711F40C945F25863F914011F027
:103270000C94A6250E9446420C94EF258B3833E02F
:10328000930711F40C94EF253CF4883F914011F41E
:103290000C946D250C94A625803AA3E09A0709F4B6
:1032A0006DC2873E934011F40C9491250C94A62591
:1032B000ECECFAE20C944925E7E7F9E20C942522BC
:1032C000A0907F0EB090800E80E50E94B72D8823DD
:1032D00059F00E94F72C6B017C0111E0672B682BE1
:1032E000692B31F410E004C010E0C12CD12C760120
:1032F00083E50E94B72D882311F40C941D270E94AA
:103300003B2D20E030E04AE754E40E94BAD50E9409
:10331000ECDA6B017C0111110BC0672B682B692B58
:1033200039F4A114B10421F0F5018081811102C0AA
:1033300010E001C011E00E94AE3A112329F061E0D3
:10334000C5010E94998505C060E083EA91E00E9472
:103350005F8583E08093120F81E080930F0DC1148D
:10336000D104E104F104B1F00E947AC7C60ED71E61
:10337000E81EF91E0E947AC7DC01CB018C199D0959
:10338000AE09BF09B7FF0DC080910F0D81110C94DC
:10339000222707C080910F0D882319F00E94E7AC07
:1033A000F9CF0E94404C10920F0D0C94EF258491A0
:1033B0008F010F5F1F4F882321F00E94CA2DF80153
:1033C000F6CF1092811284E390E10E941FA68BE158
:1033D000E4E3F0E1DE01159601900D928A95E1F7A4
:1033E00080913210909133109C838B8381EF91E018
:1033F0009A83898340E050E0BE016F5F7F4F80E099
:1034000090E00E94D7BBCE0101960E946AACEFEB20
:10341000F1E084918F010F5F1F4F882311F40C940A
:10342000EF250E94CA2DF801F4CF0E94AC9C0C94A9
:10343000EF2510920410109205100C94EF258032A5
:1034400009F41082319680818111F9CF40E061E06A
:1034500080917F0E9091800E0E9484C40C94EF2581
:10346000809105108111109304100E94F1540C9466
:10347000EF25109204100E9415550C94EF258091B1
:103480000510882311F40C94EF2583E50E94B72DD5
:1034900081110C9426270C94EF2583E40E946E2D55
:1034A000882309F450C0ECE0F2E084918F010F5FB3
:1034B0001F4F882321F00E94CA2DF801F6CF80917A
:1034C000CF11811103C0EFEDF1E012C0BE016F5FBB
:1034D0007F4F8CEC91E10E94E6A48E010F5F1F4F9D
:1034E000D8018D918D01882349F10E94CA2DF8CF12
:1034F00084918F010F5F1F4F882301F10E94CA2D15
:10350000F801F6CF5AE8C52E52E0D52EE12CF12C69
:1035100020E08091230B90E00E2C02C095958795BA
:103520000A94E2F780FDA2C23FEFE31AF30A42E0F9
:10353000C40ED11C55E0E516F10459F78AE00E944B
:10354000CA2D0C94EF2580910510882339F08091C5
:103550000410882319F0E9EEF1E003C0EBEFF1E08D
:1035600028C084918F010F5F1F4F882321F00E9494
:10357000CA2DF801F6CF60917D1270917E12809174
:103580007F12909180124AE00E9479308FE20E946F
:10359000CA2D6091791270917A1280917B1290916C
:1035A0007C124AE00E9479308AE00E94CA2D0C9475
:1035B000EF2584918F010F5F1F4F882311F40C9426
:1035C000EF250E94CA2DF801F4CF809105108823C1
:1035D00011F40C94EF258CEC91E10E9459C18CEC14
:1035E00091E10E94C1A410920310109202108091E8
:1035F0000510882311F40C94EF2500917F0E109193
:10360000800E109204108091CF11882321F08CEC51
:1036100091E10E94C1A4B801CE0180960E94C8C366
:103620008C01892B11F40C94EF2568A179A1611507
:10363000710511F06C5F7F4F19821C8222E0A80196
:10364000CE0101960E9470AA811102C0F12C14C013
:10365000CE0101960E9445BB8823C1F361E0CE01F3
:1036600001960E94CAA4009789F325EEFC012083ED
:103670001C820E94FEBEF82ECE0101960E94C42D2F
:10368000F11003C0E9E2F2E022C0EBE1F2E0849144
:103690007F012FEFE21AF20A882321F00E94CA2D3F
:1036A000F701F5CFD8018D918D01882319F00E9483
:1036B000CA2DF8CF8AE00E94CA2D10927D12109276
:1036C0007E1210927F12109280120C94EF2584913A
:1036D0007F01BFEFEB1AFB0A882321F00E94CA2D5D
:1036E000F701F5CFF80181918F01882319F00E942D
:1036F000CA2DF8CF8EE20E94CA2D0C94EF2580913E
:10370000041081110E94AE3A80910510882311F4B3
:103710000C94EF2580E50E94B72D882319F00E94B4
:103720002B2D03C080E50E946E2D182F482F61E0DD
:1037300080917F0E9091800E0E9484C483E50E9448
:10374000B72D882381F00E94072DAB01BC01409367
:103750007D1250937E1260937F12709380128CECD6
:1037600091E10E94D7A380910510882319F081E090
:103770008093041011110C94EF2577CE80917F0E69
:103780009091800E21E02093031040E060E00E94C1
:1037900084C40C94EF250E94A2547B018C0120E884
:1037A00031E541E050E00E945BD9C9016DE671E06E
:1037B0000E9497D94B015C01C801B70120E13EE0AE
:1037C00040E050E00E945BD9CA01B90128E130E035
:1037D00040E050E00E945BD9762E672EC62ED72E91
:1037E0006CE3262E312C412C512CC801B701A201CB
:1037F00091010E945BD9F62EE72ECA01B901A20100
:1038000091010E945BD9CB018E010F5F1F4F811484
:10381000910499F0EF92FF927F936F936F927F9252
:10382000BF92AF929F928F9289E692E09F938F937F
:103830001F930F930E94ECD413C0A114B104B1F0F4
:10384000EF92FF927F936F936F927F92BF92AF92AE
:1038500089E592E09F938F931F930F930E94ECD47E
:103860000FB6F894DEBF0FBECDBF30C0CD2879F0C3
:10387000EF92FF927F936F936F927F928DE492E02D
:103880009F938F931F930F930E94ECD4E9CF892BC2
:1038900069F0EF92FF927F936F9385E492E09F939C
:1038A0008F931F930F930E94ECD4DACFEF92FF9285
:1038B00081E492E09F938F931F930F930E94ECD427
:1038C0000F900F900F900F900F900F9060E0C80135
:1038D0000E949985E7E7F9E284917F01BFEFEB1A37
:1038E000FB0A882321F00E94CA2DF701F5CFB80109
:1038F0008DE792E00E94075D8AE00E94CA2D0C9439
:10390000EF2583E50E94B72D882311F40C94EF2551
:103910000E94172DE82E80E50E94B72D882311F410
:103920000C94EF250E94172D182F87FF02C00C94CE
:10393000EF2589E40E94B72D882341F00E942B2DAA
:1039400081110C94832AE9E2F5E00BC089E40E941E
:103950006E2DF6CF319625E0E635F20711F40C9482
:10396000832A84911813F6CF0C94582A0E94F1549C
:103970000C94EF250E9415550C94EF250E942A55B2
:103980000C94EF2588E690E00E94E63081110C94BB
:10399000EF258091230B83FF02C00C94EF2583E574
:1039A0000E94B72D882311F40C94EF250E943B2D23
:1039B0000E94E5DA70934F0D60934E0D80E00E94F7
:1039C000CD450E943B2D20E030E04AEA52E40E94BF
:1039D00054D5181614F40C94EF250E942A550E9411
:1039E000404C0C94EF258EE40E94B72D882311F4EF
:1039F0000C94EF250E94072D609390127093911202
:103A000080939212909393120C94EF2583E50E9479
:103A10006E2D882359F083E50E94B72D882319F075
:103A20000E94172D01C080E08093230BE7E7F9E2A5
:103A300084918F010F5F1F4F811103C0E8E9F2E00D
:103A400004C00E94CA2DF801F3CF84918F010F5F4B
:103A50001F4F882321F00E94CA2DF801F6CF8091D4
:103A6000230B81114FCDE4E9F2E018C0BB24B394DD
:103A7000B20E222319F08CE20E94CA2DF601859124
:103A80009491FC0184918F010F5F1F4F882321F0D7
:103A90000E94CA2DF801F6CF2B2D46CD84918F01BF
:103AA0000F5F1F4F882309F449CD0E94CA2DF801EA
:103AB000F5CF8FE992E00E9486AC0E941E2C0C94F8
:103AC000EF2583E50E94B72D811103C0E7E7F9E2F6
:103AD0000DC00E94172D8D3320F4809331010C947A
:103AE000EF258CE3809331010C94EF2584918F01B5
:103AF0000F5F1F4F882321F00E94CA2DF801F6CFD7
:103B00004091310150E060E070E088EA92E00E946C
:103B1000B45C8AE00E94CA2D0C94EF2589E690E0FF
:103B20000E94E630811111C0EFEAF2E084918F012A
:103B30000F5F1F4F882321F00E94CA2DF801F6CF96
:103B40000E94C4448AE00E94CA2D1092120F0C9465
:103B5000982A83E50E94B72D882311F40C94EF2551
:103B60000E94172D182F8D3308F01CE310931F0FA0
:103B70000E947AC76B017C01212F30E0A8EEB3E0F0
:103B80000E9488D9C60ED71EE81EF91EC0921B0FD0
:103B9000D0921C0FE0921D0FF0921E0F0C94EF2597
:103BA0008DE690E00E94E63081110C94EF25809123
:103BB000230B83FF02C00C94EF2583E50E94B72DF1
:103BC0008DA381110C94372782E50E94B72D8111B6
:103BD0000C9437270C94EF258091230B83FF02C0B0
:103BE0000C94EF2583E50E94B72D882311F40C94E3
:103BF000EF250E943B2D0E94E5DA6238710514F032
:103C000062E870E070934D0D60934C0D0E94814509
:103C10000C94EF258091230B83FF02C00C94EF25B9
:103C200083E50E94B72D8FA781110C941C2982E592
:103C30000E94B72D81110C941C290C94EF2580E56E
:103C40000E94B72D811106C083E50E94B72D8823FD
:103C500061F006C00E94172D81110C94EF25F4CF5E
:103C60000E94072D6F3F710510F06FEF70E07093A9
:103C70004D0660934C060C94EF2580E50E94B72D0D
:103C8000811105C010924D0610924C06A8C70E94E3
:103C9000072D672B09F0A3C7F5CF109255029FC7D8
:103CA00081E0809355029BC783E50E94B72D88234E
:103CB00099F00E943B2D20E030E04AE754E40E9456
:103CC000BAD50E94ECDA609332017093330180938D
:103CD00034019093350183C788E50E946E2D8111D0
:103CE0000C94332A89E50E946E2D81110C94332A9D
:103CF0008AE50E946E2D81110C94332A85E40E947E
:103D00006E2D81110C94332A0E94EB3A68C783E52B
:103D10000E946E2D882309F462C70E943B2D20E08B
:103D200030E04AE754E40E94BAD50E94ECDA60938E
:103D3000170F7093180F8093190F90931A0F4FC796
:103D4000F60181916F010E946E2D882309F46EC0E7
:103D5000133009F063C00E943B2D4B015C0120E051
:103D600030E040EA51E40E9454D587FF4EC0A501DF
:103D700094016091300B7091310B8091320B9091D6
:103D8000330B0E9473DA2B013C019B01AC01609163
:103D9000F8057091F9058091FA059091FB050E9454
:103DA000BAD56093F8057093F9058093FA0590935E
:103DB000FB05A3019201609128067091290680916C
:103DC0002A0690912B060E94BAD56093280670931C
:103DD000290680932A0690932B066091080670911D
:103DE000090680910A0690910B060E9459D5A301FD
:103DF00092010E94BAD50E94ECDA60930806709393
:103E0000090680930A0690930B068092300B9092DD
:103E1000310BA092320BB092330B08C00E943B2DA5
:103E2000D7016D937D938D939C9313971F5FB4E09F
:103E3000EB0EF11C143009F083CF0E94575ECFC601
:103E40000E94AE3A83E50E94B72D882309F467C823
:103E50000E94072D6230710509F061C80E942CB0E4
:103E60008BE50E94CA2D6091060F7091070F80911B
:103E7000080F9091090F42E00E94193940910A0FF2
:103E800050910B0F60910C0F70910D0F85E093E036
:103E90000E94D15C40910E0F50910F0F6091100F56
:103EA0007091110F82E093E00E94D15C8DE50E9439
:103EB000CA2D8AE00E94CA2D92C684918F010F5F9D
:103EC0001F4F882321F00E94CA2DF801F6CF60E031
:103ED00087ED93E00E948C3661E080ED93E00E94D4
:103EE0008C3661E085EC93E00E948C3661E085EBD6
:103EF00093E00E948C3660E08CEA93E00E948C365E
:103F000061E082EA93E00E948C3660E088E993E009
:103F10000E948C3660E080E993E00E948C3660E07D
:103F200082E893E00E948C3660E084E793E00E9490
:103F30008C3660E085E693E00E948C3660E087E591
:103F400093E00E948C3660E081E493E00E948C361E
:103F500060E080E393E00E948C3660E08BE193E0C8
:103F60000E948C3661E088E093E00E948C3637C670
:103F700080917F0E9091800EFC012081211103C061
:103F80000E94404C2CC660E00E94998528C6009192
:103F90007F0E1091800E83E0D12C40E08150E9F03B
:103FA000D8019C91292F2B7F2134C1F711962C9198
:103FB0002133A1F7913421F0953421F441E002C07E
:103FC000DD24D39498012E5F3F4F89012F5F3F4F2F
:103FD000F80190819032C9F3E1CF442369F0E7E71B
:103FE000F9E284917F012FEFE21AF20A882321F08F
:103FF0000E94CA2DF701F5CFDD2069F0EDEAF4E06B
:1040000084917F013FEFE31AF30A882321F00E9495
:10401000CA2DF701F5CFD8018D918D01882309F4C0
:104020008DCA0E94CA2DF7CF0E94763DD8C581E087
:104030008093440B8093430B0E94193DD0C510928E
:10404000440B1092430B0E94193DC9C583E50E94A1
:10405000B72D882319F00E94072D02C060E070E0A0
:104060008B01112702301105D4F0ECECFAE28491B7
:104070008F010F5F1F4F811103C0E1EBF4E004C01B
:104080000E94CA2DF801F3CF84918F010F5F1F4F5B
:10409000882309F4A4C50E94CA2DF801F5CF88E44D
:1040A0000E94B72D8823A9F00E94072D6A3A710556
:1040B0003CF06530B1E07B072CF064E071E002C0B9
:1040C0006AEA70E0F801EE0FFF1FE251F34F7183CF
:1040D000608386E40E94B72D8823A9F00E94072DF3
:1040E000F801EE0FFF1FEE50F34F718360836F3FB7
:1040F000710519F014F06FEF70E077FF02C060E017
:1041000070E07183608382E40E94B72D882309F4F4
:1041100066C50E94072D6530710534F0643771055E
:104120002CF063E770E002C065E070E0000F111F43
:10413000F801E651F34F7183608351C588EC90E03C
:104140000E94E63081114BC584E40E946E2D8823C5
:1041500009F441C00E943B2D6B017C0111E020E07D
:1041600030E0A9010E9454D5811101C010E01093E4
:10417000020D20E030E0A901C701B6010E9454D52C
:10418000882349F10E943B2DE091D00224E0E29F78
:10419000F0011124E250F34F608371838283938393
:1041A00020E030E0A9016091FE0C7091FF0C80913D
:1041B000000D9091010D0E9454D581110CC080E03A
:1041C00090E0A0E4B0E48093FE0C9093FF0CA093E9
:1041D000000DB093010D0E94B83901C5F7E4EF2E30
:1041E000F1E0FF2E05E21DE0D7018D917D010E94D7
:1041F0006E2D882349F00E943B2D0E94ECDAF801D5
:1042000060837183828393830C5F1F4FFDE00533CE
:104210001F0751F70E94225DE2C40C5F1F4FF6E0BA
:104220000C321F0709F4DBC4D7018D917D010E9478
:104230006E2D882391F30E943B2DF80160837183DA
:1042400082839383EACF83E50E94B72D8823A1F070
:104250000E943B2D609314067093150680931606FA
:1042600090931706609310067093110680931206C0
:104270009093130610E001C011E080E50E94B72D75
:10428000882359F00E943B2D609314067093150605
:10429000809316069093170610E082E50E94B72DD2
:1042A000882359F00E943B2D6093180670931906DD
:1042B00080931A0690931B0610E084E50E94B72DA8
:1042C000882359F00E943B2D6093100670931106CD
:1042D000809312069093130682C4112309F47FC4BD
:1042E00040911406509115066091160670911706BC
:1042F00089ED94E00E94D15C409118065091190616
:1043000060911A0670911B0686ED94E00E94D15CC4
:10431000409110065091110660911206709113069B
:1043200083ED94E00E94D15C8AE00E94CA2D57C4BC
:1043300081E50E946E2D882351F00E94F72C609336
:10434000300670933106809332069093330683E5EE
:104350000E946E2D882351F00E943B2D60934806E9
:104360007093490680934A0690934B0684E50E9419
:104370006E2D882351F00E943B2D6093440670936C
:104380004506809346069093470688E50E946E2D69
:10439000882351F00E943B2D6093EC057093ED054E
:1043A0008093EE059093EF0589E50E946E2D88239A
:1043B00051F00E943B2D6093F0057093F1058093BE
:1043C000F2059093F3058AE50E946E2D882351F043
:1043D0000E943B2D6093F4057093F5058093F605DC
:1043E0009093F70585E40E946E2D882309F4F7C3A6
:1043F0000E943B2D6093F8057093F9058093FA05B0
:104400009093FB05ECC367E4C62E61E0D62E76E4FC
:10441000E72E7BE0F72E10E0D6018D916D010E9412
:104420006E2D882351F00E943B2DF701608371832C
:1044300082839383812F0E94572B1F5FF4E0EF0E3E
:10444000F11C133049F70C948F1784918F010F5F83
:104450001F4F882321F00E94CA2DF801F6CF83E573
:104460000E946E2D882321F00E942B2D80934601FF
:10447000E1E1F5E084918F010F5F1F4F882321F068
:104480000E94CA2DF801F6CF80914601882319F0C9
:10449000E9E0F5E002C0EDE0F5E084918F010F5F07
:1044A0001F4F811103C0E1E0F5E004C00E94CA2D56
:1044B000F801F3CF84918F010F5F1F4F882321F004
:1044C0000E94CA2DF801F6CF2091440F3091450F7C
:1044D0004091460F5091470F6091500F7091510FCE
:1044E0008091520F9091530F0E94F0D9AB01BC0103
:1044F0008FEF94E00E94D15C2091480F3091490FDA
:1045000040914A0F50914B0F6091540F7091550F8D
:104510008091560F9091570F0E94F0D9AB01BC01CA
:104520008CEF94E00E94D15C20914C0F30914D0FA4
:1045300040914E0F50914F0F6091580F7091590F4D
:1045400080915A0F90915B0F0E94F0D9AB01BC0192
:1045500089EF94E00E94D15CE1EFF4E084918F0157
:104560000F5F1F4F882321F00E94CA2DF801F6CF5C
:104570002091440F3091450F4091460F5091470FC5
:1045800060913A0170913B0180913C0190913D0115
:104590000E94F0D9AB01BC018FEE94E00E94D15C87
:1045A0002091480F3091490F40914A0F50914B0F85
:1045B00060913E0170913F018091400190914101D5
:1045C0000E94F0D9AB01BC018CEE94E00E94D15C5A
:1045D00020914C0F30914D0F40914E0F50914F0F45
:1045E0006091420170914301809144019091450195
:1045F0000E94F0D9AB01BC0189EE94E00E94D15C2D
:104600008AE00E94CA2DEBC283E50E94B72D882361
:1046100009F4E5C20E94072D7093390160933801B7
:10462000DEC28DED90E00E94E6308111D8C283E5B4
:104630000E94B72D811103C0E7E7F9E23BC000916A
:10464000D00210E00E94072D000F111FF801EA5C54
:10465000FE4F718360838091D00290E08C01000F47
:10466000111F000F111F98012E5E3E4F7901880F18
:10467000991FFC01EA5CFE4F60817181072E000CDE
:10468000880B990B0E945BD52AE037ED43E25CE38F
:104690000E94BAD5F801E05CF04F2081318142815F
:1046A00053810E94BAD5D7016D937D938D939C93CE
:1046B000139795C284918F010F5F1F4F882321F0BC
:1046C0000E94CA2DF801F6CF85E40E94CA2D809180
:1046D000D002805D0E94CA2DE091D002F0E0EE0F82
:1046E000FF1FEA5CFE4F6081718181E295E00E94CC
:1046F000EE5C85E20E94CA2D8AE00E94CA2D6FC23C
:1047000080E50E946E2D882309F469C20E94072D5E
:104710006B017C0183E50E94B72D882321F00E9464
:10472000072D8B0102C00FEF1FEFC8010196039701
:1047300008F055C2D7FC53C28C2DE9E2F5E0949104
:10474000891709F4B5C63196B5E0E635FB07B9F728
:10475000B2C683E50E94B72D882319F00E94072D69
:1047600002C064E071E079A368A380E50E94B72DE0
:10477000882339F00E94072D6938E3E17E0730F481
:1047800002C068EE73E07A83698304C088E893E12D
:104790009A838983BE01605E7F4FCE0101960E949D
:1047A00052C31DC285E40E94B72D811110C080E55F
:1047B0000E946E2D882391F00E943B2D6093DE0CA9
:1047C0007093DF0C8093E00C9093E10C07C00E9483
:1047D000172D882361F3ECECFAE271C089E40E94A2
:1047E0006E2D882381F00E943B2D2CEA35EC47E2A8
:1047F0005EE30E94BAD56093E60C7093E70C809359
:10480000E80C9093E90C84E40E946E2D882381F0DB
:104810000E943B2D2CEA35EC47E25EE30E9473DAFE
:104820006093E20C7093E30C8093E40C9093E50C9E
:10483000E7E7F9E284918F010F5F1F4F882321F092
:104840000E94CA2DF801F6CF4091DE0C5091DF0C8A
:104850006091E00C7091E10C8EE595E00E94D15CD6
:104860002CEA35EC47E25EE36091E60C7091E70CD0
:104870008091E80C9091E90C0E9473DAAB01BC01C5
:104880008AE595E00E94D15C2CEA35EC47E25EE3D4
:104890006091E20C7091E30C8091E40C9091E50C36
:1048A0000E94BAD5AB01BC0186E595E00E94D15CBF
:1048B0008AE00E94CA2D93C10E94CA2DF8018491FA
:1048C0008F010F5F1F4F8111F7CFE2E6F5E0849172
:1048D0008F010F5F1F4F882309F481C10E94CA2DE9
:1048E000F801F5CF83E50E946E2D182F882371F013
:1048F0000E943B2D0E94E5DA709317016093160128
:1049000021E0672B09F020E020934E0680E50E940D
:104910006E2D882359F02091160130911701232B19
:1049200011F00E942B2D80934E0659C1111157C1D1
:10493000E7E7F9E284918F010F5F1F4F882321F091
:104940000E94CA2DF801F6CF80914E06882319F0F7
:1049500065E072E002C068E072E089E895E00E94DC
:10496000075D609116017091170188E795E00E943C
:10497000EE5CE4E7F5E084918F010F5F1F4F882321
:1049800009F42DC10E94CA2DF801F5CF0E944431CF
:1049900026C180E50E946E2D882351F00E943B2D98
:1049A0006093C9027093CA028093CB029093CC02A9
:1049B00089E40E946E2D882381F00E943B2D2CEA11
:1049C00035EC47E25EE30E94BAD56093C50270936E
:1049D000C6028093C7029093C80284E40E946E2DA1
:1049E000882381F00E943B2D2CEA35EC47E25EE300
:1049F0000E9473DA6093C1027093C2028093C30273
:104A00009093C402E7E7F9E284918F010F5F1F4F93
:104A1000882321F00E94CA2DF801F6CF4091C902E7
:104A20005091CA026091CB027091CC0284EA95E069
:104A30000E94D15C2CEA35EC47E25EE36091C5024E
:104A40007091C6028091C7029091C8020E9473DAE9
:104A5000AB01BC0180EA95E00E94D15C2CEA35EC08
:104A600047E25EE36091C1027091C2028091C3028D
:104A70009091C4020E94BAD5AB01BC018CE995E0CB
:104A80000E94D15C8AE00E94CA2DA9C00E94CA2D52
:104A9000F80184918F010F5F1F4F8111F7CFE8EA72
:104AA000F5E084918F010F5F1F4F882309F497C0B1
:104AB0000E94CA2DF801F5CF0E94608E90C00E941E
:104AC000528E8DC083E50E946E2D882319F00E94BE
:104AD0002B2D81270E94433E82C081E08093240DCC
:104AE0000E94BC881092240D882309F478C0E7E75F
:104AF000F9E284918F010F5F1F4F811103C0E7EB33
:104B0000F5E004C00E94CA2DF801F3CF84918F0113
:104B10000F5F1F4F882309F462C00E94CA2DF8015D
:104B2000F5CF81E0809300011092DB0583E50E94C0
:104B3000B72D882339F00E942B2D811150C00E947F
:104B400065B04DC083E50E946E2DF7CF0E94CD9DCC
:104B500046C0F090810E0E94AE3AFF2029F1E7E7AF
:104B6000F9E284918F010F5F1F4F882321F00E948B
:104B7000CA2DF801F6CF84E50E94CA2D6F2D70E092
:104B800080E090E04AE00E94793080E20E94CA2DE5
:104B9000E4EDF5E084918F010F5F1F4F8823F9F05A
:104BA0000E94CA2DF801F6CF1092030DE7E7F9E253
:104BB00084918F010F5F1F4F882321F00E94CA2D1F
:104BC000F801F6CF6091030D70E082EC95E00E9451
:104BD000EE5C8AE00E94CA2D02C00E94CD9D109218
:104BE000120F0E9448B0A4C40E94AE3A80910E01F8
:104BF00090910F01A0911001B091110180934C028E
:104C000090934D02A0934E02B0934F0280913801D1
:104C10009091390190934B0280934A0284E690E090
:104C2000909339018093380111E01093440B0E9456
:104C3000193D88E50E946E2D982E89E50E946E2D03
:104C4000A82E8AE50E946E2D882E911005C0A11015
:104C500005C0B82CB12605C0A11002C0B12C01C0FE
:104C6000B82C80E1ECEDF5E0ACE2BFE001900D92F4
:104C70008A95E1F782E50E94B72D882369F00E94AA
:104C80003B2D2B013C0120E030E0A9010E9454D5CE
:104C9000882309F43FC006C0412C512CA0EA6A2E9B
:104CA000A0E47A2EB11005C0911003C0AA2009F427
:104CB00042C04092340F5092350F6092360F70927E
:104CC000370FA30192016091E4057091E505809191
:104CD000E6059091E7050E9454D587FF1BC0198215
:104CE0001A821B821C822091E0053091E1054091DF
:104CF000E2055091E3056091DC057091DD0580913E
:104D0000DE059091DF05DE0111966D0183017201D0
:104D10000E94EF6BB11005C0911003C0A11006C036
:104D20000AC080E00E9468ABBB20C1F381E00E9412
:104D300068ABB11003C0882009F459C08091450BBD
:104D400083708330F1F060E085E991E00E945F8537
:104D5000E7E7F9E284918F010F5F1F4F811103C0D4
:104D6000E6E8F1E004C00E94CA2DF801F3CF849177
:104D70008F010F5F1F4F8823D1F10E94CA2DF801C8
:104D8000F6CF0E94142C80E090E0AEEDB2E4809368
:104D90002C0F90932D0FA0932E0FB0932F0F809375
:104DA000300F9093310FA093320FB093330FE090F8
:104DB000E405F090E5050091E6051091E705E09225
:104DC000340FF092350F0093360F1093370F19827E
:104DD0001A821B821C82FE0131966F019C01AD017B
:104DE000BC01CD010E94EF6B82E00E9468AB0E9483
:104DF000142C8091430B8093440B0E94193D8091A9
:104E00004C0290914D02A0914E02B0914F028093BE
:104E10000E0190930F01A0931001B09311018091A6
:104E20004A0290914B02909339018093380183E0BC
:104E300080930D010E94C336D2CE11110C949819A3
:104E40000C9491190E94E7AC0C94BA190E94072D9A
:104E5000AB01BC0140937D1250937E1260937F1290
:104E6000709380128CEC91E10E94D7A3B8CE0E947F
:104E70003B2D0E94E5DA70934F0D60934E0D80E05C
:104E80000E94CD450E943B2D20E030E04AEA52E4EA
:104E90000E9454D518162CF00E942A550E94404CAE
:104EA00002C00E94F15460914E0D70914F0D072E7B
:104EB000000C880B990B0E945BD56B017C018090E4
:104EC0004F0690905006A0905106B0905206A50152
:104ED00094010E9473DB18165CF08DA1811110C043
:104EE000A5019401C701B6010E9473DB18161CF4DA
:104EF00083EC92E002C086EB92E060E00E945F8566
:104F000081E080931E011AA61BA61CA61DA618AA46
:104F100019AA1AAA1BAA1EA21CAAFCE3FDAB2CE12B
:104F20002EAB36E43FABC12CD12C80E8E82E9FEBB2
:104F3000F92E412C512C320160914E0D70914F0D84
:104F4000072E000C880B990B0E945BD5162F072F9C
:104F50008AA39CA39601A7010E9454D58823E9F057
:104F600020914F06309150064091510650915206C3
:104F70009DA1612F702F8AA1911108C09CA10E9450
:104F800054D5881F8827881F8EA30BC09CA10E9420
:104F900054D587FD4AC11EA204C01C2D0D2DEAA2C6
:104FA000FCA20E947AC76B017C01DC01CB0128A91D
:104FB00039A94AA95BA9821B930BA40BB50BB7FDBA
:104FC0003BC0D701C60188519C4FAF4FBF4F88AB44
:104FD00099ABAAABBBAB0E94C444E2EBF2E0849174
:104FE0005F019FEFA91AB90A882321F00E94CA2DF8
:104FF000F501F5CF4114510461047104B9F0D301F6
:10500000C201805F984DAF4FBF4FBC01CD016C19FD
:105010007D098E099F0928EE33E040E050E00E94B0
:105020005BD9CA01B9010E94283103C08FE30E94F5
:10503000CA2D8AE00E94CA2D0E94E7AC0E947AC75E
:105040006093130F7093140F8093150F9093160FA6
:1050500020904F0630905006A0915106AEA7B09117
:105060005206BFA79101AD01612F702F8AA19CA1AB
:105070000E94EFD94B015C0120E030E0A9010E94C1
:1050800073DB87FF04C0B7FAB094B7F8B09441144B
:1050900051046104710459F420E030E040E85FE31A
:1050A000C501B4010E9454D587FF0DC00AC020E09D
:1050B00030E040E450E4C501B4010E9473DB1816EF
:1050C00014F426013701EEA1EE2391F12AA53BA5A8
:1050D0004CA55DA5211531054105510541F0D701CC
:1050E000C601821B930BA40BB50BB7FD21C0910128
:1050F0004EA55FA56CA97DA98EA99FA90E94EFD995
:1051000020E030E040EC5FE30E9454D587FD8DC085
:10511000D701C601805A9541AF4FBF4F8AA79BA7C1
:10512000ACA7BDA72CAA3DAA9EA59EABAFA5AFABD1
:1051300080911E01882309F478C041145104610450
:10514000710429F4C12ED02EEAA0FCA0F5CEB0E166
:10515000CB1AB7E2DB0AE108F108C418D508E60863
:10516000F708F7FE62C0EECF4114510461047104E8
:1051700009F41AC1D301C201805F984DAF4FBF4FF0
:10518000BC01CD016C197D098E099F0928EE33E021
:1051900040E050E00E945BD9CA01B9010E94283169
:1051A0008AE00E94CA2D0E94E7AC0E947AC76093F1
:1051B000130F7093140F8093150F9093160F209078
:1051C0001E0330901F03A0912003AAA7B0912103D2
:1051D000BEA79101AD01612F702F8AA19CA10E94F1
:1051E000EFD94B015C0120E030E0A9010E9473DBA4
:1051F00087FF04C0B7FAB094B7F8B09441145104D3
:105200006104710409F0D4C020E030E040E85FE3BD
:10521000C501B4010E9454D587FDD5C0EDA1E111AF
:10522000D5C080911E01811104C180911E01882387
:1052300009F4D5CC0C94C01F0E943B2D0E94E5DAE6
:10524000623871050CF00CC170934D0D60934C0DDC
:105250000E9481450E943B2D20E030E040EA50E46E
:105260000E9473DB181614F40E94F15460914C0DE7
:1052700070914D0D072E000C880B990B0E945BD589
:1052800020911E0330911F03409120035091210370
:105290000E9473DB18161CF483EE92E002C084EDCA
:1052A00092E060E00E945F8581E080931E01809122
:1052B000030D8093D0021EA21FA218A619A618AA39
:1052C00019AA1AAA1BAA1DA21CAAECE3EDABFCE1C9
:1052D000FEAB26E42FABC12CD12C30E8E32E4FEBF4
:1052E000F42E412C512C320160914C0D70914D0DDA
:1052F000072E000C880B990B0E945BD5162F072FE9
:105300008AA39CA39601A7010E9454D58823F1F09B
:1053100020911E0330911F034091200350912103DF
:105320008FA5612F702F811109C08AA19CA10E94B5
:1053300054D5881F8827881F8DA30CC08AA19CA1E3
:105340000E9454D587FD71CF1DA204C01C2D0D2DC8
:10535000EAA2FCA20E947AC76B017C01DC01CB01AE
:1053600028A939A94AA95BA9821B930BA40BB50BE9
:10537000B7FD19CFD701C60188519C4FAF4FBF4F22
:1053800088AB99ABAAABBBAB0E94C444E0EDF2E0A2
:1053900084915F019FEFA91AB90A882309F4E4CE2A
:1053A0000E94CA2DF501F4CF8FE30E94CA2DF8CEDA
:1053B00020E030E040E450E4C501B4010E9473DB1A
:1053C00018160CF02BCF2601370128CF2EA13FA1B4
:1053D00048A559A5211531054105510541F0D701D1
:1053E000C601821B930BA40BB50BB7FD1ACF91011D
:1053F0004AA55EA56CA97DA98EA99FA90E94EFD997
:1054000020E030E040EC5FE30E9454D587FD0DCFF3
:10541000D701C601805A9541AF4FBF4F8EA39FA3BE
:10542000A8A7B9A72CAA3DAA9AA59EABAEA5AFABDB
:10543000F8CE411451046104710429F4C12ED02E18
:10544000EAA0FCA051CFB0E1CB1AB7E2DB0AE10839
:10545000F108C418D508E608F708F7FEE6CEEECF47
:1054600062E870E0F1CE0E94AE3A88E50E946E2DAF
:10547000882331F05E9A8091450B8E7F8093450B97
:1054800089E50E946E2D882331F05E9A8091450B4C
:105490008D7F8093450B8AE50E946E2D882309F449
:1054A0009ECB159A8091450B8B7F8093450B97CBB4
:1054B0000E94D0C794CB0E94AE3ABC2C60E08C2DE9
:1054C0000E9492C60F3F4FEF140759F48C2D0E9493
:1054D000DF9F31E020E0892B09F030E0032F122F0D
:1054E00005C00130110561F401E010E08B2D0E9430
:1054F000DF9F8017910709F472CB0E94E7ACF6CFCB
:1055000000E010E0F3CF61E0812F0E9492C66E2D83
:10551000812F0E9408A0F12CB701812F0E94CEC6D6
:10552000143009F05CCBF0924D06E0924C0657CB5C
:10553000E7960FB6F894DEBF0FBECDBFDF91CF91D7
:105540001F910F91FF90EF90DF90CF90BF90AF90A1
:105550009F908F907F906F905F904F903F902F9093
:1055600008959091560BE92FF0E0EE5AF44F8083A6
:105570009F5F943018F49093560B02C01092560B14
:105580008091D90C8F5F8093D90C0895089580E0A5
:1055900090E008958091040F9091050F981759F0AD
:1055A000E92FF0E0EC57F14F80819F5F9F77909358
:1055B000050F90E008958FEF9FEF08950F931F93CD
:1055C000CF93DF93EC010E947AC70E811F8128855B
:1055D0003985011511052105310559F52C85222341
:1055E000A9F13A8521502C8721E0230F2A874D8588
:1055F000241301C01A86FE0124E0329FE00DF11D44
:10560000112406851785208931890A831B832C8301
:105610003D83DC01CB01800F911FA11DB11D8E8345
:105620009F83A887B9878C819D81892B79F0419AC6
:105630000DC0DC01CB01801B910BA20BB30BB7FD9E
:1056400005C041981E821F8218861986DF91CF916E
:105650001F910F910895CF92DF92EF920F931F93B6
:10566000CF93DF9300D000D0CDB7DEB7E090030D2D
:1056700019821A821B821C82CE0101966C010EE0F7
:1056800011E028EE35E044EE55E060EE75E08CED7B
:1056900095E00E94835E0F900F900F900F90DF9126
:1056A000CF911F910F91EF90DF90CF9008950F93BE
:1056B0001F93CF93DF9394E0899FE00111248E0123
:1056C0000C5B104FFE01EA5BF44FDE01A05EB04FB1
:1056D0002D913D914D915C91608171818281938189
:1056E0000E94F0D9F8016083718382839383FE0165
:1056F000EB5AF84F85919591A591B491FE01E05B2D
:10570000F04F80839183A283B383FE01EF59F84F5A
:1057100085919591A591B491C65CDE4F888399835C
:10572000AA83BB83DF91CF911F910F910895CF93EF
:10573000FC0120812B33A9F02091D90C243088F46E
:10574000C62FBC018091560BF0E68F9FC00111243B
:10575000885A944F0E9454DC8C2F0E94B12A81E019
:1057600001C080E0CF910895DF92EF92FF920F93F6
:105770001F93CF93DF93CDB7DEB76E970FB6F89434
:10578000DEBF0FBECDBF60915C0D70915D0D6115E8
:10579000710509F14DE150E0CE0101967C010E94B6
:1057A000C3D41E8EF7018F010E191F09D190DD2081
:1057B00019F09AE0D912F7CFF701E00FF11F10822C
:1057C00060E0C7010E94972B882329F0C7010E943F
:1057D00049AC811109C081E020915C0D30915D0DD3
:1057E000232BA1F480E012C0DD2049F00F5F1F4F92
:1057F00080915C0D90915D0D080F191F02C000E0B3
:1058000010E010935D0D00935C0DE5CF6E960FB622
:10581000F894DEBF0FBECDBFDF91CF911F910F91E6
:10582000FF90EF90DF90089528EE35E044EE55E0CC
:1058300060EE75E08CED95E00C947D5DCF938091EA
:105840006F00C82FC27081FF05C080916F008D7FEF
:1058500080936F008091BF0F8093BE0F8093BD0F28
:105860008093BC0F84E68093BB0F0E94FE3C88EEC1
:1058700093E09093350B8093340BCC2329F08091E7
:105880006F00826080936F0081E0809360030E94CC
:10589000AE3A0E942CB08CE0E6E0FFE0ACEDB5E063
:1058A00001900D928A95E1F7CF910C94142C2F92D0
:1058B0003F924F925F926F927F929F92AF92BF9270
:1058C000CF92DF92EF92FF920F931F93CF93DF93CC
:1058D000CDB7DEB728970FB6F894DEBF0FBECDBFA9
:1058E0001A012B01922EF32EC82ED12CF601E45F63
:1058F000F74DE491AA24A3941E160CF4A12CBB240A
:10590000B39420E030E0A901C201B1010E9473DB31
:1059100018160CF0B12CCC0CDD1CCC0CDD1CC60117
:1059200084529A4F3C01FC01108211821282138230
:105930000E94142CF3012082318242825382E09033
:10594000030D20E030E0A901B801892D9F2D0E94B0
:1059500054D581110AC0F601E853F64E8591959110
:10596000A591B4918C019A2EFB2EC801A92DBF2DB3
:105970008D839E83AF83B88719821A821B821C8213
:10598000CE0101966C018E010B5F1F4F28EE35E0B2
:1059900044EE55E060EE75E08CED95E00E94835E8C
:1059A0000E94AE3AAB1459F08091570B882319F03E
:1059B0001092570B04C08DE697E00E9486AC2896A3
:1059C0000FB6F894DEBF0FBECDBFDF91CF911F9110
:1059D0000F91FF90EF90DF90CF90BF90AF909F908E
:1059E0007F906F905F904F903F902F90089580919F
:1059F000570290915802009731F04AE050E060E081
:105A000070E00C948CD360E070E0CB01089580913D
:105A1000570290915802009731F04AE050E060E060
:105A200070E00C945ED260E070E0CB0108950E94BB
:105A3000072D97FD0CC00E94072D6F3F7105810552
:105A4000910509F034F40E94072D862F089580E017
:105A500008958FEF08958091570290915802892BF5
:105A600039F00E94172D91E0811103C090E001C030
:105A700091E0892F08950F931F93CF938091570240
:105A8000909158020097F1F0FC018F01C1912C2FE9
:105A90002F7D89F0C53411F0C536B9F7F8011082B1
:105AA00060E070E00E9402D1F801C083562F472FBA
:105AB000382F292F0BC060E070E0CF911F910F911C
:105AC0000C9402D150E040E030E020E0652F742FCC
:105AD000832F922FCF911F910F91089581548A3176
