:100000000C94EE140C9418150C9418150C941815E7
:100010000C941F710C941F710C941F710C941F7120
:100020000C9418150C9418150C9418150C9418159C
:100030000C9418150C94B2430C9418150C941815C4
:100040000C9418150C94E78C0C94B6BE0C941815EF
:100050000C94FE320C94F4320C9418150C94181570
:100060000C9418150C9418150C9418150C9418155C
:100070000C9418150C9418150C9418150C9418154C
:100080000C9418150C9418150C94181576A720A626
:1000900057A6B2A757A657A657A657A657A657A61C
:1000A00057A657A657A657A657A657A657A657A668
:1000B00057A657A657A657A657A657A657A657A658
:1000C00057A657A657A657A6ACA757A657A657A6F2
:1000D00057A657A657A657A657A685A757A657A609
:1000E00057A657A657A657A657A657A657A657A628
:1000F000C9A754A62ABD2DBD20BD24BD44BD44BD05
:1001000031BD35BD3BBD3FBD25BE2ABE2FBE39BE6C
:1001100067BE67BE43BE4BBE53BE5DBE4E414E4939
:100120004E495459494E46CDCCCC3D0AD7233C17B5
:10013000B7D13877CC2B329595E6241FB14F0A0002
:100140000020410000C84200401C4620BCBE4CCAF2
:100150001B0E5AAEC59D74434F4D4D554E494341FC
:1001600054494F4E0044525952554E004552524F39
:10017000525300494E464F004543484F0020746F8C
:100180006F206C6F6E6720657874727573696F6E1F
:100190002070726576656E7465640A0020636F6C0A
:1001A0006420657874727573696F6E2070726576FD
:1001B000656E7465640A00536C6565702E2E2E00A2
:1001C000486F6D652058592066697273740A00483B
:1001D0006F6D6520585920666972737400436C69AD
:1001E000636B20746F20726573756D652E2E2E0003
:1001F0004E6F206D6F76652E00456E642066696CCB
:1002000065206C6973740A00426567696E206669CF
:100210006C65206C6973740A00286E6F2066696CC7
:1002200065290043757272656E742066696C653A63
:1002300020005344207072696E74696E6720627981
:10024000746520004E6F74205344207072696E7480
:10025000696E670A0044656C6574696F6E2066613B
:10026000696C65642C2046696C653A200046696CAF
:10027000652064656C657465643A002569730025C2
:10028000696D20256973002569682025696D202521
:10029000697300256964202569682025696D20251A
:1002A00069730025697920256964202569682025FE
:1002B000696D20256973005072696E742074696DD0
:1002C000653A20006F666600780173016C01650174
:1002D000570144454255473A004D313133205300D0
:1002E00020573A0042656420636F6F6C696E672E19
:1002F0002E2E004265642068656174696E672E2E3B
:100300002E006F6B00416E6574204136204F4646CB
:100310002E004D4F54494F4E5F4D4F4445530054AE
:100320004845524D414C5F50524F54454354494FFC
:100330004E004155544F5245504F52545F53445F05
:1003400053544154555300454D455247454E43592A
:100350005F50415253455200434153455F4C49471A
:1003600048545F4252494748544E45535300544FF6
:1003700047474C455F4C494748545300534F4654F8
:10038000574152455F504F574552004255494C44E2
:100390005F50455243454E54004C4556454C494EDE
:1003A000475F44415441005A5F50524F424500411B
:1003B00055544F4C4556454C005052494E545F4A97
:1003C0004F420050524F4752455353004155544FEE
:1003D0005245504F52545F54454D5000564F4C5566
:1003E0004D455452494300454550524F4D005345E9
:1003F0005249414C5F584F4E5F584F464600464960
:10040000524D574152455F4E414D453A4D61726CD8
:10041000696E206275676669782D322E302E7820DD
:10042000284769746875622920534F555243455FC8
:10043000434F44455F55524C3A68747470733A2F79
:100440002F6769746875622E636F6D2F4D61726CD2
:10045000696E4669726D776172652F4D61726C6964
:100460006E2050524F544F434F4C5F5645525349A4
:100470004F4E3A312E30204D414348494E455F544E
:100480005950453A416E65742041362045585452C2
:10049000554445525F434F554E543A3120555549C6
:1004A000443A63656465326132662D343161322DC0
:1004B000343734382D396231322D63353563363275
:1004C0006633363766660A002F2F20004D313435EB
:1004D00020533C696E6465783E206F7574206F66AA
:1004E0002072616E67652028302D31290A00205462
:1004F00000205200416363656C65726174696F6EC0
:100500003A2050004F4646004F4E00205A002059D6
:1005100000580020204D61783A2000205A002059D0
:1005200000580020204D696E3A2000536F667420F9
:10053000656E6473746F70733A200020466C6F7739
:100540003A200050726F7465637465642050696E60
:100550000A00496E76616C6964206578747275640E
:1005600065720A0020643A0020693A0020703A005F
:1005700020643A0020693A0020703A0043290A00BA
:1005800061626C656420286D696E2074656D7020F1
:1005900000436F6C642065787472756465732061C4
:1005A00072652000486F6D652025732573257320C3
:1005B0006669727374002066697273740A005A0067
:1005C00059005800486F6D6520004F66667365746A
:1005D00073206170706C696564004572723A2054D2
:1005E0006F6F206661722100546F6F206661722008
:1005F00066726F6D207265666572656E63652070E8
:100600006F696E740A00454550524F4D204F4B0A9A
:10061000004E6F2063617365206C696768740A001F
:10062000496E76616C696420657874727564657270
:100630000A004572726F722077726974696E672062
:10064000746F20454550524F4D210A000F150E1270
:1006500016170E1303021A1401000E0C190DFF18C1
:100660000C040001627573793A20706175736564DA
:1006700020666F7220696E7075740A0062757379F6
:100680003A2070617573656420666F7220757365BA
:10069000720A00627573793A2070726F63657373C2
:1006A000696E670A004B494C4C2063617573656441
:1006B00020627920746F6F206D75636820696E61A8
:1006C00063746976652074696D65202D2063757289
:1006D00072656E7420636F6D6D616E643A200050B8
:1006E0006C65617365207265736574005052494E84
:1006F0005445522048414C544544004B494C4C45CC
:10070000442E20005072696E7465722068616C74AA
:1007100065642E206B696C6C28292063616C6C65A4
:1007200064210A006563686F3A004572726F723A1D
:100730000020496E76616C69642065787472756416
:10074000657220001FFFFFFFFFFFFF600000000039
:1007500001FF400000000000FF8000000000007F5B
:1007600083CF00000C303F87FF80000C301F86795C
:1007700080000C000F8C30C7838C30E78C30CFC7E3
:10078000CC31F38C30DCECEC33B98C30D86C6C337E
:10079000198C30D06C0C33198C30D86C0C33198C0C
:1007A00030DC6C0E3B198C30CF7C079F198C30C726
:1007B0007C038F1940000000000002600000000070
:1007C00000061FFFFFFFFFFFF82020506C616E6ED8
:1007D000657242756666657242797465733A200087
:1007E0002046726565204D656D6F72793A20004331
:1007F0006F6D70696C65643A204465632031362002
:10080000323031380A00207C20417574686F723AAA
:10081000202852616C665F452C20414E4554204192
:100820003620636F6E666967290A00323031382DD1
:1008300030312D323000204C61737420557064616A
:100840007465643A20006275676669782D322E30CF
:100850002E780A004D61726C696E0020536F6674C9
:10086000776172652052657365740A002057617460
:100870006368646F672052657365740A0020427272
:100880006F776E206F75742052657365740A00204F
:1008900045787465726E616C2052657365740A00E8
:1008A000506F77657255700A0073746172740A0034
:1008B0006175746F25632E67006572726F722077A1
:1008C000726974696E6720746F2066696C650A00CE
:1008D000446F6E6520736176696E672066696C652A
:1008E0002E0A004D323900456E6473746F707320A8
:1008F000256320256320256320256300205A3A00C4
:1009000020593A0020583A00656E6473746F707312
:10091000206869743A20004D6F766520302E316D65
:100920006D004D6F766520316D6D004D6F766520E1
:1009300031306D6D004D6F766520617869730048C8
:100940006F74656E6420746F6F20636F6C64004514
:1009500078747275646572004D6F7665205A004D2B
:100960006F76652059004D6F76652058000000486D
:100970004200004842000080400000000043616ED9
:100980006E6F74206F70656E20737562646972207B
:100990000053442063617264206F6B0A006F7065BE
:1009A0006E526F6F74206661696C65640A00766FC1
:1009B0006C756D652E696E6974206661696C65641D
:1009C0000A00534420696E6974206661696C0A00EC
:1009D0004D3234004D3233202573005772697469EB
:1009E0006E6720746F2066696C653A20006F7065D1
:1009F0006E206661696C65642C2046696C653A20DE
:100A0000006F70656E206661696C65642C204669B4
:100A10006C653A200046696C652073656C6563748B
:100A200065640A002053697A653A200046696C655E
:100A3000206F70656E65643A2000667265736800A9
:100A4000646F696E67002066696C653A20004E6FBE
:100A5000772000454E4420535542524F5554494E3D
:100A6000450A002220706F73002220706172656E4B
:100A7000743A2200535542524F5554494E45204333
:100A8000414C4C207461726765743A22007472792B
:100A9000696E6720746F2063616C6C207375622DC2
:100AA00067636F64652066696C6573207769746835
:100AB00020746F6F206D616E79206C6576656C7344
:100AC0002E204D4158206C6576656C2069733A3153
:100AD0000A0024F4D43050C38E20C2A24017828B67
:100AE0007011127A910D816CD90AA861E108C7587A
:100AF0006607615143061E4B5D05C145A7041A41B7
:100B00001104093D9803713931034036DB02653326
:100B10009102D4305402802E1D02632CEE01752AFE
:100B2000C501B028A001102781018F2564012B2465
:100B30004B01E0223401AC211F018D200D01801FEB
:100B4000FC00841EED00971DDF00B81CD200E61BE0
:100B5000C600201BBC00641AB200B219A8000A1912
:100B6000A0006A189900D117910040178B00B516A4
:100B7000840031167E00B31579003A157300C7144E
:100B80006F0058146A00EE13660088136300251383
:100B90005E00C7125B006C12570015125400C111A1
:100BA000510070114F0021114B00D61049008D10DB
:100BB00047004610440002104200C00F4000800F62
:100BC0003E00420F3C00060F3B00CB0E3800930E58
:100BD00037005C0E3500270E3400F30D3200C10DD6
:100BE0003100900D3000600D2E00320D2D00050DEE
:100BF0002C00D90C2B00AE0C2900850C29005C0CB4
:100C00002700350C27000E0C2600E80B2400C40B2F
:100C10002400A00B23007D0B23005A0B2100390B6D
:100C20002100180B2000F80A1F00D90A1E00BB0A79
:100C30001E009D0A1D00800A1D00630A1C00470A51
:100C40001B002C0A1B00110A1A00F7091A00DD0903
:100C50001900C4091900AB091900920917007B0992
:100C60001800630917004C09160036091600200900
:100C700016000A091500F5081500E0081400CC0854
:100C80001400B8081400A4081400900813007D088C
:100C900012006B08130058081200460812003408AE
:100CA0001100230811001208110001081100F007BB
:100CB0001000E0071000D0071000C0071000B007B8
:100CC0000F00A107100091070E0083070F007407A3
:100CD0000F0065070E0057070E0049070E003B077F
:100CE0000D002E070E0020070D0013070D0006074C
:100CF0000D00F9060C00ED060D00E0060C00D40610
:100D00000C00C8060C00BC060C00B0060C00A406C3
:100D10000B0099060C008D060B0082060B0077066F
:100D20000B006C060B0061060A0057060B004C0610
:100D30000A0042060A0038060A002E060A002406A7
:100D40000A001A060A001006090007060A00FD0537
:100D50000900F4050900EB050900E2050900D905C1
:100D60000900D0050900C7050900BE050900B50541
:100D70000800AD050800A50509009C0508009405BC
:100D800008008C050800840508007C05080074052F
:100D900008006C050700650508005D05070056059D
:100DA00008004E0507004705070040050800380504
:100DB0000700310507002A050700230507001C0569
:100DC0000600160507000F050700080506000205C6
:100DD0000700FB040600F5040700EE040600E80423
:100DE0000600E2040700DB040600D5040600CF0479
:100DF0000600C9040600C3040600BD040600B704CB
:100E00000600B1040500AC040600A6040600A00418
:100E100005009B04060095040500900406008A0462
:100E2000050085040500800406007A0405007504A9
:100E30000500700405006B040500660405006104EC
:100E400005005C04050057040500520405004D042C
:100E5000050048040500430405003E0404003A046C
:100E6000050035040500300404002C0405002704A7
:100E70000400230405001E0404001A0404001604E0
:100E80000500110404000D04040009040500040415
:100E9000040000040400FC030400F8030400F4034D
:100EA0000400F0030400EC030400E8030400E4037E
:100EB0000400E0030400DC030400D8030400D403AE
:100EC0000400D0030400CC030400C8030300C503DE
:100ED000030024F404D9201BC40C5C0E9804C4093C
:100EE0005F0265077101F405F900FB04B3004804D3
:100EF0008700C10369005803550003034500BE0283
:100F00003A008402310053022A002902250004021B
:100F10002000E4011C00C8011900AF01170098016E
:100F200014008401130071011000610110005101CF
:100F30000E0043010D0036010B002B010B002001B8
:100F40000B00150109000C01090003010800FB005A
:100F50000800F3000800EB000700E4000600DE00D4
:100F60000600D8000600D2000600CC000500C7002D
:100F70000500C2000500BD000400B9000400B50072
:100F80000400B1000400AD000400A9000400A500A5
:100F90000300A20003009F0004009B0003009800D0
:100FA00003009500020093000300900003008D00F1
:100FB00002008B000300880002008600020084000B
:100FC0000300810002007F0002007D0002007B0020
:100FD0000200790002007700010076000200740030
:100FE000020072000100710002006F0002006D003B
:100FF00001006C0002006A00010069000200670045
:10100000010066000100650001006400020062004A
:10101000010061000100600001005F0002005D004E
:1010200001005C0001005B0001005A000100590052
:101030000100580001005700010056000100550052
:101040000100540001005300000053000100520051
:10105000010051000100500001004F0001004E004E
:1010600000004E0001004D0001004C0001004B004B
:1010700000004B0001004A00010049000100480047
:101080000000480001004700010046000000460043
:10109000010045000000450001004400010043003C
:1010A0000000430001004200000042000100410036
:1010B000000041000100400001003F0000003F002F
:1010C00001003E0000003E0001003D0000003D0028
:1010D00001003C0000003C0000003C0001003B001F
:1010E00000003B0001003A0000003A000100390016
:1010F000000039000100380000003800000038000E
:101100000100370000003700010036000000360003
:1011100000003600010035000000350000003500F9
:1011200001003400000034000000340001003300EE
:1011300000003300000033000100320000003200E4
:1011400000003200010031000000310000003100D9
:1011500001003000000030000000300001002F00CE
:1011600000002F0000002F0000002F0001002E00C3
:1011700000002E0000002E0001002D0000002D00B8
:1011800000002D0000002D0001002C0000002C00AC
:1011900000002C0000002C0001002B0000002B00A0
:1011A00000002B0000002B0001002A0000002A0094
:1011B00000002A0000002A00010029000000290088
:1011C000000029000000290000002900010028007B
:1011D000000028000000280000002800000028006F
:1011E0000100270000002700000027000000270062
:1011F0000000270001002600000026000000260055
:101200000000260000002600010025000000250047
:10121000000025000000250000002500000025003A
:10122000010024000000240000002400000024002D
:101230000000240001002300000023000000230020
:101240000000230000002300000023000000230012
:101250000100220000002200000022000000220005
:1012600000002200000022000100210000002100F7
:1012700000002100000021000000210000002100EA
:1012800000002100010020000000200000002000DC
:1012900000002000000020000000200000002000CE
:1012A0000000200001001F0000001F0000001F00C0
:1012B00000001F0000001F0000001F0000001F00B2
:1012C00001001E0000001E0000001E0000001E00A5
:1012D0000000043700001E290000511B00005810B8
:1012E000000010090000CC04000078020000410159
:1012F000000000005E4300005E4300006643000003
:1013000040C00000A0C000000000290A002062794F
:101310007465733B20637263200053657474696E57
:1013200067732053746F72656420280045455052DE
:101330004F4D206461746173697A65206572726FC4
:10134000722E0A00290A002062797465733B2063BB
:10135000726320002073746F726564207365747407
:10136000696E67732072657472696576656420289A
:1013700000202863616C63756C6174656429210ABF
:101380000020213D2000454550524F4D20435243FF
:10139000206D69736D61746368202D202873746FEC
:1013A0007265642920002053697A653A2000496EED
:1013B0006465783A2000204D61726C696E3D563646
:1013C00033290A0028454550524F4D3D00454550B0
:1013D000524F4D2076657273696F6E206D69736D23
:1013E0006174636820004261627973746570205A89
:1013F00000466C6F7700466C6F770046616E207315
:10140000706565640046616E2073706565640042B6
:10141000656400426564004E6F7A7A6C65004E6FB9
:101420007A7A6C6500537065656400537065656415
:10143000004D61696E0025753A2530327500253002
:1014400032753A25303275002575642025303275A5
:101450003A25303275002020202020200020202036
:1014600020001FE02010201020101020102020103D
:10147000201030300840048003001FE03FF03FF0B0
:101480003FF01FE01FE03FF03FF03FF00FC007804C
:1014900003003FFFF038007030FC3020FC10207853
:1014A000102030102C00D02E31D02F7BD02F7BD0AD
:1014B0002E31D02C00D020301020781020FC10309D
:1014C000FC303800703FFFF03FFFF038007031868D
:1014D000302387102787902F87D02F03D0203010FC
:1014E0002078102078102030102F03D02F87D0279D
:1014F00087902387103186303800703FFFF01FFF40
:10150000F81FFFF8041040020820020820041040D1
:101510000820801041001041000820800410400085
:1015200000001FFFF81FFFF84573746570732F6D7F
:101530006D004573746570732F6D6D005A7374651B
:1015400070732F6D6D005A73746570732F6D6D001D
:101550005973746570732F6D6D0059737465707372
:101560002F6D6D005873746570732F6D6D00587317
:10157000746570732F6D6D00416476616E63656490
:101580002053657474696E677300496E697469618C
:101590006C697A6520454550524F4D004164766133
:1015A0006E6365642053657474696E6773004D34AF
:1015B000323800496E697469616C697A6520454505
:1015C00050524F4D0046696C616D656E74005465F4
:1015D0006D70657261747572650053746570732FF8
:1015E0006D6D004A65726B00416363656C65726185
:1015F00074696F6E0056656C6F636974790053652A
:101600007420686F6D65206F666673657473004340
:101610006F6E66696775726174696F6E0053746F7F
:1016200072652073657474696E6773004265640047
:10163000426564004E6F7A7A6C65004E6F7A7A6C00
:10164000650046616E2073706565640046616E20BA
:10165000737065656400436F6E6669677572617467
:10166000696F6E004C6F61642073657474696E6796
:101670007300526573746F7265206661696C736183
:1016800066650053746F72652073657474696E6764
:101690007300507265686561742041425320636F26
:1016A0006E66005072656865617420504C4120631D
:1016B0006F6E6600416476616E6365642053657485
:1016C00074696E6773004D61696E007C3C3E5E2BF1
:1016D0003D3F2F5B5D3B2C2A225C004861726463B6
:1016E0006F6465642044656661756C74205365742D
:1016F00074696E6773204C6F616465640A00282307
:1017000000008813000032000000102700000000D5
:10171000C8430000C843000080400000C8410000EA
:10172000C8420000C8420000C8430000BE42204436
:101730000020490020204D33303420500020440048
:1017400020490020204D33303120500050494420A2
:1017500073657474696E67733A0A0020460020420C
:101760000020480020204D3134352053004D617455
:10177000657269616C206865617475702070617252
:10178000616D65746572733A0A00205A0020590031
:1017900020204D323036205800486F6D65206F662E
:1017A000667365743A0A00204500205A00205900EB
:1017B00020580020540020530020204D3230352086
:1017C000420020453C6D61785F655F6A65726B3EE3
:1017D0000020583C6D61785F785F6A65726B3E20CF
:1017E000593C6D61785F795F6A65726B3E205A3C47
:1017F0006D61785F7A5F6A65726B3E004164766105
:101800006E6365643A20423C6D696E5F7365676D17
:10181000656E745F74696D655F75733E20533C6DD2
:10182000696E5F66656564726174653E20543C6DE7
:10183000696E5F74726176656C5F6665656472611E
:1018400074653E0020540020520020204D32303478
:10185000205000416363656C65726174696F6E202E
:1018600028756E6974732F7332293A20503C707258
:10187000696E745F616363656C3E20523C7265748F
:10188000726163745F616363656C3E20543C747283
:101890006176656C5F616363656C3E0A002045009C
:1018A000205A0020590020204D3230312058004D60
:1018B0006178696D756D20416363656C65726174F3
:1018C000696F6E2028756E6974732F7332293A0A16
:1018D00000204500205A0020590020204D3230338E
:1018E0002058004D6178696D756D2066656564727C
:1018F000617465732028756E6974732F73293A0AB1
:1019000000204500205A0020590020204D39322067
:10191000580053746570732070657220756E697419
:101920003A0A0020204D3230302044300A00202076
:101930004D3230302044002044697361626C65642C
:101940000A0046696C616D656E7420736574746914
:101950006E67733A0020204D3134392043203B20FC
:10196000556E69747320696E2043656C7369757375
:101970000A0020286D6D29002020473231202020C8
:10198000203B20556E69747320696E206D6D006F69
:1019900070656E00545249474745524544003A200D
:1019A000007A5F6D696E00795F6D696E00785F6DBA
:1019B000696E005265706F7274696E6720656E643F
:1019C00073746F70207374617475730A00205A3ACF
:1019D0000020593A0020436F756E7420583A002059
:1019E000453A00205A3A0020593A00583A00486FC8
:1019F0006D696E67206661696C656400000040C0B7
:101A00000000A0C0000000005761726E696E673A66
:101A100020486F6D696E672042756D70204469764D
:101A200069736F72203C20310A000202040000A09A
:101A3000400000A04000000040000061430000633F
:101A40004300006643FFFFFF556E6B6E6F776E209D
:101A5000636F6D6D616E643A20220020746F6F2099
:101A60006C6F6E6720657874727573696F6E207025
:101A7000726576656E7465640A0020636F6C64201D
:101A8000657874727573696F6E2070726576656EB5
:101A90007465640A0023646566696E652044454682
:101AA00041554C545F0000626564004B6420004B5C
:101AB0006920004B702000504944204175746F74B8
:101AC000756E652066696E6973686564212050755E
:101AD0007420746865206C617374204B702C204BEB
:101AE0006920616E64204B6420636F6E7374616E55
:101AF00074732066726F6D2062656C6F7720696EFB
:101B0000746F20436F6E66696775726174696F6E7A
:101B10002E680A00504944204175746F74756E65D3
:101B2000206661696C6564212074696D656F7574E8
:101B30000A00453120544845524D414C2052554EE3
:101B4000415741590042454420544845524D414C6B
:101B50002052554E4157415900546865726D616C71
:101B60002052756E61776179004531204865617456
:101B7000696E67206661696C65640042656420680F
:101B8000656174696E67206661696C6564004865AB
:101B90006174696E67206661696C656400504944D0
:101BA000204175746F74756E65206661696C65643B
:101BB000212054656D706572617475726520746F53
:101BC0006F20686967680A00204B643A2000204B48
:101BD000693A2000204B703A20000A20436C617360
:101BE00073696320504944200A002054753A20004C
:101BF000204B753A2000206D61783A2000206D69F5
:101C00006E3A200020643A200020626961733A2015
:101C100000504944204175746F74756E652073746B
:101C20006172740A00504944204175746F74756E76
:101C300065206661696C6564212042616420657875
:101C4000747275646572206E756D6265720A004506
:101C500072723A207574663820666F6E74206E6FEB
:101C60007420696E697469616C697A65642E0045D7
:101C700072723A207574663820666F6E74206E6FCB
:101C80007420696E697469616C697A65642E0045B7
:101C900072723A207574663820666F6E74206E6FAB
:101CA0007420696E697469616C697A65642E0000DC
:101CB000060C00FE07022603BC017FFE08FE08FE9C
:101CC00005080806000040F0C888889878100508C4
:101CD00008060000C0F88888888888F80505050689
:101CE00000012030F830200508080600002070F8B8
:101CF00020202020E00509090600FF2070A8A8B8D0
:101D000088887020050606060001E08CEA8C8A0AA5
:101D10000509090600FFF8A88888888888A8F805BA
:101D20000A0A0600FE205050505088A8A888700368
:101D3000030306000340A040FFFFFFFFFFFFFFFF7C
:101D4000FFFFFFFFFFFFFFFFFFFFFFFFFFFF0000A1
:101D5000000605FF010707060200808080808000E2
:101D600080030303060105A0A0A0050606060000E7
:101D700050F85050F8500509090600FF2070A8A03F
:101D80007028A87020050707060000C8C81020406A
:101D9000989805070706000040A0A040A890680199
:101DA00003030602058080800309090601FF204025
:101DB000408080804040200309090601FF804040A8
:101DC00020202040408005070706000020A8702042
:101DD00070A8200505050600012020F82020020338
:101DE000030601FFC04080050101060003F802025E
:101DF00002060100C0C005070706000008101020F9
:101E0000404080050707060000708898A8C88870C1
:101E100003070706010040C040404040E0050707B7
:101E2000060000708808102040F80507070600002B
:101E3000F8081030088870050707060000103050B9
:101E400090F81010050707060000F880F0080888D1
:101E500070050707060000304080F088887005078D
:101E600007060000F80810102020200507070600CC
:101E700000708888708888700507070600007088E1
:101E80008878081060020505060100C0C000C0C0C7
:101E90000206060601FFC0C000C04080030505061B
:101EA00001012040804020050303060002F800F8ED
:101EB0000305050601018040204080050707060054
:101EC0000070881020200020050707060000708899
:101ED000B8A8B88070050707060000708888F888E1
:101EE0008888050707060000F04848704848F00554
:101EF0000707060000708880808088700507070645
:101F00000000F04848484848F0050707060000F878
:101F10008080F08080F8050707060000F88080F0D8
:101F20008080800507070600007088808098887090
:101F3000050707060000888888F88888880307074F
:101F4000060100E04040404040E005070706000071
:101F5000381010101090600507070600008890A048
:101F6000C0A09088050707060000808080808080E0
:101F7000F805070706000088D8A88888888805071C
:101F8000070600008888C8A8988888050707060003
:101F90000070888888888870050707060000F08828
:101FA00088F080808005070706000070888888A870
:101FB0009068050707060000F08888F0A090880563
:101FC00007070600007088807008887005070706FC
:101FD0000000F820202020202005070706000088A8
:101FE00088888888887005070706000088888888A0
:101FF00050502005070706000088888888A8A85048
:1020000005070706000088885020508888050707C4
:1020100006000088885020202020050707060000C1
:10202000F80810204080F80309090601FFE08080CD
:102030008080808080E00507070600008040402007
:102040001010080309090601FFE0202020202020AD
:1020500020E0050303060005205088050101060065
:10206000FEF8030303060105804020050505060070
:102070000070087888780507070600008080F088DF
:102080008888F005050506000070808088700507C7
:102090000706000008087888888878050505060086
:1020A000007088F08070050707060000304840E0A7
:1020B0004040400507070600FE7088888878087051
:1020C0000507070600008080F088888888030707D6
:1020D0000601004000C0404040E00409090601FE3E
:1020E00010003010101010906005070706000080E7
:1020F000808890E09088030707060100C0404040B8
:102100004040E0050505060000D0A8A8A8A80505E0
:1021100005060000B0C8888888050505060000701F
:10212000888888700507070600FEF0888888F08098
:10213000800507070600FE78888888780808050566
:1021400005060000B0C880808005050506000078FF
:10215000807008F00507070600002020F8202020E6
:102160001805050506000088888898680505050695
:10217000000088888850200505050600008888A88A
:10218000A85005050506000088502050880507075F
:102190000600FE888888502040800505050600005E
:1021A000F8102040F80309090601FF204040408054
:1021B000404040200109090602FF80808080808025
:1021C0008080800309090601FF8040404020404094
:1021D000408005030306000248A890FF6265640A78
:1021E000002C2073797374656D2073746F70706543
:1021F0006421204865617465725F49443A20004259
:1022000065642068656174696E67206661696C65E4
:10221000640048656174696E67206661696C656415
:102220000045312048656174696E67206661696C9C
:1022300065640048656174696E67206661696C65F4
:102240006400202D20496E76616C69642065787485
:102250007275646572206E756D62657220210A0068
:102260001000AA03F0013A0190022201300310018C
:10227000D00302017004F7001005ED00B005E50081
:102280005006DD00F006D7009007D1003008CC00E2
:10229000D008C7007009C300100ABE00B00ABB0016
:1022A000500BB700F00BB300900CB000D00DAA009B
:1022B000100FA5005010A00090119B00D0129600A6
:1022C000B014900090168B0070188500501A800092
:1022D000301C7B00B01E750030216F00B0236900F8
:1022E0003026640010285F00902A5A00702C550098
:1022F000F02E4F0070314800B0324500F0334100FD
:1023000070363900103737005038330090392D00BF
:10231000D03A2700B03C1C00503D1700F03D1100A2
:10232000903E0900D03FE5FF4531204572723A20CA
:102330004D415854454D50004572723A204D415818
:1023400054454D5020424544004D415854454D5050
:102350002074726967676572656400453120457253
:10236000723A204D494E54454D50004572723A2004
:102370004D494E54454D5020424544004D494E5420
:10238000454D5020747269676765726564004D3809
:102390003420582059205A204500202F0020424048
:1023A0003A0020403A005654726176206D696E0002
:1023B0005654726176206D696E00566D696E0056D6
:1023C0006D696E00566D6178204500566D6178200C
:1023D0004500566D6178205A00566D6178205A008C
:1023E000566D6178205900566D6178205900566D00
:1023F0006178205800566D617820580041647661FC
:102400006E6365642053657474696E677300416D13
:102410006178204500416D6178204500416D61780B
:10242000205A00416D6178205A00416D6178205931
:1024300000416D6178205900416D6178205800415C
:102440006D6178205800412D74726176656C004191
:102450002D74726176656C00412D726574726163D2
:102460007400412D72657472616374004163636529
:102470006C00416363656C00416476616E63656402
:102480002053657474696E67730056652D6A6572B2
:102490006B0056652D6A65726B00567A2D6A6572FF
:1024A0006B00567A2D6A65726B0056792D6A6572DB
:1024B0006B0056792D6A65726B0056782D6A6572CD
:1024C0006B0056782D6A65726B00416476616E63AD
:1024D00065642053657474696E67730043616E6E42
:1024E0006F7420656E746572207375626469723AE8
:1024F0002000022E2E000152656672657368004D41
:1025000061696E005072656865617420504C4120AD
:10251000456E64005072656865617420504C4120BE
:10252000426564005072656865617420504C4100DA
:1025300054656D706572617475726500507265687E
:102540006561742041425320456E64005072656895
:102550006561742041425320426564005072656891
:10256000656174204142530054656D7065726174F9
:102570007572650050726568656174204142530050
:102580005072656865617420504C4100436F6F6CF8
:10259000646F776E0046616E2073706565640046F7
:1025A000616E207370656564004265640042656415
:1025B000004E6F7A7A6C65004E6F7A7A6C65004DCA
:1025C00061696E004261627973746570205A004DD2
:1025D0003235005072696E742061626F7274656486
:1025E0000054656D7065726174757265004D6F742D
:1025F000696F6E0054756E6500496E69742E2053C4
:10260000442063617264004D3231004E6F205344A8
:102610002063617264004368616E676520534420E3
:1026200063617264004D3231005072696E742066CD
:10263000726F6D2053440053746F70207072696E16
:102640007400526573756D65207072696E74004315
:102650006F6E66696775726174696F6E005061753F
:102660007365207072696E7400496E666F207363C3
:102670007265656E004D6F76652058004D6F76650A
:102680002059004D6F7665205A0045787472756444
:102690006572004578747275646572004D6F766579
:1026A000205A004D6F76652059004D6F7665205891
:1026B000004D6F74696F6E0044697361626C6520D0
:1026C0007374657070657273004D383400417574B1
:1026D0006F20686F6D6500473238004D6F7665205A
:1026E00061786973004D61696E0046696C2E204403
:1026F00069612E0046696C2E204469612E004F6688
:1027000066004F6E004520696E206D6D5E3300419E
:102710006476616E6365642053657474696E677373
:10272000005049442D44005049442D440050494430
:102730002D49005049442D49005049442D50005026
:1027400049442D5000416476616E63656420536591
:102750007474696E6773006F70656E206661696C72
:1027600065642C2046696C653A2000453120544848
:1027700045524D414C2052554E415741590042451A
:102780004420544845524D414C2052554E415741EA
:102790005900546865726D616C2052756E61776185
:1027A00079004361703A00656E7175657565696E93
:1027B000672022006F6B00526573656E643A2000DB
:1027C00053544F505045442E20005072696E74652A
:1027D000722073746F707065642064756520746F07
:1027E000206572726F72732E204669782074686556
:1027F000206572726F7220616E6420757365204D62
:1028000039393920746F20726573746172742E20A7
:102810002854656D706572617475726520697320E6
:1028200072657365742E2053657420697420616627
:102830007465722072657374617274696E67290AB7
:10284000004E6F20436865636B73756D2077697404
:1028500068206C696E65206E756D6265722C204C07
:10286000617374204C696E653A20004E6F20436896
:1028700065636B73756D2077697468206C696E652C
:10288000206E756D6265722C204C617374204C69EA
:102890006E653A2000636865636B73756D206D69C2
:1028A000736D617463682C204C617374204C696E85
:1028B000653A20004C696E65204E756D6265722028
:1028C0006973206E6F74204C617374204C696E655F
:1028D000204E756D6265722B312C204C6173742013
:1028E0004C696E653A20004D313130004D33310076
:1028F00053442072656164206572726F720A0044ED
:102900006F6E65207072696E74696E672066696C9F
:10291000650A0020573A004520436F6F6C696E6767
:102920002E2E2E00452048656174696E672E2E2E6E
:1029300000416E65742041362052656164792E0035
:102940005072696E74696E672E2E2E005072696E19
:1029500074207061757365640000002100240027F5
:10296000002A0000002200250028002B0000002083
:1029700000230026002900020202020202020204D1
:102980000404040404040403030303030303030112
:102990000101010101010101020408102040800130
:1029A00002040810204080010204081020408080AA
:1029B0004020100804020100000001020000000095
:1029C00000000004030807000000000000000000F1
:1029D0000000000000000000F2C76FC711241FBEF6
:1029E000CFEFD0E4DEBFCDBF12E0A0E0B1E0EAEE71
:1029F000F8EA01E00BBF02C007900D92A033B107C7
:102A0000D9F722E1A0E3B2E001C01D92A034B207E1
:102A1000E1F714E1CDEED4E104C02197FE010E945C
:102A2000C3D1CC3ED107C9F70E9425BF0C9468D40E
:102A30000C9400002F923F924F925F926F927F9280
:102A40008F929F92AF92BF92CF92DF92EF92FF92BE
:102A50000F931F93CF93DF93CDB7DEB7E0970FB6F9
:102A6000F894DEBF0FBECDBF00911D0420E6029F8B
:102A70008001112403561D4F8091DF0C80FF05C09B
:102A80000E94782FC8010E94D332109265021092E2
:102A900064028FE3809367021092580210925702EB
:102AA0001092530210925402109255021092560244
:102AB000C8018C01DC012C9101962032D1F32E3417
:102AC000D9F411968C9190ED980F9A3020F08D32B8
:102AD00011F08B3289F4F80132969F012F5F3F4F3E
:102AE000808180538A3010F4F901F7CF8F0131963D
:102AF000D8018C918032D1F31093D6070093D5077B
:102B00007801BFEFEB1AFB0AF80170806AE270E00F
:102B1000C7010E9425D4009731F0FC0131978081D4
:102B20008032E1F31182FDE47F1631F024E5721664
:102B300019F037E47312EEC0F70180814FEFE41A09
:102B4000F40A8032C9F380538A3008F0E3C07092EF
:102B5000670280E090E06AE03196DF0111972C91E6
:102B6000022E000C330B20533109689FA001699F8E
:102B7000500D1124C901840F951F208120532A3044
:102B800058F39093580280935702DF0131962C91AD
:102B90002032D9F35DE475121AC08E31910591F09F
:102BA0003CF48731910571F08C31910581F40AC0B4
:102BB0008537910564F08737910524F0803AE3E08A
:102BC0009E0729F4B0936502A0936402A3C0C12CB0
:102BD000D12C760140E050E0812C912C540183945B
:102BE000FD0131966C9161110DC0509365024093C7
:102BF0006402C0925302D0925402E0925502F092C5
:102C0000560288C06132E9F42DE472121AC0803293
:102C10009105B9F4C0925302D0925402E092550249
:102C2000F0925602F0936502E093640263E270E072
:102C3000CF010E9425D4009709F46CC0DC011C92DE
:102C400069C061546A3108F042C09F01F901708186
:102C50002F5F3F4F7032D1F320ED270F2A30E8F07D
:102C60007E3211F421810CC07D3211F07B3259F497
:102C7000218130ED320F3A3080F02E3221F4228162
:102C800020532A3050F04115510511F00C945E2765
:102C9000AF01415051090C945E279F01A62FB0E06F
:102CA0001401250104C0220C331C441C551C6A95D8
:102CB000D2F7C228D328E428F5282115310511F0D0
:102CC000201B01C020E0A05DBD4F2C9304C0411526
:102CD000510509F4AD01208121542A3110F4DF019E
:102CE0007FCF9F01F901D9016D916623C1F370ED8A
:102CF000760F7A3010F49D01F5CF73ED760F7230B8
:102D0000D0F36B32C1F3F9012F5F3F4F6081603226
:102D1000D1F3E5CF11E010935902809167028D3411
:102D200009F43FC4843511F40C943C27873411F026
:102D30000C94572780915702909158028C3191053D
:102D400009F441C24CF497FD28C482309105A4F0E7
:102D5000049709F4FAC121C48B35910509F455C3D0
:102D60008C35910509F455C38A35910509F015C4D0
:102D7000109266020C94592780912B01882311F43C
:102D80000C945927E0E48E2EE1E09E2EF3ECEF2E1A
:102D9000F7E0FF2E09E714E0AAEAAA2EA7E0BA2E70
:102DA000B0E6CB2EB2E0DB2E712CF40181914F0105
:102DB0000E94BA2A882311F10E94872AD6012C91F9
:102DC000211104C020916602222341F0F8012081E4
:102DD0003181428153810E94D5D10AC0F3E07F1630
:102DE00039F0D5012D913D914D915C910E94D4D146
:102DF000F70160837183828393830AC0F801808125
:102E00009181A281B381F70180839183A283B383EF
:102E10007394F4E0EF0EF11C0C5F1F4F24E0A20E40
:102E2000B11C3FEFC31AD30A44E07412BECF86E44C
:102E30000E94032B8823C9F00E94872A20E030E0FB
:102E4000A9010E9458D3181684F40E94872A20E012
:102E500030E040E752E40E9458D260930C01709336
:102E60000D0180930E0190930F0180912F01882313
:102E700009F4B4C0C0906107D0906207E090630786
:102E8000F09064072091C3073091C4074091C507B3
:102E90005091C607C701B6010E9458D3181644F4D2
:102EA000C092C307D092C407E092C507F092C6074C
:102EB000C0906507D0906607E0906707F0906807BC
:102EC0002091C7073091C8074091C9075091CA07A0
:102ED000C701B6010E9458D3181644F4C092C70720
:102EE000D092C807E092C907F092CA07C0901601B5
:102EF000D0901701E0901801F09019012091C307BC
:102F00003091C4074091C5075091C607C701B6016B
:102F10000E942DCD87FF08C0C092C307D092C4077E
:102F2000E092C507F092C607C0901A01D0901B012D
:102F3000E0901C01F0901D012091C7073091C80757
:102F40004091C9075091CA07C701B6010E942DCD13
:102F500087FF08C0C092C707D092C807E092C90790
:102F6000F092CA07C0906907D0906A07E0906B079B
:102F7000F0906C072091CB073091CC074091CD07A2
:102F80005091CE07C701B6010E9458D3181644F4D9
:102F9000C092CB07D092CC07E092CD07F092CE073B
:102FA000C0901E01D0901F01E0902001F0902101FF
:102FB0002091CB073091CC074091CD075091CE079F
:102FC000C701B6010E942DCD87FF08C0C092CB0774
:102FD000D092CC07E092CD07F092CE078091DF0C23
:102FE00083FD7DC0C090CF07D090D007E090D1077F
:102FF000F090D20720918504309186044091870497
:1030000050918804C701B6010E942DCD882309F490
:1030100066C08091280881111FC0609129087091B5
:103020002A0880912B0890912C080E94CAD22091E6
:10303000290130912A016217730774F4C092850444
:10304000D0928604E0928704F09288040E94782F40
:103050008CE991E00E94522F8090CF079090D0078A
:10306000A090D107B090D2072091850430918604BA
:103070004091870450918804C501B4010E94D4D1C5
:103080006B017C0120E030E0A9010E9458D387FF4A
:1030900004C0F7FAF094F7F8F094209125013091EC
:1030A00026014091270150912801C701B6010E94D5
:1030B00093CD20E030E048E453E40E9458D3181642
:1030C00074F48092850490928604A0928704B09252
:1030D00088040E94782F8DE791E00E94522F609122
:1030E000220170912301072E000C880B990B0E947E
:1030F00034CD20910C0130910D0140910E01509181
:103100000F010E9493CD2AE037ED43E25CE30E9479
:1031100093CD69837A838B839C838E010F5F1F4FCE
:103120002FEC37E04BEC57E067EC77E083EC97E06F
:103130000E940F8380E1E3ECF7E0A9E7B4E001909F
:103140000D928A95E1F70C94592780E50E94032B94
:10315000882329F00E94432A6B017C0103C0C12C03
:10316000D12C760183E50E94032B882361F00E9415
:10317000872A20E030E04AE754E40E9493CD0E9481
:10318000D1D26B017C010E945F4B8091D7078111E6
:1031900005C060E087EB91E00E94B9B90E94AABE29
:1031A000C60ED71EE81EF91E0E94AABEDC01CB0186
:1031B0008C199D09AE09BF09B7FD02C00C945927AF
:1031C0000E942B30F1CF8FE40E94FB83882339F0DB
:1031D0008091C2078770873011F40C9459270E94A0
:1031E0005F4B80910C0190910D01A0910E01B09167
:1031F0000F0180935C0290935D02A0935E02B093F6
:103200005F02809122019091230190935B02809351
:103210005A0284E690E0909323018093220111E00A
:1032200010938E020E94197188E50E94BA2A882E96
:1032300089E50E94BA2AA82E8AE50E94BA2A982E09
:10324000811005C0A11005C0B82EB12605C0A1107F
:1032500002C0B12C01C0B82E80E1E9E7F4E0A3EC94
:10326000B7E001900D928A95E1F782E50E94032B69
:10327000882369F00E94872A2B013C0120E030E07E
:10328000A9010E942DCD882309F43FC006C0412C1E
:10329000512C70EA672E70E4772EB11005C08110B2
:1032A00003C0AA2009F442C04092CB075092CC0739
:1032B0006092CD077092CE07A301920160918104C4
:1032C0007091820480918304909184040E942DCD9A
:1032D00087FF1BC019821A821B821C8220917D04E9
:1032E00030917E0440917F04509180046091790474
:1032F00070917A0480917B0490917C04DE01119698
:103300006D01830172010E94A736B11005C08110C2
:1033100003C0A11006C00AC080E00E94CA6FBB2093
:10332000C1F381E00E94CA6FB11003C0992009F473
:1033300047C080918F028370833061F060E08FEC32
:1033400091E00E94B9B90E94782F80EC91E00E9430
:10335000522F36C00E94886F80E090E0AEEDB2E45C
:103360008093C3079093C407A093C507B093C60783
:103370008093C7079093C807A093C907B093CA0763
:10338000E0908104F0908204009183041091840401
:10339000E092CB07F092CC070093CD071093CE07B5
:1033A00019821A821B821C82FE0131966F019C01D8
:1033B000AD01BC01CD010E94A73682E00E94CA6F18
:1033C0000E94886F80918D0280938E0280915C02B2
:1033D00090915D02A0915E02B0915F0280930C011A
:1033E00090930D01A0930E01B0930F0180915A02AA
:1033F00090915B02909323018093220183E080935C
:1034000024010E947B720C945927109366020C943D
:10341000592740E4242E41E0342E56EBE52E57E0A8
:10342000F52E29E734E03F8F2E8F6AEAC62E67E03B
:10343000D62E00E010E0D1018D911D010E94032BDA
:10344000882309F44BC00E94872A2B013C011330CA
:1034500049F0F60120813181428153810E94D4D10B
:103460002B013C01AE8DBF8D2D913D914D915C9115
:10347000C301B2010E94D4D14B015C012DEB37E3B3
:1034800046E855EB0E9458D387FD0AC02DEB37E381
:1034900046E855E3C501B4010E942DCD1816F4F499
:1034A000133051F440928504509286046092870450
:1034B0007092880401E012C0A5019401F7016081B7
:1034C0007181828193810E94D5D1D7016D937D93C3
:1034D0008D939C931397812F0E94576F1F5FB4E0C9
:1034E000EB0EF11CEE8DFF8D3496FF8FEE8FF4E026
:1034F000CF0ED11C143009F09ECF002309F449C02F
:103500002091000D3091010D4091020D5091030D5D
:10351000609185047091860480918704909188045D
:103520000E9493CD0E945DD36093A20E7093A30E70
:103530008093A40E9093A50E9091800E8091810EA1
:10354000981719F00E94014B24C00E945F4B809194
:103550006F00982F927081FF05C080916F008D7F62
:1035600080936F004091A20E5091A30E6091A40E23
:103570007091A50E40934B0D50934C0D60934D0DE3
:1035800070934E0D992329F080916F008260809393
:103590006F000E947B720C9459270E94EB830C945D
:1035A000592780915702909158028237910509F46A
:1035B000D0C60CF0F6C08B34910509F4A8C40CF009
:1035C0008CC08831910509F4ADC20CF059C082312C
:1035D000910509F4E6C5BCF497FF02C00C943927A5
:1035E000823091050CF40DC2419711F00C943927EB
:1035F00060E080EF91E00E94B9B95E985E981598FE
:103600005E980C9459278531910509F471C254F5DF
:10361000449711F00C94392788E092E00E94522FD1
:103620001092050782E69EE00E94F7668BE1E2E6D3
:10363000FEE0DE01119601900D928A95E1F740E0DF
:1036400050E0BE016F5F7F4F80E090E00E94113E2E
:10365000CE0101960E94FC6689EF91E00E94522FF4
:103660000C9459278631910509F446C2479711F009
:103670000C9439278091640290916502FC0149C243
:103680008D31910511F40C945927C4F48A319105B8
:1036900009F46AC20CF44EC28B31910509F472C26E
:1036A0004C9711F00C94392740E060E0809164025F
:1036B000909165020E94AF3F0C9459278F3191057C
:1036C00009F458C30CF4B3C28032910509F40DC358
:1036D0008A9709F4FAC30C9439278836910509F4BE
:1036E0002FC4ACF58235910509F454C504F58D3429
:1036F000910509F422C40CF40DC48135910511F033
:103700000C9439270E94BD8D0E9462570E94E74C9D
:103710000E940B2F68EE73E080E090E00E948F2EF5
:1037200060E085E093E00E94B9B90C945927843594
:10373000910509F436C50CF430C58535910509F4B9
:1037400063C58C35910509F478C50C9439278D36FD
:10375000910509F418C4ACF48A36910509F4F7C44C
:103760000CF4BCC48B36910509F409C58C3691055F
:1037700011F00C94392710921E1210920B010C9428
:1037800059278F36910509F412C40CF4FFC3803712
:10379000910509F452C48137910509F455C40C947C
:1037A00039278D3D910511F40C940B240CF0ACC01D
:1037B0008B39910509F4A5C40CF07CC087379105BD
:1037C00009F406C60CF066C08537910509F4C6C534
:1037D0000CF0CCC58337910511F00C9439278EEF8E
:1037E00093E00E94522F60E08EEE93E00E9411B9A8
:1037F00061E087EE93E00E9411B961E08CED93E007
:103800000E9411B961E08CEC93E00E9411B960E074
:1038100083EC93E00E9411B961E089EB93E00E9490
:1038200011B960E08FEA93E00E9411B960E087EA85
:1038300093E00E9411B960E089E993E00E9411B918
:1038400060E08BE893E00E9411B960E08CE793E0C0
:103850000E9411B960E08EE693E00E9411B960E029
:1038600088E593E00E9411B960E087E493E00E944C
:1038700011B960E082E393E00E9411B961E08FE149
:1038800093E00E9411B960E082E193E00E9411B9D7
:103890000C9459278937910509F4A5C50CF49BC5EB
:1038A0008C38910509F4F0C38139910509F4A2C55A
:1038B0000C9439278C3C910509F486C6ACF4883CFD
:1038C000910509F4F2C534F48E3B910509F4F6C371
:1038D0000C943927893C910509F434C68B3C910539
:1038E00009F453C60C9439278E3C910509F4ADC6F2
:1038F0000CF49BC6833D910509F4CAC68C3D910525
:1039000009F47CC70C9439278A3921E0920709F41D
:1039100098C3CCF58E3241E0940711F40C94C32582
:10392000D4F48232A1E09A0711F40C94AC2434F45C
:10393000823E910509F4C5C70C9439278C32E1E029
:103940009E0711F40C94B7248D32914011F40C941D
:10395000CC240C943927803321E0920711F40C9485
:10396000502514F40C940526833641E0940711F495
:103970000C9425278039914011F00C9439270E942E
:103980005F4B0C945927873FA1E09A0711F40C94E0
:103990000127ECF4843FE1E09E0711F40C94FB2630
:1039A0003CF48C3A914011F40C9408260C9439277D
:1039B000853F31E0930711F40C94FE26863F914039
:1039C00011F00C9439270E9447710C9459278C30C0
:1039D00052E0950711F40C941D273CF4883F914068
:1039E00011F40C940C270C943927803AE3E09E07DD
:1039F00009F4B0C1873E934011F40C942C270C9429
:103A00003927A0906402B090650280E50E94032BE4
:103A1000882359F00E94432A6B017C0111E0672B37
:103A2000682B692B31F410E004C010E0C12CD12CBC
:103A3000760183E50E94032B882311F40C946227FE
:103A40000E94872A20E030E04AE754E40E9493CDA8
:103A50000E94D1D26B017C0111110BC0672B682B26
:103A6000692B39F4A114B10421F0D5018C91811195
:103A700002C010E001C011E00E945F4B112329F049
:103A800061E0C5010E94F3B905C060E08DED91E0F1
:103A90000E94B9B983E08093590281E080931E129D
:103AA000C114D104E104F104B1F00E94AABEC60E13
:103AB000D71EE81EF91E0E94AABEDC01CB018C199C
:103AC0009D09AE09BF09B7FF0DC080911E1281117B
:103AD0000C94672707C080911E12882319F00E945A
:103AE0002B30F9CF0E9419BA10921E120C9459274C
:103AF0000E94C13D0C9459270E94493D80911B10A2
:103B0000877F80931B100C945927203209F4108270
:103B1000319620812111F9CF40E061E00E94AF3F52
:103B20000C9459270E94583D0E943E570E9419BA92
:103B30000C94592780911B108B7F80931B108091D0
:103B40006007813069F482E0809360070E94AABE1A
:103B500060935C0770935D0780935E0790935F07A7
:103B60000E9419BA0C94592780911B1083FD02C042
:103B70000C94592783E50E94032B81110C946B2729
:103B80000C94592783E40E94BA2A882319F183E20E
:103B900092E00E94522F80910C0E882391F0BE017A
:103BA0006F5F7F4F89E09EE00E94BE658E010F5FD0
:103BB0001F4FF80181918F01882339F00E944B2F0C
:103BC000F8CF89E192E00E94522F8AE00E944B2FA9
:103BD0000C94592780911B1083FF23C082FF21C0C2
:103BE00082E392E00E94522F60911710709118109A
:103BF0008091191090911A104AE00E9477318FE25B
:103C00000E944B2F60911310709114108091151029
:103C1000909116104AE00E9477310E94CD320C94A8
:103C2000592784E492E00E94522F0C9459278091E6
:103C30001B1083FD02C00C9459270E94D48360910D
:103C400064027091650280911B1083FD02C00C9488
:103C50005927CE014C960E9400B38C01009711F4B5
:103C60000C9459276C8D7D8D19821C8222E0AC0149
:103C7000CE0101960E94946B811102C0F12C14C0F8
:103C8000CE0101960E946EB28823C1F361E0CE019D
:103C900001960E946665009789F325EEDC012C935E
:103CA0001C820E940241F82ECE0101960E94FC6601
:103CB000B801FF2089F08DE692E00E94612F8AE032
:103CC0000E944B2F1092171010921810109219107A
:103CD00010921A100C94592785E592E00E94612FEA
:103CE0008EE20E944B2F0C94592780911B1082FD6D
:103CF0000E945F4B80911B1083FD02C00C945927DA
:103D000080E50E94FB83182F482F61E080916402B8
:103D1000909165020E94AF3F83E50E94032B8823A8
:103D200081F00E94532AAB01BC01409317105093BD
:103D300018106093191070931A1089E09EE00E9489
:103D40007C640E94583D11110C9459270E943E57E3
:103D50000C945927209164023091650290911B10B8
:103D6000926090931B1040E060E0C9010E94AF3F59
:103D70000C9459270E94EF567B018C0120E831E515
:103D800041E050E00E9434D1C9016DE671E00E942B
:103D90007CD14B015C01C801B70120E13EE040E06D
:103DA00050E00E9434D1CA01B90128E130E040E07E
:103DB00050E00E9434D1762E672EC62ED72E3CE3DB
:103DC000232E312C412C512CC801B701A2019101A5
:103DD0000E9434D1F62EE72ECA01B901A201910149
:103DE0000E9434D1CB018E010F5F1F4F81149104CB
:103DF00099F0EF92FF927F936F936F927F92BF92B1
:103E0000AF929F928F9283EA92E09F938F931F933A
:103E10000F930E94C5CC13C0A114B104B1F0EF926E
:103E2000FF927F936F936F927F92BF92AF9283E9DD
:103E300092E09F938F931F930F930E94C5CC0FB670
:103E4000F894DEBF0FBECDBF30C0CD2879F0EF9221
:103E5000FF927F936F936F927F9287E892E09F9398
:103E60008F931F930F930E94C5CCE9CF892B69F0E4
:103E7000EF92FF927F936F938FE792E09F938F93E0
:103E80001F930F930E94C5CCDACFEF92FF928BE77E
:103E900092E09F938F931F930F930E94C5CC0F9036
:103EA0000F900F900F900F900F9060E0C8010E944C
:103EB000F3B90E94782FB80187EB92E00E94612F3E
:103EC0008AE00E944B2F0C94592783E50E94032B14
:103ED000882311F40C9459270E94632AF82E6FEF5F
:103EE0007FEF80E50E94102B8C0197FF02C00C949D
:103EF0005927E82E89E40E94FB8381110C947C27CA
:103F0000802F0E9400BF8111F9C40C947C270E946D
:103F10003E57CFC780916007813009F0CAC782E061
:103F2000809360070E94AABE60935C0770935D0750
:103F300080935E0790935F07BCC70E946257B9C722
:103F40008091DF0C83FDB5C70E941E3287FDB1C78B
:103F500083E50E94032B882309F4ABC70E94872ABC
:103F60000E94CAD28B01709324046093230480E0E2
:103F70000E946E8D063511050CF09BC70E9462579A
:103F80000E9419BA96C70E94E2B393C78EE40E94BA
:103F9000032B882309F48DC70E94532A6093A7112D
:103FA0007093A8118093A9119093AA1182C783E5F9
:103FB0000E94BA2A882359F083E50E94032B8823A4
:103FC00019F00E94632A01C080E08093DF0C0E94F8
:103FD000782F82ED92E00E94522F8091DF0C88238F
:103FE00049F128ECE22E22E0F22E00E010E020E081
:103FF0008091DF0C90E0002E02C0959587950A9481
:10400000E2F780FF0EC0DD24D394D20E222319F0F4
:104010008CE20E944B2FF701859194910E94522FC0
:104020002D2D0F5F1F4F92E0E90EF11C0530110599
:10403000F9F6CBCD84EC92E0C6CD80E090E00E9412
:104040007C2F0E94B32E35C783E50E94032B882363
:1040500061F00E94632A8093000190E0CD970CF4F8
:1040600028C78CE38093000124C70E94782F4091D9
:10407000000150E060E070E089ED92E00E94E431E0
:104080008AE00E944B2F15C78091DF0C83FD11C77A
:1040900083E50E94032B882309F40BC70E94872A1B
:1040A0000E94CAD26238710514F062E870E0709321
:1040B0002204609321040E941F8DFBC68091DF0CB7
:1040C00083FDF7C683E50E94032B88A7811127C7CC
:1040D00082E50E94032B811122C7EBC60E941E328B
:1040E000182F87FD0AC082E093E00E94522F812F93
:1040F0000E94748C8AE00E944B2F109259020C94FB
:104100002A2A83E50E94032B882309F4D2C60E9441
:10411000632A182F90E0CD970CF01CE310934E0209
:104120000E94AABE6B017C01212F30E0A8EEB3E013
:104130000E9461D1C60ED71EE81EF91EC0924A0227
:10414000D0924B02E0924C02F0924D02B2C680E552
:104150000E94032B882321F00E94632A182F01C09C
:1041600010E06FEF70E083E50E94FEB81111A1C668
:104170008F3F910508F08FEF809317089AC660E093
:1041800070E080E50E94FEB8892B09F092C610927B
:1041900017088FC6109263028CC681E08093630279
:1041A00088C683E50E94032B882399F00E94872A02
:1041B00020E030E04AE754E40E9493CD0E94D1D23F
:1041C00060930101709302018093030190930401B5
:1041D00070C688E50E94BA2A81110C940E2989E5DF
:1041E0000E94BA2A81110C940E298AE50E94BA2AEB
:1041F00081110C940E2985E40E94BA2A81110C9435
:104200000E290E94E74C55C683E50E94BA2A8823EE
:1042100009F44FC60E94872A20E030E04AE754E4C0
:104220000E9493CD0E94D1D260934F0270935002AE
:1042300080935102909352023CC60E941E3287FD29
:1042400038C610E4C12E11E0D12E00EEE02E0CE0B5
:10425000F02E10E0D6018D916D010E94BA2A8823BC
:1042600009F46DC0133009F063C00E94872A4B0126
:104270005C0120E030E040EA51E40E942DCD87FF50
:104280004EC0A50194016091000D7091010D8091C7
:10429000020D9091030D0E9458D22B013C019B010D
:1042A000AC016091FB077091FC078091FD07909134
:1042B000FE070E9493CD6093FB077093FC078093E9
:1042C000FD079093FE07A30192016091100D70917C
:1042D000110D8091120D9091130D0E9493CD60935A
:1042E000100D7093110D8093120D9093130D60912A
:1042F0000B0870910C0880910D0890910E080E9497
:1043000032CDA30192010E9493CD0E94D1D260933D
:104310000B0870930C0880930D0890930E08809200
:10432000000D9092010DA092020DB092030D07C0F6
:104330000E94872AF701648B758B868B978B1F5F92
:10434000F4E0EF0EF11C143009F084CF0E94444CCD
:10435000B0C50E945F4B0E947B72ABC560E080914C
:104360006402909165020E94F3B9A3C5E0906402D3
:10437000F090650283E010E040E08150E1F0D70169
:104380009C91292F2B7F2134C1F711962C91213339
:10439000A1F7913421F0953419F441E001C011E006
:1043A00097012E5F3F4F79012F5F3F4FF7019081BB
:1043B0009032C9F3E2CF41110E94782F112321F0EE
:1043C00088EC94E00E94522FC7010E94D33271C53D
:1043D0000E94F8706EC581E080938E0280938D02FA
:1043E0000E94197166C510928E0210928D020E9471
:1043F00019715FC560E070E083E50E94102B8C01AD
:104400001127023011053CF00E94742F8CEC94E0CF
:104410000E94522F4EC588E40E94032B8823A9F0E6
:104420000E94532A6A3A71053CF06530F1E07F073B
:104430002CF064E071E002C06AEA70E0F801EE0F6F
:10444000FF1FEA55F84F7183608386E40E94032BB7
:10445000882381F00E94532A77FD07C06F3F7105C2
:1044600029F024F06FEF70E001C060E0F801E05641
:10447000F84F608382E40E94032B882309F419C556
:104480000E94532A6530710534F0643771052CF0B1
:1044900063E770E002C065E070E0F801EE0FFF1F17
:1044A000EE55F84F7183608304C50E941E32182FA9
:1044B00087FDFFC484E40E94BA2A882309F43FC020
:1044C0000E94872A6B017C0101E020E030E0A90115
:1044D0000E942DCD811101C000E00093080720E06B
:1044E00030E0A901C701B6010E942DCD882339F122
:1044F0000E94872A24E01202F0011124E35FF84FA2
:10450000608371838283938320E030E0A90160910E
:104510000D0770910E0780910F07909110070E9470
:104520002DCD81110CC080E090E0A0E4B0E4809338
:104530000D0790930E07A0930F07B09310070E94EA
:10454000F542B7C40E941E3287FDB3C4E0E4EE2EEC
:10455000E1E0FE2E00EE1CE0D7018D917D010E946E
:10456000BA2A882349F00E94872A0E94D1D2F801F2
:1045700060837183828393830C5F1F4FFCE0003F55
:104580001F0751F70E94BA4A94C40E941E3287FD49
:1045900090C470E4E72E71E0F72E00EE1CE0D70126
:1045A0008D917D010E94BA2A882339F00E94872AC2
:1045B000F80164A375A386A397A30C5F1F4FFCE0CB
:1045C000003F1F0761F775C48091540287FD4BC6F9
:1045D000809155028E7009F046C64091140D50919D
:1045E000150D6091160D7091170D84EF94E00E94E7
:1045F000BC324091180D5091190D60911A0D7091B7
:104600001B0D81EF94E00E94BC3240911C0D509133
:104610001D0D60911E0D70911F0D8EEE94E00E9495
:10462000BC328AE00E944B2F44C4809153028271B5
:1046300009F05FC6809155028C7809F05AC68091C6
:104640005602837009F055C634C450E4C52E51E0BB
:10465000D52E60E9E62E62E0F62E10E0D6018D91AF
:104660006D010E94BA2A882351F00E94872AF7011F
:104670006083718382839383812F0E94576F1F5FB2
:10468000F4E0EF0EF11C133011F40C94C91AE6CFCC
:104690000E94782F8BE295E00E94522F83E50E94C2
:1046A000BA2A882321F00E94772A80932F018091D3
:1046B0002F01882319F088E095E002C084E095E09E
:1046C0000E94522F83E295E00E94522F2091AA0768
:1046D0003091AB074091AC075091AD0760916107F5
:1046E0007091620780916307909164070E94D5D111
:1046F000AB01BC0181E295E00E94BC322091AE0783
:104700003091AF074091B0075091B10760916507B4
:104710007091660780916707909168070E94D5D1D4
:10472000AB01BC018EE195E00E94BC322091B20742
:104730003091B3074091B4075091B5076091690774
:1047400070916A0780916B0790916C070E94D5D198
:10475000AB01BC018BE195E00E94BC3283E195E0A6
:104760000E94522F2091AA073091AB074091AC07CD
:104770005091AD0760911601709117018091180159
:10478000909119010E94D5D1AB01BC0181E195E066
:104790000E94BC322091AE073091AF074091B00724
:1047A0005091B10760911A0170911B0180911C0119
:1047B00090911D010E94D5D1AB01BC018EE095E026
:1047C0000E94BC322091B2073091B3074091B407E8
:1047D0005091B50760911E0170911F0180912001D9
:1047E000909121010E94D5D1AB01BC018BE095E0F5
:1047F0000E94BC328AE00E944B2F5BC383E50E947B
:10480000032B882309F455C30E94532A7093230174
:10481000609322014EC30E941E32F82E87FD49C3C9
:1048200083E50E94032B0F2D0F2C000C110B882306
:1048300069F10E94532AF801EE0FFF1FE05FFE4F5F
:1048400071836083000F111F000F111F98012B5DF2
:104850003E4F7901072E000C880B990B0E9434CD36
:104860002AE037ED43E25CE30E9493CDF801E75F75
:10487000F84F20813181428153810E9493CDD7012D
:104880006D937D938D939C93139713C30E94782F00
:1048900085E40E944B2F80E38F0D0E944B2F000F69
:1048A000111FF801E05FFE4F608171818BE395E09D
:1048B0000E94113285E20E944B2F8AE00E944B2F0A
:1048C000F8C280E50E94BA2A882309F4F2C260E0A7
:1048D00070E080E50E94102BF82E6FEF7FEF83E5EC
:1048E0000E94102B8C010196039708F0E2C2F7FC9E
:1048F000E0C28F2D0E9400BF882339F00E94742FE0
:1049000083E495E00E94522FD4C20E945F4B60E086
:104910008F2D0E94C2BD0F3FBFEF1B0731F001304A
:10492000110571F000E010E00DC08F2D0E946ABDEE
:1049300031E020E0892B09F030E0032F122F02C074
:1049400001E010E08F2D0E946ABD8017910709F4E5
:10495000B0C20E942B30F6CF8AE50E94032B811152
:1049600033C583E50E94032B81112EC5A2C264E0EA
:1049700071E083E50E94FEB88C0168EE73E080E58B
:104980000E94FEB88938E3E19E0710F088E893E1C1
:10499000B8010E948CB98DC285E40E94032B81115D
:1049A00010C080E50E94BA2A8823B1F00E94872AAD
:1049B00060935B0D70935C0D80935D0D90935E0D25
:1049C0000BC00E94632A882361F30E94742F82E542
:1049D00095E00E94522F6DC289E40E94BA2A882372
:1049E00081F00E94872A2CEA35EC47E25EE30E94C0
:1049F00093CD60935F0D7093600D8093610D9093E4
:104A0000620D84E40E94BA2A882381F00E94872ADA
:104A10002CEA35EC47E25EE30E9458D26093630DC6
:104A20007093640D8093650D9093660D0E94782FAE
:104A300040915B0D50915C0D60915D0D70915E0D2C
:104A40008CE695E00E94BC322CEA35EC47E25EE34E
:104A500060915F0D7091600D8091610D9091620D7C
:104A60000E9458D2AB01BC0188E695E00E94BC329E
:104A70002CEA35EC47E25EE36091630D7091640DC2
:104A80008091650D9091660D0E9493CDAB01BC01A4
:104A900084E695E00E94BC328AE00E944B2F09C256
:104AA00080E50E94BA2A882351F00E94872A6093E9
:104AB0004F0D7093500D8093510D9093520D89E4DA
:104AC0000E94BA2A882381F00E94872A2CEA35ECBA
:104AD00047E25EE30E9493CD6093530D7093540DB3
:104AE0008093550D9093560D84E40E94BA2A882332
:104AF00081F00E94872A2CEA35EC47E25EE30E94AF
:104B000058D26093570D7093580D8093590D909320
:104B10005A0D0E94782F40914F0D5091500D609189
:104B2000510D7091520D88E795E00E94BC322CEA3D
:104B300035EC47E25EE36091530D7091540D809126
:104B4000550D9091560D0E9458D2AB01BC0184E7DF
:104B500095E00E94BC322CEA35EC47E25EE36091BE
:104B6000570D7091580D8091590D90915A0D0E94DA
:104B700093CDAB01BC0180E795E00E94BC328AE096
:104B80000E944B2F96C183E50E94BA2A182F8823D2
:104B900071F00E94872A0E94CAD270932A01609302
:104BA000290121E0672B09F020E02093280880E507
:104BB0000E94BA2A882359F02091290130912A01B4
:104BC000232B11F00E94772A8093280872C11111BB
:104BD00070C10E94782F80912808882319F068EE10
:104BE00071E002C06BEE71E081E995E00E94612FF7
:104BF0006091290170912A0180E895E00E941132AC
:104C00008CE795E00E94522F54C10E94248751C125
:104C10008091C207182F1270082F0470F82FF170BE
:104C2000FF2E80FF04C0112311F0011144C00E9427
:104C3000782F84EC95E00E94522FF11004C082EC92
:104C400095E00E94522F111104C080EC95E00E9463
:104C5000522F011104C08EEB95E00E94522F86EB7B
:104C600095E00E94522F011103C04FEE51E002C0A7
:104C700047E152E0111103C021EF31E002C027E10A
:104C800032E0F11003C083EF91E002C087E192E0CF
:104C90005F934F933F932F939F938F9384EA95E075
:104CA0009F938F931F920E94BB830FB6F894DEBF31
:104CB0000FBECDBFFEC00CEF19E149E754E05F8F96
:104CC0004E8FCE0101965C0195E4892E9AE1992ED2
:104CD0001501F8016591759185919491AE8DBF8D07
:104CE000CD90DD90ED90FD90BF8FAE8FA701960126
:104CF0000E94D4D12B013C01F10160837183828336
:104D0000938320E030E040EA51EC0E9458D387FDC5
:104D10000AC020E030E040EA51E4C301B2010E9441
:104D20002DCD18162CF4F401849118160CF487C3B9
:104D3000D101CD90DD90ED90FD901D0120E030E09F
:104D400040EA51ECC701B6010E9458D387FD0AC062
:104D500020E030E040EA51E4C701B6010E942DCDC9
:104D60001816A4F40E94742F88EE95E00E94522F2A
:104D700061E08AED95E00E94B9B90E941AAB68E241
:104D800070E088EC90E00E948CB993C00C5F1F4FDC
:104D9000BFEF8B1A9B0AEAE108301E0709F099CF92
:104DA00080E9E82E82E0F82E10E0F50181919191E2
:104DB000A191B1915F01F70181939193A193B19377
:104DC0007F01812F0E94576F1F5F133071F70E9480
:104DD0007B7260E08AEC95E00E94B9B963E972E009
:104DE00084E690E00E948CB96AEB72E084E690E081
:104DF0000E948CB95EC00E94374D5BC00E946D72EC
:104E000058C083E50E94BA2A882319F00E94772AA5
:104E100081270E942C734DC081E080939F070E94E0
:104E2000615110929F07882309F443C00E94782F94
:104E300086E096E00E94522F3CC080911B1082FFBA
:104E400038C0806280931B1034C00E94742F81E1AF
:104E500096E00E94522F2DC081E080932B0110928A
:104E6000EE0783E50E94FB83811123C00E94C2B537
:104E700020C00E94EB831DC0009157021091580280
:104E80000023B9F00E94782F84E50E944B2FB801CF
:104E90007727072E000C880B990B0E94F53180E2D2
:104EA0000E944B2F80E296E00E94522F02C00E9487
:104EB000EB83109259020E94B2B5CCC220E030E0E0
:104EC0000C944E1611110C94391D0C94321D0E9435
:104ED0002B300C945B1D0E94532AAB01BC01409304
:104EE0001710509318106093191070931A1089E0DE
:104EF0009EE00E947C64DDCF61E0802F0E94C2BDF5
:104F00006F2D802F0E9493BD6F2D70E0802F0E9427
:104F1000FEBDF4E0EF12CDCFF0921708CACF0E9489
:104F2000872A0E94CAD2623871050CF074C170934E
:104F30002204609321040E941F8D0E94872A20E092
:104F400030E040EA50E40E9458D3181614F40E944E
:104F50003E576091210470912204072E000C880BAB
:104F6000990B0E9434CD2091700D3091710D4091BC
:104F7000720D5091730D0E9458D318161CF483EFD4
:104F800092E002C084EE92E060E00E94B9B981E054
:104F900080930B0118A219A21AA21BA219A61AA685
:104FA0001BA61CA61E8E1DA6ACE3AEA7BCE1BFA728
:104FB000E6E4E8ABC12CD12C80E8E82E9FEBF92E7B
:104FC000812C912C54016091210470912204072EB0
:104FD000000C880B990B0E9434CD162F072F782ECA
:104FE000692E9601A7010E942DCD882349F1C0901A
:104FF000700DD090710DE090720DF090730DA701BF
:105000009601612F702F872D962D0E942DCD881F20
:105010008827881F8E8FF8A5FF23C1F0A70196016E
:10502000612F702F872D962D0E942DCD87FF0DC0EB
:1050300080910B01882309F4EBC00E9419BAE8C0E3
:105040001C2D0D2D7E2C6F2C01C01E8E0E94AABE21
:105050006B017C01DC01CB0129A53AA54BA55CA520
:10506000821B930BA40BB50BB7FD33C0D701C60150
:1050700088519C4FAF4FBF4F89A79AA7ABA7BCA73A
:1050800080E00E94748C80EE92E00E94522F811486
:105090009104A104B104B9F0D501C401805F984D19
:1050A000AF4FBF4FBC01CD016C197D098E099F091F
:1050B00028EE33E040E050E00E9434D1CA01B9014B
:1050C0000E94F53103C08FE30E944B2F8AE00E94BB
:1050D0004B2F0E942B300E94AABE6093AB1170939D
:1050E000AC118093AD119093AE119091700D9CA373
:1050F000A091710DADA3B091720DBEA3E091730D9F
:10510000EFA3292F3A2F4B2F5E2F612F702F872D62
:10511000962D0E94D4D11B012C0120E030E0A90182
:105120000E9458D387FF04C057FA509457F8509400
:1051300081149104A104B10459F420E030E040E866
:105140005FE3C201B1010E942DCD87FF0DC00AC0EF
:1051500020E030E040E450E4C201B1010E9458D3A5
:10516000181614F446015701FE8DFF23A9F128A15A
:1051700039A14AA15BA1211531054105510541F035
:10518000D701C601821B930BA40BB50BB7FD24C03E
:105190002CA13DA14EA15FA16DA57EA58FA598A9CB
:1051A0000E94D4D120E030E040EC5FE30E942DCD9E
:1051B00087FD3ECFD701C601805A9541AF4FBF4F03
:1051C00088A399A3AAA3BBA39CA19DA7ADA1AEA7A9
:1051D000BEA1BFA7EFA1E8AB80910B01882309F422
:1051E00027CF81149104A104B10429F4C12ED02E3B
:1051F000E72CF62CE8CEF0E1CF1AF7E2DF0AE1085F
:10520000F108C818D908EA08FB08F7FE11CFEECF5D
:1052100080910B014ECE62E870E089CE0E945F4B18
:1052200088E50E94BA2A882331F05E9A80918F0225
:105230008E7F80938F0289E50E94BA2A882331F0FD
:105240005E9A80918F028D7F80938F028AE50E9403
:10525000BA2A882309F42DCE159A80918F028B7F6C
:1052600080938F0226CE83E50E94032B882391F042
:105270000E94872A6093140D7093150D8093160D6C
:105280009093170D60931C0D70931D0D80931E0D50
:1052900090931F0D80E50E94032B882351F00E94FC
:1052A000872A6093140D7093150D8093160D9093BB
:1052B000170D82E50E94032B882351F00E94872A54
:1052C0006093180D7093190D80931A0D90931B0D18
:1052D00084E50E94032B882309F4EBCD0E94872AE2
:1052E00060931C0D70931D0D80931E0D90931F0DE8
:1052F000E0CD82E40E94BA2A882351F00E94432A1A
:105300006093F00C7093F10C8093F20C9093F30C7B
:1053100083E50E94BA2A882351F00E94872A60936D
:10532000200D7093210D8093220D9093230D84E521
:105330000E94BA2A882351F00E94872A6093240D84
:105340007093250D8093260D9093270D88E50E947C
:10535000BA2A882351F00E94872A6093EF0770933E
:10536000F0078093F1079093F20789E50E94BA2A2B
:10537000882351F00E94872A6093F3077093F40703
:105380008093F5079093F6078AE50E94BA2A88234E
:1053900051F00E94872A6093F7077093F807809373
:1053A000F9079093FA0785E40E94BA2A882309F442
:1053B00080CD0E94872A6093FB077093FC0780933F
:1053C000FD079093FE0775CD0E94872A20E030E00C
:1053D00040E050EC0E942DCD87FD12C00E94872A2C
:1053E00020E030E040E050E40E9458D318161CF052
:1053F0000E94872A09C060E070E080E090E404C069
:1054000060E070E080E090EC2091FC0C3091FD0CAD
:105410004091FE0C5091FF0C0E9493CD0E94CAD285
:1054200020918F0222FF45CD20916C0D30916D0DA2
:10543000620F731F70936D0D60936C0D3ACDF7FA88
:10544000F094F7F8F094D101CD92DD92ED92FC92B8
:1054500013976ECCE0960FB6F894DEBF0FBECDBFAB
:10546000DF91CF911F910F91FF90EF90DF90CF9040
:10547000BF90AF909F908F907F906F905F904F9074
:105480003F902F90089580917F0290918002009725
:1054900031F04AE050E060E070E00C945CCB60E0FA
:1054A00070E0CB01089580917F0290918002009777
:1054B00031F04AE050E060E070E00C942ECA60E009
:1054C00070E0CB0108950E94532A97FD0CC00E9402
:1054D000532A6F3F71058105910509F034F40E944C
:1054E000532A862F089580E008958FEF08958091C4
:1054F0007F0290918002892B39F00E94632A91E00B
:10550000811103C090E001C091E0892F08950F93AD
:105510001F93CF9380917F02909180020097F1F0CA
:10552000FC018F01C1912C2F2F7D89F0C53411F022
:10553000C536B9F7F801108260E070E00E94D2C869
:10554000F801C083562F472F382F292F0BC060E05A
:1055500070E0CF911F910F910C94D2C850E040E0C1
:1055600030E020E0652F742F832F922FCF911F9171
:105570000F91089581548A3108F042C0E82FF0E07D
:10558000409153025091540260915502709156021D
:1055900004C076956795579547958A95D2F7842FDD
:1055A000817040FF2FC0E05DFD4F9081992309F18C
:1055B000E091D507F091D607E90FF11D908120ED1C
:1055C000290F2A3098F09E3211F491810CC09D323F
:1055D00011F09B3271F4918120ED290F2A3030F0C7
:1055E0009E3239F4928190539A3018F42E2F9F2FC7
:1055F00002C020E090E020937F0290938002089503
:1056000080E0089508950E94BA2A882341F081E03D
:1056100020917F0230918002232B09F480E00895CD
:10562000CF93DF93D62FC72F0E94032B882329F017
:105630000E94532A262F972F02C02D2F9C2F822F96
:10564000DF91CF9108958F929F92AF92BF92CF92A8
:10565000DF92EF92FF92CF93FC01C080D180E28075
:10566000F38020E030E0A901C701B6010E942DCDF2
:1056700087FF08C0C701B601905820E030E04AE734
:1056800054E406C020E030E04AE754E4C701B60124
:105690000E9493CD20E030E040EA50E40E94D5D152
:1056A00020E030E040E251E40E9458D20E94CAD289
:1056B0006B017C01603AF6E87F07F1E08F07910506
:1056C00084F020EA36E841E050E00E94A4D1CA010B
:1056D000B9012AE030E040E050E00E94A4D1605DD2
:1056E00001C060E26093710480E1C81687E2D806C9
:1056F000E104F10494F0C701B60120E137E240E093
:1057000050E00E94A4D1CA01B9012AE030E040E093
:1057100050E00E94A4D1605D01C060E26093720419
:10572000E8EECE16E3E0DE06E104F10494F0C701F2
:10573000B60128EE33E040E050E00E94A4D1CA0157
:10574000B9012AE030E040E050E00E94A4D1605D61
:1057500001C060E260937304C701B60124E630E043
:1057600040E050E00E94A4D18AE0882E912CA12C28
:10577000B12CCA01B901A50194010E94A4D1605DB8
:10578000609374048EE280937504C701B601A5018D
:1057900094010E94A4D1C62FCA01B901A5019401A8
:1057A0000E94A4D1605D60937604C05DC0937704CD
:1057B00081E794E0CF91FF90EF90DF90CF90BF9082
:1057C000AF909F908F9008958F929F92AF92BF92CB
:1057D000CF92DF92EF92FF92CF93FC01C080D180F5
:1057E000E280F38020E030E04AE754E4C701B601EC
:1057F0000E9493CD4B015C0120E030E0A901C7017C
:10580000B6010E942DCD87FD05C060E070E080EA02
:1058100090E404C060E070E080EA90ECA50194019F
:105820000E94D5D120E030E040E251E40E9458D2FD
:105830000E94CAD26B017C0197FF0AC0F094E094E9
:10584000D094C094C11CD11CE11CF11C8DE201C09C
:105850008BE280937104C701B60120E137E240E09A
:1058600050E00E94A4D18AE0882E912CA12CB12C6A
:10587000CA01B901A50194010E94A4D1605D6093A1
:105880007204C701B60128EE33E040E050E00E9408
:10589000A4D1CA01B901A50194010E94A4D1605DFF
:1058A00060937304C701B60124E630E040E050E0A5
:1058B0000E94A4D1CA01B901A50194010E94A4D1FA
:1058C000605D609374048EE280937504C701B60135
:1058D000A50194010E94A4D1C62FCA01B901A50156
:1058E00094010E94A4D1605D60937604C05DC09372
:1058F000770481E794E0CF91FF90EF90DF90CF9015
:10590000BF90AF909F908F9008958F929F92AF928B
:10591000BF92CF92DF92EF92FF92FC01C080D180C4
:10592000E280F38020E030E0A901C701B6010E94C7
:105930002DCD87FF08C0C701B601905820E030E0A8
:1059400040E251E406C020E030E040E251E4C7010B
:10595000B6010E9493CD20E030E040EA50E40E947E
:10596000D5D120E030E040E251E40E9458D20E94BC
:10597000CAD26B017C016031F7E27F078105910596
:1059800084F020E137E240E050E00E94A4D1CA0157
:10599000B9012AE030E040E050E00E94A4D1605D0F
:1059A00001C060E26093730488EEC81683E0D806F5
:1059B000E104F10494F0C701B60128EE33E040E0C1
:1059C00050E00E94A4D1CA01B9012AE030E040E0D1
:1059D00050E00E94A4D1605D01C060E26093740455
:1059E000E4E6CE16D104E104F10494F0C701B60157
:1059F00024E630E040E050E00E94A4D1CA01B901A1
:105A00002AE030E040E050E00E94A4D1605D01C097
:105A100060E260937504FAE0CF16D104E104F1046A
:105A20009CF08AE0882E912CA12CB12CC701B601E4
:105A3000A50194010E94A4D1CA01B901A501940154
:105A40000E94A4D1605D01C060E260937604C7014A
:105A5000B6012AE030E040E050E00E94A4D1605D51
:105A60006093770483E794E0FF90EF90DF90CF900E
:105A7000BF90AF909F908F9008958F929F92AF921A
:105A8000BF92CF92DF92EF92FF92FC01C080D18053
:105A9000E280F38020E030E048EC52E4C701B60138
:105AA0000E9493CD4B015C0120E030E0A901C701C9
:105AB000B6010E942DCD87FD05C060E070E080EA50
:105AC00090E404C060E070E080EA90ECA5019401ED
:105AD0000E94D5D120E030E040E251E40E9458D24B
