:100000000C9451170C947B170C947B170C947B1752
:100010000C947B170C947B170C947B170C947B1718
:100020000C947B170C949E600C947B170C947B179C
:100030000C947B170C94D6760C947B170C947B173E
:100040000C947B170C94D0AE0C941DD70C947B179A
:100050000C94ABBC0C94A1BC0C947B170C947B1738
:100060000C947B170C947B170C947B170C947B17C8
:100070000C947B170C947B170C947B170C947B17B8
:100080000C947B170C947B170C947B17F6B3B5B2CA
:10009000ECB232B4ECB2ECB2ECB2ECB2ECB2ECB228
:1000A000ECB2ECB2ECB2ECB2ECB2ECB2ECB2ECB260
:1000B000ECB2ECB2ECB2ECB2ECB2ECB2ECB2ECB250
:1000C000ECB2ECB2ECB2ECB22CB4ECB2ECB2ECB2FE
:1000D000ECB2ECB2ECB2ECB2ECB205B4ECB2ECB215
:1000E000ECB2ECB2ECB2ECB2ECB2ECB2ECB2ECB220
:1000F00049B4E9B2DDD1E0D1BAD1BDD1C0D1C3D1CB
:10010000CFD1C6D1DBD1C9D1CCD191D594D587D5AA
:100110008BD5ABD5ABD598D59CD5A2D5A6D58CD64D
:1001200091D696D6A0D6CED6CED6AAD6B2D6BAD6A6
:10013000C4D64E414E494E495459494E46CDCCCC79
:100140003D0AD7233C17B7D13877CC2B329595E6AB
:10015000241FB14F0A000020410000C84200401C8B
:100160004620BCBE4CCA1B0E5AAEC59D74434F4DB3
:100170004D554E49434154494F4E004452595255F2
:100180004E004552524F525300494E464F00454390
:10019000484F0020746F6F206C6F6E672065787415
:1001A000727573696F6E2070726576656E746564C2
:1001B0000A0020636F6C6420657874727573696FD0
:1001C0006E2070726576656E7465640A00536C65A6
:1001D00065702E2E2E00436C69636B20746F207245
:1001E0006573756D652E2E2E004E6F206D6F7665D2
:1001F0002E00456E642066696C65206C6973740A14
:1002000000426567696E2066696C65206C6973746D
:100210000A00286E6F2066696C652900437572724A
:10022000656E742066696C653A20005344207072D4
:10023000696E74696E67206279746520004E6F7410
:10024000205344207072696E74696E670A004465B9
:100250006C6574696F6E206661696C65642C2046FC
:10026000696C653A200046696C652064656C65744C
:1002700065643A002569730025696D20256973005E
:100280002569682025696D2025697300256964202A
:100290002569682025696D20256973002569792005
:1002A000256964202569682025696D20256973000A
:1002B0005072696E742074696D653A200045204360
:1002C0006F6F6C696E672E2E2E0045204865617435
:1002D000696E672E2E2E006F6666008E0189018280
:1002E000017B016D0144454255473A004D313133A0
:1002F00020530020573A0042656420636F6F6C6999
:100300006E672E2E2E004265642068656174696EEA
:10031000672E2E2E006F6B0043522D3130204F463A
:10032000462E004D4F54494F4E5F4D4F44455300AC
:10033000544845524D414C5F50524F5445435449E7
:100340004F4E004155544F5245504F52545F534405
:100350005F53544154555300454D455247454E4314
:10036000595F50415253455200434153455F4C49F8
:100370004748545F4252494748544E4553530054EE
:100380004F47474C455F4C494748545300534F46ED
:1003900054574152455F504F574552004255494CC2
:1003A000445F50455243454E54004C4556454C49D8
:1003B0004E475F44415441005A5F50524F424500FE
:1003C0004155544F4C4556454C005052494E545F90
:1003D0004A4F420050524F475245535300415554E3
:1003E0004F5245504F52545F54454D5000564F4C5C
:1003F000554D455452494300454550524F4D0053C9
:10040000455249414C5F584F4E5F584F4646004653
:1004100049524D574152455F4E414D453A4D6172EB
:100420006C696E206275676669782D322E302E7881
:1004300020284769746875622920534F55524345F7
:100440005F434F44455F55524C3A68747470733A39
:100450002F2F6769746875622E636F6D2F4D6172FF
:100460006C696E4669726D776172652F4D61726C51
:10047000696E2050524F544F434F4C5F5645525374
:10048000494F4E3A312E30204D414348494E455F49
:10049000545950453A43522D313020455854525505
:1004A0004445525F434F554E543A312055554944C7
:1004B0003A63656465326132662D343161322D34C0
:1004C0003734382D396231322D6335356336326633
:1004D00033363766660A002F2F20004D3134352021
:1004E000533C696E6465783E206F7574206F66209A
:1004F00072616E67652028302D31290A0020540072
:10050000205200416363656C65726174696F6E3A75
:100510002050004F4646004F4E00205A0020590000
:10052000580020204D61783A2000205A00205900C0
:10053000580020204D696E3A2000536F6674206584
:100540006E6473746F70733A200020466C6F773A54
:10055000200050726F7465637465642050696E0A80
:1005600000496E76616C69642065787472756465A3
:10057000720A0020643A0020693A0020703A002094
:10058000643A0020693A0020703A0043290A006169
:10059000626C656420286D696E2074656D70200042
:1005A000436F6C6420657874727564657320617242
:1005B000652000454550524F4D204F4B0A004E6F6D
:1005C0002063617365206C696768740A00496E7600
:1005D000616C69642065787472756465720A007C68
:1005E0003C3E5E2B3D3F2F5B5D3B2C2A225C00484E
:1005F0006F6D696E67206661696C6564006F706518
:100600006E00545249474745524544003A20007A0B
:100610005F6D696E00795F6D696E00785F6D696E00
:10062000005265706F7274696E6720656E647374D2
:100630006F70207374617475730A00205A3A002039
:10064000593A0020436F756E7420583A0020453A9D
:1006500000205A3A0020593A00583A0000000000A1
:100660000000000000000000000048420000484276
:1006700000008040000000005761726E696E673AAA
:1006800020486F6D696E672042756D7020446976F1
:1006900069736F72203C20310A000202040000A03E
:1006A000400000A040000000400000A04300009671
:1006B000430000C843FFFFFF4D6F766520302E31A9
:1006C0006D6D004D6F766520316D6D004D6F7665F7
:1006D0002031306D6D004D6F766520617869730053
:1006E000486F74656E6420746F6F20636F6C640074
:1006F0004578747275646572004D6F7665205A0096
:100700004D6F76652059004D6F7665205800486F13
:100710006D652025732573257320666972737400D7
:100720002066697273740A005A0059005800486FB5
:100730006D652000496E736572742066696C616D29
:10074000656E7420616E64207072657373206275CB
:1007500074746F6E20286F72204D313038290A0072
:100760004261636B004E65787420636F726E6572D0
:1007700000486F6D696E672058595A0053746F7244
:10078000652073657474696E677300426564004226
:100790006564004E6F7A7A6C65004E6F7A7A6C658C
:1007A0000046616E2073706565640046616E20735B
:1007B0007065656400436F6E666967757261746920
:1007C0006F6E004C6F61642073657474696E67733B
:1007D00000526573746F7265206661696C7361663F
:1007E000650053746F72652073657474696E677306
:1007F00000507265686561742041425320636F6EDA
:1008000066005072656865617420504C4120636FCA
:100810006E6600416476616E63656420536574742E
:10082000696E6773004D61696E004D373032205438
:100830002564004D36303020423020542564004D70
:10084000373032203B2564004D3730312054256449
:10085000004368616E67652066696C616D656E74E2
:10086000005072656865617420437573746F6D0024
:10087000507265686561742041425300507265682A
:1008800065617420504C4100507265686561742048
:10089000437573746F6D004261636B0050757267CE
:1008A00065206D6F726500436F6E74696E756500CB
:1008B000524553554D45204F5054494F4E533A00E1
:1008C0005052494E542050415553454400554E4CCA
:1008D0004F41442046494C414D454E54004C4F41F8
:1008E000442046494C414D454E540020204E6F7ADD
:1008F0007A6C653A20002000486F74656E6420743D
:100900006F6F20636F6C640A0050726573732062AE
:100910007574746F6E20746F20726573756D650ADF
:1009200000496E736572742066696C616D656E74E2
:1009300020616E6420707265737320627574746FC9
:100940006E0A00507265737320627574746F6E2046
:10095000746F2068656174206E6F7A7A6C650A0026
:100960004D3630303A20546F6F20636F6C6400480E
:100970006F74656E6420746F6F20636F6C640A001F
:1009800020496E76616C696420657874727564655F
:1009900072200025753A2530327500253032753ABF
:1009A000253032750025756420253032753A2530A2
:1009B0003275002020202020200020202020001F31
:1009C000E0201020102010102010202010201030C7
:1009D000300840048003001FE03FF03FF03FF01F6D
:1009E000E01FE03FF03FF03FF00FC0078003003F03
:1009F000FFF038007030FC3020FC102078102030E0
:100A0000102C00D02E31D02F7BD02F7BD02E31D088
:100A10002C00D020301020781020FC1030FC303812
:100A200000703FFFF03FFFF03800703186302387C1
:100A3000102787902F87D02F03D0203010207810D8
:100A40002078102030102F03D02F87D027879023B5
:100A500087103186303800703FFFF01FFFF81FFF0E
:100A6000F8041040020820020820041040082080EA
:100A70001041001041000820800410400000001FB9
:100A8000FFF81FFFF80200000000000000600000F7
:100A9000000000FC00000FF00000000007E0000074
:100AA000000001861FC018700000000000603C0CB0
:100AB000000001830C6010300000000000603C0C5E
:100AC000000001830C303030000000000060000C9A
:100AD000000000030C183000000000000060003F20
:100AE0000F3C00030C0C6001DF0FE0FE00601C1CDB
:100AF000061800060C0C6000F318318300600C0C23
:100B00000318001E0C0C6000E030398300600C0CF0
:100B1000033000030C0C6000C030380F00600C0C78
:100B2000033000018C0C6000C03FF8FB00600C0C2F
:100B3000033000018C0C6030C030018300600C0C6D
:100B400001F001818C0C6030C030018300600C0C1E
:100B500000E001818C183030C018318300600C0C2B
:100B600040E001838C301860C00C6187C0E01C0C31
:100B7000C06000C30C600FC3F007C0FFC7FC7F0755
:100B800081C0007E1FC000000000000000000000C7
:100B9000070000000000000000000000000000004E
:100BA0000700000000001FFFFFFFFFFFFF600000C5
:100BB000000001FF400000000000FF800000000076
:100BC000007F83CF00000C303F87FF80000C301F78
:100BD000867980000C000F8C30C7838C30E78C3016
:100BE000CFC7CC31F38C30DCECEC33B98C30D86C23
:100BF0006C33198C30D06C0C33198C30D86C0C33AE
:100C0000198C30DC6C0E3B198C30CF7C079F198C13
:100C100030C77C038F194000000000000260000014
:100C2000000000061FFFFFFFFFFFF82020506C614F
:100C30006E6E657242756666657242797465733A66
:100C400020002046726565204D656D6F72793A20EF
:100C500000436F6D70696C65643A204465632031B0
:100C60003620323031380A00207C20417574686F9C
:100C7000723A2028437265616C6974792043522D61
:100C80003130290A00323031382D30312D323000E8
:100C9000204C61737420557064617465643A20005F
:100CA0006275676669782D322E302E780A004D61A4
:100CB000726C696E0020536F6674776172652052A2
:100CC000657365740A00205761746368646F6720F8
:100CD00052657365740A002042726F776E206F75DB
:100CE000742052657365740A002045787465726ECD
:100CF000616C2052657365740A00506F7765725598
:100D0000700A0073746172740A006175746F2563F0
:100D10002E67006572726F722077726974696E67F0
:100D200020746F2066696C650A00446F6E652073DD
:100D30006176696E672066696C652E0A004D3239EE
:100D400000456E6473746F707320256320256320E3
:100D5000256320256300205A3A0020593A00205884
:100D60003A00656E6473746F7073206869743A201A
:100D70000043616E6E6F74206F70656E20737562D4
:100D8000646972200053442063617264206F6B0AAF
:100D9000006F70656E526F6F74206661696C656478
:100DA0000A00766F6C756D652E696E6974206661D8
:100DB000696C65640A00534420696E697420666139
:100DC000696C0A004D3234004D32332025730057D0
:100DD000726974696E6720746F2066696C653A2069
:100DE000006F70656E206661696C65642C204669D1
:100DF0006C653A20006F70656E206661696C656491
:100E00002C2046696C653A200046696C6520736544
:100E10006C65637465640A002053697A653A200042
:100E200046696C65206F70656E65643A2000667275
:100E300065736800646F696E67002066696C653A67
:100E400020004E6F772000454E4420535542524FAC
:100E50005554494E450A002220706F7300222070BD
:100E60006172656E743A2200535542524F5554498F
:100E70004E452043414C4C207461726765743A22A0
:100E800000747279696E6720746F2063616C6C20E6
:100E90007375622D67636F64652066696C65732086
:100EA0007769746820746F6F206D616E79206C654E
:100EB00076656C732E204D4158206C6576656C20EC
:100EC00069733A310A00454550524F4D20646174B0
:100ED0006173697A65206572726F722E0A00290A41
:100EE000002062797465733B206372632000207375
:100EF000746F7265642073657474696E67732072B1
:100F00006574726965766564202800202863616CC9
:100F100063756C6174656429210A0020213D2000FD
:100F2000454550524F4D20435243206D69736D61CA
:100F3000746368202D202873746F72656429200003
:100F40002053697A653A2000496E6465783A20003A
:100F5000204D61726C696E3D563633290A00284572
:100F60004550524F4D3D00454550524F4D207665FE
:100F70007273696F6E206D69736D617463682000B0
:100F800048617264636F6465642044656661756C72
:100F9000742053657474696E6773204C6F61646567
:100FA000640A00F4010000F40100006400000088FD
:100FB0001300000000FA430000FA430000704100F3
:100FC00000C8410000A0420000A0420000C8430049
:100FD00000BE4220204D36303320002055004C000A
:100FE00046696C616D656E74206C6F61642F756EFF
:100FF0006C6F6164206C656E677468733A0A0020D8
:10100000440020490020204D33303420500020443B
:101010000020490020204D333031205000504944F9
:101020002073657474696E67733A0A002046002065
:10103000420020480020204D3134352053004D61BE
:1010400074657269616C2068656174757020706187
:1010500072616D65746572733A0A00204500205A0A
:101060000020590020580020540020530020204D1B
:1010700032303520420020453C6D61785F655F6A03
:1010800065726B3E0020583C6D61785F785F6A65E1
:10109000726B3E20593C6D61785F795F6A65726B57
:1010A0003E205A3C6D61785F7A5F6A65726B3E00E4
:1010B000416476616E6365643A20423C6D696E5F9F
:1010C0007365676D656E745F74696D655F75733E9A
:1010D00020533C6D696E5F66656564726174653E40
:1010E00020543C6D696E5F74726176656C5F6665F5
:1010F0006564726174653E00205400205200202017
:101100004D323034205000416363656C6572617408
:10111000696F6E2028756E6974732F7332293A20B7
:10112000503C7072696E745F616363656C3E2052FF
:101130003C726574726163745F616363656C3E20C9
:10114000543C74726176656C5F616363656C3E0AE2
:1011500000204500205A0020590020204D32303117
:101160002058004D6178696D756D20416363656C31
:1011700065726174696F6E2028756E6974732F7360
:1011800032293A0A00204500205A00205900202028
:101190004D3230332058004D6178696D756D206691
:1011A00065656472617465732028756E6974732F48
:1011B00073293A0A00204500205A002059002020B7
:1011C0004D39322058005374657073207065722059
:1011D000756E69743A0A0020204D32303020443058
:1011E0000A0020204D3230302044002044697361D1
:1011F000626C65640A0046696C616D656E7420738B
:10120000657474696E67733A0020204D313439205B
:1012100043203B20556E69747320696E2043656CD2
:10122000736975730A0020286D6D290020204732EC
:1012300031202020203B20556E69747320696E2078
:101240006D6D0024F4D43050C38E20C2A2401782AA
:101250008B7011127A910D816CD90AA861E108C7CF
:10126000586607615143061E4B5D05C145A7041A28
:10127000411104093D9803713931034036DB0265A1
:10128000339102D4305402802E1D02632CEE01757E
:101290002AC501B028A001102781018F2564012BE8
:1012A000244B01E0223401AC211F018D200D01806F
:1012B0001FFC00841EED00971DDF00B81CD200E665
:1012C0001BC600201BBC00641AB200B219A8000A99
:1012D00019A0006A189900D117910040178B00B52A
:1012E00016840031167E00B31579003A157300C7D5
:1012F000146F0058146A00EE13660088136300250B
:10130000135E00C7125B006C12570015125400C127
:1013100011510070114F0021114B00D61049008D62
:101320001047004610440002104200C00F400080E9
:101330000F3E00420F3C00060F3B00CB0E380093DF
:101340000E37005C0E3500270E3400F30D3200C15D
:101350000D3100900D3000600D2E00320D2D000576
:101360000D2C00D90C2B00AE0C2900850C29005C3B
:101370000C2700350C27000E0C2600E80B2400C4B7
:101380000B2400A00B23007D0B23005A0B210039F6
:101390000B2100180B2000F80A1F00D90A1E00BB01
:1013A0000A1E009D0A1D00800A1D00630A1C0047DA
:1013B0000A1B002C0A1B00110A1A00F7091A00DD8B
:1013C000091900C4091900AB091900920917007B1B
:1013D000091800630917004C091600360916002089
:1013E0000916000A091500F5081500E0081400CCDC
:1013F000081400B8081400A4081400900813007D15
:101400000812006B08130058081200460812003436
:10141000081100230811001208110001081100F042
:10142000071000E0071000D0071000C0071000B040
:10143000070F00A107100091070E0083070F00742B
:10144000070F0065070E0057070E0049070E003B07
:10145000070D002E070E0020070D0013070D0006D4
:10146000070D00F9060C00ED060D00E0060C00D497
:10147000060C00C8060C00BC060C00B0060C00A44C
:10148000060B0099060C008D060B0082060B0077F8
:10149000060B006C060B0061060A0057060B004C99
:1014A000060A0042060A0038060A002E060A002430
:1014B000060A001A060A001006090007060A00FDBF
:1014C000050900F4050900EB050900E2050900D94A
:1014D000050900D0050900C7050900BE050900B5CA
:1014E000050800AD050800A50509009C0508009445
:1014F0000508008C050800840508007C05080074B8
:101500000508006C050700650508005D0507005625
:101510000508004E0507004705070040050800388C
:10152000050700310507002A050700230507001CF1
:10153000050600160507000F05070008050600024E
:10154000050700FB040600F5040700EE040600E8AA
:10155000040600E2040700DB040600D5040600CF01
:10156000040600C9040600C3040600BD040600B753
:10157000040600B1040500AC040600A6040600A0A1
:101580000405009B04060095040500900406008AEB
:1015900004050085040500800406007A0405007532
:1015A000040500700405006B040500660405006175
:1015B0000405005C04050057040500520405004DB5
:1015C00004050048040500430405003E0404003AF5
:1015D00004050035040500300404002C0405002730
:1015E000040400230405001E0404001A0404001669
:1015F000040500110404000D04040009040500049E
:1016000004040000040400FC030400F8030400F4D4
:10161000030400F0030400EC030400E8030400E406
:10162000030400E0030400DC030400D8030400D436
:10163000030400D0030400CC030400C8030300C566
:1016400003030024F404D9201BC40C5C0E9804C4CA
:10165000095F0265077101F405F900FB04B3004856
:10166000048700C10369005803550003034500BE09
:10167000023A008402310053022A002902250004A4
:10168000022000E4011C00C8011900AF01170098F6
:101690000114008401130071011000610110005158
:1016A000010E0043010D0036010B002B010B002041
:1016B000010B00150109000C01090003010800FBE2
:1016C000000800F3000800EB000700E4000600DE5D
:1016D000000600D8000600D2000600CC000500C7B6
:1016E000000500C2000500BD000400B9000400B5FB
:1016F000000400B1000400AD000400A9000400A52E
:10170000000300A20003009F0004009B0003009858
:101710000003009500020093000300900003008D79
:101720000002008B00030088000200860002008493
:10173000000300810002007F0002007D0002007BA8
:1017400000020079000200770001007600020074B8
:1017500000020072000100710002006F0002006DC3
:101760000001006C0002006A0001006900020067CD
:1017700000010066000100650001006400020062D3
:1017800000010061000100600001005F0002005DD7
:101790000001005C0001005B0001005A00010059DB
:1017A00000010058000100570001005600010055DB
:1017B00000010054000100530000005300010052DA
:1017C00000010051000100500001004F0001004ED7
:1017D0000000004E0001004D0001004C0001004BD4
:1017E0000000004B0001004A0001004900010048D0
:1017F00000000048000100470001004600000046CC
:1018000000010045000000450001004400010043C4
:1018100000000043000100420000004200010041BE
:1018200000000041000100400001003F0000003FB7
:101830000001003E0000003E0001003D0000003DB0
:101840000001003C0000003C0000003C0001003BA7
:101850000000003B0001003A0000003A000100399E
:101860000000003900010038000000380000003896
:10187000000100370000003700010036000000368C
:101880000000003600010035000000350000003582
:101890000001003400000034000000340001003377
:1018A000000000330000003300010032000000326D
:1018B0000000003200010031000000310000003162
:1018C0000001003000000030000000300001002F57
:1018D0000000002F0000002F0000002F0001002E4C
:1018E0000000002E0000002E0001002D0000002D41
:1018F0000000002D0000002D0001002C0000002C35
:101900000000002C0000002C0001002B0000002B28
:101910000000002B0000002B0001002A0000002A1C
:101920000000002A0000002A000100290000002910
:101930000000002900000029000000290001002803
:1019400000000028000000280000002800000028F7
:1019500000010027000000270000002700000027EA
:1019600000000027000100260000002600000026DD
:1019700000000026000000260001002500000025D0
:1019800000000025000000250000002500000025C3
:1019900000010024000000240000002400000024B6
:1019A00000000024000100230000002300000023A9
:1019B000000000230000002300000023000000239B
:1019C000000100220000002200000022000000228E
:1019D0000000002200000022000100210000002180
:1019E0000000002100000021000000210000002173
:1019F0000000002100010020000000200000002065
:101A00000000002000000020000000200000002056
:101A1000000000200001001F0000001F0000001F48
:101A20000000001F0000001F0000001F0000001F3A
:101A30000001001E0000001E0000001E0000001E2D
:101A4000000000043700001E290000511B00005850
:101A500010000010090000CC0400007802000041D2
:101A60000100006265640A002C2073797374656D4F
:101A70002073746F707065642120486561746572AD
:101A80005F49443A20004265642068656174696E6C
:101A900067206661696C65640048656174696E679A
:101AA000206661696C656400453120486561746930
:101AB0006E67206661696C65640048656174696E73
:101AC00067206661696C6564004C6F6164206D6DB0
:101AD000004C6F6164206D6D00556E6C6F61642009
:101AE0006D6D00556E6C6F6164206D6D0046696CA4
:101AF0002E204469612E0046696C2E204469612EB7
:101B0000004F6666004F6E004520696E206D6D5E69
:101B10003300416476616E63656420536574746953
:101B20006E6773005049442D44005049442D4400D1
:101B30005049442D49005049442D49005049442DF5
:101B400050005049442D5000200820466163740025
:101B500020082046616374002008204D6178002031
:101B600008204D6178002008204D696E0020082073
:101B70004D696E004F6666004F6E004175746F745C
:101B8000656D7000416476616E63656420536574B1
:101B900074696E67730023646566696E65204445E9
:101BA0004641554C545F0000626564004B64200060
:101BB0004B6920004B702000504944204175746FE0
:101BC00074756E652066696E69736865642120505E
:101BD000757420746865206C617374204B702C20C0
:101BE0004B6920616E64204B6420636F6E73746177
:101BF0006E74732066726F6D2062656C6F772069FA
:101C00006E746F20436F6E66696775726174696F79
:101C10006E2E680A00504944204175746F74756EC9
:101C200065206661696C6564212074696D656F75F6
:101C3000740A00453120544845524D414C205255BC
:101C40004E415741590042454420544845524D4168
:101C50004C2052554E4157415900546865726D6190
:101C60006C2052756E61776179004531204865615D
:101C700074696E67206661696C6564004265642002
:101C800068656174696E67206661696C65640048A7
:101C9000656174696E67206661696C6564005049AE
:101CA00044204175746F74756E65206661696C655A
:101CB00064212054656D706572617475726520745D
:101CC0006F6F20686967680A00204B643A20002023
:101CD0004B693A2000204B703A20000A20436C6187
:101CE0007373696320504944200A002054753A20D8
:101CF00000204B753A2000206D61783A2000206D5D
:101D0000696E3A200020643A200020626961733ACB
:101D10002000504944204175746F74756E652073BE
:101D2000746172740A00504944204175746F74756F
:101D30006E65206661696C6564212042616420657E
:101D400078747275646572206E756D6265720A00D2
:101D50004572723A207574663820666F6E74206E14
:101D60006F7420696E697469616C697A65642E00AC
:101D70004572723A207574663820666F6E74206EF4
:101D80006F7420696E697469616C697A65642E008C
:101D90004572723A207574663820666F6E74206ED4
:101DA0006F7420696E697469616C697A65642E006C
:101DB00000060C00FE07022603BC017FFE08FE0899
:101DC000FE05080806000040F0C8888898781005CD
:101DD0000808060000C0F88888888888F805050586
:101DE0000600012030F830200508080600002070A9
:101DF000F820202020E00509090600FF2070A8A88F
:101E0000B888887020050606060001E08CEA8C8AF6
:101E10000A0509090600FFF8A88888888888A8F8B4
:101E2000050A0A0600FE205050505088A8A8887065
:101E300003030306000340A040FFFFFFFFFFFFFF77
:101E4000FFFFFFFFFFFFFFFFFFFFFFFFFFFFFF00A1
:101E500000000605FF0107070602008080808080E1
:101E60000080030303060105A0A0A00506060600E6
:101E70000050F85050F8500509090600FF2070A8DE
:101E8000A07028A87020050707060000C8C8102009
:101E900040989805070706000040A0A040A8906859
:101EA0000103030602058080800309090601FF2063
:101EB00040408080804040200309090601FF8040A7
:101EC0004020202040408005070706000020A87021
:101ED0002070A8200505050600012020F82020021A
:101EE00003030601FFC04080050101060003F8025C
:101EF0000202060100C0C005070706000008101016
:101F000020404080050707060000708898A8C88810
:101F10007003070706010040C040404040E005074D
:101F200007060000708808102040F8050707060023
:101F300000F8081030088870050707060000103008
:101F40005090F81010050707060000F880F0080808
:101F50008870050707060000304080F0888870050B
:101F60000707060000F808101020202005070706C4
:101F70000000708888708888700507070600007068
:101F8000888878081060020505060100C0C000C0FE
:101F9000C00206060601FFC0C000C0408003050560
:101FA0000601012040804020050303060002F800DE
:101FB000F80305050601018040204080050707065B
:101FC0000000708810202000200507070600007020
:101FD00088B8A8B88070050707060000708888F8E0
:101FE000888888050707060000F04848704848F0D0
:101FF0000507070600007088808080887005070745
:10200000060000F04848484848F005070706000069
:10201000F88080F08080F8050707060000F88080CF
:10202000F08080800507070600007088808098880F
:1020300070050707060000888888F88888880307E5
:1020400007060100E04040404040E0050707060069
:1020500000381010101090600507070600008890E7
:10206000A0C0A090880507070600008080808080BF
:1020700080F805070706000088D8A88888888805A2
:1020800007070600008888C8A898888805070706FB
:10209000000070888888888870050707060000F0AF
:1020A0008888F0808080050707060000708888888F
:1020B000A89068050707060000F08888F0A09088BF
:1020C00005070706000070888070088870050707FC
:1020D000060000F820202020202005070706000029
:1020E000888888888888700507070600008888889F
:1020F0008850502005070706000088888888A8A80F
:10210000500507070600008888502050888805077A
:1021100007060000888850202020200507070600B9
:1021200000F80810204080F80309090601FFE0804C
:10213000808080808080E0050707060000804040A6
:10214000201010080309090601FFE02020202020AC
:102150002020E00503030600052050880501010644
:1021600000FEF8030303060105804020050505066F
:10217000000070087888780507070600008080F066
:10218000888888F005050506000070808088700545
:10219000070706000008087888888878050505067E
:1021A00000007088F0807005070706000030484086
:1021B000E04040400507070600FE708888887808E0
:1021C000700507070600008080F08888888803076C
:1021D000070601004000C0404040E0040909060134
:1021E000FE10003010101010906005070706000068
:1021F00080808890E09088030707060100C0404077
:10220000404040E0050505060000D0A8A8A8A805A4
:102210000505060000B0C888888805050506000089
:1022200070888888700507070600FEF0888888F0A7
:1022300080800507070600FE7888888878080805EA
:102240000505060000B0C880808005050506000071
:1022500078807008F00507070600002020F820208D
:10226000201805050506000088888898680505057A
:10227000060000888888502005050506000088882B
:10228000A8A85005050506000088502050880507BD
:10229000070600FE88888850204080050505060056
:1022A00000F8102040F80309090601FF20404040D3
:1022B00080404040200109090602FF808080808024
:1022C000808080800309090601FF80404040204053
:1022D00040408005030306000248A890FF556E6B3E
:1022E0006E6F776E20636F6D6D616E643A202200B1
:1022F00020746F6F206C6F6E6720657874727573D1
:10230000696F6E2070726576656E7465640A002070
:10231000636F6C6420657874727573696F6E20707A
:10232000726576656E7465640A0043522D31302003
:1023300052656164792E005072696E74696E672E01
:102340002E2E005072696E74207061757365640082
:102350000000A043000096430000C84300000000B6
:102360000000000000000000290A00206279746566
:10237000733B20637263200053657474696E6773E6
:102380002053746F7265642028005072656865611F
:102390007420504C4120456E640050726568656140
:1023A0007420504C4120426564005072656865613C
:1023B0007420504C410054656D7065726174757283
:1023C0006500507265686561742041425320456E16
:1023D0006400507265686561742041425320426513
:1023E0006400507265686561742041425300546511
:1023F0006D706572617475726500507265686561B3
:102400007420414253005072656865617420504CDD
:102410004100436F6F6C646F776E0046616E20738E
:10242000706565640046616E207370656564004286
:10243000656400426564004E6F7A7A6C65004E6F89
:102440007A7A6C65004D61696E00426162797374DD
:102450006570205A004261627973746570205A0079
:10246000466C6F7700466C6F770046616E20737024
:102470006565640046616E20737065656400426541
:102480006400426564004E6F7A7A6C65004E6F7A24
:102490007A6C65005370656564005370656564000F
:1024A0004D61696E0070012C0190012701B001227D
:1024B00001C0011D01F00118011002130130020ECC
:1024C000016002090190020401C002FF000003FA4A
:1024D000004003F5008003F000D003EB002004E689
:1024E000007004E100E004DC004005D700C005D224
:1024F000004006CD00D006C8008007C3003008BEEB
:1025000000F008B900C009B400B00AAF00B00BAACF
:1025100000D00CA500000EA000500F9B00C010962C
:10252000005012910000148C00C0158700B0178273
:1025300000B0197D00D01B7800001E730040206E93
:102540000090226900F024640040275F0090295A1F
:1025500000E02B5500102E500020304B001032466A
:1025600000E033410090353C0010373700703832BE
:1025700000A0392D00B03A2800A03B2300603C1E8B
:1025800000103D1900903D1400103E0F00703E0AEF
:1025900000C03E0500003F0000403FFBFF803FF6CB
:1025A000FFC03FF1FF202D20496E76616C696420E9
:1025B0006578747275646572206E756D62657220DF
:1025C000210A001000C90210012C014001220170F3
:1025D000011801B0010E01F00104015002FA00B02F
:1025E00002F0003003E600D003DC009004D200705B
:1025F00005C800A006BE000008B400B009AA00D0BB
:102600000BA000600E960060118C00001582002067
:10261000197800C01D6E00A0226400B0275A0090F7
:102620002C500000314600E0343C0010383200905D
:102630003A2800603C1E00A03D1400803E0A0020A5
:102640003F0000453120544845524D414C205255E1
:102650004E415741590042454420544845524D414E
:102660004C2052554E4157415900546865726D6176
:102670006C2052756E617761790045312045727228
:102680003A204D415854454D50004572723A204D04
:10269000415854454D5020424544004D4158544501
:1026A0004D5020747269676765726564004531201A
:1026B0004572723A204D494E54454D500045727254
:1026C0003A204D494E54454D5020424544004D4915
:1026D0004E54454D50207472696767657265640099
:1026E0004D383420582059205A204500202F0020F2
:1026F00042403A0020403A0020573A004572726F3B
:10270000722077726974696E6720746F2045455036
:10271000524F4D210A000F150E1216170E13030209
:102720001A1401000E0C190DFF180C04000162753B
:1027300073793A2070617573656420666F722069E1
:102740006E7075740A00627573793A2070617573E2
:10275000656420666F7220757365720A0062757316
:10276000793A2070726F63657373696E670A004B04
:10277000494C4C2063617573656420627920746FE5
:102780006F206D75636820696E616374697665207A
:1027900074696D65202D2063757272656E74206397
:1027A0006F6D6D616E643A2000506C6561736520D9
:1027B0007265736574005052494E54455220484129
:1027C0004C544544004B494C4C45442E200050721B
:1027D000696E7465722068616C7465642E206B6923
:1027E0006C6C28292063616C6C6564210A00656348
:1027F000686F3A004572726F723A0056652D6A65CD
:10280000726B0056652D6A65726B00567A2D6A658B
:10281000726B00567A2D6A65726B0056792D6A6567
:10282000726B0056792D6A65726B0056782D6A6559
:10283000726B0056782D6A65726B00416476616E2A
:102840006365642053657474696E677300457374BF
:102850006570732F6D6D004573746570732F6D6DAA
:10286000005A73746570732F6D6D005A73746570C0
:10287000732F6D6D005973746570732F6D6D0059F2
:1028800073746570732F6D6D005873746570732F5A
:102890006D6D005873746570732F6D6D00416476B3
:1028A000616E6365642053657474696E6773004973
:1028B0006E697469616C697A6520454550524F4D67
:1028C00000416476616E6365642053657474696E5B
:1028D000677300496E697469616C697A6520454562
:1028E00050524F4D0046696C616D656E74005465C1
:1028F0006D70657261747572650053746570732FC5
:102900006D6D004A65726B00416363656C65726151
:1029100074696F6E0056656C6F6369747900436FFC
:102920006E66696775726174696F6E005654726184
:1029300076206D696E005654726176206D696E0066
:10294000566D696E00566D696E00566D6178204552
:1029500000566D6178204500566D6178205A00560A
:102960006D6178205A00566D6178205900566D616E
:1029700078205900566D6178205800566D61782096
:102980005800416476616E636564205365747469B0
:102990006E677300416D6178204500416D6178205C
:1029A0004500416D6178205A00416D6178205A00E0
:1029B000416D6178205900416D6178205900416D69
:1029C0006178205800416D6178205800412D747263
:1029D0006176656C00412D74726176656C00412DE5
:1029E0007265747261637400412D72657472616303
:1029F0007400416363656C00416363656C0041640E
:102A000076616E6365642053657474696E677300E4
:102A10004D6F76652058004D6F76652059004D6FDB
:102A20007665205A00457874727564657200457841
:102A3000747275646572004D6F7665205A004D6F33
:102A400076652059004D6F76652058004D6F74698A
:102A50006F6E004732380044697361626C652073A1
:102A600074657070657273004D3834004C6576651E
:102A70006C20636F726E657273004175746F2068AD
:102A80006F6D6500473238004D6F7665206178695B
:102A900073004D61696E0043616E6E6F7420656EE8
:102AA000746572207375626469723A2000022E2E7A
:102AB000000152656672657368004D61696E006F52
:102AC00070656E206661696C65642C2046696C6572
:102AD0003A2000746F2073746172740066696C61CF
:102AE0006D656E74206368616E6765005761697417
:102AF00020666F720066696C616D656E7420756E1C
:102B00006C6F6164005761697420666F7200506C6D
:102B10006561736520776169742E2E2E004E6F7A81
:102B20007A6C652068656174696E6700746F2068EF
:102B3000656174206E6F7A7A6C650050726573738C
:102B400020627574746F6E00746F20636F6E7469A9
:102B50006E756500616E64207072657373206275B6
:102B600074746F6E00496E736572742066696C616F
:102B70006D656E740066696C616D656E74206C6F56
:102B80006164005761697420666F7200746F20720F
:102B90006573756D65207072696E7400507265732F
:102BA0007320627574746F6E00746F207265737534
:102BB0006D652E2E2E005761697420666F7220702D
:102BC00072696E740066696C616D656E74207075F3
:102BD000726765005761697420666F72004D323507
:102BE000004D3234005072696E742061626F7274ED
:102BF0006564004368616E67652066696C616D6538
:102C00006E74004D36303020423000436F6E66697E
:102C10006775726174696F6E0054656D706572617D
:102C200074757265004D6F74696F6E0054756E65D2
:102C300000496E69742E2053442063617264004D14
:102C40003231004E6F205344206361726400436848
:102C5000616E67652053442063617264004D3231B8
:102C6000005072696E742066726F6D205344005379
:102C7000746F70207072696E7400526573756D6543
:102C8000207072696E74004368616E6765206669C2
:102C90006C616D656E74005061757365207072694A
:102CA0006E7400496E666F2073637265656E0043D3
:102CB00061703A00656E7175657565696E67202291
:102CC000006F6B00526573656E643A200053544F79
:102CD000505045442E20005072696E746572207306
:102CE000746F707065642064756520746F20657200
:102CF000726F72732E204669782074686520657241
:102D0000726F7220616E6420757365204D39393998
:102D100020746F20726573746172742E202854655C
:102D20006D70657261747572652069732072657368
:102D300065742E2053657420697420616674657211
:102D40002072657374617274696E67290A004E6F30
:102D500020436865636B73756D2077697468206CB8
:102D6000696E65206E756D6265722C204C6173749E
:102D7000204C696E653A20004E6F20436865636B96
:102D800073756D2077697468206C696E65206E7547
:102D90006D6265722C204C617374204C696E653ACB
:102DA0002000636865636B73756D206D69736D6179
:102DB0007463682C204C617374204C696E653A20F2
:102DC000004C696E65204E756D62657220697320D6
:102DD0006E6F74204C617374204C696E65204E7563
:102DE0006D6265722B312C204C617374204C696EBE
:102DF000653A20004D313130004D333100534420CD
:102E000072656164206572726F720A00446F6E654C
:102E1000207072696E74696E672066696C650A005D
:102E200000002100240027002A00000022002500C5
:102E300028002B00000020002300260029000202A9
:102E40000202020202020404040404040404030350
:102E50000303030303030101010101010101010255
:102E60000408102040800102040810204080010264
:102E70000408102040808040201008040201000057
:102E80000001020000000000000004030807000029
:102E9000000000000000000000000000000062DFF1
:102EA0001ADF11241FBECFEFD0E4DEBFCDBF12E08A
:102EB000A0E0B1E0E2EDF7ED01E00BBF02C007904A
:102EC0000D92AE33B107D9F72BE3AEE3B2E001C008
:102ED0001D92A23AB207E1F717E1C0E5D7E104C0BD
:102EE0002197FE010E9437E9CF34D107C9F70E942C
:102EF000E1D90C94DCEB0C9400002F923F924F929E
:102F00005F926F927F928F929F92AF92BF92CF9279
:102F1000DF92EF92FF920F931F93CF93DF93CDB782
:102F2000DEB7C154D1090FB6F894DEBF0FBECDBFD6
:102F30000091E90620E6029F8001112407591A4FEB
:102F400080917B3680FF05C00E940EB8C8010E94A8
:102F500080BC10926C0210926B028FE380936E0221
:102F60001092660210926502109261021092620243
:102F70001092630210926402C8018C01DC012C9152
:102F800001962032D1F32E34D9F411968C9190ED24
:102F9000980F9A3020F08D3211F08B3289F4F801BD
:102FA00032969F012F5F3F4F808180538A3010F40B
:102FB000F901F7CF8F013196D8018C918032D1F38E
:102FC00010935B3100935A317801BFEFEB1AFB0A83
:102FD000F80170806AE270E0C7010E9499EB0097E7
:102FE00031F0FC01319780818032E1F31182FDE400
:102FF0007F1631F024E5721619F037E47312F0C031
:10300000F70180814FEFE41AF40A8032C9F380534C
:103010008A3008F0E5C070926E0280E090E06AE0CD
:103020003196DF0111972C91022E000C330B2053A7
:103030003109689FA001699F500D1124C901840FB7
:10304000951F208120532A3058F390936602809375
:1030500065029F01D9012F5F3F4F4C914032D1F360
:103060005DE475121AC08E31910591F03CF4873100
:10307000910571F08C31910581F40AC08537910575
:1030800064F08737910524F0803AE3E09E0729F445
:10309000B0936C02A0936B02A3C0C12CD12C76011B
:1030A00040E050E0812C912C54018394FD01319635
:1030B0006C9161110DC050936C0240936B02C092F1
:1030C0006102D0926202E0926302F092640288C0D0
:1030D0006132E9F42DE472121AC080329105B9F41C
:1030E000C0926102D0926202E0926302F0926402A6
:1030F000F0936C02E0936B0263E270E0CF010E94F8
:1031000099EB009709F46CC0DC011C9269C0615412
:103110006A3108F042C09F01F90170812F5F3F4F73
:103120007032D1F320ED270F2A30E8F07E3211F40F
:1031300021810CC07D3211F07B3259F4218130EDB8
:10314000320F3A3080F02E3221F4228120532A307F
:1031500050F04115510511F00C94DB28AF0141509E
:1031600051090C94DB289F01A62FB0E01401250122
:1031700004C0220C331C441C551C6A95D2F7C2288B
:10318000D328E428F5282115310511F0201B01C0B2
:1031900020E0A25CBD4F2C9304C04115510509F4F9
:1031A000AD01208121542A3110F4DF017FCF9F012E
:1031B000F901D9016D916623C1F370ED760F7A3074
:1031C00010F49D01F5CF73ED760F7230D0F36B32B2
:1031D000C1F3F9012F5F3F4F60816032D1F3E5CF3A
:1031E00021E02093E00480916E028D3409F4CFC277
:1031F000843511F40C94B928873411F00C94D42838
:1032000080916502909166028B31910509F441C26B
:103210004CF497FDB8C2823091052CF1049709F463
:10322000F9C1B1C28A35910509F45CC244F44C97E6
:1032300009F0A9C280E00E940E4E0C94D6288B356E
:10324000910509F453C28C35910509F09CC27EE4C6
:10325000272E71E0372EE3EFEE2EE4E0FE2E00E0A5
:10326000D12C10E06CC280912701882311F40C94BA
:10327000D628FEE4CF2EF1E0DF2EA3EEEA2EA4E066
:10328000FA2E03EF14E0B7E6AB2EB2E0BB2EF60148
:1032900081916F010E94694D8823C1F00E94364DD3
:1032A000D5012C91211104C020916D02222339F007
:1032B000F80120813181428153810E9449E9D7017F
:1032C0006D937D938D939C9313970AC0F801808131
:1032D0009181A281B381F70180839183A283B3831B
:1032E000F4E0EF0EF11C0C5F1F4F2FEFA21AB20A91
:1032F00032E5C31631E0D30651F640E050E0BA01A2
:1033000086E40E94E88820E030E0A9010E94CCEA2F
:10331000181684F40E94364D20E030E040E752E475
:103320000E94CCE960930501709306018093070128
:103330009093080180914D01882309F4B4C0C09096
:10334000CF36D090D036E090D136F090D236209162
:10335000E3043091E4044091E5045091E604C70190
:10336000B6010E94CCEA181644F4C092E304D0924D
:10337000E404E092E504F092E604C090D336D090E5
:10338000D436E090D536F090D6362091E7043091CF
:10339000E8044091E9045091EA04C701B6010E9493
:1033A000CCEA181644F4C092E704D092E804E09204
:1033B000E904F092EA04C0902F01D0903001E0902F
:1033C0003101F09032012091E3043091E404409106
:1033D000E5045091E604C701B6010E94A1E487FF0D
:1033E00008C0C092E304D092E404E092E504F092B5
:1033F000E604C0903301D0903401E0903501F090A4
:1034000036012091E7043091E8044091E90450919D
:10341000EA04C701B6010E94A1E487FF08C0C09278
:10342000E704D092E804E092E904F092EA04C09044
:10343000D736D090D836E090D936F090DA36209151
:10344000EB043091EC044091ED045091EE04C7017F
:10345000B6010E94CCEA181644F4C092EB04D09254
:10346000EC04E092ED04F092EE04C0903701D090AD
:103470003801E0903901F0903A012091EB0430914D
:10348000EC044091ED045091EE04C701B6010E9496
:10349000A1E487FF08C0C092EB04D092EC04E09254
:1034A000ED04F092EE0480917B3683FD7DC0C090E8
:1034B000EF04D090F004E090F104F090F204209139
:1034C000FF04309100054091010550910205C701AC
:1034D000B6010E94A1E4882309F466C08091C4313A
:1034E00081111FC06091C5317091C6318091C73183
:1034F0009091C8310E943EEA20912D0130912E0119
:103500006217730774F4C092FF04D0920005E09232
:103510000105F09202050E940EB882EB91E00E9434
:10352000E8B78090EF049090F004A090F104B09080
:10353000F2042091FF043091000540910105509163
:103540000205C501B4010E9448E96B017C0120E03D
:1035500030E0A9010E94CCEA87FF04C0F7FAF0949A
:10356000F7F8F0942091290130912A0140912B0124
:1035700050912C01C701B6010E9407E520E030E020
:103580004AE754E40E94CCEA181674F48092FF04CF
:1035900090920005A0920105B09202050E940EB81B
:1035A00083E991E00E94E8B76091170170911801DA
:1035B000072E000C880B990B0E94A8E420910501AE
:1035C0003091060140910701509108010E9407E5E2
:1035D0002AE037ED43E25CE30E9407E569837A83E2
:1035E0008B839C838E010F5F1F4F2FEE34E04BEED9
:1035F00054E067EE74E083EE94E00E94129B80E159
:10360000E3EEF4E0A3EFB4E001900D928A95E1F7C8
:103610000C94D62880E50E94B24D882329F00E94A0
:10362000F24C6B017C0103C0C12CD12C760183E5E7
:103630000E94B24D882361F00E94364D20E030E0B8
:103640004AE754E40E9407E50E9445EA6B017C01C9
:103650000E94673680915D31811105C060E08DEC7C
:1036600091E00E9478A40E9411D7C60ED71EE81ED2
:10367000F91E0E9411D7DC01CB018C199D09AE09FE
:10368000BF09B7FD02C00C94D62880E00E94C1B8E3
:10369000F0CF0E94444181110C94D62880E090E044
:1036A000A0E2B1E489839A83AB83BC8380E090E09D
:1036B000A1E9B3E48D839E83AF83B88780E090E077
:1036C000A0EAB1E489879A87AB87BC8760E070E0A5
:1036D00080E50E94E84DBE016F5F7F4F0E949FA072
:1036E0000C94D62810926D020C94D62820936D026B
:1036F0000C94D6280E94364D2B013C01F701208105
:103700003181428153810E9448E94B015C012DEBDC
:1037100037E346E855EB0E94CCEA87FD18C02DEB55
:1037200037E346E855E3C501B4010E94A1E4181649
:1037300074F01F5FB4E0EB0EF11C1430A9F0D1015E
:103740008D911D010E94B24D882399F3D3CF133080
:1037500011F401E002C0DD24D394D7014D925D92B3
:103760006D927C921397E5CFDD2019F00E94003C0A
:1037700006C0002321F08FEF94E00E9478360E946B
:10378000423C0C94D6280E94F09B0C94D628809141
:103790006502909166028337910509F4F2C60CF038
:1037A000E9C08B34910509F465C40CF08CC08831F4
:1037B000910509F45FC20CF059C08231910509F4FA
:1037C00008C6BCF497FF02C00C94B628823091055D
:1037D0000CF4BEC1419711F00C94B62860E089EE5C
:1037E00091E00E9478A45E985E9815985E980C947B
:1037F000D6288531910509F423C254F5449711F078
:103800000C94B62881E092E00E94E8B710925E071F
:1038100086EE97E30E94332F8BE1E6EEF7E3DE01BD
:10382000119601900D928A95E1F740E050E0BE01BB
:103830006F5F7F4F80E090E00E942164CE0101968F
:103840000E944D3282EF91E00E94E8B70C94D62896
:103850008631910509F4F8C1479711F00C94B62808
:1038600080916B0290916C02FC01FBC18D3191053E
:1038700011F40C94D628C4F48A31910509F425C2B8
:103880000CF41FC28B31910509F42DC24C9711F035
:103890000C94B62840E060E080916B0290916C023D
:1038A0000E9492680C94D6288F31910509F415C3B3
:1038B0000CF46EC28032910509F4CAC28A9709F4E9
:1038C000B7C30C94B6288936910509F40CC544F5A4
:1038D0008335910509F47AC59CF48D34910509F47A
:1038E000D1C30CF4CBC38135910509F45BC5823596
:1038F000910511F00C94B62810926A020C94D62807
:103900008535910509F498C50CF463C58C3591058E
:1039100009F4ABC58836910509F4B8C30C94B628F0
:103920008E36910509F433C484F48B36910509F47D
:103930002BC50CF411C58C36910509F481C48D3664
:10394000910509F4C7C30C94B6288037910509F492
:103950007CC40CF42FC48137910509F47AC48237F2
:10396000910511F00C94B6280E9467360E94423CE3
:103970000C94D628823E910511F40C9454250CF039
:1039800069C08B39910509F4C1C4ACF5883791053C
:1039900009F487C6A4F48637910509F44CC60CF0E7
:1039A0007DC68537910511F00C94B62860E08091B2
:1039B0006B0290916C020E94B4A40C94D6288D37AF
:1039C000910509F4ECC46CF48937910511F00C945D
:1039D000B62810926605109265050E94423D0C942F
:1039E000D6288C38910509F454C48139910509F41D
:1039F0005FC60C94B6288C3C910509F443C7ACF41F
:103A0000883C910509F4AFC634F48E3B910509F466
:103A10005AC40C94B628893C910509F4F1C68B3C34
:103A2000910509F410C70C94B628833D910509F45B
:103A30006AC734F48D3C910509F455C70C94B62837
:103A40008C3D910509F4CDC78D3D910509F4D6C78C
:103A50000C94B628843FE1E09E0711F40C94FF26F5
:103A60000CF03FC08F3221E0920711F40C94F9263C
:103A7000DCF48C3241E0940711F40C94AB253CF457
:103A80008232914011F40C94A0250C94B6288D320A
:103A9000B1E09B0711F40C94C0258E32914011F4D3
:103AA0000C94B7260C94B6288336F1E09F0711F4E6
:103AB0000C94A2283CF48033914011F40C944426D9
:103AC0000C94B628803941E0940711F40C94FC263C
:103AD0008A39914011F00C94B6280E9449B70C9491
:103AE000D6288C30A2E09A0711F40C942527B4F460
:103AF000863FE1E09E0711F40C94052714F40C9422
:103B00000227873F21E0920711F40C940827883F91
:103B1000914011F40C9414270C94B6288B3542E094
:103B2000940711F40C9428283CF48835924011F441
:103B30000C942D270C94B628803AB3E09B0709F427
:103B4000BCC1873E934011F40C94A9280C94B6286C
:103B5000A0906B02B0906C0280E50E94B24D882369
:103B600059F00E94F24C6B017C0111E0672B682B2D
:103B7000692B31F410E004C010E0C12CD12C760187
:103B800083E50E94B24D882311F40C94DF280E9433
:103B9000364D20E030E04AE754E40E9407E50E94F9
:103BA00045EA6B017C0111110BC0672B682B692B57
:103BB00039F4A114B10421F0D5018C91811102C016
:103BC00010E001C011E00E946736112329F061E086
:103BD000C5010E94B4A405C060E086ED91E00E949A
:103BE00078A483E08093E00481E08093DF04C11433
:103BF000D104E104F104B1F00E9411D7C60ED71E22
:103C0000E81EF91E0E9411D7DC01CB018C199D0919
:103C1000AE09BF09B7FF0EC08091DF0481110C947B
:103C2000E42808C08091DF04882321F080E00E940E
:103C3000C1B8F8CF0E94DCA41092DF040C94D628FF
:103C40000E9473670C94D6280E94A76380919F39C5
:103C5000877F80939F390C94D628203209F41082F4
:103C6000319620812111F9CF40E061E00E949268F5
:103C70000C94D62880E090E0A8E4B2E489839A838B
:103C8000AB83BC831C8E1D8E1E8E1F8E18A219A2A4
:103C90001AA21BA28091E204882359F020E0AE0111
:103CA0004F5F5F4FBE01645E7F4FCE0180960E94E2
:103CB000C13F0E94B8630E9451A00E94DCA40C94F2
:103CC000D6280E9494560C94D62880919F3983FD63
:103CD00002C00C94D62883E50E94B24D81110C9449
:103CE000E9280C94D62883E40E94694D882319F1B1
:103CF0008CE192E00E94E8B780919037882391F0A0
:103D0000BE016F5F7F4F8DE897E30E94DD318E012A
:103D10000F5F1F4FF80181918F01882339F00E94B6
:103D2000E1B7F8CF82E192E00E94E8B78AE00E9412
:103D3000E1B70C94D62880919F3983FF23C082FF7E
:103D400021C08BE292E00E94E8B760919B397091AC
:103D50009C3980919D3990919E394AE00E944DBBDB
:103D60008FE20E94E1B76091973970919839809104
:103D7000993990919A394AE00E944DBB0E947ABCD1
:103D80000C94D6288DE392E00E94E8B70C94D628D4
:103D900080919F3983FD02C00C94D6280E94D99B44
:103DA00060916B0270916C0280919F3983FD02C01B
:103DB0000C94D628CE014C960E94D6CC8C0100974C
:103DC00011F40C94D6286C8D7D8D19821C8222E012
:103DD000AC01CE0101960E944234811102C0F12C47
:103DE00014C0CE0101960E9444CC8823C1F361E047
:103DF000CE0101960E94C131009789F325EEDC01C6
:103E00002C931C820E94562CF82ECE0101960E9403
:103E10004D32B801FF2099F086E692E00E94F7B794
:103E20008AE00E94E1B710929B3910929C3910925F
:103E30009D3910929E390E9424660C94D6288EE4F7
:103E400092E00E94F7B78EE20E94E1B70C94D62868
:103E500080919F3982FD0E94673680919F3983FD52
:103E600002C00C94D62880E50E94009C182F482F91
:103E700061E080916B0290916C020E94926883E5F0
:103E80000E94B24D882381F00E94024DAB01BC011B
:103E900040939B3950939C3960939D3970939E3920
:103EA0008DE897E30E949C2E0E94B86311110C9438
:103EB000D6280E9451A00C94D62820916B023091F4
:103EC0006C0290919F39926090939F3940E060E03E
:103ED000C9010E9492680C94D6280E9402A07B011E
:103EE0008C0120E831E541E050E00E94A8E8C901DA
:103EF0006DE671E00E94F0E84B015C01C801B7017A
:103F000020E13EE040E050E00E94A8E8CA01B9018B
:103F100028E130E040E050E00E94A8E8762E672ECD
:103F2000C62ED72E6CE3262E312C412C512CC801E5
:103F3000B701A20191010E94A8E8F62EE72ECA015E
:103F4000B901A20191010E94A8E8CB018E010F5F87
:103F50001F4F8114910499F0EF92FF927F936F931A
:103F60006F927F92BF92AF929F928F928CE992E074
:103F70009F938F931F930F930E9439E413C0A11452
:103F8000B104B1F0EF92FF927F936F936F927F92A3
:103F9000BF92AF928CE892E09F938F931F930F9301
:103FA0000E9439E40FB6F894DEBF0FBECDBF30C01B
:103FB000CD2879F0EF92FF927F936F936F927F926B
:103FC00080E892E09F938F931F930F930E9439E4B0
:103FD000E9CF892B69F0EF92FF927F936F9388E787
:103FE00092E09F938F931F930F930E9439E4DACF4F
:103FF000EF92FF9284E792E09F938F931F930F932A
:104000000E9439E40F900F900F900F900F900F9037
:1040100060E0C8010E94B4A40E940EB8B80180EB11
:1040200092E00E94F7B78AE00E94E1B70C94D6288C
:1040300083E50E94B24D882311F40C94D6280E9487
:10404000124DF82E6FEF7FEF80E50E94FB4D8C0143
:1040500097FF02C00C94D628E82E89E40E94009CA9
:1040600081110C94FA28802F0E943DDF811139C5FF
:104070000C94FA280E9451A00C94D6280E9475A096
:104080000C94D6280E948AA00C94D62880917B3666
:1040900083FF02C00C94D6280E94BF4D87FF02C048
:1040A0000C94D62883E50E94B24D882379F00E94B3
:1040B000364D0E943EEA8B01CB010E94BCB0063512
:1040C000110524F40E948AA00E94DCA40E9467D7F4
:1040D0000C94D62880917B3683FF02C00C94D6289E
:1040E0000E94BF4DF82E87FF02C00C94D62883E5AE
:1040F0000E94B24D082F811106C082E50E94B24D88
:10410000182F8823C1F10E94364D0E943EEACB0150
:104110000E94BCB00E94364D20E030E04AEA52E4F2
:104120000E94A1E4181614F40C940D290E948AA090
:104130000E94DCA46091263770912737072E000C6F
:10414000880B990B0E94A8E44B015C014090C5319B
:104150005090C6316090C7317090C831A301920170
:104160000E94CCEA181614F40C942029002311F4B0
:104170000C94112911E00E9467D7112311F40C94BB
:10418000D628602F8F2D0E94BDAB0C94D6288EE4CC
:104190000E94B24D882311F40C94D6280E94024D3F
:1041A0006093263B7093273B8093283B9093293B59
:1041B0000C94D62883E50E94694D882359F083E545
:1041C0000E94B24D882319F00E94124D01C080E078
:1041D00080937B360E940EB885EE92E00E94E8B78D
:1041E00080917B36882349F15BEDE52E52E0F52E78
:1041F00000E010E020E080917B3690E0002E02C0CD
:10420000959587950A94E2F780FF0EC0DD24D3943C
:10421000D20E222319F08CE20E94E1B7F7018591BA
:1042200094910E94E8B72D2D0F5F1F4F92E0E90E89
:10423000F11C05301105F9F679CD87ED92E074CDCA
:104240001092DF0410922201B1C780E090E00E943A
:1042500012B883E50E94B24D882361F00E94124D8E
:104260008093000190E0CD970CF4A0C78CE380937D
:1042700000019CC70E940EB84091000150E060E030
:1042800070E08CEE92E00E94BABB8AE00E94E1B737
:104290008DC780917B3683FD89C783E50E94B24D2F
:1042A000882309F483C70E94364D0E943EEA68378E
:1042B000710514F068E770E070937A0260937902F8
:1042C0000E941EB073C780917B3683FD6FC783E564
:1042D0000E94B24D89AF8111B6C782E50E94B24DEE
:1042E0008111B1C763C70E94BF4D182F87FD0AC057
:1042F00085E193E00E94E8B7812F0E944AAB8AE0F3
:104300000E94E1B71092E0040C94C02B83E50E9458
:10431000B24D882309F44AC70E94124D182F90E02D
:10432000CD970CF01CE310935C020E9411D76B0137
:104330007C01212F30E0A8EEB3E00E94D5E8C60E44
:10434000D71EE81EF91EC0925802D0925902E09280
:104350005A02F0925B022AC780E50E94B24D882380
:1043600021F00E94124D182F01C010E06FEF70E095
:1043700083E50E94E84D111119C78F3F910508F0A0
:104380008FEF8093B33112C760E070E080E50E9448
:10439000E84D892B09F00AC71092B33107C70E9474
:1043A000945604C70E94C3B00E948AA00E94263976
:1043B0000E94A1B768EE73E080E090E00E943F5554
:1043C00060E088E193E00E9478A4F0C620936A023E
:1043D000EDC683E50E94B24D882399F00E94364DC8
:1043E00020E030E04AE754E40E9407E50E9445EAF5
:1043F0006093010170930201809303019093040183
:10440000D5C688E50E94694D81110C94AF2A89E5D3
:104410000E94694D81110C94AF2A8AE50E94694D72
:1044200081110C94AF2A85E40E94694D81110C948E
:10443000AF2A0E942639BAC683E50E94694D8823B7
:1044400009F4B4C60E94364D20E030E04AE754E457
:104450000E9407E50E9445EA60935D0270935E0248
:1044600080935F0290936002A1C60E94BF4D87FDBA
:104470009DC69EE4C92E91E0D92E2CE7E22E26E3BC
:10448000F22E10E0D6018D916D010E94694D8823B6
:1044900009F46DC0133009F063C00E94364D4B0122
:1044A0005C0120E030E040EA51E40E94A1E487FF93
:1044B0004EC0A501940160919C3670919D3680910B
:1044C0009E3690919F360E94CCE92B013C019B01C6
:1044D000AC016091973170919831809199319091B0
:1044E0009A310E9407E560939731709398318093D9
:1044F000993190939A31A30192016091AC367091F9
:10450000AD368091AE369091AF360E9407E560934C
:10451000AC367093AD368093AE369093AF366091E3
:10452000A7317091A8318091A9319091AA310E9450
:10453000A6E4A30192010E9407E50E9445EA609368
:10454000A7317093A8318093A9319093AA318092BA
:104550009C3690929D36A0929E36B0929F3607C0B0
:104560000E94364DF701648B758B868B978B1F5F8E
:10457000F4E0EF0EF11C143009F084CF0E94923762
:1045800015C68FE094E00E94E8B760E08FEF93E0FB
:104590000E9463D561E088EF93E00E9463D561E0FB
:1045A0008DEE93E00E9463D561E08DED93E00E9473
:1045B00063D560E084ED93E00E9463D561E08AEC0E
:1045C00093E00E9463D560E080EC93E00E9463D5A5
:1045D00060E088EB93E00E9463D560E08AEA93E0B4
:1045E0000E9463D560E08CE993E00E9463D560E0AF
:1045F0008DE893E00E9463D560E08FE793E00E942E
:1046000063D560E089E693E00E9463D560E088E5C9
:1046100093E00E9463D560E083E493E00E9463D559
:1046200061E080E393E00E9463D560E083E293E081
:104630000E9463D5BBC500916B0210916C0283E0B0
:10464000F12C40E08150E9F0D8019C91292F2B7F7B
:104650002134C1F711962C912133A1F7913421F027
:10466000953421F441E002C0FF24F39498012E5FB9
:104670003F4F89012F5F3F4FF80190819032C9F37E
:10468000E1CF41110E940EB8FF2021F087ED94E0A8
:104690000E94E8B7C8010E9480BC88C50E94273DDF
:1046A00085C520936605209365050E94423D7EC521
:1046B00060E070E083E50E94FB4D8C011127023021
:1046C00011053CF00E940AB88BED94E00E94E8B717
:1046D0006DC588E40E94B24D8823A9F00E94024D66
:1046E0006A3A71053CF06530F1E07F072CF064E038
:1046F00071E002C06AEA70E0F801EE0FFF1FEF56AA
:10470000FF4C7183608386E40E94B24D882381F060
:104710000E94024D77FD07C06F3F710529F024F01C
:104720006FEF70E001C060E0F801E557FF4C608377
:1047300082E40E94B24D882309F438C50E94024DDC
:104740006530710534F06A3671052CF069E670E069
:1047500002C065E070E0F801EE0FFF1FE357FF4C69
:104760007183608323C50E94BF4D182F87FD1EC52E
:1047700084E40E94694D882309F43FC00E94364DAD
:104780006B017C0101E020E030E0A9010E94A1E47E
:10479000811101C000E000936F0220E030E0A90128
:1047A000C701B6010E94A1E4882339F10E94364D69
:1047B00024E01202F0011124EC58FD4F6083718354
:1047C0008283938320E030E0A901609174027091AC
:1047D000750280917602909177020E94A1E4811186
:1047E0000CC080E090E0A0EEBFE380937402909351
:1047F0007502A0937602B09377020E943335D6C437
:104800000E94BF4D87FDD2C4AEE4EA2EA1E0FA2E8D
:104810000CE716E3D7018D917D010E94694D882335
:1048200049F00E94364D0E9445EAF8016083718389
:10483000828393830C5F1F4FF6E30C381F0751F7F9
:104840000E942036B3C40E94BF4D87FDAFC4FEE472
:10485000EF2EF1E0FF2E0CE716E3D7018D917D01DD
:104860000E94694D882339F00E94364DF80164A3F7
:1048700075A386A397A30C5F1F4FF6E30C381F07A1
:1048800061F794C48091620287FD8EC680916302B5
:104890008E7009F089C64091B0365091B136609162
:1048A000B2367091B33683E095E00E9469BC4091C6
:1048B000B4365091B5366091B6367091B73680E017
:1048C00095E00E9469BC4091B8365091B93660912C
:1048D000BA367091BB368DEF94E00E9469BC8AE0D5
:1048E0000E94E1B763C480916102827109F0A2C69F
:1048F000809163028C7809F09DC680916402837078
:1049000009F098C653C40E940EB88AE395E00E944D
:10491000E8B783E50E94694D882321F00E94264D67
:1049200080934D0180914D01882319F087E195E036
:1049300002C083E195E00E94E8B782E395E00E941F
:10494000E8B74091CF365091D0366091D136709112
:10495000D23680E395E00E9469BC4091D3365091F5
:10496000D4366091D5367091D6368DE295E00E94AE
:1049700069BC4091D7365091D8366091D936709144
:10498000DA368AE295E00E9469BC82E295E00E94F4
:10499000E8B740912F015091300160913101709141
:1049A000320180E295E00E9469BC40913301509150
:1049B000340160913501709136018DE195E00E94DE
:1049C00069BC409137015091380160913901709173
:1049D0003A018AE195E00E9469BC8AE00E94E1B751
:1049E000E5C383E50E94B24D882309F4DFC30E942A
:1049F000024D7093180160931701D8C30E94BF4DF8
:104A0000F82E87FDD3C383E50E94B24D0F2D0F2CE6
:104A1000000C110B882369F10E94024DF801EE0F82
:104A2000FF1FE75FFE4F71836083000F111F000FB0
:104A3000111F9801275D3E4F7901072E000C880B4E
:104A4000990B0E94A8E42AE037ED43E25CE30E9460
:104A500007E5F801E059FD4F208131814281538102
:104A60000E9407E5D7016D937D938D939C931397D7
:104A70009DC30E940EB885E40E94E1B780E38F0DCC
:104A80000E94E1B7000F111FF801E75FFE4F608140
:104A900071818AE495E00E94E7BB85E20E94E1B75C
:104AA0008AE00E94E1B782C380E50E94694D8823B5
:104AB00009F47CC360E070E080E50E94FB4DF82EB5
:104AC0006FEF7FEF83E50E94FB4D8C01019603970A
:104AD00008F06CC3F7FC6AC38F2D0E943DDF88236A
:104AE00039F00E940AB882E595E00E94E8B75EC3FB
:104AF0000E94673660E08F2D0E9429D60F3FBFEFDE
:104B00001B0731F00130110571F000E010E00DC01D
:104B10008F2D0E94D1D531E020E0892B09F030E0C3
:104B2000032F122F02C001E010E08F2D0E94D1D57B
:104B30008017910709F43AC380E00E94C1B8F5CF0D
:104B40008AE50E94B24D8111E0C583E50E94B24D15
:104B50008111DBC52BC364E071E083E50E94E84D61
:104B60008C0168EE73E080E50E94E84D8938E3E14E
:104B70009E0710F088E893E1B8010E944BA416C389
:104B800085E40E94B24D811110C080E50E94694DFC
:104B90008823B1F00E94364D6093C0307093C130CD
:104BA0008093C2309093C3300BC00E94124D882373
:104BB00061F30E940AB881E695E00E94E8B7F6C268
:104BC00089E40E94694D882381F00E94364D2CEAC9
:104BD00035EC47E25EE30E9407E56093C4307093D2
:104BE000C5308093C6309093C73084E40E94694DED
:104BF000882381F00E94364D2CEA35EC47E25EE3D3
:104C00000E94CCE96093C8307093C9308093CA3059
:104C10009093CB300E940EB84091C0305091C1307B
:104C20006091C2307091C3308BE795E00E9469BCFF
:104C30002CEA35EC47E25EE36091C4307091C530F8
:104C40008091C6309091C7300E94CCE9AB01BC0185
:104C500087E795E00E9469BC2CEA35EC47E25EE309
:104C60006091C8307091C9308091CA309091CB303A
:104C70000E9407E5AB01BC0183E795E00E9469BC97
:104C80008AE00E94E1B792C280E50E94694D8823C4
:104C900051F00E94364D6093B4307093B5308093DC
:104CA000B6309093B73089E40E94694D882381F033
:104CB0000E94364D2CEA35EC47E25EE30E9407E5A0
:104CC0006093B8307093B9308093BA309093BB3012
:104CD00084E40E94694D882381F00E94364D2CEABD
:104CE00035EC47E25EE30E94CCE96093BC30709300
:104CF000BD308093BE309093BF300E940EB840917B
:104D0000B4305091B5306091B6307091B73087E8CB
:104D100095E00E9469BC2CEA35EC47E25EE36091C5
:104D2000B8307091B9308091BA309091BB300E9408
:104D3000CCE9AB01BC0183E895E00E9469BC2CEA98
:104D400035EC47E25EE36091BC307091BD308091FC
:104D5000BE309091BF300E9407E5AB01BC018FE7E8
:104D600095E00E9469BC8AE00E94E1B71FC283E51A
:104D70000E94694D182F882371F00E94364D0E94C1
:104D80003EEA70932E0160932D0121E0672B09F01C
:104D900020E02093C43180E50E94694D882359F0BA
:104DA00020912D0130912E01232B11F00E94264DD0
:104DB0008093C431FBC11111F9C10E940EB88091DA
:104DC000C431882319F066EF71E002C069EF71E029
:104DD00080EA95E00E94F7B760912D0170912E0155
:104DE0008FE895E00E94E7BB8BE895E00E94E8B76A
:104DF000DDC10E94FF88DAC10E946736D7C10E94D8
:104E00000D9CD4C10E94E072D1C10E94E569CEC15F
:104E100083E50E94694D882321F00E94264D91E090
:104E200089270E941C6BC2C181E0809382300E945E
:104E3000C66D10928230882309F4B8C10E940EB862
:104E400083EB95E00E94E8B7B1C180919F3982FF62
:104E5000ADC1806280939F39A9C180E090E0A0E25B
:104E6000B1E489839A83AB83BC8380E090E0A1E9BD
:104E7000B3E48D839E83AF83B88780E090E0A0EA9F
:104E8000B1E489879A87AB87BC870E94BF4D87FDB5
:104E90008DC1482F61E080E00E94A8D10E9444416A
:104EA000882319F081E00E940E4E85E40E94694D2E
:104EB000882381F00E94364D6B017C0120E030E0B8
:104EC000A9010E94CCEA87FF0BC0F7FAF094F7F82B
:104ED000F09406C0C12CD12C30E8E32E30E4F32E40
:104EE000F7FAF094F7F8F094CCA6DDA6EEA6FFA6AC
:104EF0008AE50E94B24D882351F040E050E0BA01AB
:104F00008AE50E94E88869877A878B879C8788E58D
:104F10000E94B24D882351F040E050E0BA0188E58C
:104F20000E94E88869837A838B839C8389E50E9449
:104F3000B24D882351F040E050E0BA0189E50E946B
:104F4000E8886D837E838F83988785E50E94694D0D
:104F5000882329F00E94364D6B017C0108C0C09067
:104F60008330D0908430E0908530F090863020E01F
:104F700030E0A901C701B6010E94CCEA87FF04C056
:104F8000F7FAF094F7F8F094F7FAF094F7F8F09451
:104F9000C8A6D9A6EAA6FBA61CA21DA21EA21FA2F5
:104FA0008CE40E94694D882329F00E94364D6B01E4
:104FB0007C0108C0C0908730D0908830E090893064
:104FC000F0908A3020E030E0A901C701B6010E94CC
:104FD000CCEA87FF04C0F7FAF094F7F8F094C8A27F
:104FE000D9A2EAA2FBA266E070E082E40E94FB4D37
:104FF000182F8091E2048111D9C021E0AE01485DF3
:105000005F4FBE016F5F7F4FCE018C960E9463554C
:10501000882309F4CBC0612F81E00E94BC5080E05E
:1050200090E0A8E4B2E48C8F9D8FAE8FBF8F80910B
:10503000E204882309F4BAC0212FAE01445E5F4F19
:10504000BE01605E7F4FCE0184960E94C13FAEC01C
:105050000E94BF4D082F87FDA9C085E50E94694DBC
:105060008823B1F1E02E002E000CFF080E94364D7F
:105070004B015C0120E030E0A9010E94CCEA87FFEF
:1050800004C0B7FAB094B7F8B094C70123E0880F12
:10509000991F2A95E1F79C012D573F4C7901D901C1
:1050A0008D929D92AD92BC92139720E030E04AE73A
:1050B00054E4C501B4010E94CCEA18164CF480E017
:1050C00090E0AAE7B4E4F70180839183A283B383DD
:1050D0008CE40E94694D882309F468C0002E000CFE
:1050E000110B0E94364D6B017C0120E030E0A901DC
:1050F0000E94CCEA87FF04C0F7FAF094F7F8F09426
:1051000083E0000F111F8A95E1F70D571F4CD8015E
:105110001496CD92DD92ED92FC92179720E030E04C
:105120004AE754E4C701B6010E94CCEA1816F4F528
:1051300080E090E0AAE7B4E4F80184839583A68335
:10514000B78334C00E940AB88EEB95E00E94E8B79E
:105150002DC081E08093270110928A3183E50E945F
:10516000009C811123C00E9425D220C00E94F09B88
:105170001DC000916502109166020023B9F00E94E3
:105180000EB884E50E94E1B7B8017727072E000C1E
:10519000880B990B0E94CBBB80E20E94E1B78DEC9B
:1051A00095E00E94E8B702C00E94F09B1092E004D4
:1051B0000E9415D2E5C220E030E00C94B418111121
:1051C0000C94E01D0C94D91D80E00E94C1B80C9491
:1051D000021E0E94024DAB01BC0140939B395093CB
:1051E0009C3960939D3970939E398DE897E30E94B6
:1051F0009C2EDCCF61E0802F0E9429D66F2D802F5E
:105200000E94FAD56F2D70E0802F0E9465D6F4E0E1
:10521000EF12CCCFF092B331C9CF0E9451A00C94C1
:105220009A20A3019201C501B4010E94CCEA18168C
:105230003CF08DEB92E060E00E9478A40C94BA20E0
:105240008AEC92E0F8CF0E94364D0E943EEA683721
:1052500071050CF081C170937A02609379020E940B
:105260001EB00E94364D20E030E040EA50E40E943B
:10527000CCEA181614F40E9451A060917902709142
:105280007A02072E000C880B990B0E94A8E420914B
:105290001E3730911F3740912037509121370E949F
:1052A000CCEA18161CF486E093E002C087EF92E087
:1052B00060E00E9478A481E08093220119AA1AAAD2
:1052C0001BAA1CAA1AAE1BAE1CAE1DAE18AA1EAE9F
:1052D000ACE3AFAFBCE12196BFAF2197E6E42296E5
:1052E000EFAF2297C12CD12C30E8E32E4FEBF42EF8
:1052F000812C912C54016091790270917A02072ED1
:10530000000C880B990B0E94A8E4162F072F782E0B
:10531000692E9601A7010E94A1E4882349F1C0905B
:105320001E37D0901F37E0902037F0902137A7012B
:105330009601612F702F872D962D0E94A1E4881F62
:105340008827881F88ABF9ADFF23C1F0A70196011C
:10535000612F702F872D962D0E94A1E487FF0DC02D
:1053600080912201882309F4F4C00E94DCA4F1C0DA
:105370001C2D0D2D7E2C6F2C01C018AA0E9411D758
:105380006B017C01DC01CB012AAD3BAD4CAD5DADC9
:10539000821B930BA40BB50BB7FD33C0D701C6011D
:1053A00088519C4FAF4FBF4F8AAF9BAFACAFBDAFE3
:1053B00080E00E944AAB83EF92E00E94E8B781143C
:1053C0009104A104B104B9F0D501C401805F984DE6
:1053D000AF4FBF4FBC01CD016C197D098E099F09EC
:1053E00028EE33E040E050E00E94A8E8CA01B9018D
:1053F0000E94CBBB03C08FE30E94E1B78AE00E940A
:10540000E1B780E00E94C1B80E9411D760932237B3
:1054100070932337809324379093253790911E37CC
:105420009DABA0911F37AEABB0912037BFABE091E1
:105430002137E8AF292F3A2F4B2F5E2F612F702F86
:10544000872D962D0E9448E91B012C0120E030E0B9
:10545000A9010E94CCEA87FF04C057FA509457F87C
:10546000509481149104A104B10459F420E030E077
:1054700040E85FE3C201B1010E94A1E487FF0DC0D3
:105480000AC020E030E040E450E4C201B1010E94D3
:10549000CCEA181614F446015701F8A9FF23E9F1E4
:1054A00029A93AA94BA95CA9211531054105510546
:1054B00041F0D701C601821B930BA40BB50BB7FDBE
:1054C0002CC02DA93EA94FA958AD6EAD7FAD219638
:1054D0008FAD219722969FAD22970E9448E920E048
:1054E00030E040EC5FE30E94A1E487FD39CFD701B3
:1054F000C601805A9541AF4FBF4F89AB9AABABAB5A
:10550000BCAB9DA99EAFAEA9AFAFBFA92196BFAF5F
:105510002197E8AD2296EFAF229780912201882350
:1055200009F41ECF81149104A104B10429F4C12E01
:10553000D02EE72CF62CDFCEF0E1CF1AF7E2DF0A0F
:10554000E108F108C818D908EA08FB08F7FE08CFF7
:10555000EECF809122012ACE68E770E07CCE0E94D7
:10556000673688E50E94694D882331F05E9A809104
:1055700067058E7F8093670589E50E94694D8823C2
:1055800031F05E9A809167058D7F809367058AE58B
:105590000E94694D882309F409CE159A8091670508
:1055A0008B7F8093670502CE83E50E94B24D8823EE
:1055B00091F00E94364D6093B0367093B13680936F
:1055C000B2369093B3366093B8367093B936809301
:1055D000BA369093BB3680E50E94B24D882351F0D5
:1055E0000E94364D6093B0367093B1368093B236D8
:1055F0009093B33682E50E94B24D882351F00E9409
:10560000364D6093B4367093B5368093B63690932A
:10561000B73684E50E94B24D882309F4C7CD0E94B5
:10562000364D6093B8367093B9368093BA369093FE
:10563000BB36BCCD82E40E94694D882351F00E94A4
:10564000F24C60938C3670938D3680938E369093A7
:105650008F3683E50E94694D882351F00E94364DB4
:105660006093BC367093BD368093BE369093BF3640
:1056700084E50E94694D882351F00E94364D609365
:10568000C0367093C1368093C2369093C33688E596
:105690000E94694D882351F00E94364D60938B31F2
:1056A00070938C3180938D3190938E3189E50E9477
:1056B000694D882351F00E94364D60938F3170936D
:1056C000903180939131909392318AE50E94694D97
:1056D000882351F00E94364D60939331709394313A
:1056E000809395319093963185E40E94694D88238B
:1056F00009F45CCD0E94364D6093973170939831D8
:105700008093993190939A3151CD0E94364D20E08B
:1057100030E040E050EC0E94A1E487FD12C00E94FE
:10572000364D20E030E040E050E40E94CCEA18160C
:105730001CF00E94364D09C060E070E080E090E40B
:1057400004C060E070E080E090EC209198363091E9
:10575000993640919A3650919B360E9407E50E94F7
:105760003EEA2091670522FF21CD20911A37309122
:105770001B37620F731F70931B3760931A3716CD58
:10578000CF5BDF4F0FB6F894DEBF0FBECDBFDF910A
:10579000CF911F910F91FF90EF90DF90CF90BF902E
:1057A000AF909F908F907F906F905F904F903F90C1
:1057B0002F900895FC0120E03EE2DB014C91403245
:1057C00041F0283011F430833196DB014C91408355
:1057D00031962F5F6F5F7F4F2B3079F710820895DE
:1057E0000F931F93CF93DF93EC0189018C8183305A
:1057F00039F089E0440F551F661F771F8A95D1F74E
:105800009A01AB0168E1CE010E9499AA882311F0A8
:1058100086E02EC08EEF8EBDF801C8019E5F0DB4EC
:1058200007FEFDCF20812EBD0DB407FEFDCF2181E7
:105830002EBD32968E179F0791F70DB407FEFDCF50
:105840008FEF0E94D5BC8FEF0E94D5BC0E94DABCBE
:105850008B838F71853031F083E18983CE010E9483
:1058600091AA07C00E9420CC182F811107C087E1A0
:105870008983CE010E9491AA10E012C020E030E09E
:10588000A9016DE0CE010E9499AA811104C00E9475
:10589000DABC882311F086E1EBCFCE010E9491AAF9
:1058A000812FDF91CF911F910F910895CF93809118
:1058B000D6048823B9F14091CE045091CF04609171
:1058C000D0047091D1042EEC32E08091D7049091F5
:1058D000D8040E94F02BC82F811102C0C0E023C061
:1058E0004091D2045091D3046091D4047091D504B6
:1058F000411551056105710591F02EEC32E0809162
:10590000D7049091D8040E94F02B882339F3109289
:10591000D2041092D3041092D4041092D5041092A1
:10592000D60401C0C1E08C2FCF910895CF92DF92B1
:10593000EF92FF92CF936B017C01C42F8091CE0434
:105940009091CF04A091D004B091D1048C159D0505
:10595000AE05BF05D1F00E94562C811102C080E037
:1059600018C02EEC32E0B701A6018091D7049091C7
:10597000D8040E94E3AA882391F3C092CE04D09267
:10598000CF04E092D004F092D10481E0C111809361
:10599000D604CF91FF90EF90DF90CF9008954F9273
:1059A0005F926F927F928F929F92AF92BF92CF92AF
:1059B000DF92EF92FF920F931F93CF93DF93EC014F
:1059C000423051056105710510F480E069C0898598
:1059D0009A85AB85BC850196A11DB11D84179507DD
:1059E000A607B70790F38F89803149F4852E962E4C
:1059F000A72EBB248B899C89AD89BE890FC08032BC
:105A000021F78B889C88AD88BE88DB01CA01E7E05E
:105A1000B695A79597958795EA95D1F7880E991E23
:105A2000AA1EBB1E280139016A017B0141E0C501A4
:105A3000B4010E94962C882341F29F89903161F431
:105A4000DD24EE24FF249601220F331FF901E253D7
:105A5000FD4F5182408211C0E894C7F8DD24EE2446
:105A6000FF249601220F331F220F331FF901E25347
:105A7000FD4F40825182628273829A89923080F017
:105A80004D815E816F817885840E951EA61EB71E9E
:105A90008092D2049092D304A092D404B092D50400
:105AA000DF91CF911F910F91FF90EF90DF90CF90FA
:105AB000BF90AF909F908F907F906F905F904F902E
:105AC0000895CF92DF92EF92FF920F931F93CF939F
:105AD000DF93FC0181859285A385B4850196A11D84
