:100000000C941A180C9444180C9444180C9444182A
:100010000C9444180C9444180C9444180C944418F0
:100020000C9444180C946EA30C9444180C9444182B
:100030000C9444180C94C3B10C9444180C944418B8
:100040000C9444180C9473AE0C9450DF0C94441828
:100050000C944C3B0C9444180C9444180C94441885
:100060000C9444180C9444180C9444180C944418A0
:100070000C9444180C9444180C9444180C94441890
:100080000C9444180C9444180C94441893A779A722
:100090007CA77FA782A78EA785A79FA788A78BA7E6
:1000A000DCD0A3CFDACF18D1DACFDACFDACFDACFFC
:1000B000DACFDACFDACFDACFDACFDACFDACFDACFF8
:1000C000DACFDACFDACFDACFDACFDACFDACFDACFE8
:1000D000DACFDACFDACFDACFDACFDACF12D1DACF9E
:1000E000DACFDACFDACFDACFDACFDACFDACFEBD0B6
:1000F000DACFDACFDACFDACFDACFDACFDACFDACFB8
:10010000DACFDACF2FD1D7CF4DDC50DC43DC47DC60
:1001100067DC67DC54DC58DC5EDC62DCBFDEC4DE3E
:10012000C9DED3DE01DF01DFDDDEE5DEEDDEF7DE99
:100130004E414E494E495459494E46CDCCCC3D0ACC
:10014000D7233C17B7D13877CC2B329595E6241FAF
:10015000B14F0A000020410000C84200401C462068
:10016000BCBE4CCA1B0E5AAEC59D74434F4D4D5577
:100170004E49434154494F4E0044525952554E0046
:100180004552524F525300494E464F004543484F47
:100190000020746F6F206C6F6E67206578747275C5
:1001A00073696F6E2070726576656E7465640A009F
:1001B00020636F6C6420657874727573696F6E204C
:1001C00070726576656E7465640A00536C6565705F
:1001D0002E2E2E00436C69636B20746F2072657342
:1001E000756D652E2E2E004E6F206D6F76652E007C
:1001F000456E642066696C65206C6973740A004200
:100200006567696E2066696C65206C6973740A00A5
:100210004D31323500286E6F2066696C65290053B8
:1002200044207072696E74696E672062797465200B
:10023000004E6F74205344207072696E74696E674B
:100240000A0043757272656E742066696C653A20A7
:100250000046696C652064656C657465643A0044A9
:10026000656C6574696F6E206661696C65642C20CD
:1002700046696C653A20002569730025696D202563
:100280006973002569682025696D2025697300253B
:100290006964202569682025696D2025697300251A
:1002A000697920256964202569682025696D2025E4
:1002B0006973005072696E742074696D653A20002C
:1002C0008C018701800179016B016F6666004445EE
:1002D0004255473A004B494C4C45442E20004D3185
:1002E00031332053006F6B0020573A004520436F95
:1002F0006F6C696E672E2E2E00452048656174690B
:100300006E672E2E2E0020573A0042656420636FE0
:100310006F6C696E672E2E2E0042656420686561E1
:1003200074696E672E2E2E0043522D3130204F6699
:10033000662E002C20002C2000544845524D414C84
:100340005F50524F54454354494F4E004155544F0E
:100350005245504F52545F53445F53544154555388
:1003600000454D455247454E43595F504152534514
:100370005200434153455F4C494748545F425249FC
:100380004748544E45535300544F47474C455F4CE4
:10039000494748545300534F4654574152455F50C4
:1003A0004F574552004255494C445F5045524345D2
:1003B0004E54004C4556454C494E475F44415441CC
:1003C000005A5F50524F4245004155544F4C4556DC
:1003D000454C005052494E545F4A4F420050524FD4
:1003E0004752455353004155544F5245504F525474
:1003F0005F54454D5000564F4C554D45545249435E
:1004000000454550524F4D0053455249414C5F58AD
:100410004F4E5F584F4646004649524D5741524550
:100420005F4E414D453A4D61726C696E2062756751
:100430006669782D312E312E7820284769746875C9
:10044000622920534F555243455F434F44455F5502
:10045000524C3A68747470733A2F2F6769746875D8
:10046000622E636F6D2F4D61726C696E4669726D9D
:10047000776172652F4D61726C696E2050524F54D6
:100480004F434F4C5F56455253494F4E3A312E30F1
:10049000204D414348494E455F545950453A4352D7
:1004A0002D31302045585452554445525F434F55E5
:1004B0004E543A3120555549443A6365646532617A
:1004C00032662D343161322D343734382D39623172
:1004D000322D6335356336326633363766660A0049
:1004E0002F2F20004D31343520533C696E646578E0
:1004F0003E206F7574206F662072616E67652028DC
:10050000302D31290A0020540020520041636365D8
:100510006C65726174696F6E3A205000205A002039
:100520005900580020204D61783A2000205A0020C0
:100530005900580020204D696E3A20004F6E20006F
:100540004F666600536F667420656E6473746F70D7
:10055000733A200020466C6F773A200000010F1597
:100560000E12FFFFFFFF16170E13FFFFFFFF030220
:100570001A14FFFFFFFFFFFFFF0C04FFFFFF010046
:100580000EFFFFFF0C190DFF1820643A0020693A96
:100590000020703A00496E76616C69642065787459
:1005A00072756465720A0043290A0061626C6564B1
:1005B00020286D696E2074656D702000436F6C6437
:1005C00020657874727564657320617265200020FF
:1005D000643A0020693A0020703A004E6F2063614F
:1005E0007365206C696768740A00454550524F4D29
:1005F000204F4B0A00416374697665204578747218
:10060000756465723A2000496E76616C6964206594
:10061000787472756465720A004B494C4C45442EDF
:10062000200053544F505045442E20005072696EA4
:100630007465722073746F707065642064756520D2
:10064000746F206572726F72732E20466978207401
:100650006865206572726F7220616E6420757365C3
:10066000204D39393920746F20726573746172744A
:100670002E202854656D70657261747572652069ED
:10068000732072657365742E20536574206974201D
:1006900061667465722072657374617274696E67E5
:1006A000290A004E6F20436865636B73756D207770
:1006B000697468206C696E65206E756D6265722C58
:1006C000204C617374204C696E653A20004E6F2097
:1006D000436865636B73756D2077697468206C6916
:1006E0006E65206E756D6265722C204C617374208E
:1006F0004C696E653A2000636865636B73756D20A5
:100700006D69736D617463682C204C617374204C47
:10071000696E653A20004C696E65204E756D6265A4
:1007200072206973206E6F74204C617374204C6961
:100730006E65204E756D6265722B312C204C617395
:1007400074204C696E653A20004D313130004D33D4
:10075000310053442072656164206572726F720AC1
:1007600000446F6E65207072696E74696E672066F2
:10077000696C650A0020496E76616C696420657851
:10078000747275646572200025753A2530327500E3
:10079000253032753A2530327500257564202530B4
:1007A00032753A2530327500202020202020005A52
:1007B00000590020202020005800092000000000DF
:1007C0000000000000000000003FFFF000000000FB
:1007D0000000000000000000380070000000000071
:1007E0000000000000000030FC30000000000000AD
:1007F00000000000000020FC1000000000000000CD
:100800000000000000207810000000000000000040
:100810000000000020301000000000000000000078
:100820000000002C00D03FC00000000000000020AD
:1008300082002E31D07FE000000000000000104157
:10084000002F7BD07FE0000000000000001041007E
:100850002F7BD07FE0000000000000002082002EEF
:1008600031D03FC0000000000000004104002C0017
:10087000D03FC000000000000000820800203010BF
:100880007FE0000000000000008208002078107F58
:10089000E00000000000000041040020FC107FE0A8
:1008A0000000000000000020820030FC301F8000AB
:1008B0000000000000000000003800700F00000081
:1008C0000000000000FFFFC03FFFF0060000000036
:1008D00000000000FFFFC00000000000000000005A
:1008E0000000000000003FFFF000000000000000DA
:1008F0000000000000380070000000000000000050
:100900000000000031863000000000000000000000
:10091000000000238710000000000000000000001D
:100920000000278790000000000000000000000089
:10093000002F87D000000000000000000000000031
:100940002F03D03FC00000000000000020820020E4
:1009500030107FE00000000000000010410020780F
:10096000107FE0000000000000001041002078101F
:100970007FE0000000000000002082002030103FD7
:10098000C0000000000000004104002F03D03FC061
:10099000000000000000008208002F87D07FE000E8
:1009A0000000000000008208002787907FE0000020
:1009B00000000000004104002387107FE0000000D9
:1009C000000000002082003186301F8000000000FF
:1009D0000000000000003800700F00000000000060
:1009E0000000FFFFC03FFFF0060000000000000015
:1009F00000FFFFC00000004573746570732F6D6DBC
:100A0000004573746570732F6D6D005A7374657053
:100A1000732F6D6D005A73746570732F6D6D00596F
:100A200073746570732F6D6D005973746570732FD7
:100A30006D6D005873746570732F6D6D005873740D
:100A40006570732F6D6D004D6F74696F6E00537418
:100A50006570732F6D6D004A65726B00416363654D
:100A60006C65726174696F6E0056656C6F63697452
:100A70007900436F6E74726F6C004C6F6164206D0F
:100A80006D004C6F6164206D6D004C6F6164206D72
:100A90006D00556E6C6F6164206D6D00556E6C6FEE
:100AA0006164206D6D00556E6C6F6164206D6D002A
:100AB00046696C2E204469612E0046696C2E2044E4
:100AC00069612E004F6666004F6E20004520696EFA
:100AD000206D6D3300436F6E74726F6C0043616EF6
:100AE0006E6F7420656E74657220737562646972CE
:100AF0003A2000022E2E000152656672657368006E
:100B00004D61696E004D37303220542564004D36FA
:100B1000303020423020542564004D373032203BA5
:100B20002564004D37303120542564004368616EE0
:100B300067652066696C616D656E740050726568EA
:100B4000656174204142530050726568656174208C
:100B5000504C41004368616E67652066696C616D49
:100B6000656E74005052494E5420504155534544CF
:100B700000554E4C4F41442046494C414D454E5442
:100B8000004C4F41442046494C414D454E54005085
:100B900075726765206D6F726500436F6E74696E64
:100BA000756500524553554D45204F5054494F4EA1
:100BB000533A0020204E6F7A7A6C653A20006368C1
:100BC000616E6765006F66207468652066696C6198
:100BD0006D656E74005761697420666F722073745E
:100BE0006172740020204E6F7A7A6C653A20002082
:100BF0000066696C616D656E7420756E6C6F616402
:100C0000005761697420666F720020204E6F7A7AF7
:100C10006C653A20002000506C6561736520776137
:100C200069742E2E2E0048656174696E67206E6FA0
:100C30007A7A6C650020204E6F7A7A6C653A2000D3
:100C4000200068656174206E6F7A7A6C652E0050A2
:100C50007265737320627574746F6E20746F0020F8
:100C6000204E6F7A7A6C653A2000746F20636F6E45
:100C700074696E75652E2E2E00616E64207072652B
:100C8000737320627574746F6E00496E736572744D
:100C90002066696C616D656E740020204E6F7A7AF3
:100CA0006C653A2000200066696C616D656E742089
:100CB0006C6F6164005761697420666F7200202058
:100CC0004E6F7A7A6C653A2000200066696C616D1F
:100CD000656E74207075726765005761697420666F
:100CE0006F7200746F20726573756D65005761696E
:100CF0007420666F72207072696E740000060900BD
:100D0000FE0701920321207FFF07FF07FF0000007D
:100D100006000001070706020080808080800080B6
:100D2000030202060105A0A00507070600005050B7
:100D3000F850F850500507070600002078A07028EA
:100D4000F020050707060000C0C8102040981805CD
:100D500007070600006090A040A890680203030601
:100D60000104C04080030707060100204080808006
:100D70004020030707060100804020202040800516
:100D8000050506000120A870A8200505050600013C
:100D90002020F820200203030602FFC04080050146
:100DA00001060003F8020202060200C0C0050505A4
:100DB0000600010810204080050707060000708823
:100DC000888888887003070706010040C0404040BB
:100DD00040E0050707060000708808708080F8056D
:100DE0000707060000F81020100808F0050707069E
:100DF000000010305090F81010050707060000F8AA
:100E000080F008088870050707060000708080F0F1
:100E1000888870050707060000F8081020202020A9
:100E20000507070600007088887088887005070726
:100E30000600007088887808087002050506020020
:100E4000C0C000C0C00206060602FFC0C000C0400D
:100E50008004070706000010204080402010050392
:100E600003060002F800F80407070601008040208E
:100E70001020408005070706000070880810200039
:100E80002005070706000070880868A8A8700507F5
:100E900007060000708888F888888805070706001C
:100EA00000F08888F08888F0050707060000708841
:100EB0008080808870050707060000F08888888891
:100EC00088F0050707060000F88080F08080F805AC
:100ED0000707060000F88080F0808080050707067D
:100EE0000000708880B888887005070706000088B1
:100EF0008888F8888888010707060200808080803B
:100F000080808005070706000038101010109060E0
:100F10000507070600008890A0C0A0908805070775
:100F2000060000808080808080F8050707060000AA
:100F300088D8A8888888880507070600008888C898
:100F4000A898888805070706000070888888888820
:100F500070050707060000F08888F080808005078C
:100F60000706000070888888A890680507070600B3
:100F700000F08888F0A090880507070600007880B8
:100F800080700808F0050707060000F820202020E0
:100F90002020050707060000888888888888700553
:100FA00007070600008888888888502005070706FC
:100FB00000008888888888A85005070706000088F0
:100FC00088502050888805070706000088888850C8
:100FD000202020050707060000F80810204080F8B0
:100FE000030707060100E08080808080E00505059A
:100FF0000600018040201008030707060100E020DA
:1010000020202020E005030306000420508805016D
:1010100001060000F80202020602058040050505EF
:1010200006000070087888780507070600008080B1
:10103000B0C88888F00505050600007080808870BB
:1010400005070706000008086898888878050505E0
:101050000600007088F88070050707060000304819
:10106000E0404040400506060600FF70888878088A
:10107000700507070600008080B0C88888880107CF
:101080000706020080008080808080030808060137
:10109000FF200020202020A0400407070600008039
:1010A0008090A0C0A090030707060100C040404008
:1010B0004040E0050505060000D0A8A8A8A8050541
:1010C00005060000B0C88888880505050600007080
:1010D000888888700506060600FFF08888F0808002
:1010E0000506060600FF78888878080805050506C5
:1010F0000000B0C880808005050506000070807083
:1011000008F00407070600004040E040404030057A
:101110000505060000888888986805050506000012
:1011200088888850200505050600008888A8A850F2
:1011300005050506000088502050880506060600B3
:10114000FF888888780870050505060000F81020DB
:1011500040F803070706010020404080404020017E
:1011600007070602008080808080808003070706D2
:1011700001008040402040408005020206000268D5
:1011800090000000060000656E7175657565696EFA
:1011900067202200000048420000484200008040D2
:1011A000000000005761726E696E673A20486F6DEB
:1011B000696E672042756D702044697669736F723D
:1011C000203C20310A000202040000A0400000A0E0
:1011D00040000000400000A043000096430000C80B
:1011E00043FFFFFF7C3C3E5E2B3D3F2F5B5D3B2C76
:1011F0002A225C00486F6D652025732573257320B6
:101200006669727374002066697273740A005A000A
:1012100059005800486F6D65200020746F6F206C76
:101220006F6E6720657874727573696F6E20707267
:101230006576656E7465640A0020636F6C64206572
:101240007874727573696F6E2070726576656E74EE
:1012500065640A004578747275646572004D6F7636
:1012600065205A004D6F76652059004D6F766520D8
:1012700058005072657061726500496E69746961E9
:101280006C697A6520454550524F4D00436F6E742E
:10129000726F6C00526573746F7265206661696C61
:1012A00073616665004C6F61642073657474696E68
:1012B000677300496E697469616C697A6520454598
:1012C00050524F4D0053746F72652073657474698A
:1012D0006E67730046696C616D656E74004D6F7466
:1012E000696F6E0054656D7065726174757265002A
:1012F0004D61696E005072656865617420414253AA
:1013000020636F6E66005072656865617420504C92
:101310004120636F6E66005049442D44005049449B
:101320002D44005049442D49005049442D49005056
:1013300049442D50005049442D500020082046615A
:1013400063740020082046616374002008204D610A
:1013500078002008204D6178002008204D61780039
:101360002008204D696E002008204D696E0020087D
:10137000204D696E004F6666004F6E200041757407
:101380006F74656D700046616E20737065656400F2
:1013900046616E2073706565640046616E207370EF
:1013A00065656400426564004265640042656400EE
:1013B0004E6F7A7A6C65004E6F7A7A6C65004E6F6C
:1013C0007A7A6C6500436F6E74726F6C0053746F41
:1013D00072652073657474696E677300426564009A
:1013E00042656400426564004E6F7A7A6C65004E17
:1013F0006F7A7A6C65004E6F7A7A6C650046616E22
:101400002073706565640046616E20737065656465
:101410000046616E2073706565640054656D70658B
:10142000726174757265004D3630303A20546F6FBA
:1014300020636F6C6400486F74656E6420746F6F16
:1014400020636F6C640A0050726F74656374656426
:101450002050696E0A00205A3A0020593A00204371
:101460006F756E7420583A0020453A00205A3A00B1
:1014700020593A00583A003A004361703A004B64F0
:10148000200023646566696E652044454641554CDD
:10149000545F004B69200023646566696E652044D3
:1014A000454641554C545F004B70200023646566EF
:1014B000696E652044454641554C545F005049448F
:1014C000204175746F74756E652066696E69736806
:1014D0006564212050757420746865206C61737494
:1014E000204B702C204B6920616E64204B6420637C
:1014F0006F6E7374616E74732066726F6D206265B7
:101500006C6F7720696E746F20436F6E66696775C4
:10151000726174696F6E2E680A00504944204175EB
:10152000746F74756E65206661696C6564212074E2
:10153000696D656F75740A00453120544845524DF8
:10154000414C2052554E4157415900424544205488
:101550004845524D414C2052554E41574159005437
:101560006865726D616C2052756E617761790045B6
:10157000312048656174696E67206661696C6564D5
:10158000004265642068656174696E672066616900
:101590006C65640048656174696E67206661696C9A
:1015A000656400504944204175746F74756E652000
:1015B0006661696C6564212054656D706572617443
:1015C00075726520746F6F20686967680A00204B28
:1015D000643A2000204B693A2000204B703A2000EA
:1015E0000A20436C617373696320504944200A00E8
:1015F0002054753A2000204B753A2000206D617808
:101600003A2000206D696E3A200020643A200020C4
:10161000626961733A2000504944204175746F74C7
:10162000756E65206661696C656421204261642085
:101630006578747275646572206E756D6265720A84
:1016400000504944204175746F74756E6520737441
:101650006172740A00496E736572742066696C6108
:101660006D656E7420616E642070726573732062A4
:101670007574746F6E0A00507265737320627574AE
:10168000746F6E20746F2068656174206E6F7A7A53
:101690006C650A00496E736572742066696C616DD1
:1016A000656E7420616E642070726573732062755C
:1016B00074746F6E20286F72204D313038290A0003
:1016C000454550524F4D206461746173697A6520BD
:1016D0006572726F722E0A00290A002062797465A1
:1016E000733B20637263200053657474696E677383
:1016F0002053746F726564202800290A00206279E3
:101700007465733B2063726320002073746F72658D
:10171000642073657474696E67732072657472698E
:1017200065766564202800202863616C63756C61B0
:1017300074656429210A0020213D2000454550524E
:101740004F4D20435243206D69736D61746368206F
:101750002D202873746F7265642920002053697AE4
:10176000653A2000496E6465783A2000204D617228
:101770006C696E3D563535290A0028454550524F53
:101780004D3D00454550524F4D2076657273696F4F
:101790006E206D69736D6174636820000000000045
:1017A0000000000000000000507265686561742050
:1017B000504C4120456E640050726568656174202C
:1017C000504C412042656400507265686561742028
:1017D000504C4100507265706172650050726568CE
:1017E0006561742041425320456E64005072656803
:1017F00065617420414253204265640050726568FF
:1018000065617420414253005072657061726500D9
:101810004261636B004E65787420636F726E65720F
:10182000005072656865617420504C4100436F6FD1
:101830006C646F776E005072656865617420414218
:1018400053004368616E67652066696C616D656E03
:1018500074004368616E67652066696C616D656ED2
:1018600074004D3630302042300044697361626C40
:1018700065207374657070657273004D3834004C68
:101880006576656C20636F726E6572730041757466
:101890006F20686F6D6500473238004D6F766520A8
:1018A00061786973004D61696E004D6F76652058EF
:1018B000004D6F76652059004D6F7665205A0045C2
:1018C00078747275646572004D6F766520302E31C4
:1018D0006D6D004D6F766520316D6D004D6F7665D5
:1018E0002031306D6D004D6F766520617869730031
:1018F0004578747275646572004D6F7665205A0084
:101900004D6F76652059004D6F766520580024F4A0
:10191000D43050C38E20C2A24017828B7011127A2D
:10192000910D816CD90AA861E108C7586607615119
:1019300043061E4B5D05C145A7041A411104093D2C
:101940009803713931034036DB0265339102D4309C
:101950005402802E1D02632CEE01752AC501B028A9
:10196000A001102781018F2564012B244B01E02267
:101970003401AC211F018D200D01801FFC00841E4D
:10198000ED00971DDF00B81CD200E61BC600201B2F
:10199000BC00641AB200B219A8000A19A0006A18A3
:1019A0009900D117910040178B00B51684003116AD
:1019B0007E00B31579003A157300C7146F005814F0
:1019C0006A00EE1366008813630025135E00C712D9
:1019D0005B006C12570015125400C11151007011B8
:1019E0004F0021114B00D61049008D1047004610C2
:1019F000440002104200C00F4000800F3E00420F22
:101A00003C00060F3B00CB0E3800930E37005C0EF7
:101A10003500270E3400F30D3200C10D3100900D5A
:101A20003000600D2E00320D2D00050D2C00D90C5C
:101A30002B00AE0C2900850C29005C0C2700350C0E
:101A400027000E0C2600E80B2400C40B2400A00B7A
:101A500023007D0B23005A0B2100390B2100180BAA
:101A60002000F80A1F00D90A1E00BB0A1E009D0AAA
:101A70001D00800A1D00630A1C00470A1B002C0A77
:101A80001B00110A1A00F7091A00DD091900C40920
:101A90001900AB091900920917007B0918006309A6
:101AA00017004C09160036091600200916000A090D
:101AB0001500F5081500E0081400CC081400B8085B
:101AC0001400A4081400900813007D0812006B088D
:101AD00013005808120046081200340811002308A9
:101AE00011001208110001081100F0071000E007B2
:101AF0001000D0071000C0071000B0070F00A107AA
:101B0000100091070E0083070F0074070F00650790
:101B10000E0057070E0049070E003B070D002E0769
:101B20000E0020070D0013070D0006070D00F90633
:101B30000C00ED060D00E0060C00D4060C00C806F3
:101B40000C00BC060C00B0060C00A4060B009906A5
:101B50000C008D060B0082060B0077060B006C064E
:101B60000B0061060A0057060B004C060A004206ED
:101B70000A0038060A002E060A0024060A001A0681
:101B80000A001006090007060A00FD050900F40511
:101B90000900EB050900E2050900D9050900D00597
:101BA0000900C7050900BE050900B5050800AD0517
:101BB0000800A50509009C050800940508008C058F
:101BC0000800840508007C050800740508006C0501
:101BD0000700650508005D050700560508004E056D
:101BE00007004705070040050800380507003105D4
:101BF00007002A050700230507001C050600160537
:101C000007000F0507000805060002050700FB0492
:101C10000600F5040700EE040600E8040600E204EE
:101C20000700DB040600D5040600CF040600C90443
:101C30000600C3040600BD040600B7040600B10494
:101C40000500AC040600A6040600A00405009B04E1
:101C5000060095040500900406008A04050085042A
:101C60000500800406007A04050075040500700470
:101C700005006B04050066040500610405005C04B2
:101C8000050057040500520405004D0405004804F2
:101C90000500430405003E0404003A040500350431
:101CA0000500300404002C0405002704040023046C
:101CB00005001E0404001A040400160405001104A3
:101CC00004000D04040009040500040404000004D9
:101CD0000400FC030400F8030400F4030400F00310
:101CE0000400EC030400E8030400E4030400E00340
:101CF0000400DC030400D8030400D4030400D00370
:101D00000400CC030400C8030300C503030024F44B
:101D100004D9201BC40C5C0E9804C4095F0265073B
:101D20007101F405F900FB04B30048048700C10306
:101D300069005803550003034500BE023A008402BF
:101D4000310053022A002902250004022000E40188
:101D50001C00C8011900AF0117009801140084018C
:101D60001300710110006101100051010E004301C8
:101D70000D0036010B002B010B0020010B0015019B
:101D800009000C01090003010800FB000800F30032
:101D90000800EB000700E4000600DE000600D800A3
:101DA0000600D2000600CC000500C7000500C200F6
:101DB0000500BD000400B9000400B5000400B10036
:101DC0000400AD000400A9000400A5000300A20067
:101DD00003009F0004009B0003009800030095008F
:101DE000020093000300900003008D0002008B00AE
:101DF00003008800020086000200840003008100C6
:101E000002007F0002007D0002007B0002007900DA
:101E100002007700010076000200740002007200E8
:101E20000100710002006F0002006D0001006C00F3
:101E300002006A00010069000200670001006600FC
:101E40000100650001006400020062000100610001
:101E50000100600001005F0002005D0001005C0005
:101E600001005B0001005A00010059000100580008
:101E70000100570001005600010055000100540008
:101E80000100530000005300010052000100510006
:101E90000100500001004F0001004E0000004E0004
:101EA00001004D0001004C0001004B0000004B0000
:101EB00001004A00010049000100480000004800FC
:101EC00001004700010046000000460001004500F7
:101ED00000004500010044000100430000004300F1
:101EE00001004200000042000100410000004100EA
:101EF0000100400001003F0000003F0001003E00E3
:101F000000003E0001003D0000003D0001003C00DB
:101F100000003C0000003C0001003B0000003B00D2
:101F200001003A0000003A000100390000003900C9
:101F300001003800000038000000380001003700C0
:101F400000003700010036000000360000003600B7
:101F500001003500000035000000350001003400AC
:101F600000003400000034000100330000003300A2
:101F70000000330001003200000032000000320097
:101F8000010031000000310000003100010030008C
:101F9000000030000000300001002F0000002F0082
:101FA00000002F0000002F0001002E0000002E0076
:101FB00000002E0001002D0000002D0000002D006B
:101FC00000002D0001002C0000002C0000002C005F
:101FD00000002C0001002B0000002B0000002B0053
:101FE00000002B0001002A0000002A0000002A0047
:101FF00000002A000100290000002900000029003B
:10200000000029000000290001002800000028002D
:102010000000280000002800000028000100270020
:102020000000270000002700000027000000270014
:102030000100260000002600000026000000260007
:1020400000002600010025000000250000002500FA
:1020500000002500000025000000250001002400EC
:1020600000002400000024000000240000002400E0
:1020700001002300000023000000230000002300D3
:1020800000002300000023000000230001002200C4
:1020900000002200000022000000220000002200B8
:1020A00000002200010021000000210000002100AA
:1020B000000021000000210000002100000021009C
:1020C000010020000000200000002000000020008F
:1020D0000000200000002000000020000000200080
:1020E00001001F0000001F0000001F0000001F0073
:1020F00000001F0000001F0000001F0001001E0064
:1021000000001E0000001E0000001E00000004373A
:1021100000001E290000511B00005810000010098B
:102120000000CC040000780200004101000062655C
:10213000640A002C2073797374656D2073746F705A
:1021400070656421204865617465725F49443A2076
:10215000004265642068656174696E672066616924
:102160006C65640048656174696E67206661696CBE
:1021700065640045312048656174696E6720666159
:10218000696C65640048656174696E6720666169A1
:102190006C656400020000000000000060000000A8
:1021A0000000FC00000FF00000000007E00000004D
:1021B0000001861FC018700000000000603C0C0089
:1021C0000001830C6010300000000000603C0C0037
:1021D0000001830C303030000000000060000C0073
:1021E0000000030C183000000000000060003F0FEA
:1021F0003C00030C0C6001DF0FE0FE00601C1C06BD
:102200001800060C0C6000F318318300600C0C03FE
:1022100018001E0C0C6000E030398300600C0C03C9
:102220003000030C0C6000C030380F00600C0C0351
:102230003000018C0C6000C03FF8FB00600C0C0308
:102240003000018C0C6030C030018300600C0C0148
:10225000F001818C0C6030C030018300600C0C00F8
:10226000E001818C183030C018318300600C0C40C4
:10227000E001838C301860C00C6187C0E01C0CC08A
:102280006000C30C600FC3F007C0FFC7FC7F07816D
:10229000C0007E1FC000000000000000000000071A
:1022A0000000000000000000000000000000000727
:1022B00000000000001FFFFFFFFFFFFF60000000A5
:1022C0000001FF400000000000FF8000000000004F
:1022D0007F83CF00000C303F87FF80000C301F86CB
:1022E0007980000C000F8C30C7838C30E78C30CFA6
:1022F000C7CC31F38C30DCECEC33B98C30D86C6C5F
:1023000033198C30D06C0C33198C30D86C0C3319D9
:102310008C30DC6C0E3B198C30CF7C079F198C30D5
:10232000C77C038F1940000000000002600000001D
:102330000000061FFFFFFFFFFFF82020506C616EBA
:102340006E657242756666657242797465733A208D
:10235000002046726565204D656D6F72793A2000E8
:10236000436F6D70696C65643A2044656320313653
:1023700020323031380A00207C20417574686F7239
:102380003A2028437265616C6974792043522D317B
:1023900030290A00323031382D30372D33310020CA
:1023A0004C61737420557064617465643A200062F6
:1023B00075676669782D312E312E780A004D61726D
:1023C0006C696E0020536F66747761726520526588
:1023D0007365740A00205761746368646F672052E4
:1023E000657365740A002042726F776E206F757492
:1023F0002052657365740A002045787465726E61B9
:102400006C2052657365740A00506F776572557061
:102410000A0073746172740A006175746F25692E05
:1024200067006572726F722077726974696E6720D7
:10243000746F2066696C650A00456E6473746F7012
:102440007320256320256320256320256300205AFF
:102450003A0020593A0020583A00656E6473746F50
:102460007073206869743A2000446F6E6520736150
:1024700076696E672066696C652E0A004D323900F8
:102480004D3234004D323320257300556E6B6E6F24
:10249000776E20636F6D6D616E643A202200496E25
:1024A000736572742066696C616D656E7420616E0F
:1024B0006420707265737320627574746F6E202867
:1024C0006F72204D313038290A00486F74656E6490
:1024D00020746F6F20636F6C640A00534420636143
:1024E0007264206F6B0A006F70656E526F6F74209C
:1024F0006661696C65640A00766F6C756D652E693E
:102500006E6974206661696C65640A0053442069D1
:102510006E6974206661696C0A0070012C0190017B
:102520002701B0012201C0011D01F00118011002B4
:10253000130130020E016002090190020401C00281
:10254000FF000003FA004003F5008003F000D00311
:10255000EB002004E6007004E100E004DC0040052C
:10256000D700C005D2004006CD00D006C8008007C5
:10257000C3003008BE00F008B900C009B400B00ABA
:10258000AF00B00BAA00D00CA500000EA000500FA9
:102590009B00C01096005012910000148C00C015D2
:1025A0008700B0178200B0197D00D01B7800001E94
:1025B000730040206E0090226900F02464004027E0
:1025C0005F0090295A00E02B5500102E500020305B
:1025D0004B0010324600E033410090353C0010378C
:1025E000370070383200A0392D00B03A2800A03BE7
:1025F0002300603C1E00103D1900903D1400103E69
:102600000F00703E0A00C03E0500003F0000403F42
:10261000FBFF803FF6FFC03FF1FF1000C902100131
:102620002C014001220170011801B0010E01F001DE
:1026300004015002FA00B002F0003003E600D003BB
:10264000DC009004D2007005C800A006BE0000089F
:10265000B400B009AA00D00BA000600E9600601173
:102660008C000015820020197800C01D6E00A02289
:102670006400B0275A00902C500000314600E0342E
:102680003C0010383200903A2800603C1E00A03D0B
:102690001400803E0A00203F000045312054484588
:1026A000524D414C2052554E4157415900424544EC
:1026B00020544845524D414C2052554E41574159A6
:1026C00000546865726D616C2052756E6177617936
:1026D000004531204572723A204D415854454D50C5
:1026E000004572723A204D415854454D50204245A4
:1026F00044004D415854454D5020747269676765D8
:10270000726564004531204572723A204D494E543D
:10271000454D50004572723A204D494E54454D503A
:1027200020424544004D494E54454D502074726935
:10273000676765726564004D383420582059205A07
:10274000204500202F002042403A0020403A004817
:102750006F6D696E67206661696C656400545249EB
:10276000474745524544006F70656E003A20007A35
:102770005F6D696E00795F6D696E00785F6D696E7F
:10278000005265706F7274696E6720656E64737451
:102790006F70207374617475730A00565472617699
:1027A000206D696E005654726176206D696E005618
:1027B00054726176206D696E00566D696E00566DBB
:1027C000696E00566D696E00566D61782045005641
:1027D0006D6178204500566D6178204500566D6129
:1027E00078205A00566D6178205A00566D61782025
:1027F0005A00566D6178205900566D617820590055
:10280000566D6178205900566D6178205800566DDC
:102810006178205800566D61782058004D6F7469BA
:102820006F6E00416D6178204500416D61782045F3
:1028300000416D6178205A00416D6178205A004155
:102840006D6178205900416D6178205900416D61BA
:1028500078205800416D6178205800412D747261D4
:1028600076656C00412D74726176656C00412D7245
:1028700065747261637400412D7265747261637472
:1028800000416363656C00416363656C004D6F7468
:10289000696F6E0056652D6A65726B0056652D6A0C
:1028A00065726B0056652D6A65726B00567A2D6AEB
:1028B00065726B00567A2D6A65726B0056792D6AC7
:1028C00065726B0056792D6A65726B0056792D6AB8
:1028D00065726B0056782D6A65726B0056782D6AAA
:1028E00065726B0056782D6A65726B004D6F746966
:1028F0006F6E0043616E6E6F74206F70656E207333
:10290000756264697220006563686F3A0043522DF6
:1029100031302052656164792E005072696E74699D
:102920006E672E2E2E005072696E74207061757362
:102930006564004D313235004D3234005072696E9D
:10294000742061626F72746564004D3231004E6FA5
:102950002053442063617264004368616E676520A0
:1029600053442063617264004D3231005072696ECD
:10297000742066726F6D2053440053746F70207022
:1029800072696E7400526573756D65207072696E40
:102990007400496E69742E20534420636172640090
:1029A0005061757365207072696E7400436F6E7448
:1029B000726F6C00507265706172650054756E655F
:1029C00000496E666F2073637265656E00426162D6
:1029D0007973746570205A004368616E676520667C
:1029E000696C616D656E74004368616E6765206631
:1029F000696C616D656E74004D3630302042300078
:102A00004261627973746570205A00466C6F77007A
:102A1000466C6F7700466C6F770046616E2073706E
:102A20006565640046616E2073706565640046618B
:102A30006E207370656564004265640042656400E1
:102A4000426564004E6F7A7A6C65004E6F7A7A6CDC
:102A500065004E6F7A7A6C6500537065656400534B
:102A600070656564005370656564004D61696E0052
:102A70004572726F722077726974696E6720746F25
:102A800020454550524F4D210A0000060900FE0026
:102A90000000000001090008FE000005080806000B
:102AA0000040F0C88888987810050808060000C023
:102AB000F88888888888F80505050600012030F820
:102AC00030200508080600002070F820202020E0B3
:102AD0000509090600FF2070A8A8B888887020059D
:102AE00009090600FFE080C0B0A8283028280509A1
:102AF000090600FFF8A88888888888A8F8050A0AC7
:102B00000600FE205050505088A8A8887003030388
:102B100006000340A04048617264636F64656420EE
:102B200044656661756C742053657474696E67736F
:102B3000204C6F616465640A00F4010000F4010038
:102B40000064000000881300000000FA430000FA4F
:102B500043000070410000C8410000A0420000A0F6
:102B6000420000C8430000BE4220286D6D290020AD
:102B7000204D36303320002055004C0046696C61F2
:102B80006D656E74206C6F61642F756E6C6F61641F
:102B9000206C656E677468733A0A0020440020490F
:102BA0000020204D333034205000204400204900C4
:102BB00020204D333031205000504944207365743B
:102BC00074696E67733A0A0020460020420020486C
:102BD0000020204D3134352053004D6174657269F9
:102BE000616C2068656174757020706172616D65DB
:102BF000746572733A0A00204500205A002059007B
:102C000020580020540020530020204D3230352021
:102C1000510020453C6D61785F655F6A65726B3E6F
:102C20000020583C6D61785F785F6A65726B3E206A
:102C3000593C6D61785F795F6A65726B3E205A3CE2
:102C40006D61785F7A5F6A65726B3E0041647661A0
:102C50006E6365643A20513C6D696E5F7365676DA4
:102C6000656E745F74696D655F75733E20533C6D6E
:102C7000696E5F66656564726174653E20543C6D83
:102C8000696E5F74726176656C5F666565647261BA
:102C900074653E0020540020520020204D32303414
:102CA000205000416363656C65726174696F6E20CA
:102CB00028756E6974732F7332293A20503C7072F4
:102CC000696E745F616363656C3E20523C7265742B
:102CD000726163745F616363656C3E20543C74721F
:102CE0006176656C5F616363656C3E0A0020450038
:102CF000205A0020590020204D3230312058004DFC
:102D00006178696D756D20416363656C657261748E
:102D1000696F6E2028756E6974732F7332293A0AB1
:102D200000204500205A0020590020204D32303329
:102D30002058004D6178696D756D20666565647217
:102D4000617465732028756E6974732F73293A0A4C
:102D500000204500205A0020590020204D39322003
:102D6000580053746570732070657220756E6974B5
:102D70003A0A0020204D3230302044300A00202012
:102D80004D3230302044002044697361626C6564C8
:102D90000A0046696C616D656E74207365747469B0
:102DA0006E67733A0020204D3134392043203B2098
:102DB000556E69747320696E2043656C7369757311
:102DC0000A002020473231202020203B005265732A
:102DD000656E643A20006F6B00627573793A2070FB
:102DE000617573656420666F7220696E7075740A10
:102DF00000627573793A2070617573656420666F3F
:102E00007220757365720A00627573793A20707268
:102E10006F63657373696E670A004B494C4C454498
:102E20002E20004B494C4C20636175736564206211
:102E30007920746F6F206D75636820696E616374AB
:102E40006976652074696D65202D206375727265E1
:102E50006E7420636F6D6D616E643A2000506C6516
:102E6000617365207265736574005052494E544514
:102E7000522048414C544544005072696E7465724A
:102E80002068616C7465642E206B696C6C28292045
:102E900063616C6C6564210A000000210024002736
:102EA000002A0000002200250028002B000000203E
:102EB000002300260029000202020202020202048C
:102EC00004040404040404030303030303030301CD
:102ED00001010101010101010204081020408001EB
:102EE0000204081020408001020408102040808065
:102EF0004020100804020100000001020000000050
:102F000000000004030807000000000000000000AB
:102F10000000000000000057726974696E67207439
:102F20006F2066696C653A20006F70656E2066617F
:102F3000696C65642C2046696C653A20006F706589
:102F40006E206661696C65642C2046696C653A2068
:102F50000046696C652073656C65637465640A007E
:102F60002053697A653A200046696C65206F706568
:102F70006E65643A20002066696C653A2000646FD3
:102F8000696E67006672657368004E6F7720004552
:102F90004E4420535542524F5554494E450A002243
:102FA00020706F73002220706172656E743A220087
:102FB000535542524F5554494E452043414C4C20A5
:102FC0007461726765743A22004B494C4C45442E3B
:102FD0002000747279696E6720746F2063616C6C75
:102FE000207375622D67636F64652066696C657315
:102FF000207769746820746F6F206D616E79206C22
:103000006576656C732E204D4158206C6576656C35
:103010002069733A004572726F723A006F70656E84
:10302000206661696C65642C2046696C653A2000F5
:10303000F9EAF2E411241FBECFEFD0E4DEBFCDBF2A
:1030400012E0A0E0B1E0EEE1F1EF01E00BBF02C061
:1030500007900D92A235B107D9F72BE3A2E5B2E0B4
:1030600001C01D92AC3FB207E1F718E1C9E1D8E118
:1030700004C02197FE010E94DDF5C831D107C9F7D0
:103080000E94C2E50C9482F80C9400002F923F92AB
:103090004F925F926F927F928F929F92AF92BF9268
:1030A000CF92DF92EF92FF920F931F93CF93DF9314
:1030B000CDB7DEB7EC970FB6F894DEBF0FBECDBF2D
:1030C00021E02093420B8091253B8D3409F4FCC212
:1030D000843511F40C94602C873411F00C94A42CDA
:1030E0008091233B9091243B8B31910509F467C279
:1030F0004CF497FDE5C2823091052CF1049709F458
:103100001FC2DEC28A35910509F489C244F44C9786
:1031100009F0D6C280E00E946F350C94A62C8B3546
:10312000910509F480C28C35910509F0C9C2A8E463
:103130002A2EA1E03A2EB3E5EB2EBBE0FB2E00E0F9
:10314000D12C10E099C280912301882311F40C94B2
:10315000A62C18E4C12E11E0D12E03E4E02E0BE0E2
:10316000F02E03E51BE082E5A82E82E0B82ED60102
:103170008D916D010E9409358823B9F00E94D634E3
:10318000F5012081211104C020915602222339F03B
:10319000D8012D913D914D915C910E94EFF5F70181
:1031A00060837183828393830AC0F8018081918157
:1031B000A281B381F70180839183A283B383F4E07A
:1031C000EF0EF11C0C5F1F4F2FEFA21AB20A3CE466
:1031D000C31631E0D30659F686E40E94523588239F
:1031E000C9F00E94D63420E030E0A9010E9472F7B5
:1031F000181684F40E94D63420E030E040E752E410
:103200000E9472F6609300017093010180930201A5
:103210009093030180911901882309F4AEC0C090F6
:103220009C17D0909D17E0909E17F0909F17A701D4
:1032300096016091430B7091440B8091450B9091E6
:10324000460B0E9453F187FF08C0C092430BD092F7
:10325000440BE092450BF092460BC090A017D09023
:10326000A117E090A217F090A317A7019601609113
:10327000470B7091480B8091490B90914A0B0E942B
:1032800053F187FF08C0C092470BD092480BE092E1
:10329000490BF0924A0B20E030E046E953E460919C
:1032A000430B7091440B8091450B9091460B0E940B
:1032B00072F7181664F480E090E0A6E9B3E4809316
:1032C000430B9093440BA093450BB093460B20E027
:1032D00030E046E953E46091470B7091480B8091D0
:1032E000490B90914A0B0E9472F7181664F480E023
:1032F00090E0A6E9B3E48093470B9093480BA0932A
:10330000490BB0934A0BC090A417D090A517E0903A
:10331000A617F090A717A701960160914B0B70912B
:103320004C0B80914D0B90914E0B0E9453F187FFF7
:1033300008C0C0924B0BD0924C0BE0924D0BF09218
:103340004E0B20E030E048EC53E460914B0B709161
:103350004C0B80914D0B90914E0B0E9472F71816FA
:1033600064F480E090E0A8ECB3E480934B0B90937E
:103370004C0BA0934D0BB0934E0B8091C40883FD72
:10338000A7C0C0904F0BD090500BE090510BF09025
:10339000520B20915F0B3091600B4091610B50916B
:1033A000620BC701B6010E9453F1882309F490C053
:1033B0008091EF03811132C06091F0037091F103AD
:1033C0008091F2039091F3030E94E4F620910B01A7
:1033D00030910C01621773070CF5C0925F0BD0920D
:1033E000600BE092610BF092620BE7E0F9E28491EE
:1033F0008F010F5F1F4F811103C0E0EBF1E004C0AC
:103400000E945B37F801F3CF84918F010F5F1F4F4C
:10341000882321F00E945B37F801F6CF80904F0B94
:103420009090500BA090510BB090520B20915F0BDD
:103430003091600B4091610B5091620BC501B4015A
:103440000E94EEF56B017C0120E030E0A9010E94B2
:1034500072F787FF04C0F7FAF094F7F8F094E09160
:10346000740B44E0E49FF0011124E95FFE4F2081DA
:10347000318142815381C701B6010E94B9F120E038
:1034800030E04AE754E40E9472F718160CF5809277
:103490005F0B9092600BA092610BB092620BE7E021
:1034A000F9E284918F010F5F1F4F811103C0E1E9A1
:1034B000F1E004C00E945B37F801F3CF84918F01E3
:1034C0000F5F1F4F882321F00E945B37F801F6CF72
:1034D00060913F0170914001072E000C880B990B01
:1034E0000E945AF1209100013091010140910201A6
:1034F000509103010E94B9F12AE037ED43E25CE309
:103500000E94B9F168A379A38AA39BA3E090740BEE
:1035100019821A821B821C82CE0101966C018E01D7
:10352000005E1F4F2FE43BE04BE45BE067E47BE091
:1035300083E49BE00E9475650E9451370C94A62C91
:1035400080E50E945235882329F00E9492346B0155
:103550007C0103C0C12CD12C760183E50E94523539
:10356000882361F00E94D63420E030E04AE754E43A
:103570000E94B9F10E94EBF66B017C010E945BB3E3
:1035800080914F03811105C060E08BEC91E00E94B7
:10359000E5590E9444DFC60ED71EE81EF91E0E94A0
:1035A00044DFDC01CB018C199D09AE09BF09B7FDD1
:1035B00002C00C94A62C80E00E9494D7F0CF0E9409
:1035C000477381110C94A62C80E090E0A0E2B1E456
:1035D00089839A83AB83BC8380E090E0A1E9B3E464
:1035E0008D839E83AF83B88780E090E0A0EAB1E44A
:1035F00089879A87AB87BC8780E50E9452358823EC
:1036000019F00E94A23401C060E068A3BE016F5FA0
:103610007F4FCE0180960E9426B70C94A62C109264
:1036200056020C94A62C209356020C94A62C0E94B1
:10363000D6342B013C01F701208131814281538135
:103640000E94EEF54B015C012DEB37E346E855EBAC
:103650000E9472F787FD18C02DEB37E346E855E36B
:10366000C501B4010E9453F1181674F01F5FB4E055
:10367000EB0EF11C1430A9F0D1018D911D010E94B7
:103680005235882399F3D3CF133011F401E002C0EF
:10369000DD24D394D7014D925D926D927C92139765
:1036A000E5CFDD2019F00E94F23306C0002321F09F
:1036B0008FE59BE00E94E2720E945A810C94A62C36
:1036C0000E94B1A90C94A62C8091233B9091243B9D
:1036D0008337910509F4CDC10CF0C8C08B34910536
:1036E00009F445C50CF068C08831910509F496C20B
:1036F000B4F58231910511F40C94D324BCF497FFF6
:1037000002C00C945D2C823091050CF4B6C1419737
:1037100011F00C945D2C60E087EE91E00E94E55979
:103720005E985E9815985E980C94A62C853191054C
:1037300009F459C23CF4449711F00C945D2CEFEF5E
:10374000F1E013C28631910509F451C2479711F097
:103750000C945D2CE091213BF091223B52C28D31C3
:10376000910511F40C94A62CC4F48A31910509F446
:103770008DC20CF47DC28B31910509F495C24C9732
:1037800011F00C945D2C40E060E08091213B909121
:10379000223B0E9450E20C94A62C8F31910509F433
:1037A000FBC30CF419C38032910509F4A9C38A97AD
:1037B00009F4A8C40C945D2C8936910509F4ADC5B3
:1037C0006CF58335910511F40C94CF24A4F48D3459
:1037D000910509F4D4C40CF4CEC48135910511F4DB
:1037E0000C94BA248235910511F00C945D2C109242
:1037F00055020C94A62C8535910511F40C940725DF
:1038000014F40C94D3248C35910511F40C942025D8
:103810008836910509F4B7C40C945D2C8E36910559
:1038200009F4DCC494F48B36910511F40C94202433
:1038300014F40C9402248C36910509F435C58D36A8
:10384000910509F4ACC50C945D2C8037910509F401
:103850002FC50CF4D6C48137910509F431C58237E0
:10386000910511F40C94A9250C945D2C8232E1E0B1
:103870009E0711F40C94BF290CF07AC08E3B910581
:1038800009F439C7DCF58937910511F40C94A126A8
:10389000F4F48637910511F40C9450263CF48537E6
:1038A000910511F40C9443260C945D2C87379105F7
:1038B00011F40C949E268837910511F00C945D2C20
:1038C00081E08093AB098093AA090C94A62C8C38D4
:1038D000910509F4F2C63CF48D37910511F40C946E
:1038E00032240C945D2C8139910511F40C94A62698
:1038F0008B39910509F42CC50C945D2C8D3C9105F8
:1039000011F40C942328CCF4893C910511F40C9407
:103910006E273CF4883C910511F40C941E270C94FE
:103920005D2C8B3C910511F40C9490278C3C9105F7
:1039300011F40C94AE270C945D2C8C3D910511F480
:103940000C9419294CF4833D910511F00C945D2CD5
:10395000E7E0F9E20C948E288D3D910511F40C946A
:103960002629823E910511F40C9495290C945D2C26
:10397000853F21E0920711F40C947D2B0CF042C09E
:10398000803341E0940711F40C94E72AECF48D3273
:10399000A1E09A0711F40C94F3293CF48C32914085
:1039A00011F40C94CA290C945D2C8E32F1E09F071F
:1039B00011F40C94932A8F32914011F00C945D2CE9
:1039C0000E94047C0C94A62C803931E0930711F4FA
:1039D0000C947A2B4CF48336914011F00C945D2CAE
:1039E000E5E1F0E30C94672B8A39A1E09A0709F42A
:1039F00063C4843F914011F00C945D2C0E94078CAD
:103A00000C94A62C8835E2E09E0711F40C94BC2B94
:103A1000B4F4873F21E0920711F40C94832B14F443
:103A20000C94802B883F41E0940711F40C948F2B69
:103A30008C30924011F40C94B32B0C945D2C8B3889
:103A4000A3E09A0711F40C94A62C3CF48B35924019
:103A500011F40C94BF2B0C945D2C803AF3E09F077B
:103A600009F48DC2873E934011F40C94482C0C94B9
:103A70005D2CE8E1F4E00C94E825A090213BB090A7
:103A8000223B80E50E945235882359F00E949234EF
:103A90006B017C0111E0672B682B692B31F410E07E
:103AA00004C010E0C12CD12C760183E50E94523570
:103AB000882311F40C94AB2C0E94D63420E030E023
:103AC0004AE754E40E94B9F10E94EBF66B017C01D5
:103AD00011110BC0672B682B692B39F4A114B104A9
:103AE00021F0D5018C91811102C010E001C011E0DC
:103AF0000E945BB3112329F061E0C5010E94215AA5
:103B000005C060E084ED91E00E94E55983E0809378
:103B1000420B81E08093410BC114D104E104F10414
:103B2000B1F00E9444DFC60ED71EE81EF91E0E94A7
:103B300044DFDC01CB018C199D09AE09BF09B7FF39
:103B40000EC08091410B81110C94B02C08C0809163
:103B5000410B882321F080E00E9494D7F8CF0E9487
:103B60008BC41092410B0C94A62C84918F010F5F93
:103B70001F4F882321F00E945B37F801F6CF109287
:103B8000EC3A8DE79FE00E94125F8BE1EDE7FFE0EA
:103B9000DE01159601900D928A95E1F780917B0FD9
:103BA00090917C0F9C838B8382EF91E09A83898331
:103BB00040E050E0BE016F5F7F4F80E090E00E94E8
:103BC0003FC1CE0101960E946D65E0EFF1E0849166
:103BD0008F010F5F1F4F882311F40C94A62C0E94B5
:103BE0005B37F801F4CF0E948EA50C94A62C10929E
:103BF0004C0F10924D0F0C94A62C803209F41082B9
:103C0000319680818111F9CF40E061E08091213BC4
:103C10009091223B0E9450E20C94A62C80E090E010
:103C2000A8E4B2E489839A83AB83BC8318A219A267
:103C30001AA21BA21CA21DA21EA21FA28091F53BCC
:103C4000882359F020E0AE014F5F5F4FBE01605EF8
:103C50007F4FCE0184960E9421A880914D0F88232A
:103C600019F081E080934C0F0E94BC9B0C94A62C11
:103C700010924C0F0E94E09B80E192E09093390BF0
:103C80008093380B0E9492330C94A62C80914D0F98
:103C9000882311F40C94A62C83E50E9452358111DF
:103CA0000C94B52C0C94A62C83E40E94093588232F
:103CB00009F450C0E2E4F2E084918F010F5F1F4FDE
:103CC000882321F00E945B37F801F6CF80913A3AC1
:103CD000811103C0E5E1F2E012C0BE016F5F7F4FCA
:103CE00087E39AE30E94D95D8E010F5F1F4FF801B1
:103CF00081918F01882349F10E945B37F8CF84912D
:103D00008F010F5F1F4F882301F10E945B37F8017D
:103D1000F6CFE0ECCE2EE2E0DE2EE12CF12C20E01E
:103D20008091C40890E00E2C02C0959587950A9466
:103D3000E2F780FD96C2BFEFEB1AFB0AE2E0CE0E7F
:103D4000D11CF5E0EF16F10459F78AE00E945B37C9
:103D50000C94A62C80914D0F882339F080914C0F44
:103D6000882319F0EFE1F2E003C0E1E3F2E028C0BC
:103D700084918F010F5F1F4F882321F00E945B37D2
:103D8000F801F6CF6091E83A7091E93A8091EA3A09
:103D90009091EB3A4AE00E940C3A8FE20E945B3726
:103DA0006091E43A7091E53A8091E63A9091E73A71
:103DB0004AE00E940C3A8AE00E945B370C94A62CE1
:103DC00084918F010F5F1F4F882311F40C94A62C50
:103DD0000E945B37F801F4CF80914D0F882311F4D6
:103DE0000C94A62C87E39AE30E94E1CC87E39AE344
:103DF0000E94B45D10924B0F10924A0F80914D0FAC
:103E0000882311F40C94A62C0091213B1091223BA5
:103E10000E94C5DFB801CE0180960E9494E18C011A
:103E2000892B11F40C94A62C68A179A16115710558
:103E300011F06C5F7F4F19821C8222E0A801CE0135
:103E400001960E947C64811102C0F12C14C0CE0145
:103E500001960E94ADC08823C1F361E0CE010196B6
:103E60000E94BD5D009789F325EEDC012C931C8236
:103E70000E9486CAF82ECE0101960E945F35F1108D
:103E800003C0EFE5F2E024C0E1E5F2E084917F01B8
:103E9000BFEFEB1AFB0A882321F00E945B37F70182
:103EA000F5CFF80181918F01882319F00E945B37CB
:103EB000F8CF8AE00E945B371092E83A1092E93A14
:103EC0001092EA3A1092EB3A0E943AE00C94A62C37
:103ED00084917F012FEFE21AF20A882321F00E94D9
:103EE0005B37F701F5CFD8018D918D01882319F04B
:103EF0000E945B37F8CF8EE20E945B370C94A62CB1
:103F000080914C0F81110E945BB380914D0F8823EB
:103F100011F40C94A62C80E50E945235882319F0E8
:103F20000E94C63403C080E50E940935182F482F2F
:103F300061E08091213B9091223B0E9450E283E519
:103F40000E945235882381F00E94A234AB01BC014B
:103F50004093E83A5093E93A6093EA3A7093EB3A27
:103F600087E39AE30E9414CD80914D0F882319F0C6
:103F700081E080934C0F11110C94A62C75CE80918A
:103F8000213B9091223B21E020934B0F40E060E0E9
:103F90000E9450E20C94A62C0E946D9B7B018C0128
:103FA00020E831E541E050E00E945AF5C9016DE694
:103FB00071E00E9496F54B015C01C801B70120E158
:103FC0003EE040E050E00E945AF5CA01B90128E104
:103FD00030E040E050E00E945AF5762E672EC62E63
:103FE000D72EFCE32F2E312C412C512CC801B701C8
:103FF000A20191010E945AF5F62EE72ECA01B901DD
:10400000A20191010E945AF5CB018E010F5F1F4F53
:104010008114910499F0EF92FF927F936F936F92C6
:104020007F92BF92AF929F928F928FE992E09F937F
:104030008F931F930F930E94EBF013C0A114B10450
:10404000B1F0EF92FF927F936F936F927F92BF9246
:10405000AF928FE892E09F938F931F930F930E94EC
:10406000EBF00FB6F894DEBF0FBECDBF30C0CD2849
:1040700079F0EF92FF927F936F936F927F9283E834
:1040800092E09F938F931F930F930E94EBF0E9CFE1
:10409000892B69F0EF92FF927F936F938BE792E009
:1040A0009F938F931F930F930E94EBF0DACFEF92C1
:1040B000FF9287E792E09F938F931F930F930E9445
:1040C000EBF00F900F900F900F900F900F9060E01B
:1040D000C8010E94215AE7E0F9E284917F019FEF35
:1040E000E91AF90A882321F00E945B37F701F5CF1E
:1040F000B80183EB92E00E9486B28AE00E945B37AF
:104100000C94A62C83E50E945235882311F40C945C
:10411000A62C0E94B234E82E80E50E9452358823F6
:1041200011F40C94A62C0E94B234182F87FF02C001
:104130000C94A62C89E40E945235882341F00E94F9
:10414000C63481110C948E2EECE5F5E00BC089E4A9
:104150000E940935F6CF3196A5E0E938FA0711F447
:104160000C948E2E84911813F6CF0C94272E0E9457
:10417000BC9B0C94A62C0E94E09B0C94A62C0E9445
:10418000F59B0C94A62C88E690E00E94793A811168
:104190000C94A62C8091C40883FF02C00C94A62C1A
:1041A00083E50E9452358823A9F00E94D6340E94EC
:1041B000E4F6CB010E948A590E94D63420E030E018
:1041C0004AEA52E40E9453F1181624F00E94F59B2B
:1041D0000E948BC40E94C9EA0C94A62C8EE40E9413
:1041E0005235882311F40C94A62C0E94A2346093BB
:1041F000F13B7093F23B8093F33B9093F43B0C9430
:10420000A62C83E50E940935882359F083E50E9496
:104210005235882319F00E94B23401C080E08093A7
:10422000C408E7E0F9E284918F010F5F1F4F81110D
:1042300003C0EEECF2E004C00E945B37F801F3CF5C
:1042400084918F010F5F1F4F882321F00E945B37FD
:10425000F801F6CF8091C40881115BCDEAECF2E061
:1042600018C0BB24B394B20E222319F08CE20E9432
:104270005B37F60185919491FC0184918F010F5F6A
:104280001F4F882321F00E945B37F801F6CF2B2DBA
:1042900052CD84918F010F5F1F4F882309F455CDB4
:1042A0000E945B37F801F5CF109239010C94A62CCF
:1042B00085ED92E00E9430D70E94CB7B0C94A62C17
:1042C00083E50E945235811103C0E7E0F9E20DC099
:1042D0000E94B2348D3320F4809341010C94A62CBB
:1042E0008CE3809341010C94A62C84918F010F5F85
:1042F0001F4F882321F00E945B37F801F6CF4091D1
:10430000410150E060E070E08EED92E00E9433B237
:104310008AE00E945B370C94A62C89E690E00E940C
:10432000793A811111C0E5EEF2E084918F010F5FBF
:104330001F4F882321F00E945B37F801F6CF0E94BF
:1043400062AC8AE00E945B371092420B0C94A32E61
:1043500083E50E945235882311F40C94A62C0E9408
:10436000B234182F8D3308F01CE31093C03B0E9429
:1043700044DF6B017C01212F30E0A8EEB3E00E9406
:1043800087F5C60ED71EE81EF91EC092BC3BD09220
:10439000BD3BE092BE3BF092BF3B0C94A62C8DE659
:1043A00090E00E94793A81110C94A62C8091C40867
:1043B00083FF02C00C94A62C83E50E9452358AA785
:1043C000811106C082E50E945235182F8823C9F159
:1043D0000E94D6340E94E4F6CB010E948A590E94C2
:1043E000D63420E030E04AEA52E40E9453F1181635
:1043F00014F40C94C62C0E94F59B0E948BC460910F
:10440000750B7091760B072E000C880B990B0E9490
:104410005AF16B017C018090F0039090F103A09021
:10442000F203B090F303A50194010E9472F71816ED
:1044300014F40C94D22C2AA5222311F40C94CA2C27
:1044400011E00E94C9EA112311F40C94A62C81E01A
:10445000809339011FA618AA19AA1AAA1DAA1EAA72
:104460001FAA18AE1BA619AE3CE33AAF4CE14BAF06
:1044700056E45CAFC12CD12C60E8E62E7FEBF72E22
:10448000412C512C32016091750B7091760B072EE7
:10449000000C880B990B0E945AF1162F072F88A742
:1044A00099A79601A7010E9453F18823F1F020916A
:1044B000F0033091F1034091F2035091F3038AA588
:1044C000612F702F811109C088A599A50E9453F111
:1044D000881F8827881F8BA70CC088A599A50E94D4
:1044E00053F187FD85C11BA604C01C2D0D2DE8A628
:1044F000F9A60E9444DF6B017C01DC01CB012DA9F0
:104500003EA94FA958AD821B930BA40BB50BB7FD69
:104510003BC0D701C60188519C4FAF4FBF4F8DABF9
:104520009EABAFABB8AF0E9462ACE8EEF2E0849114
:104530005F019FEFA91AB90A882321F00E945B3717
:10454000F501F5CF4114510461047104B9F0D301B0
:10455000C201805F984DAF4FBF4FBC01CD016C19B8
:104560007D098E099F0928EE33E040E050E00E946B
:104570005AF5CA01B9010E94BB3A03C08FE30E94F9
:104580005B378AE00E945B3780E00E9494D70E94EC
:1045900044DF6093B43B7093B53B8093B63B9093FC
:1045A000B73B2090F0033090F103A091F203ABAB46
:1045B000B091F303BCAB9101AD01612F702F88A5C1
:1045C00099A50E94EEF54B015C0120E030E0A901C5
:1045D0000E9472F787FF04C0B7FAB094B7F8B0949E
:1045E000411451046104710459F420E030E040E8C2
:1045F0005FE3C501B4010E9453F187FF0DC00AC0FB
:1046000020E030E040E450E4C501B4010E9472F7BC
:10461000181614F426013701EBA5EE2391F12FA50E
:1046200038A949A95AA9211531054105510541F07B
:10463000D701C601821B930BA40BB50BB7FD21C09C
:1046400091014BA95CA969AD7AAD8BAD9CAD0E947F
:10465000EEF520E030E040EC5FE30E9453F187FD8F
:10466000C7C0D701C601805A9541AF4FBF4F8FA732
:1046700098ABA9ABBAAB29AE3AAE9BA99BAFACA99C
:10468000ACAF80913901882309F4B2C041145104C0
:104690006104710429F4C12ED02EE8A4F9A4F3CE4C
:1046A000B0E1CB1AB7E2DB0AE108F108C418D5087B
:1046B000E608F708F7FE9CC0EECF8091C40883FFA0
:1046C00002C00C94A62C83E50E945235882311F475
:1046D0000C94A62C0E94D6340E94E4F6683771052B
:1046E00014F068E770E07093DD3B6093DC3B0E9460
:1046F000C1AF0C94A62C8091C40883FF02C00C9417
:10470000A62C83E50E9452358CAB81110C94DC2CD5
:1047100082E50E94523581110C94DC2C0C94A62C5D
:10472000411451046104710411F40C94992DD301C6
:10473000C201805F984DAF4FBF4FBC01CD016C19D6
:104740007D098E099F0928EE33E040E050E00E9489
:104750005AF5CA01B9010E94BB3A8AE00E945B3750
:1047600080E00E9494D70E9444DF6093B43B709332
:10477000B53B8093B63B9093B73B2090D5023090E9
:10478000D602A091D702AFA7B091D802BBAB9101DE
:10479000AD01612F702F88A599A50E94EEF54B0100
:1047A0005C0120E030E0A9010E9472F787FF04C09D
:1047B000B7FAB094B7F8B09441145104610471048D
:1047C00011F00C949E2D20E030E040E85FE3C5013D
:1047D000B4010E9453F187FF02C00C94AA2DEAA5F0
:1047E000E1110C94AE2D8091390181110C94E62DCC
:1047F00080913901882311F40C94A62C0E948BC45B
:104800000C94A62C80E50E945235811106C083E5E8
:104810000E945235882361F006C00E94B234811193
:104820000C94A62CF4CF0E94A2346F3F710510F0B7
:104830006FEF70E07093EE036093ED030C94A62C81
:1048400080E50E945235811106C01092EE0310924D
:10485000ED030C94A62C0E94A234672B11F00C944B
:10486000A62CF3CF8CE40E940935882381F00E94A6
:10487000D6346B017C0120E030E0A9010E9472F780
:1048800087FF0BC0F7FAF094F7F8F09406C0C12C3C
:10489000D12C30E8E32E30E4F32EF7FAF094F7F859
:1048A000F094CCA2DDA2EEA2FFA280E090E0A0E214
:1048B000B1E489839A83AB83BC8380E090E0A1E973
:1048C000B3E48D839E83AF83B88780E090E0A0EA55
:1048D000B1E489879A87AB87BC8788E50E94523507
:1048E000882379F088E50E945235882319F00E94C8
:1048F000D63403C060E070E0CB0169837A838B8398
:104900009C8389E50E945235882379F089E50E94CD
:104910005235882319F00E94D63403C060E070E05D
:10492000CB016D837E838F8398878AE50E94523501
:10493000882379F08AE50E945235882319F00E9475
:10494000D63403C060E070E0CB0169877A878B873B
:104950009C8718A219A21AA21BA220E0AE01405EF9
:104960005F4FBE016F5F7F4FCE0184960E94E18250
:104970000C94A62C0E940DB00E949FB41092EE03DE
:104980001092ED0368EE73E080E090E00E94EF5833
:1049900060E088E293E00E94E5590C94A62C2093F5
:1049A00055020C94A62C83E50E9452358823A1F071
:1049B0000E94D63420E030E04AE754E40E94B9F186
:1049C0000E94EBF66093420170934301809344018F
:1049D000909345010C94A62C88E50E94093581111D
:1049E0000C94022E89E50E94093581110C94022E47
:1049F0008AE50E94093581110C94022E85E40E94FB
:104A0000093581110C94022E0E949FB49FC783E543
:104A10000E940935882309F499C70E94D63420E002
:104A200030E04AE754E40E94B9F10E94EBF660934B
:104A3000B83B7093B93B8093BA3B9093BB3B86C71E
:104A400098E4C92E91E0D92E25ECE22E28E0F22E32
:104A500010E0F60181916F010E940935882309F465
:104A60006EC0133009F063C00E94D6344B015C0164
:104A700020E030E040EA51E40E9453F187FF4EC04D
:104A8000A50194016091D1087091D2088091D3085A
:104A90009091D4080E9472F62B013C019B01AC015D
:104AA0006091990370919A0380919B0390919C036C
:104AB0000E94B9F16093990370939A0380939B03CA
:104AC00090939C03A30192016091C9037091CA0362
:104AD0008091CB039091CC030E94B9F16093C903FC
:104AE0007093CA038093CB039093CC036091A90386
:104AF0007091AA038091AB039091AC030E9458F18E
:104B0000A30192010E94B9F10E94EBF66093A90300
:104B10007093AA038093AB039093AC038092D10867
:104B20009092D208A092D308B092D40808C00E94F4
:104B3000D634D7016D937D938D939C9313971F5F0C
:104B4000B4E0EB0EF11C143009F083CF0E9446B4A0
:104B5000FDC60E945BB383E50E945235882311F4A1
:104B60000C945C1B0E94A2346230710511F00C940D
:104B70005C1B0E9454DA8BE50E945B376091A83B76
:104B80007091A93B8091AA3B9091AB3B42E00E947F
:104B9000D73A4091AC3B5091AD3B6091AE3B7091A8
:104BA000AF3B86E393E00E9450B24091B03B5091FE
:104BB000B13B6091B23B7091B33B83E393E00E94C1
:104BC00050B28DE50E945B378AE00E945B37BEC61B
:104BD00084918F010F5F1F4F882321F00E945B3764
:104BE000F801F6CF60E088E094E00E94238161E064
:104BF00081E094E00E94238161E086EF93E00E94CF
:104C0000238161E086EE93E00E94238160E08DEDD8
:104C100093E00E94238161E083ED93E00E94238171
:104C200060E089EC93E00E94238160E081EC93E0F6
:104C30000E94238160E083EB93E00E94238160E087
:104C400085EA93E00E94238160E086E993E00E9478
:104C5000238160E088E893E00E94238160E082E79E
:104C600093E00E94238160E081E693E00E9423812B
:104C700060E08CE493E00E94238161E089E393E0AB
:104C80000E94238163C68091213B9091223BFC01CD
:104C90002081222309F4B2CD60E00E94215A56C639
:104CA0000091213B1091223B83E0D12C40E08150C8
:104CB000E9F0D8019C91292F2B7F2134C1F711965F
:104CC0002C912133A1F7913421F0953421F441E066
:104CD00002C0DD24D39498012E5F3F4F89012F5FDE
:104CE0003F4FF80190819032C9F3E1CF442369F03E
:104CF000E7E0F9E284917F012FEFE21AF20A8823BC
:104D000021F00E945B37F701F5CFDD2069F0E0EE7E
:104D1000F4E084917F013FEFE31AF30A882321F046
:104D20000E945B37F701F5CFD8018D918D01882363
:104D300011F40C94A51E0E945B37F6CF0E9414B8A4
:104D400005C61092AB091092AA0900C683E50E941D
:104D50005235882319F00E94A23402C060E070E04E
:104D60008B01112702301105D4F0E5E1F0E38491C5
:104D70008F010F5F1F4F811103C0E4EEF4E004C008
:104D80000E945B37F801F3CF84918F010F5F1F4FB3
:104D9000882309F4DBC50E945B37F801F5CF88E46E
:104DA0000E9452358823A9F00E94A2346A3A710504
:104DB0003CF06530B1E07B072CF064E071E002C0AC
:104DC0006AEA70E0F801EE0FFF1FE351F74F7183BD
:104DD000608386E40E9452358823A9F00E94A234A1
:104DE000F801EE0FFF1FEF50F74F718360836F3FA5
:104DF000710519F014F06FEF70E077FF02C060E00A
:104E000070E07183608382E40E945235882309F444
:104E10009DC50E94A2346530710534F06A36710573
:104E20002CF069E670E002C065E070E0000F111F31
:104E3000F801E751F74F7183608388C588EC90E0F3
:104E40000E94793A811182C584E40E940935882341
:104E500009F441C00E94D6346B017C0111E020E0CE
:104E600030E0A9010E9453F1811101C010E01093BC
:104E7000210320E030E0A901C701B6010E9453F1EF
:104E8000882349F10E94D634E091950E24E0E29FF8
:104E9000F0011124E35EFC4F60837183828393836E
:104EA00020E030E0A90160911D0370911E03809104
:104EB0001F03909120030E9453F181110CC080E0E8
:104EC00090E0A0EEBFE380931D0390931E03A09398
:104ED0001F03B09320030E942BB138C5E8E4EE2EE7
:104EE000E1E0FE2E03EB1EE0F3ECCF2EFEE0DF2E22
:104EF000D7018D917D010E940935882349F00E94D8
:104F0000D6340E94EBF6F801608371838283938329
:104F10000C5F1F4FC016D10659F70E94A1B216C5EB
:104F200068E4E62E61E0F62E0DEB13E07DECC72E73
:104F300073E0D72ED7018D917D010E94093588231A
:104F400039F00E94D634F8016083718382839383A1
:104F50000C5F1F4FC016D10669F7F8C483E50E94A5
:104F600052358823A1F00E94D6346093B503709324
:104F7000B6038093B7039093B8036093B103709323
:104F8000B2038093B3039093B40310E001C011E027
:104F900080E50E945235882359F00E94D6346093F0
:104FA000B5037093B6038093B7039093B80310E0F2
:104FB00082E50E945235882359F00E94D6346093CE
:104FC000B9037093BA038093BB039093BC0310E0C2
:104FD00084E50E945235882359F00E94D6346093AC
:104FE000B1037093B2038093B3039093B403AEC440
:104FF000112309F4ABC44091B5035091B6036091FD
:10500000B7037091B8038CE095E00E9450B24091D4
:10501000B9035091BA036091BB037091BC0389E05E
:1050200095E00E9450B24091B1035091B20360915B
:10503000B3037091B40386E095E00E9450B28AE019
:105040000E945B3783C481E50E940935882351F0B3
:105050000E9492346093D1037093D2038093D30360
:105060009093D40383E50E940935882351F00E9470
:10507000D6346093E9037093EA038093EB03909333
:10508000EC0384E50E940935882351F00E94D63450
:105090006093E5037093E6038093E7039093E8033E
:1050A00088E50E940935882351F00E94D634609328
:1050B0008D0370938E0380938F039093900389E503
:1050C0000E940935882351F00E94D63460939103E1
:1050D0007093920380939303909394038AE50E94C4
:1050E0000935882351F00E94D6346093950370935C
:1050F0009603809397039093980385E40E94093563
:10510000882309F423C40E94D634609399037093D2
:105110009A0380939B0390939C0318C484918F01FE
:105120000F5F1F4F882321F00E945B37F801F6CFF5
:1051300083E50E940935882321F00E94C6348093BC
:105140001901E4E4F5E084918F010F5F1F4F88237C
:1051500021F00E945B37F801F6CF80911901882376
:1051600019F0ECE3F5E002C0E0E4F5E084918F0192
:105170000F5F1F4F811103C0E4E3F5E004C00E94FC
:105180005B37F801F3CF84918F010F5F1F4F8823A6
:1051900021F00E945B37F801F6CF40919C175091A7
:1051A0009D1760919E1770919F1782E395E00E9472
:1051B00050B24091A0175091A1176091A217709121
:1051C000A3178FE295E00E9450B24091A41750912E
:1051D000A5176091A6177091A7178CE295E00E9421
:1051E00050B2E4E2F5E084918F010F5F1F4F8823F6
:1051F00021F00E945B37F801F6CF40E050E066E90D
:1052000073E482E295E00E9450B240E050E066E92B
:1052100073E48FE195E00E9450B240E050E068EC0A
:1052200073E48CE195E00E9450B28AE00E945B3703
:105230008DC383E50E945235882309F487C30E94F9
:10524000A2347093400160933F0180C38DED90E0E4
:105250000E94793A81117AC383E50E945235811107
:1052600003C0E7E0F9E23BC00091950E10E00E9418
:10527000A234000F111FF801E35CFE4F71836083BD
:105280008091950E90E08C01000F111F000F111FEF
:105290009801295F3E4F7901880F991FFC01E35C5B
:1052A000FE4F60817181072E000C880B990B0E94C4
:1052B0005AF12AE037ED43E25CE30E94B9F1F801CC
:1052C000E650F54C20813181428153810E94B9F131
:1052D000D7016D937D938D939C93139737C38491DE
:1052E0008F010F5F1F4F882321F00E945B37F80169
:1052F000F6CF85E40E945B378091950E805D0E9419
:105300005B37E091950EF0E0EE0FFF1FE35CFE4F80
:105310006081718184E595E00E946DB285E20E9412
:105320005B378AE00E945B3711C380E50E94093534
:10533000882309F40BC30E94A2346B017C0183E52E
:105340000E945235882321F00E94A2348B0102C0B2
:105350000FEF1FEFC8010196039708F0F7C2D7FCC3
:10536000F5C22C2DECE5F5E089E895E034912317A2
:1053700009F46DC431968E179F07C1F76BC48AE597
:105380000E94523581118FC483E50E9452358111EC
:105390008AC4DCC283E50E945235882319F00E943A
:1053A000A23402C064E071E079A368A380E50E94A2
:1053B0005235882339F00E94A2346938B3E17B0763
:1053C00030F402C068EE73E07A83698304C088E831
:1053D00093E19A838983BE01605E7F4FCE0101967F
:1053E0000E9406E0B3C285E40E945235811110C0CC
:1053F00080E50E940935882391F00E94D63460939D
:10540000DC087093DD088093DE089093DF0807C006
:105410000E94B234882361F3E5E1F0E371C089E4CE
:105420000E940935882381F00E94D6342CEA35EC9D
:1054300047E25EE30E94B9F16093E4087093E508E7
:105440008093E6089093E70884E40E940935882356
:1054500081F00E94D6342CEA35EC47E25EE30E94EC
:1054600072F66093E0087093E1088093E2089093ED
:10547000E308E7E0F9E284918F010F5F1F4F882373
:1054800021F00E945B37F801F6CF4091DC08509183
:10549000DD086091DE087091DF0881E995E00E94E7
:1054A00050B22CEA35EC47E25EE36091E40870917B
:1054B000E5088091E6089091E7080E9472F6AB013A
:1054C000BC018DE895E00E9450B22CEA35EC47E231
:1054D0005EE36091E0087091E1088091E2089091AC
:1054E000E3080E94B9F1AB01BC0189E895E00E9494
:1054F00050B28AE00E945B3729C20E945B37F801F4
:1055000084918F010F5F1F4F8111F7CFE5E9F5E01F
:1055100084918F010F5F1F4F882309F417C20E94E7
:105520005B37F801F5CF83E50E940935182F8823F2
:1055300071F00E94D6340E94E4F670930C016093DF
:105540000B0121E0672B09F020E02093EF0380E5B9
:105550000E940935882359F020910B0130910C01EC
:10556000232B11F00E94C6348093EF03EFC1111179
:10557000EDC1E7E0F9E284918F010F5F1F4F8823AF
:1055800021F00E945B37F801F6CF8091EF0388236A
:1055900019F066E072E002C069E072E08CEB95E021
:1055A0000E9486B260910B0170910C018BEA95E02C
:1055B0000E946DB2E7EAF5E084918F010F5F1F4F03
:1055C000882309F4C3C10E945B37F801F5CF80E559
:1055D0000E940935882351F00E94D6346093210936
:1055E00070932209809323099093240989E40E94EF
:1055F0000935882381F00E94D6342CEA35EC47E245
:105600005EE30E94B9F160931D0970931E098093B7
:105610001F099093200984E40E940935882381F0B2
:105620000E94D6342CEA35EC47E25EE30E9472F623
:105630006093190970931A0980931B0990931C09B0
:10564000E7E0F9E284918F010F5F1F4F882321F07B
:105650000E945B37F801F6CF409121095091220951
:10566000609123097091240987ED95E00E9450B262
:105670002CEA35EC47E25EE360911D0970911E094A
:1056800080911F09909120090E9472F6AB01BC0124
:1056900083ED95E00E9450B22CEA35EC47E25EE3E0
:1056A0006091190970911A0980911B0990911C0948
:1056B0000E94B9F1AB01BC018FEC95E00E9450B2A1
:1056C0008AE00E945B3742C10E945B37F8018491F7
:1056D0008F010F5F1F4F8111F7CFEBEDF5E0849144
:1056E0008F010F5F1F4F882309F430C10E945B3781
:1056F000F801F5CF0E945BB329C10E940ED726C1E5
:105700000E94CAD523C183E50E940935882321F070
:105710000E94C63491E089270E94C6D117C181E05A
:105720008093023B0E9432861092023B882309F448
:105730000DC1E7E0F9E284918F010F5F1F4F8111E6
:1057400003C0EAEEF5E004C00E945B37F801F3CF36
:1057500084918F010F5F1F4F882309F4F7C00E94C7
:105760005B37F801F5CF80914C0F882309F4EEC028
:1057700081E080934F0FEAC00E942284E7C08BE54E
:1057800092E00E94793A8111E1C085E50E940935D5
:105790008823D9F10091950E10E00E94D6346B0158
:1057A0007C0120E030E0A9010E9472F787FF04C06D
:1057B000F7FAF094F7F8F094000F111F000F111F83
:1057C000F801E75EFC4FC082D182E282F382009151
:1057D000950EE4E00E9F80011124075E1C4F20E02F
:1057E00030E04AE754E4D8016D917D918D919C9110
:1057F0000E9472F718164CF480E090E0AAE7B4E437
:10580000F80180839183A283B3838CE40E940935DD
:10581000882309F49BC00091950E10E00E94D634B5
:105820006B017C0120E030E0A9010E9472F787FF44
:1058300004C0F7FAF094F7F8F094000F111F000F6E
:10584000111FF801EB5EFC4FC082D182E282F3822D
:105850000091950EF4E00F9F800111240B5E1C4F08
:1058600020E030E04AE754E4D8016D917D918D91BC
:105870009C910E9472F718160CF068C080E090E0CE
:10588000AAE7B4E4F80180839183A283B3835EC066
:1058900081E08093230110927C0383E50E945235BE
:1058A000882339F00E94C634811150C00E948DDADD
:1058B0004DC083E50E940935F7CF0E94B1A946C0CB
:1058C000F090233B0E945BB3FF2029F1E7E0F9E26F
:1058D00084918F010F5F1F4F882321F00E945B3757
:1058E000F801F6CF84E50E945B376F2D70E080E011
:1058F00090E04AE00E940C3A80E20E945B37E7E0C9
:10590000F6E084918F010F5F1F4F8823F9F00E940A
:105910005B37F801F6CF1092740BE7E0F9E284915F
:105920008F010F5F1F4F882321F00E945B37F80122
:10593000F6CF6091740B70E085EF95E00E946DB238
:105940008AE00E945B3702C00E94B1A91092420B0C
:105950000E9470DAF8C111110C94751D0C946E1D23
:1059600080E00E9494D70C94971D0E94A234AB0152
:10597000BC014093E83A5093E93A6093EA3A709355
:10598000EB3A87E39AE30E9414CDE0CF0E94BC9BE0
:105990000C94FF21A5019401C701B6010E9472F782
:1059A00018161CF489EF92E002C08CEE92E060E0E1
:1059B0000E94E5590C9420220E94D6340E94E4F6FD
:1059C000683771050CF01BC17093DD3B6093DC3BC5
:1059D0000E94C1AF0E94D63420E030E040EA50E49B
:1059E0000E9472F7181614F40E94BC9B6091DC3B75
:1059F0007091DD3B072E000C880B990B0E945AF129
:105A00002091D5023091D6024091D7025091D80210
:105A10000E9472F718161CF489E193E002C08AE034
:105A200093E060E00E94E55981E080933901809124
:105A3000740B8093950E1BA61CA61DA61EA61DAA60
:105A40001EAA1FAA18AE1AA619AEECE3EAAFFCE133
:105A5000FBAF26E42CAFC12CD12C40E8E42E5FEB49
:105A6000F52E412C512C32016091DC3B7091DD3BD5
:105A7000072E000C880B990B0E945AF1162F072F46
:105A800088A799A79601A7010E9453F1882301F1E5
:105A90002091D5023091D6024091D7025091D80280
:105AA0008CA9612F702F811109C088A599A50E942A
:105AB00053F1881F8827881F8AA70EC088A599A53B
:105AC0000E9453F187FF02C00C94F8231AA604C069
:105AD0001C2D0D2DE8A6F9A60E9444DF6B017C0168
