:100000000C948B140C94BC140C94BC140C94BC1461
:100010000C94BC140C94BC140C94BC140C94BC1420
:100020000C94BC140C94BC140C94BC140C94BC1410
:100030000C94BC140C94BC140C94BC140C94BC1400
:100040000C94BC140C94AF810C94BC140C94BC1490
:100050000C94BC140C94BC140C94A7B20C9448C21D
:100060000C94BC140C94F7350C9421360C94BC14ED
:100070000C94BC140C94BC140C94BC140C94BC14C0
:100080000C94BC140C94BC140C94BC140C94BC14B0
:100090000C94BC140C94BC140C94BC140C94BC14A0
:1000A0000C94BC140C94BC140C94BC140C94BC1490
:1000B0000C94BC140C94BC140C94BC140C94BC1480
:1000C0000C94BC140C94BC140C94BC140C94BC1470
:1000D0000C94BC140C94BC140C94BC140C94BC1460
:1000E0000C94BC14B4BFB7BFA6BFAABFB0BFEEBFCD
:1000F000BBBFBFBFC5BFC9BFCDBFD3BFD7BFDBBFAE
:10010000EEBFE1BFE5BFE9BF62C167C16CC176C1A7
:1001100080C1F9C18AC192C19AC1A4C1AEC1B8C19E
:10012000C7C1D1C1F9C1DBC1E5C1EFC1084AD73BA5
:100130003BCE016E84BCBFFDC12F3D6C74319ABDB6
:1001400056833DDA3D00C77F11BED9E4BB4C3E91DA
:100150006BAAAABE000000803F05A84CCDB2D44EC9
:10016000B93836A9020C50B9918688083CA6AAAACB
:100170002ABE000000803F000C94F9420C94BAC2E1
:100180000C94B7BF0C944D590C94F9C10C94DBBF7F
:100190000C9450D60C94DBC10C94F6700C94B0BF48
:1001A0000C9476C10C9467C10C94A1730C9427A78E
:1001B0000C94999E0C948D9E0C942D730C946F7CD2
:1001C0000C946FA00C94D1C10C94CDC20C94E5BFDB
:1001D0000C94D4480C94BBBF0C942FBD0C94C7C195
:1001E0000C94E1BF0C94E5C10C948AC10C94CF42ED
:1001F0000C94B1450C94C5BF0C94CDBF0C94B8C100
:100200000C947A7A0C9424710C944DA30C940C48A1
:100210000C94FF790C94B24A0C94E6CC0C940A75B9
:100220000C9492C10C947C460C9465A00C94B5C2BD
:100230000C94D7BF0C94B8C20C94FCD80C9491BF0A
:100240000C943B790C94E9BF0C94B62B0C946AA0E7
:100250000C94EEBF0C9493BF0C94939E0C948CA2C0
:100260000C94A4C10C9444470C94AEC10C942F7E02
:100270000C9496BF0C94D3BF0C94F2710C946AC387
:100280000C9462C10C940D710C94C9BF0C94B52BE5
:100290000C94EFC10C949C730C94BFBF0C9474A08D
:1002A0000C94AABF0C946CC10C9491430C9492735F
:1002B0000C94A97F0C94A17B0C94D59E0C942EBA1F
:1002C0000C9497730C94B4BF0C9407C50C9492C211
:1002D0000C9430BA0C949AC10C9480C10C94A6BFB3
:1002E0004E414E494E495459494E46CDCCCC3D0A1B
:1002F000D7233C17B7D13877CC2B329595E6241FFE
:10030000B14F0A000020410000C84200401C4620B6
:10031000BCBE4CCA1B0E5AAEC59D74434F4D4D55C5
:100320004E49434154494F4E0044525952554E0094
:100330004552524F525300494E464F004543484F95
:100340000047322F47332062616420706172616D13
:1003500065746572730A00536C6565702E2E2E00ED
:10036000436C69636B20746F20726573756D652EC5
:100370002E2E004E6F206D6F76652E00456E642028
:1003800066696C65206C6973740A00426567696E02
:100390002066696C65206C6973740A00286E6F2092
:1003A00066696C6529005344207072696E74696EC9
:1003B00067206279746520004E6F7420534420706A
:1003C00072696E74696E670A0043757272656E7445
:1003D0002066696C653A200046696C652064656C2E
:1003E000657465643A0044656C6574696F6E206677
:1003F00061696C65642C2046696C653A2000507216
:10040000696E742074696D653A20003C03370330CF
:100410000329031B036F66660044454255473A00B3
:100420004B494C4C45442E20004D31313320530074
:100430006F6B004B38323030204F66662E002C2018
:10044000002C2000544845524D414C5F50524F54AF
:10045000454354494F4E004155544F5245504F5219
:10046000545F53445F53544154555300454D4552D6
:1004700047454E43595F5041525345520043415303
:10048000455F4C494748545F4252494748544E459E
:10049000535300544F47474C455F4C4947485453CA
:1004A00000534F4654574152455F504F57455200F5
:1004B0004255494C445F50455243454E54004C45CB
:1004C00056454C494E475F44415441005A5F505293
:1004D0004F4245004155544F4C4556454C005052F3
:1004E000494E545F4A4F420050524F475245535372
:1004F000004155544F5245504F52545F54454D5052
:1005000000564F4C554D45545249430045455052B5
:100510004F4D0053455249414C5F584F4E5F584F25
:100520004646004649524D574152455F4E414D4562
:100530003A4D61726C696E20312E312E3920284778
:1005400069746875622920534F555243455F434F84
:1005500044455F55524C3A68747470733A2F2F6754
:1005600069746875622E636F6D2F434F4E53554CFF
:10057000697441532F4D61726C696E2D4B38323066
:10058000302050524F544F434F4C5F5645525349C1
:100590004F4E3A312E30204D414348494E455F542D
:1005A0005950453A4B383230302045585452554412
:1005B00045525F434F554E543A3120555549443AC0
:1005C00032623764656133622D383434652D3461AD
:1005D00062312D616139362D626236343036363003
:1005E000376436650A002F2F20004D3134352053F3
:1005F0003C696E6465783E206F7574206F6620726A
:10060000616E67652028302D31290A0020540020B2
:100610005200416363656C65726174696F6E3A2064
:100620005000205A00205900580020204D61783A8F
:100630002000205A00205900580020204D696E3AB1
:1006400020004F6E20004F666600536F6674206571
:100650006E6473746F70733A200020466C6F773A43
:100660002000000136372603FFFFFF353C3D380EE2
:10067000FFFFFF312E303F12FFFFFFFF28FF0C0965
:10068000080CFFFF1A1C18FFFF2A09440AFF432029
:10069000643A0020693A0020703A00496E76616C35
:1006A00069642065787472756465720A0043290A6A
:1006B0000061626C656420286D696E2074656D70E0
:1006C0002000436F6C6420657874727564657320D4
:1006D000617265200020643A0020693A0020703A77
:1006E000004E6F2063617365206C696768740A004F
:1006F000454550524F4D204F4B0A00416374697677
:10070000652045787472756465723A2000496E768A
:10071000616C69642065787472756465720A00257D
:1007200069730025696D2025697300256968202596
:10073000696D202569730025696420256968202575
:10074000696D202569730025697920256964202554
:1007500069682025696D20256973004B494C4C451B
:10076000442E200053544F505045442E20005072C8
:10077000696E7465722073746F707065642064753F
:100780006520746F206572726F72732E20466978CF
:1007900020746865206572726F7220616E642075C6
:1007A0007365204D39393920746F20726573746117
:1007B00072742E202854656D70657261747572654F
:1007C0002069732072657365742E205365742069E7
:1007D00074206166746572207265737461727469E5
:1007E0006E67290A004E6F20436865636B73756DF1
:1007F0002077697468206C696E65206E756D62651E
:10080000722C204C617374204C696E653A20004E46
:100810006F20436865636B73756D2077697468201A
:100820006C696E65206E756D6265722C204C61730B
:1008300074204C696E653A2000636865636B73755C
:100840006D206D69736D617463682C204C617374E5
:10085000204C696E653A20004C696E65204E756DBE
:10086000626572206973206E6F74204C617374200E
:100870004C696E65204E756D6265722B312C204C73
:10088000617374204C696E653A20004D313130003F
:100890004D33310053442072656164206572726F7C
:1008A000720A00446F6E65207072696E74696E67BB
:1008B0002066696C650A0020496E76616C69642067
:1008C0006578747275646572200000000000000095
:1008D0000000000000000000484300004843000002
:1008E000484343616E6E6F74206F70656E20737540
:1008F00062646972200050726F746563746564206D
:1009000050696E0A0046696C616D656E742075737E
:1009100065643A200053746174733A20002C204CB3
:100920006F6E67657374206A6F623A2000546F744B
:10093000616C2074696D653A200053746174733A78
:1009400020002C204661696C65643A20002C20460A
:10095000696E69736865643A20005072696E7473D9
:100960003A200053746174733A2000454550524F49
:100970004D206461746173697A65206572726F726B
:100980002E0A00290A002062797465733B20637285
:1009900063200053657474696E67732053746F72BB
:1009A0006564202800290A002062797465733B2061
:1009B00063726320002073746F72656420736574C2
:1009C00074696E67732072657472696576656420F8
:1009D0002800202863616C63756C6174656429214B
:1009E0000A0020213D2000454550524F4D204352E2
:1009F00043206D69736D61746368202D20287374C2
:100A00006F7265642920002053697A653A20004995
:100A10006E6465783A2000204D61726C696E3D56B7
:100A20003535290A0028454550524F4D3D00454572
:100A300050524F4D2076657273696F6E206D6973E9
:100A40006D61746368200048617264636F646564FB
:100A50002044656661756C742053657474696E67B3
:100A600073204C6F616465640A002823000028230A
:100A7000000064000000102700000000FA4300009E
:100A8000FA430000A0400000C8410080804200807E
:100A9000804200002045000016442D2D2D2D2D2DC7
:100AA000007C4D61726C696E7C002D2D2D2D2D2DDD
:100AB00000687474703A2F2F6D61726C696E66777E
:100AC0002E6F726700687474703A2F2F6D61726CAC
:100AD000696E66772E6F72670020312E312E3900D5
:100AE0002020506C616E6E6572427566666572425A
:100AF000797465733A20002046726565204D656DF6
:100B00006F72793A2000436F6D70696C65643A20AA
:100B100044656320313620323031380A00207C2091
:100B2000417574686F723A20284B383230302C206F
:100B300040434F4E53554C69744153290A0032309B
:100B400031382D30382D303100204C6173742055F0
:100B50007064617465643A2000312E312E390A00C8
:100B60004D61726C696E0020536F667477617265B7
:100B70002052657365740A00205761746368646F5E
:100B8000672052657365740A002042726F776E2089
:100B90006F75742052657365740A0020457874651A
:100BA000726E616C2052657365740A00506F7765D0
:100BB0007255700A0073746172740A006175746F03
:100BC00025692E67006572726F7220777269746989
:100BD0006E6720746F2066696C650A00456E6473E9
:100BE000746F70732025632025632025632025639F
:100BF00000205A3A0020593A0020583A00656E64A5
:100C000073746F7073206869743A2000446F6E6566
:100C100020736176696E672066696C652E0A004DE7
:100C2000323900436172642072656D6F76656400CD
:100C30004361726420696E73657274656400526505
:100C400073656E643A20006F6B0020746F6F206CC8
:100C50006F6E6720657874727573696F6E2070723D
:100C60006576656E7465640A0020636F6C64206548
:100C70007874727573696F6E2070726576656E74C4
:100C800065640A00627573793A20706175736564F2
:100C900020666F7220696E7075740A0062757379D0
:100CA0003A2070617573656420666F722075736594
:100CB000720A00627573793A2070726F636573739C
:100CC000696E670A004B494C4C45442E20004B4945
:100CD0004C4C2063617573656420627920746F6F7A
:100CE000206D75636820696E616374697665207430
:100CF000696D65202D2063757272656E7420636F57
:100D00006D6D616E643A2000506C65617365207290
:100D100065736574005052494E5445522048414C09
:100D2000544544005072696E7465722068616C7439
:100D300065642E206B696C6C28292063616C6C657E
:100D400064210A00656E7175657565696E6720229C
:100D5000000000000000000000000000000000484B
:100D600042000048420000804000000000576172CD
:100D70006E696E673A20486F6D696E672042756DC7
:100D8000702044697669736F72203C20310A000438
:100D900004080000A0400000A04000000040000047
:100DA00048430000484300004843FFFFFF20286DF0
:100DB0006D290020440020490020204D333034208C
:100DC000500020440020490020204D333031205075
:100DD000005049442073657474696E67733A0A0061
:100DE00020460020420020480020204D313435208C
:100DF00053004D6174657269616C2068656174753A
:100E00007020706172616D65746572733A0A0020BA
:100E10005A0020590020204D323036205800486FAB
:100E20006D65206F66667365743A0A002045002080
:100E30005A00205900205800205400205300202040
:100E40004D32303520510020453C6D61785F655F43
:100E50006A65726B3E0020583C6D61785F785F6A0E
:100E600065726B3E20593C6D61785F795F6A65728F
:100E70006B3E205A3C6D61785F7A5F6A65726B3EAB
:100E800000416476616E6365643A20513C6D696E21
:100E90005F7365676D656E745F74696D655F7573AB
:100EA0003E20533C6D696E5F666565647261746572
:100EB0003E20543C6D696E5F74726176656C5F664E
:100EC000656564726174653E002054002052002004
:100ED000204D323034205000416363656C6572618F
:100EE00074696F6E2028756E6974732F7332293A96
:100EF00020503C7072696E745F616363656C3E2064
:100F0000523C726574726163745F616363656C3EC9
:100F100020543C74726176656C5F616363656C3EFE
:100F20000A00204500205A0020590020204D323070
:100F3000312058004D6178696D756D20416363659E
:100F40006C65726174696F6E2028756E6974732F99
:100F50007332293A0A00204500205A002059002007
:100F6000204D3230332058004D6178696D756D2009
:100F70006665656472617465732028756E69747343
:100F80002F73293A0A00204500205A0020590020DA
:100F9000204D39322058005374657073207065728B
:100FA00020756E69743A0A0020204D32303020449A
:100FB000300A0020204D3230302044002044697334
:100FC00061626C65640A0046696C616D656E7420CF
:100FD00073657474696E67733A0020204D3134393B
:100FE0002043203B20556E69747320696E20436551
:100FF0006C736975730A002020473231202020204D
:101000003B00486F6D696E67206661696C656400BE
:10101000545249474745524544006F70656E003A47
:1010200020007A5F6D696E00795F6D696E00785F90
:101030006D696E005265706F7274696E6720656EBF
:101040006473746F70207374617475730A004D3229
:1010500034004D323320257300556E6B6E6F776E02
:1010600020636F6D6D616E643A20220020746F6F93
:10107000206C6F6E6720657874727573696F6E206F
:1010800070726576656E7465640A0020636F6C64C7
:1010900020657874727573696F6E207072657665FD
:1010A0006E7465640A004578747275646572004DEB
:1010B0006F7665205A004D6F76652059004D6F762A
:1010C000652058005072657061726500496E6974E0
:1010D00069616C697A6520454550524F4D00436FF8
:1010E0006E74726F6C00526573746F726520666106
:1010F000696C73616665004C6F616420736574741C
:10110000696E677300496E697469616C697A6520FC
:10111000454550524F4D0053746F7265207365748E
:1011200074696E67730046696C616D656E74004D1D
:101130006F74696F6E0054656D706572617475725D
:1011400065004D61696E005072656865617420418B
:10115000425320636F6E660050726568656174204B
:10116000504C4120636F6E66005049442D4400503E
:1011700049442D44005049442D49005049442D49CB
:10118000005049442D50005049442D500020022069
:1011900046616374002002204661637400200220CF
:1011A0004D6178002002204D6178002002204D61C1
:1011B00078002002204D696E002002204D696E00EB
:1011C0002002204D696E004F6666004F6E20004180
:1011D00075746F74656D700046616E20737065651F
:1011E0006420320046616E207370656564203200B1
:1011F00046616E20737065656420320046616E2022
:10120000737065656420310046616E20737065659A
:101210006420310046616E20737065656420310082
:101220004265640042656400426564004E6F7A7AEC
:101230006C65004E6F7A7A6C65004E6F7A7A6C65D9
:1012400000436F6E74726F6C0053746F726520731D
:10125000657474696E67730042656400426564007A
:10126000426564004E6F7A7A6C65004E6F7A7A6CD4
:1012700065004E6F7A7A6C650046616E207370650A
:1012800065640046616E2073706565640046616E3A
:101290002073706565640054656D70657261747566
:1012A00072650056652D6A65726B0056652D6A651C
:1012B000726B0056652D6A65726B00567A2D6A65F1
:1012C000726B00567A2D6A65726B0056792D6A65CD
:1012D000726B0056792D6A65726B0056792D6A65BE
:1012E000726B0056782D6A65726B0056782D6A65B0
:1012F000726B0056782D6A65726B004D6F74696F62
:101300006E004573746570732F6D6D004573746561
:1013100070732F6D6D005A73746570732F6D6D004F
:101320005A73746570732F6D6D00597374657073A3
:101330002F6D6D005973746570732F6D6D00587348
:10134000746570732F6D6D005873746570732F6DB5
:101350006D004D6F74696F6E0053746570732F6DFF
:101360006D004A65726B00416363656C6572617400
:10137000696F6E0056656C6F6369747900436F6EB8
:1013800074726F6C0046696C2E204469612E0046B1
:10139000696C2E204469612E004F6666004F6E20F6
:1013A000004520696E206D6D3300436F6E74726F5F
:1013B0006C0043616E6E6F7420656E74657220738D
:1013C00075626469723A2000052E2E004D61696EC7
:1013D0000024F4D43050C38E20C2A24017828B70F8
:1013E00011127A910D816CD90AA861E108C758667B
:1013F00007615143061E4B5D05C145A7041A411103
:1014000004093D9803713931034036DB026533919D
:1014100002D4305402802E1D02632CEE01752AC5C1
:1014200001B028A001102781018F2564012B244BD6
:1014300001E0223401AC211F018D200D01801FFC31
:1014400000841EED00971DDF00B81CD200E61BC60D
:1014500000201BBC00641AB200B219A8000A19A02F
:10146000006A189900D117910040178B00B51684B7
:101470000031167E00B31579003A157300C7146F5A
:101480000058146A00EE1366008813630025135E8B
:1014900000C7125B006C12570015125400C11151A5
:1014A0000070114F0021114B00D61049008D1047DC
:1014B000004610440002104200C00F4000800F3E62
:1014C00000420F3C00060F3B00CB0E3800930E3756
:1014D000005C0E3500270E3400F30D3200C10D31D3
:1014E00000900D3000600D2E00320D2D00050D2CEA
:1014F00000D90C2B00AE0C2900850C29005C0C27B0
:1015000000350C27000E0C2600E80B2400C40B2429
:1015100000A00B23007D0B23005A0B2100390B2167
:1015200000180B2000F80A1F00D90A1E00BB0A1E73
:10153000009D0A1D00800A1D00630A1C00470A1B4B
:10154000002C0A1B00110A1A00F7091A00DD0919FC
:1015500000C4091900AB091900920917007B09188A
:1015600000630917004C09160036091600200916F9
:10157000000A091500F5081500E0081400CC08144D
:1015800000B8081400A4081400900813007D081285
:10159000006B0813005808120046081200340811A6
:1015A00000230811001208110001081100F00710B3
:1015B00000E0071000D0071000C0071000B0070FB0
:1015C00000A107100091070E0083070F0074070F9A
:1015D0000065070E0057070E0049070E003B070D78
:1015E000002E070E0020070D0013070D0006070D43
:1015F00000F9060C00ED060D00E0060C00D4060C08
:1016000000C8060C00BC060C00B0060C00A4060BBB
:101610000099060C008D060B0082060B0077060B66
:10162000006C060B0061060A0057060B004C060A08
:101630000042060A0038060A002E060A0024060A9E
:10164000001A060A001006090007060A00FD05092F
:1016500000F4050900EB050900E2050900D90509B8
:1016600000D0050900C7050900BE050900B5050839
:1016700000AD050800A50509009C050800940508B3
:10168000008C050800840508007C05080074050826
:10169000006C050700650508005D05070056050894
:1016A000004E0507004705070040050800380507FC
:1016B00000310507002A050700230507001C050661
:1016C00000160507000F05070008050600020507BC
:1016D00000FB040600F5040700EE040600E804061B
:1016E00000E2040700DB040600D5040600CF040670
:1016F00000C9040600C3040600BD040600B70406C2
:1017000000B1040500AC040600A6040600A0040510
:10171000009B04060095040500900406008A040559
:101720000085040500800406007A040500750405A0
:1017300000700405006B04050066040500610405E3
:10174000005C04050057040500520405004D040523
:101750000048040500430405003E0404003A040563
:101760000035040500300404002C0405002704049F
:1017700000230405001E0404001A040400160405D6
:1017800000110404000D040400090405000404040D
:101790000000040400FC030400F8030400F4030444
:1017A00000F0030400EC030400E8030400E4030475
:1017B00000E0030400DC030400D8030400D40304A5
:1017C00000D0030400CC030400C8030300C50303D6
:1017D0000024F404D9201BC40C5C0E9804C4095FD7
:1017E0000265077101F405F900FB04B300480487A2
:1017F00000C10369005803550003034500BE023AC7
:10180000008402310053022A00290225000402202C
:1018100000E4011C00C8011900AF01170098011471
:101820000084011300710110006101100051010ECC
:101830000043010D0036010B002B010B0020010BB2
:1018400000150109000C01090003010800FB000854
:1018500000F3000800EB000700E4000600DE0006CD
:1018600000D8000600D2000600CC000500C7000525
:1018700000C2000500BD000400B9000400B500046A
:1018800000B1000400AD000400A9000400A500039D
:1018900000A20003009F0004009B000300980003C7
:1018A000009500020093000300900003008D0002E9
:1018B000008B000300880002008600020084000301
:1018C00000810002007F0002007D0002007B000218
:1018D0000079000200770001007600020074000227
:1018E0000072000100710002006F0002006D000133
:1018F000006C0002006A000100690002006700013C
:101900000066000100650001006400020062000141
:101910000061000100600001005F0002005D000145
:10192000005C0001005B0001005A00010059000149
:101930000058000100570001005600010055000149
:101940000054000100530000005300010052000148
:101950000051000100500001004F0001004E000046
:10196000004E0001004D0001004C0001004B000042
:10197000004B0001004A000100490001004800003E
:101980000048000100470001004600000046000139
:101990000045000000450001004400010043000034
:1019A000004300010042000000420001004100002D
:1019B0000041000100400001003F0000003F000125
:1019C000003E0000003E0001003D0000003D00011F
:1019D000003C0000003C0000003C0001003B000017
:1019E000003B0001003A0000003A0001003900000D
:1019F0000039000100380000003800000038000104
:101A000000370000003700010036000000360000FB
:101A100000360001003500000035000000350001EF
:101A200000340000003400000034000100330000E6
:101A300000330000003300010032000000320000DB
:101A400000320001003100000031000000310001CF
:101A5000003000000030000000300001002F0000C6
:101A6000002F0000002F0000002F0001002E0000BA
:101A7000002E0000002E0001002D0000002D0000AF
:101A8000002D0000002D0001002C0000002C0000A3
:101A9000002C0000002C0001002B0000002B000097
:101AA000002B0000002B0001002A0000002A00008B
:101AB000002A0000002A000100290000002900007F
:101AC0000029000000290000002900010028000072
:101AD0000028000000280000002800000028000165
:101AE000002700000027000000270000002700005A
:101AF000002700010026000000260000002600004C
:101B0000002600000026000100250000002500003E
:101B10000025000000250000002500000025000130
:101B20000024000000240000002400000024000025
:101B30000024000100230000002300000023000017
:101B40000023000000230000002300000023000108
:101B500000220000002200000022000000220000FD
:101B600000220000002200010021000000210000EE
:101B700000210000002100000021000000210000E1
:101B800000210001002000000020000000200000D3
:101B900000200000002000000020000000200000C5
:101BA00000200001001F0000001F0000001F0000B7
:101BB000001F0000001F0000001F0000001F0001A8
:101BC000001E0000001E0000001E0000001E00009D
:101BD00000043700001E290000511B0000581000AF
:101BE0000010090000CC0400007802000041010050
:101BF0000020573A004520436F6F6C696E672E2EA8
:101C00002E00452048656174696E672E2E2E0020D7
:101C1000573A0042656420636F6F6C696E672E2EC1
:101C20002E004265642068656174696E672E2E2EF1
:101C300000205A3A0020593A0020436F756E7420F4
:101C4000583A0020453A00205A3A0020593A0058A4
:101C50003A003A004361703A004B64200023646507
:101C600066696E652044454641554C545F004B699A
:101C7000200023646566696E652044454641554CE5
:101C8000545F004B70200023646566696E652044D4
:101C9000454641554C545F00504944204175746F8E
:101CA00074756E652066696E69736865642120507D
:101CB000757420746865206C617374204B702C20DF
:101CC0004B6920616E64204B6420636F6E73746196
:101CD0006E74732066726F6D2062656C6F77206919
:101CE0006E746F20436F6E66696775726174696F99
:101CF0006E2E680A00504944204175746F74756EE9
:101D000065206661696C6564212074696D656F7515
:101D1000740A00453120544845524D414C205255DB
:101D20004E415741590042454420544845524D4187
:101D30004C2052554E4157415900546865726D61AF
:101D40006C2052756E61776179004531204865617C
:101D500074696E67206661696C6564004265642021
:101D600068656174696E67206661696C65640048C6
:101D7000656174696E67206661696C6564005049CD
:101D800044204175746F74756E65206661696C6579
:101D900064212054656D706572617475726520747C
:101DA0006F6F20686967680A00204B643A20002042
:101DB0004B693A2000204B703A20000A20436C61A6
:101DC0007373696320504944200A002054753A20F7
:101DD00000204B753A2000206D61783A2000206D7C
:101DE000696E3A200020643A200020626961733AEB
:101DF0002000504944204175746F74756E652066EB
:101E000061696C6564212042616420657874727533
:101E1000646572206E756D6265720A0050494420D7
:101E20004175746F74756E652073746172740A0005
:101E3000486F6D652025732573257320666972735D
:101E400074002066697273740A005A0059005800C1
:101E5000486F6D6520004F6666736574732061700E
:101E6000706C696564004572723A20546F6F206629
:101E700061722100546F6F206661722066726F6D0F
:101E8000207265666572656E636520706F696E7439
:101E90000A0000002110422063308440A550C66033
:101EA000E770088129914AA16BB18CC1ADD1CEE117
:101EB000EFF13112100273325222B5529442F7728E
:101EC000D662399318837BB35AA3BDD39CC3FFF367
:101ED000DEE36224433420040114E664C774A4449E
:101EE00085546AA54BB528850995EEE5CFF5ACC5B7
:101EF0008DD55336722611163006D776F66695566E
:101F0000B4465BB77AA719973887DFF7FEE79DD706
:101F1000BCC7C448E5588668A778400861180228FD
:101F20002338CCC9EDD98EE9AFF9488969990AA956
:101F30002BB9F55AD44AB77A966A711A500A333ACD
:101F4000122AFDDBDCCBBFFB9EEB799B588B3BBBA6
:101F50001AABA66C877CE44CC55C222C033C600C5D
:101F6000411CAEED8FFDECCDCDDD2AAD0BBD688DF6
:101F7000499D977EB66ED55EF44E133E322E511EAD
:101F8000700E9FFFBEEFDDDFFCCF1BBF3AAF599F46
:101F9000788F8891A981CAB1EBA10CD12DC14EF1E6
:101FA0006FE18010A100C230E3200450254046704C
:101FB0006760B9839893FBA3DAB33DC31CD37FE377
:101FC0005EF3B1029012F322D2323542145277629C
:101FD0005672EAB5CBA5A89589856EF54FE52CD547
:101FE0000DC5E234C324A0148104667447642454EC
:101FF0000544DBA7FAB79987B8975FE77EF71DC757
:102000003CD7D326F2369106B0165766767615463B
:1020100034564CD96DC90EF92FE9C899E9898AB9A6
:10202000ABA94458654806782768C018E10882388B
:10203000A3287DCB5CDB3FEB1EFBF98BD89BBBABB6
:102040009ABB754A545A376A167AF10AD01AB32ADB
:10205000923A2EFD0FED6CDD4DCDAABD8BADE89D06
:10206000C98D267C076C645C454CA23C832CE01C2B
:10207000C10C1FEF3EFF5DCF7CDF9BAFBABFD98F96
:10208000F89F176E367E554E745E932EB23ED10E7B
:10209000F01E7C3C3E5E2B3D3F2F5B5D3B2C2A229D
:1020A0005C005072656865617420504C4120456E3B
:1020B00064005072656865617420504C4100507234
:1020C000656865617420504C41204265640050721F
:1020D0006570617265005072656865617420414287
:1020E0005320426564005072656865617420414206
:1020F0005320456E640050726568656174204142EA
:10210000530050726570617265004D343238005072
:1021100072656865617420504C4100436F6F6C6458
:102120006F776E005072656865617420414253009C
:1021300044697361626C6520737465707065727355
:10214000004D38340053657420686F6D65206F66EC
:10215000667365747300486F6D65205A00473238A6
:10216000205A00486F6D65205900473238205900C9
:10217000486F6D652058004732382058004175740B
:102180006F20686F6D6500473238004D6F766520AF
:1021900061786973004D61696E004D6F76652058F6
:1021A000004D6F76652059004D6F7665205A0045C9
:1021B00078747275646572004D6F766520302E31CB
:1021C0006D6D004D6F766520316D6D004D6F7665DC
:1021D0002031306D6D004D6F766520617869730038
:1021E0004578747275646572004D6F7665205A008B
:1021F0004D6F76652059004D6F76652058001000B0
:10220000C90210012C014001220170011801B00126
:102210000E01F00104015002FA00B002F000300398
:10222000E600D003DC009004D2007005C800A006D0
:10223000BE000008B400B009AA00D00BA000600ED8
:10224000960060118C000015820020197800C01DD6
:102250006E00A0226400B0275A00902C500000317C
:102260004600E0343C0010383200903A2800603CD0
:102270001E00A03D1400803E0A00203F0000202FD9
:10228000002042403A0020403A0000101010101088
:10229000100000141414141414000015151515154D
:1022A0001500001C1F11111F000000061918031350
:1022B0000C00040E1F041C000000000E1315110E6C
:1022C00000001C10181705060500040A0A0A0A1166
:1022D000110E0C12120C00000000001F1511151F2A
:1022E000000000000000010204040000001C1C0C9F
:1022F00004040402010000000000040810000000B3
:10230000000025753A2530327500253032753A25A2
:10231000303275002D2D2D00534400202020202028
:102320002000202020200053442063617264206F2D
:102330006B0A006F70656E526F6F74206661696C16
:1023400065640A00766F6C756D652E696E69742020
:102350006661696C65640A00534420696E69742083
:102360006661696C0A00453120544845524D414C24
:102370002052554E4157415900424544205448454A
:10238000524D414C2052554E4157415900546865B9
:10239000726D616C2052756E617761790057726958
:1023A00074696E6720746F2066696C653A20006FEF
:1023B00070656E206661696C65642C2046696C6589
:1023C0003A20006F70656E206661696C65642C2030
:1023D00046696C653A200046696C652073656C65DA
:1023E000637465640A002053697A653A200046697F
:1023F0006C65206F70656E65643A20002066696CBC
:10240000653A2000646F696E6700667265736800E4
:102410004E6F772000454E4420535542524F55543D
:10242000494E450A002220706F73002220706172AD
:10243000656E743A2200535542524F5554494E45E9
:102440002043414C4C207461726765743A22004B02
:10245000494C4C45442E2000747279696E67207493
:102460006F2063616C6C207375622D67636F6465A8
:102470002066696C6573207769746820746F6F20BB
:102480006D616E79206C6576656C732E204D4158B8
:10249000206C6576656C2069733A004572726F72C4
:1024A0003A006265640A002C2073797374656D20AC
:1024B00073746F7070656421204865617465725F24
:1024C00049443A20004265642068656174696E671A
:1024D000206661696C65640048656174696E672097
:1024E0006661696C65640045312048656174696E98
:1024F00067206661696C65640048656174696E6730
:10250000206661696C6564004531204572723A202D
:102510004D415854454D50004572723A204D415836
:1025200054454D5020424544004D415854454D506E
:102530002074726967676572656400453120457271
:10254000723A204D494E54454D50004572723A2022
:102550004D494E54454D5020424544004D494E543E
:10256000454D5020747269676765726564004D3827
:102570003420582059205A20450056547261762044
:102580006D696E005654726176206D696E00565406
:10259000726176206D696E00566D696E00566D69C8
:1025A0006E00566D696E00566D6178204500566D5F
:1025B0006178204500566D6178204500566D617840
:1025C000205A00566D6178205A00566D6178205A65
:1025D00000566D6178205900566D6178205900567B
:1025E0006D6178205900566D6178205800566D61F4
:1025F00078205800566D61782058004D6F74696FCF
:102600006E00416D6178204500416D617820450084
:10261000416D6178205A00416D6178205A00416D0A
:102620006178205900416D6178205900416D6178D1
:10263000205800416D6178205800412D74726176F8
:10264000656C00412D74726176656C00412D726578
:10265000747261637400412D7265747261637400F9
:10266000416363656C00416363656C004D6F746921
:102670006F6E0000002100240027002A002D00308A
:1026800000330001010000040107010A01000022DB
:1026900000250028002B002E00310034000201002C
:1026A00000050108010B010000200023002600297D
:1026B000002C002F00320000010000030106010978
:1026C0000105050505070508080808020202020AB7
:1026D0000A080804040404010101010101010103C5
:1026E00003030303030303040707070C0C0C0C0C80
:1026F0000C0C0C0202020206060606060606060B73
:102700000B0B0B0B0B0B0B010210202008081020E9
:10271000401020408002010201080402010102046D
:10272000081020408080402010080402018004022C
:102730000180402010080402010804020101020483
:102740000810204080010204081020408000000A88
:102750000B02090C0D0E0807030401000000000025
:102760000000000000000000000000000000000069
:102770000000000000000000001211100000000026
:102780000000000000000000000000000000000049
:102790000000004B383230302052656164792E00E1
:1027A0005072696E74696E672E2E2E005072696EBB
:1027B0007420706175736564005072696E74206175
:1027C000626F72746564005072696E742066726F15
:1027D0006D2053440053746F70207072696E7400E2
:1027E000526573756D65207072696E74004E6F204E
:1027F0005344206361726400506175736520707288
:10280000696E7400436F6E74726F6C005072657005
:102810006172650054756E6500496E666F20736362
:102820007265656E004261627973746570205A004A
:102830004261627973746570205A00466C6F77004C
:10284000466C6F7700466C6F770046616E20737040
:1028500065656420320046616E2073706565642092
:10286000320046616E2073706565642032004661F7
:102870006E20737065656420310046616E20737050
:1028800065656420310046616E2073706565642063
:1028900031004265640042656400426564004E6F29
:1028A0007A7A6C65004E6F7A7A6C65004E6F7A7A30
:1028B0006C65005370656564005370656564005312
:1028C00070656564004D61696E004572726F7220BB
:1028D00077726974696E6720746F20454550524F56
:1028E0004D210A006F70656E206661696C65642C0D
:1028F0002046696C653A200043616E6E6F74206FEC
:1029000070656E2073756264697220006563686F1C
:102910003A00FCD850D611241FBECFEFD1E2DEBF63
:10292000CDBF00E00CBF13E0A0E0B2E0E2EEFCECB3
:1029300001E00BBF02C007900D92A033B107D9F799
:1029400023E1A0E3B3E001C01D92AB30B207E1F791
:1029500014E1CAE8D4E100E006C021970109802F04
:10296000FE010E94C5E2C938D10780E00807A9F737
:102970000E94ACD00C945FE60C9400002F923F9222
:102980004F925F926F927F928F929F92AF92BF927F
:10299000CF92DF92EF92FF920F931F93CF93DF932B
:1029A000CDB7DEB7CF55D1090FB6F894DEBF0FBE55
:1029B000CDBF11E01093BC0680912D068D3409F433
:1029C00072C6843511F40C94C128873411F00C942C
:1029D000052920902B0630902C0624E02216310485
:1029E00009F449C54CF437FC5AC680913A0242E0DA
:1029F000241631047CF529C05AE52516310409F462
:102A00008FC534F49CE12916310409F472C547C618
:102A1000ABE52A16310409F487C5BCE52B16310451
:102A200009F03DC636E4232E32E0332E4AECE42E84
:102A300046E0F42E2FE434E03DA72CA75FEFC52E2F
:102A40005CE0D52E00E010E0AEC581110C940C299D
:102A50000C940729882311F40C9407290E94152F40
:102A600082E50E94082F882309F436C10E948C2E2B
:102A70004B015C0120E030E0A9010E9401DE8823C7
:102A800009F456C120914F043091500440915104F3
:102A9000509152042CA73DA74EA75FA780915304E5
:102AA00090915404A0915504B091560488AB99AB11
:102AB000AAABBBAB2091D6063091D7064091D80681
:102AC0005091D9062CAB3DAB4EAB5FAB8091DA0693
:102AD0009091DB06A091DC06B091DD0688AF99AF3E
:102AE000AAAFBBAF6CA57DA58EA59FA50E9401DEF8
:102AF00081110DC028AD39AD4AAD5BAD68A979A98A
:102B00008AA99BA90E9401DE882309F411C111E062
:102B100092E02916310409F010E020E030E0A9012C
:102B2000C501B4010E9401DE881F8827881F18177D
:102B300059F020E030E040E85FEB28962CAF3DAF45
:102B40004EAF5FAF28970AC080E090E0A0E8BFE3F7
:102B500028968CAF9DAFAEAFBFAF28972CA53DA5F3
:102B60004EA55FA56CA97DA98EA99FA90E94CDE263
:102B700024966CAF7DAF8EAF9FAF249728A939A95B
:102B80004AA95BA968AD79AD8AAD9BAD0E94CDE243
:102B90006B017C0124962CAD3DAD4EAD5FAD24970D
:102BA000CA01B9010E9467DE2B013C01A701960111
:102BB000C701B6010E9467DE9B01AC01C301B201EF
:102BC0000E94CEE20E947CE56CAF7DAF8EAF9FAFDE
:102BD00020E030E040E05FE30E9467DE2B013C0133
:102BE000A5019401C501B4010E9467DE4B015C019F
:102BF000A3019201C301B2010E9467DE9B01AC01F7
:102C0000C501B4010E94CDE20E947CE528962CAD5E
:102C10003DAD4EAD5FAD28970E9467DE4B015C0174
:102C2000C701B60190582CAD3DAD4EAD5FAD0E94D1
:102C3000C8E3A50194010E9467DE6B017C012CA909
:102C40003DA94EA95FA96CA57DA58EA59FA50E9453
:102C5000CEE220E030E040E05FE30E9467DE9B01CF
:102C6000AC01C701B6010E94CEE22CA53DA54EA540
:102C70005FA50E94CDE26B017C0128AD39AD4AAD64
:102C80005BAD68A979A98AA99BA90E94CEE220E040
:102C900030E040E05FE30E9467DE2B013C012CAD99
:102CA0003DAD4EAD5FAD24966CAD7DAD8EAD9FADAF
:102CB00024970E94C8E3A50194010E9467DE9B014E
:102CC000AC01C301B2010E94CEE228A939A94AA9E8
:102CD0005BA90E94CDE214C089E40E94082F8823DA
:102CE00029F00E948C2E6B017C0103C0C12CD12CD9
:102CF00076018AE40E94082F8823E9F00E948C2E36
:102D00006CAB7DAB8EAB9FAB20E030E0A901C7017F
:102D1000B6010E9401DE81111BC020E030E0A90154
:102D20006CA97DA98EA99FA90E9401DE811110C006
:102D3000EBE9F4E28CC320E030E0A901C701B60161
:102D40000E9401DE8823A1F31CAA1DAA1EAA1FAAA5
:102D5000A701960150582CA73DA74EA75FA78CA9A5
:102D60009DA9AEA9BFA9B05888AB99ABAAABBBAB24
:102D7000CA01B9010E9467DE4B015C0128A939A98B
:102D80004AA95BA9CA01B9010E9467DE9B01AC0197
:102D9000C501B4010E94CEE20E947CE564966CAF4E
:102DA0007DAF8EAF9FAF649720914F043091500458
:102DB000409151045091520428AF39AF4AAF5BAFF4
:102DC000A701960168AD79AD8AAD9BAD0E94CEE2B8
:102DD00028966CAF7DAF8EAF9FAF2897809153043C
:102DE00090915404A0915504B091560424968CAF50
:102DF0009DAFAEAFBFAF24972CA93DA94EA95FA947
:102E0000BC01CD010E94CEE268966CAF7DAF8EAF63
:102E10009FAF68972091D6063091D7064091D8068B
:102E20005091D9062C962CAF3DAF4EAF5FAF2C978B
:102E300028962CAD3DAD4EAD5FAD28972C966CAD70
:102E40007DAD8EAD9FAD2C970E94CDE26B017C01D4
:102E50008091DA069091DB06A091DC06B091DD0648
:102E600060968CAF9DAFAEAFBFAF609768962CAD4C
:102E70003DAD4EAD5FAD6897BC01CD010E94CDE286
:102E80004B015C0120915704309158044091590442
:102E900050915A046C962CAF3DAF4EAF5FAF6C971C
:102EA0006091DE067091DF068091E0069091E10668
:102EB0000E94CDE26CAF7DAF8EAF9FAFA7019601B0
:102EC0006CA57DA58EA59FA50E9467DE2B013C0108
:102ED000A501940168A979A98AA99BA90E9467DE26
:102EE0009B01AC01C301B2010E94CEE22B013C0167
:102EF000A50194016CA57DA58EA59FA50E9467DE06
:102F00004B015C01A701960168A979A98AA99BA92F
:102F10000E9467DE9B01AC01C501B4010E94CDE2B5
:102F2000A30192010E944DE36B017C0120E030E09F
:102F3000A9010E9401DE87FF0AC02BED3FE049ECAA
:102F400050E4C701B6010E94CEE26B017C0132E081
:102F50002316310451F42BED3FE049EC50E4C70156
:102F6000B6010E94CDE26B017C0120E030E0A901B6
:102F7000C701B6010E9401DE811126C02C962CAD3E
:102F80003DAD4EAD5FAD2C9768AD79AD8AAD9BADD3
:102F90000E9401DE811118C060962CAD3DAD4EAD92
:102FA0005FAD609724966CAD7DAD8EAD9FAD2497DF
:102FB0000E9401DE811108C0EBEDCE2EEFE0DE2E87
:102FC000E9ECEE2EE0E4FE2EA701960164966CADCE
:102FD0007DAD8EAD9FAD64970E9467DE4B015C01B5
:102FE00020E030E0A9016CAD7DAD8EAD9FAD0E94BB
:102FF00001DE8823D9F0A5019401C501B4010E9426
:1030000067DE4B015C012CAD3DAD4EAD5FADCA013D
:10301000B9010E9467DE9B01AC01C501B4010E94A9
:10302000CEE20E947CE54B015C010DC020E030E067
:10303000A901C501B4010E942EE587FF04C0B7FABB
:10304000B094B7F8B0942FE632E143E85AE3C501F3
:10305000B4010E9401DE87FF02C00C940729C5015C
:10306000B4010E9470E40E9441E422967FAF6EAFEB
:103070002297672B31F481E090E022969FAF8EAFCC
:10308000229740905B0450905C0460905D047090C7
:103090005E042296AEADBFAD2297BD0180E090E008
:1030A0000E9406DE4B015C019B01AC01C701B60129
:1030B0000E94C8E368AF79AF8AAF9BAFA5019401C6
:1030C0006CAD7DAD8EAD9FAD0E94C8E364966CAFD4
:1030D0007DAF8EAF9FAF6497A30192016091E2062E
:1030E0007091E3068091E4069091E5060E94CDE29E
:1030F000A50194010E94C8E3A0966CAF7DAF8EAF8E
:103100009FAFA09728AD39AD4AAD5BADCA01B901FB
:103110000E9467DE20E030E040E05FE30E9467DE6F
:103120009B01AC0160E070E080E89FE30E94CDE28B
:103130002C966CAF7DAF8EAF9FAF2C976C962CAD5D
:103140003DAD4EAD5FAD6C9729873A874B875C8765
:103150004D865E866F86788A609144027091450242
:10316000072E000C880B990B0E9408DE20910902A3
:1031700030910A0240910B0250910C020E9467DECE
:103180002AE037ED43E25CE30E9467DE68A779A797
:103190008AA79BA70E943CC29B01AC0128533F4FCA
:1031A0004F4F5F4F60962CAF3DAF4EAF5FAF609714
:1031B0004CA45DA46EA47FA422242394312C39E175
:1031C0003CAF22964EAD5FAD22974215530509F4F0
:1031D0001AC10E945DB60E943CC2DC01CB01609620
:1031E0002CAD3DAD4EAD5FAD6097821B930BA40B34
:1031F000B50BB7FD10C00E943CC29B01AC01285327
:103200003F4F4F4F5F4F60962CAF3DAF4EAF5FAF1C
:1032100060970E943E523CAD31503CAF332309F4DD
:1032200041C028A939A94AA95BA92C966CAD7DADEE
:103230008EAD9FAD2C970E9467DE6B017C019201E1
:10324000A30168AD79AD8AAD9BAD0E9467DEA70191
:1032500096010E94CEE27B018C019201A3012C9683
:103260006CAD7DAD8EAD9FAD2C970E9467DE4B019E
:103270005C0128A939A94AA95BA968AD79AD8AADD5
:103280009BAD0E9467DE9B01AC01C501B4010E94A9
:10329000CDE22B013C01C701D80188AB99ABAAABA9
:1032A000BBAB4DC0B10180E090E00E9406DE28ADCE
:1032B00039AD4AAD5BAD0E9467DE4B015C010E94F7
:1032C000C3E36B017C01C501B4010E946EE54B01B3
:1032D0005C01A70196016CA57DA58EA59FA50E9406
:1032E00067DE2B013C012CA93DA94EA95FA9C501B0
:1032F000B4010E9467DEA30192010E94CEE22B017D
:103300003C01A50194016CA57DA58EA59FA50E94F9
:1033100067DE4B015C012CA93DA94EA95FA9C7013D
:10332000B6010E9467DE9B01AC01C501B4010E9499
:10333000CDE268AB79AB8AAB9BAB49E14CAF920174
:10334000A30128966CAD7DAD8EAD9FAD28970E94F0
:10335000CEE269837A838B839C8328A939A94AA901
:103360005BA968966CAD7DAD8EAD9FAD68970E94F0
:10337000CEE26D837E838F83988764962CAD3DADBE
:103380004EAD5FAD649769857A858B859C850E947B
:10339000CEE269877A878B879C87A0962CAD3DAD5E
:1033A0004EAD5FADA0976D857E858F8598890E9413
:1033B000CEE26D877E878F87988B80913902882334
:1033C00021F0CE0101960E943950E090071018A21A
:1033D00019A21AA21BA2CE0180966C018E01085D73
:1033E0001F4F9E01235F3F4FAE01475F5F4FBE01FE
:1033F0006B5F7F4F4F970E941A62882321F09FEFE7
:10340000291A390ADECEE09007101CA21DA21EA2C6
:103410001FA2DE0194966D018E01085D1F4F22EE02
:1034200036E04EED56E06AED76E086ED96E00E94DD
:103430001A6280E1E6EDF6E0AFE4B4E001900D92AF
:103440008A95E1F70C9407290E94A730F80184912E
:103450008F010F5F1F4F8111F7CFE1E4F3E08491FB
:103460008F010F5F1F4F882311F40C9407290E94CE
:10347000A730F801F4CF80E50E94082F882329F0B7
:103480000E94482E6B017C0103C0C12CD12C760117
:1034900083E50E94082F882361F00E948C2E20E093
:1034A00030E04AE754E40E9467DE0E9441E46B0189
:1034B0007C010E94435A80912910811105C060E06F
:1034C00087E593E00E94E84C0E943CC2C60ED71EDE
:1034D000E81EF91E0E943CC2DC01CB018C199D093B
:1034E000AE09BF09B7FD02C00C9407290E943E52E5
:1034F000F1CF809142048770873011F00C9411292C
:103500008FE40E94082F882319F00E947C2E03C0AC
:103510008FE40E94BF2E81110C9407290C9411296D
:10352000109234030C940729109334030C94072948
:103530000E948C2E2B013C01133049F0F6012081B2
:103540003181428153810E94CDE22B013C01ACA527
:10355000BDA52D913D914D915C91C301B2010E9499
:10356000CDE24B015C012DEB37E346E855EB0E94C1
:103570002EE587FD20C02DEB37E346E855E3C50176
:10358000B4010E9401DE1816B4F01F5FB4E0EB0E28
:10359000F11CECA5FDA53496FDA7ECA7F4E0CF0E39
:1035A000D11C143039F1D1018D911D010E94082FD9
:1035B000882359F3BDCF133051F440925B045092ED
:1035C0005C0460925D0470925E0401E0DECFA501B0
:1035D0009401F70160817181828193810E94CEE222
:1035E000D7016D937D938D939C931397812F0E94A8
:1035F000EB2CCBCF002309F44EC020E030E0A90132
:1036000060915B0470915C0480915D0490915E0414
:103610000E94CEE22091830C3091840C4091850C65
:103620005091860C0E9467DE0E943BE560937B1000
:1036300070937C1080937D1090937E109091591020
:1036400080915A10981719F00E94E55924C00E94E1
:10365000435A80916F00982F927081FF05C080912E
:103660006F008D7F80936F0040917B1050917C1094
:1036700060917D1070917E104093830F5093840F62
:103680006093850F7093860F992329F080916F00C6
:10369000826080936F000E945A900C9407290E94C8
:1036A000C36F0C94072980912B0690912C068137CB
:1036B000910509F43BC50CF0D6C08A32910509F496
:1036C0005BC40CF06EC08831910509F478C2CCF56A
:1036D0008231910509F41CC6DCF497FF02C00C94FA
:1036E000BE28823091050CF4A7C1419711F00C94CB
:1036F000BE2860E083E793E00E94E84C5F988A98D8
:103700008091080182708093060112980C94072919
:103710008531910509F438C23CF4449711F00C94BA
:10372000BE28EBE8F3E0FFC18631910509F430C211
:10373000479711F00C94BE28E0912906F0912A06D3
:1037400031C28D31910511F40C940729C4F48A31EA
:10375000910509F443C20CF43BC28B31910509F485
:103760004BC24C9711F00C94BE2840E060E0809171
:10377000290690912A060E94A7AE0C9407298F3142
:10378000910509F4CFC30CF4E7C28032910509F426
:103790007DC3819711F00C94BE280E9456360C947C
:1037A00007298C35910509F4FFC584F5813591050C
:1037B00009F48FC5DCF48C34910509F412C44CF47F
:1037C0008B34910511F00C94BE280E944B890C9407
:1037D00007298D34910509F408C48E34910511F040
:1037E0000C94BE280E94DF340C9407298335910580
:1037F00009F48AC50CF485C58435910509F488C59A
:103800008535910509F4B7C50C94BE288C36910511
:1038100009F484C4ACF48936910509F4B4C434F4D1
:103820008836910509F4E5C30C94BE288A369105C3
:1038300009F411C58B36910509F434C50C94BE28E2
:103840008E36910509F404C40CF4DFC48F3691055B
:1038500009F411C48037910511F00C94BE2880E260
:1038600094E00E94EE518C3D910511F40C943A269F
:103870000CF05DC08139910509F41FC70CF586373E
:10388000910509F4C0C664F48337910509F4D1C0E9
:103890000CF412C68537910509F4A6C60C94BE280F
:1038A0008837910509F4FEC60CF4F9C689379105ED
:1038B00009F4FEC68C38910509F4ABC40C94BE28FB
:1038C0008B3C910511F40C943E24DCF48E3B910565
:1038D00009F4BDC434F48B39910509F46FC40C9418
:1038E000BE28883C910509F460C7893C910511F018
:1038F0000C94BE2876E4E72E72E0F72E04EE1FE06B
:10390000A4C78D3C910511F40C94CE2414F40C94AE
:1039100059248E3C910511F40C943925833D910571
:1039200011F00C94BE28ECE0F9E20C945B258A3986
:1039300021E0920709F4F6C3C4F58E3241E0940702
:1039400011F40C948A27D4F4823E910511F40C945E
:10395000B6263CF48D3D910511F40C9447260C9449
:10396000BE288232A1E09A0711F40C94DF268D3232
:10397000914011F40C94EA260C94BE288033E1E0C7
:103980009E0711F40C94E12714F40C94DE2783367F
:1039900021E0920709F449C08039914011F00C945C
:1039A000BE280E94435A0C940729873F41E09407A0
:1039B00011F40C947A28FCF4843FA1E09A0711F4E6
:1039C0000C9474284CF48C3A914011F00C94BE285D
:1039D0000E9424910C940729853FF1E09F0711F480
:1039E0000C947728863F914011F00C94BE280E94D9
:1039F00072370C9407298B3833E0930711F40C9439
:103A000007293CF4883F914011F40C9485280C94CC
:103A1000BE28803AA3E09A0709F477C2873E934014
:103A200011F40C94A9280C94BE28EBE9F4E20C9450
:103A30006128E3E2F5E07DC5A0902906B0902A0652
:103A400080E50E94082F882359F00E94482E6B01C0
:103A50007C0111E0672B682B692B31F410E004C066
:103A600010E0C12CD12C760183E50E94082F882319
:103A700011F40C94BA2A0E948C2E20E030E04AE720
:103A800054E40E9467DE0E9441E46B017C01111145
:103A90000BC0672B682B692B39F4A114B10421F0FA
:103AA000F5018081811102C010E001C011E00E9487
:103AB000435A112329F061E0C5010E942D4D05C034
:103AC00060E080E693E00E94E84C83E08093BC06CF
:103AD00081E08093F305C114D104E104F104B1F055
:103AE0000E943CC2C60ED71EE81EF91E0E943CC2B0
:103AF000DC01CB018C199D09AE09BF09B7FF0DC0D0
:103B00008091F30581110C94BF2A07C08091F305C1
:103B1000882319F00E943E52F9CF0E9449C31092A7
:103B2000F3050C94072984918F010F5F1F4F8823A1
:103B300021F00E94A730F801F6CF1092FE1281EB1F
:103B400090E10E94E8986DEA70E1CE0101960E9432
:103B50008ACD40E050E0BE016F5F7F4F80E090E093
:103B60000E94EECDCE0101960E94CD51ECE7F3E02C
:103B700084918F010F5F1F4F882311F40C94072944
:103B80000E94A730F801F4CF0E9463B10C9407297A
:103B900010928110109282100C940729803209F43F
:103BA0001082319680818111F9CF40E061E08091EF
:103BB000290690912A060E94A7AE0C9407298091AD
:103BC00082108111109381100E944B890C94072957
:103BD000109281100E94DDB90C9407298091821007
:103BE000882311F40C94072983E50E94082F811182
:103BF0000C94C32A0C94072983E40E94BF2E8823C7
:103C000009F468C0E9ECF3E084918F010F5F1F4F66
:103C1000882321F00E94A730F801F6CF80914C1242
:103C2000811103C0ECE9F3E02AC0BE016F5F7F4F52
:103C300089E492E10E94AF978E010F5F1F4FD80178
:103C40008D918D01882319F00E94A730F8CFBE0115
:103C50006F5F7F4F80E090E00E94A0CF8091911035
:103C6000882399F180E20E94A73001E910E1F80170
:103C700081918F01882349F10E94A730F8CF849168
:103C80008F010F5F1F4F882301F10E94A730F801B9
:103C9000F6CF2BE0C22E24E0D22EE12CF12C20E036
:103CA0008091760C90E00E2C02C0959587950A9431
:103CB000E2F780FD10C2BFEFEB1AFB0AE2E0CE0E86
:103CC000D11CF5E0EF16F10459F78AE00E94A73005
:103CD0000C94072980918210882339F080918110FB
:103CE000882319F0E6EAF3E003C0E8EBF3E028C02C
:103CF00084918F010F5F1F4F882321F00E94A7300E
:103D0000F801F6CF6091FA127091FB128091FC12CB
:103D10009091FD124AE00E949F338FE20E94A730EB
:103D20006091F6127091F7128091F8129091F91249
:103D30004AE00E949F338AE00E94A7300C94072932
:103D400084918F010F5F1F4F882311F40C94072972
:103D50000E94A730F801F4CF80918210882311F4DB
:103D60000C94072989E492E10E9431CB89E492E125
:103D70000E948A971092801010927F10809182107A
:103D8000882311F40C9407290091290610912A0622
:103D90001092811080914C12882321F089E492E1E5
:103DA0000E948A97B801CE0180960E94D5CF8C01DF
:103DB000892B11F40C94072968A179A1611571056B
:103DC00011F06C5F7F4F19821C8222E0A801CE01A6
:103DD00001960E94889D811102C0F12C14C0CE0171
:103DE00001960E94F8CC8823C1F361E0CE010196D0
:103DF0000E949397009789F325EEDC012C931C8297
:103E00000E94D6C8F82ECE0101960E94A130F11072
:103E100003C0E6EEF3E022C0E8EDF3E084917F0119
:103E2000BFEFEB1AFB0A882321F00E94A730F701AD
:103E3000F5CFF80181918F01882319F00E94A730F6
:103E4000F8CF8AE00E94A7301092FA121092FB126B
:103E50001092FC121092FD120C94072984917F019C
:103E60002FEFE21AF20A882321F00E94A730F7010F
:103E7000F5CFD8018D918D01882319F00E94A730CC
:103E8000F8CF8EE20E94A7300C9407298091811010
:103E900081110E94435A80918210882311F40C945E
:103EA000072980E50E94082F882319F00E947C2EA4
:103EB00003C080E50E94BF2E182F482F61E080913B
:103EC000290690912A060E94A7AE83E50E94082F3A
:103ED000882381F00E94582EAB01BC014093FA1256
:103EE0005093FB126093FC127093FD1289E492E1EF
:103EF0000E94A09680918210882319F081E080931F
:103F0000811011110C9407295FCE809129069091A0
:103F10002A0621E02093801040E060E00E94A7AED6
:103F20000C9407290E948EB968A379A38AA39BA346
:103F3000BE016F5F7F4FCE0180960E94C52F60E06B
:103F4000CE0101960E942D4DECE0F9E284918F01A3
:103F50000F5F1F4F882321F00E94A730F801F6CF92
:103F6000BE016F5F7F4F8EEF93E00E9430898AE041
:103F70000E94A7300C94072983E50E94082F88230C
:103F800011F40C9407290E94682EE82E80E50E9407
:103F9000082F882339F00E94682E182F87FF03C04E
:103FA0000C9407291DE089E40E94082F882351F012
:103FB0000E947C2E81110C946A2BE2E6F6E08FE8D9
:103FC00096E00AC089E40E94BF2EF4CF31968E1786
:103FD0009F0711F40C946A2B24911213F7CF0C94C1
:103FE000042B0E94DDB90C9407290E9492890C943D
:103FF000072988E690E00E940C3481110C9407296F
:104000008091760C83FF02C00C94072983E50E94FF
:10401000082F8823C9F00E948C2E0E943AE47093E6
:1040200006106093051080E00E942BB30E948C2E36
:1040300020E030E04AEA52E40E9401DE181624F043
:104040000E9492890E9449C30E94148A0C940729F5
:104050008EE40E94082F882311F40C9407290E94F3
:10406000582E60935C0F70935D0F80935E0F90935A
:104070005F0F0C94072983E50E94BF2E882359F017
:1040800083E50E94082F882319F00E94682E01C042
:1040900080E08093760CECE0F9E284918F010F5F71
:1040A0001F4F811103C0E9E1F4E004C00E94A73072
:1040B000F801F3CF84918F010F5F1F4F882321F008
:1040C0000E94A730F801F6CF8091760C8111E1CDE6
:1040D000E5E1F4E018C0BB24B394B20E222319F03A
:1040E0008CE20E94A730F60185919491FC018491A5
:1040F0008F010F5F1F4F882321F00E94A730F80126
:10410000F6CF2B2DD8CD84918F010F5F1F4F8823C1
:1041100009F4DBCD0E94A730F801F5CF109206021A
:104120000C9407290E94CB8A0C94072983E50E94EE
:10413000082F811103C0ECE0F9E20DC00E94682E47
:104140008D3320F480930D020C9407298CE3809327
:104150000D020C94072984918F010F5F1F4F882354
:1041600021F00E94A730F801F6CF40910D0250E0F7
:1041700060E070E089E294E00E94DD888AE00E94BD
:10418000A7300C94072989E690E00E940C34811135
:1041900011C0E0E3F4E084918F010F5F1F4F88238B
:1041A00021F00E94A730F801F6CF0E9425AC8AE0EA
:1041B0000E94A7301092BC060C94862B83E50E94C7
:1041C000082F882311F40C9407290E94682E182FB9
:1041D0008D3308F01CE31093C9060E943CC26B01AA
:1041E0007C01212F30E0A8EEB3E00E948EE2C60EE3
:1041F000D71EE81EF91EC092C506D092C606E092F0
:10420000C706F092C8060C9407290E9492940C9459
:1042100007298091760C83FF02C00C94072983E55F
:104220000E94082F882311F40C9407290E948C2ED9
:104230000E943AE46639710514F066E970E0709303
:104240000410609303100E94DFB20C9407290E94AF
:10425000B9920C94072980E50E94082F882341F029
:104260000E94682E182F823010F00C94072901C08C
:1042700010E083E50E94082F882319F00E94582E31
:1042800002C06FEF70E0E12FF0E06F3F710510F0BA
:104290006FEF70E0EE0FFF1FE358F84F71836083FC
:1042A0000C94072980E50E94082F882341F00E9482
:1042B000582E6230710510F00C94072902C060E09E
:1042C00070E0660F771FFB01E358F84F11821082F0
:1042D0009EC70E9477B30E945A5B10927E0710928D
:1042E0007D071092800710927F0768EE73E080E0F0
:1042F00090E00E945C4C60E083E394E00E94E84C14
:1043000086C71092330383C781E0809333037FC74E
:1043100083E50E94082F882399F00E948C2E20E0CC
:1043200030E04AE754E40E9467DE0E9441E4609373
:104330000E0270930F02809310029093110267C7D0
:1043400088E50E94BF2E81110C94D42A89E50E9431
:10435000BF2E81110C94D42A8AE50E94BF2E8111B0
:104360000C94D42A85E40E94BF2E81110C94D42A87
:104370000E945A5B4CC783E50E94BF2E882309F434
:1043800046C70E948C2E20E030E04AE754E40E94A9
:1043900067DE0E9441E46093C1067093C206809379
:1043A000C3069093C40633C716E4C12E12E0D12E83
:1043B00007E7E02E0CE0F02E10E0D6018D916D01A4
:1043C0000E94BF2E882309F46DC0133009F063C02A
:1043D0000E948C2E4B015C0120E030E040EA51E469
:1043E0000E9401DE87FF4EC0A50194016091830CFD
:1043F0007091840C8091850C9091860C0E94C8E38A
:104400002B013C019B01AC016091290770912A07A7
:1044100080912B0790912C070E9467DE60932907FB
:1044200070932A0780932B0790932C07A301920186
:104430006091590770915A0780915B0790915C07D2
:104440000E9467DE6093590770935A0780935B0759
:1044500090935C076091390770913A0780913B0710
:1044600090913C070E9406DEA30192010E9467DE44
:104470000E9441E46093390770933A0780933B07A9
:1044800090933C078092830C9092840CA092850CB0
:10449000B092860C07C00E948C2EF7016083718356
:1044A000828393831F5FF4E0EF0EF11C143009F058
:1044B00084CF0E949F8AABC60E94435A83E50E9424
:1044C000082F882309F4E7C80E94582E623071052E
:1044D00009F0E1C80E9468578BE50E94A7306091FF
:1044E000B0067091B1068091B2069091B30642E099
:1044F0000E946A344091B4065091B5066091B606A8
:104500007091B70681E494E00E94FA884091B80661
:104510005091B9066091BA067091BB068EE394E0A3
:104520000E94FA888DE50E94A7308AE00E94A73099
:104530006EC684918F010F5F1F4F882321F00E9468
:10454000A730F801F6CF60E083E195E00E94239068
:1045500061E08CE095E00E94239061E081E095E0CD
:104560000E94239061E081EF94E00E94239060E03C
:1045700088EE94E00E94239061E08EED94E00E942A
:10458000239060E084ED94E00E94239060E08CEC46
:1045900094E00E94239060E08EEB94E00E942390D0
:1045A00060E080EB94E00E94239060E081EA94E078
:1045B0000E94239060E083E994E00E94239060E0F1
:1045C0008DE794E00E94239060E08CE694E00E94E6
:1045D000239060E087E594E00E94239061E084E40A
:1045E00094E00E94239013C68091290690912A0698
:1045F000DC012C91222321F060E00E942D4D07C6A2
:104600000E9449C304C60091290610912A0683E03E
:10461000D12C40E08150E1F0F8019081292F2B7FCF
:104620002134C1F721812133A9F7913421F0953448
:1046300021F441E002C0DD24D39498012E5F3F4F66
:1046400089012F5F3F4FD8019C919032C9F3E2CF8F
:10465000442369F0ECE0F9E284917F01BFEFEB1AAB
:10466000FB0A882321F00E94A730F701F5CFDD2057
:1046700069F0E6EEF5E084917F012FEFE21AF20A8D
:10468000882321F00E94A730F701F5CFD8018D9142
:104690008D01882309F419CB0E94A730F7CF0E941F
:1046A000E25DB5C581E08093410480934004AFC5CD
:1046B0001092410410924004AAC583E50E94082F7D
:1046C000882319F00E94582E02C060E070E08B0130
:1046D000112702301105D4F0EBE9F4E284918F0147
:1046E0000F5F1F4F811103C0EAEEF5E004C00E9486
:1046F000A730F801F3CF84918F010F5F1F4F8823FC
:1047000009F485C50E94A730F801F5CF88E40E941E
:10471000082F8823A9F00E94582E6A3A71053CF0B0
:104720006530B1E07B072CF064E071E002C06AEA1A
:1047300070E0F801EE0FFF1FE156F34F71836083C5
:1047400086E40E94082F8823A9F00E94582EF801C1
:10475000EE0FFF1FED55F34F718360836F3F7105BF
:1047600019F014F06FEF70E077FF02C060E070E0C6
:104770007183608382E40E94082F882309F447C56F
:104780000E94582E6530710534F0683871052CF0A0
:1047900067E870E002C065E070E0000F111FF801EB
:1047A000E556F34F7183608332C588EC90E00E9438
:1047B0000C3481112CC584E40E94BF2E882309F497
:1047C00041C00E948C2E6B017C0111E020E030E0A2
:1047D000A9010E9401DE811101C010E01093B30C09
:1047E00020E030E0A901C701B6010E9401DE882364
:1047F00049F10E948C2EE0911F0D24E0E29FF00110
:104800001124E155F34F608371838283938320E009
:1048100030E0A9016091AF0C7091B00C8091B10CA7
:104820009091B20C0E9401DE81110CC080E090E0FA
:10483000A0E4B0E48093AF0C9093B00CA093B10CC3
:10484000B093B20C0E944D59E2C4D7018D917D0105
:104850000E94BF2E882349F00E948C2E0E9441E4C2
:10486000F80160837183828393830C5F1F4FFFE0A5
:10487000043F1F0751F70E94448AC9C466E4E62E2C
:1048800062E0F62E0DE417E0D7018D917D010E94C4
:10489000BF2E882339F00E948C2EF801608371832B
:1048A000828393830C5F1F4FF7E00D351F0761F77D
:1048B000AEC483E50E94082F8823A1F00E948C2EAD
:1048C0006093450770934607809347079093480786
:1048D0006093410770934207809343079093440786
:1048E00010E001C011E080E50E94082F882359F0F4
:1048F0000E948C2E6093450770934607809347076C
:104900009093480710E082E50E94082F882359F011
:104910000E948C2E6093490770934A0780934B073F
:1049200090934C0710E084E50E94082F882359F0EB
:104930000E948C2E60934107709342078093430737
:104940009093440764C4112309F461C4409145075E
:1049500050914607609147077091480782E196E0C1
:104960000E94FA884091490750914A0760914B078D
:1049700070914C078FE096E00E94FA8840914107C1
:104980005091420760914307709144078CE096E094
:104990000E94FA888AE00E94A73039C481E50E940B
:1049A000BF2E882351F00E94482E609361077093B8
:1049B0006207809363079093640783E50E94BF2E8C
:1049C000882351F00E948C2E6093790770937A07A8
:1049D00080937B0790937C0784E50E94BF2E8823F9
:1049E00051F00E948C2E6093750770937607809328
:1049F00077079093780788E50E94BF2E882351F0AF
:104A00000E948C2E60931D0770931E0780931F07D2
:104A10009093200789E50E94BF2E882351F00E94C1
:104A20008C2E609321077093220780932307909325
:104A300024078AE50E94BF2E882351F00E948C2E05
:104A40006093250770932607809327079093280784
:104A500085E40E94BF2E882309F4D9C30E948C2EBE
:104A60006093290770932A0780932B0790932C0754
:104A7000CEC346E4C42E42E0D42E53E4E52E54E0E7
:104A8000F52E10E0D6018D916D010E94BF2E882376
:104A900051F00E948C2EF70160837183828393838F
:104AA000812F0E94EB2C1F5FF4E0EF0EF11C1330FE
:104AB00049F70C944B1B84918F010F5F1F4F882384
:104AC00021F00E94A730F801F6CF83E50E94BF2EA7
:104AD000882321F00E947C2E80933902EAE4F6E0DC
:104AE00084918F010F5F1F4F882321F00E94A73010
:104AF000F801F6CF80913902882319F0E2E4F6E05C
:104B000002C0E6E4F6E084918F010F5F1F4F811130
:104B100003C0EAE3F6E004C00E94A730F801F3CF37
:104B200084918F010F5F1F4F882321F00E94A730CF
:104B3000F801F6CF2091FF0C3091000D4091010D4E
:104B40005091020D60910B0D70910C0D80910D0D27
:104B500090910E0D0E94CEE2AB01BC0188E396E07D
:104B60000E94FA882091030D3091040D4091050DAB
:104B70005091060D60910F0D7091100D8091110DE7
:104B80009091120D0E94CEE2AB01BC0185E396E04C
:104B90000E94FA882091070D3091080D4091090D6F
:104BA00050910A0D6091130D7091140D8091150DA7
:104BB0009091160D0E94CEE2AB01BC0182E396E01B
:104BC0000E94FA88EAE2F6E084918F010F5F1F4F9E
:104BD000882321F00E94A730F801F6CF2091FF0C26
:104BE0003091000D4091010D5091020D60912D0208
:104BF00070912E0280912F02909130020E94CEE29D
:104C0000AB01BC0188E296E00E94FA882091030D76
:104C10003091040D4091050D5091060D60913102C7
:104C20007091320280913302909134020E94CEE260
:104C3000AB01BC0185E296E00E94FA882091070D45
:104C40003091080D4091090D50910A0D6091350287
:104C50007091360280913702909138020E94CEE224
:104C6000AB01BC0182E296E00E94FA888AE00E94D1
:104C7000A730CDC283E50E94082F882309F4C7C25C
:104C80000E94582E7093450260934402C0C28DED7D
:104C900090E00E940C348111BAC283E50E94082F73
:104CA000811103C0ECE0F9E23BC000911F0D10E060
:104CB0000E94582E000F111FF801EE5BFD4F71830B
:104CC000608380911F0D90E08C01000F111F000F79
:104CD000111F98012E5E3D4F7901880F991FFC012D
:104CE000EE5BFD4F60817181072E000C880B990BE4
:104CF0000E9408DE2AE037ED43E25CE30E9467DEB3
:104D0000F801EF5DFF4E20813181428153810E9485
:104D100067DED7016D937D938D939C93139777C234
:104D200084918F010F5F1F4F882321F00E94A730CD
:104D3000F801F6CF85E40E94A73080911F0D805DB9
:104D40000E94A730E0911F0DF0E0EE0FFF1FEE5B19
:104D5000FD4F608171818AE596E00E94178985E2A6
:104D60000E94A7308AE00E94A73051C280E50E94CD
:104D7000BF2E882309F44BC20E94582E6B017C0180
:104D800083E50E94082F882321F00E94582E8B0172
:104D900002C00FEF1FEFC8010196039708F037C25A
:104DA000D7FC35C28C2DE2E6F6E09491891709F420
:104DB0002BC43196B6E0EF38FB07B9F728C48AE573
:104DC0000E94082F81114BC483E50E94082F811196
:104DD00046C41DC285E40E94082F811110C080E5E1
:104DE0000E94BF2E882391F00E948C2E60938E0C1F
:104DF00070938F0C8093900C9093910C07C00E943D
:104E0000682E882361F3EBE9F4E271C089E40E9423
:104E1000BF2E882381F00E948C2E2CEA35EC47E2CD
:104E20005EE30E9467DE6093960C7093970C80930C
:104E3000980C9093990C84E40E94BF2E882381F0F3
:104E40000E948C2E2CEA35EC47E25EE30E94C8E318
:104E50006093920C7093930C8093940C9093950CA8
:104E6000ECE0F9E284918F010F5F1F4F882321F05E
:104E70000E94A730F801F6CF40918E0C50918F0C14
:104E80006091900C7091910C87E996E00E94FA88ED
:104E90002CEA35EC47E25EE36091960C7091970C3A
:104EA0008091980C9091990C0E94C8E3AB01BC01D1
:104EB00083E996E00E94FA882CEA35EC47E25EE34B
:104EC0006091920C7091930C8091940C9091950C40
:104ED0000E9467DEAB01BC018FE896E00E94FA8871
:104EE0008AE00E94A73093C10E94A730F801849104
:104EF0008F010F5F1F4F8111F7CFEBE9F6E084912F
:104F00008F010F5F1F4F882309F481C10E94A730D2
:104F1000F801F5CF83E50E94BF2E182F882371F08A
:104F20000E948C2E0E943AE470931702609316023E
:104F300021E0672B09F020E02093810780E50E94A3
:104F4000BF2E882359F02091160230911702232B8F
:104F500011F00E947C2E8093810759C1111157C115
:104F6000ECE0F9E284918F010F5F1F4F882321F05D
:104F70000E94A730F801F6CF80918107882319F0AD
:104F80006EEF72E002C061E073E082EC96E00E9496
:104F90003089609116027091170281EB96E00E94B1
:104FA0001789EDEAF6E084918F010F5F1F4F882388
:104FB00009F42DC10E94A730F801F5CF0E94048B9F
:104FC00026C180E50E94BF2E882351F00E948C2EBE
:104FD00060939B0F70939C0F80939D0F90939E0FF7
:104FE00089E40E94BF2E882381F00E948C2E2CEA37
:104FF00035EC47E25EE30E9467DE6093970F7093A3
:10500000980F8093990F90939A0F84E40E94BF2E7B
:10501000882381F00E948C2E2CEA35EC47E25EE377
:105020000E94C8E36093930F7093940F8093950F41
:105030009093960FECE0F9E284918F010F5F1F4F80
:10504000882321F00E94A730F801F6CF40919B0FF2
:1050500050919C0F60919D0F70919E0F8DED96E089
:105060000E94FA882CEA35EC47E25EE36091970FE4
:105070007091980F8091990F90919A0F0E94C8E3B8
:10508000AB01BC0189ED96E00E94FA882CEA35EC70
:1050900047E25EE36091930F7091940F8091950FBA
:1050A0009091960F0E9467DEAB01BC0185ED96E002
:1050B0000E94FA888AE00E94A730A9C00E94A73007
:1050C000F80184918F010F5F1F4F8111F7CFE1EE3F
:1050D000F6E084918F010F5F1F4F882309F497C07A
:1050E0000E94A730F801F5CF0E94493E90C00E946F
:1050F0003B3E8DC083E50E94BF2E882319F00E949D
:105100007C2E81270E94175E82C081E08093270455
:105110000E94A53810922704882309F478C0ECE097
:10512000F9E284918F010F5F1F4F811103C0E0EFFF
:10513000F6E004C00E94A730F801F3CF84918F01FC
:105140000F5F1F4F882309F462C00E94A730F80147
:10515000F5CF81E080933A0210921C0783E50E940C
:10516000082F882339F00E947C2E811150C00E94A4
:10517000A1574DC083E50E94BF2EF7CF0E94C36F99
:1051800046C0F0902B060E94435AFF2029F1ECE024
:10519000F9E284918F010F5F1F4F882321F00E9455
:1051A000A730F801F6CF84E50E94A7306F2D70E09C
:1051B00080E090E04AE00E949F3380E20E94A730A6
:1051C000EDE0F7E084918F010F5F1F4F8823F9F026
:1051D0000E94A730F801F6CF10920710ECE0F9E238
:1051E00084918F010F5F1F4F882321F00E94A73009
:1051F000F801F6CF6091071070E08BEF96E00E9407
:1052000017898AE00E94A73002C00E94C36F1092E3
:10521000BC060E9484577AC20E94152F0E945356E2
:10522000F6CF0E94435A8091090290910A02A09100
:105230000B02B0910C028093370390933803A09334
:105240003903B0933A0380914402909145029093C0
:1052500036038093350384E690E090934502809373
:10526000440211E01093410488E50E94BF2E282ECD
:1052700089E50E94BF2E382E8AE50E94BF2EA82EF7
:10528000211005C0311005C0BA2CB12605C031105F
:1052900002C0B12C01C0BA2C80E1EFE4F4E0A6ED2D
:1052A000B6E001900D928A95E1F782E50E94082F01
:1052B000882369F00E948C2E2B013C0120E030E015
:1052C000A9010E9401DE882309F43FC006C0412CD9
:1052D000512C60E8662E60E4762EB11005C02110D6
:1052E00003C0332009F41DC14092DE065092DF0650
:1052F0006092E0067092E106A3019201609157046A
:10530000709158048091590490915A040E9401DED2
:1053100087FF1BC019821A821B821C8220915304B2
:1053200030915404409155045091560460914F04BB
:10533000709150048091510490915204FE01319675
:105340006F01830172010E94F92BB1100DC0211071
:1053500003C03110E1C0E5C0311006C080E00E94FA
:10536000CB50BB20B1F3D8C0109253041092540418
:10537000109255041092560410924F04109250044B
:1053800010925104109252040E94A82DEAEAFDE006
:10539000249128AFEEE9FDE0C590D590E590F4901A
:1053A000E2EAFDE04590559065907490A701960162
:1053B000C301B2010E9401DE87FF05C0A70196016B
:1053C000C301B20104C0A3019201C701B6010E944A
:1053D000C8E36CAB7DAB8EAB9FABE1E6FDE08591A6
:1053E0009591A591B4918CA79DA7AEA7BFA7EDE518
:1053F000FDE0259135914591549128AB39AB4AABED
:105400005BABBC01CD010E942EE518162CF498A8C8
:1054100009A91AA98BA804C09CA40DA51EA58FA438
:105420002CA93DA94EA95FA9CA01B9010E9467DE56
:1054300020E030E040E85FE30E94CEE20E947CE59D
:10544000292D302F412F582D0E9467DE69837A83E2
:105450008B839C83EBEAFDE014918091570490913B
:105460005804A0915904B0915A048CA79DA7AEA7E7
:10547000BFA720E030E040EC5FE3C301B2010E942F
:1054800067DE2B013C01612F110F770B880B990B05
:105490000E9408DE9B01AC01C301B2010E9467DEDD
:1054A0002B013C0120E030E040EC5FE3C701B60196
:1054B0000E9467DE6B017C01A8AD6A2FAA0F770BF3
:1054C000880B990B0E9408DE9B01AC01C701B60155
:1054D0000E9467DEFE0131966F01ECA4FDA40EA5CB
:1054E0001FA5A30192010E94F92B0E940C5E10924D
:1054F00053041092540410925504109256041092C2
:105500004F04109250041092510410925204B110A2
:1055100025CF211023CF1DCF81E00E94CB50B110A9
:1055200002C0AA2019F082E00E94CB500E94A82D50
:105530008091400480934104809137039091380317
:10554000A0913903B0913A038093090290930A0223
:10555000A0930B02B0930C02809135039091360317
:10556000909345028093440283E080933E020E9420
:105570005A904DCE11110C94541D0C944D1D0E9447
:105580003E520C94761D0E94582EAB01BC014093F4
:10559000FA125093FB126093FC127093FD1289E48F
:1055A00092E10E94A09633CE0E94435A88E50E9461
:1055B000BF2E882331F05F9A809142048E7F8093C2
:1055C000420489E50E94BF2E882331F08A9A809197
:1055D00042048D7F809342048AE50E94BF2E882377
:1055E00059F0809108018095827080930601809126
:1055F00042048B7F8093420485E40E94BF2E88235F
:1056000009F405CE129A03CE0E9491D000CE0E94DA
:10561000435ABC2C60E08C2D0E94FDC00F3FEFEF81
:105620001E0759F48C2D0E94A5C031E020E0892B83
:1056300009F030E0032F122F05C00130110561F48D
:1056400001E010E08B2D0E94A5C08017910709F49E
:10565000DECD0E943E52F6CF00E010E0F3CF0E9474
:105660008C2E20E030E040E050EC0E9401DE87FD0F
:1056700012C00E948C2E20E030E040E050E40E94F6
:105680002EE518161CF00E948C2E09C060E070E018
:1056900080E090E404C060E070E080E090EC209155
:1056A000420422FFB4CD00911F10109120102091D0
:1056B0007F0C3091800C4091810C5091820C0E94A3
:1056C00067DE0E943AE4600F711F709320106093B0
:1056D0001F109DCD61E0812F0E94FDC06E2D812F96
:1056E0000E94CEC0F12CB701812F0E9439C1183021
:1056F00029F4F0927E07E0927D0789CD1C3009F0F5
:1057000086CDF0928007E0927F0781CDC15ADF4FAE
:105710000FB6F894DEBF0FBECDBFDF91CF911F91C2
:105720000F91FF90EF90DF90CF90BF90AF909F9040
:105730008F907F906F905F904F903F902F90089543
:1057400090916304E92FF0E0E15AFB4F80839F5F63
:10575000943018F49093630402C010926304809113
:10576000E6058F5F8093E6050895089580E090E058
:1057700008958091AE069091AF06981759F0E92FE1
:10578000F0E0E25DF94F80819F5F9F779093AF06D5
:1057900090E008958FEF9FEF0895CF92DF92EF9200
:1057A0000F931F93CF93DF9300D01F92CDB7DEB737
:1057B000E090071019821A821B821C82CE0101968A
:1057C0006C0109E012E02BE534E047E554E063E5C5
:1057D00074E08FE494E00E941A620F900F900F9093
:1057E0000F90DF91CF911F910F91EF90DF90CF90AD
:1057F00008952F923F924F925F926F927F928F9275
:105800009F92AF92BF92CF92DF92EF92FF920F934F
:105810001F93CF93DF93CDB7DEB72A970FB6F894D7
:10582000DEBF0FBECDBF2B013C012D833E834F83D6
:10583000588747015801DA86C986809109029091FC
:105840000A02A0910B02B0910C0289839A83AB8368
:10585000BC83D6011C9111960C91119712963C9025
:10586000129713962C9020E030E0A901612F702F41
:10587000832D922D0E9401DE81110AC0E5E6FDE034
:1058800085919591A591B491182F092F3A2E2B2E21
:10589000A5019401609157047091580480915904B6
:1058A00090915A040E9401DE87FF16C0812F902F2D
:1058B000A32DB22D8093090290930A02A0930B02AC
:1058C000B0930C028092570490925804A09259040D
:1058D000B0925A040E94CD2BE985FA85C080D18010
:1058E000E280F38020E030E0A901C701B6010E9408
:1058F00001DE811107C085E5C82EDC2C85E0E82E8D
:1059000083E4F82EC0920902D0920A02E0920B02C0
:10591000F0920C0240924F04509250046092510455
:10592000709252048D819E81AF81B885809353041B
:1059300090935404A0935504B09356040E94CD2B29
:1059400020915704309158044091590450915A04C1
:10595000C501B4010E9401DE87FF16C0812F902F80
:10596000A32DB22D8093090290930A02A0930B02FB
:10597000B0930C028092570490925804A09259045C
:10598000B0925A040E94CD2B0E94435A89819A8179
:10599000AB81BC818093090290930A02A0930B0211
:1059A000B0930C022A960FB6F894DEBF0FBECDBF9F
:1059B000DF91CF911F910F91FF90EF90DF90CF90EB
:1059C000BF90AF909F908F907F906F905F904F901F
:1059D0003F902F9008950F931F93CF93DF9394E000
:1059E000899FE00111248E010150134FFE01ED5BF0
:1059F000FB4FDE01A653B94F2D913D914D915C9126
:105A000060817181828193810E94CEE2F80160837E
:105A1000718382839383FE01E653F74F85919591BD
:105A2000A591B491FE01E55FF24F80839183A2833B
:105A3000B383FE01EA52F74F85919591A591B491F8
:105A4000C35DDD4F88839983AA83BB83DF91CF91A8
:105A50001F910F910895CF93FC0120812B33A9F062
:105A60002091E605243088F4C62FBC0180916304A0
:105A7000F0E68F9FC00111248B599B4F0E9430E6A6
:105A80008C2F0E94A02B81E001C080E0CF9108956F
:105A9000DF92EF92FF920F931F93CF93DF93CDB7D7
:105AA000DEB76E970FB6F894DEBF0FBECDBF609124
:105AB0001707709118076115710509F14DE150E064
:105AC000CE0101967C010E9470DD1E8EF7018F01D0
:105AD0000E191F09D190DD2019F09AE0D912F7CFE5
