:100000000C94CC150C94FD150C94FD150C94FD1559
:100010000C94FD150C94FD150C94FD150C94FD1518
:100020000C94FD150C94FD150C94FD150C94FD1508
:100030000C94FD150C94FD150C94FD150C94FD15F8
:100040000C94FD150C94062D0C94FD150C94FD15C7
:100050000C94FD150C94FD150C944B3E0C9419A4B6
:100060000C94FD150C94DB220C94D1220C94FD15FC
:100070000C94FD150C94FD150C94FD150C94FD15B8
:100080000C94FD150C94FD150C94FD150C94FD15A8
:100090000C94FD150C94FD150C94FD150C94FD1598
:1000A0000C94FD150C94FD150C94FD150C94FD1588
:1000B0000C94FD150C94FD150C94FD150C94FD1578
:1000C0000C94FD150C94FD150C94FD150C94FD1568
:1000D0000C94FD150C94FD150C94FD150C94FD1558
:1000E0000C94FD15835A835A8A5A8A5A8A5A915A0D
:1000F000915A915A9E5A985A985A985A785B7B5BB3
:100100006A5B6E5B745BB25B7F5B835B895B8D5B01
:10011000915B975B9B5B9F5BB25BA55BA95BAD5BF8
:100120003E5F435F485F525F5C5FD55F665F6E5FB7
:10013000765F805F8A5F945FA35FAD5FD55FB75FD7
:10014000C15FCB5F9397D2950B96CF970B960B968B
:100150000B960B960B960B960B960B960B960B9697
:100160000B960B960B960B960B960B960B960B9687
:100170000B960B960B960B960B960B960B960B9677
:10018000C9970B960B960B960B960B960B960B96A8
:100190000B96A2970B960B960B960B960B960B96BF
:1001A0000B960B960B960B96E6970896084AD73B4C
:1001B0003BCE016E84BCBFFDC12F3D6C74319ABD36
:1001C00056833DDA3D00C77F11BED9E4BB4C3E915A
:1001D0006BAAAABE000000803F05A84CCDB2D44E49
:1001E000B93836A9020C50B9918688083CA6AAAA4B
:1001F0002ABE000000803F000C94C9970C94BB6499
:100200000C94AD5F0C94805F0C946D860C944669E1
:100210000C94E6970C948D5B0C94C0640C949166DE
:100220000C946E9C0C94209E0C948D480C946267E8
:100230000C94C15F0C94745B0C94D2950C9464691B
:100240000C945C460C94AD650C949F5B0C948A5A9C
:100250000C9497650C9411660C94945F0C945D3724
:100260000C948A990C945E690C94985A0C949E5A3A
:100270000C94835A0C947C620C946E5F0C94525FC5
:100280000C94D55F0C942B8B0C94F5480C94E9647A
:100290000C940B960C94835B0C944A860C94A95B8B
:1002A0000C948B370C9488990C949B5B0C94D766B8
:1002B0000C9437630C94F2630C94CF970C94CA643B
:1002C0000C9474660C94765F0C94915A0C9493661B
:1002D0000C94785B0C943D400C9439400C944BBFCB
:1002E0000C943A660C945E9F0C944C690C94C56413
:1002F0000C94B3660C946A5B0C9408960C94B75FEC
:100300000C94B0690C9465950C9493970C94406987
:100310000C94C38C0C94B25B0C94D5650C9433375D
:100320000C94EF640C94C1650C94E9650C9496668A
:100330000C943E5F0C94915B0C942C660C94B1640D
:100340000C94A35F0C947F5B0C94B6640C94696569
:100350000C94A2970C94FD650C942B4A0C941E9E51
:100360000C94975B0C94E3640C9434690C94CB5F0D
:100370000C9424600C9452690C9480650C94649FD6
:100380000C94435F0C941F660C94AC640C945869F5
:100390000C9483690C94676C0C94665F0C943A69B6
:1003A0000C94B4370C946E5B0C945C5F0C94D06628
:1003B0000C94619F0C94EF600C9457660C946895B4
:1003C0000C947B5B0C943A400C94AD5B0C948A5F6C
:1003D0000C94485F0C94A55B0C946B950C94F5649D
:1003E0000C94895B4E414E494E495459494E46CD75
:1003F000CCCC3D0AD7233C17B7D13877CC2B3295DC
:1004000095E6241FB14F0A000020410000C84200B9
:10041000401C4620BCBE4CCA1B0E5AAEC59D744340
:100420004F4D4D554E49434154494F4E004452594A
:1004300052554E004552524F525300494E464F00BE
:100440004543484F0020746F6F206C6F6E672065C6
:100450007874727573696F6E2070726576656E74EC
:1004600065640A0020636F6C64206578747275732C
:10047000696F6E2070726576656E7465640A0047F8
:10048000322F47332062616420706172616D657440
:100490006572730A00536C6565702E2E2E00000085
:1004A00048420000484200000041000000000000F7
:1004B00095430080894300007A43FFFFFF50726F2D
:1004C00062696E67206661696C65640A0050726FCC
:1004D00062696E67206661696C656400205A3A2023
:1004E0000020593A200042656420583A20004E6F9F
:1004F000206D6F76652E002569730025696D2025B6
:100500006973002569682025696D202569730025B8
:100510006964202569682025696D20256973002597
:10052000697920256964202569682025696D202561
:100530006973005072696E742074696D653A2000A9
:100540004520436F6F6C696E672E2E2E0045204844
:10055000656174696E672E2E2E006F66660040041A
:100560003B0434042D041F0444454255473A004DD2
:1005700031313320530042656420636F6F6C696EC4
:10058000672E2E2E004265642068656174696E676F
:100590002E2E2E006F6B0050533A300A0050533A03
:1005A000310A0054415A204F46462E004D4F5449BF
:1005B0004F4E5F4D4F44455300544845524D414CBA
:1005C0005F50524F54454354494F4E004155544F8C
:1005D0005245504F52545F53445F53544154555306
:1005E00000454D455247454E43595F504152534592
:1005F0005200434153455F4C494748545F4252497A
:100600004748544E45535300544F47474C455F4C61
:10061000494748545300534F4654574152455F5041
:100620004F574552004255494C445F50455243454F
:100630004E54004C4556454C494E475F4441544149
:10064000005A5F50524F4245004155544F4C455659
:10065000454C005052494E545F4A4F420050524F51
:100660004752455353004155544F5245504F5254F1
:100670005F54454D5000564F4C554D4554524943DB
:1006800000454550524F4D0053455249414C5F582B
:100690004F4E5F584F4646004649524D57415245CE
:1006A0005F4E414D453A4D61726C696E20627567CF
:1006B0006669782D322E302E782028476974687547
:1006C000622920534F555243455F434F44455F5580
:1006D000524C3A68747470733A2F2F676974687556
:1006E000622E636F6D2F4D61726C696E4669726D1B
:1006F000776172652F4D61726C696E2050524F5454
:100700004F434F4C5F56455253494F4E3A312E306E
:10071000204D414348494E455F545950453A544154
:100720005A2045585452554445525F434F554E54F4
:100730003A3120555549443A636564653261326601
:100740002D343161322D343734382D396231322D28
:100750006335356336326633363766660A002F2FC7
:1007600020004D31343520533C696E6465783E205D
:100770006F7574206F662072616E67652028302D5A
:1007800031290A0020466C6F773A200050726F744E
:1007900065637465642050696E0A0020643A002025
:1007A000693A0020703A0043290A0061626C65646E
:1007B00020286D696E2074656D702000436F6C6435
:1007C00020657874727564657320617265200050CD
:1007D0004944204175746F74756E65206661696C5B
:1007E0006564212042616420657874727564657265
:1007F000206E756D6265720A00454550524F4D205E
:100800004F4B0A003F5A206F7574206F662072614B
:100810006E676520282D323020746F203230290A0F
:100820000050726F6265205A204F66667365743A95
:1008300020004E6F2063617365206C696768740ADD
:1008400000496E76616C69642065787472756465C0
:10085000720A006F6B00456E6473746F70732025AD
:100860006320256320256320256300205A3A002059
:10087000593A0020583A00656E6473746F707320A3
:100880006869743A20004572726F722077726974D9
:10089000696E6720746F20454550524F4D210A0004
:1008A00025301D0C282924311C0B4527232F1B0A1A
:1008B0004443222B1A4142033809FF360403080639
:1008C00002020001627573793A2070617573656484
:1008D00020666F7220696E7075740A006275737994
:1008E0003A2070617573656420666F722075736558
:1008F000720A00627573793A2070726F6365737360
:10090000696E670A004B494C4C20636175736564DE
:10091000206279204B494C4C20627574746F6E2FA5
:1009200070696E0A004B494C4C20636175736564B5
:1009300020627920746F6F206D75636820696E6125
:1009400063746976652074696D65202D2063757206
:1009500072656E7420636F6D6D616E643A20005035
:100960006C65617365207265736574005052494E01
:100970005445522048414C544544004B494C4C4549
:10098000442E20005072696E7465722068616C7428
:1009900065642E206B696C6C28292063616C6C6522
:1009A00064210A001FFFFFFFFFFFFF60000000003F
:1009B00001FF400000000000FF8000000000007FF9
:1009C00083CF00000C303F87FF80000C301F8679FA
:1009D00080000C000F8C30C7838C30E78C30CFC781
:1009E000CC31F38C30DCECEC33B98C30D86C6C331C
:1009F000198C30D06C0C33198C30D86C0C33198CAA
:100A000030DC6C0E3B198C30CF7C079F198C30C7C3
:100A10007C038F194000000000000260000000000D
:100A200000061FFFFFFFFFFFF82020506C616E6E75
:100A3000657242756666657242797465733A200024
:100A40002046726565204D656D6F72793A200043CE
:100A50006F6D70696C65643A20446563203136209F
:100A6000323031380A00207C20417574686F723A48
:100A70002028416C657068204F626A65637473203A
:100A8000496E632C2054415A290A00323031382DE6
:100A900030312D323000204C617374205570646108
:100AA0007465643A20006275676669782D322E306D
:100AB0002E780A004D61726C696E0020536F667467
:100AC000776172652052657365740A0020576174FE
:100AD0006368646F672052657365740A0020427210
:100AE0006F776E206F75742052657365740A0020ED
:100AF00045787465726E616C2052657365740A0086
:100B0000506F77657255700A0073746172740A00D1
:100B10006563686F3A004572726F723A00454550DE
:100B2000524F4D206461746173697A6520657272F9
:100B30006F722E0A00290A002062797465733B20C7
:100B400063726320002073746F7265642073657430
:100B500074696E6773207265747269657665642066
:100B60002800202863616C63756C617465642921B9
:100B70000A0020213D2000454550524F4D20435250
:100B800043206D69736D61746368202D2028737430
:100B90006F7265642920002053697A653A20004904
:100BA0006E6465783A2000204D61726C696E3D5626
:100BB0003633290A0028454550524F4D3D004545E2
:100BC00050524F4D2076657273696F6E206D697358
:100BD0006D61746368200048617264636F6465646A
:100BE0002044656661756C742053657474696E6722
:100BF00073204C6F616465640A0028230000282379
:100C000000006400000010270000000048440000BD
:100C1000484400000041000048420000C942000072
:100C2000C9420000C843008054443A0A0020204DC5
:100C3000383531205A005A2D50726F6265204F6648
:100C4000667365740020440020490020204D333035
:100C50003420500020440020490020204D33303102
:100C60002050005049442073657474696E67733A6C
:100C70000A0020460020420020480020204D313448
:100C8000352053004D6174657269616C206865613F
:100C900074757020706172616D65746572733A0A63
:100CA00000205A0020590020204D323036205800B4
:100CB000486F6D65206F66667365743A0A0020455B
:100CC00000205A00205900205800205400205300D2
:100CD00020204D32303520420020453C6D61785F48
:100CE000655F6A65726B3E0020583C6D61785F7885
:100CF0005F6A65726B3E20593C6D61785F795F6A0F
:100D000065726B3E205A3C6D61785F7A5F6A6572EE
:100D10006B3E00416476616E6365643A20423C6DCF
:100D2000696E5F7365676D656E745F74696D655F2D
:100D300075733E20533C6D696E5F666565647261D4
:100D400074653E20543C6D696E5F74726176656CAB
:100D50005F66656564726174653E002054002052D0
:100D60000020204D323034205000416363656C65B3
:100D7000726174696F6E2028756E6974732F733297
:100D8000293A20503C7072696E745F616363656CD0
:100D90003E20523C726574726163745F6163636587
:100DA0006C3E20543C74726176656C5F6163636570
:100DB0006C3E0A00204500205A0020590020204D9A
:100DC0003230312058004D6178696D756D20416376
:100DD00063656C65726174696F6E2028756E6974E5
:100DE000732F7332293A0A00204500205A002059F7
:100DF0000020204D3230332058004D6178696D75E8
:100E00006D206665656472617465732028756E690E
:100E100074732F73293A0A00204500205A00205984
:100E20000020204D393220580053746570732070B3
:100E3000657220756E69743A0A0020204D32303098
:100E40002044300A0020204D32303020440020441D
:100E5000697361626C65640A0046696C616D656EF8
:100E6000742073657474696E67733A0020204D3185
:100E700034392043203B20556E69747320696E20FD
:100E800043656C736975730A0020286D6D29002015
:100E900020473231202020203B20556E697473207A
:100EA000696E206D6D0024F4D43050C38E20C2A230
:100EB0004017828B7011127A910D816CD90AA8614A
:100EC000E108C7586607615143061E4B5D05C145E1
:100ED000A7041A411104093D9803713931034036C2
:100EE000DB0265339102D4305402802E1D02632C44
:100EF000EE01752AC501B028A001102781018F25B8
:100F000064012B244B01E0223401AC211F018D2010
:100F10000D01801FFC00841EED00971DDF00B81C32
:100F2000D200E61BC600201BBC00641AB200B21936
:100F3000A8000A19A0006A189900D117910040175B
:100F40008B00B516840031167E00B31579003A1572
:100F50007300C7146F0058146A00EE1366008813FC
:100F6000630025135E00C7125B006C125700151258
:100F70005400C111510070114F0021114B00D610C7
:100F800049008D1047004610440002104200C00F77
:100F90004000800F3E00420F3C00060F3B00CB0E8E
:100FA0003800930E37005C0E3500270E3400F30D29
:100FB0003200C10D3100900D3000600D2E00320D59
:100FC0002D00050D2C00D90C2B00AE0C2900850C32
:100FD00029005C0C2700350C27000E0C2600E80BBE
:100FE0002400C40B2400A00B23007D0B23005A0B0C
:100FF0002100390B2100180B2000F80A1F00D90A24
:101000001E00BB0A1E009D0A1D00800A1D00630A07
:101010001C00470A1B002C0A1B00110A1A00F709C2
:101020001A00DD091900C4091900AB091900920959
:1010300017007B091800630917004C0916003609D0
:101040001600200916000A091500F5081500E00829
:101050001400CC081400B8081400A4081400900868
:1010600013007D0812006B08130058081200460890
:1010700012003408110023081100120811000108A1
:101080001100F0071000E0071000D0071000C007A3
:101090001000B0070F00A107100091070E00830792
:1010A0000F0074070F0065070E0057070E00490771
:1010B0000E003B070D002E070E0020070D00130742
:1010C0000D0006070D00F9060C00ED060D00E00608
:1010D0000C00D4060C00C8060C00BC060C00B006C0
:1010E0000C00A4060B0099060C008D060B0082066E
:1010F0000B0077060B006C060B0061060A00570612
:101100000B004C060A0042060A0038060A002E06AA
:101110000A0024060A001A060A001006090007063B
:101120000A00FD050900F4050900EB050900E205C8
:101130000900D9050900D0050900C7050900BE0549
:101140000900B5050800AD050800A50509009C05C6
:101150000800940508008C050800840508007C053B
:101160000800740508006C050700650508005D05AA
:101170000700560508004E05070047050700400513
:10118000080038050700310507002A050700230578
:1011900007001C050600160507000F0507000805D7
:1011A000060002050700FB040600F5040700EE0434
:1011B0000600E8040600E2040700DB040600D5048C
:1011C0000600CF040600C9040600C3040600BD04DF
:1011D0000600B7040600B1040500AC040600A6042E
:1011E0000600A00405009B04060095040500900479
:1011F00006008A04050085040500800406007A04C0
:10120000050075040500700405006B040500660404
:101210000500610405005C04050057040500520444
:1012200005004D04050048040500430405003E0484
:1012300004003A04050035040500300404002C04C1
:10124000050027040400230405001E0404001A04FA
:10125000040016040500110404000D040400090430
:1012600005000404040000040400FC030400F80367
:101270000400F4030400F0030400EC030400E8039A
:101280000400E4030400E0030400DC030400D803CA
:101290000400D4030400D0030400CC030400C803FA
:1012A0000300C503030024F404D9201BC40C5C0E06
:1012B0009804C4095F0265077101F405F900FB0495
:1012C000B30048048700C1036900580355000303B5
:1012D0004500BE023A008402310053022A0029026E
:1012E000250004022000E4011C00C8011900AF0120
:1012F00017009801140084011300710110006101AE
:10130000100051010E0043010D0036010B002B01AE
:101310000B0020010B00150109000C01090003015D
:101320000800FB000800F3000800EB000700E400E1
:101330000600DE000600D8000600D2000600CC0041
:101340000500C7000500C2000500BD000400B9008B
:101350000400B5000400B1000400AD000400A900C1
:101360000400A5000300A20003009F0004009B00EE
:101370000300980003009500020093000300900012
:1013800003008D0002008B0003008800020086002D
:10139000020084000300810002007F0002007D0043
:1013A00002007B0002007900020077000100760055
:1013B00002007400020072000100710002006F0060
:1013C00002006D0001006C0002006A00010069006B
:1013D0000200670001006600010065000100640072
:1013E00002006200010061000100600001005F0076
:1013F00002005D0001005C0001005B0001005A007A
:10140000010059000100580001005700010056007A
:10141000010055000100540001005300000053007A
:1014200001005200010051000100500001004F0076
:1014300001004E0000004E0001004D0001004C0074
:1014400001004B0000004B0001004A000100490070
:10145000010048000000480001004700010046006C
:101460000000460001004500000045000100440066
:101470000100430000004300010042000000420060
:1014800001004100000041000100400001003F0058
:1014900000003F0001003E0000003E0001003D0052
:1014A00000003D0001003C0000003C0000003C004A
:1014B00001003B0000003B0001003A0000003A0040
:1014C0000100390000003900010038000000380038
:1014D000000038000100370000003700010036002E
:1014E0000000360000003600010035000000350025
:1014F000000035000100340000003400000034001A
:10150000010033000000330000003300010032000E
:101510000000320000003200010031000000310004
:1015200000003100010030000000300000003000F9
:1015300001002F0000002F0000002F0000002F00EE
:1015400001002E0000002E0000002E0001002D00E2
:1015500000002D0000002D0000002D0001002C00D7
:1015600000002C0000002C0000002C0001002B00CB
:1015700000002B0000002B0000002B0001002A00BF
:1015800000002A0000002A0000002A0001002900B3
:1015900000002900000029000000290000002900A7
:1015A000010028000000280000002800000028009A
:1015B000000028000100270000002700000027008D
:1015C0000000270000002700010026000000260080
:1015D0000000260000002600000026000100250073
:1015E0000000250000002500000025000000250067
:1015F0000000250001002400000024000000240059
:10160000000024000000240001002300000023004B
:10161000000023000000230000002300000023003E
:101620000000230001002200000022000000220030
:101630000000220000002200000022000100210022
:101640000000210000002100000021000000210016
:101650000000210000002100010020000000200007
:1016600000002000000020000000200000002000FA
:10167000000020000000200001001F0000001F00EB
:1016800000001F0000001F0000001F0000001F00DE
:1016900000001F0001001E0000001E0000001E00D0
:1016A00000001E000000043700001E290000511B2E
:1016B00000005810000010090000CC04000078025F
:1016C000000041010000453120544845524D414C35
:1016D0002052554E415741590042454420544845F7
:1016E000524D414C2052554E415741590054686566
:1016F000726D616C2052756E6177617900453120A1
:101700004572723A204D415854454D500045727211
:101710003A204D415854454D5020424544004D41DA
:101720005854454D5020747269676765726564004E
:101730004531204572723A204D494E54454D500076
:101740004572723A204D494E54454D502042454411
:10175000004D494E54454D5020747269676765725B
:10176000656400202F002042403A0020403A0020CB
:10177000573A00436C69636B20746F207265737510
:101780006D652E2E2E00656E7175657565696E67C7
:10179000202200526573656E643A200053544F5006
:1017A0005045442E20005072696E74657220737427
:1017B0006F707065642064756520746F2065727247
:1017C0006F72732E20466978207468652065727286
:1017D0006F7220616E6420757365204D3939392030
:1017E000746F20726573746172742E202854656D55
:1017F00070657261747572652069732072657365B6
:10180000742E20536574206974206166746572209B
:1018100072657374617274696E67290A004E6F2075
:10182000436865636B73756D2077697468206C69B4
:101830006E65206E756D6265722C204C617374202C
:101840004C696E653A2000636865636B73756D2043
:101850006D69736D617463682C204C617374204CE6
:10186000696E653A20004C696E65204E756D626543
:1018700072206973206E6F74204C617374204C6900
:101880006E65204E756D6265722B312C204C617334
:1018900074204C696E653A20004D3131300045723C
:1018A000723A207574663820666F6E74206E6F749D
:1018B00020696E697469616C697A65642E0045728D
:1018C000723A207574663820666F6E74206E6F747D
:1018D00020696E697469616C697A65642E0045726D
:1018E000723A207574663820666F6E74206E6F745D
:1018F00020696E697469616C697A65642E000006FE
:101900000C00FE07022603BC017FFE08FE08FE0550
:10191000080806000040F0C8888898781005080874
:10192000060000C0F88888888888F8050505060044
:10193000012030F830200508080600002070F8204B
:10194000202020E00509090600FF2070A8A8B8881B
:10195000887020050606060001E08CEA8C8A0A05DC
:1019600009090600FFF8A88888888888A8F8050A69
:101970000A0600FE205050505088A8A88870030323
:101980000306000340A040FFFFFFFFFFFFFFFFFF34
:10199000FFFFFFFFFFFFFFFFFFFFFFFFFF00000054
:1019A0000605FF0107070602008080808080008016
:1019B000030303060105A0A0A005060606000050CB
:1019C000F85050F8500509090600FF2070A8A070D3
:1019D00028A87020050707060000C8C810204098F6
:1019E0009805070706000040A0A040A890680103E2
:1019F000030602058080800309090601FF2040409C
:101A00008080804040200309090601FF804040207B
:101A1000202040408005070706000020A8702070A5
:101A2000A8200505050600012020F8202002030358
:101A30000601FFC04080050101060003F802020212
:101A4000060100C0C005070706000008101020406E
:101A50004080050707060000708898A8C8887003B2
:101A6000070706010040C040404040E00507070668
:101A70000000708808102040F8050707060000F8ED
:101A800008103008887005070706000010305090D5
:101A9000F81010050707060000F880F008088870A5
:101AA000050707060000304080F0888870050707AA
:101AB000060000F808101020202005070706000087
:101AC000708888708888700507070600007088880D
:101AD00078081060020505060100C0C000C0C00201
:101AE00006060601FFC0C000C040800305050601D0
:101AF000012040804020050303060002F800F8039F
:101B0000050506010180402040800507070600000A
:101B1000708810202000200507070600007088B894
:101B2000A8B88070050707060000708888F88888C4
:101B300088050707060000F04848704848F0050788
:101B400007060000708880808088700507070600FF
:101B500000F04848484848F0050707060000F880AC
:101B600080F08080F8050707060000F88080F0808C
:101B700080800507070600007088808098887005BF
:101B80000707060000888888F88888880307070602
:101B90000100E04040404040E005070706000038F3
:101BA0001010101090600507070600008890A0C074
:101BB000A09088050707060000808080808080F85C
:101BC00005070706000088D8A888888888050707C1
:101BD0000600008888C8A8988888050707060000BE
:101BE00070888888888870050707060000F0888854
:101BF000F080808005070706000070888888A8901C
:101C000068050707060000F08888F0A0908805079F
:101C100007060000708880700888700507070600B6
:101C200000F82020202020200507070600008888D3
:101C3000888888887005070706000088888888508B
:101C4000502005070706000088888888A8A8500546
:101C50000707060000888850205088880507070677
:101C6000000088885020202020050707060000F883
:101C70000810204080F80309090601FFE0808080F9
:101C800080808080E005070706000080404020102B
:101C900010080309090601FFE02020202020202051
:101CA000E00503030600052050880501010600FE3B
:101CB000F803030306010580402005050506000022
:101CC00070087888780507070600008080F088880B
:101CD00088F00505050600007080808870050707FC
:101CE0000600000808788888887805050506000041
:101CF0007088F08070050707060000304840E0401B
:101D000040400507070600FE70888888780870053F
:101D100007070600008080F0888888880307070688
:101D200001004000C0404040E00409090601FE10E7
:101D3000003010101010906005070706000080802A
:101D40008890E09088030707060100C040404040AB
:101D500040E0050505060000D0A8A8A8A8050505CF
:101D6000060000B0C8888888050505060000708850
:101D70008888700507070600FEF0888888F0808054
:101D80000507070600FE7888888878080805050595
:101D9000060000B0C8808080050505060000788038
:101DA0007008F00507070600002020F82020201802
:101DB0000505050600008888889868050505060061
:101DC0000088888850200505050600008888A8A896
:101DD00050050505060000885020508805070706B5
:101DE00000FE88888850204080050505060000F820
:101DF000102040F80309090601FF204040408040C0
:101E00004040200109090602FF8080808080808098
:101E100080800309090601FF804040402040404087
:101E20008005030306000248A890FF56652D6A65E9
:101E3000726B0056652D6A65726B00567A2D6A6565
:101E4000726B00567A2D6A65726B0056792D6A6541
:101E5000726B0056792D6A65726B0056782D6A6533
:101E6000726B0056782D6A65726B00416476616E04
:101E70006365642053657474696E67730045737499
:101E80006570732F6D6D004573746570732F6D6D84
:101E9000005A73746570732F6D6D005A737465709A
:101EA000732F6D6D005973746570732F6D6D0059CC
:101EB00073746570732F6D6D005873746570732F34
:101EC0006D6D005873746570732F6D6D004164768D
:101ED000616E6365642053657474696E677300494D
:101EE0006E697469616C697A6520454550524F4D41
:101EF00000416476616E6365642053657474696E35
:101F00006773004D34323800496E697469616C69D9
:101F10007A6520454550524F4D0046696C616D65AC
:101F20006E740054656D70657261747572650053EE
:101F3000746570732F6D6D004A65726B0041636349
:101F4000656C65726174696F6E0056656C6F63696C
:101F500074790053657420686F6D65206F666673D1
:101F60006574730050726F6265205A204F66667305
:101F700065740050726F6265205A204F6666736503
:101F80007400436F6E66696775726174696F6E0085
:101F900053746F72652073657474696E6773004261
:101FA000656400426564004E6F7A7A6C65004E6F1E
:101FB0007A7A6C650046616E2073706565640046D0
:101FC000616E20737065656400436F6E6669677546
:101FD000726174696F6E00556E6B6E6F776E206301
:101FE0006F6D6D616E643A20220000000A0B0209D9
:101FF0000C0D0E08070304010000000000000000A3
:1020000000000000000000000000000000000000D0
:10201000000000000000121110000000000000008D
:1020200000000000000000000000000000000000B0
:1020300020746F6F206C6F6E672065787472757393
:10204000696F6E2070726576656E7465640A002033
:10205000636F6C6420657874727573696F6E20703D
:10206000726576656E7465640A00000021002400C4
:1020700027002A002D003000330001010000040178
:1020800007010A0100002200250028002B002E0075
:102090003100340002010000050108010B010000BD
:1020A00020002300260029002C002F003200000110
:1020B00000000301060109010505050507050808DB
:1020C0000808020202020A0A0808040404040101C2
:1020D00001010101010103030303030303030407D7
:1020E00007070C0C0C0C0C0C0C0C0202020206066E
:1020F0000606060606060B0B0B0B0B0B0B0B010261
:102100001020200808102040102040800201020109
:1021100008040201010204081020408080402010C1
:10212000080402018004020180402010080402011A
:102130000804020101020408102040800102040882
:10214000102040804D6F766520302E316D6D004D32
:102150006F766520316D6D004D6F76652031306D85
:102160006D004D6F7665206178697300486F746506
:102170006E6420746F6F20636F6C640045787472B6
:1021800075646572004D6F7665205A004D6F7665F7
:102190002059004D6F76652058004D6F76652058A8
:1021A000004D6F76652059004D6F7665205A0045C9
:1021B00078747275646572004578747275646572BE
:1021C000004D6F7665205A004D6F76652059004DA1
:1021D0006F76652058004D6F74696F6E00446973A7
:1021E00061626C65207374657070657273004D3840
:1021F00034004175746F20686F6D65004732380098
:102200004D6F76652061786973004D61696E00508D
:1022100072656865617420504C4120456E640050C1
:1022200072656865617420504C41204265640050BD
:1022300072656865617420504C410054656D70652D
:1022400072617475726500507265686561742041D1
:10225000425320456E640050726568656174204188
:102260004253204265640050726568656174204184
:1022700042530054656D70657261747572650050EB
:1022800072656865617420414253005072656865EB
:10229000617420504C4100436F6F6C646F776E0027
:1022A00046616E20737065656420320046616E2061
:1022B000737065656420320046616E2073706565D9
:1022C0006420310046616E207370656564203100C2
:1022D00042656400426564004E6F7A7A6C65004E18
:1022E0006F7A7A6C65004D61696E0046696C2E20CC
:1022F0004469612E0046696C2E204469612E004FAE
:102300006666004F6E004520696E206D6D5E33007D
:10231000416476616E6365642053657474696E67A9
:1023200073005049442D44005049442D4400504905
:10233000442D49005049442D49005049442D500036
:102340005049442D50002008204661637400200845
:102350002046616374002008204D61780020082029
:102360004D6178002008204D696E002008204D69DD
:102370006E004F6666004F6E004175746F74656D38
:102380007000416476616E6365642053657474699E
:102390006E677300205400205200416363656C65D2
:1023A000726174696F6E3A205000496E76616C6993
:1023B000642065787472756465720A0020643A005E
:1023C00020693A0020703A004F4646004F4E0020E8
:1023D0005A00205900580020204D61783A200020F2
:1023E0005A00205900580020204D696E3A200053B1
:1023F0006F667420656E6473746F70733A2000208A
:10240000496E76616C696420657874727564657272
:102410002000486F6D65202573257325732066693C
:10242000727374002066697273740A005A0059004E
:102430005800486F6D6520004F66667365747320A1
:102440006170706C696564004572723A20546F6FF8
:10245000206661722100546F6F206661722066727F
:102460006F6D207265666572656E636520706F6959
:102470006E740A004361703A0054415A20526561FB
:1024800064792E005072696E74696E672E2E2E006C
:102490005072696E742070617573656400000095F8
:1024A000430080894300007A4300000000000000E0
:1024B0000000000000290A002062797465733B2047
:1024C000637263200053657474696E67732053747C
:1024D0006F7265642028004D6963726F7374657054
:1024E0007320756E617661696C61626C650A004586
:1024F000313A200045303A20005A3A2000593A201B
:10250000004D53312C4D53322C4D53332050696EB6
:10251000730A583A200023646566696E6520444555
:102520004641554C545F0000626564004B642000D6
:102530004B6920004B702000504944204175746F56
:1025400074756E652066696E6973686564212050D4
:10255000757420746865206C617374204B702C2036
:102560004B6920616E64204B6420636F6E737461ED
:102570006E74732066726F6D2062656C6F77206970
:102580006E746F20436F6E66696775726174696FF0
:102590006E2E680A00504944204175746F74756E40
:1025A00065206661696C6564212074696D656F756D
:1025B000740A00453120544845524D414C20525533
:1025C0004E415741590042454420544845524D41DF
:1025D0004C2052554E4157415900546865726D6107
:1025E0006C2052756E6177617900453120486561D4
:1025F00074696E67206661696C6564004265642079
:1026000068656174696E67206661696C656400481D
:10261000656174696E67206661696C656400504924
:1026200044204175746F74756E65206661696C65D0
:1026300064212054656D70657261747572652074D3
:102640006F6F20686967680A00204B643A20002099
:102650004B693A2000204B703A20000A20436C61FD
:102660007373696320504944200A002054753A204E
:1026700000204B753A2000206D61783A2000206DD3
:10268000696E3A200020643A200020626961733A42
:102690002000504944204175746F74756E65207335
:1026A000746172740A006265640A002C2073797385
:1026B00074656D2073746F70706564212048656166
:1026C0007465725F49443A20004265642068656120
:1026D00074696E67206661696C6564004865617441
:1026E000696E67206661696C6564004531204865E4
:1026F0006174696E67206661696C65640048656134
:1027000074696E67206661696C656400202D2049DC
:102710006E76616C69642065787472756465722088
:102720006E756D62657220210A001000AD033001E4
:102730006A0150022B0170030A019004F500B005F4
:10274000E500D006D800F007CE001009C500300A19
:10275000BE00500BB700700CB100900DAB00B00E76
:10276000A600D00FA200F0109D00101299003013A7
:1027700095005014920070158E0090168B00B017C3
:102780008700D0188400F0198100101B7E00301CD7
:102790007B00501D7900701E7600901F7300B020E2
:1027A0007000D0216E00F0226B00102469003025EB
:1027B0006600502663007027610090285E00B029F3
:1027C0005C00D02A5900F02B5600102D5400302EFA
:1027D0005100502F4E0070304B0090314800B03205
:1027E0004500D0334200F0343E0010363B00303715
:1027F00037005038330070392E00903A2900B03B32
:102800002300D03C1B00F03D1100103F0100F03FC1
:102810000000466C6F7700466C6F770046616E2053
:10282000737065656420320046616E207370656563
:102830006420320046616E2073706565642031004B
:1028400046616E20737065656420310042656400E6
:10285000426564004E6F7A7A6C65004E6F7A7A6CCE
:1028600065005370656564005370656564004D6173
:10287000696E002020202020200020202020001F22
:10288000E0201020102010102010202010201030E8
:10289000300840048003001FE03FF03FF03FF01F8E
:1028A000E01FE03FF03FF03FF00FC0078003003F24
:1028B000FFF038007030FC3020FC10207810203001
:1028C000102C00D02E31D02F7BD02F7BD02E31D0AA
:1028D0002C00D020301020781020FC1030FC303834
:1028E00000703FFFF03FFFF03800703186302387E3
:1028F000102787902F87D02F03D0203010207810FA
:102900002078102030102F03D02F87D027879023D6
:1029100087103186303800703FFFF01FFFF81FFF2F
:10292000F80410400208200208200410400820800B
:102930001041001041000820800410400000001FDA
:10294000FFF81FFFF8486F6D696E67206661696C5C
:102950006564006F70656E005452494747455245A3
:1029600044003A20007A5F6D696E00795F6D696E90
:1029700000785F6D696E005265706F7274696E6782
:1029800020656E6473746F70207374617475730A5C
:1029900000205A3A0020593A0020436F756E742087
:1029A000583A0020453A00205A3A0020593A005837
:1029B0003A00000000000000000000000000576125
:1029C000726E696E673A20486F6D696E6720427556
:1029D0006D702044697669736F72203C20310A0063
:1029E0000202040000A0400000A040000080405609
:1029F00054726176206D696E005654726176206D56
:102A0000696E00566D696E00566D696E00566D6197
:102A100078204500566D6178204500566D6178201C
:102A20005A00566D6178205A00566D617820590021
:102A3000566D6178205900566D6178205800566DAA
:102A40006178205800416476616E63656420536547
:102A50007474696E677300416D6178204500416D43
:102A60006178204500416D6178205A00416D6178A0
:102A7000205A00416D6178205900416D61782059DC
:102A800000416D6178205800416D61782058004107
:102A90002D74726176656C00412D74726176656C7F
:102AA00000412D7265747261637400412D7265740A
:102AB0007261637400416363656C00416363656CBC
:102AC00000416476616E6365642053657474696E59
:102AD0006773004C6F61642073657474696E67730B
:102AE00000526573746F7265206661696C7361660C
:102AF000650053746F72652073657474696E6773D3
:102B000000507265686561742041425320636F6EA6
:102B100066005072656865617420504C4120636F97
:102B20006E6600416476616E6365642053657474FB
:102B3000696E6773004D61696E00537769746368ED
:102B400020706F776572206F6E004D3830005377BC
:102B50006974636820706F776572206F6666004DD8
:102B6000383100436F6E66696775726174696F6EA4
:102B70000054656D7065726174757265004D6F7497
:102B8000696F6E0054756E6500496E666F207363E1
:102B90007265656E00004BBF11241FBECFEFD1E2FE
:102BA000DEBFCDBF00E00CBF13E0A0E0B2E0E4EB7D
:102BB000F8E901E00BBF02C007900D92A634B107FF
:102BC000D9F72FE0A6E4B3E001C01D92A033B2070D
:102BD000E1F715E1CCECD5E100E006C02197010951
:102BE000802FFE010E94D9C8CB3CD10780E00807A6
:102BF000A9F70E9463A40C9458CC0C940000815453
:102C00008A3108F042C0E82FF0E04091D80350919B
:102C1000D9036091DA037091DB0304C07695679560
:102C2000579547958A95D2F7842F817040FF2FC022
:102C3000EA5BFC4F9081992309F1E0911907F0912B
:102C40001A07E90FF11D908120ED290F2A3098F025
:102C50009E3211F491810CC09D3211F09B3271F4BF
:102C6000918120ED290F2A3030F09E3239F4928183
:102C700090539A3018F42E2F9F2F02C020E090E03E
:102C80002093F50C9093F60C089580E00895089534
:102C90008F929F92AF92BF92CF92DF92EF92FF926C
:102CA000CF93FC01C080D180E280F38020E030E04F
:102CB000A901C701B6010E9443C487FF08C0C7012C
:102CC000B601905820E030E04AE754E406C020E026
:102CD00030E04AE754E4C701B6010E94A9C420E0ED
:102CE00030E040EA50E40E94EAC820E030E040E2F0
:102CF00051E40E94E4C90E9456CA6B017C01603A0B
:102D0000F6E87F07F1E08F07910584F020EA36E8C6
:102D100041E050E00E94BAC8CA01B9012AE030E09F
:102D200040E050E00E94BAC8605D01C060E260937C
:102D3000100780E1C81687E2D806E104F10494F098
:102D4000C701B60120E137E240E050E00E94BAC876
:102D5000CA01B9012AE030E040E050E00E94BAC860
:102D6000605D01C060E260931107E8EECE16E3E01B
:102D7000DE06E104F10494F0C701B60128EE33E069
:102D800040E050E00E94BAC8CA01B9012AE030E030
:102D900040E050E00E94BAC8605D01C060E260930C
:102DA0001207C701B60124E630E040E050E00E947F
:102DB000BAC88AE0882E912CA12CB12CCA01B90185
:102DC000A50194010E94BAC8605D609313078EE26A
:102DD00080931407C701B601A50194010E94BAC8E7
:102DE000C62FCA01B901A50194010E94BAC8605D4D
:102DF00060931507C05DC093160780E197E0CF91FF
:102E0000FF90EF90DF90CF90BF90AF909F908F900A
:102E100008958F929F92AF92BF92CF92DF92EF92DE
:102E2000FF92CF93FC01C080D180E280F38020E04C
:102E300030E04AE754E4C701B6010E94A9C44B013F
:102E40005C0120E030E0A901C701B6010E9443C443
:102E500087FD05C060E070E080EA90E404C060E0B7
:102E600070E080EA90ECA50194010E94EAC820E09D
:102E700030E040E251E40E94E4C90E9456CA6B016E
:102E80007C0197FF0AC0F094E094D094C094C11CD8
:102E9000D11CE11CF11C8DE201C08BE28093100774
:102EA000C701B60120E137E240E050E00E94BAC815
:102EB0008AE0882E912CA12CB12CCA01B901A50160
:102EC00094010E94BAC8605D60931107C701B60102
:102ED00028EE33E040E050E00E94BAC8CA01B901D0
:102EE000A50194010E94BAC8605D60931207C701F2
:102EF000B60124E630E040E050E00E94BAC8CA01C2
:102F0000B901A50194010E94BAC8605D60931307DE
:102F10008EE280931407C701B601A50194010E94B7
:102F2000BAC8C62FCA01B901A50194010E94BAC846
:102F3000605D60931507C05DC093160780E197E060
:102F4000CF91FF90EF90DF90CF90BF90AF909F9088
:102F50008F9008958F929F92AF92BF92CF92DF92FF
:102F6000EF92FF92FC01C080D180E280F38020E0EC
:102F700030E0A901C701B6010E9443C487FF08C021
:102F8000C701B601905820E030E040E251E406C0AD
:102F900020E030E040E251E4C701B6010E94A9C43C
:102FA00020E030E040EA50E40E94EAC820E030E04F
:102FB00040E251E40E94E4C90E9456CA6B017C01C0
:102FC0006031F7E27F078105910584F020E137E267
:102FD00040E050E00E94BAC8CA01B9012AE030E0DE
:102FE00040E050E00E94BAC8605D01C060E26093BA
:102FF000120788EEC81683E0D806E104F10494F0C5
:10300000C701B60128EE33E040E050E00E94BAC8A4
:10301000CA01B9012AE030E040E050E00E94BAC89D
:10302000605D01C060E260931307E4E6CE16D10450
:10303000E104F10494F0C701B60124E630E040E079
:1030400050E00E94BAC8CA01B9012AE030E040E06D
:1030500050E00E94BAC8605D01C060E2609314074E
:10306000FAE0CF16D104E104F1049CF08AE0882E46
:10307000912CA12CB12CC701B601A50194010E948D
:10308000BAC8CA01B901A50194010E94BAC8605D1D
:1030900001C060E260931507C701B6012AE030E085
:1030A00040E050E00E94BAC8605D6093160782E17C
:1030B00097E0FF90EF90DF90CF90BF90AF909F9000
:1030C0008F9008958F929F92AF92BF92CF92DF928E
:1030D000EF92FF92FC01C080D180E280F38020E07B
:1030E00030E048EC52E4C701B6010E94A9C44B018C
:1030F0005C0120E030E0A901C701B6010E9443C491
:1031000087FD05C060E070E080EA90E404C060E004
:1031100070E080EA90ECA50194010E94EAC820E0EA
:1031200030E040E251E40E94E4C90E9456CA9B018B
:1031300077FF06C022273327261B370B8DE201C0FD
:103140008BE280931107C90168EE73E00E94A6C864
:10315000CB01EAE0F0E0BF010E94A6C8805D809349
:103160001207C90164E670E00E94A6C8CB01BF0146
:103170000E94A6C8805D80931307C901BF010E9409
:10318000A6C8282FCB01BF010E94A6C8805D8093EE
:1031900014078EE280931507205D2093160781E1C6
:1031A00097E0FF90EF90DF90CF90BF90AF909F900F
:1031B0008F9008958F929F92AF92BF92CF92DF929D
:1031C000EF92FF92CF93FC01C080D180E280F38028
:1031D00020E030E04AE754E4C701B6010E94A9C4E8
:1031E0004B015C0120E030E0A901C701B6010E945B
:1031F00043C487FD05C060E070E080EA90E404C04D
:1032000060E070E080EA90ECA50194010E94EAC8B9
:1032100020E030E040E251E40E94E4C90E9456CA36
:103220006B017C0197FD10C020E137E240E050E0E7
:103230000E94BAC8CA01B9012AE030E040E050E07B
:103240000E94BAC8605D09C0F094E094D094C09424
:10325000C11CD11CE11CF11C6DE260931107C70178
:10326000B60128EE33E040E050E00E94BAC88AE0A0
:10327000882E912CA12CB12CCA01B901A501940171
:103280000E94BAC8605D60931207C701B60124E6C8
:1032900030E040E050E00E94BAC8CA01B901A5017F
:1032A00094010E94BAC8605D609313078EE2809318
:1032B0001407C701B601A50194010E94BAC8C62F20
:1032C000CA01B901A50194010E94BAC8605D60936A
:1032D0001507C05DC093160781E197E0CF91FF907D
:1032E000EF90DF90CF90BF90AF909F908F90089518
:1032F0009C0197FF0AC0EE27FF27E81BF90BE43675
:10330000F1050CF44CC08DE230C0283E83E0380754
:103310003CF1C90168EE73E00E94A6C8CB01EAE067
:10332000F0E0BF010E94A6C8805D80931307C90129
:1033300064E670E00E94A6C8CB01BF010E94A6C847
:10334000805D80931407C901BF010E94A6C8CB010C
:10335000BF010E94A6C8805D80931507F9013EC099
:10336000F90124363105DCF080E280931307CF01A8
:1033700064E670E00E94A6C8CB012AE030E0B90103
:103380000E94A6C8805D80931407CF01B9010E94F6
:10339000A6C8CB01B9010E94A6C8805D1DC080E20D
:1033A0008093130780931407EA30F10584F037FF08
:1033B00002C08DE201C080E280931407CF016AE071
:1033C00070E00E94A6C8605D6093150707C037FFD4
:1033D00002C08DE201C080E280931507CF016AE050
:1033E00070E00E94A6C8805D8093160783E197E095
:1033F00008959C0197FD0EC08436910584F064E623
:1034000070E00E94A6C8CB016AE070E00E94A6C8E6
:10341000805D06C03195219531098DE201C080E2C1
:10342000809314072A30310564F0EAE0F0E0C90126
:10343000BF010E94A6C8CB01BF010E94A6C8805D43
:1034400001C080E280931507C9016AE070E00E9424
:10345000A6C8805D8093160784E197E00895282F21
:10346000843628F064E60E9486C8805D01C080E250
:10347000809314072A3048F03AE0822F632F0E948D
:1034800086C80E9486C8905D01C090E2909315079F
:10349000822F6AE00E9486C8905D9093160784E1AF
:1034A00097E00895CF92DF92EF92FF926B017C013B
:1034B00083E3C816D104E104F10470F082E3C81A72
:1034C000D108E108F10862E370E080E090E00E943A
:1034D000DE5F0E94717CECCFC701B6010E94DE5F07
:1034E000FF90EF90DF90CF900C94717CFF920F9340
:1034F0001F93CF93DF931F92CDB7DEB7F82E00EA6C
:1035000018E041E050E0B801CE0101960E9488C366
:1035100089818F1102C081E007C00F5F1F4F88E0D3
:10352000043C180771F780E00F90DF91CF911F9155
:103530000F91FF9008958F929F92AF92BF92CF927A
:10354000DF92EF92FF920F93CF93DF931F92CDB74D
:10355000DEB75C016B017A014901F501808191813F
:103560000E9424C88983002311F0F6018083BE01E4
:103570006F5F7F4FC4010E9464A2F5018081918139
:10358000019691838083FFEFCF1ADF0A81E0E81A6A
:10359000F10819F780E00F90DF91CF910F91FF9024
:1035A000EF90DF90CF90BF90AF909F908F90089555
:1035B0009091C00095FFFCCF8093C6000895CF93F3
:1035C000DF93FC018491EF012196882321F00E9472
:1035D000D81AFE01F7CFDF91CF9108950F931F9373
:1035E000CF93DF938B010E94DF1AE8018991882332
:1035F00019F00E94D81AFACFDF91CF911F910F9145
:10360000089586E19BE00C94DF1A80E19BE00C9426
:10361000DF1AEC010E9414400E94011B84E899E02B
:103620000E94DF1A209711F4CBE7D9E00E94998C11
:1036300061E0CE010E94B1770E944467C091F00D15
:10364000C695C6958BEE9DE00E94E7A3DC2FDD0FAB
:103650001D2F1C0F83E00E94D6411092260EC093AE
:10366000270E8BE197E00E943C431092260ED093E8
:10367000270E8CE699E00E94E1421092260E1093EC
:10368000270E8FE599E00E94E1428FEE9DE00E94B7
:103690007CA28111DFCF89EE93E030E6019729F01B
:1036A000232F2A950000E9F7F9CFF89489EE93E0EB
:1036B00038EE019729F0232F2A950000E9F7F9CF7A
:1036C0000E9414409D9AA59A10920702A895FECFD9
:1036D0007F928F929F92AF92BF92CF92DF92EF92A2
:1036E000FF920F931F93CF93DF931F92CDB7DEB757
:1036F0007C0159018B016B01C40ED51E0C151D05F3
:1037000059F1F70180809180F80171908F017982E1
:10371000C4010E9424C8781691F0672DC4010E944C
:103720002CC8C4010E9424C89981891741F00E94C5
:10373000051B86E898E00E94DF1A81E00EC0BE01FA
:103740006F5F7F4FC5010E9464A2F7018081918164
:10375000019691838083D2CF80E00F90DF91CF914B
:103760001F910F91FF90EF90DF90CF90BF90AF909F
:103770009F908F907F9008952F923F924F925F92EB
:103780006F927F928F929F92AF92BF92CF92DF9271
:10379000EF92FF920F931F93CF93DF93CDB7DEB7D6
:1037A00027970FB6F894DEBF0FBECDBF0E945378A7
:1037B0000E9418606B017C0180910602882359F1F8
:1037C00080910404882339F140918D0550918E0534
:1037D00060918F057091900546015701841A950AF2
:1037E000A60AB70AB7FC2AC0833079F03CF48130CE
:1037F00094F00E94051B83EF98E00BC0843059F4CD
:103800000E94051B84EC98E004C00E94051B8CED0F
:1038100098E00E94DF1A2091060230E0A8EEB3E0A3
:103820000E9477C8C60ED71EE81EF91EC0928D05ED
:10383000D0928E05E0928F05F092900580918705D9
:10384000843030F40E944C45811102C00E940C4427
:103850000E9418606B017C014091C1035091C2032A
:103860006091C3037091C403411551056105710551
:1038700011F18091600390916103A0916203B09176
:103880006303840F951FA61FB71F97018601081BAE
:10389000190B2A0B3B0B37FD0EC00E94011B6091D8
:1038A000190770911A0785E299E00E94EE1A8AE0E2
:1038B0000E94D81A60C040912B0250912C02609156
:1038C0002D0270912E024115510561057105B1F16E
:1038D0009091A70D8091A80D981749F0C0926003B0
:1038E000D0926103E0926203F092630327C080915B
:1038F000600390916103A0916203B0916303840F10
:10390000951FA61FB71FA7019601281B390B4A0B4D
:103910005B0B57FD13C0179A809175038E7F8093C0
:103920007503169A809175038D7F80937503159AA0
:10393000809175038B7F80937503149A8091A10504
:103940009091A205679902C0019604C01816190645
:103950002CF401979093A2058093A1058091A10575
:103960009091A2058E3E924054F00E94011B85E08A
:1039700099E00E94DF1A80E090E00E94091B0E94FB
:1039800018600091990510919A0520919B0530913E
:103990009C054B015C01801A910AA20AB30AB7FC8C
:1039A0003AC08B019C010C53164F2F4F3F4F009391
:1039B000990510939A0520939B0530939C05079BCE
:1039C000CAC1069BC8C1059BC6C12091080621112A
:1039D000C2C1049BC0C1009195051091960520912C
:1039E000970530919805011511052105310509F458
:1039F000BBC1DC01CB01801B910BA20BB30B80562A
:103A00009A4EA109B109B7FFAFC1749A62E870E09C
:103A100082E00E94155F80919D0590919E05A09186
:103A20009F05B091A00597018601081B190B2A0B71
:103A30003B0B37FD40C19091A70D8091A80D9813C5
:103A400006C060915B0710915C0719831BC0E09171
:103A5000A80D8CE48E9FF0011124E854F84F60818A
:103A6000E091A80D8E9FF0011124E754F84F80805B
:103A700089828091A80D9091A70D981719F08F5FFA
:103A80008F70F9CF70E088E00E94155F9980692DF2
:103A900070E086E00E94155F8091FD05882309F49F
:103AA000FDC02090110230901202A0901302AF824C
:103AB000B0901402BE8260918C0C70918D0C6E5F80
:103AC0007F4F072E000C880B990B0E944AC491016E
:103AD000A5010E9443C487FDE1C00091A80D0983A0
:103AE0001A821B821C821D828091A70D1981811769
:103AF00009F460C0812F90E02CE4289FF001299FF9
:103B0000F00D1124EE58F84F458956896789708D5C
:103B1000452B462B472B81F4418D528D638D748D3F
:103B2000452B462B472B41F4458D568D678D70A153
:103B3000452B462B472BC9F13CE4389F8001399F28
:103B4000100D11240E58184FF80161817281838184
:103B500094810E9498CB4B015C01F80161A172A194
:103B600083A194A10E9448C42B013C01F80165A1E6
:103B700076A187A190A50E9448C49B01AC01C30116
:103B8000B2010E94E4C9A50194010E94A9C45B018D
:103B90008C012A813B814C815D810E944ACB1816A1
:103BA00024F4AA82BB820C831D8389818F5F8F706E
:103BB00089839ACF20911502309116024091170205
:103BC000509118026A817B818C819D810E94A9C4D9
:103BD00091014F815E810E94EAC85B018C019B01CB
:103BE000AC01B1018F819E810E944ACB1816ACF0C6
:103BF00020900D0230900E0280900F028F829090E4
:103C000010029E829101A401B501C8010E944ACB15
:103C100018161CF015010F831E838090910590905B
:103C20009205A0909305B090940591014F815E811B
:103C3000C501B4010E944ACB1816D4F420E037ED38
:103C400043EA5CE3B1018F819E810E94A9C42B01EC
:103C50003C0128E431EE4AE75FE3C501B4010E946C
:103C6000A9C4A30192010E94EAC81B018F839E830D
:103C7000C101AF81BE818093910590939205A0937D
:103C80009305B0939405B101CD010E9456CA70937B
:103C90008D0C60938C0C80E00E94C53F04E6C00E42
:103CA000D11CE11CF11CC0929D05D0929E05E092B2
:103CB0009F05F092A0050E94717C0E94017780917F
:103CC000BC03882309F453C00E9418600091B80314
:103CD0001091B9032091BA033091BB03DC01CB01F1
:103CE000801B910BA20BB30BB7FD41C00E94186063
:103CF0006B017C012091BC0330E0A8EEB3E00E9490
:103D000077C8C60ED71EE81EF91EC092B803D0921F
:103D1000B903E092BA03F092BB0380E00E940B3A31
:103D20008AE027960FB6F894DEBF0FBECDBFDF91B5
:103D3000CF911F910F91FF90EF90DF90CF90BF90A8
:103D4000AF909F908F907F906F905F904F903F903B
:103D50002F900C94D81A60939505709396058093D4
:103D600097059093980537CE749860E050CE2796CB
:103D70000FB6F894DEBF0FBECDBFDF91CF911F917C
:103D80000F91FF90EF90DF90CF90BF90AF909F90FA
:103D90008F907F906F905F904F903F902F900895FD
:103DA0008F929F92AF92BF92EF92FF920F931F93C9
:103DB000CF93DF93CDB7DEB7A0970FB6F894DEBFF1
:103DC0000FBECDBF611571058105910591F100E030
:103DD000842E912CA12CB12C102FEE24E394F12CE5
:103DE000EC0EFD1EE00EF11C07FDFA94A5019401F6
:103DF0000E944AC8F7016083B901CA010F5F6115CB
:103E000071058105910541F71F3F31F1E1E0F0E0D7
:103E1000EC0FFD1FE10FF11D17FDFA9580818A302F
:103E200010F097E301C090E3890F0E94D81A115057
:103E3000EBCF80E3A0960FB6F894DEBF0FBECDBFE8
:103E4000DF91CF911F910F91FF90EF90BF90AF90B6
:103E50009F908F900C94D81AA0960FB6F894DEBF5E
:103E60000FBECDBFDF91CF911F910F91FF90EF90CB
:103E7000BF90AF909F908F900895CF92DF92EF9276
:103E8000FF926B017C0197FF0BC08DE20E94D81A54
:103E9000F094E094D094C094C11CD11CE11CF11C9E
:103EA0004AE0C701B601FF90EF90DF90CF900C94ED
:103EB000D01ECF93DF93EB010E94DF1ABE01DD0F0E
:103EC000880B990BDF91CF910C943D1FAF92BF925D
:103ED000CF92DF92EF92FF920F931F93CF93DF93D6
:103EE0001F921F92CDB7DEB76F98779A9D9AA598CB
:103EF00081E0809307021092C0008091C000826030
:103F00008093C0001092C50087E08093C400809128
:103F1000C10080618093C1008091C100886080935E
:103F2000C1008091C10080688093C1000E94186028
:103F300089E09BE00E94DF1A0E94051B14B710FF66
:103F400004C080E09BE00E94DF1A11FF04C08FEEE6
:103F50009AE00E94DF1A12FF04C08DED9AE00E94E1
:103F6000DF1A13FF04C08CEC9AE00E94DF1A15FFE1
:103F700004C08BEB9AE00E94DF1A14BE84EB9AE037
:103F80000E94DF1A80E20E94D81A86EA9AE00E9414
:103F9000DF1A8AE00E94D81A0E94051B86E99AE07F
:103FA0000E94DF1A8BE89AE00E94DF1A86E69AE008
:103FB0000E94DF1A0E94051B8FE49AE00E94DF1A1C
:103FC0000E94051B20912A0F30912B0FCE010196E4
:103FD0002115310519F480539F4002C0821B930BB9
:103FE0009A83898369817A8180E49AE00E94591FCB
:103FF00060EC74E089E29AE00E94591F8AE00E9416
:10400000D81A81E08093FD038093FE038093FF0321
:10401000809300040E94A02C8CE0ECEDF3E0A3E977
:10402000BCE001900D928A95E1F70E94E7918091A2
:10403000010180648093010180910201807480936A
:104040000001809101018061809301018091020152
:10405000807180930001809101018860809301014B
:10406000809102018870809300016D9A759880910B
:10407000010180628093010188E00E94705A809162
:10408000010188608093010186E00E94705A6C9A59
:1040900082E00E94705A87ED80937A0010927E0031
:1040A00010927D0080917E00816080937E008091DF
:1040B0007E00846080937E0080E888BD80916E00E1
:1040C000846080936E006AEF70E080E090E00E9470
:1040D000DE5F85E090E090933F0D80933E0D60E0C1
:1040E00080911F02909120020E94717B20E030E0BD
:1040F00040EA50E40E9443C487FF0AC080911F0237
:104100009091200240979093200280931F02E7CF66
:104110008AEF90E0909332028093310260E08091C8
:104120000206909103060E94717B20E030E04AE78E
:1041300053E40E944ACB181654F4809102069091E1
:10414000030640969093030680930206E7CF809182
:104150001D0290911E020E94DD7A20E030E040EACC
:1041600050E40E9443C487FF0AC080911D029091D1
:104170001E02409790931E0280931D02E8CF80910B
:10418000FE059091FF050E94DD7A20E030E046E1D7
:1041900053E40E944ACB181654F48091FE05909186
:1041A000FF0540969093FF058093FE05E8CF0E949F
:1041B000AD7626982E9A25982D9A24982C9A1092AE
:1041C000C8031092C7030E9460931FB7F8948091B0
:1041D000A305811127C0EDEEF0E28491E3E3F1E263
:1041E0009491E82FF0E0EE0FFF1FE659FF4DA591E7
:1041F000B491EC91E92321F461E085E30E94AA5E89
:1042000061E085E30E94D95E8CB580618CBD8CB580
:1042100080648CBD61E084E30E94D95E61E083E349
:104220000E94D95E8091A3058F5F8093A3051FBF75
:10423000579A71E5C72E72E0D72E10E0F601619112
:104240006F0170E0812F0E94ED851F5F1530B1F77F
:10425000999A989A809107018068809307019A9AA9
:10426000809107018064809307018091070180623B
:1042700080930701809107018860809307018091F6
:10428000070180618093070180910701826080931C
:1042900007018091070184608093070166E5C62EBF
:1042A00062E0D62E10E0F60161916F01812F0E942D
:1042B000BD851F5F1630B9F780910A018260809337
:1042C0000A0180910A01816080930A0180910A01AC
:1042D000846080930A0180910A01806480930A01BE
:1042E00080910A01806880930A010F9A179A0E9AAA
:1042F000169A0D9A159A0C9A149A0B9A139A389A40
:104300004098179A809175038E7F80937503399A30
:104310004198169A809175038D7F809375033A9A20
:104320004298159A809175038B7F809375033B9A11
:104330004398149A809180008C7F809380008091B4
:104340008100877E886080938100809180008F73D8
:104350008093800080918100887F826080938100BB
:1043600080E090E49093890080938800109285000B
:104370001092840080916F00826080936F00789427
:104380000E94462D1092A5050E9460936C9A0E948F
:10439000998C0E94EB770091EF0DF090F00D10E0FA
:1043A000B8016853710977FF02C06F5F7F4F759541
:1043B0006795C62E8BEE9DE00E94E7A3B801685476
:1043C000710976956795D62E0257110916950795AE
:1043D000102F4EEEA42EAF0C5AEFB52EBF0C84EA70
:1043E000E82E89E0F82E03E127E04CE06C2D8FEEFB
:1043F0009DE00E941E5A83E00E94D6412CE033E0EB
:104400004A2D6D2D8FEE9DE00E94DF3929E133E0CA
:104410004B2D612F8FEE9DE00E94DF398FEE9DE0E6
:104420000E947CA28111DBCF64EC79E080E090E017
:104430000E94521A98E288E10FB6F894A8958093EA
:1044400060000FBE909360000F900F90DF91CF91AE
:104450001F910F91FF90EF90DF90CF90BF90AF90A2
:1044600008958F929F92AF92BF92CF92DF92EF9278
:10447000FF92CF936B017C01B42E20E030E0A901C4
:104480000E9443C487FF07C08DE20E94D81AF7FA42
:10449000F094F7F8F094C0E060E070E080E09FE313
:1044A000CB1541F02DEC3CEC4CEC5DE30E94A9C433
:1044B000CF5FF6CF9B01AC01C701B6010E94EAC8ED
:1044C0006B017C010E945DCA4B015C014AE00E94C5
:1044D000D01ECC2389F1C501B4010E9448C49B01C0
:1044E000AC01C701B6010E94E9C86B017C018EE2F4
:1044F0000E94D81A20E030E040E251E4C701B60142
:104500000E94A9C44B015C010E9456CA6B01770F3F
:10451000EE08FF08C701B6010E943D1FC701B601A2
:104520000E944AC49B01AC01C501B4010E94E9C8C4
:104530006B017C01C150F1F6CF91FF90EF90DF90BD
:10454000CF90BF90AF909F908F900895CF92DF92C1
:10455000EF92FF926A017B010E94DF1A42E0C701DD
:10456000B601FF90EF90DF90CF900C9431228DE058
:104570000E94D81A8AE00C94D81A80912306909150
:104580002406981759F0E92FF0E0ED5DF94F82818C
:104590009F5F9F779093240690E008958FEF9FEFA1
:1045A00008951F920F920FB60F9211240F900FBE15
:1045B0000F901F9018951F920F920FB60F92112413
:1045C0000BB60F922F938F939F93EF93FF932091AE
:1045D0002406E091230681E08E0F8F779091C6002C
:1045E000281729F0F0E0ED5DF94F9283E82FE09372
:1045F0002306FF91EF919F918F912F910F900BBE0A
:104600000F900FBE0F901F901895A5E3BCE020E01F
:1046100030E0C9012430310510F083E090E0880FCC
:10462000991F880F991FFC01E65EF34F4591559144
:104630006591749154964D935D936D937C935797C8
:10464000FC01E65FF34F4591559165917491949605
:104650004D935D936D937C939797FC01E650F44FD7
:1046600045915591659174914D935D936D937D93B3
:104670002F5F3F4F2430310509F0CBCF80E29EE41D
:10468000A0E0B0E08093450C9093460CA093470CBB
:10469000B093480C80E090E0AAEFB3E48093690CFB
:1046A00090936A0CA0936B0CB0936C0C80E090E834
:1046B000ABE3B5E480936D0C90936E0CA0936F0CFC
:1046C000B093700C8093710C9093720CA093730C48
:1046D000B093740C1092750C1092760C1092770CAB
:1046E0001092780C1092790C10927A0C10927B0C2C
:1046F00010927C0C80E090E0A0E0B1E4809333075E
:1047000090933407A0933507B0933607809337070B
:1047100090933807A0933907B0933A078AE999E94B
:10472000A9E9BEE380933B0790933C07A0933D0724
:10473000B0933E0780E090E0A0E2B1E480933F07B1
:1047400090934007A0934107B09342078CE0ECEDB3
:10475000F3E0DF011D928A95E9F78AE999E9A5E47A
:10476000B1EC8093F9039093FA03A093FB03B09309
:10477000FC0384EB90E09093D0038093CF0386EE0C
:1047800090E09093D2038093D10386E490E09093DD
:10479000CA038093C9038EE690E09093CC03809384
:1047A000CB031092CD031092CE0380E090E0A0ECFA
:1047B000B0E48093320D9093330DA093340DB093F9
:1047C000350D8CE993E5A9E4BDE38093360D909314
:1047D000370DA093380DB093390D80E29CEBAEE31A
:1047E000B4E480933A0D90933B0DA0933C0DB093AD
:1047F0003D0D80E090E0A0EAB1E48093EC0390935B
:10480000ED03A093EE03B093EF0387E197EBA1E5EF
:10481000BFE38093F0039093F103A093F203B0936E
:10482000F30380EF9EECA1EDB4E48093F403909346
:10483000F503A093F603B093F7031092D70380E03B
:1048400090E0A0E4B0E48093D3039093D403A093CA
:10485000D503B093D6031092C8031092C7030E94E9
:1048600060930E94462D0E94CE750E94051B87ED25
:104870009BE00C94DF1AAF92BF92CF92DF92EF923F
:10488000FF920F931F93CF93C82F811102C00E94F4
:10489000051B8FE89EE00E94DF1A89E89EE00E94D7
:1048A000DF1A8AE00E94D81AC11102C00E94051BBB
:1048B0008CE69EE00E94DF1A8AE00E94D81AC1119D
:1048C00014C00E94051B89E59EE00E94DF1A8091BA
:1048D000D703882321F08AE00E94D81A04C08EE40E
:1048E0009EE00E94DF1A0E94051B4091D303509165
:1048F000D4036091D5037091D60385E49EE00E94B5
:10490000A6228AE00E94D81A8091D703811108C09C
:10491000C11102C00E94051B8AE39EE00E94DF1ABB
:10492000C11108C00E94051B89E29EE00E94DF1AA7
:104930000E94051B4091490C50914A0C60914B0C10
:1049400070914C0C81E29EE00E94A62240914D0C99
:1049500050914E0C60914F0C7091500C8EE19EE086
:104960000E94A6224091510C5091520C6091530C20
:104970007091540C8BE19EE00E94A6224091550C50
:104980005091560C6091570C7091580C88E19EE044
:104990000E94A6228AE00E94D81AC11108C00E9473
:1049A000051B8AEF9DE00E94DF1A0E94051B4091C3
:1049B000590C50915A0C60915B0C70915C0C81EF1A
:1049C0009DE00E94A62240915D0C50915E0C60918A
:1049D0005F0C7091600C8EEE9DE00E94A6224091CB
:1049E000610C5091620C6091630C7091640C8BEEC1
:1049F0009DE00E94A6224091650C5091660C60914A
:104A0000670C7091680C88EE9DE00E94A6228AE0F7
:104A10000E94D81AC11108C00E94051B86EC9DE0B7
:104A20000E94DF1A0E94051B6091350C7091360CB4
:104A30008091370C9091380C0E9448C4AB01BC01A6
:104A40008DEB9DE00E94A6226091390C70913A0C8A
:104A500080913B0C90913C0C0E9448C4AB01BC017E
:104A60008AEB9DE00E94A62260913D0C70913E0C65
:104A700080913F0C9091400C0E9448C4AB01BC0156
:104A800087EB9DE00E94A6226091410C7091420C40
:104A90008091430C9091440C0E9448C4AB01BC012E
:104AA00084EB9DE00E94A6228AE00E94D81AC111E0
:104AB00008C00E94051B8AE69DE00E94DF1A0E9442
:104AC000051B4091690C50916A0C60916B0C7091C0
:104AD0006C0C81E69DE00E94A62240916D0C5091E5
:104AE0006E0C60916F0C7091700C8EE59DE00E94D1
:104AF000A6224091710C5091720C6091730C7091D0
:104B0000740C8BE59DE00E94A6228AE00E94D81AD0
:104B1000C11113C00E94051B83E19DE00E94DF1AB2
:104B200088EE9CE00E94DF1A89ED9CE00E94DF1A6B
:104B30008AE00E94D81A0E94051B6091450C709172
:104B4000460C8091470C9091480C0E9448C4AB01E0
:104B5000BC0180ED9CE00E94A6224091750C509112
:104B6000760C6091770C7091780C8DEC9CE00E9433
:104B7000A6224091790C50917A0C60917B0C709137
:104B80007C0C8AEC9CE00E94A62240913307509155
:104B90003407609135077091360787EC9CE00E94DE
:104BA000A6224091370750913807609139077091DC
:104BB0003A0784EC9CE00E94A62240913B0750916A
:104BC0003C0760913D0770913E0781EC9CE00E949C
:104BD000A62240913F075091400760914107709194
:104BE00042078EEB9CE00E94A6228AE00E94D81A1F
:104BF000C11108C00E94051B80EB9CE00E94DF1AD7
:104C00000E94051B4091DC035091DD036091DE039F
:104C10007091DF0387EA9CE00E94A6224091E003A6
:104C20005091E1036091E2037091E30384EA9CE018
:104C30000E94A6224091E4035091E5036091E603AF
:104C40007091E70381EA9CE00E94A6228AE00E941C
:104C5000D81AC11106C00E94051B84E89CE00E947E
:104C6000DF1A8FECA82E83E0B82E99ECC92E93E0C2
:104C7000D92E2DECE22E23E0F22E00E010E0C1113F
:104C800002C00E94051BB8018BE79CE00E94591FDF
:104C9000F501619171915F0188E79CE00E94591FC5
:104CA000F601619171916F0185E79CE00E94591FA7
:104CB000F70161917F0170E082E79CE00E94591F3B
:104CC0008AE00E94D81A0F5F1F4F02301105B9F613
:104CD000C11108C00E94051B83E69CE00E94DF1AF8
:104CE0000E94051B4091320D5091330D6091340D9F
:104CF0007091350D8AE59CE00E94A6222CEA35ECE5
:104D000047E25EE36091360D7091370D8091380D6A
:104D10009091390D0E94E4C9AB01BC0187E59CE08C
:104D20000E94A6222CEA35EC47E25EE360913A0D40
:104D300070913B0D80913C0D90913D0D0E94A9C456
:104D4000AB01BC0184E59CE00E94A6228AE00E949F
:104D5000D81AC11102C00E94051B4091EC0350916A
:104D6000ED036091EE037091EF038BE49CE00E94F1
:104D7000A6222CEA35EC47E25EE36091F0037091E5
:104D8000F1038091F2039091F3030E94E4C9AB0117
:104D9000BC0188E49CE00E94A6222CEA35EC47E2A4
:104DA0005EE36091F4037091F5038091F6039091B6
:104DB000F7030E94A9C4AB01BC0185E49CE00E94FA
:104DC000A6228AE00E94D81AC11110C00E94051BB9
:104DD00086E39CE00E94DF1A89E89EE00E94DF1AC9
:104DE0008AE29CE00E94DF1A0E94051B4091F903B1
:104DF0005091FA036091FB037091FC038DE29CE0FB
:104E00000E94A6228AE0CF911F910F91FF90EF9010
:104E1000DF90CF90BF90AF900C94D81A2F923F9212
:104E20004F925F926F927F928F929F92AF92BF92BA
:104E3000CF92DF92EF92FF920F931F93CF93DF9366
:104E4000CDB7DEB7CC59D1090FB6F894DEBF0FBE8F
:104E5000CDBF2DB63EB6CB56DF4F19821882C5594D
:104E6000D04084E690E0C956DF4F99838883C759C4
:104E7000D04001E09E012B563F4F44E050E0BE0180
:104E80006F567F4FCE0189569F4F0E949B1A9E01FD
:104E90002B563F4F42E050E0BE0167567F4FCE0198
:104EA00089569F4F0E949B1A43E050E0BE016F5607
:104EB0007F4F8CE892E00E9430CC892B39F1CC56A0
:104EC000DF4F8881C459D040882359F08FE3CF56F3
:104ED000DF4F8883C159D040CE56DF4F1882C25968
:104EE000D0400E94051B8EEB9BE00E94DF1ABE01A2
:104EF0006F567F4F85EB9BE00E94EE1A87EA9BE09E
:104F00000E94DF1A81E08093A405F1C4C357DF4FEC
:104F1000188219821A821B82CD58D040CB56DF4F9F
:104F200019821882C559D04001E09E012B563F4F8F
:104F300041E050E0BE0164567F4FCE0189569F4F3D
:104F40000E949B1A4DB65EB680E1ECE5F2E0DE0110
:104F5000A358BF4F01900D928A95E1F780E1ECE6EE
:104F6000F2E0DE01A359BF4F01900D928A95E1F75F
:104F700080E1ECE7F2E09E012F5F3F4F3901D9015C
:104F800001900D928A95E1F7C456DF4F4881CC59C4
:104F9000D04050E04D5F5F4F440F551F440F551FE9
:104FA0006DB77EB7641B750B0FB6F8947EBF0FBE4E
:104FB0006DBF8DB79EB701966C010091F80311E0AB
:104FC00001272C563F4FBC01CE0189569F4F0E94AE
:104FD0009B1A0091F80301279E012B563F4F44E096
:104FE00050E065E47CE0CE0189569F4F0E949B1AF9
:104FF000C456DF4FE880CC59D040F12C93E0E90E45
:10500000F11CEE0CFF1CEE0CFF1CADB7BEB7AE19C9
:10501000BF090FB6F894BEBF0FBEADBFEDB7FEB768
:1050200031965F012DB73EB72E193F090FB6F894A0
:105030003EBF0FBE2DBF6DB77EB76F5F7F4F4B0179
:105040000091F80301279E012B563F4FA701BF0196
:10505000CE0189569F4F0E949B1A0091F8030127A9
:105060009E012B563F4FA701B401CE0189569F4F99
:105070000E949B1A0091F803002309F4C2C011E0BA
:1050800001279E012B563F4F44E050E069E67CE04B
:10509000CE0189569F4F0E949B1A0091F803012769
:1050A0009E012B563F4F44E050E06DE67CE0CE0180
:1050B00089569F4F0E949B1A0091F80301279E0179
:1050C0002B563F4F44E050E061E77CE0CE0189562B
:1050D0009F4F0E949B1A0091F80301279E012B56B7
:1050E0003F4F44E050E065E77CE0CE0189569F4F9A
:1050F0000E949B1A0091F80301279E012B563F4FF7
:1051000044E050E069E77CE0CE0189569F4F0E9461
:105110009B1A0091F80301279E012B563F4F40E157
:1051200050E063E377E0CE0189569F4F0E949B1ABF
:105130000091F80301279E012B563F4F44E050E0B9
:10514000BE0163577F4FCE0189569F4F0E949B1A25
:105150000FB6F8945EBE0FBE4DBE0091F803012756
:105160009E012B563F4F4CE050E06CED73E0CE01BA
:1051700089569F4F0E949B1A0091F80301279E01B8
:105180002B563F4F44E050E0BE0163577F4FCE01A6
:1051900089569F4F0E949B1A0091F80301279E0198
:1051A0002B563F4F44E050E0BE0163577F4FCE0186
:1051B00089569F4F0E949B1A01E09E012B563F4F3C
:1051C00041E050E0BE0163597F4FCE0189569F4FA9
:1051D0000E949B1A9E012B563F4F41E050E0BE01BA
:1051E0006F5F7F4FCE0189569F4F0E949B1AAE96EC
:1051F0008FADAE97C9808C9D60011124E12CF12CFC
:1052000071C0C456DF4F2881CC59D04030E02E5FAA
:105210003F4FE5E3FCE080E090E02817390714F009
:10522000D60111C0AC018430910510F043E050E08C
:10523000440F551F440F551F6DE770E06C0F7D1F25
:10524000460F571FDA014D915D916D917C9141930D
:105250005193619371932817390714F0D50111C048
:10526000AC018430910510F043E050E0440F551F2D
:10527000440F551F6DE670E06C0F7D1F460F571FE2
:10528000DA014D915D916D917C91408B518B628BD8
:10529000738B2817390714F0D4010DC0AC0184308A
:1052A000910510F043E050E0440F551F440F551F87
:1052B000460D571DDA014D915D916D917C9140A392
:1052C00051A362A373A30196B4E08B0E911C44E03A
:1052D000A40EB11C64E0C60ED11C8430910509F007
:1052E0009CCFCDCE0091F803EC14FD0491F0012782
:1052F0009E012B563F4F44E050E0BE0163577F4F65
:10530000CE0189569F4F0E949B1A7FEFE71AF70A3A
:10531000E9CF81E008279E012B563F4F44E050E043
:1053200069EF73E0CE0189569F4F0E949B1A1AE0E5
:10533000FF24F394115089F00091F8030F259E018A
:105340002B563F4F44E050E0BE0163577F4FCE01E4
:1053500089569F4F0E949B1AEDCF01E09E012B566C
:105360003F4F41E050E0BE0165567F4FCE01895668
:105370009F4F0E949B1A9E012B563F4F41E050E0E9
:10538000BE0163587F4FCE0189569F4F0E949B1AE2
:105390000091F80311E001279E012B563F4F44E096
:1053A00050E0BE0163597F4FCE0189569F4F0E9446
:1053B0009B1A0091F80301279E012B563F4F44E0B2
:1053C00050E0BE016F5F7F4FCE0189569F4F0E9414
:1053D0009B1AC556DF4F8881CB59D040EE96CFAC93
:1053E000EE978C9D60011124E12CF12C0091F803C3
:1053F000CE14DF0491F001279E012B563F4F44E06D
:1054000050E0BE0163577F4FCE0189569F4F0E94E7
:105410009B1A8FEFE81AF80AE9CF11E001279E01E5
:105420002B563F4F41E050E0BE0163597F4FCE0104
:1054300089569F4F0E949B1A0091F80301279E01F5
:105440002B563F4F41E050E0BE016F5F7F4FCE01D2
:1054500089569F4F0E949B1A0091F80301279E01D5
:105460002B563F4F40E150E0BE016F5F7F4FCE01B2
:1054700089569F4F0E949B1A0091F80301279E01B5
:105480002B563F4F44E050E06FEC73E0CE0189565D
:105490009F4F0E949B1A0091F80301279E012B56F3
:1054A0003F4F44E050E069EC73E0CE0189569F4FD6
:1054B0000E949B1A0091F80301279E012B563F4F33
:1054C00042E050E06DEC73E0CE0189569F4F0E94A0
:1054D0009B1A0091F80301279E012B563F4F40E194
:1054E00050E0BE016F5F7F4FCE0189569F4F0E94F3
:1054F0009B1A0091F80301112EC0C980DA80EB805D
:10550000FC8020E030E84BE355E4C701B6010E947F
:1055100043C4882301F1C092320DD092330DE09242
:10552000340DF092350D8D819E81AF81B8858093C9
:10553000360D9093370DA093380DB093390D8985B2
:105540009A85AB85BC8580933A0D90933B0DA093D3
:105550003C0DB0933D0D11E001279E012B563F4FAE
:1055600042E050E0BE016F5F7F4FCE0189569F4FF2
:105570000E949B1A0091F80301279E012B563F4F72
:105580004CE050E0BE016F5F7F4FCE0189569F4FC8
:105590000E949B1A0091F803011115C020E030E829
:1055A0004BE355E469817A818B819C810E9443C4DD
:1055B000882349F08CE0FE013196ACEEB3E0019017
:1055C0000D928A95E1F711E001279E012B563F4F7E
:1055D00042E050E0BE016F5F7F4FCE0189569F4F82
:1055E0000E949B1A0091F80301279E012B563F4F02
:1055F00041E050E0BE016F5F7F4FCE0189569F4F63
:105600000E949B1A0091F80301279E012B563F4FE1
:1056100040E250E0BE016F5F7F4FCE0189569F4F41
:105620000E949B1A0091F80301279E012B563F4FC1
:1056300041E050E0BE0163597F4FCE0189569F4F34
:105640000E949B1A0091F80301279E012B563F4FA1
:1056500045E050E0BE016F5F7F4FCE0189569F4FFE
:105660000E949B1A8091F803811111C08981809357
:10567000D7038A819B81AC81BD818093D3039093B2
:10568000D403A093D503B093D6030E94462D009176
:10569000F80311E001279E012B563F4F4AE150E0ED
:1056A000BE016F5F7F4FCE0189569F4F0E949B1AAC
:1056B0000091F80301279E012B563F4F44E350E031
:1056C000BE016F5F7F4FCE0189569F4F0E949B1A8C
:1056D0000091F80301279E012B563F4F46E050E012
:1056E000BE016F5F7F4FCE0189569F4F0E949B1A6C
:1056F0000091F80301279E012B563F4F44E050E0F4
:10570000BE016F5F7F4FCE0189569F4F0E949B1A4B
:105710000091F80301279E012B563F4F4CE050E0CB
:10572000BE016F5F7F4FCE0189569F4F0E949B1A2B
:105730000091F80301279E012B563F4F4CE650E0A5
:10574000BE016F5F7F4FCE0189569F4F0E949B1A0B
:1057500019821A821B821C821D821E821F82188659
:1057600019861A861B861C860091F80301279E0164
:105770002B563F4F4CE050E0BE016F5F7F4FCE0194
:1057800089569F4F0E949B1A0091F80301279E01A2
:105790002B563F4F48E050E0BE016F5F7F4FCE0178
:1057A00089569F4F0E949B1AC956DF4F8881998165
:1057B000C759D0408E39924041F00E94011B8DE1C3
:1057C0009BE00E94DF1A81E001C080E08093A40585
:1057D0008823E9F00E94051BC956DF4F6881798153
:1057E000C759D040645671098FE99BE00E94591F48
:1057F00087E99BE00E94DF1A4AE06AE372E080E0FA
:1058000090E00E94D01E8AE00E94D81A66C0CB5653
:10581000DF4F28813981C559D040C756DF4F888175
:105820009981C959D0402817390731F181E0809317
:10583000A4050E94011B87E79BE00E94DF1AC75660
:10584000DF4F68817981C959D04080E090E04AE01B
:105850000E94D01E82E79BE00E94DF1ACB56DF4FEA
:1058600068817981C559D04080E090E04AE00E948B
:10587000D01E82E69BE02FC08091F80381112DC0DD
:105880000E94051B0CE812E0F80181918F0188232A
:1058900019F00E94D81AF8CFC956DF4F6881798174
:1058A000C759D0406456710985E49BE00E94591F96
:1058B000CB56DF4FC880D980C559D040E12CF12CA0
:1058C00088E39BE00E94DF1A4AE0C701B6010E940C
:1058D000D01E85E39BE00E94DF1A8091F8038111BE
:1058E00006C08091A405811102C00E94CE758091EE
:1058F000F803811102C00E943B249091A40581E02D
:1059000089270FB6F8943EBE0FBE2DBEC456DF4F9A
:105910000FB6F894DEBF0FBECDBFDF91CF911F91C0
:105920000F91FF90EF90DF90CF90BF90AF909F903E
:105930008F907F906F905F904F903F902F90089541
:1059400081E08093F8030E940E271092F8038111E2
:105950000C940E270E94052381E00895CF93DF93D6
:105960008091A70D9091A80D891B8F7009F445C0F7
:105970009091A40D992351F0833030F48FEF890F6B
:1059800019F08093A40D3BC01092A40DE091A80DD6
:105990008CE4E89FF0011124EE58F84F808180FDDF
:1059A0002EC08091570790915807A0915907B09148
:1059B0005A07EF01C85BDF4F488159816A817B81BB
:1059C000841B950BA60BB70B809357079093580732
:1059D000A0935907B0935A078091A80D8F5F8F70DD
:1059E0008093A50D9091A80D8091A60D98130AC0E3
:1059F0008091A50D8093A60D05C00E94818F80E047
:105A000090E001C0CF01DF91CF9108950F930FB7C0
:105A10000F9300916E000F930B7F00936E00009127
:105A20006F000D7F00936F000F930BB70F930CB7B0
:105A30000F921F922F933F934F935F936F937F9398
:105A40008F939F93AF93BF93EF93FF9311240E9483
:105A5000972DFF91EF91BF91AF919F918F917F9182
:105A60006F915F914F913F912F911F900F900CBFBD
:105A70000F910BBF0F910260F89400936F000F918C
:105A800000936E000F910FBF0F9118958091A6059E
:105A900080FF07C080910B018270809309018FEF16
:105AA00007C080910B01809582708093090181E08D
:105AB0008093A8058091A60581FF08C080910B0105
:105AC00080958170809309018FEF06C080910B0152
:105AD00081708093090181E08093A9058091A605DA
