:100000000C9450160C9481160C9481160C94811645
:100010000C9481160C9481160C9481160C94811604
:100020000C9481160C9481160C9481160C948116F4
:100030000C9481160C9481160C9481160C948116E4
:100040000C9481160C9494230C9481160C948116B4
:100050000C9481160C9481160C94905B0C946EB1E8
:100060000C9481160C9412230C9481160C94811616
:100070000C9481160C9481160C9481160C948116A4
:100080000C9481160C9481160C9481160C94811694
:100090000C9481160C9481160C9481160C94811684
:1000A0000C9481160C9481160C9481160C94811674
:1000B0000C9481160C9481160C9481160C94811664
:1000C0000C9481160C9481160C9481160C94811654
:1000D0000C9481160C9481160C9481160C94811644
:1000E0000C94811620A368A1A1A15CA3A1A1A1A148
:1000F000A1A1A1A1A1A1A1A1A1A1A1A1A1A1A1A1F0
:10010000A1A1A1A1A1A1A1A1A1A1A1A1A1A1A1A1DF
:10011000A1A1A1A1A1A1A1A1A1A1A1A1A1A1A1A1CF
:1001200056A3A1A1A1A1A1A1A1A1A1A1A1A1A1A108
:10013000A1A12FA3A1A1A1A1A1A1A1A1A1A1A1A11F
:10014000A1A1A1A1A1A1A1A173A39EA13DA73DA78A
:1001500044A744A744A74BA74BA74BA758A752A710
:1001600052A752A7E2ABE5ABD4ABD8ABDEAB1CAC2D
:10017000E9ABEDABF3ABF7ABFBAB01AC05AC09AC5A
:100180001CAC0FAC13AC17AC49AE4EAE53AE5DAE6B
:1001900067AEE0AE71AE79AE81AE8BAE95AE9FAE7E
:1001A000AEAEB8AEE0AEC2AECCAED6AE084AD73B2D
:1001B0003BCE016E84BCBFFDC12F3D6C74319ABD36
:1001C00056833DDA3D00C77F11BED9E4BB4C3E915A
:1001D0006BAAAABE000000803F05A84CCDB2D44E49
:1001E000B93836A9020C50B9918688083CA6AAAA4B
:1001F0002ABE000000803F000C94C32D0C94DB57F6
:100200000C94DEAB0C94E2AB0C9471AE0C94885958
:100210000C946B2D0C94952D0C94E9AB0C94058FDC
:100220000C9409AC0C94DC4A0C9401AC0C9444A7DB
:100230000C9495AE0C94434B0C944EAE0C94EDABD9
:100240000C9404A10C944F530C948C590C94484B6F
:100250000C9489590C9452A70C94C2AE0C9453AED2
:100260000C94DF480C94363C0C9467AE0C94623DC1
:100270000C94B6C80C94EC2D0C949FAE0C94EA50E0
:100280000C94498E0C9449AE0C94CCAE0C944D4B0E
:100290000C94D4AB0C9420A30C9455370C949EA1D1
:1002A0000C9429940C9464930C9473A30C948BAECB
:1002B0000C941CAC0C944D530C94A1A10C949F92E3
:1002C0000C9450980C94F3AB0C94B3950C9412913D
:1002D0000C9479AE0C9497160C945F8C0C9456A3E6
:1002E0000C94B8AE0C945CA30C9481AE0C94524B5D
:1002F0000C94FBAB0C94698C0C940FAC0C9413AC69
:100300000C94B1480C948B8A0C94EC960C94CF37D7
:100310000C9468A10C9405AC0C945C560C94EC50B5
:100320000C942FA30C94C8480C94DA910C94648C10
:100330000C94EE940C943DA70C9458A70C94583749
:100340000C94918A0C945A8C0C9459560C94D8ABFA
:100350000C9432370C94978A0C94F7AB0C94AEAE95
:100360000C94E5AB0C94AD3F0C94D6AE0C94A5491F
:100370000C945DAE0C94B94C0C9474960C94D38A86
:100380000C9417AC0C944BA70C94E0AE0C945F56F5
:100390004E414E494E495459494E46CDCCCC3D0A6A
:1003A000D7233C17B7D13877CC2B329595E6241F4D
:1003B000B14F0A000020410000C84200401C462006
:1003C000BCBE4CCA1B0E5AAEC59D74434F4D4D5515
:1003D0004E49434154494F4E0044525952554E00E4
:1003E0004552524F525300494E464F004543484FE5
:1003F0000047322F47332062616420706172616D63
:1004000065746572730A00536C6565702E2E2E003C
:10041000205A3A200020593A200042656420583A78
:100420002000436C69636B20746F20726573756D77
:10043000652E2E2E004E6F206D6F76652E0025697D
:10044000730025696D202569730025696820256979
:100450006D20256973002569642025696820256958
:100460006D20256973002569792025696420256937
:10047000682025696D20256973005072696E7420AB
:1004800074696D653A2000EC03E703E003D903CB00
:10049000036F66660044454255473A004B494C4C51
:1004A00045442E20004D3131332053006F6B0050F6
:1004B000533A310A0050533A300A0054415A204FFF
:1004C00066662E00544845524D414C5F50524F5481
:1004D000454354494F4E004155544F5245504F5299
:1004E000545F53445F53544154555300454D455256
:1004F00047454E43595F5041525345520043415383
:10050000455F4C494748545F4252494748544E451D
:10051000535300544F47474C455F4C494748545349
:1005200000534F4654574152455F504F5745520074
:100530004255494C445F50455243454E54004C454A
:1005400056454C494E475F44415441005A5F505212
:100550004F4245004155544F4C4556454C00505272
:10056000494E545F4A4F420050524F4752455353F1
:10057000004155544F5245504F52545F54454D50D1
:1005800000564F4C554D4554524943004545505235
:100590004F4D0053455249414C5F584F4E5F584FA5
:1005A0004646004649524D574152455F4E414D45E2
:1005B0003A4D61726C696E20312E312E39202847F8
:1005C00069746875622920534F555243455F434F04
:1005D00044455F55524C3A68747470733A2F2F67D4
:1005E00069746875622E636F6D2F4D61726C696EF0
:1005F0004669726D776172652F4D61726C696E200C
:1006000050524F544F434F4C5F56455253494F4EF3
:100610003A312E30204D414348494E455F545950A0
:10062000453A54415A2045585452554445525F4327
:100630004F554E543A3120555549443A63656465E7
:10064000326132662D343161322D343734382D39F0
:100650006231322D6335356336326633363766663E
:100660000A002F2F20004D31343520533C696E6431
:1006700065783E206F7574206F662072616E6765C5
:100680002028302D31290A002054002052004163D7
:1006900063656C65726174696F6E3A205000204624
:1006A0006C6F773A2000000125301D0CFF2829FFD0
:1006B00024311C0BFF4527FF232F1B0AFF4443FF58
:1006C000FFFF040308060202222B1A4142FF0338EF
:1006D00009FF3620643A0020693A0020703A004948
:1006E0006E76616C69642065787472756465720AEF
:1006F0000043290A0061626C656420286D696E20E0
:1007000074656D702000436F6C6420657874727539
:1007100064657320617265200020643A0020693AA4
:100720000020703A004E6F2063617365206C69672A
:1007300068740A00454550524F4D204F4B0A003F08
:100740005A206F7574206F662072616E676520286D
:100750002D323020746F203230290A003A200050A8
:10076000726F6265205A204F66667365740041633C
:10077000746976652045787472756465723A2000F4
:10078000496E76616C69642065787472756465720F
:100790000A006F6B00456E6473746F70732025637D
:1007A00020256320256320256300205A3A00205924
:1007B0003A0020583A00656E6473746F7073206855
:1007C00069743A2000656E7175657565696E67209C
:1007D00022004B494C4C45442E200053544F50505E
:1007E00045442E20005072696E7465722073746FD8
:1007F000707065642064756520746F206572726F17
:1008000072732E2046697820746865206572726F55
:100810007220616E6420757365204D3939392074FA
:100820006F20726573746172742E202854656D7028
:100830006572617475726520697320726573657481
:100840002E2053657420697420616674657220726D
:10085000657374617274696E67290A004E6F204374
:100860006865636B73756D2077697468206C696E59
:1008700065206E756D6265722C204C617374204C1E
:10088000696E653A2000636865636B73756D206DF2
:1008900069736D617463682C204C617374204C69BA
:1008A0006E653A20004C696E65204E756D6265720A
:1008B000206973206E6F74204C617374204C696ED4
:1008C00065204E756D6265722B312C204C617374FE
:1008D000204C696E653A20004D3131300020496E60
:1008E00076616C6964206578747275646572200045
:1008F0000000000000000000000000000000954320
:100900000080894300007A432C20002C2000507284
:100910006F7465637465642050696E0A0020573AED
:10092000004520436F6F6C696E672E2E2E004520A8
:1009300048656174696E672E2E2E004265642063DF
:100940006F6F6C696E672E2E2E004265642068659D
:100950006174696E672E2E2E0024F4D43050C38E3D
:1009600020C2A24017828B7011127A910D816CD92E
:100970000AA861E108C7586607615143061E4B5D2E
:1009800005C145A7041A411104093D980371393185
:10099000034036DB0265339102D4305402802E1DB1
:1009A00002632CEE01752AC501B028A00110278131
:1009B000018F2564012B244B01E0223401AC211F5F
:1009C000018D200D01801FFC00841EED00971DDFAE
:1009D00000B81CD200E61BC600201BBC00641AB283
:1009E00000B219A8000A19A0006A189900D117913D
:1009F0000040178B00B516840031167E00B31579C0
:100A0000003A157300C7146F0058146A00EE13669D
:100A1000008813630025135E00C7125B006C125739
:100A20000015125400C111510070114F0021114BDB
:100A300000D61049008D10470046104400021042B5
:100A400000C00F4000800F3E00420F3C00060F3BED
:100A500000CB0E3800930E37005C0E3500270E34A5
:100A600000F30D3200C10D3100900D3000600D2EED
:100A700000320D2D00050D2C00D90C2B00AE0C29D9
:100A800000850C29005C0C2700350C27000E0C2675
:100A900000E80B2400C40B2400A00B23007D0B23D3
:100AA000005A0B2100390B2100180B2000F80A1FF7
:100AB00000D90A1E00BB0A1E009D0A1D00800A1DE7
:100AC00000630A1C00470A1B002C0A1B00110A1AAB
:100AD00000F7091A00DD091900C4091900AB09194A
:100AE00000920917007B091800630917004C0916CA
:100AF0000036091600200916000A091500F5081528
:100B000000E0081400CC081400B8081400A408146D
:100B100000900813007D0812006B0813005808129B
:100B200000460812003408110023081100120811B1
:100B30000001081100F0071000E0071000D00710B6
:100B400000C0071000B0070F00A107100091070EAA
:100B50000083070F0074070F0065070E0057070E8C
:100B60000049070E003B070D002E070E0020070D61
:100B70000013070D0006070D00F9060C00ED060D29
:100B800000E0060C00D4060C00C8060C00BC060CE5
:100B900000B0060C00A4060B0099060C008D060B95
:100BA0000082060B0077060B006C060B0061060A3C
:100BB0000057060B004C060A0042060A0038060AD7
:100BC000002E060A0024060A001A060A001006096A
:100BD0000007060A00FD050900F4050900EB0509F8
:100BE00000E2050900D9050900D0050900C705097B
:100BF00000BE050900B5050800AD050800A50509FA
:100C0000009C050800940508008C05080084050870
:100C1000007C050800740508006C050700650508E0
:100C2000005D050700560508004E0507004705074B
:100C3000004005080038050700310507002A0507B0
:100C400000230507001C050600160507000F050711
:100C5000000805060002050700FB040600F504076E
:100C600000EE040600E8040600E2040700DB0406C8
:100C700000D5040600CF040600C9040600C304061C
:100C800000BD040600B7040600B1040500AC04066C
:100C900000A6040600A00405009B040600950405B8
:100CA00000900406008A04050085040500800406FF
:100CB000007A04050075040500700405006B040546
:100CC0000066040500610405005C04050057040586
:100CD00000520405004D04050048040500430405C6
:100CE000003E0404003A0405003504050030040405
:100CF000002C04050027040400230405001E04043E
:100D0000001A04040016040500110404000D040474
:100D100000090405000404040000040400FC0304AA
:100D200000F8030400F4030400F0030400EC0304DF
:100D300000E8030400E4030400E0030400DC03040F
:100D400000D8030400D4030400D0030400CC03043F
:100D500000C8030300C503030024F404D9201BC406
:100D60000C5C0E9804C4095F0265077101F405F973
:100D700000FB04B30048048700C103690058035511
:100D80000003034500BE023A008402310053022AE8
:100D9000002902250004022000E4011C00C80119FA
:100DA00000AF0117009801140084011300710110B5
:100DB000006101100051010E0043010D0036010BCE
:100DC000002B010B0020010B00150109000C01098B
:100DD0000003010800FB000800F3000800EB000717
:100DE00000E4000600DE000600D8000600D200067F
:100DF00000CC000500C7000500C2000500BD0004CE
:100E000000B9000400B5000400B1000400AD000406
:100E100000A9000400A5000300A20003009F000435
:100E2000009B00030098000300950002009300035C
:100E300000900003008D0002008B00030088000278
:100E4000008600020084000300810002007F00028F
:100E5000007D0002007B00020079000200770001A3
:100E600000760002007400020072000100710002AE
:100E7000006F0002006D0001006C0002006A0001BA
:100E800000690002006700010066000100650001C2
:100E900000640002006200010061000100600001C6
:100EA000005F0002005D0001005C0001005B0001CA
:100EB000005A0001005900010058000100570001CC
:100EC00000560001005500010054000100530000CD
:100ED00000530001005200010051000100500001C8
:100EE000004F0001004E0000004E0001004D0001C7
:100EF000004C0001004B0000004B0001004A0001C3
:100F000000490001004800000048000100470001BE
:100F100000460000004600010045000000450001B9
:100F200000440001004300000043000100420000B3
:100F300000420001004100000041000100400001AA
:100F4000003F0000003F0001003E0000003E0001A5
:100F5000003D0000003D0001003C0000003C00009E
:100F6000003C0001003B0000003B0001003A000093
:100F7000003A00010039000000390001003800008B
:100F80000038000000380001003700000037000181
:100F90000036000000360000003600010035000079
:100FA000003500000035000100340000003400006E
:100FB0000034000100330000003300000033000162
:100FC0000032000000320000003200010031000059
:100FD000003100000031000100300000003000004E
:100FE00000300001002F0000002F0000002F000043
:100FF000002F0001002E0000002E0000002E000136
:10100000002D0000002D0000002D0000002D00012B
:10101000002C0000002C0000002C0000002C00011F
:10102000002B0000002B0000002B0000002B000113
:10103000002A0000002A0000002A0000002A000107
:1010400000290000002900000029000000290000FC
:1010500000290001002800000028000000280000EE
:1010600000280000002800010027000000270000E1
:1010700000270000002700000027000100260000D4
:1010800000260000002600000026000000260001C7
:1010900000250000002500000025000000250000BC
:1010A00000250000002500010024000000240000AD
:1010B00000240000002400000024000100230000A0
:1010C0000023000000230000002300000023000094
:1010D0000023000000230001002200000022000085
:1010E0000022000000220000002200000022000177
:1010F000002100000021000000210000002100006C
:10110000002100000021000000210001002000005B
:10111000002000000020000000200000002000004F
:10112000002000000020000000200001001F00003F
:10113000001F0000001F0000001F0000001F000033
:10114000001F0000001F0001001E0000001E000024
:10115000001E0000001E000000043700001E2900D1
:1011600000511B00005810000010090000CC0400C2
:1011700000780200004101000000060900FE07019E
:10118000920321207FFF07FF07FF000000060000F9
:101190000107070602008080808080008003020231
:1011A000060105A0A00507070600005050F850F8FA
:1011B00050500507070600002078A07028F0200591
:1011C0000707060000C0C81020409818050707064A
:1011D00000006090A040A89068020303060104C0CC
:1011E00040800307070601002040808080402003E4
:1011F00007070601008040202020408005050506E5
:10120000000120A870A8200505050600012020F88F
:1012100020200203030602FFC040800501010600F2
:1012200003F8020202060200C0C00505050600011F
:10123000081020408005070706000070888888880D
:10124000887003070706010040C040404040E005A9
:101250000707060000708808708080F805070706F9
:101260000000F81020100808F0050707060000101D
:10127000305090F81010050707060000F880F008BD
:10128000088870050707060000708080F088887065
:10129000050707060000F808102020202005070792
:1012A00006000070888870888870050707060000AF
:1012B00070888878080870020505060200C0C00022
:1012C000C0C00206060602FFC0C000C0408004077E
:1012D0000706000010204080402010050303060090
:1012E00002F800F8040707060100804020102040A3
:1012F00080050707060000708808102000200507F9
:101300000706000070880868A8A87005070706008F
:1013100000708888F8888888050707060000F0882C
:1013200088F08888F00507070600007088808080B4
:101330008870050707060000F08888888888F0050F
:101340000707060000F88080F08080F80507070690
:101350000000F88080F0808080050707060000709C
:101360008880B8888870050707060000888888F894
:10137000888888010707060200808080808080803E
:1013800005070706000038101010109060050707C9
:101390000600008890A0C0A09088050707060000FE
:1013A000808080808080F805070706000088D8A824
:1013B000888888880507070600008888C8A8988854
:1013C00088050707060000708888888888700507E8
:1013D00007060000F08888F0808080050707060077
:1013E0000070888888A89068050707060000F088C4
:1013F00088F0A090880507070600007880807008B4
:1014000008F0050707060000F8202020202020050E
:1014100007070600008888888888887005070706FF
:101420000000888888888850200507070600008803
:1014300088888888A85005070706000088885020FB
:1014400050888805070706000088888850202020DB
:10145000050707060000F80810204080F80307077A
:10146000060100E08080808080E00505050600011F
:101470008040201008030707060100E020202020FC
:1014800020E0050303060004205088050101060042
:1014900000F802020206020580400505050600006C
:1014A00070087888780507070600008080B0C88833
:1014B00088F0050505060000708080887005070724
:1014C0000600000808689888887805050506000069
:1014D0007088F880700507070600003048E040403B
:1014E00040400506060600FF7088887808700507EA
:1014F000070600008080B0C88888880107070602B8
:1015000000800080808080800308080601FF2000A2
:1015100020202020A040040707060000808090A023
:10152000C0A090030707060100C04040404040E0D3
:10153000050505060000D0A8A8A8A8050505060011
:1015400000B0C8888888050505060000708888886E
:10155000700506060600FFF08888F0808005060604
:101560000600FF788888780808050505060000B0A1
:10157000C880808005050506000070807008F004B2
:1015800007070600004040E04040403005050506E2
:101590000000888888986805050506000088888806
:1015A00050200505050600008888A8A850050505F7
:1015B00006000088502050880506060600FF88882F
:1015C00088780870050505060000F8102040F8032B
:1015D0000707060100204040804040200107070621
:1015E00002008080808080808003070706010080E1
:1015F0004040204040800502020600026890000042
:1016000000060000202020202020005A0059002041
:1016100020202000580009200000000000000000E9
:1016200000000000003FFFF000000000000000008C
:101630000000000038007000000000000000000002
:1016400000000030FC30000000000000000000003E
:10165000000020FC1000000000000000000000005E
:1016600000207810000000000000000000000000D2
:101670002030100000000000000000000000002CDE
:1016800000D03FC0000000000000002082002E318A
:10169000D07FE0000000000000001041002F7BD050
:1016A0007FE0000000000000001041002F7BD07F91
:1016B000E0000000000000002082002E31D03FC07A
:1016C000000000000000004104002C00D03FC000DA
:1016D0000000000000008208002030107FE00000C1
:1016E00000000000008208002078107FE000000069
:1016F0000000000041040020FC107FE0000000001A
:1017000000000020820030FC301F8000000000003C
:1017100000000000003800700F0000000000000012
:1017200000FFFFC03FFFF0060000000000000000C7
:10173000FFFFC000000000000000000000000000EB
:1017400000003FFFF000000000000000000000006B
:1017500000380070000000000000000000000000E1
:10176000318630000000000000000000000000236F
:101770008710000000000000000000000000278724
:10178000900000000000000000000000002F87D043
:101790000000000000000000000000002F03D03F08
:1017A000C0000000000000002082002030107FE018
:1017B000000000000000001041002078107FE000D1
:1017C0000000000000001041002078107FE00000C1
:1017D00000000000002082002030103FC000000008
:1017E000000000004104002F03D03FC000000000B3
:1017F0000000008208002F87D07FE000000000007A
:1018000000008208002787907FE0000000000000B1
:10181000004104002387107FE0000000000000006A
:101820002082003186301F80000000000000000090
:1018300000003800700F0000000000000000FFFFF3
:10184000C03FFFF0060000000000000000FFFFC0E6
:1018500000000054415A2052656164792E00507294
:10186000696E74696E672E2E2E005072696E742038
:1018700070617573656400436F6E74726F6C0050B5
:101880007265706172650054756E6500496E666FB1
:101890002073637265656E00466C6F7700466C6FEF
:1018A0007700466C6F770046616E207370656564E3
:1018B00020320046616E20737065656420320046F8
:1018C000616E20737065656420320046616E20731E
:1018D0007065656420310046616E207370656564D3
:1018E00020310046616E20737065656420310042CE
:1018F00065640042656400426564004E6F7A7A6CEC
:1019000065004E6F7A7A6C65004E6F7A7A6C65006E
:101910005370656564005370656564005370656558
:1019200064004D61696E0048617264636F64656450
:101930002044656661756C742053657474696E67C4
:1019400073204C6F616465640A002823000028231B
:101950000000640000001027000000004844000060
:10196000484400000041000048420000C942000015
:10197000C9420000C843008054443A0A0020286D40
:101980006D290020204D383531205A005A2D5072D3
:101990006F6265204F6666736574002044002049BD
:1019A0000020204D333034205000204400204900D6
:1019B00020204D333031205000504944207365744D
:1019C00074696E67733A0A0020460020420020487E
:1019D0000020204D3134352053004D61746572690B
:1019E000616C2068656174757020706172616D65ED
:1019F000746572733A0A00205A0020590020204D65
:101A0000323036205800486F6D65206F666673650A
:101A1000743A0A00204500205A002059002058003E
:101A200020540020530020204D323035205100201A
:101A3000453C6D61785F655F6A65726B3E0020585A
:101A40003C6D61785F785F6A65726B3E20593C6DD2
:101A500061785F795F6A65726B3E205A3C6D617890
:101A60005F7A5F6A65726B3E00416476616E6365A2
:101A7000643A20513C6D696E5F7365676D656E7485
:101A80005F74696D655F75733E20533C6D696E5F71
:101A900066656564726174653E20543C6D696E5F75
:101AA00074726176656C5F66656564726174653ECB
:101AB0000020540020520020204D323034205000AD
:101AC000416363656C65726174696F6E2028756E21
:101AD0006974732F7332293A20503C7072696E74A6
:101AE0005F616363656C3E20523C72657472616332
:101AF000745F616363656C3E20543C74726176650B
:101B00006C5F616363656C3E0A00204500205A00EB
:101B100020590020204D3230312058004D61786925
:101B20006D756D20416363656C65726174696F6E7C
:101B30002028756E6974732F7332293A0A00204584
:101B400000205A0020590020204D32303320580008
:101B50004D6178696D756D20666565647261746547
:101B6000732028756E6974732F73293A0A00204513
:101B700000205A0020590020204D393220580053AF
:101B8000746570732070657220756E69743A0A000E
:101B900020204D3230302044300A0020204D323099
:101BA000302044002044697361626C65640A004619
:101BB000696C616D656E742073657474696E6773AA
:101BC0003A0020204D3134392043203B20556E69A6
:101BD000747320696E2043656C736975730A002005
:101BE00020473231202020203B00486F6D696E670E
:101BF000206661696C656400545249474745524507
:101C000044006F70656E003A20007A5F6D696E0067
:101C1000795F6D696E00785F6D696E005265706FF7
:101C20007274696E6720656E6473746F702073746C
:101C3000617475730A004578747275646572004D3D
:101C40006F7665205A004D6F76652059004D6F768E
:101C5000652058005072657061726500496E697444
:101C600069616C697A6520454550524F4D00436F5C
:101C70006E74726F6C00526573746F72652066616A
:101C8000696C73616665004C6F6164207365747480
:101C9000696E677300496E697469616C697A652061
:101CA000454550524F4D0053746F726520736574F3
:101CB00074696E67730046696C616D656E74004D82
:101CC0006F74696F6E0054656D70657261747572C2
:101CD00065004D61696E00507265686561742041F0
:101CE000425320636F6E66005072656865617420B0
:101CF000504C4120636F6E66005049442D440050A3
:101D000049442D44005049442D49005049442D492F
:101D1000005049442D50005049442D5000200820C7
:101D20004661637400200820466163740020082027
:101D30004D6178002008204D6178002008204D6119
:101D400078002008204D696E002008204D696E0043
:101D50002008204D696E004F6666004F6E200041DE
:101D600075746F74656D700046616E207370656583
:101D70006420320046616E20737065656420320015
:101D800046616E20737065656420320046616E2086
:101D9000737065656420310046616E2073706565FF
:101DA0006420310046616E207370656564203100E7
:101DB0004265640042656400426564004E6F7A7A51
:101DC0006C65004E6F7A7A6C65004E6F7A7A6C653E
:101DD00000436F6E74726F6C0053746F7265207382
:101DE000657474696E6773004265640042656400DF
:101DF000426564004E6F7A7A6C65004E6F7A7A6C39
:101E000065004E6F7A7A6C650046616E207370656E
:101E100065640046616E2073706565640046616E9E
:101E20002073706565640054656D706572617475CA
:101E30007265005654726176206D696E0056547258
:101E40006176206D696E005654726176206D696E00
:101E500000566D696E00566D696E00566D696E00B4
:101E6000566D6178204500566D6178204500566DAD
:101E70006178204500566D6178205A00566D617872
:101E8000205A00566D6178205A00566D61782059AD
:101E900000566D6178205900566D617820590056C2
:101EA0006D6178205800566D6178205800566D613C
:101EB000782058004D6F74696F6E00416D61782015
:101EC0004500416D6178204500416D6178205A00E0
:101ED000416D6178205A00416D6178205900416D53
:101EE0006178205900416D6178205800416D61781A
:101EF000205800412D74726176656C00412D74721A
:101F00006176656C00412D72657472616374004185
:101F10002D7265747261637400416363656C004186
:101F20006363656C004D6F74696F6E0056652D6A52
:101F300065726B0056652D6A65726B0056652D6A79
:101F400065726B00567A2D6A65726B00567A2D6A3F
:101F500065726B0056792D6A65726B0056792D6A31
:101F600065726B0056792D6A65726B0056782D6A22
:101F700065726B0056782D6A65726B0056782D6A13
:101F800065726B004D6F74696F6E00457374657098
:101F9000732F6D6D004573746570732F6D6D005AEE
:101FA00073746570732F6D6D005A73746570732F41
:101FB0006D6D005973746570732F6D6D0059737476
:101FC0006570732F6D6D005873746570732F6D6D30
:101FD000005873746570732F6D6D004D6F74696F69
:101FE0006E006265640A002C2073797374656D203D
:101FF00073746F7070656421204865617465725FE9
:1020000049443A20004265642068656174696E67DE
:10201000206661696C65640048656174696E67205B
:102020006661696C65640045312048656174696E5C
:1020300067206661696C65640048656174696E67F4
:10204000206661696C6564001000AD0330016A01AF
:1020500050022B0170030A019004F500B005E50061
:10206000D006D800F007CE001009C500300ABE0027
:10207000500BB700700CB100900DAB00B00EA60075
:10208000D00FA200F0109D0010129900301395009F
:102090005014920070158E0090168B00B0178700B8
:1020A000D0188400F0198100101B7E00301C7B00CA
:1020B000501D7900701E7600901F7300B0207000D4
:1020C000D0216E00F0226B001024690030256600DC
:1020D000502663007027610090285E00B0295C00E4
:1020E000D02A5900F02B5600102D5400302E5100EC
:1020F000502F4E0070304B0090314800B0324500F8
:10210000D0334200F0343E0010363B003037370009
:102110005038330070392E00903A2900B03B23002C
:10212000D03C1B00F03D1100103F0100F03F0000CB
:10213000453120544845524D414C2052554E41574F
:1021400041590042454420544845524D414C20528B
:10215000554E4157415900546865726D616C20526B
:10216000756E61776179004531204572723A204D74
:10217000415854454D50004572723A204D415854D3
:10218000454D5020424544004D415854454D502046
:1021900074726967676572656400453120457272C3
:1021A0003A204D494E54454D50004572723A204DEB
:1021B000494E54454D5020424544004D494E5445EA
:1021C0004D502074726967676572656400202F0046
:1021D0002042403A0020403A00205A3A0020593A22
:1021E0000020436F756E7420583A0020453A002055
:1021F0005A3A0020593A00583A003A004361703A7E
:1022000000205A00205900580020204D61783A20C3
:1022100000205A00205900580020204D696E3A20B5
:10222000004F6E20004F666600536F667420656E27
:102230006473746F70733A2000486F6D6520257366
:102240002573257320666972737400206669727342
:10225000740A005A0059005800486F6D6520004FFD
:10226000666673657473206170706C69656400459F
:1022700072723A20546F6F206661722100546F6F42
:10228000206661722066726F6D2072656665726588
:102290006E636520706F696E740A00526573656EB7
:1022A000643A200020746F6F206C6F6E6720657831
:1022B00074727573696F6E2070726576656E746581
:1022C000640A0020636F6C642065787472757369AA
:1022D0006F6E2070726576656E7465640A00627553
:1022E00073793A2070617573656420666F72206936
:1022F0006E7075740A00627573793A207061757337
:10230000656420666F7220757365720A006275736A
:10231000793A2070726F63657373696E670A004B58
:10232000494C4C45442E20004B494C4C2063617570
:10233000736564206279204B494C4C20627574743B
:102340006F6E2F70696E0A004B494C4C45442E202D
:10235000004B494C4C2063617573656420627920A1
:10236000746F6F206D75636820696E616374697640
:10237000652074696D65202D2063757272656E74B9
:1023800020636F6D6D616E643A2000454550524F79
:102390004D206461746173697A65206572726F7231
:1023A0002E0A00290A002062797465733B2063724B
:1023B00063200053657474696E67732053746F7281
:1023C0006564202800290A002062797465733B2027
:1023D00063726320002073746F7265642073657488
:1023E00074696E67732072657472696576656420BE
:1023F0002800202863616C63756C61746564292111
:102400000A0020213D2000454550524F4D204352A7
:1024100043206D69736D61746368202D2028737487
:102420006F7265642920002053697A653A2000495B
:102430006E6465783A2000204D61726C696E3D567D
:102440003535290A0028454550524F4D3D00454538
:1024500050524F4D2076657273696F6E206D6973AF
:102460006D617463682000506C65617365207265EE
:10247000736574005052494E5445522048414C54A3
:102480004544005072696E7465722068616C7465B1
:10249000642E206B696C6C28292063616C6C656408
:1024A000210A001FFFFFFFFFFFFF60000000000187
:1024B000FF400000000000FF8000000000007F835C
:1024C000CF00000C303F87FF80000C301F867980E2
:1024D000000C000F8C30C7838C30E78C30CFC7CC1A
:1024E00031F38C30DCECEC33B98C30D86C6C3319B4
:1024F0008C30D06C0C33198C30D86C0C33198C3078
:10250000DC6C0E3B198C30CF7C079F198C30C77C5C
:10251000038F19400000000000026000000000006E
:10252000061FFFFFFFFFFFF82020506C616E6E65F5
:102530007242756666657242797465733A2000204E
:1025400046726565204D656D6F72793A2000436F64
:102550006D70696C65643A204465632031362032C1
:102560003031380A00207C20417574686F723A203F
:1025700028416C657068204F626A656374732049F6
:102580006E632C2054415A290A00323031382D30E4
:10259000382D303100204C617374205570646174A3
:1025A00065643A2000312E312E390A004D61726C7B
:1025B000696E0020536F667477617265205265738F
:1025C00065740A00205761746368646F6720526500
:1025D0007365740A002042726F776E206F757420E5
:1025E00052657365740A002045787465726E616C7B
:1025F0002052657365740A00506F77657255700AD2
:102600000073746172740A00000000000000000092
:102610000000000000004842000048420000004165
:10262000000000005761726E696E673A20486F6D56
:10263000696E672042756D702044697669736F72A8
:10264000203C20310A000202040000A0400000A04B
:102650004000008040000095430080894300007ADC
:1026600043FFFFFF4572726F722077726974696E63
:102670006720746F20454550524F4D210A00207449
:102680006F6F206C6F6E6720657874727573696FF9
:102690006E2070726576656E7465640A0020636FE3
:1026A0006C6420657874727573696F6E20707265E2
:1026B00076656E7465640A006563686F3A005072EF
:1026C000656865617420504C4120456E640050720D
:1026D000656865617420504C412042656400507209
:1026E000656865617420504C41005072657061727C
:1026F0006500507265686561742041425320456EE3
:1027000064005072656865617420414253204265DF
:1027100064005072656865617420414253005072D4
:102720006570617265004D343238004D38300053A9
:10273000776974636820706F776572206F666600D2
:102740004D38310050726568656174204142530014
:102750005072656865617420504C4100436F6F6C26
:10276000646F776E0053776974636820706F776564
:1027700072206F6E0044697361626C6520737465CA
:102780007070657273004D38340053657420686F43
:102790006D65206F666673657473004175746F2094
:1027A000686F6D6500473238004D6F76652061783F
:1027B0006973004D61696E004D6F76652058004D5C
:1027C0006F76652059004D6F7665205A0045787404
:1027D0007275646572004D6F766520302E316D6DB7
:1027E000004D6F766520316D6D004D6F766520313F
:1027F000306D6D004D6F76652061786973004578A6
:10280000747275646572004D6F7665205A004D6F65
:1028100076652059004D6F766520580053746570B9
:10282000732F6D6D004A65726B00416363656C6563
:10283000726174696F6E0056656C6F6369747900BC
:1028400050726F6265205A204F666673657400503F
:10285000726F6265205A204F666673657400436F1D
:102860006E74726F6C0046696C2E204469612E0094
:1028700046696C2E204469612E004F6666004F6EDB
:1028800020004520696E206D6D3300436F6E7472B9
:102890006F6C004D6963726F737465707320756E31
:1028A000617661696C61626C650A0045313A2000AD
:1028B00045303A20005A3A2000593A2000583A2030
:1028C000004D53312C4D53322050696E730A004B2A
:1028D00064200023646566696E6520444546415561
:1028E0004C545F004B69200023646566696E652067
:1028F00044454641554C545F004B702000236465AD
:1029000066696E652044454641554C545F00504908
:1029100044204175746F74756E652066696E6973C5
:10292000686564212050757420746865206C61733B
:1029300074204B702C204B6920616E64204B642006
:10294000636F6E7374616E74732066726F6D206254
:10295000656C6F7720696E746F20436F6E66696770
:1029600075726174696F6E2E680A00504944204187
:1029700075746F74756E65206661696C656421207D
:1029800074696D656F75740A00453120544845526D
:102990004D414C2052554E4157415900424544202B
:1029A000544845524D414C2052554E4157415900D3
:1029B000546865726D616C2052756E617761790043
:1029C00045312048656174696E67206661696C6590
:1029D00064004265642068656174696E67206661A1
:1029E000696C65640048656174696E672066616939
:1029F0006C656400504944204175746F74756E6550
:102A0000206661696C6564212054656D7065726132
:102A10007475726520746F6F20686967680A00209A
:102A20004B643A2000204B693A2000204B703A203A
:102A3000000A20436C617373696320504944200A83
:102A4000002054753A2000204B753A2000206D611B
:102A5000783A2000206D696E3A200020643A200008
:102A600020626961733A2000504944204175746FB7
:102A700074756E65206661696C65642120426164CD
:102A8000206578747275646572206E756D6265720A
:102A90000A00504944204175746F74756E65207347
:102AA000746172740A0000060900FE000000000054
:102AB00001090008FE000005080806000040F0C8F3
:102AC0008888987810050808060000C0F88888886B
:102AD0008888F80505050600012030F83020050833
:102AE000080600002070F820202020E005090906D3
:102AF00000FF2070A8A8B888887020050909060082
:102B0000FFE080C0B0A8283028280509090600FF8A
:102B1000F8A88888888888A8F8050A0A0600FE2090
:102B20005050505088A8A888700303030600034043
:102B3000A040556E6B6E6F776E20636F6D6D616E2A
:102B4000643A20220000000A0B02090C0D0E08074F
:102B5000030401000000000000000000000000006D
:102B60000000000000000000000000000000000065
:102B70000012111000000000000000000000000022
:102B8000000000000000000000000050726F626949
:102B90006E67206661696C65640A0050726F6269D5
:102BA0006E67206661696C656400205A3A200020D7
:102BB000593A200042656420583A20000000210064
:102BC000240027002A002D003000330001010000FE
:102BD000040107010A0100002200250028002B0043
:102BE0002E003100340002010000050108010B0134
:102BF000000020002300260029002C002F003200B6
:102C0000000100000301060109010505050507058E
:102C100008080808020202020A0A08080404040458
:102C20000101010101010101030303030303030384
:102C3000040707070C0C0C0C0C0C0C0C0202020213
:102C400006060606060606060B0B0B0B0B0B0B0BFC
:102C500001021020200808102040102040800201AE
:102C60000201080402010102040810204080804093
:102C70002010080402018004020180402010080492
:102C80000201080402010102040810204080010230
:102C90000408102040804572726F723A0000B6C876
:102CA00011241FBECFEFD1E2DEBFCDBF00E00CBFCD
:102CB00013E0A0E0B2E0E2EAFAEA01E00BBF02C0F2
:102CC00007900D92A834B107D9F72FE0A8E4B3E03C
:102CD00001C01D92A733B207E1F716E1C0E5D6E1C6
:102CE00000E006C021970109802FFE010E94D0D18B
:102CF000CF34D10780E00807A9F70E94B8B10C943F
:102D00004FD50C9400008091630790916407981749
:102D100059F0E92FF0E0ED51F94F80819F5F9F77E7
:102D20009093640790E008958FEF9FEF08950F93BD
:102D30001F93CF93DF93EC010E9462B10E811F813C
:102D400028853985011511052105310559F52C8591
:102D50002223A9F13A8521502C8721E0230F2A87CD
:102D60004D85241301C01A86FE0124E0329FE00D38
:102D7000F11D112406851785208931890A831B835B
:102D80002C833D83DC01CB01800F911FA11DB11D60
:102D90008E839F83A887B9878C819D81892B79F049
:102DA000769A0DC0DC01CB01801B910BA20BB30BFB
:102DB000B7FD05C076981E821F8218861986DF919E
:102DC000CF911F910F910895CF92DF92EF920F93C1
:102DD0001F93CF93DF9300D01F92CDB7DEB7E09063
:102DE0002E0D19821A821B821C82CE0101966C0163
:102DF0000EE412E029E53DE045E55DE061E57DE0BA
:102E00008DE49DE00E94D27C0F900F900F900F9068
:102E1000DF91CF911F910F91EF90DF90CF900895A8
:102E2000FF920F931F93CF93DF93FC0120812B33ED
:102E300019F1D0916905D430F8F4F62EBC01C09197
:102E400072050C2F10E0F0E6CF9FC00111248851CD
:102E50009C4F0E9420D5F801E252FC4FF082CF5FD8
:102E6000C43018F4C093720502C010927205DF5F7F
:102E7000D093690581E001C080E0DF91CF911F917F
:102E80000F91FF9008958091DA059091DB05A09154
:102E9000DC05B091DD0580934E0290934F02A09324
:102EA0005002B09351028091D8059091D90590932A
:102EB0004D0280934C02089580914E0290914F02F2
:102EC000A0915002B09151028093DA059093DB05F6
:102ED000A093DC05B093DD0580914C0290914D02EA
:102EE0009093D9058093D80584E690E090934D02A5
:102EF00080934C0208952F923F924F925F926F926F
:102F00007F928F929F92AF92BF92CF92DF92EF9279
:102F1000FF920F931F93CF93DF93CDB7DEB72A971E
:102F20000FB6F894DEBF0FBECDBF2B013C012D8341
:102F30003E834F83588747015801DA86C9868091BE
:102F40004E0290914F02A0915002B091510289839C
:102F50009A83AB83BC83D6011C9111960C91119777
:102F600012963C90129713962C9020E030E0A90125
:102F7000612F702F832D922D0E9446CD81110AC0A2
:102F8000ECE1F6E285919591A591B491182F092F66
:102F90003A2E2B2EA50194016091550D7091560D7E
:102FA0008091570D9091580D0E9446CD87FF16C015
:102FB000812F902FA32DB22D80934E0290934F021C
:102FC000A0935002B09351028092550D9092560DED
:102FD000A092570DB092580D0E94E416E985FA852B
:102FE000C080D180E280F38020E030E0A901C701F9
:102FF000B6010E9446CD811107C085E5C82EDC2CA4
:1030000085E0E82E83E4F82EC0924E02D0924F0263
:10301000E0925002F092510240924D0D50924E0DAE
:1030200060924F0D7092500D8D819E81AF81B88559
:103030008093510D9093520DA093530DB093540D66
:103040000E94E4162091550D3091560D4091570D78
:103050005091580DC501B4010E9446CD87FF16C09E
:10306000812F902FA32DB22D80934E0290934F026B
:10307000A0935002B09351028092550D9092560D3C
:10308000A092570DB092580D0E94E4160E94282C71
:1030900089819A81AB81BC8180934E0290934F02CB
:1030A000A0935002B09351022A960FB6F894DEBF57
:1030B0000FBECDBFDF91CF911F910F91FF90EF9089
:1030C000DF90CF90BF90AF909F908F907F906F9048
:1030D0005F904F903F902F900895CF92DF92EF92A4
:1030E000FF920F931F936B01FC01E080F18002813E
:1030F0001381EDE4FDE024813581468157816081B3
:103100007181828193810E947B171F910F91FF90A3
:10311000EF90DF90CF900895BF92CF92DF92EF9221
:10312000FF920F931F93CF93DF93CDB7DEB728970E
:103130000FB6F894DEBF0FBECDBF909183069817EF
:1031400009F47BC0B82E882309F454C080E090E0D5
:10315000A0E7B1E48D839E83AF83B887C090490D0B
:10316000D0904A0DE0904B0DF0904C0D20E030E0F7
:10317000A901C701B6010E9446CD87FF0CC0A70177
:10318000960160E070E080E791E40E94E0D16D83F9
:103190007E838F83988720E030E04AE753E46D8197
:1031A0007E818F8198850E9441D4181644F480E076
:1031B00090E0AAE7B3E48D839E83AF83B8872D8127
:1031C0003E814F8158856091550D7091560D8091CB
:1031D000570D9091580D0E9446CD87FF0BC0198264
:1031E0001A821B821C82BE016F5F7F4FCE01059643
:1031F0000E946D1860914D0D70914E0D80914F0D94
:103200009091500D2091510D3091520D4091530DE0
:103210005091540D19821A821B821C82E090550D28
:10322000F090560D0091570D1091580DFE013196FA
:103230006F010E947B17B092830680E028960FB63C
:10324000F894DEBF0FBECDBFDF91CF911F910F91DC
:10325000FF90EF90DF90CF90BF9008950F931F9352
:10326000CF93DF9394E0899FE00111248E01035CEA
:10327000124FFE01EC54FC4FDE01AA58BC4F2D91B9
:103280003D914D915C9160817181828193810E9419
:10329000E1D1F8016083718382839383FE01E05161
:1032A000F74F85919591A591B491FE01EE50F34FA2
:1032B00080839183A283B383FE01E450F74F85910D
:1032C0009591A591B491CF5CDD4F88839983AA83B2
:1032D000BB83DF91CF911F910F91089529E53DE0C8
:1032E00045E55DE061E57DE08DE49DE00C94382CE2
:1032F0002F923F924F925F926F927F928F929F9206
:10330000AF92BF92CF92DF92EF92FF920F931F93F3
:10331000CF93DF93CDB7DEB72C970FB6F894DEBF0F
:103320000FBECDBF1092510D1092520D1092530D41
:103330001092540D10924D0D10924E0D10924F0D93
:103340001092500D0E946E19E1E6F6E22490E5E538
:10335000F6E285919591A591B49189879A87AB877B
:10336000BC87E9E5F6E285909590A590B4909C0124
:10337000AD01C501B4010E9446CD87FF07C0298574
:103380003A854B855C85C501B40106C0A501940151
:1033900069857A858B859C850E94DBD22B013C0157
:1033A000E8E1F6E285919591A591B4918D839E8394
:1033B000AF83B887E4E1F6E2C590D590E590F4904C
:1033C0009C01AD01C701B6010E9446CD87FD05C035
:1033D0001D810E813F80F88403C01C2D0D2D3E2CD5
:1033E000A3019201C301B2010E94ACCD20E030E004
:1033F00040E85FE30E94E1D10E948FD4212F302F5B
:10340000432D5F2D0E94ACCD69837A838B839C838F
:10341000E2E6F6E214914090550D5090560D609002
:10342000570D7090580D20E030E040EC5FE3C5018F
:10343000B4010E94ACCD6B017C01612F110F770BA1
:10344000880B990B0E944DCD9B01AC01C701B601C1
:103450000E94ACCD4B015C0120E030E040EC5FE32A
:1034600069857A858B859C850E94ACCD6B017C013A
:10347000622D220C770B880B990B0E944DCD9B017E
:10348000AC01C701B6010E94ACCDDE0111966D0101
:1034900083017201A50194010E947B170E940543DC
:1034A0001092510D1092520D1092530D1092540D16
:1034B00010924D0D10924E0D10924F0D1092500D16
:1034C0002C960FB6F894DEBF0FBECDBFDF91CF9123
:1034D0001F910F91FF90EF90DF90CF90BF90AF9032
:1034E0009F908F907F906F905F904F903F902F9024
:1034F00008952F923F924F925F926F927F929F9288
:10350000AF92BF92CF92DF92EF92FF920F931F93F1
:10351000CF93DF93CDB7DEB728970FB6F894DEBF11
:103520000FBECDBF1A012B01922EF32EC82ED12C27
:10353000F601EF59F94DE491AA24A3941E160CF458
:10354000A12CBB24B39420E030E0A901C201B10159
:103550000E9441D418160CF0B12CCC0CDD1CCC0C04
:10356000DD1CC601835B924F3C01FC01108211827D
:10357000128213820E946E19F301208231824282EC
:103580005382E0902E0D20E030E0A901B801892D92
:103590009F2D0E9446CD81110AC0F601EC5EF94DC7
:1035A00085919591A591B4918C019A2EFB2EC8011D
:1035B000A92DBF2D8D839E83AF83B88719821A8270
:1035C0001B821C82CE0101966C018E010B5F1F4F86
:1035D00029E53DE045E55DE061E57DE08DE49DE0C8
:1035E0000E94D27C0E94282CAB100E940543289692
:1035F0000FB6F894DEBF0FBECDBFDF91CF911F9104
:103600000F91FF90EF90DF90CF90BF90AF909F9081
:103610007F906F905F904F903F902F900895809192
:10362000700590917105009731F04AE050E060E03C
:1036300070E00C947ECB60E070E0CB010895809147
:10364000700590917105009731F04AE050E060E01C
:1036500070E00C9450CA60E070E0CB0108950E94C5
:103660001F1B97FD0CC00E941F1B6F3F710581053A
:10367000910509F034F40E941F1B862F089580E005
:1036800008958FEF08958091700590917105892BB1
:1036900039F00E942F1B91E0811103C090E001C01E
:1036A00091E0892F08950F931F93CF938091700518
:1036B000909171050097F1F0FC018F01C1912C2FC1
:1036C0002F7D89F0C53411F0C536B9F7F8011082A5
:1036D00060E070E00E94F4C8F801C083562F472FC5
:1036E000382F292F0BC060E070E0CF911F910F9110
:1036F0000C94F4C850E040E030E020E0652F742FD7
:10370000832F922FCF911F910F91089581548A3169
:1037100008F042C0E82FF0E040916203509163034B
:10372000609164037091650304C076956795579521
:1037300047958A95D2F7842F817040FF2FC0E85BB0
:10374000FC4F9081992309F1E0911C0DF0911D0D22
:10375000E90FF11D908120ED290F2A3098F09E325B
:1037600011F491810CC09D3211F09B3271F4918162
:1037700020ED290F2A3030F09E3239F49281905397
:103780009A3018F42E2F9F2F02C020E090E0209353
:10379000700590937105089580E0089508950E9442
:1037A000861B882341F081E02091700530917105DE
:1037B000232B09F480E008959F92AF92BF92CF929D
:1037C000DF92EF92FF920F931F93CF93DF9384E5E5
:1037D000A82E82E0B82E0EE11DE0CDE4DDE09DE3F1
:1037E000C92E9DE0D92E22EEE22E23E0F22E912C5E
:1037F000F50181915F010E94861B882309F10E94D7
:10380000531BF7012081211104C02091E6032223DC
:1038100039F0288139814A815B810E94E1D10AC057
:10382000F3E09F1639F0F601208131814281538106
:103830000E94E0D1F801608371838283938309C081
:1038400088819981AA81BB81F80180839183A283B9
:10385000B38393940C5F1F4F2496F4E0CF0ED11CDA
:103860002FEFE21AF20A84E09812C2CF86E40E9497
:10387000CF1B8823C9F00E94531B20E030E0A90130
:103880000E9441D4181684F40E94531B20E030E0BB
:1038900040E752E40E94DBD260934E0270934F02E5
:1038A0008093500290935102DF91CF911F910F911D
:1038B000FF90EF90DF90CF90BF90AF909F900895D2
:1038C0009091C00095FFFCCF8093C60008952F9281
:1038D0003F924F925F926F927F928F929F92AF92A0
:1038E000BF92CF92DF92EF92FF920F931F93CF93ED
:1038F000DF93CDB7DEB72A970FB6F894DEBF0FBEC1
:10390000CDBF8091D80C83FD4AC183E50E94CF1BB7
:103910008C83811106C082E50E94CF1B882309F4A5
:103920003EC10E94531B0E944DD3663971050CF0B5
:1039300033C17093770E6093760E0E94C85B0E942D
:10394000531B20E030E040EA50E40E9441D41816B6
:1039500014F40E94049F6091760E7091770E072EEA
:10396000000C880B990B0E944DCD9B01AC0160911E
:1039700044067091450680914606909147060E9444
:1039800046CD87FD03C08BE399E002C08AE499E04D
:1039900060E00E94453481E08093090280912E0D01
:1039A0008093D003812C912C5401412C512C320155
:1039B000212C1D828CE38E838CE18F8386E48887A3
:1039C000C12CD12C80E8E82E9FEBF92E6091760E69
:1039D0007091770E072E000C880B990B0E944DCD2D
:1039E00069877A87182F092F9B01482F592FB60115
:1039F000C7010E9446CD8823D9F120914406309119
:103A0000450640914606509147068C8169857A8526
:103A1000811109C0812F902F0E9446CD282E221C93
:103A20002224221C2BC0812F902F0E9446CD87FF7D
:103A300024C080910902882309F4B1C02A960FB6E8
:103A4000F894DEBF0FBECDBFDF91CF911F910F91D4
:103A5000FF90EF90DF90CF90BF90AF909F908F90AE
:103A60007F906F905F904F903F902F900C947B379A
:103A7000C986DA861E2D0F2D01C0212C0E9462B14D
:103A80006B017C01DC01CB0184199509A609B709FA
:103A9000B7FD0DC02601370188EE480E83E0581EA1
:103AA000611C711C0E940B5B8AE00E94601C0E94DA
:103AB00007630E9462B16093650770936607809305
:103AC0006707909368073090440680914506898384
:103AD000809146068A83809147068B83222071F16C
:103AE00081149104A104B10441F0D701C6018819E1
:103AF0009909AA09BB09B7FD21C0232D39814A8143
:103B00005B816D817E818F8198850E94E0D120E06C
:103B100030E040EC5FE30E9446CD87FD8ACF46014E
:103B2000570180E6880E8AEE981EA11CB11C3D82CA
:103B300089818E838A818F838B8188878091090216
:103B4000882309F476CF6091760E7091770E072E58
:103B5000000C880B990B222091F00E944DCD9B0107
:103B6000AC01632D79818A819B810E9441D4181612
:103B70000CF05FCFC984DA84E12EF02E27CF0E94AB
:103B80004DCD9B01AC01632D79818A819B810E947F
:103B900046CD87FDEFCF4DCF66E970E0CACE2A96BD
:103BA0000FB6F894DEBF0FBECDBFDF91CF911F914E
:103BB0000F91FF90EF90DF90CF90BF90AF909F90CC
:103BC0008F907F906F905F904F903F902F900895CF
:103BD000CF93DF93E6E9FCE28491EF0121968823FD
:103BE00021F00E94601CFE01F7CFEEE0F9E0849125
:103BF000EF012196882321F00E94601CFE01F7CF7F
:103C0000DF91CF910895CF92DF92EF92FF920F93C1
:103C10001F93CF93DF9380916905843008F027C10B
:103C20000E948316AC0197FD22C1982F2091840E2B
:103C30003091850E8A3019F09D3009F0E6C010925F
:103C4000D7052115310519F40E94D05FE4CFF901A1
:103C5000E958FA4F10821092850E1092840EC7E731
:103C6000D5E0FE018191803211F4EF01FACF8E345C
:103C700009F07EC0209709F47BC068ED78E0CE01A2
:103C80000E94C4CC8C01892B41F06EE470E0CE011F
:103C900004960E940CD5009709F4CE014AE050E04A
:103CA00060E070E001960E9450CA609373057093C3
:103CB00074058093750590937605C090860ED0901C
:103CC000870EE090880EF090890E2FEFC21AD20A6C
:103CD000E20AF20A6C157D058E059F0529F0012B7D
:103CE00019F485EA98E02AC06AE270E0CE010E94E9
:103CF00044D59C01009701F1982F9C1B10E099235B
:103D000039F09150FE01E90FF11D80811827F7CF9E
:103D10004AE050E060E070E0C90101960E9450CA9C
:103D2000012F10E020E030E0601771078207930751
:103D300079F086E898E002C08CE598E0DF91CF91B9
:103D40001F910F91FF90EF90DF90CF900C94D7B020
:103D50008091730590917405A0917505B0917605D9
:103D60008093860E9093870EA093880EB093890E51
:103D700080910802811124C067E470E0CE010E94A6
:103D80000CD50097E9F04AE050E060E070E0019661
:103D90000E9450CA643071058105910588F4E5EEF2
:103DA000F7E084918F010F5F1F4F882321F00E945D
:103DB000601CF801F6CF60E08BED97E00E9445347F
:103DC00060E173E0CE010E9417D5892B21F4109297
:103DD00009021092820365E173E0CE010E9417D5BB
:103DE000892B21F482ED97E00E946D7C6AE173E0FB
:103DF000CE010E9417D5892B11F40E94E66761E07D
:103E000087E795E00E94101706CF2F3531050CF09B
:103E100002CF9C35C1F40E94831697FDFCCE209101
:103E2000D7052111F8CE2091840E3091850EA9017D
:103E30004F5F5F4F5093850E4093840EF901E95810
:103E4000FA4F8083E8CE9B3319F481E08093D70545
:103E50008091D7058111DFCEC90101969093850E1F
:103E60008093840EF901E958FA4F4083D4CEDF9154
:103E7000CF911F910F91FF90EF90DF90CF90089519
:103E8000BF92CF92DF92EF92FF920F931F93CF9347
:103E9000DF93CDB7DEB76E970FB6F894DEBF0FBED7
:103EA000CDBF6091F00C7091F10C6115710561F15D
:103EB0004DE150E0CE0101967C010E94B5CC1E8EF2
:103EC000F7018F010E191F09B190BB2031F19AE063
:103ED000B912F7CF22C0B70185EC97E00E94242BDE
:103EE00082E20E94601C8AE00E94601CBB2061F19B
:103EF0000F5F1F4F8091F00C9091F10C080F191F6C
:103F00001093F10C0093F00C81E02091F00C3091B3
:103F1000F10C232BE1F480E01AC0F701E00FF11F50
:103F2000108260E0C7010E941017882369F3E8EB54
:103F3000F6E284916F019FEFC91AD90A882359F2DA
:103F40000E94601CF601F5CF00E010E0D9CF6E961C
:103F50000FB6F894DEBF0FBECDBFDF91CF911F919A
:103F60000F91FF90EF90DF90CF90BF9008958F92C8
:103F70009F92AF92BF92EF92FF920F931F93CF93B6
:103F8000DF93CDB7DEB7A0970FB6F894DEBF0FBEB4
:103F9000CDBF611571058105910591F100E0842E79
:103FA000912CA12CB12C102FEE24E394F12CEC0ECB
:103FB000FD1EE00EF11C07FDFA94A50194010E947C
:103FC0004DD1F7016083B901CA010F5F6115710519
:103FD0008105910541F71F3F31F1E1E0F0E0EC0F81
:103FE000FD1FE10FF11D17FDFA9580818A3010F059
:103FF00097E301C090E3890F0E94601C1150EBCF42
:1040000080E3A0960FB6F894DEBF0FBECDBFDF9160
:10401000CF911F910F91FF90EF90BF90AF909F9025
:104020008F900C94601CA0960FB6F894DEBF0FBE64
:10403000CDBFDF91CF911F910F91FF90EF90BF9077
:10404000AF909F908F900895EF92FF920F931F93E0
:10405000CF93DF937C0184E50E94CF1BD82F882368
:1040600049F10E942F1BC82F181604F5E8EBF6E261
:1040700084918F010F5F1F4F882321F00E94601CE5
:10408000F801F6CF8DE40E94601CB70180E090E05B
:104090004AE00E94B71F6C2FCC0F770B8DED98E094
:1040A0000E940B2B8AE00E94601C08C08093D00302
:1040B000D0E004C080912E0D8093D0038D2FDF912E
:1040C000CF911F910F91FF90EF900895CF92DF92C3
:1040D000EF92FF926B017C0197FF0BC08DE20E9473
:1040E000601CF094E094D094C094C11CD11CE11CDD
:1040F000F11C4AE0C701B601FF90EF90DF90CF902E
:104100000C94B71F2F923F924F925F926F927F92C3
:104110008F929F92AF92BF92CF92DF92EF92FF92D7
:104120000F931F93CF93DF93CDB7DEB762970FB690
:10413000F894DEBF0FBECDBF8DE690E00E94242034
:104140008111BAC18091D80C83FDB6C183E50E946C
:10415000CF1B8F83811107C082E50E94CF1B89830B
:10416000882309F448C00E94531B0E944DD37093CA
:10417000790E6093780E80E00E94145C0E94531BBD
:1041800020E030E04AEA52E40E9446CD18160CF4D2
:104190008AC10E94289F0E947B376091780E70919F
:1041A000790E072E000C880B990B0E944DCD6B01E8
:1041B0007C018090E4079090E507A090E607B0901E
:1041C000E707A50194010E9441D418160CF46EC1B2
:1041D0002F8121116EC1A5019401C701B6010E9472
:1041E00041D418160CF462C181E299E060E00E94AB
:1041F000453431E039830E943F2B5981552309F41E
:104200005BC181E0809309021B821C821D821E8299
:1042100019861A861B861C861A821D868CE38E8759
:104220009CE19F87A6E4A88B1A8A312CB0E8B98359
:104230002FEB298B812C912C54016091780E709179
:10424000790E072E000C880B990B0E944DCD7B0137
:104250008C019B01AC016A89732D898199890E9427
:1042600046CD882309F441C02091E4073091E50749
:104270004091E6075091E7078F81B70181110CC08B
:10428000C8010E9446CD881F8827881F8A83EA8A32
:104290003F2C0983198B29C0C8010E9446CD87FF96
:1042A0001FC080910902882309F406C162960FB6E7
:1042B000F894DEBF0FBECDBFDF91CF911F910F915C
:1042C000FF90EF90DF90CF90BF90AF909F908F9036
:1042D0007F906F905F904F903F902F900C947B3722
:1042E000EA8A3F2C0983198B1A820E9462B16B0102
:1042F0007C01DC01CB0129853A854B855C85821BDD
:10430000930BA40BB50BB7FD3BC0D701C601885179
:104310009C4FAF4FBF4F89879A87AB87BC870E945E
:104320000B5BEDE1F9E084913F019FEF691A790A97
:10433000882321F00E94601CF301F5CF81149104C1
:10434000A104B104B9F0D501C401805F984DAF4F0D
:10435000BF4FBC01CD016C197D098E099F0928EE64
:1043600033E040E050E00E944DD1CA01B9010E9403
:10437000662003C08FE30E94601C8AE00E94601CDC
:104380000E9407630E9462B160936507709366079D
:1043900080936707909368072090E407A091E50752
:1043A000A8870091E6071091E707222D3A2FA80170
:1043B0006A89732D898199890E94E0D12B013C0182
:1043C00020E030E0A9010E9441D487FF04C077FAC1
:1043D000709477F8709481149104A104B10459F495
:1043E00020E030E040E85FE3C301B2010E9446CD27
:1043F00087FF0DC00AC020E030E040E450E4C30174
:10440000B2010E9441D4181614F446015701BA8132
:10441000BB2389F12B813C814D815E8121153105C2
:104420004105510541F0D701C601821B930BA40B36
:10443000B50BB7FD20C0222D3885A8016D857E857E
:104440008F8598890E94E0D120E030E040EC5FE366
:104450000E9446CD87FD25CFD701C601805A9541E0
:10446000AF4FBF4F8B839C83AD83BE832D869885D2
:104470009E870F87188B80910902882309F411CF3A
:1044800081149104A104B10409F4D7CEA0E1CA1AA1
:10449000A7E2DA0AE108F108C818D908EA08FB0817
:1044A000F7FEFFCECACE0E94049F77CE8EE299E03F
:1044B0009DCE41E049839FCE62960FB6F894DEBF51
:1044C0000FBECDBFDF91CF911F910F91FF90EF9065
:1044D000DF90CF90BF90AF909F908F907F906F9024
:1044E0005F904F903F902F9008958F929F92AF9240
:1044F000BF92CF92DF92EF92FF92CF936B017C013C
:10450000B42E20E030E0A9010E9446CD87FF07C00D
:104510008DE20E94601CF7FAF094F7F8F094C0E086
:1045200060E070E080E09FE3CB1541F02DEC3CECC7
:104530004CEC5DE30E94ACCDCF5FF6CF9B01AC01AC
:10454000C701B6010E94E1D16B017C010E9454D3E6
:104550004B015C014AE00E94B71FCC2389F1C501E1
:10456000B4010E944BCD9B01AC01C701B6010E9472
:10457000E0D16B017C018EE20E94601C20E030E003
:1045800040E251E4C701B6010E94ACCD4B015C0191
:104590000E944DD36B01770FEE08FF08C701B601EB
:1045A0000E946620C701B6010E944DCD9B01AC015F
:1045B000C501B4010E94E0D16B017C01C150F1F64C
:1045C000CF91FF90EF90DF90CF90BF90AF909F90F2
:1045D0008F900895CF93DF930E9497678BE50E9499
:1045E000601CCFE2DDE0688179818A819B8142E0B5
:1045F0000E9475224C815D816E817F818BE099E004
:104600000E94EE2A488559856A857B8588E099E075
:104610000E94EE2A8DE50E94601C8AE0DF91CF9116
:104620000C94601C1F920F920FB60F9211240BB6C0
:104630000F922F938F939F93EF93FF932091640793
:10464000E091630781E08E0F8F779091C600281765
:1046500029F0F0E0ED51F94F9083E82FE0936307E4
:10466000FF91EF919F918F912F910F900BBE0F9023
:104670000FBE0F901F901895CF93DF938091E40E9B
:104680009091E50E891B8F7009F445C09091E10E61
:10469000992351F0833030F48FEF890F19F0809314
:1046A000E10E3BC01092E10EE091E50E8FE4E89F31
:1046B000F0011124E851F84F808180FD2EC08091D7
:1046C000BF079091C007A091C107B091C207EF0149
:1046D000C55BDF4F488159816A817B81841B950BC3
:1046E000A60BB70B8093BF079093C007A093C10799
:1046F000B093C2078091E50E8F5F8F708093E20EBA
:104700009091E50E8091E30E98130AC08091E20E1D
:104710008093E30E05C00E94584280E090E001C003
:10472000CF01DF91CF9108950F930FB70F930091B1
:104730006E000F930B7F00936E0000916F000D7F52
:1047400000936F000F930BB70F930CB70F921F924C
:104750002F933F934F935F936F937F938F939F9389
:10476000AF93BF93EF93FF9311240E942824FF91EE
:10477000EF91BF91AF919F918F917F916F915F91D9
:104780004F913F912F911F900F900CBF0F910BBF36
:104790000F910260F89400936F000F9100936E00E8
:1047A0000F910FBF0F9118958091DE0580FF07C014
:1047B00080910B018270809309018FEF07C0809177
:1047C0000B01809582708093090181E080930A0239
:1047D0008091DE0581FF08C080910B01809581707A
:1047E000809309018FEF06C080910B018170809347
:1047F000090181E080930B028091DE0582FF07C0F2
:1048000080910B018470809309018FEF07C0809124
:104810000B01809584708093090181E080930C02E4
:104820008091DE0583FF08C080910B018095807424
:10483000809309018FEF06C080910B0180748093F3
:10484000090181E080930D0200000000000008953E
:104850002F923F924F925F926F927F928F929F9290
:10486000AF92BF92CF92DF92EF92FF921F93CF93BE
:10487000DF93F8948FEF9FEF9093890080938800E7
:104880001AE0C0E0D0E0B5E72B2EB1E13B2E7894E2
:104890008091210690912206A0912306B0912406D2
:1048A000892B8A2B8B2B09F0CEC18091060D882392
:1048B000D1F01092060D8091040D9091050D892B79
:1048C00091F01092DF051092050D1092040D909159
:1048D000E40E8091E50E981731F08091E50E8F5F20
:1048E0008F708093E50E8091040D9091050D892BBA
:1048F00009F4A9C180901D0690901E06A0901F0685
:10490000B09020064091190650911A0660911B063E
:1049100070911C06C0900C06D12CE12CF12CDB010F
:10492000CA0188199909AA09BB09C816D906EA0655
:10493000FB0610F4D701C601282F880D991DAA1D6A
:10494000BB1D80931D0690931E06A0931F06B09377
:10495000200680918400909185004E96C090F405C9
:10496000D090F505E090F605F090F7054091E4054C
:104970005091E5056091E6057091E7054C0D5D1DD0
:104980006E1D7F1D4093F4055093F5056093F60569
:104990007093F70577FD1CC0409AC0906603D090D5
:1049A0006703E0906803F090690340910A02042EC7
:1049B000000C550B660B770B4C0D5D1D6E1D7F1D9E
:1049C0004093660350936703609368037093690391
:1049D000C090F805D090F905E090FA05F090FB053D
:1049E0004091E8055091E9056091EA057091EB0569
:1049F0004C0D5D1D6E1D7F1D4093F8055093F9050C
:104A00006093FA057093FB0577FD1CC0419AC09036
:104A10006A03D0906B03E0906C03F0906D034091BB
:104A20000B02042E000C550B660B770B4C0D5D1D15
:104A30006E1D7F1D40936A0350936B0360936C035C
:104A400070936D03C090FC05D090FD05E090FE05CD
:104A5000F090FF054091EC055091ED056091EE0559
:104A60007091EF054C0D5D1D6E1D7F1D4093FC0583
:104A70005093FD056093FE057093FF0577FD1CC004
:104A8000429AC0906E03D0906F03E0907003F09054
:104A9000710340910C02042E000C550B660B770B32
:104AA0004C0D5D1D6E1D7F1D40936E0350936F0373
:104AB0006093700370937103C0900006D09001065C
:104AC000E0900206F09003064091F0055091F10548
:104AD0006091F2057091F3054C0D5D1D6E1D7F1DFB
:104AE00040930006509301066093020670930306FC
:104AF00077FD1CC0439AC0907203D0907303E0907E
:104B00007403F090750340910D02042E000C550BB8
:104B1000660B770B4C0D5D1D6E1D7F1D4093720360
:104B200050937303609374037093750340918400F2
:104B30005091850048175907C8F34091F4055091EA
:104B4000F5056091F6057091F70577FD15C0C090E9
:104B5000E005D090E105E090E205F090E3054C1906
:104B60005D096E097F094093F4055093F505609344
:104B7000F6057093F70540984091F8055091F905B6
:104B80006091FA057091FB0577FD15C0C090E005B6
:104B9000D090E105E090E205F090E3054C195D0945
:104BA0006E097F094093F8055093F9056093FA0563
:104BB0007093FB0541984091FC055091FD05609173
:104BC000FE057091FF0577FD15C0C090E005D090FF
:104BD000E105E090E205F090E3054C195D096E09EE
:104BE0007F094093FC055093FD056093FE0570938B
:104BF000FF0542984091000650910106609102061F
:104C00007091030677FD15C0C090E005D090E105D6
:104C1000E090E205F090E3054C195D096E097F090B
:104C200040930006509301066093020670930306BA
:104C30004398215041F040918400509185004817DD
:104C40005907C8F38ACE8091210690912206A0913F
:104C50002306B0912406892B8A2B8B2B09F01EC3C7
:104C6000E091040DF091050D309709F493C4809103
:104C70001D0690911E06A0911F06B091200640913E
:104C8000190650911A0660911B0670911C06841734
:104C90009507A607B707D0F01092DF051092050D13
:104CA0001092040D9091E40E8091E50E981709F48E
:104CB00071C48091E50E8F5F8F708093E50EA0ED3B
:104CC000CA2EA7E0DA2EE12CF12C4EC14091150638
:104CD00050911606609117067091180648175907EB
:104CE0006A077B0708F467C04091110650911206CD
:104CF000609113067091140682A993A9A4A9B5A97D
:104D0000FF24499FE12C5A9F90016A9F300D699FB3
:104D1000200D311D4A9FE00C211D3F1D599FE00CC5
:104D2000211D3F1D689FE00C211D3F1D589FE10C78
:104D30002F1D3F1DE6942F1D3F1DB49F200D311DDB
:104D4000B59F300D112483AD94ADA5ADB6AD820FE6
:104D5000931FA11DB11D80930D0690930E06A09385
:104D60000F06B0931006C7A8D0ACE1ACF2ACC816E1
:104D7000D906EA06FB0640F4C0920D06D0920E0654
:104D8000E0920F06F092100680900D0690900E06AD
:104D9000A0900F06B090100689E591E121E0FC019A
:104DA000C590D590E590F490C814D904EA04FB04AA
:104DB00008F4BAC2C4C24091080650910906609135
:104DC0000A0670910B06481759076A077B0708F017
:104DD00063C04091040650910506609106067091EB
:104DE000070682A993A9A4A9B5A9FF24499FE12C8C
:104DF0005A9F90016A9F300D699F200D311D4A9F77
:104E0000E00C211D3F1D599FE00C211D3F1D689F97
:104E1000E00C211D3F1D589FE10C2F1D3F1DE69406
:104E20002F1D3F1DB49F200D311DB59F300D112446
:104E3000C901A0E0B0E080900D0690900E06A09011
:104E40000F06B0901006FF9688159905AA05BB05B8
:104E500080F4C080D180E280F380881A990AAA0A7F
:104E6000BB0A8C149D04AE04BF0438F446015701FC
:104E700004C080809180A280B38089E591E121E027
:104E8000FC01C590D590E590F490C814D904EA04CB
:104E9000FB0408F4BCC2C6C280910F0290911002BC
:104EA000A0911102B0911202B7FF56C087A990AD30
:104EB000A1ADB2AD29E531E141E0F901C590D59050
:104EC000E590F490C816D906EA06FB0658F4B695A4
:104ED000A79597958795440F2C5F3F4FF1E12537B4
:104EE0003F0759F740930C0680329105A105B105A3
:104EF00008F423C38097A109B109811528E092071E
:104F0000A105B10508F4F6C244E0949F9001112474
:104F1000275A324FF901329645915491EE27859FD9
:104F2000B001849F610D7E1F06946E1F7E1F1124A9
:104F3000CB01A0E0B0E0F9014591549160E070E050
:104F4000481B590B6A0B7B0B40930F0250931002C6
:104F50006093110270931202C0900F02D090100261
:104F6000E0901102F09012028091040D9091050DD5
:104F7000892B09F08BC10E943C239093050D8093EF
:104F8000040D892B09F482C1E091040DF091050D07
:104F9000808183FF3EC085899689A789B08D8093E3
:104FA000660390936703A0936803B0936903818DB0
:104FB000928DA38DB48D80936A0390936B03A0931D
:104FC0006C03B0936D03858D968DA78DB0A18093F2
:104FD0006E0390936F03A0937003B093710381A14C
:104FE00092A1A3A1B4A18093720390937303A093A1
:104FF0007403B09375039091E40E8091E50E9817B9
:1050000009F4B9CF8091E50E8F5F8F708093E50E24
:10501000B2CF85889688A788B08C81E081149104EE
:10502000A104B10409F480E0C18CD28CE38CF48C2F
:10503000C114D104E104F10409F08260458D568D5C
:10504000678D70A1411551056105710509F08460F6
:105050008093DF0510920406109205061092060652
:105060001092070610921106109212061092130663
:105070001092140685A196A1A7A1B0A58093190648
:1050800090931A06A0931B06B0931C064424552443
:105090003201481A590A6A0A7B0A40920006509265
:1050A000010660920206709203064092FC0550923F
:1050B000FD056092FE057092FF054092F805509242
:1050C000F9056092FA057092FB054092F405509242
:1050D000F5056092F6057092F705880C991CAA1CDC
:1050E000BB1C8092E4059092E505A092E605B09283
:1050F000E705CC0CDD1CEE1CFF1CC092E805D0922D
:10510000E905E092EA05F092EB05440F551F661F92
:10511000771F4093EC055093ED056093EE05709377
:10512000EF0541A152A163A174A1440F551F661F51
:10513000771F4093F0055093F1056093F20570934B
:10514000F305880F991FAA1FBB1F8093E00590935A
:10515000E105A093E205B093E30510921D061092BD
:105160001E0610921F061092200682A593A5A4A5E4
:10517000B5A58093150690931606A0931706B093D5
:10518000180686A597A5A0A9B1A9809308069093B3
:105190000906A0930A06B0930B0641A556A9809173
:1051A000DE0558130AC080910E0290E0242F042ED1
:1051B000000C330B2817390731F05093DE0540936C
:1051C0000E020E94D4230E9473428FEF9FEFDC01F6
:1051D00080930F0290931002A0931102B0931202D9
:1051E000E091040DF091050D83AD94ADA5ADB6AD84
:1051F00080930D0690930E06A0930F06B0931006B1
:1052000029E531E141E0F901C590D590E590F490B0
:10521000C816D906EA06FB0650F4B695A7959795E9
:105220008795440F2C5F3F4F2216330661F740935A
:105230000C0680329105A105B10508F4A6C180973E
:10524000A109B1098115F8E09F07A105B10508F48E
:1052500079C144E0949F90011124275A324FF901FB
:10526000329645915491EE27859FB001849F610D40
:105270007E1F06946E1F7E1F1124F901C590D490E5
:10528000E12CF12CC61AD70AE108F108C0922106D8
:10529000D0922206E0922306F09224068091210605
:1052A00090912206A0912306B0912406AC01BD0185
:1052B0000097F1E0AF07B10520F04FEF5FEF60E03E
:1052C00070E0841B950BA60BB70B8093210690937F
:1052D0002206A0932306B0932406F89480918400BC
:1052E000909185004096115039F0C40FD51FC81712
:1052F000D90708F4CCCA01C0EC01D0938900C0934F
:1053000088007894DF91CF911F91FF90EF90DF900C
:10531000CF90BF90AF909F908F907F906F905F9055
:105320004F903F902F900895B694A79497948794A8
:10533000220F049631E18537930709F030CD209391
:105340000C0680E288169104A104B10408F459C047
:1053500020E2821A9108A108B108811438E093066E
:10536000A104B104F8F0A4E09A9EC0011124875A68
:10537000924FFC01329625913491F82DEE27F39F40
:10538000D001F29FA10DBE1F0694AE1FBE1F1124B7
:10539000FC01C590D490E12CF12CCA1ADB0AE1087B
:1053A000F10822C0D501C401B695A79597958795B8
:1053B000FC01EC7FCF01875A964FFC01C590D49039
:1053C000FC01329625913491E82DE770E29FC001EF
:1053D000E39F900D1124F3E096958795FA95E1F7F8
:1053E000C81AD90AE12CF12C4C0D5D1D6E1D7F1DD4
:1053F000409311065093120660931306709314069F
:10540000B3CDA0E28A2E912CA12CB12CA1CFB694C1
:10541000A79497948794220F0496A1E185379A0761
:1054200009F02ECD20930C0690E289169104A10478
:10543000B10408F459C020E2821A9108A108B10809
:10544000811438E09306A104B104F8F0A4E09A9E18
:10545000C0011124875A924FFC0132962591349154
:10546000F82DEE27F39FD001F29FA10DBE1F0694E9
:10547000AE1FBE1F1124FC01C590D490E12CF12C6D
:10548000CA1ADB0AE108F10822C0D501C401B695A9
:10549000A79597958795FC01EC7FCF01875A964F8A
:1054A000FC01C590D490FC01329625913491E82DF1
:1054B000E770E29FC001E39F900D112433E09695C1
:1054C00087953A95E1F7C81AD90AE12CF12C4C0DD1
:1054D0005D1D6E1D7F1D409304065093050660936D
:1054E00006067093070640CDF0E28F2E912CA12C7A
:1054F000B12CA1CFAC01BD01769567955795479525
:10550000FA01EC7F9F01275A364FF90145915491DA
:10551000F9013296659174918770869F9001879FFB
:10552000300D1124C901F3E096958795FA95E1F7BE
:10553000481B590B60E070E007CD80E290E0A0E0EE
:10554000B0E0D8CCAC01BD017695679557954795ED
:10555000FA01EC7F9F01275A364FF901C590D4908C
:10556000F9013296459154918770849F9001859FEF
:10557000300D1124C90123E0969587952A95E1F70E
:10558000C81AD90AE12CF12C81CE80E290E0A0E08B
:10559000B0E055CE80EDC82E87E0D82EE12CF12C5E
:1055A000EACCCF92DF92EF92FF92CF93DF936A0122
:1055B0007B01FC018491EF012196882321F00E9458
:1055C000601CFE01F7CF4AE0C701B601DF91CF9121
:1055D000FF90EF90DF90CF900C94B71FCF92DF92A7
:1055E000EF92FF92CF93DF936A017B01FC018491DC
:1055F000EF012196882321F00E94601CFE01F7CF65
:1056000042E0C701B601DF91CF91FF90EF90DF90AC
:10561000CF900C9475220F931F93CF93DF938B0140
:10562000FC018491EF012196882321F00E94601CE7
:10563000FE01F7CFB801110F880B990BDF91CF91C5
:105640001F910F910C9466200F931F93CF93DF93BC
:105650008B01FC018491EF012196882321F00E94A7
:10566000601CFE01F7CFE8018991882319F00E94A0
:10567000601CFACFDF91CF911F910F91089586E4BE
:105680000E94861B80938506882351F00E94531B3D
:10569000609315027093160280931702909318027C
:1056A00083E50E94861B882351F00E94531B609360
:1056B0001D0270931E0280931F029093200282E4C9
:1056C0000E94861B882351F00E94531B609319028D
:1056D00070931A0280931B0290931C0208954F92BC
:1056E0005F926F927F928F929F92AF92BF92EF9252
:1056F000FF920F931F93CF93DF93C4EAD3E089ED1A
:10570000E82E8CE0F82E0FE817E0412C512C3201E6
:1057100043946991799189919991F7018190919040
:10572000A190B1907F010E944BCDA50194010E94F0
:10573000ACCD0E9454D3F8016193719381939193FE
:105740008F01461657066806790610F42B013C01B6
:10575000F3E0C43BDF07E9F66FEF7FEFCB01A30176
:1057600092010E944DD120939F073093A007409350
:10577000A1075093A207DF91CF911F910F91FF9046
:10578000EF90BF90AF909F908F907F906F905F90C1
:105790004F9008958091E40E9091E50E891B8F70D3
:1057A0008F3019F40E940763F5CF8091E40E8F5F6C
:1057B0008F70E091E40E9FE49E9FF0011124E85168
:1057C000F84FDF011D929A95E9F798E09083409198
:1057D000FA0E5091FB0E6091FC0E7091FD0E458B00
:1057E000568B678B708F4091FE0E5091FF0E60912B
:1057F000000F7091010F418F528F638F748F409112
:10580000020F5091030F6091040F7091050F458FA7
:10581000568F678F70A34091060F5091070F6091CC
:10582000080F7091090F41A352A363A374A32091A1
:10583000E40E9091E50E291303C094E69093E10ED7
:105840008093E40E80916F00826080936F000895D2
:105850009091E40E8091E50E981306C08091E90CBA
:105860009091EA0C892B19F00E940763F1CF0895FB
:10587000EF92FF920F931F93CF93DF937B018A01E7
:10588000E9012091D90C3091DA0C4091DB0C509158
:10589000DC0CFC0160817181828193810E94ACCD1E
:1058A0000E944ED46093FA0E7093FB0E8093FC0E10
:1058B0009093FD0E2091DD0C3091DE0C4091DF0CB9
:1058C0005091E00CF70160817181828193810E9487
:1058D000ACCD0E944ED46093FE0E7093FF0E809369
:1058E000000F9093010F20E030E0A901F8016081E2
:1058F0007181828193810E94E1D12091E10C3091EC
:10590000E20C4091E30C5091E40C0E94ACCD0E945B
:105910004ED46093020F7093030F8093040F909303
:10592000050F2091E50C3091E60C4091E70C509169
:10593000E80C688179818A819B810E94ACCD0E94AC
:105940004ED46093060F7093070F8093080F9093C7
:10595000090F9091E40E8091E50E981741F0DF91C8
:10596000CF911F910F91FF90EF900C94CA2B0E9442
:10597000282C80916F00982F927081FF05C0809134
:105980006F008D7F80936F004091FA0E5091FB0E57
:105990006091FC0E7091FD0E409366035093670377
:1059A00060936803709369034091FE0E5091FF0E5F
:1059B0006091000F7091010F40936A0350936B0345
:1059C00060936C0370936D034091020F5091030F2D
:1059D0006091040F7091050F40936E0350936F0315
:1059E00060937003709371034091060F5091070FFD
:1059F0006091080F7091090F4093720350937303E5
:105A00006093740370937503992329F080916F005C
:105A1000826080936F00DF91CF911F910F91FF9073
:105A2000EF9008950F931F93CF93DF93C9EDDCE0C0
:105A300007EC17E0299139914991599160E070E0A4
:105A400080E89FE30E94DBD2F80161937193819318
:105A500091938F01FCE0C93EDF0761F729E53DE046
:105A600045E55DE061E57DE08DE49DE00E94382C38
:105A7000DF91CF911F910F910C946F2BCF93DF93F8
:105A800090916F00292F227091FF05C090916F00B7
:105A90009D7F90936F0094E0899FA0011124FA01EB
:105AA000EA59FC4F6081718182819381222329F020
:105AB00020916F00226020936F00EA01C953D84FF4
:105AC0000E944DCD288139814A815B810E94ACCDF5
:105AD000DF91CF910895CF92DF92EF92FF920F93D3
