:100000000C9457160C9488160C9488160C94881629
:100010000C9488160C9488160C9488160C948816E8
:100020000C9488160C9488160C9488160C948816D8
:100030000C9488160C9488160C9488160C948816C8
:100040000C9488160C949B230C9488160C94881698
:100050000C9488160C9488160C94975B0C9476B1CB
:100060000C9488160C9419230C9488160C948816FA
:100070000C9488160C9488160C9488160C94881688
:100080000C9488160C9488160C9488160C94881678
:100090000C9488160C9488160C9488160C94881668
:1000A0000C9488160C9488160C9488160C94881658
:1000B0000C9488160C9488160C9488160C94881648
:1000C0000C9488160C9488160C9488160C94881638
:1000D0000C9488160C9488160C9488160C94881628
:1000E0000C94881628A370A1A9A164A3A9A1A9A111
:1000F000A9A1A9A1A9A1A9A1A9A1A9A1A9A1A9A1B0
:10010000A9A1A9A1A9A1A9A1A9A1A9A1A9A1A9A19F
:10011000A9A1A9A1A9A1A9A1A9A1A9A1A9A1A9A18F
:100120005EA3A9A1A9A1A9A1A9A1A9A1A9A1A9A1C8
:10013000A9A137A3A9A1A9A1A9A1A9A1A9A1A9A1DF
:10014000A9A1A9A1A9A1A9A17BA3A6A145A745A74A
:100150004CA74CA74CA753A753A753A760A75AA7D0
:100160005AA75AA7EAABEDABDCABE0ABE6AB24ACED
:10017000F1ABF5ABFBABFFAB03AC09AC0DAC11AC19
:1001800024AC17AC1BAC1FAC51AE56AE5BAE65AE2B
:100190006FAEE8AE79AE81AE89AE93AE9DAEA7AE3E
:1001A000B6AEC0AEE8AECAAED4AEDEAE084AD73BFD
:1001B0003BCE016E84BCBFFDC12F3D6C74319ABD36
:1001C00056833DDA3D00C77F11BED9E4BB4C3E915A
:1001D0006BAAAABE000000803F05A84CCDB2D44E49
:1001E000B93836A9020C50B9918688083CA6AAAA4B
:1001F0002ABE000000803F000C94CA2D0C94E257E8
:100200000C94E6AB0C94EAAB0C9479AE0C948F5939
:100210000C94722D0C949C2D0C94F1AB0C940D8FBE
:100220000C9411AC0C94E34A0C9409AC0C944CA7BC
:100230000C949DAE0C944A4B0C9456AE0C94F5ABBA
:100240000C940CA10C9456530C9493590C944F4B52
:100250000C9490590C945AA70C94CAAE0C945BAEB3
:100260000C94E6480C943D3C0C946FAE0C94693DA4
:100270000C94BEC80C94F32D0C94A7AE0C94F150C2
:100280000C94518E0C9451AE0C94D4AE0C94544BEF
:100290000C94DCAB0C9428A30C945C370C94A6A1B2
:1002A0000C9431940C946C930C947BA30C9493AEAB
:1002B0000C9424AC0C9454530C94A9A10C94A792C4
:1002C0000C9458980C94FBAB0C94BB950C941A911D
:1002D0000C9481AE0C949E160C94678C0C945EA3C7
:1002E0000C94C0AE0C9464A30C9489AE0C94594B3E
:1002F0000C9403AC0C94718C0C9417AC0C941BAC48
:100300000C94B8480C94938A0C94F4960C94D637B9
:100310000C9470A10C940DAC0C9463560C94F35097
:100320000C9437A30C94CF480C94E2910C946C8CF1
:100330000C94F6940C9445A70C9460A70C945F372A
:100340000C94998A0C94628C0C9460560C94E0ABDB
:100350000C9439370C949F8A0C94FFAB0C94B6AE76
:100360000C94EDAB0C94B43F0C94DEAE0C94AC4901
:100370000C9465AE0C94C04C0C947C960C94DB8A67
:100380000C941FAC0C9453A70C94E8AE0C946656D6
:100390004E414E494E495459494E46CDCCCC3D0A6A
:1003A000D7233C17B7D13877CC2B329595E6241F4D
:1003B000B14F0A000020410000C84200401C462006
:1003C000BCBE4CCA1B0E5AAEC59D74434F4D4D5515
:1003D0004E49434154494F4E0044525952554E00E4
:1003E0004552524F525300494E464F004543484FE5
:1003F0000047322F47332062616420706172616D63
:1004000065746572730A00536C6565702E2E2E003C
:10041000205A3A200020593A200042656420583A78
:100420002000436C69636B20746F20726573756D77
:10043000652E2E2E004E6F206D6F76652E0025697D
:10044000730025696D202569730025696820256979
:100450006D20256973002569642025696820256958
:100460006D20256973002569792025696420256937
:10047000682025696D20256973005072696E7420AB
:1004800074696D653A2000EC03E703E003D903CB00
:10049000036F66660044454255473A004B494C4C51
:1004A00045442E20004D3131332053006F6B0050F6
:1004B000533A310A0050533A300A0054415A204FFF
:1004C00066662E00544845524D414C5F50524F5481
:1004D000454354494F4E004155544F5245504F5299
:1004E000545F53445F53544154555300454D455256
:1004F00047454E43595F5041525345520043415383
:10050000455F4C494748545F4252494748544E451D
:10051000535300544F47474C455F4C494748545349
:1005200000534F4654574152455F504F5745520074
:100530004255494C445F50455243454E54004C454A
:1005400056454C494E475F44415441005A5F505212
:100550004F4245004155544F4C4556454C00505272
:10056000494E545F4A4F420050524F4752455353F1
:10057000004155544F5245504F52545F54454D50D1
:1005800000564F4C554D4554524943004545505235
:100590004F4D0053455249414C5F584F4E5F584FA5
:1005A0004646004649524D574152455F4E414D45E2
:1005B0003A4D61726C696E206275676669782D319B
:1005C0002E312E7820284769746875622920534F90
:1005D000555243455F434F44455F55524C3A68740A
:1005E0007470733A2F2F6769746875622E636F6D2C
:1005F0002F4D61726C696E4669726D776172652FFD
:100600004D61726C696E2050524F544F434F4C5F96
:1006100056455253494F4E3A312E30204D414348B2
:10062000494E455F545950453A54415A2045585413
:1006300052554445525F434F554E543A312055551B
:1006400049443A63656465326132662D3431613202
:100650002D343734382D396231322D6335356336D8
:10066000326633363766660A002F2F20004D31344C
:100670003520533C696E6465783E206F7574206F39
:10068000662072616E67652028302D31290A0020AE
:100690005400205200416363656C65726174696F38
:1006A0006E3A20500020466C6F773A2000000125FA
:1006B000301D0CFF2829FF24311C0BFF4527FF2389
:1006C0002F1B0AFF4443FFFFFF0403080602022218
:1006D0002B1A4142FF033809FF3620643A00206993
:1006E0003A0020703A00496E76616C696420657842
:1006F0007472756465720A0043290A0061626C6550
:100700006420286D696E2074656D702000436F6CE5
:100710006420657874727564657320617265200069
:1007200020643A0020693A0020703A004E6F20633E
:10073000617365206C696768740A00454550524FC3
:100740004D204F4B0A003F5A206F7574206F662072
:1007500072616E676520282D323020746F20323030
:10076000290A003A200050726F6265205A204F66B5
:1007700066736574004163746976652045787472A8
:10078000756465723A2000496E76616C6964206513
:10079000787472756465720A006F6B00456E6473DD
:1007A000746F7073202563202563202563202563E3
:1007B00000205A3A0020593A0020583A00656E64E9
:1007C00073746F7073206869743A2000656E717578
:1007D000657565696E672022004B494C4C45442E77
:1007E000200053544F505045442E20005072696EE3
:1007F0007465722073746F70706564206475652011
:10080000746F206572726F72732E2046697820743F
:100810006865206572726F7220616E642075736501
:10082000204D39393920746F207265737461727488
:100830002E202854656D706572617475726520692B
:10084000732072657365742E20536574206974205B
:1008500061667465722072657374617274696E6723
:10086000290A004E6F20436865636B73756D2077AE
:10087000697468206C696E65206E756D6265722C96
:10088000204C617374204C696E653A200063686582
:10089000636B73756D206D69736D617463682C2073
:1008A0004C617374204C696E653A20004C696E652A
:1008B000204E756D626572206973206E6F74204CD6
:1008C000617374204C696E65204E756D6265722B84
:1008D000312C204C617374204C696E653A20004DB8
:1008E0003131300020496E76616C6964206578741E
:1008F00072756465722000000000000000000000B6
:10090000000000000095430080894300007A432CDA
:1009100020002C200050726F746563746564205051
:10092000696E0A0020573A004520436F6F6C696E6C
:10093000672E2E2E00452048656174696E672E2E45
:100940002E0042656420636F6F6C696E672E2E2ED9
:10095000004265642068656174696E672E2E2E0002
:1009600024F4D43050C38E20C2A24017828B701161
:10097000127A910D816CD90AA861E108C7586607FF
:10098000615143061E4B5D05C145A7041A41110480
:10099000093D9803713931034036DB02653391021A
:1009A000D4305402802E1D02632CEE01752AC5013D
:1009B000B028A001102781018F2564012B244B0151
:1009C000E0223401AC211F018D200D01801FFC00AD
:1009D000841EED00971DDF00B81CD200E61BC60088
:1009E000201BBC00641AB200B219A8000A19A000AA
:1009F0006A189900D117910040178B00B516840032
:100A000031167E00B31579003A157300C7146F00D4
:100A100058146A00EE1366008813630025135E0005
:100A2000C7125B006C12570015125400C11151001F
:100A300070114F0021114B00D61049008D10470056
:100A40004610440002104200C00F4000800F3E00DC
:100A5000420F3C00060F3B00CB0E3800930E3700D0
:100A60005C0E3500270E3400F30D3200C10D31004D
:100A7000900D3000600D2E00320D2D00050D2C0064
:100A8000D90C2B00AE0C2900850C29005C0C27002A
:100A9000350C27000E0C2600E80B2400C40B2400A4
:100AA000A00B23007D0B23005A0B2100390B2100E2
:100AB000180B2000F80A1F00D90A1E00BB0A1E00EE
:100AC0009D0A1D00800A1D00630A1C00470A1B00C6
:100AD0002C0A1B00110A1A00F7091A00DD09190077
:100AE000C4091900AB091900920917007B09180005
:100AF000630917004C091600360916002009160074
:100B00000A091500F5081500E0081400CC081400C7
:100B1000B8081400A4081400900813007D081200FF
:100B20006B08130058081200460812003408110020
:100B3000230811001208110001081100F00710002D
:100B4000E0071000D0071000C0071000B0070F002A
:100B5000A107100091070E0083070F0074070F0014
:100B600065070E0057070E0049070E003B070D00F2
:100B70002E070E0020070D0013070D0006070D00BD
:100B8000F9060C00ED060D00E0060C00D4060C0082
:100B9000C8060C00BC060C00B0060C00A4060B0036
:100BA00099060C008D060B0082060B0077060B00E1
:100BB0006C060B0061060A0057060B004C060A0083
:100BC00042060A0038060A002E060A0024060A0019
:100BD0001A060A001006090007060A00FD050900AA
:100BE000F4050900EB050900E2050900D905090033
:100BF000D0050900C7050900BE050900B5050800B4
:100C0000AD050800A50509009C050800940508002D
:100C10008C050800840508007C05080074050800A0
:100C20006C050700650508005D050700560508000E
:100C30004E05070047050700400508003805070076
:100C4000310507002A050700230507001C050600DB
:100C5000160507000F050700080506000205070036
:100C6000FB040600F5040700EE040600E804060095
:100C7000E2040700DB040600D5040600CF040600EA
:100C8000C9040600C3040600BD040600B70406003C
:100C9000B1040500AC040600A6040600A00405008B
:100CA0009B04060095040500900406008A040500D4
:100CB00085040500800406007A040500750405001B
:100CC000700405006B04050066040500610405005E
:100CD0005C04050057040500520405004D0405009E
:100CE00048040500430405003E0404003A040500DE
:100CF00035040500300404002C040500270404001A
:100D0000230405001E0404001A0404001604050050
:100D1000110404000D040400090405000404040087
:100D200000040400FC030400F8030400F4030400BE
:100D3000F0030400EC030400E8030400E4030400EF
:100D4000E0030400DC030400D8030400D40304001F
:100D5000D0030400CC030400C8030300C503030050
:100D600024F404D9201BC40C5C0E9804C4095F024F
:100D700065077101F405F900FB04B300480487001E
:100D8000C10369005803550003034500BE023A0041
:100D90008402310053022A002902250004022000A7
:100DA000E4011C00C8011900AF01170098011400EC
:100DB00084011300710110006101100051010E0047
:100DC00043010D0036010B002B010B0020010B002D
:100DD000150109000C01090003010800FB000800CF
:100DE000F3000800EB000700E4000600DE00060048
:100DF000D8000600D2000600CC000500C7000500A0
:100E0000C2000500BD000400B9000400B5000400E4
:100E1000B1000400AD000400A9000400A500030017
:100E2000A20003009F0004009B0003009800030041
:100E30009500020093000300900003008D00020063
:100E40008B0003008800020086000200840003007B
:100E5000810002007F0002007D0002007B00020092
:100E600079000200770001007600020074000200A1
:100E700072000100710002006F0002006D000100AD
:100E80006C0002006A0001006900020067000100B6
:100E900066000100650001006400020062000100BC
:100EA00061000100600001005F0002005D000100C0
:100EB0005C0001005B0001005A00010059000100C4
:100EC00058000100570001005600010055000100C4
:100ED00054000100530000005300010052000100C3
:100EE00051000100500001004F0001004E000000C1
:100EF0004E0001004D0001004C0001004B000000BD
:100F00004B0001004A0001004900010048000000B8
:100F100048000100470001004600000046000100B3
:100F200045000000450001004400010043000000AE
:100F300043000100420000004200010041000000A7
:100F400041000100400001003F0000003F0001009F
:100F50003E0000003E0001003D0000003D00010099
:100F60003C0000003C0000003C0001003B00000091
:100F70003B0001003A0000003A0001003900000087
:100F8000390001003800000038000000380001007E
:100F90003700000037000100360000003600000076
:100FA000360001003500000035000000350001006A
:100FB0003400000034000000340001003300000061
:100FC0003300000033000100320000003200000056
:100FD000320001003100000031000000310001004A
:100FE0003000000030000000300001002F00000041
:100FF0002F0000002F0000002F0001002E00000035
:101000002E0000002E0001002D0000002D00000029
:101010002D0000002D0001002C0000002C0000001D
:101020002C0000002C0001002B0000002B00000011
:101030002B0000002B0001002A0000002A00000005
:101040002A0000002A0001002900000029000000F9
:1010500029000000290000002900010028000000EC
:1010600028000000280000002800000028000100DF
:1010700027000000270000002700000027000000D4
:1010800027000100260000002600000026000000C6
:1010900026000000260001002500000025000000B9
:1010A00025000000250000002500000025000100AB
:1010B00024000000240000002400000024000000A0
:1010C0002400010023000000230000002300000092
:1010D0002300000023000000230000002300010083
:1010E0002200000022000000220000002200000078
:1010F0002200000022000100210000002100000069
:10110000210000002100000021000000210000005B
:10111000210001002000000020000000200000004D
:10112000200000002000000020000000200000003F
:10113000200001001F0000001F0000001F00000031
:101140001F0000001F0000001F0000001F00010022
:101150001E0000001E0000001E0000001E00000017
:10116000043700001E290000511B00005810000029
:1011700010090000CC0400007802000041010000CA
:1011800000060900FE0701920321207FFF07FF07E9
:10119000FF000000060000010707060200808080B3
:1011A00080800080030202060105A0A00507070653
:1011B00000005050F850F850500507070600002076
:1011C00078A07028F020050707060000C0C810208E
:1011D0004098180507070600006090A040A8906896
:1011E000020303060104C040800307070601002034
:1011F00040808080402003070706010080402020B7
:1012000020408005050506000120A870A8200505DE
:10121000050600012020F820200203030602FFC07B
:101220004080050101060003F8020202060200C028
:10123000C0050505060001081020408005070706C7
:1012400000007088888888887003070706010040BE
:10125000C040404040E00507070600007088087065
:101260008080F8050707060000F81020100808F035
:1012700005070706000010305090F810100507070A
:10128000060000F880F008088870050707060000CF
:10129000708080F0888870050707060000F8081045
:1012A00020202020050707060000708888708888A5
:1012B0007005070706000070888878080870020526
:1012C00005060200C0C000C0C00206060602FFC03C
:1012D000C000C04080040707060000102040804086
:1012E0002010050303060002F800F80407070601B2
:1012F000008040201020408005070706000070880D
:10130000081020002005070706000070880868A85C
:10131000A870050707060000708888F88888880587
:101320000707060000F08888F08888F005070706A0
:10133000000070888080808870050707060000F034
:101340008888888888F0050707060000F88080F004
:101350008080F8050707060000F88080F080808014
:10136000050707060000708880B8888870050707A1
:10137000060000888888F888888801070706020028
:10138000808080808080800507070600003810106C
:10139000101090600507070600008890A0C0A0907C
:1013A00088050707060000808080808080F8050798
:1013B0000706000088D8A8888888880507070600DF
:1013C000008888C8A89888880507070600007088E4
:1013D0008888888870050707060000F08888F080F4
:1013E000808005070706000070888888A890680537
:1013F0000707060000F08888F0A090880507070618
:101400000000788080700808F0050707060000F8E3
:1014100020202020202005070706000088888888D3
:10142000888870050707060000888888888850200B
:101430000507070600008888888888A850050707E0
:10144000060000888850205088880507070600009D
:1014500088888850202020050707060000F808101B
:10146000204080F8030707060100E080808080802C
:10147000E005050506000180402010080307070667
:101480000100E02020202020E005030306000420C6
:101490005088050101060000F802020206020580DC
:1014A00040050505060000700878887805070706DE
:1014B00000008080B0C88888F0050505060000702F
:1014C00080808870050707060000080868988888EB
:1014D000780505050600007088F880700507070686
:1014E00000003048E0404040400506060600FF701E
:1014F00088887808700507070600008080B0C888D3
:1015000088880107070602008000808080808003B1
:1015100008080601FF200020202020A04004070723
:10152000060000808090A0C0A0900307070601007D
:10153000C04040404040E0050505060000D0A8A896
:10154000A8A8050505060000B0C888888805050517
:1015500006000070888888700506060600FFF0887F
:1015600088F080800506060600FF788888780808DD
:10157000050505060000B0C8808080050505060049
:101580000070807008F00407070600004040E0404B
:1015900040403005050506000088888898680505E4
:1015A000050600008888885020050505060000888B
:1015B00088A8A85005050506000088502050880519
:1015C00006060600FF88888878087005050506006D
:1015D00000F8102040F80307070601002040408073
:1015E00040402001070706020080808080808080C4
:1015F00003070706010080404020404080050202AA
:101600000600026890000000060000202020202034
:1016100020005A00590020202020005800092000F6
:101620000000000000000000000000003FFFF0008C
:101630000000000000000000000000380070000002
:101640000000000000000000000030FC300000003E
:1016500000000000000000000020FC10000000005E
:1016600000000000000000002078100000000000D2
:10167000000000000000002030100000000000000A
:101680000000000000002C00D03FC000000000005F
:1016900000002082002E31D07FE00000000000001A
:1016A000001041002F7BD07FE00000000000000010
:1016B0001041002F7BD07FE00000000000000020E0
:1016C00082002E31D03FC000000000000000410425
:1016D000002C00D03FC00000000000000082080085
:1016E0002030107FE0000000000000008208002091
:1016F00078107FE00000000000000041040020FCA2
:10170000107FE00000000000000020820030FC306C
:101710001F80000000000000000000003800700F73
:101720000000000000000000FFFFC03FFFF00600C7
:1017300000000000000000FFFFC0000000000000EB
:101740000000000000000000003FFFF0000000006B
:1017500000000000000000003800700000000000E1
:101760000000000000000031863000000000000092
:1017700000000000000023871000000000000000AF
:10178000000000000027879000000000000000001B
:10179000000000002F87D0000000000000000000C3
:1017A0000000002F03D03FC0000000000000002018
:1017B00082002030107FE000000000000000104197
:1017C000002078107FE000000000000000104100C1
:1017D0002078107FE0000000000000002082002040
:1017E00030103FC0000000000000004104002F0343
:1017F000D03FC0000000000000008208002F87D00A
:101800007FE0000000000000008208002787907F32
:10181000E0000000000000004104002387107FE08A
:10182000000000000000002082003186301F800090
:101830000000000000000000003800700F000000F1
:101840000000000000FFFFC03FFFF00600000000A6
:1018500000000000FFFFC000000054415A20526504
:101860006164792E005072696E74696E672E2E2E37
:10187000005072696E742070617573656400436F07
:101880006E74726F6C005072657061726500547591
:101890006E6500496E666F2073637265656E004603
:1018A0006C6F7700466C6F7700466C6F770046610F
:1018B0006E20737065656420320046616E2073701F
:1018C00065656420320046616E2073706565642032
:1018D000320046616E207370656564203100466198
:1018E0006E20737065656420310046616E207370F0
:1018F00065656420310042656400426564004265AC
:1019000064004E6F7A7A6C65004E6F7A7A6C65006F
:101910004E6F7A7A6C65005370656564005370652C
:101920006564005370656564004D61696E004861CF
:101930007264636F6465642044656661756C7420CD
:1019400053657474696E6773204C6F616465640AD3
:101950000028230000282300006400000010270056
:1019600000000048440000484400000041000048D6
:10197000420000C9420000C9420000C84300805430
:10198000443A0A0020286D6D290020204D38353159
:10199000205A005A2D50726F6265204F666673653B
:1019A000740020440020490020204D333034205062
:1019B0000020440020490020204D333031205000C9
:1019C0005049442073657474696E67733A0A002045
:1019D000460020420020480020204D31343520535D
:1019E000004D6174657269616C2068656174757021
:1019F00020706172616D65746572733A0A00205AD5
:101A00000020590020204D323036205800486F6D9C
:101A100065206F66667365743A0A00204500205A97
:101A20000020590020580020540020530020204D51
:101A300032303520510020453C6D61785F655F6A2A
:101A400065726B3E0020583C6D61785F785F6A6517
:101A5000726B3E20593C6D61785F795F6A65726B8D
:101A60003E205A3C6D61785F7A5F6A65726B3E001A
:101A7000416476616E6365643A20513C6D696E5FC6
:101A80007365676D656E745F74696D655F75733ED0
:101A900020533C6D696E5F66656564726174653E76
:101AA00020543C6D696E5F74726176656C5F66652B
:101AB0006564726174653E0020540020520020204D
:101AC0004D323034205000416363656C657261743F
:101AD000696F6E2028756E6974732F7332293A20EE
:101AE000503C7072696E745F616363656C3E205236
:101AF0003C726574726163745F616363656C3E2000
:101B0000543C74726176656C5F616363656C3E0A18
:101B100000204500205A0020590020204D3230314D
:101B20002058004D6178696D756D20416363656C67
:101B300065726174696F6E2028756E6974732F7396
:101B400032293A0A00204500205A0020590020205E
:101B50004D3230332058004D6178696D756D2066C7
:101B600065656472617465732028756E6974732F7E
:101B700073293A0A00204500205A002059002020ED
:101B80004D3932205800537465707320706572208F
:101B9000756E69743A0A0020204D3230302044308E
:101BA0000A0020204D323030204400204469736107
:101BB000626C65640A0046696C616D656E742073C1
:101BC000657474696E67733A0020204D3134392092
:101BD00043203B20556E69747320696E2043656C09
:101BE000736975730A002020473231202020203B82
:101BF00000486F6D696E67206661696C65640054AA
:101C00005249474745524544006F70656E003A207F
:101C1000007A5F6D696E00795F6D696E00785F6D47
:101C2000696E005265706F7274696E6720656E64CC
:101C300073746F70207374617475730A00457874DF
:101C40007275646572004D6F7665205A004D6F762F
:101C5000652059004D6F766520580050726570619F
:101C6000726500496E697469616C697A65204545E1
:101C700050524F4D00436F6E74726F6C005265731B
:101C8000746F7265206661696C73616665004C6F84
:101C900061642073657474696E677300496E69745A
:101CA00069616C697A6520454550524F4D00537407
:101CB0006F72652073657474696E67730046696C32
:101CC000616D656E74004D6F74696F6E0054656D63
:101CD0007065726174757265004D61696E00507255
:101CE00065686561742041425320636F6E660050E1
:101CF00072656865617420504C4120636F6E6600A8
:101D00005049442D44005049442D44005049442D2D
:101D100049005049442D49005049442D5000504934
:101D2000442D50002008204661637400200820469E
:101D3000616374002008204D6178002008204D6107
:101D400078002008204D6178002008204D696E0041
:101D50002008204D696E002008204D696E004F66F6
:101D600066004F6E20004175746F74656D7000469B
:101D7000616E20737065656420320046616E207369
:101D80007065656420320046616E2073706565641D
:101D900020320046616E2073706565642031004614
:101DA000616E20737065656420310046616E20733A
:101DB00070656564203100426564004265640042DC
:101DC0006564004E6F7A7A6C65004E6F7A7A6C6546
:101DD000004E6F7A7A6C6500436F6E74726F6C00A0
:101DE00053746F72652073657474696E6773004213
:101DF00065640042656400426564004E6F7A7A6CE7
:101E000065004E6F7A7A6C65004E6F7A7A6C650069
:101E100046616E2073706565640046616E20737064
:101E20006565640046616E20737065656400546585
:101E30006D706572617475726500565472617620BA
:101E40006D696E005654726176206D696E0056544D
:101E5000726176206D696E00566D696E00566D690F
:101E60006E00566D696E00566D6178204500566DA6
:101E70006178204500566D6178204500566D617887
:101E8000205A00566D6178205A00566D6178205AAC
:101E900000566D6178205900566D617820590056C2
:101EA0006D6178205900566D6178205800566D613B
:101EB00078205800566D61782058004D6F74696F16
:101EC0006E00416D6178204500416D6178204500CC
:101ED000416D6178205A00416D6178205A00416D52
:101EE0006178205900416D6178205900416D617819
:101EF000205800416D6178205800412D7472617640
:101F0000656C00412D74726176656C00412D7265BF
:101F1000747261637400412D726574726163740040
:101F2000416363656C00416363656C004D6F746968
:101F30006F6E0056652D6A65726B0056652D6A6579
:101F4000726B0056652D6A65726B00567A2D6A6554
:101F5000726B00567A2D6A65726B0056792D6A6530
:101F6000726B0056792D6A65726B0056792D6A6521
:101F7000726B0056782D6A65726B0056782D6A6513
:101F8000726B0056782D6A65726B004D6F74696FC5
:101F90006E004573746570732F6D6D0045737465C5
:101FA00070732F6D6D005A73746570732F6D6D00B3
:101FB0005A73746570732F6D6D0059737465707307
:101FC0002F6D6D005973746570732F6D6D005873AC
:101FD000746570732F6D6D005873746570732F6D19
:101FE0006D004D6F74696F6E006265640A002C208D
:101FF00073797374656D2073746F707065642120DC
:102000004865617465725F49443A20004265642006
:1020100068656174696E67206661696C6564004813
:10202000656174696E67206661696C65640045313D
:102030002048656174696E67206661696C6564003B
:1020400048656174696E67206661696C656400103B
:1020500000AD0330016A0150022B0170030A0190A8
:1020600004F500B005E500D006D800F007CE00105A
:1020700009C500300ABE00500BB700700CB10090CB
:102080000DAB00B00EA600D00FA200F0109D001006
:10209000129900301395005014920070158E009024
:1020A000168B00B0178700D0188400F0198100103B
:1020B0001B7E00301C7B00501D7900701E76009046
:1020C0001F7300B0207000D0216E00F0226B001052
:1020D0002469003025660050266300702761009057
:1020E000285E00B0295C00D02A5900F02B56001061
:1020F0002D5400302E5100502F4E0070304B009068
:10210000314800B0324500D0334200F0343E001078
:10211000363B00303737005038330070392E00908E
:102120003A2900B03B2300D03C1B00F03D110010C9
:102130003F0100F03F0000453120544845524D41D9
:102140004C2052554E415741590042454420544875
:1021500045524D414C2052554E415741590054680B
:1021600065726D616C2052756E61776179004531E1
:10217000204572723A204D415854454D50004572E9
:10218000723A204D415854454D5020424544004D2F
:10219000415854454D502074726967676572656493
:1021A000004531204572723A204D494E54454D50FC
:1021B000004572723A204D494E54454D50204245DB
:1021C00044004D494E54454D50207472696767650F
:1021D00072656400202F002042403A0020403A00FF
:1021E000205A3A0020593A0020436F756E742058E7
:1021F0003A0020453A00205A3A0020593A00583A0D
:10220000003A004361703A00205A002059005800FB
:1022100020204D61783A2000205A002059005800B3
:1022200020204D696E3A20004F6E20004F666600F8
:10223000536F667420656E6473746F70733A200018
:10224000486F6D6520257325732573206669727349
:1022500074002066697273740A005A0059005800AD
:10226000486F6D6520004F666673657473206170FA
:10227000706C696564004572723A20546F6F206615
:1022800061722100546F6F206661722066726F6DFB
:10229000207265666572656E636520706F696E7425
:1022A0000A00526573656E643A200020746F6F20D7
:1022B0006C6F6E6720657874727573696F6E2070CD
:1022C000726576656E7465640A0020636F6C6420C5
:1022D000657874727573696F6E2070726576656E5D
:1022E0007465640A00627573793A2070617573656C
:1022F0006420666F7220696E7075740A006275736F
:10230000793A2070617573656420666F7220757309
:1023100065720A00627573793A2070726F63657333
:1023200073696E670A004B494C4C45442E20004BA4
:10233000494C4C20636175736564206279204B4978
:102340004C4C20627574746F6E2F70696E0A004B6E
:10235000494C4C45442E20004B494C4C2063617540
:1023600073656420627920746F6F206D75636820D7
:10237000696E6163746976652074696D65202D20CE
:1023800063757272656E7420636F6D6D616E643A11
:102390002000454550524F4D206461746173697A45
:1023A00065206572726F722E0A00290A0020627918
:1023B0007465733B20637263200053657474696EA7
:1023C00067732053746F726564202800290A002007
:1023D00062797465733B2063726320002073746FAD
:1023E0007265642073657474696E677320726574B6
:1023F000726965766564202800202863616C6375C6
:102400006C6174656429210A0020213D2000454546
:1024100050524F4D20435243206D69736D61746378
:1024200068202D202873746F726564292000205362
:10243000697A653A2000496E6465783A2000204D3B
:1024400061726C696E3D563535290A002845455044
:10245000524F4D3D00454550524F4D2076657273A9
:10246000696F6E206D69736D617463682000506CD4
:1024700065617365207265736574005052494E54EE
:1024800045522048414C544544005072696E746571
:10249000722068616C7465642E206B696C6C2829ED
:1024A0002063616C6C6564210A001FFFFFFFFFFF62
:1024B000FF600000000001FF400000000000FF80FE
:1024C00000000000007F83CF00000C303F87FF80BA
:1024D000000C301F867980000C000F8C30C7838C75
:1024E00030E78C30CFC7CC31F38C30DCECEC33B937
:1024F0008C30D86C6C33198C30D06C0C33198C3018
:10250000D86C0C33198C30DC6C0E3B198C30CF7CC2
:10251000079F198C30C77C038F1940000000000012
:1025200002600000000000061FFFFFFFFFFFF82011
:1025300020506C616E6E6572427566666572427996
:102540007465733A20002046726565204D656D6F95
:1025500072793A2000436F6D70696C65643A20446B
:10256000656320313620323031380A00207C20412A
:102570007574686F723A2028416C657068204F62EC
:102580006A6563747320496E632C2054415A290A8A
:1025900000323031382D30372D333100204C61730B
:1025A0007420557064617465643A200062756766D2
:1025B00069782D312E312E780A004D61726C696E6A
:1025C0000020536F6674776172652052657365747D
:1025D0000A00205761746368646F672052657365F1
:1025E000740A002042726F776E206F7574205265F6
:1025F0007365740A002045787465726E616C2052B0
:10260000657365740A00506F77657255700A0073C0
:10261000746172740A0000000000000000000000F5
:102620000000000048420000484200000041000055
:1026300000005761726E696E673A20486F6D696E6F
:10264000672042756D702044697669736F72203C13
:1026500020310A000202040000A0400000A0400057
:10266000008040000095430080894300007A43FFCA
:10267000FFFF4572726F722077726974696E67200E
:10268000746F20454550524F4D210A0020746F6FE2
:10269000206C6F6E6720657874727573696F6E2039
:1026A00070726576656E7465640A0020636F6C6491
:1026B00020657874727573696F6E207072657665C7
:1026C0006E7465640A006563686F3A0050726568ED
:1026D00065617420504C4120456E640050726568FD
:1026E00065617420504C41204265640050726568F9
:1026F00065617420504C41005072657061726500D4
:10270000507265686561742041425320456E6400D3
:1027100050726568656174204142532042656400CF
:102720005072656865617420414253005072657053
:10273000617265004D343238004D3830005377698E
:1027400074636820706F776572206F6666004D381D
:1027500031005072656865617420414253005072C7
:10276000656865617420504C4100436F6F6C646F05
:10277000776E0053776974636820706F7765722095
:102780006F6E0044697361626C652073746570706C
:10279000657273004D38340053657420686F6D6541
:1027A000206F666673657473004175746F20686F7F
:1027B0006D6500473238004D6F766520617869732A
:1027C000004D61696E004D6F76652058004D6F7643
:1027D000652059004D6F7665205A004578747275F2
:1027E000646572004D6F766520302E316D6D004D41
:1027F0006F766520316D6D004D6F76652031306DDF
:102800006D004D6F7665206178697300457874724C
:1028100075646572004D6F7665205A004D6F766560
:102820002059004D6F766520580053746570732FE2
:102830006D6D004A65726B00416363656C65726122
:1028400074696F6E0056656C6F63697479005072BD
:102850006F6265205A204F66667365740050726F10
:102860006265205A204F666673657400436F6E740C
:10287000726F6C0046696C2E204469612E004669B7
:102880006C2E204469612E004F6666004F6E20005A
:102890004520696E206D6D3300436F6E74726F6CEE
:1028A000004D6963726F737465707320756E617625
:1028B00061696C61626C650A0045313A20004530FF
:1028C0003A20005A3A2000593A2000583A20004D48
:1028D00053312C4D53322050696E730A004B6420E3
:1028E0000023646566696E652044454641554C5435
:1028F0005F004B69200023646566696E652044456E
:102900004641554C545F004B702000236465666956
:102910006E652044454641554C545F005049442063
:102920004175746F74756E652066696E697368654C
:1029300064212050757420746865206C6173742064
:102940004B702C204B6920616E64204B6420636FB8
:102950006E7374616E74732066726F6D2062656C45
:102960006F7720696E746F20436F6E66696775724A
:102970006174696F6E2E680A005049442041757475
:102980006F74756E65206661696C65642120746979
:102990006D656F75740A00453120544845524D41AC
:1029A0004C2052554E41574159004245442054480D
:1029B00045524D414C2052554E41574159005468A3
:1029C00065726D616C2052756E6177617900453179
:1029D0002048656174696E67206661696C65640092
:1029E0004265642068656174696E67206661696C20
:1029F00065640048656174696E67206661696C652D
:102A00006400504944204175746F74756E6520668A
:102A100061696C6564212054656D706572617475BF
:102A2000726520746F6F20686967680A00204B64C4
:102A30003A2000204B693A2000204B703A20000ACF
:102A400020436C617373696320504944200A00205D
:102A500054753A2000204B753A2000206D61783A79
:102A60002000206D696E3A200020643A2000206228
:102A70006961733A2000504944204175746F747540
:102A80006E65206661696C65642120426164206521
:102A900078747275646572206E756D6265720A0075
:102AA000504944204175746F74756E65207374616C
:102AB00072740A0000060900FE000000000001090F
:102AC0000008FE000005080806000040F0C88888DD
:102AD000987810050808060000C0F888888888885B
:102AE000F80505050600012030F830200508080625
:102AF00000002070F820202020E00509090600FFD2
:102B00002070A8A8B8888870200509090600FFE091
:102B100080C0B0A8283028280509090600FFF8A8B9
:102B20008888888888A8F8050A0A0600FE20505080
:102B3000505088A8A8887003030306000340A040F3
:102B4000556E6B6E6F776E20636F6D6D616E643A5C
:102B500020220000000A0B02090C0D0E08070304D6
:102B60000100000000000000000000000000000064
:102B70000000000000000000000000000000001243
:102B80001110000000000000000000000000000024
:102B900000000000000000000050726F62696E6764
:102BA000206661696C65640A0050726F62696E67C5
:102BB000206661696C656400205A3A200020593A09
:102BC000200042656420583A2000000021002400C3
:102BD00027002A002D00300033000101000004010D
:102BE00007010A0100002200250028002B002E000A
:102BF0003100340002010000050108010B01000052
:102C000020002300260029002C002F0032000001A4
:102C1000000003010601090105050505070508086F
:102C20000808020202020A0A080804040404010156
:102C3000010101010101030303030303030304076B
:102C400007070C0C0C0C0C0C0C0C02020202060602
:102C50000606060606060B0B0B0B0B0B0B0B0102F5
:102C6000102020080810204010204080020102019E
:102C70000804020101020408102040808040201056
:102C800008040201800402018040201008040201AF
:102C90000804020101020408102040800102040817
:102CA000102040804572726F723A0000BEC8112435
:102CB0001FBECFEFD1E2DEBFCDBF00E00CBF13E0FF
:102CC000A0E0B2E0E2EBFAEA01E00BBF02C007903D
:102CD0000D92AE34B107D9F72FE0AEE4B3E001C0F6
:102CE0001D92AD33B207E1F716E1C7E5D6E100E08A
:102CF00006C021970109802FFE010E94D8D1C63558
:102D0000D10780E00807A9F70E94C0B10C9457D5FD
:102D10000C9400008091690790916A07981759F008
:102D2000E92FF0E0E751F94F80819F5F9F77909303
:102D30006A0790E008958FEF9FEF08950F931F9318
:102D4000CF93DF93EC010E946AB10E811F81288529
:102D50003985011511052105310559F52C852223E9
:102D6000A9F13A8521502C8721E0230F2A874D8530
:102D7000241301C01A86FE0124E0329FE00DF11DEC
:102D8000112406851785208931890A831B832C83AA
:102D90003D83DC01CB01800F911FA11DB11D8E83EE
:102DA0009F83A887B9878C819D81892B79F0769A3A
:102DB0000DC0DC01CB01801B910BA20BB30BB7FD47
:102DC00005C076981E821F8218861986DF91CF91E2
:102DD0001F910F910895CF92DF92EF920F931F935F
:102DE000CF93DF9300D01F92CDB7DEB7E090340DC4
:102DF00019821A821B821C82CE0101966C010EE49C
:102E000012E02FE53DE04BE55DE067E57DE083E521
:102E10009DE00E94DA7C0F900F900F900F90DF9151
:102E2000CF911F910F91EF90DF90CF900895FF9277
:102E30000F931F93CF93DF93FC0120812B3319F164
:102E4000D0916F05D430F8F4F62EBC01C09178050E
:102E50000C2F10E0F0E6CF9FC001112482519C4F4F
:102E60000E9428D5F801EC51FC4FF082CF5FC430AE
:102E700018F4C093780502C010927805DF5FD093F4
:102E80006F0581E001C080E0DF91CF911F910F912C
:102E9000FF9008958091E0059091E105A091E205F1
:102EA000B091E30580934E0290934F02A09350029D
:102EB000B09351028091DE059091DF0590934D0211
:102EC00080934C02089580914E0290914F02A09100
:102ED0005002B09151028093E0059093E105A093D8
:102EE000E205B093E30580914C0290914D029093DE
:102EF000DF058093DE0584E690E090934D02809399
:102F00004C0208952F923F924F925F926F927F9260
:102F10008F929F92AF92BF92CF92DF92EF92FF92E9
:102F20000F931F93CF93DF93CDB7DEB72A970FB6DA
:102F3000F894DEBF0FBECDBF2B013C012D833E8335
:102F40004F83588747015801DA86C98680914E021F
:102F500090914F02A0915002B091510289839A83BF
:102F6000AB83BC83D6011C9111960C9111971296DC
:102F70003C90129713962C9020E030E0A901612F2D
:102F8000702F832D922D0E944ECD81110AC0EAE24E
:102F9000F6E285919591A591B491182F092F3A2EBB
:102FA0002B2EA501940160915B0D70915C0D8091B9
:102FB0005D0D90915E0D0E944ECD87FF16C0812F52
:102FC000902FA32DB22D80934E0290934F02A09389
:102FD0005002B093510280925B0D90925C0DA092D2
:102FE0005D0DB0925E0D0E94EB16E985FA85C080FA
:102FF000D180E280F38020E030E0A901C701B60172
:103000000E944ECD811107C085E5C82EDC2C85E0DD
:10301000E82E83E4F82EC0924E02D0924F02E09246
:103020005002F09251024092530D5092540D609212
:10303000550D7092560D8D819E81AF81B88580931C
:10304000570D9093580DA093590DB0935A0D0E94AF
:10305000EB1620915B0D30915C0D40915D0D509110
:103060005E0DC501B4010E944ECD87FF16C0812FB1
:10307000902FA32DB22D80934E0290934F02A093D8
:103080005002B093510280925B0D90925C0DA09221
:103090005D0DB0925E0D0E94EB160E942F2C89816F
:1030A0009A81AB81BC8180934E0290934F02A09392
:1030B0005002B09351022A960FB6F894DEBF0FBEAD
:1030C000CDBFDF91CF911F910F91FF90EF90DF90D7
:1030D000CF90BF90AF909F908F907F906F905F90B8
:1030E0004F903F902F900895CF92DF92EF92FF92F2
:1030F0000F931F936B01FC01E080F180028113812B
:10310000E3E5FDE02481358146815781608171814D
:10311000828193810E9482171F910F91FF90EF90FF
:10312000DF90CF900895BF92CF92DF92EF92FF92FF
:103130000F931F93CF93DF93CDB7DEB728970FB6CA
:10314000F894DEBF0FBECDBF90918906981709F4A1
:103150007BC0B82E882309F454C080E090E0A0E73B
:10316000B1E48D839E83AF83B887C0904F0DD0901C
:10317000500DE090510DF090520D20E030E0A9018B
:10318000C701B6010E944ECD87FF0CC0A701960172
:1031900060E070E080E791E40E94E8D16D837E8377
:1031A0008F83988720E030E04AE753E46D817E8189
:1031B0008F8198850E9449D4181644F480E090E0ED
:1031C000AAE7B3E48D839E83AF83B8872D813E81C8
:1031D0004F81588560915B0D70915C0D80915D0D04
:1031E00090915E0D0E944ECD87FF0BC019821A820E
:1031F0001B821C82BE016F5F7F4FCE0105960E942D
:1032000074186091530D7091540D8091550D9091EB
:10321000560D2091570D3091580D4091590D5091F8
:103220005A0D19821A821B821C82E0905B0DF0906D
:103230005C0D00915D0D10915E0DFE0131966F01E8
:103240000E948217B092890680E028960FB6F89403
:10325000DEBF0FBECDBFDF91CF911F910F91FF90C9
:10326000EF90DF90CF90BF9008950F931F93CF936F
:10327000DF9394E0899FE00111248E010D5B124FD2
:10328000FE01E654FC4FDE01A458BC4F2D913D9148
:103290004D915C9160817181828193810E94E9D11D
:1032A000F8016083718382839383FE01E950F74FB5
:1032B00085919591A591B491FE01E850F34F8083DB
:1032C0009183A283B383FE01ED5FF64F85919591C3
:1032D000A591B491CF5CDD4F88839983AA83BB838A
:1032E000DF91CF911F910F9108952FE53DE04BE5C0
:1032F0005DE067E57DE083E59DE00C943F2C2F9237
:103300003F924F925F926F927F928F929F92AF9275
:10331000BF92CF92DF92EF92FF920F931F93CF93C2
:10332000DF93CDB7DEB72C970FB6F894DEBF0FBE94
:10333000CDBF1092570D1092580D1092590D10924A
:103340005A0D1092530D1092540D1092550D10926B
:10335000560D0E947519EFE6F6E22490E3E6F6E2D8
:1033600085919591A591B49189879A87AB87BC8700
:10337000E7E6F6E285909590A590B4909C01AD01AA
:10338000C501B4010E944ECD87FF07C029853A854B
:103390004B855C85C501B40106C0A5019401698512
:1033A0007A858B859C850E94E3D22B013C01E6E265
:1033B000F6E285919591A591B4918D839E83AF831B
:1033C000B887E2E2F6E2C590D590E590F4909C01D2
:1033D000AD01C701B6010E944ECD87FD05C01D811C
:1033E0000E813F80F88403C01C2D0D2D3E2CA301BF
:1033F0009201C301B2010E94B4CD20E030E040E868
:103400005FE30E94E9D10E9497D4212F302F432DF2
:103410005F2D0E94B4CD69837A838B839C83E0E720
:10342000F6E2149140905B0D50905C0D60905D0D44
:1034300070905E0D20E030E040EC5FE3C501B40128
:103440000E94B4CD6B017C01612F110F770B880BAB
:10345000990B0E9455CD9B01AC01C701B6010E949A
:10346000B4CD4B015C0120E030E040EC5FE36985C6
:103470007A858B859C850E94B4CD6B017C01622D81
:10348000220C770B880B990B0E9455CD9B01AC0148
:10349000C701B6010E94B4CDDE0111966D01830112
:1034A0007201A50194010E9482170E940C431092A0
:1034B000570D1092580D1092590D10925A0D1092EE
:1034C000530D1092540D1092550D1092560D2C96CE
:1034D0000FB6F894DEBF0FBECDBFDF91CF911F9125
:1034E0000F91FF90EF90DF90CF90BF90AF909F90A3
:1034F0008F907F906F905F904F903F902F900895A6
:103500002F923F924F925F926F927F929F92AF92D3
:10351000BF92CF92DF92EF92FF920F931F93CF93C0
:10352000DF93CDB7DEB728970FB6F894DEBF0FBE96
:10353000CDBF1A012B01922EF32EC82ED12CF601ED
:10354000E159F94DE491AA24A3941E160CF4A12C80
:10355000BB24B39420E030E0A901C201B1010E9474
:1035600049D418160CF0B12CCC0CDD1CCC0CDD1C95
:10357000C6018D5A924F3C01FC01108211821282C9
:1035800013820E947519F301208231824282538294
:10359000E090340D20E030E0A901B801892D9F2D85
:1035A0000E944ECD81110AC0F601EE5DF94D859164
:1035B0009591A591B4918C019A2EFB2EC801A92D4D
:1035C000BF2D8D839E83AF83B88719821A821B8299
:1035D0001C82CE0101966C018E010B5F1F4F2FE5FF
:1035E0003DE04BE55DE067E57DE083E59DE00E9421
:1035F000DA7C0E942F2CAB100E940C4328960FB649
:10360000F894DEBF0FBECDBFDF91CF911F910F9118
:10361000FF90EF90DF90CF90BF90AF909F907F9002
:103620006F905F904F903F902F9008958091760516
:1036300090917705009731F04AE050E060E070E04B
:103640000C9486CB60E070E0CB0108958091760504
:1036500090917705009731F04AE050E060E070E02B
:103660000C9458CA60E070E0CB0108950E94261BBC
:1036700097FD0CC00E94261B6F3F710581059105C7
:1036800009F034F40E94261B862F089580E00895E7
:103690008FEF08958091760590917705892B39F009
:1036A0000E94361B91E0811103C090E001C091E0BF
:1036B000892F08950F931F93CF9380917605909152
:1036C00077050097F1F0FC018F01C1912C2F2F7D20
:1036D00089F0C53411F0C536B9F7F801108260E001
:1036E00070E00E94FCC8F801C083562F472F382F86
:1036F000292F0BC060E070E0CF911F910F910C94C7
:10370000FCC850E040E030E020E0652F742F832FAC
:10371000922FCF911F910F91089581548A3108F013
:1037200042C0E82FF0E04091680350916903609136
:103730006A0370916B0304C076956795579547951A
:103740008A95D2F7842F817040FF2FC0E25BFC4F37
:103750009081992309F1E091220DF091230DE90F59
:10376000F11D908120ED290F2A3098F09E3211F43E
:1037700091810CC09D3211F09B3271F4918120ED4A
:10378000290F2A3030F09E3239F4928190539A30CA
:1037900018F42E2F9F2F02C020E090E02093760592
:1037A00090937705089580E0089508950E948D1BF9
:1037B000882341F081E02091760530917705232B15
:1037C00009F480E008959F92AF92BF92CF92DF926A
:1037D000EF92FF920F931F93CF93DF9384E5A82E70
:1037E00082E0B82E04E21DE0C3E5DDE093E4C92EDB
:1037F0009DE0D92E28EEE22E23E0F22E912CF50149
:1038000081915F010E948D1B882309F10E945A1B40
:10381000F7012081211104C02091EC03222339F00B
:10382000288139814A815B810E94E9D10AC0F3E095
:103830009F1639F0F60120813181428153810E9427
:10384000E8D1F801608371838283938309C0888102
:103850009981AA81BB81F80180839183A283B3837C
:1038600093940C5F1F4F2496F4E0CF0ED11C2FEFE2
:10387000E21AF20A84E09812C2CF86E40E94D61BB4
:103880008823C9F00E945A1B20E030E0A9010E9461
:1038900049D4181684F40E945A1B20E030E040E717
:1038A00052E40E94E3D260934E0270934F028093E1
:1038B000500290935102DF91CF911F910F91FF9091
:1038C000EF90DF90CF90BF90AF909F900895909130
:1038D000C00095FFFCCF8093C60008952F923F92C1
:1038E0004F925F926F927F928F929F92AF92BF9210
:1038F000CF92DF92EF92FF920F931F93CF93DF93BC
:10390000CDB7DEB72A970FB6F894DEBF0FBECDBF96
:103910008091DE0C83FD4AC183E50E94D61B8C8317
:10392000811106C082E50E94D61B882309F43EC19E
:103930000E945A1B0E9455D3663971050CF033C1A1
:1039400070937D0E60937C0E0E94CF5B0E945A1B89
:1039500020E030E040EA50E40E9449D4181614F404
:103960000E940C9F60917C0E70917D0E072E000CC2
:10397000880B990B0E9455CD9B01AC0160914A06C2
:1039800070914B0680914C0690914D060E944ECD51
:1039900087FD03C082E499E002C081E599E060E020
:1039A0000E944C3481E0809309028091340D809311
:1039B000D603812C912C5401412C512C3201212C05
:1039C0001D828CE38E838CE18F8386E48887C12CF3
:1039D000D12C80E8E82E9FEBF92E60917C0E70913F
:1039E0007D0E072E000C880B990B0E9455CD698720
:1039F0007A87182F092F9B01482F592FB601C7012D
:103A00000E944ECD8823D9F120914A0630914B0671
:103A100040914C0650914D068C8169857A858111C3
:103A200009C0812F902F0E944ECD282E221C2224C7
:103A3000221C2BC0812F902F0E944ECD87FF24C0C7
:103A400080910902882309F4B1C02A960FB6F89430
:103A5000DEBF0FBECDBFDF91CF911F910F91FF90C1
:103A6000EF90DF90CF90BF90AF909F908F907F901E
:103A70006F905F904F903F902F900C948237C98643
:103A8000DA861E2D0F2D01C0212C0E946AB16B0118
:103A90007C01DC01CB0184199509A609B709B7FDA2
:103AA0000DC02601370188EE480E83E0581E611CC8
:103AB000711C0E94125B8AE00E94671C0E940E63C8
:103AC0000E946AB160936B0770936C0780936D07D7
:103AD00090936E0730904A0680914B0689838091BF
:103AE0004C068A8380914D068B83222071F18114CC
:103AF0009104A104B10441F0D701C60188199909C4
:103B0000AA09BB09B7FD21C0232D39814A815B81F8
:103B10006D817E818F8198850E94E8D120E030E020
:103B200040EC5FE30E944ECD87FD8ACF46015701EE
:103B300080E6880E8AEE981EA11CB11C3D82898108
:103B40008E838A818F838B81888780910902882365
:103B500009F476CF60917C0E70917D0E072E000CDB
:103B6000880B990B222091F00E9455CD9B01AC014E
:103B7000632D79818A819B810E9449D418160CF0AB
:103B80005FCFC984DA84E12EF02E27CF0E9455CD75
:103B90009B01AC01632D79818A819B810E944ECD6E
:103BA00087FDEFCF4DCF66E970E0CACE2A960FB6FB
:103BB000F894DEBF0FBECDBFDF91CF911F910F9163
:103BC000FF90EF90DF90CF90BF90AF909F908F903D
:103BD0007F906F905F904F903F902F900895CF937C
:103BE000DF93E4EAFCE28491EF012196882321F03F
:103BF0000E94671CFE01F7CFE5E1F9E08491EF0137
:103C00002196882321F00E94671CFE01F7CFDF91E7
:103C1000CF910895CF92DF92EF92FF920F931F936F
:103C2000CF93DF9380916F05843008F027C10E9405
:103C30008A16AC0197FD22C1982F20918A0E3091EF
:103C40008B0E8A3019F09D3009F0E6C01092DD0528
:103C50002115310519F40E94D75FE4CFF901E3582B
:103C6000FA4F108210928B0E10928A0ECDE7D5E09B
:103C7000FE018191803211F4EF01FACF8E3409F008
:103C80007EC0209709F47BC06FED78E0CE010E94E2
:103C9000CCCC8C01892B41F06EE470E0CE0104960F
:103CA0000E9414D5009709F4CE014AE050E060E08C
:103CB00070E001960E9458CA6093790570937A0566
:103CC00080937B0590937C05C0908C0ED0908D0ED8
:103CD000E0908E0EF0908F0E2FEFC21AD20AE20AF9
:103CE000F20A6C157D058E059F0529F0012B19F44C
:103CF0008CEA98E02AC06AE270E0CE010E944CD5BE
:103D00009C01009701F1982F9C1B10E0992339F03A
:103D10009150FE01E90FF11D80811827F7CF4AE08D
:103D200050E060E070E0C90101960E9458CA012F7E
:103D300010E020E030E0601771078207930779F008
:103D40008DE898E002C083E698E0DF91CF911F9163
:103D50000F91FF90EF90DF90CF900C94DFB08091A7
:103D6000790590917A05A0917B05B0917C058093AF
:103D70008C0E90938D0EA0938E0EB0938F0E80912B
:103D80000802811124C067E470E0CE010E9414D5BE
:103D90000097E9F04AE050E060E070E001960E9490
:103DA00058CA643071058105910588F4ECEEF7E09E
:103DB00084918F010F5F1F4F882321F00E94671CA1
:103DC000F801F6CF60E082EE97E00E944C3460E1AB
:103DD00073E0CE010E941FD5892B21F410920902B5
:103DE0001092880365E173E0CE010E941FD5892BF4
:103DF00021F489ED97E00E94757C6AE173E0CE01C1
:103E00000E941FD5892B11F40E94ED6761E08DE7B8
:103E100095E00E94171706CF2F3531050CF002CF21
:103E20009C35C1F40E948A1697FDFCCE2091DD05D9
:103E30002111F8CE20918A0E30918B0EA9014F5F8F
:103E40005F4F50938B0E40938A0EF901E358FA4F5F
:103E50008083E8CE9B3319F481E08093DD05809167
:103E6000DD058111DFCEC901019690938B0E809301
:103E70008A0EF901E358FA4F4083D4CEDF91CF91F7
:103E80001F910F91FF90EF90DF90CF900895BF9218
:103E9000CF92DF92EF92FF920F931F93CF93DF9316
:103EA000CDB7DEB76E970FB6F894DEBF0FBECDBFAD
:103EB0006091F60C7091F70C6115710561F14DE19F
:103EC00050E0CE0101967C010E94BDCC1E8EF70110
:103ED0008F010E191F09B190BB2031F19AE0B91280
:103EE000F7CF22C0B7018CEC97E00E942B2B82E227
:103EF0000E94671C8AE00E94671CBB2061F10F5F73
:103F00001F4F8091F60C9091F70C080F191F10931A
:103F1000F70C0093F60C81E02091F60C3091F70C31
:103F2000232BE1F480E01AC0F701E00FF11F1082AB
:103F300060E0C7010E941717882369F3E6ECF6E2F8
:103F400084916F019FEFC91AD90A882359F20E9400
:103F5000671CF601F5CF00E010E0D9CF6E960FB6E2
:103F6000F894DEBF0FBECDBFDF91CF911F910F91AF
:103F7000FF90EF90DF90CF90BF9008958F929F9227
:103F8000AF92BF92EF92FF920F931F93CF93DF9365
:103F9000CDB7DEB7A0970FB6F894DEBF0FBECDBF8A
:103FA000611571058105910591F100E0842E912C38
:103FB000A12CB12C102FEE24E394F12CEC0EFD1E5D
:103FC000E00EF11C07FDFA94A50194010E9455D161
:103FD000F7016083B901CA010F5F611571058105A1
:103FE000910541F71F3F31F1E1E0F0E0EC0FFD1FDB
:103FF000E10FF11D17FDFA9580818A3010F097E3EB
:1040000001C090E3890F0E94671C1150EBCF80E341
:10401000A0960FB6F894DEBF0FBECDBFDF91CF9153
:104020001F910F91FF90EF90BF90AF909F908F9056
:104030000C94671CA0960FB6F894DEBF0FBECDBFE0
:10404000DF91CF911F910F91FF90EF90BF90AF90B4
:104050009F908F900895EF92FF920F931F93CF93AD
:10406000DF937C0184E50E94D61BD82F882349F179
:104070000E94361BC82F181604F5E6ECF6E2849170
:104080008F010F5F1F4F882321F00E94671CF801EA
:10409000F6CF8DE40E94671CB70180E090E04AE013
:1040A0000E94BE1F6C2FCC0F770B84EE98E00E940D
:1040B000122B8AE00E94671C08C08093D603D0E0D0
:1040C00004C08091340D8093D6038D2FDF91CF9162
:1040D0001F910F91FF90EF900895CF92DF92EF9292
:1040E000FF926B017C0197FF0BC08DE20E94671C61
:1040F000F094E094D094C094C11CD11CE11CF11C3C
:104100004AE0C701B601FF90EF90DF90CF900C948A
:10411000BE1F2F923F924F925F926F927F928F922B
:104120009F92AF92BF92CF92DF92EF92FF920F9346
:104130001F93CF93DF93CDB7DEB762970FB6F89496
:10414000DEBF0FBECDBF8DE690E00E942B20811117
:10415000BAC18091DE0C83FDB6C183E50E94D61BF7
:104160008F83811107C082E50E94D61B8983882333
:1041700009F448C00E945A1B0E9455D370937F0EC9
:1041800060937E0E80E00E941B5C0E945A1B20E020
:1041900030E04AEA52E40E944ECD18160CF48AC16F
:1041A0000E94309F0E94823760917E0E70917F0E38
:1041B000072E000C880B990B0E9455CD6B017C01DA
:1041C0008090EA079090EB07A090EC07B090ED0785
:1041D000A50194010E9449D418160CF46EC12F81D8
:1041E00021116EC1A5019401C701B6010E9449D4F5
:1041F00018160CF462C188E299E060E00E944C3429
:1042000031E039830E94462B5981552309F45BC163
:1042100081E0809309021B821C821D821E82198606
:104220001A861B861C861A821D868CE38E879CE16B
:104230009F87A6E4A88B1A8A312CB0E8B9832FEBAC
:10424000298B812C912C540160917E0E70917F0EF0
:10425000072E000C880B990B0E9455CD7B018C0119
:104260009B01AC016A89732D898199890E944ECD89
:10427000882309F441C02091EA073091EB0740916F
:10428000EC075091ED078F81B70181110CC0C80177
:104290000E944ECD881F8827881F8A83EA8A3F2C78
:1042A0000983198B29C0C8010E944ECD87FF1FC00A
:1042B00080910902882309F406C162960FB6F8942A
:1042C000DEBF0FBECDBFDF91CF911F910F91FF9049
:1042D000EF90DF90CF90BF90AF909F908F907F90A6
:1042E0006F905F904F903F902F900C948237EA8AA6
:1042F0003F2C0983198B1A820E946AB16B017C01E1
:10430000DC01CB0129853A854B855C85821B930BAB
:10431000A40BB50BB7FD3BC0D701C60188519C4F1C
:10432000AF4FBF4F89879A87AB87BC870E94125BCC
:10433000E4E2F9E084913F019FEF691A790A88234A
:1043400021F00E94671CF301F5CF81149104A104B0
:10435000B104B9F0D501C401805F984DAF4FBF4F94
:10436000BC01CD016C197D098E099F0928EE33E04F
:1043700040E050E00E9455D1CA01B9010E946D2071
:1043800003C08FE30E94671C8AE00E94671C0E94A2
:104390000E630E946AB160936B0770936C07809301
:1043A0006D0790936E072090EA07A091EB07A8870E
:1043B0000091EC071091ED07222D3A2FA8016A8990
:1043C000732D898199890E94E8D12B013C0120E05D
:1043D00030E0A9010E9449D487FF04C077FA7094A5
:1043E00077F8709481149104A104B10459F420E089
:1043F00030E040E85FE3C301B2010E944ECD87FF89
:104400000DC00AC020E030E040E450E4C301B20136
:104410000E9449D4181614F446015701BA81BB23EF
:1044200089F12B813C814D815E812115310541054A
:10443000510541F0D701C601821B930BA40BB50BAC
:10444000B7FD20C0222D3885A8016D857E858F851A
:1044500098890E94E8D120E030E040EC5FE30E94C0
:104460004ECD87FD25CFD701C601805A9541AF4F6C
:10447000BF4F8B839C83AD83BE832D8698859E879B
:104480000F87188B80910902882309F411CF8114BA
:104490009104A104B10409F4D7CEA0E1CA1AA7E29D
:1044A000DA0AE108F108C818D908EA08FB08F7FE9B
:1044B000FFCECACE0E940C9F77CE85E399E09DCEB9
:1044C00041E049839FCE62960FB6F894DEBF0FBEDF
:1044D000CDBFDF91CF911F910F91FF90EF90DF90B3
:1044E000CF90BF90AF909F908F907F906F905F9094
:1044F0004F903F902F9008958F929F92AF92BF92CE
:10450000CF92DF92EF92FF92CF936B017C01B42E9A
:1045100020E030E0A9010E944ECD87FF07C08DE268
:104520000E94671CF7FAF094F7F8F094C0E060E09E
:1045300070E080E09FE3CB1541F02DEC3CEC4CECBF
:104540005DE30E94B4CDCF5FF6CF9B01AC01C70104
:10455000B6010E94E9D16B017C010E945CD34B0142
:104560005C014AE00E94BE1FCC2389F1C501B40161
:104570000E9453CD9B01AC01C701B6010E94E8D156
:104580006B017C018EE20E94671C20E030E040E27B
:1045900051E4C701B6010E94B4CD4B015C010E94F9
:1045A00055D36B01770FEE08FF08C701B6010E94D3
:1045B0006D20C701B6010E9455CD9B01AC01C5011C
:1045C000B4010E94E8D16B017C01C150F1F6CF919A
:1045D000FF90EF90DF90CF90BF90AF909F908F9023
:1045E0000895CF93DF930E949E678BE50E94671C1E
:1045F000C5E3DDE0688179818A819B8142E00E9488
:104600007C224C815D816E817F8182E199E00E94F4
:10461000F52A488559856A857B858FE099E00E9457
:10462000F52A8DE50E94671C8AE0DF91CF910C94FA
:10463000671C1F920F920FB60F9211240BB60F92A8
:104640002F938F939F93EF93FF9320916A07E091AD
:10465000690781E08E0F8F779091C600281729F0A7
:10466000F0E0E751F94F9083E82FE0936907FF915D
:10467000EF919F918F912F910F900BBE0F900FBED6
:104680000F901F901895CF93DF938091EA0E909131
:10469000EB0E891B8F7009F445C09091E70E9923AA
:1046A00051F0833030F48FEF890F19F08093E70ECB
:1046B0003BC01092E70EE091EB0E8FE4E89FF00113
:1046C0001124E251F84F808180FD2EC08091C507F2
:1046D0009091C607A091C707B091C807EF01C55BCD
:1046E000DF4F488159816A817B81841B950BA60B22
:1046F000B70B8093C5079093C607A093C707B093E5
:10470000C8078091EB0E8F5F8F708093E80E9091B9
:10471000EB0E8091E90E98130AC08091E80E809309
:10472000E90E05C00E945F4280E090E001C0CF0129
:10473000DF91CF9108950F930FB70F9300916E0003
:104740000F930B7F00936E0000916F000D7F00931D
:104750006F000F930BB70F930CB70F921F922F930D
:104760003F934F935F936F937F938F939F93AF93F9
:10477000BF93EF93FF9311240E942F24FF91EF9199
:10478000BF91AF919F918F917F916F915F914F9169
:104790003F912F911F900F900CBF0F910BBF0F9166
:1047A0000260F89400936F000F9100936E000F91D8
:1047B0000FBF0F9118958091E40580FF07C080918D
:1047C0000B018270809309018FEF07C080910B016C
:1047D000809582708093090181E080930A02809124
:1047E000E40581FF08C080910B0180958170809362
:1047F00009018FEF06C080910B0181708093090140
:1048000081E080930B028091E40582FF07C08091D4
:104810000B018470809309018FEF07C080910B0119
:10482000809584708093090181E080930C028091CF
:10483000E40583FF08C080910B018095807480930C
:1048400009018FEF06C080910B01807480930901EC
:1048500081E080930D0200000000000008952F9277
:104860003F924F925F926F927F928F929F92AF9200
:10487000BF92CF92DF92EF92FF921F93CF93DF937D
:10488000F8948FEF9FEF90938900809388001AE04F
:10489000C0E0D0E0BCE72B2EB1E13B2E78948091B4
:1048A000270690912806A0912906B0912A06892B07
:1048B0008A2B8B2B09F0CEC180910C0D8823D1F06F
:1048C00010920C0D80910A0D90910B0D892B91F097
:1048D0001092E50510920B0D10920A0D9091EA0EC0
:1048E0008091EB0E981731F08091EB0E8F5F8F70F7
:1048F0008093EB0E80910A0D90910B0D892B09F49A
:10490000A9C18090230690902406A0902506B0901F
:10491000260640911F065091200660912106709155
:104920002206C0901206D12CE12CF12CDB01CA0129
:1049300088199909AA09BB09C816D906EA06FB060F
:1049400010F4D701C601282F880D991DAA1DBB1D83
:104950008093230690932406A0932506B093260601
:1049600080918400909185004E96C090FA05D09079
:10497000FB05E090FC05F090FD054091EA055091A3
:10498000EB056091EC057091ED054C0D5D1D6E1D04
:104990007F1D4093FA055093FB056093FC057093CF
:1049A000FD0577FD1CC0409AC0906C03D0906D034C
:1049B000E0906E03F0906F0340910A02042E000C09
:1049C000550B660B770B4C0D5D1D6E1D7F1D4093C7
:1049D0006C0350936D0360936E0370936F03C090EC
:1049E000FE05D090FF05E0900006F0900106409192
:1049F000EE055091EF056091F0057091F1054C0DB9
:104A00005D1D6E1D7F1D4093FE055093FF05609355
:104A100000067093010677FD1CC0419AC090700398
:104A2000D0907103E0907203F090730340910B02F9
:104A3000042E000C550B660B770B4C0D5D1D6E1D87
:104A40007F1D4093700350937103609372037093C2
:104A50007303C0900206D0900306E0900406F09025
:104A600005064091F2055091F3056091F4057091AF
:104A7000F5054C0D5D1D6E1D7F1D40930206509384
:104A80000306609304067093050677FD1CC0429AE6
:104A9000C0907403D0907503E0907603F090770394
:104AA00040910C02042E000C550B660B770B4C0D3D
:104AB0005D1D6E1D7F1D40937403509375036093BD
:104AC000760370937703C0900606D0900706E090B7
:104AD0000806F09009064091F6055091F70560919F
:104AE000F8057091F9054C0D5D1D6E1D7F1D4093FD
:104AF000060650930706609308067093090677FD33
:104B00001CC0439AC0907803D0907903E0907A0358
:104B1000F0907B0340910D02042E000C550B660BA8
:104B2000770B4C0D5D1D6E1D7F1D409378035093D8
:104B3000790360937A0370937B03409184005091D2
:104B4000850048175907C8F34091FA055091FB05B5
:104B50006091FC057091FD0577FD15C0C090E605DC
:104B6000D090E705E090E805F090E9054C195D0963
:104B70006E097F094093FA055093FB056093FC058D
:104B80007093FD0540984091FE055091FF0560919E
:104B900000067091010677FD15C0C090E605D09023
:104BA000E705E090E805F090E9054C195D096E090C
:104BB0007F094093FE055093FF05609300067093B4
:104BC0000106419840910206509103066091040647
:104BD0007091050677FD15C0C090E605D090E705F9
:104BE000E090E805F090E9054C195D096E097F0930
:104BF00040930206509303066093040670930506E3
:104C000042984091060650910706609108067091FF
:104C1000090677FD15C0C090E605D090E705E09045
:104C2000E805F090E9054C195D096E097F0940938C
:104C3000060650930706609308067093090643988A
:104C4000215041F040918400509185004817590748
:104C5000C8F38ACE8091270690912806A091290654
:104C6000B0912A06892B8A2B8B2B09F01EC3E09169
:104C70000A0DF0910B0D309709F493C4809123062F
:104C800090912406A0912506B091260640911F061A
:104C90005091200660912106709122068417950795
:104CA000A607B707D0F01092E50510920B0D1092F1
:104CB0000A0D9091EA0E8091EB0E981709F471C4D9
:104CC0008091EB0E8F5F8F708093EB0EA0EDCA2E5C
:104CD000A7E0DA2EE12CF12C4EC140911B06509139
:104CE0001C0660911D0670911E06481759076A0739
:104CF0007B0708F467C04091170650911806609131
:104D0000190670911A0682A993A9A4A9B5A9FF242E
:104D1000499FE12C5A9F90016A9F300D699F200D99
:104D2000311D4A9FE00C211D3F1D599FE00C211DA4
:104D30003F1D689FE00C211D3F1D589FE10C2F1D5A
:104D40003F1DE6942F1D3F1DB49F200D311DB59FC3
:104D5000300D112483AD94ADA5ADB6AD820F931F78
:104D6000A11DB11D8093130690931406A093150600
:104D7000B0931606C7A8D0ACE1ACF2ACC816D90601
:104D8000EA06FB0640F4C0921306D0921406E092A5
:104D90001506F09216068090130690901406A090C7
:104DA0001506B090160680E691E121E0FC01C59061
:104DB000D590E590F490C814D904EA04FB0408F4F3
:104DC000BAC2C4C240910E0650910F0660911006FF
:104DD00070911106481759076A077B0708F063C0EE
:104DE00040910A0650910B0660910C0670910D06D9
:104DF00082A993A9A4A9B5A9FF24499FE12C5A9F90
:104E000090016A9F300D699F200D311D4A9FE00C73
:104E1000211D3F1D599FE00C211D3F1D689FE00C87
:104E2000211D3F1D589FE10C2F1D3F1DE6942F1D96
:104E30003F1DB49F200D311DB59F300D1124C901B8
:104E4000A0E0B0E08090130690901406A0901506A4
:104E5000B0901606FF9688159905AA05BB0580F443
:104E6000C080D180E280F380881A990AAA0ABB0A1E
:104E70008C149D04AE04BF0438F44601570104C0ED
:104E800080809180A280B38080E691E121E0FC01E6
:104E9000C590D590E590F490C814D904EA04FB04B9
:104EA00008F4BCC2C6C280910F0290911002A0917A
:104EB0001102B0911202B7FF56C087A990ADA1AD03
:104EC000B2AD20E631E141E0F901C590D590E59021
:104ED000F490C816D906EA06FB0658F4B695A795CD
:104EE00097958795440F2C5F3F4FF1E12C373F0793
:104EF00059F74093120680329105A105B10508F4D7
:104F000023C38097A109B109811528E09207A10563
:104F1000B10508F4F6C244E0949F90011124205A90
:104F2000324FF901329645915491EE27859FB00199
:104F3000849F610D7E1F06946E1F7E1F1124CB017E
:104F4000A0E0B0E0F9014591549160E070E0481BA9
:104F5000590B6A0B7B0B40930F0250931002609326
:104F6000110270931202C0900F02D0901002E090D4
:104F70001102F090120280910A0D90910B0D892B75
:104F800009F08BC10E94432390930B0D80930A0D6F
:104F9000892B09F482C1E0910A0DF0910B0D8081FB
:104FA00083FF3EC085899689A789B08D80936C0365
:104FB00090936D03A0936E03B0936F03818D928DD8
:104FC000A38DB48D8093700390937103A0937203AB
:104FD000B0937303858D968DA78DB0A180937403D4
:104FE00090937503A0937603B093770381A192A168
:104FF000A3A1B4A18093780390937903A0937A033B
:10500000B0937B039091EA0E8091EB0E981709F410
:10501000B9CF8091EB0E8F5F8F708093EB0EB2CF84
:1050200085889688A788B08C81E081149104A104BA
:10503000B10409F480E0C18CD28CE38CF48CC114EF
:10504000D104E104F10409F08260458D568D678D2D
:1050500070A1411551056105710509F084608093C7
:10506000E50510920A0610920B0610920C0610929B
:105070000D0610921706109218061092190610923B
:105080001A0685A196A1A7A1B0A580931F069093AB
:105090002006A0932106B093220644245524320111
:1050A000481A590A6A0A7B0A409206065092070675
:1050B000609208067092090640920206509203061A
:1050C00060920406709205064092FE055092FF051C
:1050D00060920006709201064092FA055092FB051C
:1050E0006092FC057092FD05880C991CAA1CBB1CE3
:1050F0008092EA059092EB05A092EC05B092ED0546
:10510000CC0CDD1CEE1CFF1CC092EE05D092EF050E
:10511000E092F005F092F105440F551F661F771FCE
:105120004093F2055093F3056093F4057093F505F1
:1051300041A152A163A174A1440F551F661F771F9F
:105140004093F6055093F7056093F8057093F905C1
:10515000880F991FAA1FBB1F8093E6059093E70550
:10516000A093E805B093E905109223061092240657
:10517000109225061092260682A593A5A4A5B5A592
:1051800080931B0690931C06A0931D06B0931E06E9
:1051900086A597A5A0A9B1A980930E0690930F06A6
:1051A000A0931006B093110641A556A98091E4057D
:1051B00058130AC080910E0290E0242F042E000C98
:1051C000330B2817390731F05093E40540930E0252
:1051D0000E94DB230E947A428FEF9FEFDC018093D5
:1051E0000F0290931002A0931102B0931202E0916B
:1051F0000A0DF0910B0D83AD94ADA5ADB6AD8093C6
:10520000130690931406A0931506B093160620E695
:1052100031E141E0F901C590D590E590F490C816D0
:10522000D906EA06FB0650F4B695A795979587959B
:10523000440F2C5F3F4F2216330661F7409312064E
:1052400080329105A105B10508F4A6C18097A10996
:10525000B1098115F8E09F07A105B10508F479C1EE
:1052600044E0949F90011124205A324FF901329664
:1052700045915491EE27859FB001849F610D7E1F5B
:1052800006946E1F7E1F1124F901C590D490E12C65
:10529000F12CC61AD70AE108F108C0922706D0926D
:1052A0002806E0922906F0922A068091270690911E
:1052B0002806A0912906B0912A06AC01BD010097ED
:1052C000F1E0AF07B10520F04FEF5FEF60E070E075
:1052D000841B950BA60BB70B80932706909328068B
:1052E000A0932906B0932A06F894809184009091A7
:1052F00085004096115039F0C40FD51FC817D90743
:1053000008F4CCCA01C0EC01D0938900C093880096
:105310007894DF91CF911F91FF90EF90DF90CF9025
:10532000BF90AF909F908F907F906F905F904F90C5
:105330003F902F900895B694A79497948794220F46
:10534000049631E18C37930709F030CD2093120693
:1053500080E288169104A104B10408F459C020E247
:10536000821A9108A108B108811438E09306A104BB
:10537000B104F8F0A4E09A9EC0011124805A924F23
:10538000FC01329625913491F82DEE27F39FD00140
:10539000F29FA10DBE1F0694AE1FBE1F1124FC017B
:1053A000C590D490E12CF12CCA1ADB0AE108F1086F
:1053B00022C0D501C401B695A79597958795FC01A4
:1053C000EC7FCF01805A964FFC01C590D490FC0130
:1053D000329625913491E82DE770E29FC001E39F5A
:1053E000900D1124F3E096958795FA95E1F7C81A88
:1053F000D90AE12CF12C4C0D5D1D6E1D7F1D4093D3
:105400001706509318066093190670931A06B3CDC9
:10541000A0E28A2E912CA12CB12CA1CFB694A794F6
:1054200097948794220F0496A1E18C379A0709F08C
:105430002ECD2093120690E289169104A104B104A6
:1054400008F459C020E2821A9108A108B108811419
:1054500038E09306A104B104F8F0A4E09A9EC001DC
:105460001124805A924FFC01329625913491F82DE7
:10547000EE27F39FD001F29FA10DBE1F0694AE1F31
:10548000BE1F1124FC01C590D490E12CF12CCA1A46
:10549000DB0AE108F10822C0D501C401B695A79541
:1054A00097958795FC01EC7FCF01805A964FFC01C0
:1054B000C590D490FC01329625913491E82DE77087
:1054C000E29FC001E39F900D112433E096958795EC
:1054D0003A95E1F7C81AD90AE12CF12C4C0D5D1D63
:1054E0006E1D7F1D40930A0650930B0660930C06B9
:1054F00070930D0640CDF0E28F2E912CA12CB12C93
:10550000A1CFAC01BD017695679557954795FA01F6
:10551000EC7F9F01205A364FF90145915491F901D2
:105520003296659174918770869F9001879F300DA8
:105530001124C901F3E096958795FA95E1F7481B88
:10554000590B60E070E007CD80E290E0A0E0B0E0B1
:10555000D8CCAC01BD017695679557954795FA0172
:10556000EC7F9F01205A364FF901C590D490F90184
:105570003296459154918770849F9001859F300D9C
:105580001124C90123E0969587952A95E1F7C81A59
:10559000D90AE12CF12C81CE80E290E0A0E0B0E0CD
:1055A00055CE80EDC82E87E0D82EE12CF12CEACC28
:1055B000CF92DF92EF92FF92CF93DF936A017B014C
:1055C000FC018491EF012196882321F00E94671C41
:1055D000FE01F7CF4AE0C701B601DF91CF91FF90FE
:1055E000EF90DF90CF900C94BE1FCF92DF92EF929E
:1055F000FF92CF93DF936A017B01FC018491EF015D
:105600002196882321F00E94671CFE01F7CF42E01B
:10561000C701B601DF91CF91FF90EF90DF90CF905F
:105620000C947C220F931F93CF93DF938B01FC018B
:105630008491EF012196882321F00E94671CFE01CE
:10564000F7CFB801110F880B990BDF91CF911F9104
:105650000F910C946D200F931F93CF93DF938B01C9
:10566000FC018491EF012196882321F00E94671CA0
:10567000FE01F7CFE8018991882319F00E94671C89
:10568000FACFDF91CF911F910F91089586E40E9488
:105690008D1B80938B06882351F00E945A1B6093C8
:1056A000150270931602809317029093180283E5F7
:1056B0000E948D1B882351F00E945A1B60931D028B
:1056C00070931E0280931F029093200282E40E9436
:1056D0008D1B882351F00E945A1B6093190270930E
:1056E0001A0280931B0290931C0208954F925F92BE
:1056F0006F927F928F929F92AF92BF92EF92FF92A2
:105700000F931F93CF93DF93CAEAD3E08FEDE82E78
:105710008CE0F82E05E917E0412C512C320143941E
:105720006991799189919991F70181909190A190D6
:10573000B1907F010E9453CDA50194010E94B4CD88
:105740000E945CD3F80161937193819391938F01CF
:10575000461657066806790610F42B013C01F3E063
:10576000CA3BDF07E9F66FEF7FEFCB01A3019201A0
:105770000E9455D12093A5073093A6074093A70711
:105780005093A807DF91CF911F910F91FF90EF9059
:10579000BF90AF909F908F907F906F905F904F9051
:1057A00008958091EA0E9091EB0E891B8F708F30D7
:1057B00019F40E940E63F5CF8091EA0E8F5F8F700F
:1057C000E091EA0E9FE49E9FF0011124E251F84F10
:1057D000DF011D929A95E9F798E090834091000FC0
:1057E0005091010F6091020F7091030F458B568B02
:1057F000678B708F4091040F5091050F6091060FD9
:105800007091070F418F528F638F748F4091080FF3
:105810005091090F60910A0F70910B0F458F568FB1
:10582000678F70A340910C0F50910D0F60910E0F78
:1058300070910F0F41A352A363A374A32091EA0EAA
:105840009091EB0E291303C094E69093E70E80939A
:10585000EA0E80916F00826080936F0008959091AE
:10586000EA0E8091EB0E981306C08091EF0C909198
:10587000F00C892B19F00E940E63F1CF0895EF927E
:10588000FF920F931F93CF93DF937B018A01E9016E
:105890002091DF0C3091E00C4091E10C5091E20C32
:1058A000FC0160817181828193810E94B4CD0E944C
:1058B00056D46093000F7093010F8093020F909362
:1058C000030F2091E30C3091E40C4091E50C5091D2
:1058D000E60CF70160817181828193810E94B4CDD1
:1058E0000E9456D46093040F7093050F8093060FA7
:1058F0009093070F20E030E0A901F80160817181E9
:10590000828193810E94E9D12091E70C3091E80CCB
:105910004091E90C5091EA0C0E94B4CD0E9456D4FB
:105920006093080F7093090F80930A0F90930B0FE9
:105930002091EB0C3091EC0C4091ED0C5091EE0C61
:10594000688179818A819B810E94B4CD0E9456D45E
:1059500060930C0F70930D0F80930E0F90930F0FA9
:105960009091EA0E8091EB0E981741F0DF91CF9164
:105970001F910F91FF90EF900C94D12B0E942F2C30
:1059800080916F00982F927081FF05C080916F0009
:105990008D7F80936F004091000F5091010F6091B7
:1059A000020F7091030F40936C0350936D0360934B
:1059B0006E0370936F034091040F5091050F609137
:1059C000060F7091070F409370035093710360931B
:1059D0007203709373034091080F5091090F609107
:1059E0000A0F70910B0F40937403509375036093EB
:1059F00076037093770340910C0F50910D0F6091D7
:105A00000E0F70910F0F40937803509379036093BA
:105A10007A0370937B03992329F080916F00826051
:105A200080936F00DF91CF911F910F91FF90EF90C6
:105A300008950F931F93CF93DF93CFEDDCE00DEC30
:105A400017E0299139914991599160E070E080E81F
:105A50009FE30E94E3D2F801619371938193919344
:105A60008F01FCE0CF3EDF0761F72FE53DE04BE51E
:105A70005DE067E57DE083E59DE00E943F2CDF91DE
:105A8000CF911F910F910C94762BCF93DF93909130
:105A90006F00292F227091FF05C090916F009D7FAC
:105AA00090936F0094E0899FA0011124FA01E459BA
:105AB000FC4F6081718182819381222329F02091A2
:105AC0006F00226020936F00EA01C353D84F0E94F9
:105AD00055CD288139814A815B810E94B4CDDF9107
