:100000000C944E180C9478180C9478180C9478185A
:100010000C94F1C80C9469C90C9441C90C9419C989
:100020000C9478180C9478180C9478180C94781810
:100030000C9478180C94CABD0C9478180C94781809
:100040000C9478180C94EB410C945CCC0C947818BC
:100050000C942EB40C9478180C9478180C9478188E
:100060000C9478180C9478180C9478180C947818D0
:100070000C9478180C9478180C9478180C947818C0
:100080000C9478180C9478180C94781853A039A014
:100090003CA03FA042A04EA045A05FA048A04BA01E
:1000A0000CB6BCB4F3B448B6F3B4F3B4F3B4F3B4DD
:1000B000F3B4F3B4F3B4F3B4F3B4F3B4F3B4F3B408
:1000C000F3B4F3B4F3B4F3B4F3B4F3B4F3B4F3B4F8
:1000D000F3B4F3B4F3B4F3B4F3B4F3B442B6F3B497
:1000E000F3B4F3B4F3B4F3B4F3B4F3B4F3B41BB6AE
:1000F000F3B4F3B4F3B4F3B4F3B4F3B4F3B4F3B4C8
:10010000F3B4F3B45FB6F0B4A5C9A8C99BC99FC93D
:10011000BFC9BFC9ACC9B0C9B6C9BAC9CBCBD0CBAE
:10012000D5CBDFCB0DCC0DCCE9CBF1CBF9CB03CCD0
:100130004E414E494E495459494E46CDCCCC3D0ACC
:10014000D7233C17B7D13877CC2B329595E6241FAF
:10015000B14F0A000020410000C84200401C462068
:10016000BCBE4CCA1B0E5AAEC59D74434F4D4D5577
:100170004E49434154494F4E0044525952554E0046
:100180004552524F525300494E464F004543484F47
:1001900000536C6565702E2E2E00206F6620004D7A
:1001A000424C2047323920706F696E742000290A52
:1001B0000059206F7574206F662072616E6765202C
:1001C00028312D00290A0058206F7574206F662091
:1001D00072616E67652028312D00000048420000E2
:1001E000484200008040000000004D6573682070A8
:1001F000726F62696E6720646F6E652E0A005374B9
:10020000617274206D6573682070726F62696E67C9
:1002100020776974682022473239205331222066C2
:10022000697273742E0A004732380A4732392053F4
:10023000320053746174653A20004D657368206222
:100240006564206C6576656C696E672068617320F3
:100250006E6F20646174612E0A0053206F757420E4
:100260006F662072616E67652028302D35292E0A51
:10027000004D65736820706F696E742063616E6EE7
:100280006F74206265207265736F6C7665640A0016
:10029000436C69636B20746F20726573756D652E96
:1002A0002E2E004E6F206D6F76652E005072696E97
:1002B000742074696D653A20008C01870180017992
:1002C000016B016F66660044454255473A004B4951
:1002D0004C4C45442E20004D3131332053006F6B80
:1002E00000414E4554204132204F66662E002C209E
:1002F000002C2000544845524D414C5F50524F5401
:10030000454354494F4E004155544F5245504F526A
:10031000545F53445F53544154555300454D455227
:1003200047454E43595F5041525345520043415354
:10033000455F4C494748545F4252494748544E45EF
:10034000535300544F47474C455F4C49474854531B
:1003500000534F4654574152455F504F5745520046
:100360004255494C445F50455243454E54004C451C
:1003700056454C494E475F44415441005A5F5052E4
:100380004F4245004155544F4C4556454C00505244
:10039000494E545F4A4F420050524F4752455353C3
:1003A000004155544F5245504F52545F54454D50A3
:1003B00000564F4C554D4554524943004545505207
:1003C0004F4D0053455249414C5F584F4E5F584F77
:1003D0004646004649524D574152455F4E414D45B4
:1003E0003A4D61726C696E206275676669782D316D
:1003F0002E312E7820284769746875622920534F62
:10040000555243455F434F44455F55524C3A6874DB
:100410007470733A2F2F6769746875622E636F6DFD
:100420002F4D61726C696E4669726D776172652FCE
:100430004D61726C696E2050524F544F434F4C5F68
:1004400056455253494F4E3A312E30204D41434884
:10045000494E455F545950453A414E45542041322A
:100460002045585452554445525F434F554E543AD7
:100470003120555549443A63656465326132662DD1
:10048000343161322D343734382D396231322D63B5
:1004900035356336326633363766660A002F2F20CD
:1004A000004D31343520533C696E6465783E206FD1
:1004B0007574206F662072616E67652028302D315B
:1004C000290A00205400205200416363656C657264
:1004D0006174696F6E3A2050005741524E494E4741
:1004E00021204C6F77205A204A65726B206D61790C
:1004F000206C65616420746F20756E77616E746521
:1005000064207061757365732E0A000000E0C000FE
:1005100000A0C0000000004F666673657473206120
:1005200070706C696564004572723A20546F6F2078
:100530006661722100546F6F206661722066726F6F
:100540006D207265666572656E636520706F696E99
:10055000740A00FFFFFF20466C6F773A200000010D
:100560000F150E12FFFFFFFF16170E13FFFFFFFF01
:1005700003021A14FFFFFFFFFFFFFF0C04FFFFFF42
:1005800001000EFFFFFF0C190DFF1820643A002038
:10059000693A0020703A00496E76616C69642065A2
:1005A000787472756465720A0043290A0061626C8E
:1005B000656420286D696E2074656D702000436F3E
:1005C0006C6420657874727564657320617265204F
:1005D0000020643A0020693A0020703A004E6F20F3
:1005E00063617365206C696768740A004545505201
:1005F0004F4D204F4B0A0041637469766520457862
:100600007472756465723A2000496E76616C696433
:100610002065787472756465720A006F6B00456EB0
:100620006473746F70732025632025632025632015
:10063000256300205A3A0020593A0020583A0065B4
:100640006E6473746F7073206869743A2000473267
:10065000392053310047323920533200436C6963EB
:100660006B20746F20426567696E00486F6D696E1C
:10067000672058595A004732380053746F7265200A
:1006800073657474696E6773004C6F616420736581
:100690007474696E6773004C6576656C20636F7265
:1006A0006E65727300426564205A00426564205A88
:1006B0000046616465204865696768740046616446
:1006C000652048656967687400466164652048650F
:1006D00069676874004F6666004F6E20004265646B
:1006E000204C6576656C696E67004C6576656C209C
:1006F0006265640050726570617265004D34323815
:10070000005072656865617420504C4100436F6F02
:100710006C646F776E005072656865617420414249
:1007200053004368616E67652066696C616D656E34
:1007300074004368616E67652066696C616D656E03
:1007400074004D3630302042300044697361626C71
:1007500065207374657070657273004D3834005392
:10076000657420686F6D65206F66667365747300CD
:10077000426564204C6576656C696E6700486F6DF4
:1007800065205A00473238205A00486F6D6520595D
:1007900000473238205900486F6D652058004732B5
:1007A000382058004175746F20686F6D65004732BE
:1007B00038004D6F76652061786973004D61696E10
:1007C000004D6F76652058004D6F76652059004DBD
:1007D0006F7665205A004578747275646572004DB5
:1007E0006F766520302E316D6D004D6F766520314E
:1007F0006D6D004D6F76652031306D6D004D6F76FB
:10080000652061786973004578747275646572005B
:100810004D6F7665205A004D6F76652059004D6FFB
:1008200076652058004578747275646572004D6F66
:100830007665205A004D6F76652059004D6F7665BC
:100840002058005072657061726500496E69746964
:10085000616C697A6520454550524F4D00436F6E7B
:1008600074726F6C00526573746F72652066616993
:100870006C73616665004C6F6164207365747469A4
:100880006E677300496E697469616C697A652045A9
:100890004550524F4D0053746F72652073657474E8
:1008A000696E67730046696C616D656E74004D6FAB
:1008B00074696F6E0054656D7065726174757265F0
:1008C000004D61696E005072656865617420414237
:1008D0005320636F6E6600507265686561742050C6
:1008E0004C4120636F6E66005049442D44005049CE
:1008F000442D44005049442D49005049442D49009D
:100900005049442D50005049442D500046616E20FE
:1009100073706565640046616E2073706565640080
:1009200046616E20737065656400426564004265CF
:100930006400426564004E6F7A7A6C65004E6F7A8F
:100940007A6C65004E6F7A7A6C6500436F6E7472D4
:100950006F6C0053746F72652073657474696E6791
:1009600073004265640042656400426564004E6F36
:100970007A7A6C65004E6F7A7A6C65004E6F7A7A7F
:100980006C650046616E2073706565640046616E3B
:100990002073706565640046616E207370656564E0
:1009A0000054656D7065726174757265005654729D
:1009B0006176206D696E005654726176206D696EA5
:1009C000005654726176206D696E00566D696E0036
:1009D000566D696E00566D696E00566D61782045E2
:1009E00000566D6178204500566D617820450056AF
:1009F0006D6178205A00566D6178205A00566D61FD
:100A000078205A00566D6178205900566D61782023
:100A10005900566D6178205900566D617820580054
:100A2000566D6178205800566D61782058004D6FE2
:100A300074696F6E0041626F7574205072696E74D4
:100A4000657200436F6E74726F6C005072657061F6
:100A500072650054756E6500496E666F207363722F
:100A600065656E004261627973746570205A004357
:100A700068616E67652066696C616D656E740043C0
:100A800068616E67652066696C616D656E74004DA6
:100A900036303020423000426162797374657020D4
:100AA0005A00466C6F7700466C6F7700466C6F7724
:100AB0000046616E2073706565640046616E207348
:100AC000706565640046616E207370656564004200
:100AD00065640042656400426564004E6F7A7A6C1A
:100AE00065004E6F7A7A6C65004E6F7A7A6C65009D
:100AF000466164652048656967687400466164659D
:100B000020486569676874004661646520486569C6
:100B100067687400426564205A00426564205A0088
:100B20005370656564005370656564005370656556
:100B300064004D61696E0050726568656174205093
:100B40004C4120456E6400507265686561742050A8
:100B50004C412042656400507265686561742050A4
:100B60004C41005072657061726500507265686535
:100B700061742041425320456E640050726568657F
:100B80006174204142530050726568656174204170
:100B90004253204265640050726570617265004284
:100BA00061636B004E65787420636F726E657200CE
:100BB0004C6576656C696E6720446F6E6521004DEB
:100BC0006F7665205A00473239205332004E6578DF
:100BD0007420506F696E74002569202F20257500E0
:100BE0000000E0C00000A0C00000000000003E4384
:100BF00000007A4300003443486F6D696E672066D9
:100C000061696C656400486F6D652058592066699C
:100C10007273740A00486F6D6520585920666972B6
:100C2000737400206E6F7420656E74657265642E37
:100C30000A0050726F7465637465642050696E0AAF
:100C40000020573A004520436F6F6C696E672E2E67
:100C50002E00452048656174696E672E2E2E002097
:100C6000573A0042656420636F6F6C696E672E2E81
:100C70002E004265642068656174696E672E2E2EB1
:100C800000205A3A0020593A0020436F756E7420B4
:100C9000583A0020453A00205A3A0020593A005864
:100CA0003A004265642068656174696E6720666118
:100CB000696C65640048656174696E672066616986
:100CC0006C65640045312048656174696E67206613
:100CD00061696C65640048656174696E672066616E
:100CE000696C6564001000AA03F0013A01900222C9
:100CF0000130031001D00302017004F7001005ED6C
:100D000000B005E5005006DD00F006D7009007D1E1
:100D1000003008CC00D008C7007009C300100ABE1C
:100D200000B00ABB00500BB700F00BB300900CB042
:100D300000D00DAA00100FA5005010A00090119B2C
:100D400000D0129600B014900090168B0070188599
:100D500000501A8000301C7B00B01E750030216FDF
:100D600000B02369003026640010285F00902A5AE2
:100D700000702C5500F02E4F0070314800B0324505
:100D800000F03341007036390010373700503833E7
:100D90000090392D00D03A2700B03C1C00503D1780
:100DA00000F03D1100903E0900D03FE5FF453120A5
:100DB0004572723A204D415854454D50004572726B
:100DC0003A204D415854454D5020424544004D4134
:100DD0005854454D502074726967676572656400A8
:100DE0004531204572723A204D494E54454D5000D0
:100DF0004572723A204D494E54454D50204245446B
:100E0000004D494E54454D502074726967676572B4
:100E1000656400202F002042403A0020403A004103
:100E20006D6178204500416D6178204500416D611C
:100E300078205A00416D6178205A00416D61782018
:100E40005900416D6178205900416D61782058004A
:100E5000416D6178205800412D74726176656C0097
:100E6000412D74726176656C00412D7265747261FA
:100E7000637400412D726574726163740041636331
:100E8000656C00416363656C004D6F74696F6E0043
:100E900056652D6A65726B0056652D6A65726B002A
:100EA00056652D6A65726B00567A2D6A65726B0005
:100EB000567A2D6A65726B0056792D6A65726B00E1
:100EC00056792D6A65726B0056792D6A65726B00D2
:100ED00056782D6A65726B0056782D6A65726B00C4
:100EE00056782D6A65726B004D6F74696F6E0045A0
:100EF00073746570732F6D6D004573746570732F17
:100F00006D6D005A73746570732F6D6D005A737434
:100F10006570732F6D6D005973746570732F6D6DEF
:100F2000005973746570732F6D6D0058737465701C
:100F3000732F6D6D005873746570732F6D6D004D58
:100F40006F74696F6E0053746570732F6D6D004A16
:100F500065726B00416363656C65726174696F6E85
:100F60000056656C6F6369747900436F6E74726FBD
:100F70006C004C6F6164206D6D004C6F6164206D7E
:100F80006D004C6F6164206D6D00556E6C6F616417
:100F9000206D6D00556E6C6F6164206D6D00556E37
:100FA0006C6F6164206D6D0046696C2E2044696130
:100FB0002E0046696C2E204469612E004F66660043
:100FC0004F6E20004520696E206D6D3300436F6EBB
:100FD00074726F6C0020746F6F206C6F6E67206589
:100FE0007874727573696F6E2070726576656E7451
:100FF00065640A0020636F6C642065787472757391
:10100000696F6E2070726576656E7465640A00247F
:10101000F4D43050C38E20C2A24017828B701112BC
:101020007A910D816CD90AA861E108C758660761F9
:101030005143061E4B5D05C145A7041A4111040921
:101040003D9803713931034036DB0265339102D498
:10105000305402802E1D02632CEE01752AC501B0AA
:1010600028A001102781018F2564012B244B01E06A
:10107000223401AC211F018D200D01801FFC008452
:101080001EED00971DDF00B81CD200E61BC6002035
:101090001BBC00641AB200B219A8000A19A0006AA9
:1010A000189900D117910040178B00B516840031B4
:1010B000167E00B31579003A157300C7146F0058F7
:1010C000146A00EE1366008813630025135E00C7E0
:1010D000125B006C12570015125400C111510070C0
:1010E000114F0021114B00D61049008D10470046CA
:1010F00010440002104200C00F4000800F3E00422A
:101100000F3C00060F3B00CB0E3800930E37005CFF
:101110000E3500270E3400F30D3200C10D31009062
:101120000D3000600D2E00320D2D00050D2C00D964
:101130000C2B00AE0C2900850C29005C0C27003517
:101140000C27000E0C2600E80B2400C40B2400A082
:101150000B23007D0B23005A0B2100390B210018B3
:101160000B2000F80A1F00D90A1E00BB0A1E009DB2
:101170000A1D00800A1D00630A1C00470A1B002C80
:101180000A1B00110A1A00F7091A00DD091900C428
:10119000091900AB091900920917007B09180063AF
:1011A0000917004C09160036091600200916000A16
:1011B000091500F5081500E0081400CC081400B863
:1011C000081400A4081400900813007D0812006B96
:1011D00008130058081200460812003408110023B2
:1011E0000811001208110001081100F0071000E0BA
:1011F000071000D0071000C0071000B0070F00A1B3
:1012000007100091070E0083070F0074070F006599
:10121000070E0057070E0049070E003B070D002E72
:10122000070E0020070D0013070D0006070D00F93B
:10123000060C00ED060D00E0060C00D4060C00C8FC
:10124000060C00BC060C00B0060C00A4060B0099AE
:10125000060C008D060B0082060B0077060B006C57
:10126000060B0061060A0057060B004C060A0042F6
:10127000060A0038060A002E060A0024060A001A8A
:10128000060A001006090007060A00FD050900F419
:10129000050900EB050900E2050900D9050900D0A0
:1012A000050900C7050900BE050900B5050800AD20
:1012B000050800A50509009C050800940508008C98
:1012C000050800840508007C050800740508006C0A
:1012D000050700650508005D050700560508004E76
:1012E00005070047050700400508003805070031DD
:1012F0000507002A050700230507001C0506001640
:101300000507000F0507000805060002050700FB9A
:10131000040600F5040700EE040600E8040600E2F7
:10132000040700DB040600D5040600CF040600C94C
:10133000040600C3040600BD040600B7040600B19D
:10134000040500AC040600A6040600A00405009BEA
:1013500004060095040500900406008A0405008533
:10136000040500800406007A040500750405007079
:101370000405006B04050066040500610405005CBB
:1013800004050057040500520405004D04050048FB
:10139000040500430405003E0404003A040500353A
:1013A000040500300404002C040500270404002375
:1013B0000405001E0404001A0404001604050011AC
:1013C0000404000D040400090405000404040000E2
:1013D000040400FC030400F8030400F4030400F018
:1013E000030400EC030400E8030400E4030400E049
:1013F000030400DC030400D8030400D4030400D079
:10140000030400CC030400C8030300C50303002445
:10141000F404D9201BC40C5C0E9804C4095F026557
:10142000077101F405F900FB04B30048048700C10B
:101430000369005803550003034500BE023A0084C7
:1014400002310053022A002902250004022000E490
:10145000011C00C8011900AF011700980114008495
:10146000011300710110006101100051010E0043D1
:10147000010D0036010B002B010B0020010B0015A4
:101480000109000C01090003010800FB000800F33A
:10149000000800EB000700E4000600DE000600D8AC
:1014A000000600D2000600CC000500C7000500C2FF
:1014B000000500BD000400B9000400B5000400B13F
:1014C000000400AD000400A9000400A5000300A270
:1014D0000003009F0004009B000300980003009598
:1014E00000020093000300900003008D0002008BB7
:1014F00000030088000200860002008400030081CF
:101500000002007F0002007D0002007B00020079E3
:1015100000020077000100760002007400020072F1
:10152000000100710002006F0002006D0001006CFC
:101530000002006A00010069000200670001006605
:10154000000100650001006400020062000100610A
:10155000000100600001005F0002005D0001005C0E
:101560000001005B0001005A000100590001005811
:101570000001005700010056000100550001005411
:10158000000100530000005300010052000100510F
:10159000000100500001004F0001004E0000004E0D
:1015A0000001004D0001004C0001004B0000004B09
:1015B0000001004A00010049000100480000004805
:1015C0000001004700010046000000460001004500
:1015D00000000045000100440001004300000043FA
:1015E00000010042000000420001004100000041F3
:1015F000000100400001003F0000003F0001003EEC
:101600000000003E0001003D0000003D0001003CE4
:101610000000003C0000003C0001003B0000003BDB
:101620000001003A0000003A0001003900000039D2
:1016300000010038000000380000003800010037C9
:1016400000000037000100360000003600000036C0
:1016500000010035000000350000003500010034B5
:1016600000000034000000340001003300000033AB
:1016700000000033000100320000003200000032A0
:101680000001003100000031000000310001003095
:1016900000000030000000300001002F0000002F8B
:1016A0000000002F0000002F0001002E0000002E7F
:1016B0000000002E0001002D0000002D0000002D74
:1016C0000000002D0001002C0000002C0000002C68
:1016D0000000002C0001002B0000002B0000002B5C
:1016E0000000002B0001002A0000002A0000002A50
:1016F0000000002A00010029000000290000002944
:101700000000002900000029000100280000002836
:101710000000002800000028000000280001002729
:10172000000000270000002700000027000000271D
:101730000001002600000026000000260000002610
:101740000000002600010025000000250000002503
:1017500000000025000000250000002500010024F5
:1017600000000024000000240000002400000024E9
:1017700000010023000000230000002300000023DC
:1017800000000023000000230000002300010022CD
:1017900000000022000000220000002200000022C1
:1017A00000000022000100210000002100000021B3
:1017B00000000021000000210000002100000021A5
:1017C0000001002000000020000000200000002098
:1017D0000000002000000020000000200000002089
:1017E0000001001F0000001F0000001F0000001F7C
:1017F0000000001F0000001F0000001F0001001E6D
:101800000000001E0000001E0000001E000000047A
:101810003700001E290000511B0000581000001066
:10182000090000CC04000078020000410100004BD8
:1018300064200023646566696E6520444546415511
:101840004C545F004B69200023646566696E652017
:1018500044454641554C545F004B7020002364655D
:1018600066696E652044454641554C545F005049B9
:1018700044204175746F74756E652066696E697376
:10188000686564212050757420746865206C6173EC
:1018900074204B702C204B6920616E64204B6420B7
:1018A000636F6E7374616E74732066726F6D206205
:1018B000656C6F7720696E746F20436F6E66696721
:1018C00075726174696F6E2E680A00504944204138
:1018D00075746F74756E65206661696C656421202E
:1018E00074696D656F75740A00453120544845521E
:1018F0004D414C2052554E415741590042454420DC
:10190000544845524D414C2052554E415741590083
:10191000546865726D616C2052756E6177617900F3
:1019200045312048656174696E67206661696C6540
:1019300064004265642068656174696E6720666151
:10194000696C65640048656174696E6720666169E9
:101950006C656400504944204175746F74756E6500
:10196000206661696C6564212054656D70657261E3
:101970007475726520746F6F20686967680A00204B
:101980004B643A2000204B693A2000204B703A20EB
:10199000000A20436C617373696320504944200A34
:1019A000002054753A2000204B753A2000206D61CC
:1019B000783A2000206D696E3A200020643A2000B9
:1019C00020626961733A2000504944204175746F68
:1019D00074756E65206661696C656421204261647E
:1019E000206578747275646572206E756D626572BB
:1019F0000A00504944204175746F74756E652073F8
:101A0000746172740A006265640A002C2073797331
:101A100074656D2073746F70706564212048656112
:101A20007465725F49443A200020204E6F7A7A6CC8
:101A3000653A2000746F20636F6E74696E75652E51
:101A40002E2E00616E64207072657373206275744F
:101A5000746F6E00496E736572742066696C616D97
:101A6000656E740020204E6F7A7A6C653A200020F3
:101A70000066696C616D656E74206C6F61640057FF
:101A800061697420666F720020204E6F7A7A6C65EF
:101A90003A2000200066696C616D656E7420707577
:101AA000726765005761697420666F7200746F20F9
:101AB000726573756D65005761697420666F722079
:101AC0007072696E7400454550524F4D20646174C8
:101AD0006173697A65206572726F722E0A00290A35
:101AE000002062797465733B206372632000536544
:101AF0007474696E67732053746F72656420280074
:101B0000290A002062797465733B206372632000A8
:101B10002073746F7265642073657474696E677383
:101B200020726574726965766564202800202863D8
:101B3000616C63756C6174656429210A0020213D24
:101B40002000454550524F4D20435243206D69734C
:101B50006D61746368202D202873746F7265642929
:101B600020002053697A653A2000496E6465783A0E
:101B70002000204D61726C696E3D563535290A0092
:101B800028454550524F4D3D00454550524F4D2040
:101B900076657273696F6E206D69736D61746368C9
:101BA0002000202020202020005A00590020202042
:101BB0002000580009200000000000000000000084
:101BC0000000003FFFF000000000000000000000E7
:101BD000000038007000000000000000000000005D
:101BE0000030FC3000000000000000000000000099
:101BF00020FC100000000000000000000000002099
:101C000078100000000000000000000000002030FC
:101C1000100000000000000000000000002C00D0B8
:101C20003FC0000000000000002082002E31D07F65
:101C3000E0000000000000001041002F7BD07FE09A
:101C4000000000000000001041002F7BD07FE0006A
:101C50000000000000002082002E31D03FC00000B4
:101C600000000000004104002C00D03FC000000034
:101C7000000000008208002030107FE0000000001B
:101C80000000008208002078107FE00000000000C3
:101C9000000041040020FC107FE000000000000074
:101CA0000020820030FC301F800000000000000097
:101CB0000000003800700F0000000000000000FF6E
:101CC000FFC03FFFF0060000000000000000FFFF23
:101CD000C000000000000000000000000000000044
:101CE0003FFFF0000000000000000000000000388E
:101CF00000700000000000000000000000003186BD
:101D000030000000000000000000000000238710E9
:101D10000000000000000000000000002787900085
:101D200000000000000000000000002F87D000002D
:101D3000000000000000000000002F03D03FC000A2
:101D40000000000000002082002030107FE0000032
:101D500000000000001041002078107FE00000002B
:101D6000000000001041002078107FE0000000001B
:101D70000000002082002030103FC0000000000062
:101D800000004104002F03D03FC00000000000000D
:101D9000008208002F87D07FE000000000000000D4
:101DA0008208002787907FE00000000000000041CB
:101DB00004002387107FE000000000000000208264
:101DC000003186301F80000000000000000000008D
:101DD0003800700F0000000000000000FFFFC03F4F
:101DE000FFF0060000000000000000FFFFC0000040
:101DF00000414E45542041322052656164792E00E5
:101E00005072696E74696E672E2E2E005072696E64
:101E10007420706175736564003A004361703A0024
:101E2000205A00205900580020204D61783A2000A7
:101E3000205A00205900580020204D696E3A200099
:101E40004F6E20004F666600536F667420656E64A7
:101E500073746F70733A20004F66660A00466164BF
:101E600065204865696768742000426564204C6598
:101E700076656C696E6720004661696C65642074E4
:101E80006F20656E61626C6520426564204C6576EA
:101E9000656C696E670A004D657368204265642051
:101EA0004C6576656C20646174613A0A004D657317
:101EB0006820706F696E742063616E6E6F7420624B
:101EC00065207265736F6C7665640A004D3432313B
:101ED00020696E636F727265637420706172616DE8
:101EE000657465722075736167650A004D36303020
:101EF0003A20546F6F20636F6C6400486F74656E96
:101F00006420746F6F20636F6C640A00496E7365A0
:101F100072742066696C616D656E7420616E6420F8
:101F2000707265737320627574746F6E0A005072FC
:101F300065737320627574746F6E20746F206865AA
:101F40006174206E6F7A7A6C650A00496E736572EF
:101F5000742066696C616D656E7420616E642070BA
:101F60007265737320627574746F6E20286F7220AF
:101F70004D313038290A00496E73657274206669E4
:101F80006C616D656E7420616E6420707265737330
:101F900020627574746F6E20286F72204D31303856
:101FA000290A0000457874727564656420746F7442
:101FB000616C3A2000256C642E25696D00004C6F21
:101FC0006E67657374206A6F622074696D653A206C
:101FD0000000546F74616C207072696E74207469B3
:101FE0006D653A2000436F6D706C657465643A20CE
:101FF000005072696E7420436F756E743A20004D04
:1020000061782054656D703A20313330004D696E2F
:102010002054656D703A203500544265643A31258C
:1020200020626574612033393530004D6178205469
:10203000656D703A20323530004D696E2054656D03
:10204000703A20350054303A2031252062657461A1
:102050002033393530005053553A2047656E65724C
:1020600069630050726F746F636F6C3A20312E3069
:1020700000426175643A2031313532303000416EB2
:102080006574004D657368204C6576656C696E6794
:10209000004578747275646572733A203100687413
:1020A00074703A2F2F6D61726C696E66772E6F7245
:1020B0006700414E455420413200323031382D30D6
:1020C000372D3331006275676669782D312E312ED8
:1020D00078004D61726C696E005072696E74657241
:1020E00020537461747300546865726D6973746F02
:1020F000727300426F61726420496E666F005072A5
:10210000696E74657220496E666F004D61696E007C
:102110004D37303220542564004D36303020423067
:1021200020542564004D373032203B2564004D3764
:10213000303120542564004368616E67652066690C
:102140006C616D656E7400507265686561742041E4
:102150004253005072656865617420504C410043E1
:1021600068616E67652066696C616D656E740050AC
:1021700052494E542050415553454400554E4C4F02
:1021800041442046494C414D454E54004C4F41443A
:102190002046494C414D454E5400507572676520AC
:1021A0006D6F726500436F6E74696E7565005245A0
:1021B00053554D45204F5054494F4E533A0020201F
:1021C0004E6F7A7A6C653A20006368616E676500CD
:1021D0006F66207468652066696C616D656E740059
:1021E0005761697420666F72207374617274002085
:1021F000204E6F7A7A6C653A2000200066696C6127
:102200006D656E7420756E6C6F61640057616974E2
:1022100020666F720020204E6F7A7A6C653A20003B
:102220002000506C6561736520776169742E2E2ED5
:102230000048656174696E67206E6F7A7A6C65001C
:1022400020204E6F7A7A6C653A2000200068656124
:1022500074206E6F7A7A6C652E00507265737320ED
:10226000627574746F6E20746F00506C6561736575
:10227000207265736574005052494E54455220488F
:10228000414C544544005072696E74657220686117
:102290006C7465642E206B696C6C28292063616CFA
:1022A0006C6564210A001FFFFFFFFFFFFF60000055
:1022B000000001FF400000000000FF80000000005F
:1022C000007F83CF00000C303F87FF80000C301F61
:1022D000867980000C000F8C30C7838C30E78C30FF
:1022E000CFC7CC31F38C30DCECEC33B98C30D86C0C
:1022F0006C33198C30D06C0C33198C30D86C0C3397
:10230000198C30DC6C0E3B198C30CF7C079F198CFC
:1023100030C77C038F1940000000000002600000FD
:10232000000000061FFFFFFFFFFFF82020506C6138
:102330006E6E657242756666657242797465733A4F
:1023400020002046726565204D656D6F72793A20D8
:1023500000436F6D70696C65643A20446563203199
:102360003620323031380A00207C20417574686F85
:10237000723A2028466C6F7269616E20532C20419E
:102380004E455420413220636F6E666967203236B5
:102390002E382E3138290A00323031382D30372D81
:1023A000333100204C61737420557064617465642E
:1023B0003A20006275676669782D312E312E780AD1
:1023C000004D61726C696E0020536F6674776172A4
:1023D000652052657365740A0020576174636864F0
:1023E0006F672052657365740A002042726F776EC2
:1023F000206F75742052657365740A0020457874E7
:1024000065726E616C2052657365740A00506F7757
:10241000657255700A0073746172740A00656E719A
:1024200075657565696E672022005761726E696E09
:10243000673A20486F6D696E672042756D70204461
:10244000697669736F72203C20310A000202040031
:1024500000A0400000A040000000400000454300F4
:10246000007F43000034434572726F7220777269B7
:1024700074696E6720746F20454550524F4D210A94
:1024800000556E6B6E6F776E20636F6D6D616E645D
:102490003A202200486F74656E6420746F6F206369
:1024A0006F6C640A00486F6D652025732573257372
:1024B000206669727374002066697273740A005A28
:1024C0000059005800486F6D6520006563686F3AD9
:1024D000004572726F723A00453120544845524DA2
:1024E000414C2052554E41574159004245442054D9
:1024F0004845524D414C2052554E41574159005488
:102500006865726D616C2052756E6177617900004B
:10251000060900FE0701920321207FFF07FF07FF46
:10252000000000060000010707060200808080808E
:10253000800080030202060105A0A005070706002F
:10254000005050F850F8505005070706000020785A
:10255000A07028F020050707060000C0C810204022
:1025600098180507070600006090A040A890680230
:102570000303060104C04080030707060100204052
:102580008080804020030707060100804020202033
:10259000408005050506000120A870A82005050556
:1025A0000600012020F820200203030602FFC0409D
:1025B00080050101060003F8020202060200C0C005
:1025C00005050506000108102040800507070600E4
:1025D000007088888888887003070706010040C05B
:1025E00040404040E0050707060000708808708002
:1025F00080F8050707060000F81020100808F0050D
:10260000070706000010305090F810100507070665
:102610000000F880F00808887005070706000070C1
:102620008080F0888870050707060000F8081020F1
:1026300020202005070706000070888870888870B1
:1026400005070706000070888878080870020505ED
:10265000060200C0C000C0C00206060602FFC0C0DD
:1026600000C0408004070706000010204080402082
:1026700010050303060002F800F80407070601002E
:102680008040201020408005070706000070880861
:102690001020002005070706000070880868A8A819
:1026A00070050707060000708888F8888888050785
:1026B00007060000F08888F08888F0050707060004
:1026C0000070888080808870050707060000F08809
:1026D00088888888F0050707060000F88080F08069
:1026E00080F8050707060000F88080F080808005EC
:1026F0000707060000708880B888887005070706FD
:102700000000888888F8888888010707060200800A
:102710008080808080800507070600003810101038
:102720001090600507070600008890A0C0A0908860
:10273000050707060000808080808080F805070775
:1027400006000088D8A88888888805070706000042
:102750008888C8A8988888050707060000708888B8
:1027600088888870050707060000F08888F0808058
:102770008005070706000070888888A8906805070C
:1027800007060000F08888F0A0908805070706007B
:1027900000788080700808F0050707060000F82020
:1027A00020202020200507070600008888888888C8
:1027B00088700507070600008888888888502005EB
:1027C00007070600008888888888A850050707063C
:1027D0000000888850205088880507070600008878
:1027E000888850202020050707060000F8081020E0
:1027F0004080F8030707060100E08080808080E0C9
:1028000005050506000180402010080307070601A2
:1028100000E02020202020E00503030600042050D3
:1028200088050101060000F8020202060205804048
:10283000050505060000700878887805070706007A
:10284000008080B0C88888F005050506000070800B
:10285000808870050707060000080868988888784F
:102860000505050600007088F8807005070706005A
:10287000003048E0404040400506060600FF7088F2
:10288000887808700507070600008080B0C888882F
:10289000880107070602008000808080808003088E
:1028A000080601FF200020202020A0400407070682
:1028B0000000808090A0C0A090030707060100C020
:1028C0004040404040E0050505060000D0A8A8A80B
:1028D000A8050505060000B0C88888880505050616
:1028E000000070888888700506060600FFF088885A
:1028F000F080800506060600FF78888878080805BD
:102900000505060000B0C8808080050505060000AA
:1029100070807008F00407070600004040E0404067
:10292000403005050506000088888898680505057B
:102930000600008888885020050505060000888864
:10294000A8A85005050506000088502050880506F7
:10295000060600FF888888780870050505060000CF
:10296000F8102040F803070706010020404080408F
:10297000402001070706020080808080808080035D
:102980000707060100804040204040800502020603
:102990000002689000000006000048617264636FE6
:1029A0006465642044656661756C74205365747455
:1029B000696E6773204C6F616465640A00282300A8
:1029C000008813000032000000102700000000C83B
:1029D000430000C843000080400000C8410000C818
:1029E000420000C8420000C8430000BE4220286DDB
:1029F0006D290020204D36303320002055004C003A
:102A000046696C616D656E74206C6F61642F756EC4
:102A10006C6F6164206C656E677468733A0A00209D
:102A2000440020490020204D333034205000204401
:102A30000020490020204D333031205000504944BF
:102A40002073657474696E67733A0A00204600202B
:102A5000420020480020204D3134352053004D6184
:102A600074657269616C206865617475702070614D
:102A700072616D65746572733A0A00205A002059BC
:102A8000002020473239205333205800205A00209C
:102A9000204D3432302053004D6573682042656408
:102AA000204C6576656C696E673A0A00205A0020F2
:102AB000590020204D323036205800486F6D652077
:102AC0006F66667365743A0A00204500205A00203C
:102AD000590020580020540020530020204D32304F
:102AE0003520510020453C6D61785F655F6A6572F5
:102AF0006B3E0020583C6D61785F785F6A65726B51
:102B00003E20593C6D61785F795F6A65726B3E204B
:102B10005A3C6D61785F7A5F6A65726B3E00416412
:102B200076616E6365643A20513C6D696E5F7365D2
:102B3000676D656E745F74696D655F75733E205374
:102B40003C6D696E5F66656564726174653E2054B4
:102B50003C6D696E5F74726176656C5F6665656415
:102B6000726174653E0020540020520020204D32D6
:102B70003034205000416363656C65726174696F25
:102B80006E2028756E6974732F7332293A20503C79
:102B90007072696E745F616363656C3E20523C7253
:102BA0006574726163745F616363656C3E20543C5D
:102BB00074726176656C5F616363656C3E0A0020C8
:102BC0004500205A0020590020204D323031205835
:102BD000004D6178696D756D20416363656C657248
:102BE0006174696F6E2028756E6974732F73322952
:102BF0003A0A00204500205A0020590020204D327A
:102C000030332058004D6178696D756D20666565BB
:102C10006472617465732028756E6974732F7329EB
:102C20003A0A00204500205A0020590020204D3942
:102C30003220580053746570732070657220756E71
:102C400069743A0A0020204D3230302044300A00A6
:102C500020204D3230302044002044697361626C82
:102C600065640A0046696C616D656E7420736574F5
:102C700074696E67733A0020204D31343920432047
:102C80003B20556E69747320696E2043656C7369CF
:102C900075730A002020473231202020203B002578
:102CA00069730025696D20256973002569682025F1
:102CB000696D2025697300256964202569682025D0
:102CC000696D2025697300256979202569642025AF
:102CD00069682025696D20256973004B494C4C4576
:102CE000442E200053544F505045442E2000507223
:102CF000696E7465722073746F707065642064759A
:102D00006520746F206572726F72732E2046697829
:102D100020746865206572726F7220616E64207520
:102D20007365204D39393920746F20726573746171
:102D300072742E202854656D7065726174757265A9
:102D40002069732072657365742E20536574206941
:102D5000742061667465722072657374617274693F
:102D60006E67290A004E6F20436865636B73756D4B
:102D70002077697468206C696E65206E756D626578
:102D8000722C204C617374204C696E653A2000638C
:102D90006865636B73756D206D69736D61746368CD
:102DA0002C204C617374204C696E653A20004C698C
:102DB0006E65204E756D626572206973206E6F744A
:102DC000204C617374204C696E65204E756D626590
:102DD000722B312C204C617374204C696E653A2043
:102DE000004D3131300020496E76616C6964206598
:102DF00078747275646572200000060900FE000098
:102E000000000001090008FE000005080806000097
:102E100040F0C88888987810050808060000C0F8B7
:102E20008888888888F80505050600012030F83074
:102E3000200508080600002070F820202020E0056A
:102E400009090600FF2070A8A8B888887020050925
:102E5000090600FFE080C0B0A8283028280509092D
:102E60000600FFF8A88888888888A8F8050A0A0656
:102E700000FE205050505088A8A888700303030615
:102E8000000340A040526573656E643A20002074D0
:102E90006F6F206C6F6E6720657874727573696FE1
:102EA0006E2070726576656E7465640A0020636FCB
:102EB0006C6420657874727573696F6E20707265CA
:102EC00076656E7465640A00627573793A20706184
:102ED0007573656420666F7220696E7075740A0080
:102EE000627573793A2070617573656420666F72DC
:102EF00020757365720A00627573793A2070726F7B
:102F000063657373696E670A004B494C4C45442EE8
:102F100020004B494C4C20636175736564206279D5
:102F200020746F6F206D75636820696E61637469CA
:102F300076652074696D65202D2063757272656EEB
:102F40007420636F6D6D616E643A200046696C6138
:102F50006D656E7420757365643A200053746174F6
:102F6000733A20002C204C6F6E67657374206A6F73
:102F7000623A2000546F74616C2074696D653A2068
:102F80000053746174733A20002C204661696C65AB
:102F9000643A20002C2046696E69736865643A20A3
:102FA000005072696E74733A200053746174733AFE
:102FB0002000545249474745524544006F70656EA2
:102FC000003A20007A5F6D696E00795F6D696E006E
:102FD000785F6D696E005265706F7274696E6720FC
:102FE000656E6473746F70207374617475730A0016
:102FF0000A4D6561737572656420706F696E7473D4
:103000003A0A005A206F66667365743A20004E755E
:103010006D20582C593A20352C350A00000021002B
:10302000240027002A0000002200250028002B0091
:1030300000002000230026002900020202020202F2
:10304000020204040404040404040303030303034A
:103050000303010101010101010101020408102023
:103060004080010204081020408001020408102062
:10307000408080402010080402010000000102008E
:10308000000000000000040308070000000000002A
:1030900000000000000000000000F9E011241FBE45
:1030A000CFEFD0E4DEBFCDBF12E0A0E0B1E0E4E9B5
:1030B000FEED01E00BBF02C007900D92A034B107F6
:1030C000D9F72FE0A0E4B2E001C01D92A831B20709
:1030D000E1F718E1CEE4D8E104C02197FE010E9497
:1030E000C1ECCD34D107C9F70E94A6CC0C9448EFAF
:1030F0000C94000021E02093E70660936305709331
:103100006405809365059093660540E050E0BA0140
:1031100080916705909168050C94E68060E070E00E
:1031200080E291E40C947A1860E070E080E89FE31C
:103130000C947A186DEC7CEC8CEC9DE30C947A1872
:1031400080913801882331F060E070E08BE696E0F2
:103150000E94A38184E0809338018091EB06877000
:10316000873039F440E050E0BA018DEC90E20C94E5
:10317000E6800895CF92DF92EF92FF92CF93C82F0F
:103180000E9450CC6B017C0124EA30E74DE75FE3FD
:103190006091630570916405809165059091660565
:1031A0000E94F7E787FD05C08AEF90E0A0E0B0E05D
:1031B00003C080E090E0DC01C80ED91EEA1EFB1EB1
:1031C000C0925206D0925306E0925406F0925506F1
:1031D000C0933301CF91FF90EF90DF90CF9008958F
:1031E0008091610610926106882321F01092E70613
:1031F0000C948C816091F20D7091F30D8091F40D1F
:103200009091F50D611571058105910561F10E949F
:10321000FEE720916305309164054091650550916A
:1032200066050E945DE820918A0330918B034091EE
:103230008C0350918D030E94DFEC60938A0370939E
:103240008B0380938C0390938D0383E00E94BA18C4
:1032500081E0809338011092F20D1092F30D1092DC
:10326000F40D1092F50D80913801882349F08AE819
:1032700093E00E94F0A5BC0186ED97E00C94A38139
:1032800008953F924F925F926F927F928F929F929A
:10329000AF92BF92CF92DF92EF92FF920F931F9364
:1032A000CF93DF93CDB7DEB72A970FB6F894DEBF82
:1032B0000FBECDBF9A878987362E80916106109206
:1032C0006106882329F01092E7060E948C81F8C0DD
:1032D0008091F20D9091F30DA091F40DB091F50D48
:1032E0008D839E83AF83B887892B8A2B8B2B09F420
:1032F000A4C094E0699F80011124F801E258FC4FBA
:10330000408051806280738020E030E04AE754E4DE
:10331000C301B2010E94DEEC4B015C0120E030E011
:103320004AE754E4C301B2010E94DFEC6B017C0167
:10333000809100018823D1F1A1E03A1639F13A16C3
:10334000A0F0B2E03B1232C080905F059090600523
:10335000A0906105B0906205C0901D01D0901E0143
:10336000E0901F01F090200121C0809057059090BF
:103370005805A0905905B0905A05C0901501D090FD
:103380001601E0901701F090180110C080905B05C5
:1033900090905C05A0905D05B0905E05C09019010D
:1033A000D0901A01E0901B01F0901C016D817E818C
:1033B0008F8198850E94FEE7209163053091640516
:1033C00040916505509166050E945DE8A301920158
:1033D0000E94DFEC2B013C018D819E81AF81B8857D
:1033E000A3019201B7FF16C0C501B4010E9462EEAD
:1033F000181644F0F801E258FC4F40825182628274
:10340000738215C0F801E258FC4F80829182A2823B
:10341000B3820DC0C701B6010E94F7E787FFEACF6C
:10342000F801E258FC4FC082D182E282F382832D00
:103430000E94BA1881E0809338011092F20D109228
:10344000F30D1092F40D1092F50D80913801882340
:10345000B9F1A4E03A9EC0011124FC01E258FC4FEE
:10346000DC01AB51BD4F2D913D914D915C9160813F
:103470007181828193810E94DFEC69837A838B83DF
:103480009C832DEC3CEC4CEC5DE36091630570910A
:10349000640580916505909166050E9462EE87FD46
:1034A00005C0CE0101960E94F0A505C060E2CE01E4
:1034B00001960E9458A5BC0189859A850E94A38126
:1034C0002A960FB6F894DEBF0FBECDBFDF91CF9125
:1034D0001F910F91FF90EF90DF90CF90BF90AF9032
:1034E0009F908F907F906F905F904F903F90089546
:1034F00062E08FEC97E00C94411961E088EC97E072
:103500000C94411960E081EC97E00C9441193F92D2
:103510004F926F927F928F929F92AF92BF92CF9273
:10352000DF92EF92FF920F931F93CF9361E081E0C0
:103530000E946580C0915106412C3BE5632E37E027
:10354000732E04E817E041E9E42E47E0F42E5EE92B
:10355000C52E57E0D52E6EEAA62E67E0B62E72E491
:10356000872E77E0972EC11120C08091D80688233E
:1035700031F080913801882309F47AC00DC0809120
:1035800061068823B1F3109261060E948C818091BC
:10359000D706882371F338C281E09091D806911143
:1035A00080E024E04CEB57E060C0C13019F5809119
:1035B000D806813031F080913801882309F458C051
:1035C0000FC0809161068823B1F31092610684E1F7
:1035D00091E20E94CF748091D706882361F314C2D0
:1035E00081E09091D806913009F080E023E042EB31
:1035F00057E03BC0C23021F58091D806823029F0D7
:10360000809138018823A1F111C08091610688233F
:10361000B9F310926106B092C702A092C6020E944E
:1036200046AF8091D706882359F3EEC181E090918F
:10363000D806923009F080E020E244EA57E015C055
:10364000C33009F018C18091D806833009F400C155
:1036500080913801882361F081E09091D806933001
:1036600009F080E020E247E957E0642D0E9495A729
:103670008091E30681110BC02091E4063091E506AC
:1036800080913601909137012817390744F1C930EC
:1036900009F04BC08091D806893031F08091380113
:1036A000882309F442C011C0809161068823B1F3D8
:1036B000109261069092C7028092C6020E9446AFA5
:1036C0008091D706882351F39FC181E09091D8065D
:1036D000993009F080E020E242E357E023C0C9308E
:1036E00021F58091D806893029F08091380188230E
:1036F000E1F00FC0809161068823B9F31092610652
:1037000087EA91E90E94CF748091D706882369F3F4
:103710007BC181E09091D806993009F080E023E0E8
:1037200042E257E0642D0E9495A78091E4069091B3
:10373000E5062091050E3091060E232B11F4892BFE
:1037400061F1CA3069F58091D8068A3031F08091F4
:103750003801882309F455C113C08091610688237C
:10376000B1F3109261061092080E1092070E0E949B
:10377000C8420E9485818091D706882341F344C1C5
:1037800081E09091D8069A3009F080E020E24DE087
:1037900057E0642D0E9495A734C12AE0322E02C062
:1037A0009BE0392E3C1223C08091D806831529F066
:1037B000809138018823D9F00FC080916106882359
:1037C000B9F31092610681EE9DE20E94CF74809160
:1037D000D706882369F318C181E09091D8069C131D
:1037E00080E023E041E057E0642D0E9495A781E04E
:1037F000830D8C1323C08091D8068C1729F08091FB
:1038000038018823D9F00FC0809161068823B9F36D
:103810001092610683E29DE20E94CF748091D706E8
:10382000882369F3F1C081E09091D8069C1380E071
:1038300023E046E157E0642D0E9495A74394CF5FB3
:1038400095E0491290CE3394339430925006DCC008
:1038500080916106882309F4FBCE10926106D09214
:10386000C702C092C6020E9446AF8091D706882345
:1038700009F4EECEC9C0C43029F58091D806843051
:1038800031F080913801882309F4F2CE11C0809183
:1038900061068823B1F310926106F092C702E092AC
:1038A000C6020E9446AF8091D706882351F3ACC070
:1038B00081E09091D806943009F080E020E24AE857
:1038C00057E0D3CEC53029F58091D806853031F048
:1038D00080913801882309F4CBCE11C08091610614
:1038E0008823B1F3109261061093C7020093C602B9
:1038F0000E9446AF8091D706882351F385C081E0AE
:103900009091D806953009F080E020E24DE757E02D
:10391000ACCEC63019F58091D806863031F0809152
:103920003801882309F4A4CE0FC080916106882352
:10393000B1F31092610688E29DE10E94CF748091FC
:10394000D706882361F360C081E09091D806963055
:1039500009F080E023E040E757E087CEC73049F523
:103960008091D806873031F080913801882309F49E
:103970007FCE15C0809161068823B1F31092610655
:103980008CEF96E09093C7028093C6020E9446AFE8
:103990000E9485818091D706882331F335C081E06C
:1039A0009091D806973009F080E020E24FE557E08B
:1039B0005CCEC83009F05CCE8091D806883031F0FA
:1039C00080913801882309F453CE11C0809161069B
:1039D0008823B1F3109261067092C7026092C6020A
:1039E0000E9446AF8091D706882351F30DC081E035
:1039F0009091D806983009F080E020E24AE457E040
:103A000034CE8BE0382EF3CECF911F910F91FF90E3
:103A1000EF90DF90CF90BF90AF909F908F907F906E
:103A20006F904F903F90089581E08093E706109249
:103A3000EB0640E050E0BA0180EA98E10E94E6809F
:103A400086E796E09093C7028093C6020C9446AF37
:103A50002F923F924F925F926F927F928F929F929E
:103A6000AF92BF92CF92DF92EF92FF920F931F938C
:103A7000CF93DF9361E081E00E946580C0915106A1
:103A8000D0E0AA24A39464E6862E73E0972EE0ED9E
:103A90004E2EE7E05E2E612C712CF6E12F2EFEE615
:103AA0003F2EC11122C08091D806882331F0809129
:103AB0003801882309F444C00DC080916106882331
:103AC000B1F3109261060E948C818091D706882301
:103AD00071F3CDC181E09091D806911180E024E08E
:103AE00044EF56E06D2F0E9495A710919803177030
:103AF000C13049F58091D806813031F0809138018C
:103B0000882309F4AEC10FC0809161068823B1F308
:103B10001092610684E19DE10E94CF748091D706E6
:103B2000882361F3A4C181E09091D806913009F017
:103B300080E023E04AEE56E06D2F0E9495A791C1E8
:103B4000109198031770173021F40E940E3A8111DA
:103B500052C152E0B52EBC1255C08091D8068B15CB
:103B600031F080913801882309F44CC026C080913F
:103B700061068823B1F310926106A0925F0610924D
:103B80005B0610925C0610925D0610925E0638ECA1
:103B9000C32E3FE7D32EE12CF12C08EC12E420E0F9
:103BA00030E0A90163E575E089EC96E00E949CCACB
:103BB0008091D7068823A9F25AC188EC9FE79F938A
:103BC0008F931F928F921F921F9283E595E09F9390
:103BD0008F9381EB96E09F938F938DEB96E09F936D
:103BE0008F93DF9381E09091D8069C1380E08F93B0
:103BF0000E94B6828DB79EB70E960FB6F8949EBF00
:103C00000FBE8DBF81E08B0D8C1374C08091D806E0
:103C10008C1731F080913801882309F46BC058C0AB
:103C2000809161068823B1F3109261060E94C680DC
:103C300090923801ABEAB6E0B093010EA093000E6B
:103C40008EE592E09093FF0D8093FE0D88E19CEF4E
:103C5000AFEFBFEF8093FA0D9093FB0DA093FC0D97
:103C6000B093FD0D4092F60D5092F70D6092F80D55
:103C70007092F90D20E030E04AE754E460915E0272
:103C800070915F0280916002909161020E945DE8F4
:103C900020E030E04AE754E40E94DFEC0E94DBEDD4
:103CA0006093F20D7093F30D8093F40D9093F50DE6
:103CB00030924601209245011092040E1092030E9C
:103CC0001092020E8091D706882309F4A3CFCFC0AB
:103CD00011E08091D8068C1310E060E28EE592E04E
:103CE0000E9458A500E09C0145EA56E06D2F812F07
:103CF0000E94518212E01B0D8091EB068770873085
:103D000039F51C1323C08091D8068C1729F08091B7
:103D100038018823D9F00FC0809161068823B9F358
:103D2000109261068AEB9CE20E94CF748091D706C4
:103D3000882369F39CC081E09091D8069C1380E0B1
:103D400023E047E956E06D2F0E9495A713E01B0D75
:103D50001C1323C08091D806811729F08091380167
:103D60008823D9F00FC0809161068823B9F310929F
:103D700061060E94A4AE0E9433808091D7068823FA
:103D800069F375C081E09091D8069C1380E020E231
:103D900049E856E06D2F0E9495A781E0810F8C13B2
:103DA00021C08091D8068C1729F080913801882392
:103DB000C9F00DC0809161068823B9F310926106A5
:103DC0000E94782F8091D706882379F350C081E034
:103DD0009091D8069C1380E020E24AE756E06D2FD0
:103DE0000E9495A7DF5FCF5FD53009F05ACE1E5FE6
:103DF000109350063CC0C23071F51091BB03809106
:103E0000D806823081F480916106882361F0109297
:103E100061061A2590923801812F0E943B3A8091C9
:103E2000D706811124C0809138018823B9F011117F
:103E300003C025ED36E002C029ED36E081E0909127
:103E4000D806923009F080E001E04DED56E06D2F8C
:103E50000E94518203C023E0B22E7DCE93E0B92EA2
:103E6000D1CE173009F471CE82E0B82ECBCEDF91DF
:103E7000CF911F910F91FF90EF90DF90CF90BF9067
:103E8000AF909F908F907F906F905F904F903F90FA
:103E90002F900895FF920F931F93CF93DF93F82EE7
:103EA000709368056093670561E081E00E9465801A
:103EB000D0915106C0E081E091E0F91691F1F91638
:103EC00028F092E0F91609F457C081C0D111ADC0B5
:103ED0008823D9F08091D8061816BCF04091F20DD5
:103EE0005091F30D6091F40D7091F50D4F5F5F4FA0
:103EF0006F4F7F4F4093F20D5093F30D6093F40D8D
:103F00007093F50D8F5F8093D806809138018823D8
:103F100009F4E8C000E010E021E041E06EE178E063
:103F200080C0D11182C08823D9F08091D80618169C
:103F3000BCF04091F20D5091F30D6091F40D709131
:103F4000F50D4F5F5F4F6F4F7F4F4093F20D5093D2
:103F5000F30D6093F40D7093F50D8F5F8093D80689
:103F600080913801882309F4BDC000E010E021E011
:103F700041E067E178E055C0D11157C08823D9F0FE
:103F80008091D8061816BCF04091F20D5091F30DB7
:103F90006091F40D7091F50D4F5F5F4F6F4F7F4F44
:103FA0004093F20D5093F30D6093F40D7093F50D63
:103FB0008F5F8093D80680913801882309F492C0DE
:103FC00000E010E021E041E060E178E02AC0D1119A
:103FD0002CC08823D9F08091D8061816BCF04091E7
:103FE000F20D5091F30D6091F40D7091F50D4F5F4E
:103FF0005F4F6F4F7F4F4093F20D5093F30D6093DF
:10400000F40D7093F50D8F5F8093D8068091380181
:10401000882309F467C000E010E021E041E067E098
:1040200078E08C2F0E94F0825DC0D13009F580913C
:10403000D806813031F080913801882309F452C0CC
:104040000DC0809161068823B1F3109261060E9431
:104050008C818091D706882371F380C081E0909194
:10406000D806913009F080E024E04DEF57E037C0EA
:10407000D23011F58091D806823029F08091380134
:10408000882381F10FC0809161068823B9F31092D3
:1040900061068EE898E10E94CF748091D70688234C
:1040A00069F35CC081E09091D806923009F080E01D
:1040B00023E043EF57E013C0D33061F58091D80679
:1040C0008330C9F080913801882361F081E09091BC
:1040D000D806933009F080E023E04AEE57E06C2FD9
:1040E0000E9495A7CF5FDF5F80E0C53009F0E4CE86
:1040F000C093500633C080916106882319F3109253
:10410000610684E998E10E94CF748091D7068823E4
:10411000C9F224C0D43031F78091D806843029F018
:10412000809138018823F1F20FC0809161068823C5
:10413000B9F3109261068AE998E10E94CF748091E8
:10414000D706882369F30AC081E09091D80694309D
:1041500009F080E023E04FED57E0C1CFDF91CF9130
:104160001F910F91FF90089540E050E0BA018CE359
:104170009AE20E94E68081E08093C8028091520515
:10418000811103C08EE496E002C085E596E090932D
:10419000C7028093C6020C9446AF809138018823F1
:1041A00031F060E070E08CE596E00E94A3818091A0
:1041B000610610926106882321F0109252050C943A
:1041C000B42008952CEA35EC47E25EE3609169057E
:1041D00070916A0580916B0590916C050E9462ED6B
:1041E0006093990370939A0380939B0390939C032D
:1041F00008952CEA35EC47E25EE360916D0570911D
:104200006E0580916F05909170050E945DE8609346
:104210009D0370939E0380939F039093A003089542
:104220000C9438C20C9403C1CF93DF9361E081E01A
:104230000E946580D0915106C0E0D11120C08091CC
:10424000D806882331F080913801882309F476C09C
:104250000DC0809161068823B1F3109261060E941F
:104260008C818091D706882371F3A3C081E090915F
:10427000D806911180E024E043E458E05CC0D130DE
:1042800019F58091D806813031F08091380188236A
:1042900009F454C00FC0809161068823B1F31092D5
:1042A00061068CE793E20E94CF748091D706882341
:1042B00061F37FC081E09091D806913009F080E0F1
:1042C00023E04CE358E037C0D23011F58091D80696
:1042D000823029F080913801882381F10FC08091CC
:1042E00061068823B9F31092610681E893E20E9487
:1042F000CF748091D706882369F35BC081E09091E9
:10430000D806923009F080E023E045E358E013C07E
:10431000D33059F58091D8068330C1F080913801AF
:10432000882361F081E09091D806933009F080E015
:1043300023E04EE258E06C2F0E9495A7CF5FDF5F2D
:10434000C53009F07ACFC093500633C08091610622
:10435000882321F31092610686E893E20E94CF74CD
:104360008091D7068823D1F224C0D43039F78091C8
:10437000D806843029F0809138018823F9F20FC0E3
:10438000809161068823B9F3109261068BE893E26D
:104390000E94CF748091D706882369F30AC081E018
:1043A0009091D806943009F080E023E045E258E08F
:1043B000C2CFDF91CF910895CF93DF9361E081E089
:1043C0000E946580D0915106C0E0D11120C080913B
:1043D000D806882331F080913801882309F476C00B
:1043E0000DC0809161068823B1F3109261060E948E
:1043F0008C818091D706882371F312C181E090915E
:10440000D806911180E024E041EC58E05CC0D13046
:1044100019F58091D806813031F0809138018823D8
:1044200009F454C00FC0809161068823B1F3109243
:10443000610688EF94E20E94CF748091D7068823AA
:1044400061F3EEC081E09091D806913009F080E0F0
:1044500023E045EB58E037C0D23011F58091D80603
:10446000823029F080913801882381F10FC080913A
:1044700061068823B9F3109261068AE197E40E94ED
:10448000CF748091D706882369F3CAC081E09091E8
:10449000D806923009F080E023E04EEA58E013C0DD
:1044A000D33061F58091D8068330C9F0809138010E
:1044B000882361F081E09091D806933009F080E084
:1044C00023E045EA58E06C2F0E9495A7CF5FDF5F9D
:1044D000C53009F07ACF88E080935006A1C0809162
:1044E0006106882319F3109261068AE09CE40E9419
:1044F000CF748091D7068823C9F292C0D43001F5D9
:104500008091D806843029F0809138018823F1F217
:104510000DC0809161068823B9F3109261060E9454
:10452000782F8091D706882379F37AC081E0909123
:10453000D806943009F080E020E246E958E0C3CF85
:10454000D53019F58091D806853031F08091380149
:10455000882309F4BBCF0FC0809161068823B1F393
:10456000109261060E94A4AE0E9433808091D7060B
:10457000882361F355C081E09091D806953009F009
:1045800080E020E246E758E09ECFD63019F58091D2
:10459000D806863031F080913801882309F496CF0F
:1045A0000FC0809161068823B1F3109261060E94CA
:1045B0004EAD0E9443A78091D706882361F330C097
:1045C00081E09091D806963009F080E020E245E63F
:1045D00058E079CFD73009F079CF8091D80687306D
:1045E00031F080913801882309F470CF0FC0809199
:1045F00061068823B1F31092610683E193E20E9481
:10460000CF748091D706882361F30AC081E090912E
:10461000D806973009F080E023E044E858E053CF13
:10462000DF91CF9108951F93CF93DF9361E081E0F5
:104630000E94658010915106C0E0812F8C0F01F51A
:104640008091D806882331F080913801882309F4BD
:1046500048C00DC0809161068823B1F310926106B5
:104660000E948C818091D706882371F341C081E03C
:104670009091D806911180E024E04DE558E02EC0DD
:10468000813079F58091D806813029F08091380108
:10469000882339F11AC0809161068823B9F31092FA
:1046A00061060E944EAD0E94057BD82F882319F029
:1046B00080E00E946AA88D2F0E9433800E948C8126
:1046C0008091D706882311F313C081E09091D8061A
:1046D000913009F080E020E24BE458E06C2F0E941A
:1046E00095A7CF5FC53009F0A8CF82E08093500630
:1046F000DF91CF911F91089562E87AE180E00C94F8
:104700004A1F6DE77AE181E00C944A1F68E77AE17D
:1047100082E00C944A1F60EF78E183E00C944A1F1A
:104720002F923F924F925F926F927F928F929F92C1
:10473000AF92BF92CF92DF92EF92FF920F931F93AF
:10474000CF93DF93C82F61E081E00E9465804090A5
:104750005106512CD0E0CC0FDD1FCE01875E9C4F5F
:104760007C0192E6292E99E0392ECE018F5D9C4F77
:104770006C0125E7622E29E0722EC35EDC4F33E820
:10478000A32E39E0B32E4DE8842E49E0942E41103B
:1047900020C08091D806882331F080913801882389
:1047A00009F4B7C00DC0809161068823B1F310925F
:1047B00061060E948C818091D706882371F3FFC027
:1047C00081E09091D806911180E024E041EA59E01F
:1047D0009DC091E049123EC08091D806813031F0F1
:1047E00080913801882309F494C016C08091610635
:1047F0008823B1F31092610600E010E02FEF30E063
:1048000040E050E0BE0187E999E00E94F2E180912A
:10481000D706882329F3D3C01F928FEF8F931F925F
:104820001F92DF93CF93BF92AF929F928F925F922E
:1048300081E09091D806913009F080E08F930E943A
:1048400081E08DB79EB70C960FB6F8949EBF0FBE51
:104850008DBF5FC092E0491241C08091D80682307E
:1048600031F080913801882309F453C016C080913B
:1048700061068823B1F31092610600E010E02BEE90
:1048800030E045E050E0B6018CE799E00E94F2E1AB
:104890008091D706882329F392C01F928BEE8F93C5
:1048A0001F9285E08F93DF92CF928EE699E09F93DF
:1048B0008F937F926F925F9281E09091D8069230B1
:1048C00009F080E08F930E9481E08DB79EB70C962F
:1048D0000FB6F8949EBF0FBE8DBF1BC023E04216DB
:1048E00001F184E0481215C08091D806843009F4A3
:1048F00058C080913801882361F081E09091D806FA
:10490000943009F080E020E243E559E0652D0E94F3
:1049100095A75394439495E0591239CF509250067D
:104920004EC08091D806833029F0809138018823C9
:1049300081F316C0809161068823B9F31092610655
:1049400000E010E023E730E045E050E0B7018AE600
:1049500099E00E94F2E18091D706882331F32FC0BD
:104960001F9293E79F931F9285E08F93FF92EF92A0
:104970003F922F9286E699E09F938F935F9281E01A
:104980009091D806933009F080E08F930E9481E0E7
:104990008DB79EB70C960FB6F8949EBF0FBE8DBF15
:1049A000B8CF80916106882309F4A3CF10926106E5
:1049B0000E94782F8091D706882309F49ACFDF913F
:1049C000CF911F910F91FF90EF90DF90CF90BF900C
:1049D000AF909F908F907F906F905F904F903F909F
:1049E0002F90089581E00C94902380E00C94902304
:1049F0002F923F924F925F926F927F928F929F92EF
:104A0000AF92BF92CF92DF92EF92FF920F931F93DC
:104A1000CF93DF9361E081E00E946580D0915106E1
:104A2000C0E05524539444244A945CE0252E59E078
:104A3000352E6EE2A62E69E0B62E76E3872E79E05B
:104A4000972EEDE36E2EE9E07E2ED11123C08091EA
:104A5000D806882331F080913801882309F4ECC00E
:104A60000DC0809161068823B1F3109261060E9407
:104A70008C818091D706882371F35BC281E090918D
:104A8000D806911180E024E04BE459E06C2F0E949D
:104A900095A7D2C0D13009F04FC08091D80681309F
:104AA00031F080913801882309F4C6C021C080917B
:104AB00061068823B1F310926106D0935F061092CD
:104AC0005B0610925C0610925D0610925E0603E78C
:104AD0001FE22BEE30E040E050E064EE76E084E44C
:104AE00099E00E94F2E18091D7068823D1F221C299
:104AF00083E79FE29F938F931F922BEE2F931F923A
:104B00001F9284EE96E09F938F939F928F927F9255
:104B10006F92CF9381E09091D806913009F080E0B8
:104B20008F930E9481E08DB79EB70E960FB6F894D2
:104B30009EBF0FBE8DBF5AC1D23009F051C08091C7
:104B4000D806823031F080913801882309F474C08E
:104B500021C0809161068823B1F3109261065092C2
:104B60005F0610925B0610925C0610925D06109232
:104B70005E0606E71FE223E730E040E050E065E034
:104B80007EE082E399E00E94F2E18091D7068823DB
:104B9000D1F2CFC186E79FE29F938F931F9293E755
:104BA0009F931F921F9285E09EE09F938F938AE2CE
:104BB00099E09F938F93BF92AF92CF9381E09091B2
:104BC000D806923009F080E08F930E9481E08DB783
:104BD0009EB70E960FB6F8949EBF0FBE8DBF06C14E
:104BE000D33051F58091D806833009F43FC18091CC
:104BF0003801882309F4FAC01F924F921F921F9226
:104C000087E09EE09F938F933F922F9286E199E0F9
:104C10009F938F93CF9381E09091D806933009F0C2
:104C200080E08F930E9481E08DB79EB70C960FB6FF
:104C3000F8949EBF0FBE8DBF2CEA35EC47E25EE3D1
:104C400060919D0370919E0380919F039091A003BA
:104C50000E9462ED60936D0570936E0580936F0501
:104C6000909370052CEA35EC47E25EE3609199037E
:104C700070919A0380919B0390919C030E945DE840
:104C80006093690570936A0580936B0590936C053A
:104C9000D430A9F58091D806843031F08091380164
:104CA000882309F4DAC01CC0809161068823B1F31F
:104CB00010926106C12CD12CE12C18E1F12E0CE1EF
:104CC00016E420E030E040E85FE361EA73E086E06C
:104CD00099E00E9453E28091D7068823F9F229C116
:104CE00011E08091D806843009F010E081EA93E069
:104CF0000E94FFA300E09C0140E059E038C0D5309D
:104D0000D9F58091D806853031F08091380188231B
:104D100009F4A3C01EC0809161068823B1F31092EC
:104D2000610629EFC22E20E2D22EE12C18E1F12EED
:104D30000CE116E42AE037ED43E25CE36DE675E052
:104D40008AEF98E00E9453E28091D7068823E9F227
:104D5000F0C011E08091D806853009F010E08DE6B2
:104D600095E00E94FFA300E09C0144EF58E06C2F07
:104D7000812F0E94518271C0D63009F063C08091AA
:104D8000D806863031F080913801882309F465C057
:104D90001EC0809161068823B1F31092610682EEF5
:104DA000C82E80E2D82EE12C18E1F12E0CE116E499
:104DB00020E030E040E85FE369E675E08EEE98E0E1
:104DC0000E9453E28091D7068823E9F2B2C011E035
:104DD0008091D806863009F010E089E695E00E94BF
:104DE000FFA300E09C0148EE58E0C1CF2CEA35EC6F
:104DF00047E25EE360919D0370919E0380919F0363
:104E00009091A0030E9462ED60936D0570936E0512
:104E100080936F05909370052CEA35EC47E25EE3D2
:104E20006091990370919A0380919B0390919C03E8
:104E30000E945DE86093690570936A0580936B0535
:104E400090936C05D73009F04DC08091D80687301B
:104E500081F18091380181113BC0CF5FDF5FC530A8
:104E600009F0F3CD89E08093500663C0809161061C
:104E7000882309F4BCCE1092610650925F0610920E
:104E80005B0610925C0610925D0610925E0600E0D2
:104E900010E02FEF30E040E050E067E07EE080E29D
:104EA00099E00E94F2E18091D706882309F49FCE11
:104EB00040C080916106882361F21092610685EFFF
:104EC00094E20E94CF748091D706882311F231C0FA
:104ED00081E09091D806973009F080E023E047ED1B
:104EE00058E015C0D83009F0B8CF8091D806883086
:104EF00091F080913801882309F4AFCF81E090913F
:104F0000D806983009F080E023E046EC58E06C2F9A
:104F10000E9495A7A2CF80916106882351F3109239
:104F2000610682EF94E20E94CF748091D7068823B5
:104F300001F3DF91CF911F910F91FF90EF90DF90E0
:104F4000CF90BF90AF909F908F907F906F905F9029
:104F50004F903F902F9008952F923F925F926F92C3
:104F60007F928F929F92AF92BF92CF92DF92EF92F9
:104F7000FF920F931F93CF93DF9361E081E00E9434
:104F80006580C0915106512CD1E06DEA262E69E072
:104F9000362E7BE0A72E7AE0B72EE9E18E2EEAE0EE
:104FA0009E2EF0E26F2EFAE07F2EC11123C0809179
:104FB000D806882331F080913801882309F4CFC0C6
:104FC0000DC0809161068823B1F3109261060E94A2
:104FD0008C818091D706882371F319C281E090916A
:104FE000D806911180E024E04EE25AE0652D0E943F
:104FF00095A7B5C0C13009F051C08091D806813065
:1050000031F080913801882309F4A9C026C080912D
:1050100061068823B1F310926106C0935F06109277
:105020005B0610925C0610925D0610925E06C12C23
:10503000D12CE12C10ECF12E09E714E420E030E053
:1050400040E85FE36AE373E087E29AE00E949CCA6B
:105050008091D7068823A9F2DAC183E08F9387EE87
:105060008F931F92DF938AE393E09F938F939F9296
:105070008F927F926F925F9281E09091D8069130EB
:1050800009F080E08F930E94B6828DB79EB70C9690
:105090000FB6F8949EBF0FBE8DBF61C0C23009F03D
:1050A00053C08091D806823031F080913801882336
:1050B00009F455C026C0809161068823B1F310928F
:1050C0006106D0935F0610925B0610925C06109208
:1050D0005D0610925E06C12CD12CE12C10ECF12E55
:1050E00009E714E420E030E040E85FE36EE373E0BA
:1050F00082E19AE00E949CCA8091D7068823A9F297
:1051000086C183E08F9387EE8F931F92DF938EE3A8
:1051100093E09F938F9384E09AE09F938F93BF9245
:10512000AF925F9281E09091D806923009F080E0D2
:105130008F930E94B6828DB79EB70C960FB6F894E7
:105140009EBF0FBE8DBF0BC0C33009F05CC0809105
:10515000D806833069F08091380181112FC05394B3
:10516000CF5F95E0591221CF87E0809350064FC161
:1051700080916106882379F310926106D0935F06CF
:1051800010925B0610925C0610925D0610925E060D
:10519000C12CD12CE12C10ECF12E09E714E420E015
:1051A00030E040E85FE362E473E08DEF99E00E9455
:1051B0009CCA8091D706882371F229C183E08F931E
:1051C00087EE8F931F92DF9382E493E09F938F93F8
:1051D0008FEE99E09F938F9386EF99E09F938F9343
:1051E0005F9281E09091D806933009F080E08F9330
:1051F0000E94B6828DB79EB70C960FB6F8949EBFEC
:105200000FBE8DBFACCFC43009F055C08091D80619
:10521000843031F080913801882309F4A0CF26C072
:10522000809161068823B1F310926106D0935F06E6
:1052300010925B0610925C0610925D0610925E065C
:10524000C12CD12CE12C10ECF12E09E714E420E064
:1052500030E040E85FE366E473E088EE99E00E94A6
:105260009CCA8091D7068823A9F2D1C083E08F938E
:1052700087EE8F931F92DF9386E493E09F938F9343
:105280008AED99E09F938F9381EE99E09F938F939E
:105290005F9281E09091D806943009F080E08F937E
:1052A0000E94B6828DB79EB70C960FB6F8949EBF3B
:1052B0000FBE8DBF54CFC53009F054C08091D806C1
:1052C000853031F080913801882309F448CF25C01A
:1052D000809161068823B1F310926106D0935F0636
:1052E00010925B0610925C0610925D0610925E06AC
:1052F000C12CD12CE12C10ECF12E09E714E420E0B4
:1053000030E0A9016AE673E085ED99E00E949CCA4D
:105310008091D7068823B1F27AC083E08F9387EE1D
:105320008F931F921F928AE693E09F938F938BEC4B
:1053300099E09F938F9380ED99E09F938F935F9275
:1053400081E09091D806953009F080E08F930E941B
:10535000B6828DB79EB70C960FB6F8949EBF0FBE5F
:105360008DBFFDCEC63009F0FACE8091D8068630CA
:1053700031F080913801882309F4F1CE25C0809165
:1053800061068823B1F310926106D0935F061092F4
:105390005B0610925C0610925D0610925E06C12CB0
:1053A000D12CE12C10ECF12E09E714E420E030E0E0
:1053B000A90166E673E081EC99E00E949CCA8091A5
:1053C000D7068823B1F223C083E08F9387EE8F93B3
:1053D0001F921F9286E693E09F938F933F922F92A6
:1053E00087EB99E09F938F935F9281E09091D8062D
:1053F000963009F080E08F930E94B6828DB79EB7F9
:105400000C960FB6F8949EBF0FBE8DBFA8CEDF914D
:10541000CF911F910F91FF90EF90DF90CF90BF90B1
:10542000AF909F908F907F906F905F903F902F9064
:1054300008956091120170911301072E000C880BE2
:10544000990B0E94FEE72AE037ED43E25CE30E94FD
:105450005DE820918E0330918F034091900350912D
:1054600091030E945DE860930E0170930F01809399
:1054700010019093110108950F931F93CF93DF9321
:10548000CDB7DEB72A970FB6F894DEBF0FBECDBFFB
:10549000809138018823F1F01F9289E18F938091E8
:1054A000520590E001969F938F9388ED9BE09F9328
:1054B0008F938E010F5F1F4F1F930F930E948FE7F3
:1054C000B8018DEC9BE00E94A3810FB6F894DEBF7B
:1054D0000FBECDBF84E0809338018091C802811156
:1054E00007C040E050E0BA0186E99AE20E94E680F7
:1054F0002A960FB6F894DEBF0FBECDBFDF91CF91D5
:105500001F910F91089540E050E0BA0185E79BE2BA
:105510000E94E68010928105109282051092830508
:105520001092840581E08093E7060895CF92DF9280
:10553000EF92FF920F931F93CF93DF9300D000D091
:10554000CDB7DEB780916106109261068823E9F03D
:10555000809152058F5F80935205893198F081E0E8
:105560008093C80240E050E0BA0186E59BE20E94C9
:10557000E68086EC9BE09093C7028093C6020E946F
:1055800046AF87C00E94B42084C06091F20D709134
:10559000F30D8091F40D9091F50D61157105810564
:1055A000910509F446C00E94FEE72DEC3CEC4CEC62
:1055B0005CE30E945DE8209186033091870340916F
:1055C0008803509189030E94DFEC7B018C0120E06D
:1055D00030E040E050EC0E94F7E787FD0FC020E08C
:1055E00030E040E050E4B701C8010E9462EE1816B6
:1055F0004CF4E12CF12C00E010E404C0E12CF12C7F
:1056000000E010ECC701D8018093860390938703D4
:10561000A0938803B09389030E94D37F82E0809394
:1056200038011092F20D1092F30D1092F40D1092B9
:10563000F50D80913801882361F1C0908603D090E8
:105640008703E0908803F090890320E030E0A9010F
:10565000C701B6010E94F7E787FD05C027E137EBD8
:1056600041ED58E304C027E137EB41ED58EBC701AA
:10567000B6010E94DFEC69837A838B839C836BE2A3
:10568000CE0101960E9458A5BC018FEB9BE00E94C1
:10569000A3810F900F900F900F90DF91CF911F91EA
:1056A0000F91FF90EF90DF90CF9008950F931F938D
:1056B0008091C802811106C01092E7060E948C8179
:1056C0000E9443A780913801882349F000E010E050
:1056D00020E041E060EB7BE081E00E94F08282E02C
:1056E000809338011F910F910895CF93DF9300D0DD
:1056F00000D0CDB7DEB78091610610926106882395
:1057000029F01092E7060E948C816AC04091F20D48
:105710005091F30D6091F40D7091F50D4115510507
:1057200061057105B9F125E0249FC001259F900D09
:1057300011241092F20D1092F30D1092F40D1092AC
:10574000F50D21E0209338012091980322FF0AC033
:105750002091960330919703280F391F30939703B8
:1057600020939603092E000CAA0BBB0B40918105D8
:10577000509182056091830570918405840F951F77
:10578000A61FB71F8093810590938205A093830580
:10579000B093840580913801882311F160918105CF
:1057A0007091820580918305909184050E94FEE7A7
:1057B0002091790530917A0540917B0550917C05C7
:1057C0000E945DE869837A838B839C8360E2CE01CB
:1057D00001960E9458A5BC0184E69AE00E94A3812C
:1057E0000F900F900F900F90DF91CF910895CF926F
:1057F000DF92EF920F931F93CF93DF93CDB7DEB776
:1058000064970FB6F894DEBF0FBECDBF80E090E086
:10581000A0E8B0E48093860390938703A093880365
:10582000B09389030E94D37F809185058130C9F0B0
:105830007CF4811130C080E090E0A0EFB1E480936F
:105840007E0390937F03A0938003B093810312C0E3
:10585000823061F08330F9F480E090E0A0EFB1E4B1
:1058600012C080E090E0A0E2B3E40DC080E090E0E0
:10587000ACE5B3E48093820390938303A093840305
:10588000B093850308C080937E0390937F03A09319
:105890008003B0938103E090E20680E090E0A8E40A
:1058A000B2E4898B9A8BAB8BBC8B1D861E861F86C0
:1058B000188A80917E0390917F03A0918003B0911C
:1058C000810389839A83AB83BC8380918203909107
:1058D0008303A0918403B09185038D839E83AF835E
:1058E000B8878091860390918703A0918803B09137
:1058F000890389879A87AB87BC87AE01475F5F4F73
:10590000BE016B5F7F4FCE0101960E94D75DCE0135
:105910000D966C018E010F5E1F4F2AE833E0AE0139
:10592000475F5F4FBE016B5F7F4F0C970E948B4FAD
:1059300010928603109287031092880310928903B5
:105940000E94D37F809185058F5F84301CF4809303
:10595000850502C01092850564960FB6F894DEBFE7
:105960000FBECDBFDF91CF911F910F91EF90DF90D0
:10597000CF90089581E08093E70640E050E0BA01BF
:1059800088EC9CE20E94E680109285050C94F72B2F
:10599000CF93DF9361E081E00E946580D091510652
:1059A000C0E08D2F8C0FF9F48091D806882329F060
:1059B000809138018823E9F10DC080916106882328
:1059C000B9F3109261060E94F72B8091D7068823C5
:1059D00079F336C081E09091D806911180E020E201
:1059E00044EA5BE023C0813021F58091D806813004
:1059F00029F0809138018823E1F00FC08091610681
:105A00008823B9F3109261061092E7060E948C81F8
:105A10008091D706882369F313C081E09091D8065E
:105A2000913009F080E020E24FE95BE06C2F0E94AA
:105A300095A7CF5FC53009F0B4CF82E080935006C0
:105A4000DF91CF910895CF93DF9361E081E00E94D1
:105A50006580D0915106C0E0D11120C08091D80658
:105A6000882331F080913801882309F488C00DC063
:105A7000809161068823B1F3109261060E948C81A7
:105A80008091D706882371F399C081E09091D80660
:105A9000911180E024E047E95BE06EC0D13069F508
:105AA0008091D806813031F080913801882309F443
:105AB00066C019C0809161068823B1F31092610617
:105AC00040911F035091200360911B0370911C03B0
:105AD00080912303909124030E946DCA8091D70680
