:100000000C946C130C9496130C9496130C949613F6
:100010000C94F5320C94F5320C94F5320C94F532C4
:100020000C9496130C9496130C9496130C949613AC
:100030000C9496130C94A4230C9496130C9496137E
:100040000C9496130C9441210C9416960C949613D0
:100050000C94D61A0C94CC1A0C9496130C949613F8
:100060000C9496130C9496130C9496130C9496136C
:100070000C9496130C9496130C9496130C9496135C
:100080000C9496130C9496130C9496131C691F6988
:100090001269166936693669236927692D693169DC
:1000A000DA6CDF6CE46CEE6C1C6D1C6DF86C006D32
:1000B000086D126DB5745F739673F17496739673D1
:1000C00096739673967396739673967396739673E8
:1000D00096739673967396739673967396739673D8
:1000E00096739673967396739673967396739673C8
:1000F000EB74967396739673967396739673967362
:100100009673C47496739673967396739673967378
:10011000967396739673967308759373084AD73BD4
:100120003BCE016E84BCBFFDC12F3D6C74319ABDC6
:1001300056833DDA3D00C77F11BED9E4BB4C3E91EA
:100140006BAAAABE000000803F05A84CCDB2D44ED9
:10015000B93836A9020C50B9918688083CA6AAAADB
:100160002ABE000000803F004E414E494E4954597E
:10017000494E46CDCCCC3D0AD7233C17B7D1387772
:10018000CC2B329595E6241FB14F0A000020410088
:1001900000C84200401C4620BCBE4CCA1B0E5AAED2
:1001A000C59D74434F4D4D554E49434154494F4EA3
:1001B0000044525952554E004552524F5253004935
:1001C0004E464F004543484F0020746F6F206C6FC0
:1001D0006E6720657874727573696F6E20707265D2
:1001E00076656E7465640A0020636F6C64206578C0
:1001F00074727573696F6E2070726576656E746562
:10020000640A0047322F47332062616420706172B4
:10021000616D65746572730A00536C6565702E2E8E
:100220002E000000484200004842000080400000CC
:100230000000436C69636B20746F20726573756D89
:10024000652E2E2E004E6F206D6F76652E0025696F
:10025000730025696D20256973002569682025696B
:100260006D2025697300256964202569682025694A
:100270006D20256973002569792025696420256929
:10028000682025696D20256973005072696E74209D
:1002900074696D653A20004520436F6F6C696E6725
:1002A0002E2E2E00452048656174696E672E2E2E15
:1002B000006F666600C401BF01B801B101A301442B
:1002C000454255473A004D31313320530020573ACB
:1002D0000042656420636F6F6C696E672E2E2E007E
:1002E0004265642068656174696E672E2E2E006F0A
:1002F0006B00416E65742041322B204F46462E0024
:100300004D4F54494F4E5F4D4F444553005448455F
:10031000524D414C5F50524F54454354494F4E004B
:100320004155544F5245504F52545F53445F5354BC
:100330004154555300454D455247454E43595F5032
:10034000415253455200434153455F4C494748543D
:100350005F4252494748544E45535300544F474714
:100360004C455F4C494748545300534F46545741FE
:1003700052455F504F574552004255494C445F50DB
:10038000455243454E54004C4556454C494E475FF7
:1003900044415441005A5F50524F42450041555428
:1003A0004F4C4556454C005052494E545F4A4F42BF
:1003B0000050524F4752455353004155544F5245F8
:1003C000504F52545F54454D5000564F4C554D457B
:1003D0005452494300454550524F4D0053455249F0
:1003E000414C5F584F4E5F584F4646004649524D6C
:1003F000574152455F4E414D453A4D61726C696EB1
:10040000206275676669782D322E302E7820284755
:1004100069746875622920534F555243455F434FB5
:1004200044455F55524C3A68747470733A2F2F6785
:1004300069746875622E636F6D2F4D61726C696EA1
:100440004669726D776172652F4D61726C696E20BD
:1004500050524F544F434F4C5F56455253494F4EA5
:100460003A312E30204D414348494E455F54595052
:10047000453A416E65742041322B204558545255FF
:100480004445525F434F554E543A312055554944E7
:100490003A63656465326132662D343161322D34E0
:1004A0003734382D396231322D6335356336326653
:1004B00033363766660A002F2F20004D3134352041
:1004C000533C696E6465783E206F7574206F6620BA
:1004D00072616E67652028302D31290A0020540092
:1004E000205200416363656C65726174696F6E3A96
:1004F0002050004F4646004F4E00205A0020590021
:10050000580020204D61783A2000205A00205900E0
:10051000580020204D696E3A2000536F66742065A4
:100520006E6473746F70733A200020466C6F773A74
:10053000200050726F7465637465642050696E0AA0
:1005400000496E76616C69642065787472756465C3
:10055000720A0020643A0020693A0020703A004391
:10056000290A0061626C656420286D696E207465DB
:100570006D702000436F6C642065787472756465DB
:1005800073206172652000504944204175746F7476
:10059000756E65206661696C656421204261642026
:1005A0006578747275646572206E756D6265720A25
:1005B00000454550524F4D204F4B0A004E6F20636F
:1005C000617365206C696768740A00496E76616CB6
:1005D00069642065787472756465720A006F6B00D7
:1005E000456E6473746F7073202563202563202526
:1005F0006320256300205A3A0020593A0020583AD7
:1006000000656E6473746F7073206869743A2000BB
:100610004572726F722077726974696E6720746FA9
:1006200020454550524F4D210A000F150E12161746
:100630000E1303021A1401000E0C190DFF180C04FE
:100640000001627573793A20706175736564206684
:100650006F7220696E7075740A00627573793A2042
:1006600070617573656420666F7220757365720AB8
:1006700000627573793A2070726F63657373696E87
:10068000670A004B494C4C206361757365642062B6
:100690007920746F6F206D75636820696E61637473
:1006A0006976652074696D65202D206375727265A9
:1006B0006E7420636F6D6D616E643A2000506C65DE
:1006C000617365207265736574005052494E5445DC
:1006D000522048414C544544004B494C4C45442E13
:1006E00020005072696E7465722068616C74656474
:1006F0002E206B696C6C28292063616C6C65642109
:100700000A001FFFFFFFFFFFFF600000000001FF66
:10071000400000000000FF8000000000007F83CF49
:1007200000000C303F87FF80000C301F867980006E
:100730000C000F8C30C7838C30E78C30CFC7CC31A6
:10074000F38C30DCECEC33B98C30D86C6C33198C16
:1007500030D06C0C33198C30D86C0C33198C30DCE5
:100760006C0E3B198C30CF7C079F198C30C77C03F3
:100770008F19400000000000026000000000000629
:100780001FFFFFFFFFFFF82020506C616E6E657247
:1007900042756666657242797465733A2000204638
:1007A000726565204D656D6F72793A2000436F6DFB
:1007B00070696C65643A20446563203136203230BC
:1007C00031380A00207C20417574686F723A202805
:1007D0004D6F646D696B652C20416E6574204132EC
:1007E00020506C7573290A00323031382D30312D8C
:1007F000323000204C6173742055706461746564FC
:100800003A20006275676669782D322E302E780A9C
:10081000004D61726C696E0020536F66747761726F
:10082000652052657365740A0020576174636864BB
:100830006F672052657365740A002042726F776E8D
:10084000206F75742052657365740A0020457874B2
:1008500065726E616C2052657365740A00506F7723
:10086000657255700A0073746172740A0045312014
:10087000544845524D414C2052554E415741590024
:1008800042454420544845524D414C2052554E411A
:1008900057415900546865726D616C2052756E61E4
:1008A000776179004531204572723A204D415854A4
:1008B000454D50004572723A204D415854454D50B7
:1008C00020424544004D415854454D5020747269B2
:1008D000676765726564004531204572723A204D44
:1008E000494E54454D50004572723A204D494E5480
:1008F000454D5020424544004D494E54454D5020F1
:1009000074726967676572656400202F0020424039
:100910003A0020403A0020573A0024F4D43050C323
:100920008E20C2A24017828B7011127A910D816CB9
:10093000D90AA861E108C7586607615143061E4BF2
:100940005D05C145A7041A411104093D9803713999
:1009500031034036DB0265339102D4305402802EDD
:100960001D02632CEE01752AC501B028A0011027D5
:1009700081018F2564012B244B01E0223401AC213D
:100980001F018D200D01801FFC00841EED00971DAE
:10099000DF00B81CD200E61BC600201BBC00641A96
:1009A000B200B219A8000A19A0006A189900D1175C
:1009B000910040178B00B516840031167E00B315E8
:1009C00079003A157300C7146F0058146A00EE13CB
:1009D00066008813630025135E00C7125B006C126B
:1009E000570015125400C111510070114F00211110
:1009F0004B00D61049008D104700461044000210ED
:100A00004200C00F4000800F3E00420F3C00060F26
:100A10003B00CB0E3800930E37005C0E3500270EDE
:100A20003400F30D3200C10D3100900D3000600D27
:100A30002E00320D2D00050D2C00D90C2B00AE0C14
:100A40002900850C29005C0C2700350C27000E0CB2
:100A50002600E80B2400C40B2400A00B23007D0B10
:100A600023005A0B2100390B2100180B2000F80A33
:100A70001F00D90A1E00BB0A1E009D0A1D00800A25
:100A80001D00630A1C00470A1B002C0A1B00110AE8
:100A90001A00F7091A00DD091900C4091900AB0989
:100AA0001900920917007B091800630917004C0907
:100AB000160036091600200916000A091500F50867
:100AC0001500E0081400CC081400B8081400A408AD
:100AD0001400900813007D0812006B0813005808DA
:100AE00012004608120034081100230811001208F1
:100AF000110001081100F0071000E0071000D007F6
:100B00001000C0071000B0070F00A10710009107E8
:100B10000E0083070F0074070F0065070E005707CC
:100B20000E0049070E003B070D002E070E002007A0
:100B30000D0013070D0006070D00F9060C00ED0669
:100B40000D00E0060C00D4060C00C8060C00BC0624
:100B50000C00B0060C00A4060B0099060C008D06D4
:100B60000B0082060B0077060B006C060B0061067B
:100B70000A0057060B004C060A0042060A00380617
:100B80000A002E060A0024060A001A060A001006A9
:100B9000090007060A00FD050900F4050900EB0538
:100BA0000900E2050900D9050900D0050900C705BB
:100BB0000900BE050900B5050800AD050800A5053A
:100BC00009009C050800940508008C0508008405B0
:100BD00008007C050800740508006C050700650521
:100BE00008005D050700560508004E05070047058B
:100BF00007004005080038050700310507002A05F1
:100C00000700230507001C050600160507000F0551
:100C100007000805060002050700FB040600F504AE
:100C20000700EE040600E8040600E2040700DB0407
:100C30000600D5040600CF040600C9040600C3045C
:100C40000600BD040600B7040600B1040500AC04AC
:100C50000600A6040600A00405009B0406009504F7
:100C60000500900406008A04050085040500800440
:100C700006007A04050075040500700405006B0485
:100C8000050066040500610405005C0405005704C6
:100C90000500520405004D04050048040500430406
:100CA00005003E0404003A04050035040500300444
:100CB00004002C04050027040400230405001E047E
:100CC00004001A04040016040500110404000D04B5
:100CD0000400090405000404040000040400FC03EB
:100CE0000400F8030400F4030400F0030400EC0320
:100CF0000400E8030400E4030400E0030400DC0350
:100D00000400D8030400D4030400D0030400CC037F
:100D10000400C8030300C503030024F404D9201B06
:100D2000C40C5C0E9804C4095F0265077101F405E8
:100D3000F900FB04B30048048700C10369005803AD
:100D4000550003034500BE023A00840231005302FD
:100D50002A002902250004022000E4011C00C80129
:100D60001900AF01170098011400840113007101EC
:100D700010006101100051010E0043010D00360109
:100D80000B002B010B0020010B00150109000C01C9
:100D9000090003010800FB000800F3000800EB0055
:100DA0000700E4000600DE000600D8000600D200BE
:100DB0000600CC000500C7000500C2000500BD000C
:100DC0000400B9000400B5000400B1000400AD0047
:100DD0000400A9000400A5000300A20003009F0076
:100DE00004009B000300980003009500020093009C
:100DF0000300900003008D0002008B0003008800B8
:100E000002008600020084000300810002007F00CF
:100E100002007D0002007B000200790002007700E2
:100E200001007600020074000200720001007100EF
:100E300002006F0002006D0001006C0002006A00F9
:100E40000100690002006700010066000100650002
:100E50000100640002006200010061000100600006
:100E600001005F0002005D0001005C0001005B000A
:100E700001005A000100590001005800010057000C
:100E8000010056000100550001005400010053000C
:100E90000000530001005200010051000100500009
:100EA00001004F0001004E0000004E0001004D0007
:100EB00001004C0001004B0000004B0001004A0003
:100EC00001004900010048000000480001004700FF
:100ED00001004600000046000100450000004500FA
:100EE00001004400010043000000430001004200F3
:100EF00000004200010041000000410001004000EC
:100F000001003F0000003F0001003E0000003E00E5
:100F100001003D0000003D0001003C0000003C00DD
:100F200000003C0001003B0000003B0001003A00D3
:100F300000003A00010039000000390001003800CB
:100F400000003800000038000100370000003700C2
:100F500001003600000036000000360001003500B8
:100F600000003500000035000100340000003400AE
:100F700000003400010033000000330000003300A3
:100F80000100320000003200000032000100310098
:100F9000000031000000310001003000000030008E
:100FA0000000300001002F0000002F0000002F0083
:100FB00000002F0001002E0000002E0000002E0077
:100FC00001002D0000002D0000002D0000002D006C
:100FD00001002C0000002C0000002C0000002C0060
:100FE00001002B0000002B0000002B0000002B0054
:100FF00001002A0000002A0000002A0000002A0048
:10100000010029000000290000002900000029003B
:10101000000029000100280000002800000028002E
:101020000000280000002800010027000000270021
:101030000000270000002700000027000100260014
:101040000000260000002600000026000000260008
:1010500001002500000025000000250000002500FB
:1010600000002500000025000100240000002400ED
:1010700000002400000024000000240001002300E0
:1010800000002300000023000000230000002300D4
:1010900000002300000023000100220000002200C5
:1010A00000002200000022000000220000002200B8
:1010B00001002100000021000000210000002100AB
:1010C000000021000000210000002100010020009C
:1010D0000000200000002000000020000000200090
:1010E00000002000000020000000200001001F0080
:1010F00000001F0000001F0000001F0000001F0074
:1011000000001F0000001F0001001E0000001E0064
:1011100000001E0000001E000000043700001E2911
:101120000000511B00005810000010090000CC0402
:101130000000780200004101000048617264636FA2
:101140006465642044656661756C742053657474CD
:10115000696E6773204C6F616465640A00B80B00A8
:1011600000B80B000064000000102700000000968B
:1011700043000096430000A0400000C8410000C8A2
:10118000420000C8420000C8430000BE42204400A4
:1011900020490020204D3330312050005049442058
:1011A00073657474696E67733A0A002046002042C2
:1011B0000020480020204D3134352053004D61740B
:1011C000657269616C206865617475702070617208
:1011D000616D65746572733A0A00205A00205900E7
:1011E00020204D323036205800486F6D65206F66E4
:1011F000667365743A0A00204500205A00205900A1
:1012000020580020540020530020204D323035203B
:10121000420020453C6D61785F655F6A65726B3E98
:101220000020583C6D61785F785F6A65726B3E2084
:10123000593C6D61785F795F6A65726B3E205A3CFC
:101240006D61785F7A5F6A65726B3E0041647661BA
:101250006E6365643A20423C6D696E5F7365676DCD
:10126000656E745F74696D655F75733E20533C6D88
:10127000696E5F66656564726174653E20543C6D9D
:10128000696E5F74726176656C5F666565647261D4
:1012900074653E0020540020520020204D3230342E
:1012A000205000416363656C65726174696F6E20E4
:1012B00028756E6974732F7332293A20503C70720E
:1012C000696E745F616363656C3E20523C72657445
:1012D000726163745F616363656C3E20543C747239
:1012E0006176656C5F616363656C3E0A0020450052
:1012F000205A0020590020204D3230312058004D16
:101300006178696D756D20416363656C65726174A8
:10131000696F6E2028756E6974732F7332293A0ACB
:1013200000204500205A0020590020204D32303343
:101330002058004D6178696D756D20666565647231
:10134000617465732028756E6974732F73293A0A66
:1013500000204500205A0020590020204D3932201D
:10136000580053746570732070657220756E6974CF
:101370003A0A0020204D3230302044300A0020202C
:101380004D3230302044002044697361626C6564E2
:101390000A0046696C616D656E74207365747469CA
:1013A0006E67733A0020204D3134392043203B20B2
:1013B000556E69747320696E2043656C736975732B
:1013C0000A0020286D6D290020204732312020207E
:1013D000203B20556E69747320696E206D6D006F1F
:1013E00070656E00545249474745524544003A20C3
:1013F000007A5F6D696E00795F6D696E00785F6D70
:10140000696E005265706F7274696E6720656E64F4
:1014100073746F70207374617475730A00205A3A84
:101420000020593A0020436F756E7420583A00200E
:10143000453A00205A3A0020593A00583A00486F7D
:101440006D696E67206661696C656400000000006C
:1014500000000000000000005761726E696E673A7C
:1014600020486F6D696E672042756D702044697603
:1014700069736F72203C20310A000202040000A050
:10148000400000A0400000004000005C43000087D6
:101490004300004843FFFFFF556E6B6E6F776E2071
:1014A000636F6D6D616E643A20220020746F6F204F
:1014B0006C6F6E6720657874727573696F6E2070DB
:1014C000726576656E7465640A0020636F6C6420D3
:1014D000657874727573696F6E2070726576656E6B
:1014E0007465640A0000005C430000874300004804
:1014F00043000000000000000000000000290A0076
:101500002062797465733B206372632000536574B5
:1015100074696E67732053746F7265642028004588
:101520004550524F4D206461746173697A6520653E
:1015300072726F722E0A00290A0020627974657334
:101540003B2063726320002073746F7265642073A4
:10155000657474696E677320726574726965766507
:1015600064202800202863616C63756C6174656475
:1015700029210A0020213D2000454550524F4D2091
:10158000435243206D69736D61746368202D202878
:1015900073746F7265642920002053697A653A205C
:1015A00000496E6465783A2000204D61726C696E66
:1015B0003D563633290A0028454550524F4D3D00CF
:1015C000454550524F4D2076657273696F6E206DA0
:1015D00069736D6174636820004D6F7665205800F3
:1015E0004D6F76652059004D6F7665205A0045781D
:1015F0007472756465720045787472756465720002
:101600004D6F7665205A004D6F76652059004D6FFD
:1016100076652058004D6F74696F6E004732380050
:1016200044697361626C6520737465707065727370
:10163000004D3834004C6576656C20636F726E65C2
:101640007273004175746F20686F6D6500473238A2
:10165000004D6F76652061786973004D61696E0099
:101660005072656865617420504C4120456E64007D
:101670005072656865617420504C41204265640079
:101680005072656865617420504C410054656D70FE
:101690006572617475726500507265686561742069
:1016A00041425320456E6400507265686561742044
:1016B0004142532042656400507265686561742040
:1016C0004142530054656D706572617475726500B6
:1016D00050726568656174204142530050726568BC
:1016E00065617420504C4100436F6F6C646F776E7E
:1016F0000046616E2073706565640046616E2073FC
:10170000706565640042656400426564004E6F7AEE
:101710007A6C65004E6F7A7A6C65004D61696E0077
:1017200046696C2E204469612E0046696C2E204467
:1017300069612E004F6666004F6E004520696E207D
:101740006D6D5E3300416476616E63656420536540
:101750007474696E6773005049442D4400504944C5
:101760002D44005049442D49005049442D49005012
:1017700049442D50005049442D5000200820466116
:1017800063740020082046616374002008204D61C6
:1017900078002008204D6178002008204D696E00F7
:1017A0002008204D696E004F6666004F6E0041753F
:1017B000746F74656D7000416476616E636564205A
:1017C00053657474696E677300656E7175657565D0
:1017D000696E67202200526573656E643A2000537B
:1017E000544F505045442E20005072696E746572FB
:1017F0002073746F707065642064756520746F2049
:101800006572726F72732E20466978207468652045
:101810006572726F7220616E6420757365204D3938
:10182000393920746F20726573746172742E2028A8
:1018300054656D706572617475726520697320728C
:10184000657365742E205365742069742061667415
:1018500065722072657374617274696E67290A001B
:101860004E6F20436865636B73756D20776974688C
:10187000206C696E65206E756D6265722C204C61FE
:101880007374204C696E653A2000636865636B73FE
:10189000756D206D69736D617463682C204C617384
:1018A00074204C696E653A20004C696E65204E7557
:1018B0006D626572206973206E6F74204C61737461
:1018C000204C696E65204E756D6265722B312C203F
:1018D0004C617374204C696E653A20004D31313093
:1018E000004572723A207574663820666F6E7420F7
:1018F0006E6F7420696E697469616C697A65642EB3
:10190000004572723A207574663820666F6E7420D6
:101910006E6F7420696E697469616C697A65642E92
:10192000004572723A207574663820666F6E7420B6
:101930006E6F7420696E697469616C697A65642E72
:101940000000060C00FE07022603BC017FFE08FE15
:1019500008FE05080806000040F0C888889878103E
:10196000050808060000C0F88888888888F80505FA
:10197000050600012030F830200508080600002088
:1019800070F820202020E00509090600FF2070A83B
:10199000A8B888887020050606060001E08CEA8C4D
:1019A0008A0A0509090600FFF8A88888888888A897
:1019B000F8050A0A0600FE205050505088A8A88852
:1019C0007003030306000340A040FFFFFFFFFFFF7B
:1019D000FFFFFFFFFFFFFFFFFFFFFFFFFFFFFFFF17
:1019E0000000000605FF01070706020080808080D6
:1019F000800080030303060105A0A0A005060606DB
:101A0000000050F85050F8500509090600FF2070FA
:101A1000A8A07028A87020050707060000C8C810F5
:101A20002040989805070706000040A0A040A89015
:101A3000680103030602058080800309090601FF8F
:101A40002040408080804040200309090601FF803B
:101A5000404020202040408005070706000020A8C5
:101A6000702070A8200505050600012020F8202020
:101A70000203030601FFC04080050101060003F8D0
:101A8000020202060100C0C0050707060000081098
:101A90001020404080050707060000708898A8C8FD
:101AA000887003070706010040C040404040E00541
:101AB0000707060000708808102040F80507070691
:101AC0000000F808103008887005070706000010AD
:101AD000305090F81010050707060000F880F00855
:101AE000088870050707060000304080F08888707D
:101AF000050707060000F80810102020200507073A
:101B00000600007088887088887005070706000046
:101B100070888878081060020505060100C0C000C2
:101B2000C0C00206060601FFC0C000C04080030519
:101B3000050601012040804020050303060002F84D
:101B400000F80305050601018040204080050707D5
:101B500006000070881020200020050707060000FE
:101B60007088B8A8B88070050707060000708888DC
:101B7000F8888888050707060000F048487048483C
:101B8000F0050707060000708880808088700507D0
:101B900007060000F04848484848F00507070600D7
:101BA00000F88080F08080F8050707060000F880C4
:101BB00080F080808005070706000070888080988C
:101BC0008870050707060000888888F888888803D9
:101BD0000707060100E04040404040E005070706D7
:101BE00000003810101010906005070706000088EC
:101BF00090A0C0A090880507070600008080808024
:101C00008080F805070706000088D8A8888888889B
:101C10000507070600008888C8A898888805070770
:101C2000060000708888888888700507070600000D
:101C3000F08888F08080800507070600007088889B
:101C400088A89068050707060000F08888F0A09033
:101C500088050707060000708880700888700507EF
:101C600007060000F8202020202020050707060096
:101C7000008888888888887005070706000088889B
:101C8000888850502005070706000088888888A8A3
:101C9000A85005070706000088885020508888054E
:101CA0000707060000888850202020200507070627
:101CB0000000F80810204080F80309090601FFE041
:101CC00080808080808080E00507070600008040DB
:101CD00040201010080309090601FFE02020202001
:101CE000202020E00503030600052050880501019F
:101CF0000600FEF8030303060105804020050505E4
:101D000006000070087888780507070600008080C4
:101D1000F0888888F00505050600007080808870CE
:101D200005070706000008087888888878050505F3
:101D30000600007088F08070050707060000304834
:101D400040E04040400507070600FE70888888781C
:101D500008700507070600008080F08888888803DF
:101D600007070601004000C0404040E004090906A2
:101D700001FE1000301010101090600507070600DB
:101D80000080808890E09088030707060100C0402B
:101D900040404040E0050505060000D0A8A8A8A8DE
:101DA000050505060000B0C88888880505050600F9
:101DB0000070888888700507070600FEF08888880C
:101DC000F080800507070600FE7888888878080874
:101DD000050505060000B0C88080800505050600E1
:101DE0000078807008F00507070600002020F82022
:101DF00020201805050506000088888898680505D4
:101E00000506000088888850200505050600008822
:101E100088A8A850050505060000885020508805B0
:101E200007070600FE8888885020408005050506C3
:101E30000000F8102040F80309090601FF20404087
:101E40004080404040200109090602FF80808080D8
:101E500080808080800309090601FF804040402087
:101E60004040408005030306000248A890FF4261FD
:101E7000627973746570205A004261627973746587
:101E800070205A00466C6F7700466C6F7700466191
:101E90006E2073706565640046616E2073706565C1
:101EA000640042656400426564004E6F7A7A6C6536
:101EB000004E6F7A7A6C65005370656564005370EC
:101EC000656564004D61696E00202020202020009F
:101ED00020202020001FE0201020102010102010B3
:101EE000202010201030300840048003001FE03F05
:101EF000F03FF03FF01FE01FE03FF03FF03FF00FFA
:101F0000C0078003003FFFF038007030FC3020FC39
:101F1000102078102030102C00D02E31D02F7BD004
:101F20002F7BD02E31D02C00D020301020781020E4
:101F3000FC1030FC303800703FFFF03FFFF03800FD
:101F4000703186302387102787902F87D02F03D0BA
:101F50002030102078102078102030102F03D02F40
:101F600087D02787902387103186303800703FFF55
:101F7000F01FFFF81FFFF80410400208200208209D
:101F80000410400820801041001041000820800407
:101F900010400000001FFFF81FFFF8000021002480
:101FA0000027002A0000002200250028002B000046
:101FB0000020002300260029000202020202020281
:101FC00002040404040404040403030303030303DA
:101FD0000301010101010101010102040810204077
:101FE00080010204081020408001020408102040F3
:101FF000808040201008040201000000010200005F
:1020000000000000000403080700000000000000BA
:102010000000000000000000004D6F766520302EAB
:10202000316D6D004D6F766520316D6D004D6F76B1
:10203000652031306D6D004D6F7665206178697374
:1020400000486F74656E6420746F6F20636F6C64FA
:10205000004578747275646572004D6F7665205A1C
:10206000004D6F76652059004D6F7665205800420F
:1020700061636B004E65787420636F726E657200E9
:10208000486F6D696E672058595A0053746F7265B6
:102090002073657474696E677300426564004265FD
:1020A00064004E6F7A7A6C65004E6F7A7A6C6500C8
:1020B00046616E2073706565640046616E207370C2
:1020C00065656400436F6E66696775726174696FF8
:1020D0006E004C6F61642073657474696E67730081
:1020E000526573746F7265206661696C73616665B1
:1020F0000053746F72652073657474696E67730042
:10210000507265686561742041425320636F6E664A
:10211000005072656865617420504C4120636F6E99
:102120006600416476616E6365642053657474690A
:102130006E6773004D61696E00436F6E6669677507
:10214000726174696F6E0054656D7065726174754B
:102150007265004D6F74696F6E0054756E6500494D
:102160006E666F2073637265656E0056652D6A65D5
:10217000726B0056652D6A65726B00567A2D6A6522
:10218000726B00567A2D6A65726B0056792D6A65FE
:10219000726B0056792D6A65726B0056782D6A65F0
:1021A000726B0056782D6A65726B00416476616EC1
:1021B0006365642053657474696E67730045737456
:1021C0006570732F6D6D004573746570732F6D6D41
:1021D000005A73746570732F6D6D005A7374657057
:1021E000732F6D6D005973746570732F6D6D005989
:1021F00073746570732F6D6D005873746570732FF1
:102200006D6D005873746570732F6D6D0041647649
:10221000616E6365642053657474696E6773004909
:102220006E697469616C697A6520454550524F4DFD
:1022300000416476616E6365642053657474696EF1
:102240006773004D34323800496E697469616C6996
:102250007A6520454550524F4D0046696C616D6569
:102260006E740054656D70657261747572650053AB
:10227000746570732F6D6D004A65726B0041636306
:10228000656C65726174696F6E0056656C6F636929
:1022900074790053657420686F6D65206F6666738E
:1022A00065747300436F6E66696775726174696FF8
:1022B0006E006563686F3A004572726F723A002073
:1022C000496E76616C6964206578747275646572B4
:1022D0002000486F6D65202573257325732066697E
:1022E000727374002066697273740A005A00590090
:1022F0005800486F6D6520004F66667365747320E3
:102300006170706C696564004572723A20546F6F39
:10231000206661722100546F6F20666172206672C0
:102320006F6D207265666572656E636520706F699A
:102330006E740A004361703A005654726176206DE3
:10234000696E005654726176206D696E00566D6933
:102350006E00566D696E00566D6178204500566DB1
:102360006178204500566D6178205A00566D61787D
:10237000205A00566D6178205900566D61782059B9
:1023800000566D6178205800566D617820580041E4
:102390006476616E6365642053657474696E6773F7
:1023A00000416D6178204500416D61782045004114
:1023B0006D6178205A00416D6178205A00416D614D
:1023C00078205900416D6178205900416D61782075
:1023D0005800416D6178205800412D747261766516
:1023E0006C00412D74726176656C00412D726574CC
:1023F0007261637400412D7265747261637400418F
:102400006363656C00416363656C00416476616E73
:102410006365642053657474696E67730023646533
:1024200066696E652044454641554C545F004B64D7
:1024300020004B6920004B7020005049442041751A
:10244000746F74756E652066696E69736865642162
:102450002050757420746865206C617374204B7013
:102460002C204B6920616E64204B6420636F6E7377
:1024700074616E74732066726F6D2062656C6F7725
:1024800020696E746F20436F6E6669677572617440
:10249000696F6E2E680A00504944204175746F744C
:1024A000756E65206661696C6564212074696D656F
:1024B0006F75740A00453120544845524D414C20F7
:1024C00052554E41574159004245442054484552C7
:1024D0004D414C2052554E41574159005468657248
:1024E0006D616C2052756E617761790045312048CD
:1024F000656174696E67206661696C656400426538
:10250000642068656174696E67206661696C6564E2
:102510000048656174696E67206661696C65640076
:10252000504944204175746F74756E652066616909
:102530006C6564212054656D706572617475726597
:1025400020746F6F20686967680A00204B643A2026
:1025500000204B693A2000204B703A20000A2043AB
:102560006C617373696320504944200A00205475DC
:102570003A2000204B753A2000206D61783A200007
:10258000206D696E3A200020643A20002062696163
:10259000733A2000504944204175746F74756E651C
:1025A0002073746172740A006265640A002C2073DF
:1025B000797374656D2073746F7070656421204841
:1025C00065617465725F49443A2000426564206821
:1025D000656174696E67206661696C656400486551
:1025E0006174696E67206661696C656400453120BD
:1025F00048656174696E67206661696C656400484E
:10260000656174696E67206661696C656400202D80
:1026100020496E76616C69642065787472756465B2
:1026200072206E756D62657220210A001000C90269
:1026300010012C014001220170011801B0010E01AE
:10264000F00104015002FA00B002F0003003E6008D
:10265000D003DC009004D2007005C800A006BE00C4
:102660000008B400B009AA00D00BA000600E9600CC
:1026700060118C000015820020197800C01D6E00CA
:10268000A0226400B0275A00902C50000031460070
:10269000E0343C0010383200903A2800603C1E00C4
:1026A000A03D1400803E0A00203F0000416E65748A
:1026B0002041322B2052656164792E005072696E80
:1026C00074696E672E2E2E005072696E74207061D0
:1026D000757365640000F3B011241FBECFEFD0E422
:1026E000DEBFCDBF12E0A0E0B1E0ECEFFBE701E020
:1026F0000BBF02C007900D92A234B107D9F72DE0AD
:10270000A2E4B2E001C01D92AA3FB207E1F713E1D3
:10271000CCE6D3E104C02197FE010E9481BACB36FA
:10272000D107C9F70E9460960C94FCBD0C94000080
:10273000EC010E940A230E94488182EE96E00E94EA
:10274000EE80209711F4C9EDD6E00E94F26861E0B6
:10275000CE010E94D1900E94A157C091BA0CC6959B
:10276000C69585EB9CE00E94E495DC2FDD0F1D2FC4
:102770001C0F83E00E94405E1092F00CC093F10C9D
:1027800082E395E00E94A65F1092F00CD093F10CCA
:102790008AEC96E00E944B5F1092F00C1093F10CC3
:1027A0008DEB96E00E944B5F89EB9CE00E94799450
:1027B0008111DFCF89EE93E030E6019729F0232FD6
:1027C0002A950000E9F7F9CFF89489EE93E038EE06
:1027D000019729F0232F2A950000E9F7F9CF0E94ED
:1027E0000A23A895FECFCF9380916F00C82FC270A7
:1027F00081FF05C080916F008D7F80936F00809175
:10280000720C8093710C8093700C80936F0C84E633
:1028100080936E0C0E94753088EE93E09093390A95
:102820008093380ACC2329F080916F0082608093D6
:102830006F0081E080931F0C0E94812B80E00E943A
:10284000DC2C609391047093920480939304909392
:10285000940481E00E94DC2C6093950470939604AC
:10286000809397049093980482E00E94DC2C6093FC
:10287000990470939A0480939B0490939C048CE039
:10288000E1E9F4E0AAEEBBE001900D928A95E1F750
:10289000CF910C945E31FF920F931F93CF93DF93F0
:1028A0001F92CDB7DEB7F82E0AE216E041E050E005
:1028B000B801CE0101960E9430B589818F1102C006
:1028C00081E007C00F5F1F4F86E00234180771F7E1
:1028D00080E00F90DF91CF911F910F91FF900895AD
:1028E0008F929F92AF92BF92CF92DF92EF92FF9220
:1028F0000F93CF93DF931F92CDB7DEB75C016B01CF
:102900007A014901F501808191810E94CCB98983C6
:10291000002311F0F6018083BE016F5F7F4FC40179
:102920000E946194F5018081918101969183808359
:10293000FFEFCF1ADF0A81E0E81AF10819F780E00B
:102940000F90DF91CF910F91FF90EF90DF90CF909C
:10295000BF90AF909F908F9008957F928F929F929B
:10296000AF92BF92CF92DF92EF92FF920F931F939D
:10297000CF93DF931F92CDB7DEB77C0159018B0156
:102980006B01C40ED51E0C151D0559F1F701808091
:102990009180F80171908F017982C4010E94CCB9B5
:1029A000781691F0672DC4010E94D4B9C4010E9429
:1029B000CCB99981891741F00E944C8180E196E061
:1029C0000E94EE8081E00EC0BE016F5F7F4FC501A7
:1029D0000E946194F70180819181019691838083A7
:1029E000D2CF80E00F90DF91CF911F910F91FF9098
:1029F000EF90DF90CF90BF90AF909F908F907F909F
:102A000008959091C00095FFFCCF8093C600089573
:102A1000AF92BF92CF92DF92EF92FF920F931F93EC
:102A2000CF93DF9300D0CDB7DEB71092C000809176
:102A3000C00082608093C0001092C50087E0809340
:102A4000C4008091C10080618093C1008091C10069
:102A500088608093C1008091C10080688093C1002C
:102A60000E945F6D86E698E00E94EE800E944C8195
:102A700014B710FF04C08DE598E00E94EE8011FFAE
:102A800004C08CE498E00E94EE8012FF04C08AE348
:102A900098E00E94EE8013FF04C089E298E00E9453
:102AA000EE8015FF04C088E198E00E94EE8014BE1D
:102AB00081E198E00E94EE8080E20E94011583E0AF
:102AC00098E00E94EE808AE00E9401150E944C81ED
:102AD00083EF97E00E94EE8088EE97E00E94EE8000
:102AE00084EC97E00E94EE800E944C818DEA97E092
:102AF0000E94EE800E944C812091F40D3091F50DE2
:102B0000CE0101962115310519F48A5F9D4002C05E
:102B1000821B930B9A83898369817A818EE997E07E
:102B20000E94288160EB74E087E897E00E9428818A
:102B30008AE00E94011581E08093F9028093FA02F5
:102B40008093FB028093FC020E941F348CE0EDEB2B
:102B5000F2E0AAEEBBE001900D928A95E1F70E94A7
:102B60005E31559A5D98549A5C98249A87ED8093CB
:102B70007A0010927E0080917E00806880937E00B3
:102B800080917E00806480937E0080E888BD809183
:102B90006E00846080936E006AEF70E080E090E0E9
:102BA0000E94256D85E090E090932D0C80932C0C75
:102BB00060E080911E0190911F010E94E98720E052
:102BC00030E040EA50E40E94EBB587FF0AC08091F4
:102BD0001E0190911F01409790931F0180931E0149
:102BE000E7CF83E191E090933B0180933A0160E06D
:102BF0008091B8049091B9040E94E98720E030E800
:102C000049E853E40E94F3BC181654F48091B804C8
:102C10009091B90440969093B9048093B804E7CF9B
:102C200080911C0190911D010E94558720E030E0A9
:102C300040EA50E40E94EBB587FF0AC080911C0176
:102C400090911D01409790931D0180931C01E8CF46
:102C50008091B6049091B7040E94558720E030E03F
:102C600046E153E40E94F3BC181654F48091B60474
:102C70009091B70440969093B7048093B604E8CF40
:102C80000E9413503A98429A3B98439A3C98449A2F
:102C900080916D00846080936D00DA9A8091680065
:102CA00084608093680080916D00886080936D00DF
:102CB000DA9A8091680084608093680080916D004A
:102CC000806180936D00DA9A8091680084608093BF
:102CD00068001092A9021092A8020E94EF323D9A59
:102CE0003F9A229A209A569A5E9A569A5E9A0D9A1E
:102CF000159A569A5E9A579A5F985E9A8091EB025F
:102D00008E7F8093EB023E9A46985E9A8091EB020A
:102D10008D7F8093EB02239A2B98159A8091EB027A
:102D20008B7F8093EB02219A29985E9A8091800094
:102D30008C7F8093800080918100877E8860809363
:102D40008100809180008F7380938000809181004A
:102D5000887F82608093810080E090E49093890076
:102D600080938800109285001092840080916F00FB
:102D7000826080936F0078940E94E4230E94F2683E
:102D80000E940B910091B90CF090BA0C10E0B801C0
:102D90006853710977FF02C06F5F7F4F7595679524
:102DA000C62E85EB9CE00E94E495B8016854710939
:102DB00076956795D62E0257110916950795102F0F
:102DC0004EEEA42EAF0C5AEFB52EBF0C82E0E82ECB
:102DD00087E0F82E03E127E04CE06C2D89EB9CE0C6
:102DE0000E94E44483E00E94405E27E032E04A2DE6
:102DF0006D2D89EB9CE00E94AC1D24E132E04B2D4F
:102E0000612F89EB9CE00E94AC1D89EB9CE00E9445
:102E100079948111DBCF64EC79E080E090E00E944E
:102E2000CA8098E288E10FB6F894A8958093600074
:102E30000FBE909360000F900F90DF91CF911F9184
:102E40000F91FF90EF90DF90CF90BF90AF900895DB
:102E50002F923F924F925F926F927F928F929F92AA
:102E6000AF92BF92CF92DF92EF92FF920F931F9398
:102E7000CF93DF93CDB7DEB727970FB6F894DEBFB9
:102E80000FBECDBF0E9470910E945F6D6B017C01EF
:102E900080910401882359F180910003882339F13E
:102EA00040919D0450919E0460919F047091A004F4
:102EB00097018601041B150B260B370B37FD2AC023
:102EC000833079F03CF4813094F00E944C8181E7AA
:102ED00096E00BC0843059F40E944C8182E496E065
:102EE00004C00E944C818AE596E00E94EE80209109
:102EF000040130E0A8EEB3E00E941FBAC60ED71E50
:102F0000E81EF91EC0929D04D0929E04E0929F0498
:102F1000F092A00480918304843030F40E94AE616A
:102F2000811102C00E9476600E945F6D6B017C017E
:102F30004091A4025091A5026091A6027091A7024F
:102F4000411551056105710529F180919302909118
:102F50009402A0919502B0919602840F951FA61F2E
:102F6000B71FA7019601281B390B4A0B5B0B57FDB6
:102F700011C00E944881609130057091310583E84D
:102F800096E00E9435818AE00E94011580E090E081
:102F90000E94981340910601509107016091080129
:102FA000709109014115510561057105B1F19091CB
:102FB000710C8091720C981749F0C0929302D092D4
:102FC0009402E0929502F092960227C080919302BB
:102FD00090919402A0919502B0919602840F951F52
:102FE000A61FB71F97018601081B190B2A0B3B0B65
:102FF00037FD13C05E9A8091EB028E7F8093EB02C7
:103000005E9A8091EB028D7F8093EB02159A8091FE
:10301000EB028B7F8093EB025E9A8091A5049091E6
:10302000A604A091A704B091A804A7019601281BAB
:10303000390B4A0B5B0B57FD2EC19091710C80919F
:10304000720C981791F0E091720C3BE4E39FF00151
:103050001124E253FA4F60818091720C9091710CAF
:10306000981729F08F5F8F70F9CF6091720570E02B
:1030700084E00E94B36C8091B504882309F4FEC0FB
:103080002090270130902801009129010F83109191
:103090002A011E836091E30B7091E40B6E5F7F4FFA
:1030A000072E000C880B990B0E94F2B59101A80124
:1030B0000E94EBB587FDE2C00091720C09831A8271
:1030C0001B821C821D828091710C1981811709F469
:1030D00060C0812F90E02BE4289FF001299FF00D24
:1030E0001124E857FA4F458956896789708D452B19
:1030F000462B472B81F4418D528D638D748D452B6A
:10310000462B472B41F4458D568D678D70A1452B7D
:10311000462B472BC9F13BE4389F8001399F100DA6
:10312000112408571A4FF8016181728183819481BB
:103130000E9441BD4B015C01F80161A172A183A114
:1031400094A10E94F0B52B013C01F80165A176A184
:1031500087A190A50E94F0B59B01AC01C301B2010B
:103160000E948DBBA50194010E9451B65B018C01A8
:103170002A813B814C815D810E94F3BC181624F4A6
:10318000AA82BB820C831D8389818F5F8F708983A4
:103190009ACF20912B0130912C0140912D0150911B
:1031A0002E016A817B818C819D810E9451B69101A3
:1031B0004F815E810E9493BA5B018C019B01AC013F
:1031C000B1018F819E810E94F3BC1816B4F020904B
:1031D000230130902401F0912501FF8320912601E5
:1031E0002E8391014F2F5E81B501C8010E94F3BC6F
:1031F00018161CF015010F831E838090A104909077
:10320000A204A090A304B090A40491014F815E8118
:10321000C501B4010E94F3BC1816D4F420E037EDC8
:1032200043EA5CE3B1018F819E810E9451B62B017C
:103230003C0128E431EE4AE75FE3C501B4010E9496
:1032400051B6A30192010E9493BA1B018F839E8302
:10325000C101AF81BE818093A1049093A204A09389
:10326000A304B093A404B101CD010E94FFBB7093ED
:10327000E40B6093E30B80E00E94BB2234E6C30EB4
:10328000D11CE11CF11CC092A504D092A604E092CE
:10329000A704F092A8040E94C8880E9421908091FF
:1032A0009F02882309F447C00E945F6D00919B0232
:1032B00010919C0220919D0230919E02DC01CB0175
:1032C000801B910BA20BB30BB7FD35C00E945F6D45
:1032D0006B017C0120919F0230E0A8EEB3E00E94D8
:1032E0001FBAC60ED71EE81EF91EC0929B02D092CE
:1032F0009C02E0929D02F0929E0280E00E94D81D06
:103300008AE027960FB6F894DEBF0FBECDBFDF91DF
:10331000CF911F910F91FF90EF90DF90CF90BF90D2
:10332000AF909F908F907F906F905F904F903F9065
:103330002F900C94011527960FB6F894DEBF0FBEA0
:10334000CDBFDF91CF911F910F91FF90EF90DF9054
:10335000CF90BF90AF909F908F907F906F905F9035
:103360004F903F902F9008958F929F92AF92BF926F
:10337000EF92FF920F931F93CF93DF93CDB7DEB7FA
:10338000A0970FB6F894DEBF0FBECDBF61157105D3
:103390008105910591F100E0842E912CA12CB12C96
:1033A000102FEE24E394F12CEC0EFD1EE00EF11C28
:1033B00007FDFA94A50194010E94F2B9F701608318
:1033C000B901CA010F5F611571058105910541F7CA
:1033D0001F3F31F1E1E0F0E0EC0FFD1FE10FF11DC7
:1033E00017FDFA9580818A3010F097E301C090E3D1
:1033F000890F0E9401151150EBCF80E3A0960FB604
:10340000F894DEBF0FBECDBFDF91CF911F910F911A
:10341000FF90EF90BF90AF909F908F900C9401150C
:10342000A0960FB6F894DEBF0FBECDBFDF91CF914F
:103430001F910F91FF90EF90BF90AF909F908F9052
:103440000895CF92DF92EF92FF926B017C0197FF7C
:103450000BC08DE20E940115F094E094D094C094CA
:10346000C11CD11CE11CF11C4AE0C701B601FF9050
:10347000EF90DF90CF900C94B4198F929F92AF92FF
:10348000BF92CF92DF92EF92FF92CF936B017C01BC
:10349000B42E20E030E0A9010E94EBB587FF07C001
:1034A0008DE20E940115F7FAF094F7F8F094C0E06D
:1034B00060E070E080E09FE3CB1541F02DEC3CEC48
:1034C0004CEC5DE30E9451B6CF5FF6CF9B01AC019F
:1034D000C701B6010E9493BA6B017C010E9406BC31
:1034E0004B015C014AE00E94B419CC2389F1C5016B
:1034F000B4010E94F0B59B01AC01C701B6010E9466
:1035000092BA6B017C018EE20E94011520E030E04E
:1035100040E251E4C701B6010E9451B64B015C0183
:103520000E94FFBB6B01770FEE08FF08C701B601D1
:103530000E94211AC701B6010E94F2B59B01AC019D
:10354000C501B4010E9492BA6B017C01C150F1F631
:10355000CF91FF90EF90DF90CF90BF90AF909F9072
:103560008F9008958DE00E9401158AE00C9401155A
:103570008091D00A9091D10A981759F0E92FF0E084
:10358000E053F54F82819F5F9F779093D10A90E03F
:1035900008958FEF9FEF08951F920F920FB60F922D
:1035A00011240F900FBE0F901F9018951F920F922D
:1035B0000FB60F9211240BB60F922F938F939F93F8
:1035C000EF93FF932091D10AE091D00A81E08E0F12
:1035D0008F779091C600281729F0F0E0E053F54F5F
:1035E0009283E82FE093D00AFF91EF919F918F9102
:1035F0002F910F900BBE0F900FBE0F901F9018953C
:10360000CF92DF92EF92FF920F931F93CF93DF93AE
:103610006C017A018B01C0E0D0E0CE15DF0581F0AE
:10362000D8016D918D01D601ED91FC910190F08151
:10363000E02DC6010995892B11F02196EECF7E0170
:10364000C701DF91CF911F910F91FF90EF90DF9015
:10365000CF9008950895FC01A681B7818281481B0F
:103660008581483018F0A80FB11D4770382F369566
:1036700036953695562F577080E890E002C09595A4
:1036800087955A95E2F7439F402D112466956695DC
:103690006695E62FF0E0E40FF11DEA0FFB1F308185
:1036A000222311F0832B02C0809583238083089509
:1036B00080E008950B96FC01849108950A96FC0120
:1036C00084910895FC01849108950E94621B8823CF
:1036D00021F0823011F083E0089586E00895FC0126
:1036E000E60FF11D849190E0982F88273196E491A0
:1036F0008E0F911D089568E00C946F1B66E00C948A
:103700006F1B81E008950E94A0BDFF920F931F934D
:10371000CF93DF938C01EB01F42E80E20E94011520
:103720008FEFF81611F084E501C082E40E940115C4
:103730008AE30E940115F801608171818281938181
:1037400042E00E943D1A488159816A817B818AE06A
:1037500099E00E94178162E070E080E090E0DF91E4
:10376000CF911F910F91FF900C94256DFC0130813A
:103770009281930F92832181921760F494819F5FCD
:1037800094838381830F821710F08FEF820F8383DE
:1037900081E0089580E00895FC01128280818150CB
:1037A000838314820895FB014181DC0112962C91E0
:1037B0001297421768F013962C911397241740F034
:1037C000608115962C91621718F424810C942B1BA0
:1037D0000895DB01ED91FC910994DC0114968D9123
:1037E0009C9115978617970709F44EC015967C9300
:1037F0006E9314976115710509F440C057968C912A
:103800005797FB01811108C03596E4915896EC93C7
:103810005897FB013C9611C0813041F43F96E491EA
:103820005896EC935897FB01709607C03D96E4912B
:103830005896EC935897FB013E96649159966C9379
:10384000599758968C915897082E000C990B5996B9
:103850002C915997821B910927FD93955A962C918B
:103860005A97203441F0829FC001112426E096959A
:1038700087952A95E1F75B968C935B9788E59BE1AA
:1038800056969C938E9355970895BF92CF92DF9250
:10389000EF92FF920F931F93CF93DF938C01E62E4D
:1038A000DC011496CD91DC911597CE010E94621B2C
:1038B000F82EF801848195810E94651BC82EF1E0E5
:1038C000FF1203C02FE0B22E02C0BB24BA94D8016D
:1038D00014968D919C9115970E945E1BF82EF8010D
:1038E000848195810E945A1BD82ED80114968D91FF
:1038F0009C9115970E947B1BB0E6BE1538F400978B
:1039000029F0C80FD91F91E6F92E10C0F801848163
:1039100095810E947E1BF0E4FE1538F4009729F093
:10392000C80FD91F81E4F82E01C06196DE1490F40F
:10393000D80150961C92509753961C9253975496C8
:103940001C92549751961C92519752961C9280E06B
:1039500090E067C0DF1460F38C2D90E0FE012491AD
:103960002F3F11F4219658C0FE104DC0D801149677
:103970008D919C9115970E94621B9E012F5F3F4F76
:10398000FE01882311F08230E1F48491D80153962E
:103990008C935397F901249154962C935497FE01DC
:1039A0003396E4915096EC935097FE013496E4914F
:1039B0005196EC935197FE013596E4915296EC9313
:1039C00020C08491982F9F709250D80152969C935A
:1039D000529782958F7051968C935197F90124914B
:1039E000822F8F7054968C93549722952F705396F4
:1039F0002C935397FE013296E491E295EF70509626
:103A0000EC93CE010EC0FE013296E491EB219C01B5
:103A10002E0F311DC20FD31FFD1409F489CFF3946B
:103A20009DCFDF91CF911F910F91FF90EF90DF908D
:103A3000CF90BF9008950F93FC010150040F84A90B
:103A400096A9941718F0081728F402C0081750F028
:103A5000041740F42150260F83A995A9961720F446
:103A6000281720F480E007C0281720F481E02617EB
:103A700010F0F8CF81E00F9108955F926F927F92DE
:103A80008F929F92AF92BF92CF92DF92EF92FF926E
:103A90000F931F93CF93DF93EC01C62E142F622F49
:103AA0000E94451C7C01892B09F445C08C819D81B5
:103AB0000E94651BA82EDB88BC888989C80E8A896C
:103AC0008B0D181B0B2D2D2D412F6C2DCE010E941F
:103AD0001B1D882371F1EA0CF11C87E08D0DD82E97
:103AE000D694D694D6945B2C510E4E018CE1880E60
:103AF000911C6D2C712C5116E1F00C2D57018A2D63
:103B00008E198D1590F4F50184916A817B810C8F5B
:103B10001D8F1F8E8E8F94014BE3CE010E94E91BF7
:103B2000FFEFAF1ABF0A085FEACFE60CF71C1F5F72
:103B3000E2CF888901C080E0DF91CF911F910F9182
:103B4000FF90EF90DF90CF90BF90AF909F908F90BD
:103B50007F906F905F900895CF92DF92EF92FF92E7
:103B60000F931F93CF93DF937C01D62E042FC22E89
:103B7000132FDC015596ED91FC9156970995080F8E
:103B8000CC2DD12F10E02991222341F0402F6D2D13
:103B9000C7010E943D1DD80E180FF5CF812FDF9170
:103BA000CF911F910F91FF90EF90DF90CF900895EC
:103BB0001F93CF93DF93CDB7DEB728970FB6F89456
:103BC000DEBF0FBECDBF182F6091E30B7091E40BE9
:103BD000072E000C880B990B0E94F2B56D837E8333
:103BE0008F8398878091840590918505A0918605A3
:103BF000B091870589839A83AB83BC834DEFBE0167
:103C00006B5F7F4FCE0101960E94851B6091E10B97
:103C10007091E20B072E000C880B990B0E94F2B5F5
:103C20006D837E838F83988780919702909198020D
:103C3000A0919902B0919A0289839A83AB83BC8345
:103C40004FEFBE016B5F7F4FCE0101960E94851B37
:103C500082E199E00E94EE80E12FF0E0E554FB4F15
:103C6000608170E080E090E00E94211A8DE099E090
:103C70000E94EE806091BC0470E080E090E00E94C1
:103C8000211A28960FB6F894DEBF0FBECDBFDF9184
:103C9000CF911F9108952F923F924F925F926F9212
:103CA0007F928F929F92AF92BF92CF92DF92EF92CC
:103CB000FF920F931F93CF93DF93CDB7DEB7639738
:103CC0000FB6F894DEBF0FBECDBF888B698B81E045
:103CD000809305011A821B821C821D821886198618
:103CE0001A861B8619821C862CE32D873CE13E87B1
:103CF00046E44F87312C212C50E85A8B8FEB8B8B6D
:103D0000812C912C54016091E30B7091E40B072EF0
:103D1000000C880B990B0E94F2B57B018C019B0172
:103D2000AC01632D722D8A899B890E94EBB5882393
:103D300061F160918405709185058091860590916F
:103D40008705A989A1110EC0B1E0B9839701A80127
:103D50000E94F3BC18160CF019823E2C2F2C0A8BF3
:103D60001B8B13C09701A8010E94F3BC181644F4E2
:103D700080910501882309F4E0C00E940B91DDC009
:103D80003E2C2F2C0A8B1B8B19820E945F6D6B01BE
:103D90007C01DC01CB01288539854A855B85821B46
:103DA000930BA40BB50BB7FD33C0D701C6018851E7
:103DB0009C4FAF4FBF4F88879987AA87BB87888959
:103DC0000E94D81D86E199E00E94EE808114910442
:103DD000A104B104B9F0D501C401805F984DAF4F83
:103DE000BF4FBC01CD016C197D098E099F0928EEDA
:103DF00033E040E050E00E94F2B9CA01B9010E94EC
:103E0000211A03C08FE30E9401158AE00E94011568
:103E10000E9428170E945F6D609393027093940232
:103E20008093950290939602909184059E83A09131
:103E30008505AF830091860510918705292F3A2FBC
:103E4000A801632D722D8A899B890E9492BA2B0149
:103E50003C0120E030E0A9010E94F3BC87FF04C0D0
:103E600077FA709477F8709481149104A104B104E6
:103E700059F420E030E040E85FE3C301B2010E9462
:103E8000EBB587FF0DC00AC020E030E040E450E40D
:103E9000C301B2010E94F3BC181614F44601570185
:103EA000B981BB2391F12A813B814C815D81211530
:103EB00031054105510541F0D701C601821B930B25
:103EC000A40BB50BB7FD21C02E813F81A8016C85E5
:103ED0007D858E859F850E9492BA20E030E040EC7F
:103EE0005FE30E94EBB587FD43CFD701C601805A3F
:103EF0009541AF4FBF4F8A839B83AC83BD839E8127
:103F00009C87AF81AD870E871F878091050188232D
:103F100009F42ECF81149104A104B10409F4F3CE65
:103F2000B0E1CB1AB7E2DB0AE108F108C818D908FA
:103F3000EA08FB08F7FE1CCFE6CE809105016396E8
:103F40000FB6F894DEBF0FBECDBFDF91CF911F91AA
:103F50000F91FF90EF90DF90CF90BF90AF909F9028
:103F60008F907F906F905F904F903F902F9008952B
:103F7000EF92FF920F931F93CF93DF9380912201D3
:103F80008F3790F08F579091BB049093DA04992368
:103F900011F05D9A01C05D989091BC049093D90492
:103FA000992359F05C9A0AC09091DA04891708F0B5
:103FB0005D989091D904891708F05C988F5F809381
:103FC00022019091D80481E089278093D80481113F
:103FD0000E941C918091210185301CF4C1E0C80F22
:103FE00001C0C0E0823009F4AFC04CF48823F9F07E
:103FF000813009F0DDC010927B0087E4BBC08430C3
:1040000009F4C0C00CF4B3C0853009F0D1C0909160
:10401000D704911102C08093D7048091D7048150B6
:104020008093D704882309F4C3C0C5E0C1C0809140
:1040300020018F5F80311CF480932001B9C0109261
:1040400020018091BA04811113C08091CB0490911A
:10405000CC049093C8048093C7048091C9049091C4
:10406000CA049093C6048093C50481E08093BA0487
:104070008CE0EBECF4E0DF011D928A95E9F71092F9
:10408000CA041092C9040091C7041091C804119584
:10409000019511098091E30B9091E40BD1E0181682
:1040A00019062CF08091BB04811101C0D0E08091F1
:1040B000B8049091B9049195819591098017910761
:1040C0003CF444EA58E065EC78E080E00E94908897
:1040D00080911E0190911F0191958195910908177A
:1040E00019074CF4DD2339F047ED58E068EF78E02C
:1040F00080E00E949088E090E10BF090E20B00914C
:10410000C5041091C6048091B6049091B70480173D
:1041100091073CF044EB58E065EC78E08FEF0E94AB
:10412000908880911C0190911D01081719070CF4CB
:104130003FC01E141F04E4F547EE58E068EF78E036
:104140008FEF0E94908834C080917A0086FD2DC048
:1041500080917800909179002091CB043091CC042B
:10416000820F931F9093CC048093CB0421C01092B4
:104170007B0086E480937C0080917A008064809349
:104180007A0016C080917A0086FD11C08091780077
:10419000909179002091C9043091CA04820F931F35
:1041A0009093CA048093C90403C0C2E001C0C4E074
:1041B000C093210120E030E0C901880F991FFC0164
:1041C000EB51FD4F0190F081E02D309709F441C093
:1041D000F894223041F5C3B1C47015981E161F061D
:1041E00014F02A9A01C02A98A0918400B091850009
:1041F0002B9A40918400509185004A1B5B0B60E034
:1042000070E0D3E0440F551F661F771FDA95D1F792
:10421000403251056105710560F32B98CC2311F0F4
:104220002A9A01C02A9878941E161F0654F4FC019D
:10423000EB51FD4F408151814150510951834083E1
:1042400008C0FC01EB51FD4F808191810196918363
:1042500080832F5F3F4F2330310509F0ADCF809130
:10426000380A9091390A009729F001979093390AFA
:104270008093380ADF91CF911F910F91FF90EF90BB
:1042800008950F930FB70F9300916E000B7F00936B
:104290006E0078940F930BB70F930CB70F921F9289
:1042A0002F933F934F935F936F937F938F939F933E
:1042B000AF93BF93EF93FF9311240E94B81FFF9118
:1042C000EF91BF91AF919F918F917F916F915F918E
:1042D0004F913F912F911F900F900CBF0F910BBFEB
:1042E0000F910460F89400936E000F910FBF0F912F
:1042F00018952F923F924F925F926F927F928F927A
:104300009F92AF92BF92CF92DF92EF92FF920F9364
:104310001F93CF93DF9300D000D0CDB7DEB75C0101
:104320007A8369834A01170107FD07C0802F002E99
:10433000000C990B9C838B8304C0E1E0F0E0FC83CC
:10434000EB83F90140805180628073808B819C8176
:10435000880F991F880F991F9C838B8383549B4FD1
:104360007C01A3019201FC016081718182819381B2
:104370000E94EBB5882391F0F7014082518262825E
:10438000738211E020E030E0A901C301B2010E9474
:10439000F3BC18160CF010E0F5011083F5018081D4
:1043A0008230D1F0833009F45EC0813009F07DC0E5
:1043B000EB81FC81E354FB4F2081318142815381A9
:1043C000F40160817181828193810E94EBB587FD48
:1043D0006CC082E0F50180838B819C8183549B4F6C
:1043E0009C838B83B60180E090E00E94F0B59B0136
:1043F000AC01EB81FC8160817181828193810E949B
:1044000092BA9B01AC01F401608171818281938138
:104410000E94F3BC87FD14C00E945F6D6B017C019C
:104420009101A8EEB3E00E941FBAC60ED71EE81E87
:10443000F91EE981FA81C082D182E282F38235C01D
:104440000E945F6DE981FA81C080D180E280F380B3
:10445000DC01CB018C199D09AE09BF09B7FD25C050
:1044600083E0F50180830F3F19F04DE658E002C06C
:1044700040E858E064E978E0802F0F900F900F90AB
:104480000F90DF91CF911F910F91FF90EF90DF90F0
:10449000CF90BF90AF909F908F907F906F905F90E4
:1044A0004F903F902F900C9490880F900F900F900A
:1044B0000F90DF91CF911F910F91FF90EF90DF90C0
:1044C000CF90BF90AF909F908F907F906F905F90B4
:1044D0004F903F902F900895CF92DF92EF92FF92EE
:1044E0006091E10B7091E20B61157105C1F0C09014
:1044F0009702D0909802E0909902F0909A0266504C
:104500007109072E000C880B990B0E94F2B59B01D4
:10451000AC01C701B6010E94EBB587FD09C010923E
:10452000B1041092B2041092B3041092B4041EC0ED
:1045300020E030E040E050E4C701B6010E9493BAA9
:104540000E9406BC7093B0046093AF040E945F6D3C
:10455000DC01CB01805A9541AF4FBF4F8093B1042E
:104560009093B204A093B304B093B404FF90EF907F
:10457000DF90CF900895CF92DF92EF92FF926091FB
:10458000E30B7091E40B61157105C1F0C0908405D7
:10459000D0908505E0908605F090870566507109FA
:1045A000072E000C880B990B0E94F2B59B01AC0101
:1045B000C701B6010E94EBB587FD09C01092AB049C
:1045C0001092AC041092AD041092AE041EC020E014
:1045D00030E040E050E4C701B6010E9493BA0E9467
:1045E00006BC7093AA046093A9040E945F6DDC016D
:1045F000CB01805E914BAF4FBF4F8093AB04909344
:10460000AC04A093AD04B093AE04FF90EF90DF90A4
:10461000CF9008951092B5041092E40B1092E30B22
:1046200080E00E94BB221092E20B1092E10B0E94EC
:104630006C221092E40B1092E30B80E00E94BB22EC
:104640001092BB045D981092E20B1092E10B109255
:10465000BC045C98089560E08091C7049091C80400
:104660000E94E98760938405709385058093860591
:10467000909387058091C5049091C6040E94558748
:1046800060939702709398028093990290939A0294
:10469000A8951092BA040895CF93DF938091710C7E
:1046A0009091720C891B8F7009F445C090916E0C2B
:1046B000992351F0833030F48FEF890F19F08093F4
:1046C0006E0C3BC010926E0CE091720C8BE4E89F74
:1046D000F0011124E857FA4F808180FD2EC08091AF
:1046E0006E0590916F05A0917005B0917105EF0175
:1046F000C95BDF4F488159816A817B81841B950B9F
:10470000A60BB70B80936E0590936F05A093700571
:10471000B09371058091720C8F5F8F7080936F0CD6
:104720009091720C8091700C98130AC080916F0C5C
:104730008093700C05C00E94753080E090E001C04D
:10474000CF01DF91CF9108950F930FB70F93009191
:104750006E000F930B7F00936E0000916F000D7F32
:1047600000936F000F930BB70F930CB70F921F922C
:104770002F933F934F935F936F937F938F939F9369
:10478000AF93BF93EF93FF9311240E941124FF91E5
:10479000EF91BF91AF919F918F917F916F915F91B9
:1047A0004F913F912F911F900F900CBF0F910BBF16
:1047B0000F910260F89400936F000F9100936E00C8
:1047C0000F910FBF0F9118958091DB0480FF03C0FC
:1047D000459A8FEF02C0459881E08093DD04809177
:1047E000DB0481FF03C047988FEF02C0479A81E046
:1047F0008093DE048091DB0482FF03C02A9A8FEF4E
:1048000002C02A9881E08093DF048091DB0483FF5B
:1048100003C0289A8FEF02C0289881E08093E004BB
:1048200008952F923F924F925F926F927F928F9254
:104830009F92AF92BF92CF92DF92EF92FF921F931F
:10484000CF93DF938FEF9FEF909389008093880041
:104850001AE0C0E0D0E0B6E32B2EB1E13B2E789415
:104860008091220590912305A0912405B091250502
:10487000892B8A2B8B2B09F0CEC180911F0C8823AA
:10488000D1F010921F0C80911D0C90911E0C892B61
:1048900091F01092DC0410921E0C10921D0C90915D
:1048A000710C8091720C981731F08091720C8F5FAF
:1048B0008F708093720C80911D0C90911E0C892B2F
:1048C00009F4A9C180901E0590901F05A0902005B5
:1048D000B090210540911A0550911B0560911C056F
:1048E00070911D05C0900D05D12CE12CF12CDB0140
:1048F000CA0188199909AA09BB09C816D906EA0686
:10490000FB0610F4D701C601282F880D991DAA1D9A
:10491000BB1D80931E0590931F05A0932005B093A7
:10492000210580918400909185008096C090F504C7
:10493000D090F604E090F704F090F8044091E5047C
:104940005091E6046091E7047091E8044C0D5D1D00
:104950006E1D7F1D4093F5045093F6046093F70499
:104960007093F80477FD1CC05F9AC0906D02D090E0
:104970006E02E0906F02F09070024091DD04042E10
:10498000000C550B660B770B4C0D5D1D6E1D7F1DCE
:1049900040936D0250936E0260936F0270937002A9
:1049A000C090F904D090FA04E090FB04F090FC046D
:1049B0004091E9045091EA046091EB047091EC0499
:1049C0004C0D5D1D6E1D7F1D4093F9045093FA043C
:1049D0006093FB047093FC0477FD1CC0469AC09062
:1049E0007102D0907202E0907302F09074024091D4
:1049F000DE04042E000C550B660B770B4C0D5D1D71
:104A00006E1D7F1D4093710250937202609373027A
:104A100070937402C090FD04D090FE04E090FF04F7
:104A2000F09000054091ED045091EE046091EF0488
:104A30007091F0044C0D5D1D6E1D7F1D4093FD04B3
:104A40005093FE046093FF047093000577FD1CC033
:104A50002B9AC0907502D0907602E0907702F09089
:104A600078024091DF04042E000C550B660B770B87
:104A70004C0D5D1D6E1D7F1D409375025093760297
:104A80006093770270937802C0900105D090020580
:104A9000E0900305F09004054091F1045091F20478
:104AA0006091F3047091F4044C0D5D1D6E1D7F1D2B
:104AB000409301055093020560930305709304052C
:104AC00077FD1CC0299AC0907902D0907A02E090BC
:104AD0007B02F0907C024091E004042E000C550B08
:104AE000660B770B4C0D5D1D6E1D7F1D409379028B
:104AF00050937A0260937B0270937C024091840011
:104B00005091850048175907C8F34091F50450911A
:104B1000F6046091F7047091F80477FD15C0C09019
:104B2000E104D090E204E090E304F090E4044C1936
:104B30005D096E097F094093F5045093F604609374
:104B4000F7047093F8045F984091F9045091FA04C7
:104B50006091FB047091FC0477FD15C0C090E104E6
:104B6000D090E204E090E304F090E4044C195D0975
:104B70006E097F094093F9045093FA046093FB0493
:104B80007093FC0446984091FD045091FE0460919E
:104B9000FF047091000577FD15C0C090E104D0902E
:104BA000E204E090E304F090E4044C195D096E091E
:104BB0007F094093FD045093FE046093FF047093BB
:104BC00000052B9840910105509102056091030565
:104BD0007091040577FD15C0C090E104D090E20407
:104BE000E090E304F090E4044C195D096E097F093C
:104BF00040930105509302056093030570930405EB
:104C00002998215041F04091840050918500481727
:104C10005907C8F38ACE8091220590912305A0916F
:104C20002405B0912505892B8A2B8B2B09F011C304
:104C3000E0911D0CF0911E0C309709F486C4809110
:104C40001E0590911F05A0912005B091210540916E
:104C50001A0550911B0560911C0570911D05841764
:104C60009507A607B707D0F01092DC0410921E0C2F
:104C700010921D0C9091710C8091720C981709F490
:104C800064C48091720C8F5F8F708093720CA0ED62
:104C9000CA2EA7E0DA2EE12CF12C4EC14091160568
:104CA000509117056091180570911905481759071B
:104CB0006A077B0708F467C04091120550911305FD
:104CC000609114057091150581A992A9A3A9B4A9B1
:104CD000FF24499FE12C5A9F90016A9F300D699FE4
:104CE000200D311D4A9FE00C211D3F1D599FE00CF6
:104CF000211D3F1D689FE00C211D3F1D589FE10CA9
:104D00002F1D3F1DE6942F1D3F1DB49F200D311D0B
:104D1000B59F300D112482AD93ADA4ADB5AD820F1A
:104D2000931FA11DB11D80930E0590930F05A093B5
:104D30001005B0931105C6A8D7A8E0ACF1ACC81611
:104D4000D906EA06FB0640F4C0920E05D0920F0584
:104D5000E0921005F092110580900E0590900F05DD
:104D6000A0901005B09011058AE191E121E0FC01CD
:104D7000C590D590E590F490C814D904EA04FB04DA
:104D800008F4ADC2B7C24091090550910A0560917F
:104D90000B0570910C05481759076A077B0708F047
:104DA00063C040910505509106056091070570911B
:104DB000080581A992A9A3A9B4A9FF24499FE12CC0
:104DC0005A9F90016A9F300D699F200D311D4A9FA7
:104DD000E00C211D3F1D599FE00C211D3F1D689FC8
:104DE000E00C211D3F1D589FE10C2F1D3F1DE69437
:104DF0002F1D3F1DB49F200D311DB59F300D112477
:104E0000C901A0E0B0E080900E0590900F05A09041
:104E10001005B0901105FE9688159905AA05BB05E9
:104E200080F4C080D180E280F380881A990AAA0AAF
:104E3000BB0A8C149D04AE04BF0438F4460157012C
:104E400004C080809180A280B3808AE191E121E05A
:104E5000FC01C590D590E590F490C814D904EA04FB
:104E6000FB0408F4AFC2B9C280912F0190913001C8
:104E7000A0913101B0913201B7FF56C086A997A920
:104E8000A0ADB1AD2AE131E141E0F901C590D59085
:104E9000E590F490C816D906EA06FB0658F4B695D4
:104EA000A79597958795440F2C5F3F4FF1E12633E7
:104EB0003F0759F740930D0580329105A105B105D3
:104EC00008F416C38097A109B109811528E092075B
:104ED000A105B10508F4E9C244E0949F90011124B2
:104EE000265E324FF901329645915491EE27859F07
:104EF000B001849F610D7E1F06946E1F7E1F1124DA
:104F0000CB01A0E0B0E0F9014591549160E070E080
:104F1000481B590B6A0B7B0B40932F0150933001B8
:104F20006093310170933201C0902F01D090300115
:104F3000E0903101F090320180911D0C90911E0C97
:104F4000892B09F07EC10E944C2390931E0C809304
:104F50001D0C892B09F475C1E0911D0CF0911E0CFC
:104F6000808183FF3EC085899689A789B08D809313
:104F70006D0290936E02A0936F02B0937002818DC8
:104F8000928DA38DB48D8093710290937202A09341
:104F90007302B0937402858D968DA78DB0A1809316
:104FA000750290937602A0937702B093780281A164
:104FB00092A1A3A1B4A18093790290937A02A093C5
:104FC0007B02B0937C029091710C8091720C9817C7
:104FD00009F4B9CF8091720C8F5F8F708093720C3F
:104FE000B2CF85889688A788B08C81E0811491041F
:104FF000A104B10409F480E0C18CD28CE38CF48C60
:10500000C114D104E104F10409F08260458D568D8C
:10501000678D70A1411551056105710509F0846026
:105020008093DC0410920505109206051092070586
:105030001092080510921205109213051092140593
:105040001092150585A196A1A7A1B0A580931A0578
:1050500090931B05A0931C05B0931D054424552473
:105060003201481A590A6A0A7B0A40920105509295
:10507000020560920305709204054092FD0450926F
:10508000FE046092FF04709200054092F904509271
:10509000FA046092FB047092FC044092F504509272
:1050A000F6046092F7047092F804880C991CAA1C0C
:1050B000BB1C8092E5049092E604A092E704B092B3
:1050C000E804CC0CDD1CEE1CFF1CC092E904D0925D
:1050D000EA04E092EB04F092EC04440F551F661FC3
:1050E000771F4093ED045093EE046093EF047093A8
:1050F000F00441A152A163A174A1440F551F661F82
:10510000771F4093F1045093F2046093F30470937B
:10511000F404880F991FAA1FBB1F8093E10490938A
:10512000E204A093E304B093E40410921E051092ED
:105130001F05109220051092210581A592A5A3A517
:10514000B4A58093160590931705A0931805B09306
:10515000190585A596A5A7A5B0A9809309059093E3
:105160000A05A0930B05B0930C0585A99091DB046B
:10517000891721F08093DB040E94E4230E9471329E
:105180008FEF9FEFDC0180932F0190933001A0936C
:105190003101B0933201E0911D0CF0911E0C82ADF3
:1051A00093ADA4ADB5AD80930E0590930F05A0937C
:1051B0001005B09311052AE131E141E0F901C590F4
:1051C000D590E590F490C816D906EA06FB0650F48F
:1051D000B695A79597958795440F2C5F3F4F22165C
:1051E000330661F740930D0580329105A105B105A5
:1051F00008F4A6C18097A109B1098115F8E09F07BD
:10520000A105B10508F479C144E0949F90011124EF
:10521000265E324FF901329645915491EE27859FD3
:10522000B001849F610D7E1F06946E1F7E1F1124A6
:10523000F901C590D490E12CF12CC61AD70AE108E7
:10524000F108C0922205D0922305E0922405F09245
:1052500025058091220590912305A0912405B09108
:105260002505AC01BD010097F1E0AF07B10520F0C5
:105270004FEF5FEF60E070E0841B950BA60BB70B60
:105280008093220590932305A0932405B0932505D0
:10529000F89480918400909185004096115039F0E7
:1052A000C40FD51FC817D90708F4D9CA01C0EC012B
:1052B000D0938900C09388007894DF91CF911F919B
:1052C000FF90EF90DF90CF90BF90AF909F908F9026
:1052D0007F906F905F904F903F902F900895B6947D
:1052E000A79497948794220F049631E1863393070D
:1052F00009F03DCD20930D0580E288169104A104AC
:10530000B10408F459C020E2821A9108A108B1083A
:10531000811438E09306A104B104F8F0A4E09A9E49
:10532000C0011124865E924FFC0132962591349182
:10533000F82DEE27F39FD001F29FA10DBE1F06941A
:10534000AE1FBE1F1124FC01C590D490E12CF12C9E
:10535000CA1ADB0AE108F10822C0D501C401B695DA
:10536000A79597958795FC01EC7FCF01865E964FB8
:10537000FC01C590D490FC01329625913491E82D22
:10538000E770E29FC001E39F900D1124F3E0969532
:105390008795FA95E1F7C81AD90AE12CF12C4C0D42
:1053A0005D1D6E1D7F1D4093120550931305609384
:1053B000140570931505C0CDA0E28A2E912CA12C66
:1053C000B12CA1CFB694A79497948794220F0496FA
:1053D000A1E186339A0709F03BCD20930D0590E2B9
:1053E00089169104A104B10408F459C020E2821A7C
:1053F0009108A108B108811438E09306A104B10412
:10540000F8F0A4E09A9EC0011124865E924FFC0140
:10541000329625913491F82DEE27F39FD001F29F1B
:10542000A10DBE1F0694AE1FBE1F1124FC01C59026
:10543000D490E12CF12CCA1ADB0AE108F10822C051
:10544000D501C401B695A79597958795FC01EC7F8A
:10545000CF01865E964FFC01C590D490FC01329638
:1054600025913491E82DE770E29FC001E39F900DF4
:10547000112433E0969587953A95E1F7C81AD90A31
:10548000E12CF12C4C0D5D1D6E1D7F1D409305051B
:105490005093060560930705709308054DCDF0E223
:1054A0008F2E912CA12CB12CA1CFAC01BD017695F2
:1054B000679557954795FA01EC7F9F01265E364F19
:1054C000F90145915491F901329665917491877073
:1054D000869F9001879F300D1124C901F3E09695B6
:1054E0008795FA95E1F7481B590B60E070E014CD01
:1054F00080E290E0A0E0B0E0E5CCAC01BD017695A3
:10550000679557954795FA01EC7F9F01265E364FC8
:10551000F901C590D490F901329645915491877064
:10552000849F9001859F300D1124C90123E0969539
:1055300087952A95E1F7C81AD90AE12CF12C81CE7A
:1055400080E290E0A0E0B0E055CE80EDC82E87E08C
:10555000D82EE12CF12CF7CC86E40E94C07B8093FE
:10556000B504882351F00E948D7B60932B017093CA
:105570002C0180932D0190932E0183E50E94C07B26
:10558000882351F00E948D7B60932701709328013E
:105590008093290190932A0182E40E94C07B882392
:1055A00051F00E948D7B60932301709324018093BE
:1055B0002501909326010895CF92DF92EF92FF92FA
:1055C0000F931F93CF93DF93CBE3DAE00AE515E067
:1055D000C12CD12C7601C3946991799189919991CB
:1055E0000E94F0B5288939894A895B890E9451B6A1
:1055F0000E9406BCF80161937193819391938F018E
:10560000C616D706E806F90610F46B017C01FAE02D
:10561000CB34DF0709F76FEF7FEFCB01A7019601CE
:105620000E94F2B920936A0530936B0540936C0594
:1056300050936D05DF91CF911F910F91FF90EF90E7
:10564000DF90CF9008958091710C9091720C891B1E
:105650008F708F3019F40E942817F5CF8091710C4C
:105660008F5F8F70E091710C9BE49E9FF00111247D
:10567000E857FA4FDF011D929A95E9F798E0908379
:105680004091870C5091880C6091890C70918A0C24
:10569000458B568B678B708F40918B0C50918C0C87
:1056A00060918D0C70918E0C418F528F638F748F2F
:1056B00040918F0C5091900C6091910C7091920CD4
:1056C000458F568F678F70A34091930C5091940C27
:1056D0006091950C7091960C41A352A363A374A39F
:1056E0002091710C9091720C291303C094E6909351
:1056F0006E0C8093710C80916F00826080936F00BC
:1057000008959091710C8091720C981306C080914D
:10571000380A9091390A892B19F00E942817F1CF85
:105720000895EF92FF920F931F93CF93DF937B0126
:105730008A01E90120914F0A3091500A4091510AA3
:105740005091520AFC0160817181828193810E9493
:1057500051B60E9400BD6093870C7093880C8093B3
:10576000890C90938A0C2091530A3091540A4091ED
:10577000550A5091560AF7016081718182819381A7
:105780000E9451B60E9400BD60938B0C70938C0CEC
:1057900080938D0C90938E0C2091570A3091580A6B
:1057A0004091590A50915A0AF801608171818281B1
:1057B00093810E9451B60E9400BD60938F0C70933C
:1057C000900C8093910C9093920C20915B0A3091F5
:1057D0005C0A40915D0A50915E0A688179818A81F4
:1057E0009B810E9451B60E9400BD6093930C709300
:1057F000940C8093950C9093960C9091710C8091E1
:10580000720C981741F0DF91CF911F910F91FF908B
:10581000EF900C94232B0E94812B80916F00982F86
:10582000927081FF05C080916F008D7F80936F0023
:105830004091870C5091880C6091890C70918A0C72
:1058400040936D0250936E0260936F0270937002EA
:1058500040918B0C50918C0C60918D0C70918E0C42
:1058600040937102509372026093730270937402BA
:1058700040918F0C5091900C6091910C7091920C12
:10588000409375025093760260937702709378028A
:105890004091930C5091940C6091950C7091960CE2
:1058A0004093790250937A0260937B0270937C025A
:1058B000992329F080916F00826080936F00DF91BF
:1058C000CF911F910F91FF90EF900895EF92FF926B
:1058D0000F931F93CF93DF93CDB7DEB760970FB6CB
:1058E000F894DEBF0FBECDBF8FE4E82E8AE0F82E1D
:1058F00003E715E0F70121913191419151917F0129
:1059000060E070E080E89FE30E948DBBF801619346
:105910007193819391938F01F5E003381F0751F73D
:105920008091EA0B9091EB0BA091EC0BB091ED0BF9
:1059300089839A83AB83BC838091EE0B9091EF0BAC
:10594000A091F00BB091F10B8D839E83AF83B8874C
:105950008091F20B9091F30BA091F40BB091F50BA9
:1059600089879A87AB87BC878091F60B9091F70B5C
:10597000A091F80BB091F90B8D879E87AF87B88BFC
:105980009E01235F3F4FAE01475F5F4FBE016B5FDC
:105990007F4FCE0101960E94912B0E94DC2A6096D7
:1059A0000FB6F894DEBF0FBECDBFDF91CF911F9130
:1059B0000F91FF90EF900895CF93DF9390916F0038
:1059C000292F227091FF05C090916F009D7F9093C9
:1059D0006F0094E0899FA0011124FA01E359FD4F63
:1059E0006081718182819381222329F020916F004F
:1059F000226020936F00EA01CD58DA4F0E94F2B581
:105A0000288139814A815B810E9451B6DF91CF9113
:105A100008959091710C8091720C981306C080913A
:105A2000380A9091390A892B19F00E942817F1CF72
:105A30005E9A8091EB028E7F8093EB025E9A80915A
:105A4000EB028D7F8093EB02159A8091EB028B7FA6
:105A50008093EB025E9A0895CF93DF9390916F004D
:105A6000292F227091FF05C090916F009D7F909328
:105A70006F0094E0899FA0011124FA01E05EF34FCA
:105A80006081718182819381222329F020916F00AE
:105A9000226020936F00EA01CD58DA4F0E94F2B5E0
:105AA000288139814A815B810E9451B6DF91CF9173
:105AB0000895CF92DF92EF92FF928091B8028823EF
:105AC00071F1C090B402D090B502E090B602F090AF
:105AD000B70220E030E0A901C701B6010E94EBB592
