:100000000C9445180C946F180C946F180C946F187E
:100010000C94E7C80C945FC90C9437C90C940FC9B1
:100020000C946F180C946F180C946F180C946F1834
:100030000C946F180C94C0BD0C946F180C946F182E
:100040000C946F180C94E2410C9452CC0C946F18E1
:100050000C9424B40C946F180C946F180C946F18B3
:100060000C946F180C946F180C946F180C946F18F4
:100070000C946F180C946F180C946F180C946F18E4
:100080000C946F180C946F180C946F1849A02FA043
:1000900032A035A038A044A03BA055A03EA041A06E
:1000A00002B6B2B4E9B43EB6E9B4E9B4E9B4E9B42D
:1000B000E9B4E9B4E9B4E9B4E9B4E9B4E9B4E9B458
:1000C000E9B4E9B4E9B4E9B4E9B4E9B4E9B4E9B448
:1000D000E9B4E9B4E9B4E9B4E9B4E9B438B6E9B4E7
:1000E000E9B4E9B4E9B4E9B4E9B4E9B4E9B411B6FE
:1000F000E9B4E9B4E9B4E9B4E9B4E9B4E9B4E9B418
:10010000E9B4E9B455B6E6B49BC99EC991C995C98D
:10011000B5C9B5C9A2C9A6C9ACC9B0C9C1CBC6CBFE
:10012000CBCBD5CB03CC03CCDFCBE7CBEFCBF9CB21
:100130004E414E494E495459494E46CDCCCC3D0ACC
:10014000D7233C17B7D13877CC2B329595E6241FAF
:10015000B14F0A000020410000C84200401C462068
:10016000BCBE4CCA1B0E5AAEC59D74434F4D4D5577
:100170004E49434154494F4E0044525952554E0046
:100180004552524F525300494E464F004543484F47
:1001900000536C6565702E2E2E00206F6620004D7A
:1001A000424C2047323920706F696E74200059200C
:1001B0006F7574206F662072616E67652028312D1F
:1001C00035292E0A0058206F7574206F66207261E1
:1001D0006E67652028312D35292E0A00000048421F
:1001E0000000484200008040000000004D65736838
:1001F0002070726F62696E6720646F6E652E0A00F0
:100200005374617274206D6573682070726F6269D7
:100210006E67207769746820224732392053312273
:100220002066697273742E0A004732380A473239E1
:100230002053320053746174653A20004D65736831
:1002400020626564206C6576656C696E6720686104
:1002500073206E6F20646174612E0A0053206F75E5
:1002600074206F662072616E67652028302D3529F5
:100270002E0A004D65736820706F696E742063618B
:100280006E6E6F74206265207265736F6C76656444
:100290000A00436C69636B20746F20726573756D1F
:1002A000652E2E2E004E6F206D6F76652E005072DB
:1002B000696E742074696D653A20008C0187018035
:1002C0000179016B016F66660044454255473A006B
:1002D0004B494C4C45442E20004D313133205300C6
:1002E0006F6B00414E4554204132204F66662E0010
:1002F0002C20002C2000544845524D414C5F505258
:100300004F54454354494F4E004155544F52455068
:100310004F52545F53445F53544154555300454D1D
:10032000455247454E43595F504152534552004351
:100330004153455F4C494748545F425249474854EE
:100340004E45535300544F47474C455F4C4947482F
:10035000545300534F4654574152455F504F5745F1
:1003600052004255494C445F50455243454E54005B
:100370004C4556454C494E475F44415441005A5FF5
:1003800050524F4245004155544F4C4556454C0044
:100390005052494E545F4A4F420050524F475245C7
:1003A0005353004155544F5245504F52545F54459A
:1003B0004D5000564F4C554D45545249430045450C
:1003C00050524F4D0053455249414C5F584F4E5F7C
:1003D000584F4646004649524D574152455F4E419F
:1003E0004D453A4D61726C696E20312E312E3920A7
:1003F000284769746875622920534F555243455FF9
:10040000434F44455F55524C3A68747470733A2FA9
:100410002F6769746875622E636F6D2F4D61726C02
:10042000696E4669726D776172652F4D61726C6994
:100430006E2050524F544F434F4C5F5645525349D4
:100440004F4E3A312E30204D414348494E455F547E
:100450005950453A414E4554204132204558545256
:10046000554445525F434F554E543A3120555549F6
:10047000443A63656465326132662D343161322DF0
:10048000343734382D396231322D633535633632A5
:100490006633363766660A002F2F20004D3134351B
:1004A00020533C696E6465783E206F7574206F66DA
:1004B0002072616E67652028302D31290A00205492
:1004C00000205200416363656C65726174696F6EF0
:1004D0003A2050005741524E494E4721204C6F77E9
:1004E000205A204A65726B206D6179206C656164C9
:1004F00020746F20756E77616E746564207061750D
:100500007365732E0A000000E0C00000A0C0000068
:1005100000004F666673657473206170706C696566
:1005200064004572723A20546F6F20666172210038
:10053000546F6F206661722066726F6D20726566FF
:100540006572656E636520706F696E740A00FFFFE7
:10055000FF20466C6F773A200000010F150E12FF46
:10056000FFFFFF16170E13FFFFFFFF03021A14FF12
:10057000FFFFFFFFFFFF0C04FFFFFF01000EFFFF67
:10058000FF0C190DFF1820643A0020693A00207012
:100590003A00496E76616C6964206578747275649E
:1005A00065720A0043290A0061626C656420286D47
:1005B000696E2074656D702000436F6C64206578EF
:1005C00074727564657320617265200020643A005E
:1005D00020693A0020703A004E6F206361736520F5
:1005E0006C696768740A00454550524F4D204F4B67
:1005F0000A00416374697665204578747275646594
:10060000723A2000496E76616C6964206578747274
:10061000756465720A006F6B00456E6473746F7069
:100620007320256320256320256320256300205A3D
:100630003A0020593A0020583A00656E6473746F8E
:100640007073206869743A200047323920533100B2
:1006500047323920533200436C69636B20746F203A
:10066000426567696E00486F6D696E672058595A18
:10067000004732380053746F726520736574746973
:100680006E6773004C6F61642073657474696E6784
:1006900073004C6576656C20636F726E65727300D3
:1006A000426564205A00426564205A0046616465D0
:1006B000204865696768740046616465204865691B
:1006C00067687400466164652048656967687400FE
:1006D0004F6666004F6E2000426564204C6576656B
:1006E0006C696E67004C6576656C206265640050CD
:1006F000726570617265004D343238005072656801
:1007000065617420504C4100436F6F6C646F776E6D
:10071000005072656865617420414253004368610E
:100720006E67652066696C616D656E740043686113
:100730006E67652066696C616D656E74004D36305C
:10074000302042300044697361626C6520737465C7
:100750007070657273004D38340053657420686F93
:100760006D65206F66667365747300426564204C26
:100770006576656C696E6700486F6D65205A004745
:100780003238205A00486F6D6520590047323820B2
:100790005900486F6D652058004732382058004195
:1007A00075746F20686F6D6500473238004D6F7645
:1007B000652061786973004D61696E004D6F7665E3
:1007C0002058004D6F76652059004D6F7665205A90
:1007D000004578747275646572004D6F76652030DF
:1007E0002E316D6D004D6F766520316D6D004D6F52
:1007F00076652031306D6D004D6F766520617869CA
:1008000073004578747275646572004D6F7665206B
:100810005A004D6F76652059004D6F76652058005F
:100820004578747275646572004D6F7665205A0064
:100830004D6F76652059004D6F76652058005072D7
:10084000657061726500496E697469616C697A6589
:1008500020454550524F4D00436F6E74726F6C00CF
:10086000526573746F7265206661696C7361666549
:10087000004C6F61642073657474696E677300491E
:100880006E697469616C697A6520454550524F4DB7
:100890000053746F72652073657474696E677300BA
:1008A00046696C616D656E74004D6F74696F6E00A2
:1008B00054656D7065726174757265004D61696E25
:1008C00000507265686561742041425320636F6E09
:1008D00066005072656865617420504C4120636FFA
:1008E0006E66005049442D44005049442D44005048
:1008F00049442D49005049442D49005049442D5048
:10090000005049442D500046616E20737065656447
:100910000046616E2073706565640046616E2073E9
:100920007065656400426564004265640042656408
:10093000004E6F7A7A6C65004E6F7A7A6C65004E65
:100940006F7A7A6C6500436F6E74726F6C005374CB
:100950006F72652073657474696E677300426564B5
:100960000042656400426564004E6F7A7A6C6500EF
:100970004E6F7A7A6C65004E6F7A7A6C65004661CC
:100980006E2073706565640046616E2073706565E6
:10099000640046616E2073706565640054656D7017
:1009A00065726174757265005654726176206D6966
:1009B0006E005654726176206D696E0056547261F5
:1009C00076206D696E00566D696E00566D696E0019
:1009D000566D696E00566D6178204500566D6178E0
:1009E000204500566D6178204500566D6178205A8B
:1009F00000566D6178205A00566D6178205A005675
:100A00006D6178205900566D6178205900566D61EE
:100A100078205900566D6178205800566D61782015
:100A20005800566D61782058004D6F74696F6E00E4
:100A300041626F7574205072696E74657200436F05
:100A40006E74726F6C0050726570617265005475DF
:100A50006E6500496E666F2073637265656E004255
:100A600061627973746570205A004368616E6765CE
:100A70002066696C616D656E74004368616E6765C0
:100A80002066696C616D656E74004D3630302042B1
:100A900030004261627973746570205A00466C6F51
:100AA0007700466C6F7700466C6F770046616E206A
:100AB00073706565640046616E20737065656400DF
:100AC00046616E207370656564004265640042652E
:100AD0006400426564004E6F7A7A6C65004E6F7AEE
:100AE0007A6C65004E6F7A7A6C65004661646520A9
:100AF0004865696768740046616465204865696790
:100B000068740046616465204865696768740042DE
:100B10006564205A00426564205A0053706565641C
:100B2000005370656564005370656564004D6169CC
:100B30006E005072656865617420504C4120456EAE
:100B400064005072656865617420504C41204265B4
:100B500064005072656865617420504C41005072A9
:100B6000657061726500507265686561742041420C
:100B70005320456E6400507265686561742041427F
:100B8000530050726568656174204142532042658C
:100B9000640050726570617265004261636B004E63
:100BA00065787420636F726E6572004C6576656C53
:100BB000696E6720446F6E6521004D6F7665205A1F
:100BC00000473239205332004E65787420506F69E7
:100BD0006E74002569202F202575000000E0C000FC
:100BE00000A0C00000000000003E4300007A430067
:100BF000003443486F6D696E67206661696C656497
:100C000000486F6D652058592066697273740A0038
:100C1000486F6D6520585920666972737400206EA4
:100C20006F7420656E74657265642E0A0050726F71
:100C30007465637465642050696E0A0020573A0039
:100C40004520436F6F6C696E672E2E2E004520483D
:100C5000656174696E672E2E2E0020573A0042653A
:100C60006420636F6F6C696E672E2E2E0042656480
:100C70002068656174696E672E2E2E00205A3A0036
:100C800020593A0020436F756E7420583A00204571
:100C90003A00205A3A0020593A00583A0042656416
:100CA0002068656174696E67206661696C656400BF
:100CB00048656174696E67206661696C65640045AA
:100CC000312048656174696E67206661696C65648E
:100CD0000048656174696E67206661696C656400CF
:100CE0001000AA03F0013A01900222013003100122
:100CF000D00302017004F7001005ED00B005E50017
:100D00005006DD00F006D7009007D1003008CC0077
:100D1000D008C7007009C300100ABE00B00ABB00AB
:100D2000500BB700F00BB300900CB000D00DAA0030
:100D3000100FA5005010A00090119B00D01296003B
:100D4000B014900090168B0070188500501A800027
:100D5000301C7B00B01E750030216F00B02369008D
:100D60003026640010285F00902A5A00702C55002D
:100D7000F02E4F0070314800B0324500F033410092
:100D800070363900103737005038330090392D0055
:100D9000D03A2700B03C1C00503D1700F03D110038
:100DA000903E0900D03FE5FF4531204572723A2060
:100DB0004D415854454D50004572723A204D4158AE
:100DC00054454D5020424544004D415854454D50E6
:100DD00020747269676765726564004531204572E9
:100DE000723A204D494E54454D50004572723A209A
:100DF0004D494E54454D5020424544004D494E54B6
:100E0000454D502074726967676572656400202FD4
:100E1000002042403A0020403A00416D6178204570
:100E200000416D6178204500416D6178205A004194
:100E30006D6178205A00416D6178205900416D61E3
:100E400078205900416D6178205800416D6178200B
:100E50005800412D74726176656C00412D74726189
:100E600076656C00412D7265747261637400412D6A
:100E70007265747261637400416363656C00416301
:100E800063656C004D6F74696F6E0056652D6A6501
:100E9000726B0056652D6A65726B0056652D6A652A
:100EA000726B00567A2D6A65726B00567A2D6A65F0
:100EB000726B0056792D6A65726B0056792D6A65E2
:100EC000726B0056792D6A65726B0056782D6A65D3
:100ED000726B0056782D6A65726B0056782D6A65C4
:100EE000726B004D6F74696F6E004573746570733B
:100EF0002F6D6D004573746570732F6D6D005A739F
:100F0000746570732F6D6D005A73746570732F6DF7
:100F10006D005973746570732F6D6D00597374652E
:100F200070732F6D6D005873746570732F6D6D0045
:100F30005873746570732F6D6D004D6F74696F6EAB
:100F40000053746570732F6D6D004A65726B0041BC
:100F50006363656C65726174696F6E0056656C6F72
:100F60006369747900436F6E74726F6C004C6F61CB
:100F700064206D6D004C6F6164206D6D004C6F617D
:100F800064206D6D00556E6C6F6164206D6D005551
:100F90006E6C6F6164206D6D00556E6C6F616420C6
:100FA0006D6D0046696C2E204469612E0046696CA7
:100FB0002E204469612E004F6666004F6E2000456A
:100FC00020696E206D6D3300436F6E74726F6C001C
:100FD00020746F6F206C6F6E672065787472757304
:100FE000696F6E2070726576656E7465640A0020A4
:100FF000636F6C6420657874727573696F6E2070AE
:10100000726576656E7465640A0024F4D43050C34A
:101010008E20C2A24017828B7011127A910D816CC2
:10102000D90AA861E108C7586607615143061E4BFB
:101030005D05C145A7041A411104093D98037139A2
:1010400031034036DB0265339102D4305402802EE6
:101050001D02632CEE01752AC501B028A0011027DE
:1010600081018F2564012B244B01E0223401AC2146
:101070001F018D200D01801FFC00841EED00971DB7
:10108000DF00B81CD200E61BC600201BBC00641A9F
:10109000B200B219A8000A19A0006A189900D11765
:1010A000910040178B00B516840031167E00B315F1
:1010B00079003A157300C7146F0058146A00EE13D4
:1010C00066008813630025135E00C7125B006C1274
:1010D000570015125400C111510070114F00211119
:1010E0004B00D61049008D104700461044000210F6
:1010F0004200C00F4000800F3E00420F3C00060F30
:101100003B00CB0E3800930E37005C0E3500270EE7
:101110003400F30D3200C10D3100900D3000600D30
:101120002E00320D2D00050D2C00D90C2B00AE0C1D
:101130002900850C29005C0C2700350C27000E0CBB
:101140002600E80B2400C40B2400A00B23007D0B19
:1011500023005A0B2100390B2100180B2000F80A3C
:101160001F00D90A1E00BB0A1E009D0A1D00800A2E
:101170001D00630A1C00470A1B002C0A1B00110AF1
:101180001A00F7091A00DD091900C4091900AB0992
:101190001900920917007B091800630917004C0910
:1011A000160036091600200916000A091500F50870
:1011B0001500E0081400CC081400B8081400A408B6
:1011C0001400900813007D0812006B0813005808E3
:1011D00012004608120034081100230811001208FA
:1011E000110001081100F0071000E0071000D007FF
:1011F0001000C0071000B0070F00A10710009107F2
:101200000E0083070F0074070F0065070E005707D5
:101210000E0049070E003B070D002E070E002007A9
:101220000D0013070D0006070D00F9060C00ED0672
:101230000D00E0060C00D4060C00C8060C00BC062D
:101240000C00B0060C00A4060B0099060C008D06DD
:101250000B0082060B0077060B006C060B00610684
:101260000A0057060B004C060A0042060A00380620
:101270000A002E060A0024060A001A060A001006B2
:10128000090007060A00FD050900F4050900EB0541
:101290000900E2050900D9050900D0050900C705C4
:1012A0000900BE050900B5050800AD050800A50543
:1012B00009009C050800940508008C0508008405B9
:1012C00008007C050800740508006C05070065052A
:1012D00008005D050700560508004E050700470594
:1012E00007004005080038050700310507002A05FA
:1012F0000700230507001C050600160507000F055B
:1013000007000805060002050700FB040600F504B7
:101310000700EE040600E8040600E2040700DB0410
:101320000600D5040600CF040600C9040600C30465
:101330000600BD040600B7040600B1040500AC04B5
:101340000600A6040600A00405009B040600950400
:101350000500900406008A04050085040500800449
:1013600006007A04050075040500700405006B048E
:10137000050066040500610405005C0405005704CF
:101380000500520405004D0405004804050043040F
:1013900005003E0404003A0405003504050030044D
:1013A00004002C04050027040400230405001E0487
:1013B00004001A04040016040500110404000D04BE
:1013C0000400090405000404040000040400FC03F4
:1013D0000400F8030400F4030400F0030400EC0329
:1013E0000400E8030400E4030400E0030400DC0359
:1013F0000400D8030400D4030400D0030400CC0389
:101400000400C8030300C503030024F404D9201B0F
:10141000C40C5C0E9804C4095F0265077101F405F1
:10142000F900FB04B30048048700C10369005803B6
:10143000550003034500BE023A0084023100530206
:101440002A002902250004022000E4011C00C80132
:101450001900AF01170098011400840113007101F5
:1014600010006101100051010E0043010D00360112
:101470000B002B010B0020010B00150109000C01D2
:10148000090003010800FB000800F3000800EB005E
:101490000700E4000600DE000600D8000600D200C7
:1014A0000600CC000500C7000500C2000500BD0015
:1014B0000400B9000400B5000400B1000400AD0050
:1014C0000400A9000400A5000300A20003009F007F
:1014D00004009B00030098000300950002009300A5
:1014E0000300900003008D0002008B0003008800C1
:1014F00002008600020084000300810002007F00D9
:1015000002007D0002007B000200790002007700EB
:1015100001007600020074000200720001007100F8
:1015200002006F0002006D0001006C0002006A0002
:10153000010069000200670001006600010065000B
:10154000010064000200620001006100010060000F
:1015500001005F0002005D0001005C0001005B0013
:1015600001005A0001005900010058000100570015
:101570000100560001005500010054000100530015
:101580000000530001005200010051000100500012
:1015900001004F0001004E0000004E0001004D0010
:1015A00001004C0001004B0000004B0001004A000C
:1015B0000100490001004800000048000100470008
:1015C0000100460000004600010045000000450003
:1015D00001004400010043000000430001004200FC
:1015E00000004200010041000000410001004000F5
:1015F00001003F0000003F0001003E0000003E00EF
:1016000001003D0000003D0001003C0000003C00E6
:1016100000003C0001003B0000003B0001003A00DC
:1016200000003A00010039000000390001003800D4
:1016300000003800000038000100370000003700CB
:1016400001003600000036000000360001003500C1
:1016500000003500000035000100340000003400B7
:1016600000003400010033000000330000003300AC
:1016700001003200000032000000320001003100A1
:101680000000310000003100010030000000300097
:101690000000300001002F0000002F0000002F008C
:1016A00000002F0001002E0000002E0000002E0080
:1016B00001002D0000002D0000002D0000002D0075
:1016C00001002C0000002C0000002C0000002C0069
:1016D00001002B0000002B0000002B0000002B005D
:1016E00001002A0000002A0000002A0000002A0051
:1016F0000100290000002900000029000000290045
:101700000000290001002800000028000000280037
:10171000000028000000280001002700000027002A
:10172000000027000000270000002700010026001D
:101730000000260000002600000026000000260011
:101740000100250000002500000025000000250004
:1017500000002500000025000100240000002400F6
:1017600000002400000024000000240001002300E9
:1017700000002300000023000000230000002300DD
:1017800000002300000023000100220000002200CE
:1017900000002200000022000000220000002200C1
:1017A00001002100000021000000210000002100B4
:1017B00000002100000021000000210001002000A5
:1017C0000000200000002000000020000000200099
:1017D00000002000000020000000200001001F0089
:1017E00000001F0000001F0000001F0000001F007D
:1017F00000001F0000001F0001001E0000001E006E
:1018000000001E0000001E000000043700001E291A
:101810000000511B00005810000010090000CC040B
:10182000000078020000410100004B6420002364A6
:101830006566696E652044454641554C545F004BD2
:1018400069200023646566696E65204445464155FC
:101850004C545F004B70200023646566696E652000
:1018600044454641554C545F0050494420417574ED
:101870006F74756E652066696E6973686564212092
:1018800050757420746865206C617374204B702CE3
:10189000204B6920616E64204B6420636F6E73740B
:1018A000616E74732066726F6D2062656C6F772055
:1018B000696E746F20436F6E6669677572617469D3
:1018C0006F6E2E680A00504944204175746F74751C
:1018D0006E65206661696C6564212074696D656F51
:1018E00075740A00453120544845524D414C2052F0
:1018F000554E415741590042454420544845524DA8
:10190000414C2052554E4157415900546865726D03
:10191000616C2052756E61776179004531204865B0
:101920006174696E67206661696C65640042656414
:101930002068656174696E67206661696C65640022
:1019400048656174696E67206661696C6564005002
:101950004944204175746F74756E65206661696CC9
:101960006564212054656D706572617475726520BF
:10197000746F6F20686967680A00204B643A200022
:10198000204B693A2000204B703A20000A20436C1B
:10199000617373696320504944200A002054753AEA
:1019A0002000204B753A2000206D61783A200020FD
:1019B0006D696E3A200020643A20002062696173EC
:1019C0003A2000504944204175746F74756E65204B
:1019D0006661696C65642120426164206578747277
:1019E00075646572206E756D6265720A00504944B7
:1019F000204175746F74756E652073746172740A1A
:101A0000006265640A002C2073797374656D20731D
:101A1000746F7070656421204865617465725F49F8
:101A2000443A200020204E6F7A7A6C653A20007488
:101A30006F20636F6E74696E75652E2E2E00616E59
:101A40006420707265737320627574746F6E0049E0
:101A50006E736572742066696C616D656E740020CA
:101A6000204E6F7A7A6C653A2000200066696C61BE
:101A70006D656E74206C6F616400576169742066D7
:101A80006F720020204E6F7A7A6C653A2000200039
:101A900066696C616D656E7420707572676500575C
:101AA00061697420666F7200746F20726573756D62
:101AB00065005761697420666F72207072696E7478
:101AC00000454550524F4D206461746173697A65D9
:101AD000206572726F722E0A00290A0020627974E2
:101AE00065733B20637263200053657474696E678D
:101AF000732053746F726564202800290A002062E5
:101B0000797465733B2063726320002073746F7275
:101B100065642073657474696E677320726574728E
:101B20006965766564202800202863616C63756CA4
:101B30006174656429210A0020213D20004545503B
:101B4000524F4D20435243206D69736D6174636839
:101B5000202D202873746F7265642920002053693A
:101B60007A653A2000496E6465783A2000204D611C
:101B7000726C696E3D563535290A0028454550522C
:101B80004F4D3D00454550524F4D2076657273696B
:101B90006F6E206D69736D61746368200020202072
:101BA000202020005A005900202020200058000941
:101BB00020000000000000000000000000003FFFC7
:101BC000F00000000000000000000000003800707D
:101BD00000000000000000000000000030FC3000A9
:101BE000000000000000000000000020FC100000C9
:101BF000000000000000000000002078100000003D
:101C00000000000000000000002030100000000074
:101C100000000000000000002C00D03FC0000000C9
:101C2000000000002082002E31D07FE00000000084
:101C30000000001041002F7BD07FE000000000007A
:101C400000001041002F7BD07FE00000000000006A
:101C5000002082002E31D03FC000000000000000B4
:101C60004104002C00D03FC00000000000000082B2
:101C700008002030107FE000000000000000820813
:101C8000002078107FE00000000000000041040008
:101C900020FC107FE00000000000000020820030E7
:101CA000FC301F8000000000000000000000380031
:101CB000700F0000000000000000FFFFC03FFFF0B9
:101CC000060000000000000000FFFFC00000000050
:101CD00000000000000000000000003FFFF00000D6
:101CE000000000000000000000003800700000004C
:101CF00000000000000000000031863000000000FD
:101D00000000000000000000238710000000000019
:101D10000000000000000027879000000000000085
:101D20000000000000002F87D0000000000000002D
:101D300000000000002F03D03FC0000000000000A2
:101D4000002082002030107FE00000000000000032
:101D50001041002078107FE000000000000000101B
:101D600041002078107FE000000000000000208289
:101D7000002030103FC000000000000000410400BF
:101D80002F03D03FC0000000000000008208002F99
:101D900087D07FE000000000000000820800278755
:101DA000907FE00000000000000041040023871045
:101DB0007FE0000000000000002082003186301F1C
:101DC00080000000000000000000003800700F00DC
:101DD00000000000000000FFFFC03FFFF006000011
:101DE000000000000000FFFFC0000000414E45540D
:101DF0002041322052656164792E005072696E7400
:101E0000696E672E2E2E005072696E742070617597
:101E1000736564003A004361703A00205A0020590B
:101E200000580020204D61783A2000205A002059A7
:101E300000580020204D696E3A20004F6E20004F60
:101E4000666600536F667420656E6473746F70739A
:101E50003A20004F66660A0046616465204865695D
:101E60006768742000426564204C6576656C696E15
:101E70006720004661696C656420746F20656E613F
:101E8000626C6520426564204C6576656C696E679E
:101E90000A004D65736820426564204C6576656C68
:101EA00020646174613A0A004D65736820706F693F
:101EB0006E742063616E6E6F74206265207265734C
:101EC0006F6C7665640A004D34323120696E636F41
:101ED000727265637420706172616D6574657220E1
:101EE00075736167650A004D3630303A20546F6F64
:101EF00020636F6C6400486F74656E6420746F6F4C
:101F000020636F6C640A00496E73657274206669A1
:101F10006C616D656E7420616E64207072657373A0
:101F200020627574746F6E0A00507265737320625C
:101F30007574746F6E20746F2068656174206E6FA5
:101F40007A7A6C650A00496E736572742066696CF2
:101F5000616D656E7420616E6420707265737320AC
:101F6000627574746F6E20286F72204D313038297D
:101F70000A00496E736572742066696C616D656EE6
:101F80007420616E6420707265737320627574745E
:101F90006F6E20286F72204D313038290A000045BD
:101FA0007874727564656420746F74616C3A200093
:101FB000256C642E25696D00004C6F6E6765737427
:101FC000206A6F622074696D653A200000546F7456
:101FD000616C207072696E742074696D653A2000BE
:101FE000436F6D706C657465643A20005072696E61
:101FF0007420436F756E743A20004D6178205465EB
:102000006D703A20313330004D696E2054656D702B
:102010003A203500544265643A3125206265746186
:102020002033393530004D61782054656D703A2089
:10203000323530004D696E2054656D703A203500A0
:1020400054303A20312520626574612033393530AF
:10205000005053553A2047656E65726963005072AF
:102060006F746F636F6C3A20312E3000426175647B
:102070003A2031313532303000416E6574004D65A3
:102080007368204C6576656C696E6700457874727C
:1020900075646572733A203100687474703A2F2F3A
:1020A0006D61726C696E66772E6F726700414E4586
:1020B0005420413200323031382D30382D3031004B
:1020C000312E312E39004D61726C696E005072698B
:1020D0006E74657220537461747300546865726D18
:1020E0006973746F727300426F61726420496E6627
:1020F0006F005072696E74657220496E666F004D94
:1021000061696E004D37303220542564004D363001
:102110003020423020542564004D373032203B259A
:1021200064004D37303120542564004368616E6788
:10213000652066696C616D656E74005072656865D6
:10214000617420414253005072656865617420508B
:102150004C41004368616E67652066696C616D651E
:102160006E74005052494E5420504155534544001E
:10217000554E4C4F41442046494C414D454E54002C
:102180004C4F41442046494C414D454E54005075FA
:10219000726765206D6F726500436F6E74696E754E
:1021A0006500524553554D45204F5054494F4E53AD
:1021B0003A0020204E6F7A7A6C653A20006368619D
:1021C0006E6765006F66207468652066696C616D76
:1021D000656E74005761697420666F722073746154
:1021E00072740020204E6F7A7A6C653A20002000CD
:1021F00066696C616D656E7420756E6C6F616400EC
:102200005761697420666F720020204E6F7A7A6C75
:10221000653A20002000506C656173652077616924
:10222000742E2E2E0048656174696E67206E6F7A79
:102230007A6C650020204E6F7A7A6C653A20002017
:102240000068656174206E6F7A7A6C652E0050723A
:1022500065737320627574746F6E20746F00506CB8
:1022600065617365207265736574005052494E5400
:1022700045522048414C544544005072696E746583
:10228000722068616C7465642E206B696C6C2829FF
:102290002063616C6C6564210A001FFFFFFFFFFF74
:1022A000FF600000000001FF400000000000FF8010
:1022B00000000000007F83CF00000C303F87FF80CC
:1022C000000C301F867980000C000F8C30C7838C87
:1022D00030E78C30CFC7CC31F38C30DCECEC33B949
:1022E0008C30D86C6C33198C30D06C0C33198C302A
:1022F000D86C0C33198C30DC6C0E3B198C30CF7CD5
:10230000079F198C30C77C038F1940000000000024
:1023100002600000000000061FFFFFFFFFFFF82023
:1023200020506C616E6E65724275666665724279A8
:102330007465733A20002046726565204D656D6FA7
:1023400072793A2000436F6D70696C65643A20447D
:10235000656320313620323031380A00207C20413C
:102360007574686F723A2028466C6F7269616E20CE
:10237000532C20414E455420413220636F6E6669D4
:10238000672032362E382E3138290A003230313863
:102390002D30382D303100204C617374205570641D
:1023A000617465643A2000312E312E390A004D6186
:1023B000726C696E0020536F66747761726520528B
:1023C000657365740A00205761746368646F6720E1
:1023D00052657365740A002042726F776E206F75C4
:1023E000742052657365740A002045787465726EB6
:1023F000616C2052657365740A00506F7765725581
:10240000700A0073746172740A00656E7175657587
:1024100065696E672022005761726E696E673A20A7
:10242000486F6D696E672042756D702044697669EA
:10243000736F72203C20310A000202040000A040A9
:102440000000A040000000400000454300007F4322
:10245000000034434572726F722077726974696E3E
:102460006720746F20454550524F4D210A00556E2C
:102470006B6E6F776E20636F6D6D616E643A2022B4
:1024800000486F74656E6420746F6F20636F6C64B6
:102490000A00486F6D6520257325732573206669D2
:1024A000727374002066697273740A005A005900CE
:1024B0005800486F6D6520006563686F3A0045728B
:1024C000726F723A00453120544845524D414C20BC
:1024D00052554E41574159004245442054484552B7
:1024E0004D414C2052554E41574159005468657238
:1024F0006D616C2052756E6177617900000609008C
:10250000FE0701920321207FFF07FF07FF00000065
:10251000060000010707060200808080808000809E
:10252000030202060105A0A005070706000050509F
:10253000F850F850500507070600002078A07028D2
:10254000F020050707060000C0C8102040981805B5
:1025500007070600006090A040A8906802030306E9
:102560000104C040800307070601002040808080EE
:1025700040200307070601008040202020408005FE
:10258000050506000120A870A82005050506000124
:102590002020F820200203030602FFC0408005012E
:1025A00001060003F8020202060200C0C00505058C
:1025B000060001081020408005070706000070880B
:1025C000888888887003070706010040C0404040A3
:1025D00040E0050707060000708808708080F80555
:1025E0000707060000F81020100808F00507070686
:1025F000000010305090F81010050707060000F892
:1026000080F008088870050707060000708080F0D9
:10261000888870050707060000F808102020202091
:10262000050707060000708888708888700507070E
:102630000600007088887808087002050506020008
:10264000C0C000C0C00206060602FFC0C000C040F5
:10265000800407070600001020408040201005037A
:1026600003060002F800F804070706010080402076
:102670001020408005070706000070880810200021
:102680002005070706000070880868A8A8700507DD
:1026900007060000708888F8888888050707060004
:1026A00000F08888F08888F0050707060000708829
:1026B0008080808870050707060000F08888888879
:1026C00088F0050707060000F88080F08080F80594
:1026D0000707060000F88080F08080800507070665
:1026E0000000708880B88888700507070600008899
:1026F0008888F88888880107070602008080808023
:1027000080808005070706000038101010109060C8
:102710000507070600008890A0C0A090880507075D
:10272000060000808080808080F805070706000092
:1027300088D8A8888888880507070600008888C880
:10274000A898888805070706000070888888888808
:1027500070050707060000F08888F0808080050774
:102760000706000070888888A8906805070706009B
:1027700000F08888F0A090880507070600007880A0
:1027800080700808F0050707060000F820202020C8
:10279000202005070706000088888888888870053B
:1027A00007070600008888888888502005070706E4
:1027B00000008888888888A85005070706000088D8
:1027C00088502050888805070706000088888850B0
:1027D000202020050707060000F80810204080F898
:1027E000030707060100E08080808080E005050582
:1027F0000600018040201008030707060100E020C2
:1028000020202020E0050303060004205088050155
:1028100001060000F80202020602058040050505D7
:102820000600007008788878050707060000808099
:10283000B0C88888F00505050600007080808870A3
:1028400005070706000008086898888878050505C8
:102850000600007088F88070050707060000304801
:10286000E0404040400506060600FF708888780872
:10287000700507070600008080B0C88888880107B7
:10288000070602008000808080808003080806011F
:10289000FF200020202020A0400407070600008021
:1028A0008090A0C0A090030707060100C0404040F0
:1028B0004040E0050505060000D0A8A8A8A8050529
:1028C00005060000B0C88888880505050600007068
:1028D000888888700506060600FFF08888F08080EA
:1028E0000506060600FF78888878080805050506AD
:1028F0000000B0C88080800505050600007080706B
:1029000008F00407070600004040E0404040300562
:1029100005050600008888889868050505060000FA
:1029200088888850200505050600008888A8A850DA
:10293000050505060000885020508805060606009B
:10294000FF888888780870050505060000F81020C3
:1029500040F8030707060100204040804040200166
:1029600007070602008080808080808003070706BA
:1029700001008040402040408005020206000268BD
:102980009000000006000048617264636F64656433
:102990002044656661756C742053657474696E6754
:1029A00073204C6F616465640A002823000088135B
:1029B000000032000000102700000000C8430000A3
:1029C000C843000080400000C8410000C842000029
:1029D000C8420000C8430000BE4220286D6D290097
:1029E00020204D36303320002055004C0046696CC5
:1029F000616D656E74206C6F61642F756E6C6F61B4
:102A000064206C656E677468733A0A002044002085
:102A1000490020204D33303420500020440020490C
:102A20000020204D33303120500050494420736540
:102A30007474696E67733A0A0020460020420020D1
:102A4000480020204D3134352053004D61746572AB
:102A500069616C2068656174757020706172616D68
:102A600065746572733A0A00205A002059002020CC
:102A7000473239205333205800205A0020204D344B
:102A800032302053004D65736820426564204C65E8
:102A900076656C696E673A0A00205A00205900205A
:102AA000204D323036205800486F6D65206F6666C5
:102AB0007365743A0A00204500205A00205900200E
:102AC000580020540020530020204D323035205132
:102AD0000020453C6D61785F655F6A65726B3E0002
:102AE00020583C6D61785F785F6A65726B3E205953
:102AF0003C6D61785F795F6A65726B3E205A3C6D10
:102B000061785F7A5F6A65726B3E00416476616EE0
:102B10006365643A20513C6D696E5F7365676D65EE
:102B20006E745F74696D655F75733E20533C6D69AB
:102B30006E5F66656564726174653E20543C6D69C4
:102B40006E5F74726176656C5F66656564726174F0
:102B5000653E0020540020520020204D32303420A9
:102B60005000416363656C65726174696F6E202803
:102B7000756E6974732F7332293A20503C707269F4
:102B80006E745F616363656C3E20523C7265747263
:102B90006163745F616363656C3E20543C74726171
:102BA00076656C5F616363656C3E0A0020450020BA
:102BB0005A0020590020204D3230312058004D61FC
:102BC00078696D756D20416363656C6572617469C8
:102BD0006F6E2028756E6974732F7332293A0A005C
:102BE000204500205A0020590020204D323033204B
:102BF00058004D6178696D756D2066656564726118
:102C00007465732028756E6974732F73293A0A00EE
:102C1000204500205A0020590020204D39322058EC
:102C20000053746570732070657220756E69743A14
:102C30000A0020204D3230302044300A0020204D40
:102C40003230302044002044697361626C65640A4C
:102C50000046696C616D656E742073657474696E8D
:102C600067733A0020204D3134392043203B2055F2
:102C70006E69747320696E2043656C736975730A9D
:102C8000002020473231202020203B00256973009E
:102C900025696D20256973002569682025696D20E7
:102CA00025697300256964202569682025696D20E0
:102CB00025697300256979202569642025696820C4
:102CC00025696D20256973004B494C4C45442E20E5
:102CD0000053544F505045442E20005072696E747A
:102CE00065722073746F70706564206475652074FC
:102CF0006F206572726F72732E2046697820746837
:102D000065206572726F7220616E64207573652034
:102D10004D39393920746F20726573746172742E65
:102D2000202854656D7065726174757265206973D1
:102D30002072657365742E20536574206974206158
:102D4000667465722072657374617274696E672946
:102D50000A004E6F20436865636B73756D20776959
:102D60007468206C696E65206E756D6265722C20CA
:102D70004C617374204C696E653A2000636865632A
:102D80006B73756D206D69736D617463682C204C75
:102D9000617374204C696E653A20004C696E652041
:102DA0004E756D626572206973206E6F74204C6180
:102DB0007374204C696E65204E756D6265722B319F
:102DC0002C204C617374204C696E653A20004D31A3
:102DD00031300020496E76616C69642065787472C8
:102DE00075646572200000060900FE000000000006
:102DF00001090008FE000005080806000040F0C8B0
:102E00008888987810050808060000C0F888888827
:102E10008888F80505050600012030F830200508EF
:102E2000080600002070F820202020E0050909068F
:102E300000FF2070A8A8B88888702005090906003E
:102E4000FFE080C0B0A8283028280509090600FF47
:102E5000F8A88888888888A8F8050A0A0600FE204D
:102E60005050505088A8A888700303030600034000
:102E7000A040526573656E643A200020746F6F2025
:102E80006C6F6E6720657874727573696F6E2070F1
:102E9000726576656E7465640A0020636F6C6420E9
:102EA000657874727573696F6E2070726576656E81
:102EB0007465640A00627573793A20706175736590
:102EC0006420666F7220696E7075740A0062757393
:102ED000793A2070617573656420666F722075732E
:102EE00065720A00627573793A2070726F63657358
:102EF00073696E670A004B494C4C45442E20004BC9
:102F0000494C4C2063617573656420627920746F4D
:102F10006F206D75636820696E61637469766520E2
:102F200074696D65202D2063757272656E742063FF
:102F30006F6D6D616E643A200046696C616D656EFF
:102F40007420757365643A200053746174733A2079
:102F5000002C204C6F6E67657374206A6F623A2094
:102F600000546F74616C2074696D653A200053746D
:102F70006174733A20002C204661696C65643A20C4
:102F8000002C2046696E69736865643A20005072AF
:102F9000696E74733A200053746174733A2000545C
:102FA0005249474745524544006F70656E003A20CC
:102FB000007A5F6D696E00795F6D696E00785F6D94
:102FC000696E005265706F7274696E6720656E6419
:102FD00073746F70207374617475730A000A4D65A1
:102FE00061737572656420706F696E74733A0A005C
:102FF0005A206F66667365743A20004E756D2058CE
:103000002C593A20352C350A0000002100240027D5
:10301000002A0000002200250028002B00000020CC
:10302000002300260029000202020202020202041A
:10303000040404040404040303030303030303015B
:103040000101010101010101020408102040800179
:1030500002040810204080010204081020408080F3
:1030600040201008040201000000010200000000DE
:10307000000000040308070000000000000000003A
:103080000000000000000000E0E011241FBECFEFB0
:10309000D0E4DEBFCDBF12E0A0E0B1E0E2E6FEED9D
:1030A00001E00BBF02C007900D92AA33B107D9F718
:1030B0002FE0AAE3B2E001C01D92A231B207E1F70E
:1030C00018E1C5E4D8E104C02197FE010E94A8ECF4
:1030D000C434D107C9F70E949CCC0C942FEF0C94F8
:1030E000000021E02093E10660935D0570935E058A
:1030F00080935F059093600540E050E0BA018091B5
:103100006105909162050C94DD8060E070E080E2E2
:1031100091E40C94711860E070E080E89FE30C94F7
:1031200071186DEC7CEC8CEC9DE30C947118809123
:103130003801882331F060E070E086E696E00E9476
:103140009A8184E0809338018091E506877087300A
:1031500039F440E050E0BA0184EC90E20C94DD8058
:103160000895CF92DF92EF92FF92CF93C82F0E94E3
:1031700046CC6B017C0124EA30E74DE75FE36091C8
:103180005D0570915E0580915F05909160050E94DC
:10319000DEE787FD05C08AEF90E0A0E0B0E003C065
:1031A00080E090E0DC01C80ED91EEA1EFB1EC09232
:1031B0004C06D0924D06E0924E06F0924F06C09318
:1031C0003301CF91FF90EF90DF90CF9008958091E1
:1031D0005B0610925B06882321F01092E1060C94A6
:1031E00083816091EC0D7091ED0D8091EE0D9091C9
:1031F000EF0D611571058105910561F10E94E5E70B
:1032000020915D0530915E0540915F05509160050C
:103210000E9444E820918403309185034091860305
:10322000509187030E94C6EC6093840370938503DA
:10323000809386039093870383E00E94B11881E016
:10324000809338011092EC0D1092ED0D1092EE0D5E
:103250001092EF0D80913801882349F084E893E0C3
:103260000E94E6A5BC0181ED97E00C949A81089537
:103270003F924F925F926F927F928F929F92AF9206
:10328000BF92CF92DF92EF92FF920F931F93CF9353
:10329000DF93CDB7DEB72A970FB6F894DEBF0FBE27
:1032A000CDBF9A878987362E80915B0610925B0688
:1032B000882329F01092E1060E948381F8C0809152
:1032C000EC0D9091ED0DA091EE0DB091EF0D8D8371
:1032D0009E83AF83B887892B8A2B8B2B09F4A4C0DC
:1032E00094E0699F80011124F801E858FC4F408068
:1032F00051806280738020E030E04AE754E4C301EB
:10330000B2010E94C5EC4B015C0120E030E04AE7CD
:1033100054E4C301B2010E94C6EC6B017C018091B0
:1033200000018823D1F1A1E03A1639F13A16A0F054
:10333000B2E03B1232C08090590590905A05A0909F
:103340005B05B0905C05C0901D01D0901E01E0901F
:103350001F01F090200121C08090510590905205EE
:10336000A0905305B0905405C0901501D09016015F
:10337000E0901701F090180110C0809055059090D2
:103380005605A0905705B0905805C0901901D090EF
:103390001A01E0901B01F0901C016D817E818F81EC
:1033A00098850E94E5E720915D0530915E0540918A
:1033B0005F05509160050E9444E8A30192010E94BC
:1033C000C6EC2B013C018D819E81AF81B885A301A4
:1033D0009201B7FF16C0C501B4010E9449EE18164C
:1033E00044F0F801E858FC4F4082518262827382B7
:1033F00015C0F801E858FC4F80829182A282B38206
:103400000DC0C701B6010E94DEE787FFEACFF801D1
:10341000E858FC4FC082D182E282F382832D0E9461
:10342000B11881E0809338011092EC0D1092ED0DEF
:103430001092EE0D1092EF0D809138018823B9F1B2
:10344000A4E03A9EC0011124FC01E858FC4FDC01C5
:10345000A152BD4F2D913D914D915C916081718143
:10346000828193810E94C6EC69837A838B839C83DB
:103470002DEC3CEC4CEC5DE360915D0570915E05DC
:1034800080915F05909160050E9449EE87FD05C01F
:10349000CE0101960E94E6A505C060E2CE0101962C
:1034A0000E944EA5BC0189859A850E949A812A9620
:1034B0000FB6F894DEBF0FBECDBFDF91CF911F9145
:1034C0000F91FF90EF90DF90CF90BF90AF909F90C3
:1034D0008F907F906F905F904F903F90089562E043
:1034E0008AEC97E00C94381961E083EC97E00C9437
:1034F000381960E08CEB97E00C9438193F924F92AA
:103500006F927F928F929F92AF92BF92CF92DF92F3
:10351000EF92FF920F931F93CF9361E081E00E949F
:103520005C80C0914B06412C36E5632E37E0732E4C
:103530000FE717E04CE8E42E47E0F42E59E9C52EDA
:1035400057E0D52E69EAA62E67E0B62E7DE3872EDA
:1035500077E0972EC11120C08091D206882331F0E8
:1035600080913801882309F47AC00DC080915B06F0
:103570008823B1F310925B060E9483818091D1066B
:10358000882371F338C281E09091D206911180E0D6
:1035900024E047EB57E060C0C13019F58091D206B6
:1035A000813031F080913801882309F458C00FC070
:1035B00080915B068823B1F310925B068BE091E269
:1035C0000E94C6748091D106882361F314C281E001
:1035D0009091D206913009F080E023E04DEA57E067
:1035E0003BC0C23021F58091D206823029F0809113
:1035F00038018823A1F111C080915B068823B9F3BB
:1036000010925B06B092C102A092C0020E943CAF31
:103610008091D106882359F3EEC181E09091D206C2
:10362000923009F080E020E24FE957E015C0C33046
:1036300009F018C18091D206833009F400C180914D
:103640003801882361F081E09091D206933009F02F
:1036500080E020E242E957E0642D0E948BA7809130
:10366000DD0681110BC02091DE063091DF068091CE
:103670003601909137012817390744F1C93009F014
:103680004BC08091D206893031F080913801882377
:1036900009F442C011C080915B068823B1F31092F7
:1036A0005B069092C1028092C0020E943CAF809162
:1036B000D106882351F39FC181E09091D2069930C1
:1036C00009F080E020E24DE257E023C0C93021F547
:1036D0008091D206893029F0809138018823E1F069
:1036E0000FC080915B068823B9F310925B068EE9C8
:1036F00091E90E94C6748091D106882369F37BC149
:1037000081E09091D206993009F080E023E04DE10C
:1037100057E0642D0E948BA78091DE069091DF0612
:103720002091FF0D3091000E232B11F4892B61F1B4
:10373000CA3069F58091D2068A3031F08091380123
:10374000882309F455C113C080915B068823B1F327
:1037500010925B061092020E1092010E0E94BF4260
:103760000E947C818091D106882341F344C181E08D
:103770009091D2069A3009F080E020E248E057E0CC
:10378000642D0E948BA734C12AE0322E02C09BE038
:10379000392E3C1223C08091D206831529F08091E6
:1037A00038018823D9F00FC080915B068823B9F3D4
:1037B00010925B0688ED9DE20E94C6748091D1064E
:1037C000882369F318C181E09091D2069C1380E0B0
:1037D00023E04CEF56E0642D0E948BA781E0830D1F
:1037E0008C1323C08091D2068C1729F08091380168
:1037F0008823D9F00FC080915B068823B9F310921B
:103800005B068AE19DE20E94C6748091D1068823FE
:1038100069F3F1C081E09091D2069C1380E023E02F
:1038200041E157E0642D0E948BA74394CF5F95E060
:10383000491290CE3394339430924A06DCC0809182
:103840005B06882309F4FBCE10925B06D092C1027E
:10385000C092C0020E943CAF8091D106882309F437
:10386000EECEC9C0C43029F58091D206843031F043
:1038700080913801882309F4F2CE11C080915B0653
:103880008823B1F310925B06F092C102E092C0026D
:103890000E943CAF8091D106882351F3ACC081E0F7
:1038A0009091D206943009F080E020E245E857E09C
:1038B000D3CEC53029F58091D206853031F0809184
:1038C0003801882309F4CBCE11C080915B06882390
:1038D000B1F310925B061093C1020093C0020E94E4
:1038E0003CAF8091D106882351F385C081E090914F
:1038F000D206953009F080E020E248E757E0ACCEF0
:10390000C63019F58091D206863031F080913801A9
:10391000882309F4A4CE0FC080915B068823B1F3FD
:1039200010925B068FE19DE10E94C6748091D106E2
:10393000882361F360C081E09091D206963009F04F
:1039400080E023E04BE657E087CEC73049F5809111
:10395000D206873031F080913801882309F47FCE78
:1039600015C080915B068823B1F310925B0687EF48
:1039700096E09093C1028093C0020E943CAF0E94E7
:103980007C818091D106882331F335C081E090910C
:10399000D206973009F080E020E24AE557E05CCE9D
:1039A000C83009F05CCE8091D206883031F0809129
:1039B0003801882309F453CE11C080915B06882317
:1039C000B1F310925B067092C1026092C0020E9435
:1039D0003CAF8091D106882351F30DC081E09091D6
:1039E000D206983009F080E020E245E457E034CE7A
:1039F0008BE0382EF3CECF911F910F91FF90EF9077
:103A0000DF90CF90BF90AF909F908F907F906F90FE
:103A10004F903F90089581E08093E1061092E50673
:103A200040E050E0BA0187E998E10E94DD8081E73B
:103A300096E09093C1028093C0020C943CAF2F9209
:103A40003F924F925F926F927F928F929F92AF922E
:103A5000BF92CF92DF92EF92FF920F931F93CF937B
:103A6000DF9361E081E00E945C80C0914B06D0E072
:103A7000AA24A39464E6862E73E0972EE0ED4E2EE2
:103A8000E7E05E2E612C712CFDE02F2EFEE63F2E2E
:103A9000C11122C08091D206882331F08091380173
:103AA000882309F444C00DC080915B068823B1F3DC
:103AB00010925B060E9483818091D106882371F366
:103AC000CDC181E09091D206911180E024E04FEECB
:103AD00056E06D2F0E948BA7109192031770C13092
:103AE00049F58091D206813031F0809138018823E8
:103AF00009F4AEC10FC080915B068823B1F3109228
:103B00005B068BE09DE10E94C6748091D1068823FC
:103B100061F3A4C181E09091D206913009F080E078
:103B200023E045EE56E06D2F0E948BA791C11091C6
:103B300092031770173021F40E94053A811152C187
:103B400052E0B52EBC1255C08091D2068B1531F0D3
:103B500080913801882309F44CC026C080915B060F
:103B60008823B1F310925B06A09259061092550675
:103B70001092560610925706109258063FEBC32E2D
:103B80003FE7D32EE12CF12C08EC12E420E030E0EA
:103B9000A9016DE475E084EC96E00E9492CA8091E0
:103BA000D1068823A9F25AC18FEB9FE79F938F9389
:103BB0001F928F921F921F928DE495E09F938F9397
:103BC0008CEA96E09F938F9388EB96E09F938F9378
:103BD000DF9381E09091D2069C1380E08F930E9446
:103BE000AD828DB79EB70E960FB6F8949EBF0FBEEE
:103BF0008DBF81E08B0D8C1374C08091D2068C1721
:103C000031F080913801882309F46BC058C080914D
:103C10005B068823B1F310925B060E94BD809092F0
:103C20003801A6EAB6E0B093FB0DA093FA0D88E543
:103C300092E09093F90D8093F80D88E19CEFAFEF3F
:103C4000BFEF8093F40D9093F50DA093F60DB09314
:103C5000F70D4092F00D5092F10D6092F20D7092BE
:103C6000F30D20E030E04AE754E46091580270918F
:103C7000590280915A0290915B020E9444E820E030
:103C800030E04AE754E40E94C6EC0E94C2ED609323
:103C9000EC0D7093ED0D8093EE0D9093EF0D30923F
:103CA0004601209245011092FE0D1092FD0D1092DA
:103CB000FC0D8091D106882309F4A3CFCFC011E079
:103CC0008091D2068C1310E060E288E592E00E94B9
:103CD0004EA500E09C0140EA56E06D2F812F0E9426
:103CE000488212E01B0D8091E5068770873039F518
:103CF0001C1323C08091D2068C1729F080913801C3
:103D00008823D9F00FC080915B068823B9F3109205
:103D10005B0681EB9CE20E94C6748091D1068823E9
:103D200069F39CC081E09091D2069C1380E023E06F
:103D300042E956E06D2F0E948BA713E01B0D1C1368
:103D400023C08091D206811729F080913801882301
:103D5000D9F00FC080915B068823B9F310925B06FF
:103D60000E949AAE0E942A808091D106882369F32E
:103D700075C081E09091D2069C1380E020E244E877
:103D800056E06D2F0E948BA781E0810F8C1321C01C
:103D90008091D2068C1729F0809138018823C9F0D0
:103DA0000DC080915B068823B9F310925B060E94D8
:103DB0006F2F8091D106882379F350C081E09091D4
:103DC000D2069C1380E020E245E756E06D2F0E946A
:103DD0008BA7DF5FCF5FD53009F05ACE1E5F1093FF
:103DE0004A063CC0C23071F51091B5038091D206ED
:103DF000823081F480915B06882361F010925B062B
:103E00001A2590923801812F0E94323A8091D10672
:103E1000811124C0809138018823B9F0111103C0A9
:103E200020ED36E002C024ED36E081E09091D2062C
:103E3000923009F080E001E048ED56E06D2F0E94DD
:103E4000488203C023E0B22E7DCE93E0B92ED1CEBE
:103E5000173009F471CE82E0B82ECBCEDF91CF912E
:103E60001F910F91FF90EF90DF90CF90BF90AF9098
:103E70009F908F907F906F905F904F903F902F908A
:103E80000895FF920F931F93CF93DF93F82E7093B3
:103E900062056093610561E081E00E945C80D091E1
:103EA0004B06C0E081E091E0F91691F1F91628F097
:103EB00092E0F91609F457C081C0D111ADC0882332
:103EC000D9F08091D2061816BCF04091EC0D5091BB
:103ED000ED0D6091EE0D7091EF0D4F5F5F4F6F4FE5
:103EE0007F4F4093EC0D5093ED0D6093EE0D70936A
:103EF000EF0D8F5F8093D20680913801882309F4FB
:103F0000E8C000E010E021E041E069E178E080C035
:103F1000D11182C08823D9F08091D2061816BCF046
:103F20004091EC0D5091ED0D6091EE0D7091EF0D03
:103F30004F5F5F4F6F4F7F4F4093EC0D5093ED0DF0
:103F40006093EE0D7093EF0D8F5F8093D20680919A
:103F50003801882309F4BDC000E010E021E041E011
:103F600062E178E055C0D11157C08823D9F0809123
:103F7000D2061816BCF04091EC0D5091ED0D6091F9
:103F8000EE0D7091EF0D4F5F5F4F6F4F7F4F40937E
:103F9000EC0D5093ED0D6093EE0D7093EF0D8F5F70
:103FA0008093D20680913801882309F492C000E002
:103FB00010E021E041E06BE078E02AC0D1112CC094
:103FC0008823D9F08091D2061816BCF04091EC0DF0
:103FD0005091ED0D6091EE0D7091EF0D4F5F5F4FC1
:103FE0006F4F7F4F4093EC0D5093ED0D6093EE0DAE
:103FF0007093EF0D8F5F8093D206809138018823F4
:1040000009F467C000E010E021E041E062E078E000
:104010008C2F0E94E7825DC0D13009F58091D206D5
:10402000813031F080913801882309F452C00DC0ED
:1040300080915B068823B1F310925B060E94838116
:104040008091D106882371F380C081E09091D206DF
:10405000913009F080E024E048EF57E037C0D230DB
:1040600011F58091D206823029F0809138018823A1
:1040700081F10FC080915B068823B9F310925B0633
:1040800085E898E10E94C6748091D106882369F37F
:104090005CC081E09091D206923009F080E023E08C
:1040A0004EEE57E013C0D33061F58091D2068330D5
:1040B000C9F080913801882361F081E09091D206A7
:1040C000933009F080E023E045EE57E06C2F0E942A
:1040D0008BA7CF5FDF5F80E0C53009F0E4CEC093EF
:1040E0004A0633C080915B06882319F310925B0661
:1040F0008BE898E10E94C6748091D1068823C9F2AA
:1041000024C0D43031F78091D206843029F08091D8
:1041100038018823F1F20FC080915B068823B9F340
:1041200010925B0681E998E10E94C6748091D106E5
:10413000882369F30AC081E09091D206943009F097
:1041400080E023E04AED57E0C1CFDF91CF911F918E
:104150000F91FF90089540E050E0BA0183E39AE2A6
:104160000E94DD8081E08093C20280914C05811124
:1041700003C089E496E002C080E596E09093C10216
:104180008093C0020C943CAF80913801882331F0B9
:1041900060E070E087E596E00E949A8180915B067E
:1041A00010925B06882321F010924C050C94AB20F2
:1041B00008952CEA35EC47E25EE360916305709167
:1041C000640580916505909166050E9449ED6093B4
:1041D00093037093940380939503909396030895AB
:1041E0002CEA35EC47E25EE3609167057091680563
:1041F0008091690590916A050E9444E86093970355
:10420000709398038093990390939A0308950C9464
:104210002EC20C94F9C0CF93DF9361E081E00E943D
:104220005C80D0914B06C0E0D11120C08091D206B5
:10423000882331F080913801882309F476C00DC0BD
:1042400080915B068823B1F310925B060E94838104
:104250008091D106882371F3A3C081E09091D206AA
:10426000911180E024E04EE358E05CC0D13019F5B4
:104270008091D206813031F080913801882309F491
:1042800054C00FC080915B068823B1F310925B0687
:1042900083E793E20E94C6748091D106882361F37C
:1042A0007FC081E09091D206913009F080E023E058
:1042B00047E358E037C0D23011F58091D206823002
:1042C00029F080913801882381F10FC080915B062D
:1042D0008823B9F310925B0688E793E20E94C674C4
:1042E0008091D106882369F35BC081E09091D2066A
:1042F000923009F080E023E040E358E013C0D3306F
:1043000059F58091D2068330C1F08091380188231D
:1043100061F081E09091D206933009F080E023E0D3
:1043200049E258E06C2F0E948BA7CF5FDF5FC5305A
:1043300009F07ACFC0934A0633C080915B06882388
:1043400021F310925B068DE793E20E94C674809180
:10435000D1068823D1F224C0D43039F78091D20617
:10436000843029F0809138018823F9F20FC08091C0
:104370005B068823B9F310925B0682E893E20E9401
:10438000C6748091D106882369F30AC081E09091B8
:10439000D206943009F080E023E040E258E0C2CF3A
:1043A000DF91CF910895CF93DF9361E081E00E9488
:1043B0005C80D0914B06C0E0D11120C08091D20624
:1043C000882331F080913801882309F476C00DC02C
:1043D00080915B068823B1F310925B060E94838173
:1043E0008091D106882371F312C181E09091D206A9
:1043F000911180E024E04CEB58E05CC0D13019F51D
:104400008091D206813031F080913801882309F4FF
:1044100054C00FC080915B068823B1F310925B06F5
:104420008FEE94E20E94C6748091D106882361F3D6
:10443000EEC081E09091D206913009F080E023E057
:1044400040EB58E037C0D23011F58091D20682306F
:1044500029F080913801882381F10FC080915B069B
:104460008823B9F310925B0681E197E40E94C67439
:104470008091D106882369F3CAC081E09091D20669
:10448000923009F080E023E049EA58E013C0D330CD
:1044900061F58091D2068330C9F08091380188237C
:1044A00061F081E09091D206933009F080E023E042
:1044B00040EA58E06C2F0E948BA7CF5FDF5FC530CA
:1044C00009F07ACF88E080934A06A1C080915B060C
:1044D000882319F310925B0681E09CE40E94C67465
:1044E0008091D1068823C9F292C0D43001F5809121
:1044F000D206843029F0809138018823F1F20DC072
:1045000080915B068823B9F310925B060E946F2F9F
:104510008091D106882379F37AC081E09091D20608
:10452000943009F080E020E241E958E0C3CFD53073
:1045300019F58091D206853031F0809138018823B9
:1045400009F4BBCF0FC080915B068823B1F31092B2
:104550005B060E949AAE0E942A808091D106882331
:1045600061F355C081E09091D206953009F080E06A
:1045700020E241E758E09ECFD63019F58091D2066F
:10458000863031F080913801882309F496CF0FC02E
:1045900080915B068823B1F310925B060E9444ADC4
:1045A0000E9439A78091D106882361F330C081E051
:1045B0009091D206963009F080E020E240E658E083
:1045C00079CFD73009F079CF8091D206873031F09A
:1045D00080913801882309F470CF0FC080915B0669
:1045E0008823B1F310925B068AE093E20E94C674BE
:1045F0008091D106882361F30AC081E09091D206B0
:10460000973009F080E023E04FE758E053CFDF9187
:10461000CF9108951F93CF93DF9361E081E00E94D3
:104620005C8010914B06C0E0812F8C0F01F58091CA
:10463000D206882331F080913801882309F448C0DC
:104640000DC080915B068823B1F310925B060E9437
:1046500083818091D106882371F341C081E09091DC
:10466000D206911180E024E048E558E02EC0813068
:1046700079F58091D206813029F080913801882324
:1046800039F11AC080915B068823B9F310925B065A
:104690000E9444AD0E94FC7AD82F882319F080E054
:1046A0000E9460A88D2F0E942A800E9483818091A1
:1046B000D106882311F313C081E09091D206913086
:1046C00009F080E020E246E458E06C2F0E948BA7BE
:1046D000CF5FC53009F0A8CF82E080934A06DF9112
:1046E000CF911F91089569E77AE180E00C94411F12
:1046F00064E77AE181E00C94411F6FE67AE182E0A1
:104700000C94411F67EE78E183E00C94411F2F92D7
:104710003F924F925F926F927F928F929F92AF9251
:10472000BF92CF92DF92EF92FF920F931F93CF939E
:10473000DF93C82F61E081E00E945C8040904B06CF
:10474000512CD0E0CC0FDD1FCE018D5E9C4F7C0143
:104750009DE5292E99E0392ECE01855E9C4F6C0196
:1047600020E7622E29E0722EC95EDC4F3EE7A32EC1
:1047700039E0B32E48E8842E49E0942E411020C041
:104780008091D206882331F080913801882309F482
:10479000B7C00DC080915B068823B1F310925B0611
:1047A0000E9483818091D106882371F3FFC081E04C
:1047B0009091D206911180E024E04CE959E09DC02F
:1047C00091E049123EC08091D206813031F0809153
:1047D0003801882309F494C016C080915B068823B1
:1047E000B1F310925B0600E010E02FEF30E040E004
:1047F00050E0BE0182E999E00E94D9E18091D106A2
:10480000882329F3D3C01F928FEF8F931F921F929B
:10481000DF93CF93BF92AF929F928F925F9281E08E
:104820009091D206913009F080E08F930E9468E069
:104830008DB79EB70C960FB6F8949EBF0FBE8DBF76
:104840005FC092E0491241C08091D206823031F0BF
:1048500080913801882309F453C016C080915B060B
:104860008823B1F310925B0600E010E02BEE30E0FD
:1048700045E050E0B60187E799E00E94D9E18091D8
:10488000D106882329F392C01F928BEE8F931F923B
:1048900085E08F93DF92CF9289E699E09F938F9383
:1048A0007F926F925F9281E09091D206923009F0F0
:1048B00080E08F930E9468E08DB79EB70C960FB68C
:1048C000F8949EBF0FBE8DBF1BC023E0421601F1BE
:1048D00084E0481215C08091D206843009F458C093
:1048E00080913801882361F081E09091D206943064
:1048F00009F080E020E24EE459E0652D0E948BA78C
:104900005394439495E0591239CF50924A064EC0C1
:104910008091D206833029F080913801882381F379
:1049200016C080915B068823B9F310925B0600E005
:1049300010E023E730E045E050E0B70185E699E07C
:104940000E94D9E18091D106882331F32FC01F92B4
:1049500093E79F931F9285E08F93FF92EF923F9290
:104960002F9281E699E09F938F935F9281E09091DF
:10497000D206933009F080E08F930E9468E08DB7F3
:104980009EB70C960FB6F8949EBF0FBE8DBFB8CFE2
:1049900080915B06882309F4A3CF10925B060E94E6
:1049A0006F2F8091D106882309F49ACFDF91CF91A0
:1049B0001F910F91FF90EF90DF90CF90BF90AF903D
:1049C0009F908F907F906F905F904F903F902F902F
:1049D000089581E00C94872380E00C9487232F9224
:1049E0003F924F925F926F927F928F929F92AF927F
:1049F000BF92CF92DF92EF92FF920F931F93CF93CC
:104A0000DF9361E081E00E945C80D0914B06C0E0C2
:104A10005524539444244A9457E0252E59E0352ECA
:104A200069E2A62E69E0B62E71E3872E79E0972E13
:104A3000E8E36E2EE9E07E2ED11123C08091D206EC
:104A4000882331F080913801882309F4ECC00DC02F
:104A500080915B068823B1F310925B060E948381EC
:104A60008091D106882371F35BC281E09091D206D8
:104A7000911180E024E046E459E06C2F0E948BA75E
:104A8000D2C0D13009F04FC08091D206813031F0D0
:104A900080913801882309F4C6C021C080915B064B
:104AA0008823B1F310925B06D093590610925506F5
:104AB0001092560610925706109258060AE61FE208
:104AC0002BEE30E040E050E06EED76E08FE399E0D1
:104AD0000E94D9E18091D1068823D1F221C28AE6D1
:104AE0009FE29F938F931F922BEE2F931F921F9203
:104AF0008EED96E09F938F939F928F927F926F920D
:104B0000CF9381E09091D206913009F080E08F93AD
:104B10000E9468E08DB79EB70E960FB6F8949EBFC0
:104B20000FBE8DBF5AC1D23009F051C08091D2065C
:104B3000823031F080913801882309F474C021C09B
:104B400080915B068823B1F310925B065092590660
:104B5000109255061092560610925706109258065B
:104B60000DE61FE223E730E040E050E06FEF7DE02C
:104B70008DE299E00E94D9E18091D1068823D1F29B
:104B8000CFC18DE69FE29F938F931F9293E79F93F0
:104B90001F921F928FEF9DE09F938F9385E299E084
:104BA0009F938F93BF92AF92CF9381E09091D20663
:104BB000923009F080E08F930E9468E08DB79EB735
:104BC0000E960FB6F8949EBF0FBE8DBF06C1D330B0
:104BD00051F58091D206833009F43FC180913801AC
:104BE000882309F4FAC01F924F921F921F9281E00E
:104BF0009EE09F938F933F922F9281E199E09F9344
:104C00008F93CF9381E09091D206933009F080E0AA
:104C10008F930E9468E08DB79EB70C960FB6F894FC
:104C20009EBF0FBE8DBF2CEA35EC47E25EE360917C
:104C30009703709198038091990390919A030E9431
:104C400049ED6093670570936805809369059093BB
:104C50006A052CEA35EC47E25EE3609193037091BC
:104C6000940380919503909196030E9444E8609389
:104C70006305709364058093650590936605D43051
:104C8000A9F58091D206843031F0809138018823D3
:104C900009F4DAC01CC080915B068823B1F310923E
:104CA0005B06C12CD12CE12C18E1F12E0CE116E4AD
:104CB00020E030E040E85FE36BE973E081E099E0F9
:104CC0000E943AE28091D1068823F9F229C111E0CD
:104CD0008091D206843009F010E08BE993E00E94C5
:104CE000F5A300E09C014BEF58E038C0D530D9F572
:104CF0008091D206853031F080913801882309F403
:104D0000A3C01EC080915B068823B1F310925B069E
:104D100020EFC22E20E2D22EE12C18E1F12E0CE180
:104D200016E42AE037ED43E25CE367E675E085EFE1
:104D300098E00E943AE28091D1068823E9F2F0C01F
:104D400011E08091D206853009F010E087E695E009
:104D50000E94F5A300E09C014FEE58E06C2F812FDC
:104D60000E94488271C0D63009F063C08091D2069B
:104D7000863031F080913801882309F465C01EC067
:104D800080915B068823B1F310925B0689EDC82EF3
:104D900080E2D82EE12C18E1F12E0CE116E420E09F
:104DA00030E040E85FE363E675E089EE98E00E945A
:104DB0003AE28091D1068823E9F2B2C011E08091F5
:104DC000D206863009F010E083E695E00E94F5A354
:104DD00000E09C0143EE58E0C1CF2CEA35EC47E2FD
:104DE0005EE360919703709198038091990390918D
:104DF0009A030E9449ED609367057093680580935C
:104E0000690590936A052CEA35EC47E25EE3609110
:104E100093037091940380919503909196030E945F
:104E200044E86093630570936405809365059093EF
:104E30006605D73009F04DC08091D206873081F1E8
:104E40008091380181113BC0CF5FDF5FC53009F031
:104E5000F3CD89E080934A0663C080915B06882386
:104E600009F4BCCE10925B0650925906109255067A
:104E700010925606109257061092580600E010E065
:104E80002FEF30E040E050E061E07EE08BE199E020
:104E90000E94D9E18091D106882309F49FCE40C0B9
:104EA00080915B06882361F210925B068CEE94E29F
:104EB0000E94C6748091D106882311F231C081E02E
:104EC0009091D206973009F080E023E042ED58E05F
:104ED00015C0D83009F0B8CF8091D206883091F053
:104EE00080913801882309F4AFCF81E09091D206F8
:104EF000983009F080E023E041EC58E06C2F0E94EC
:104F00008BA7A2CF80915B06882351F310925B069A
:104F100089EE94E20E94C6748091D106882301F341
:104F2000DF91CF911F910F91FF90EF90DF90CF9085
:104F3000BF90AF909F908F907F906F905F904F90B9
:104F40003F902F9008952F923F925F926F927F92A1
:104F50008F929F92AF92BF92CF92DF92EF92FF9289
:104F60000F931F93CF93DF9361E081E00E945C80F9
:104F7000C0914B06512CD1E068EA262E69E0362E0E
:104F800076E0A72E7AE0B72EE4E18E2EEAE09E2EA0
:104F9000FBE16F2EFAE07F2EC11123C08091D20673
:104FA000882331F080913801882309F4CFC00DC0E7
:104FB00080915B068823B1F310925B060E94838187
:104FC0008091D106882371F319C281E09091D206B5
:104FD000911180E024E049E25AE0652D0E948BA700
:104FE000B5C0C13009F051C08091D206813031F096
:104FF00080913801882309F4A9C026C080915B06FE
:105000008823B1F310925B06C0935906109255069F
:10501000109256061092570610925806C12CD12CA9
:10502000E12C10ECF12E09E714E420E030E040E838
:105030005FE364E373E082E29AE00E9492CA8091A7
:10504000D1068823A9F2DAC183E08F9387EE8F938C
:105050001F92DF9384E393E09F938F939F928F92AD
:105060007F926F925F9281E09091D206913009F029
:1050700080E08F930E94AD828DB79EB70C960FB6DD
:10508000F8949EBF0FBE8DBF61C0C23009F053C0FF
:105090008091D206823031F080913801882309F462
:1050A00055C026C080915B068823B1F310925B0641
:1050B000D093590610925506109256061092570634
:1050C00010925806C12CD12CE12C10ECF12E09E7DE
:1050D00014E420E030E040E85FE368E373E08DE053
:1050E0009AE00E9492CA8091D1068823A9F286C1D3
:1050F00083E08F9387EE8F931F92DF9388E393E093
:105100009F938F938FEF99E09F938F93BF92AF926E
:105110005F9281E09091D206923009F080E08F9307
:105120000E94AD828DB79EB70C960FB6F8949EBFC5
:105130000FBE8DBF0BC0C33009F05CC08091D2069A
:10514000833069F08091380181112FC05394CF5F73
:1051500095E0591221CF87E080934A064FC1809194
:105160005B06882379F310925B06D0935906109260
:105170005506109256061092570610925806C12CEA
:10518000D12CE12C10ECF12E09E714E420E030E002
:1051900040E85FE36CE373E088EF99E00E9492CA15
:1051A0008091D106882371F229C183E08F9387EE25
:1051B0008F931F92DF938CE393E09F938F938AEEFC
:1051C00099E09F938F9381EF99E09F938F935F92E4
:1051D00081E09091D206933009F080E08F930E9495
:1051E000AD828DB79EB70C960FB6F8949EBF0FBEDA
:1051F0008DBFACCFC43009F055C08091D206843049
:1052000031F080913801882309F4A0CF26C0809125
:105210005B068823B1F310925B06D0935906109277
:105220005506109256061092570610925806C12C39
:10523000D12CE12C10ECF12E09E714E420E030E051
:1052400040E85FE360E473E083EE99E00E9492CA75
:105250008091D1068823A9F2D1C083E08F9387EE95
:105260008F931F92DF9380E493E09F938F9385ED5C
:1052700099E09F938F938CED99E09F938F935F922A
:1052800081E09091D206943009F080E08F930E94E3
:10529000AD828DB79EB70C960FB6F8949EBF0FBE29
:1052A0008DBF54CFC53009F054C08091D2068530EF
:1052B00031F080913801882309F448CF25C08091CE
:1052C0005B068823B1F310925B06D09359061092C7
:1052D0005506109256061092570610925806C12C89
:1052E000D12CE12C10ECF12E09E714E420E030E0A1
:1052F000A90164E673E080ED99E00E9492CA809172
:10530000D1068823B1F27AC083E08F9387EE8F9322
:105310001F921F9284E693E09F938F9386EC99E00F
:105320009F938F938BEC99E09F938F935F9281E093
:105330009091D206953009F080E08F930E94AD8263
:105340008DB79EB70C960FB6F8949EBF0FBE8DBF5B
:10535000FDCEC63009F0FACE8091D206863031F00B
:1053600080913801882309F4F1CE25C080915B0635
:105370008823B1F310925B06D0935906109255061C
:10538000109256061092570610925806C12CD12C36
:10539000E12C10ECF12E09E714E420E030E0A90143
:1053A00060E673E08CEB99E00E9492CA8091D1068E
:1053B0008823B1F223C083E08F9387EE8F931F92EF
:1053C0001F9280E693E09F938F933F922F9282EB00
:1053D00099E09F938F935F9281E09091D2069630EF
:1053E00009F080E08F930E94AD828DB79EB70C9636
:1053F0000FB6F8949EBF0FBE8DBFA8CEDF91CF91A0
:105400001F910F91FF90EF90DF90CF90BF90AF90E2
:105410009F908F907F906F905F903F902F90089516
:105420006091120170911301072E000C880B990BEB
:105430000E94E5E72AE037ED43E25CE30E9444E89E
:10544000209188033091890340918A0350918B0306
:105450000E9444E860930E0170930F018093100145
:105460009093110108950F931F93CF93DF93CDB7BE
:10547000DEB72A970FB6F894DEBF0FBECDBF80917E
:1054800038018823F1F01F9289E18F9380914C05B8
:1054900090E001969F938F9383ED9BE09F938F9372
:1054A0008E010F5F1F4F1F930F930E9476E7B80185
:1054B00088EC9BE00E949A810FB6F894DEBF0FBE85
:1054C000CDBF84E0809338018091C202811107C072
:1054D00040E050E0BA018DE89AE20E94DD802A9611
:1054E0000FB6F894DEBF0FBECDBFDF91CF911F91F5
:1054F0000F91089540E050E0BA018CE69BE20E94D3
:10550000DD8010927B0510927C0510927D05109233
:105510007E0581E08093E1060895CF92DF92EF92BD
:10552000FF920F931F93CF93DF9300D000D0CDB79E
:10553000DEB780915B0610925B068823E9F08091CC
:105540004C058F5F80934C05893198F081E0809302
:10555000C20240E050E0BA018DE49BE20E94DD808F
:1055600081EC9BE09093C1028093C0020E943CAF0B
:1055700087C00E94AB2084C06091EC0D7091ED0D4E
:105580008091EE0D9091EF0D6115710581059105EA
:1055900009F446C00E94E5E72DEC3CEC4CEC5CE3E2
:1055A0000E9444E82091800330918103409182035E
:1055B000509183030E94C6EC7B018C0120E030E017
:1055C00040E050EC0E94DEE787FD0FC020E030E0B5
:1055D00040E050E4B701C8010E9449EE18164CF4AF
:1055E000E12CF12C00E010E404C0E12CF12C00E0EF
:1055F00010ECC701D8018093800390938103A0939E
:105600008203B09383030E94CA7F82E080933801B3
:105610001092EC0D1092ED0D1092EE0D1092EF0D18
:1056200080913801882361F1C0908003D09081037C
:10563000E0908203F090830320E030E0A901C701ED
:10564000B6010E94DEE787FD05C027E137EB41ED9B
:1056500058E304C027E137EB41ED58EBC701B60131
:105660000E94C6EC69837A838B839C836BE2CE01B4
:1056700001960E944EA5BC018AEB9BE00E949A8194
:105680000F900F900F900F90DF91CF911F910F917E
:10569000FF90EF90DF90CF9008950F931F9380912C
:1056A000C202811106C01092E1060E9483810E940D
:1056B00039A780913801882349F000E010E020E00C
:1056C00041E06BEA7BE081E00E94E78282E0809328
:1056D00038011F910F910895CF93DF9300D000D030
:1056E000CDB7DEB780915B0610925B06882329F068
:1056F0001092E1060E9483816AC04091EC0D5091A6
:10570000ED0D6091EE0D7091EF0D411551056105A4
:105710007105B9F125E0249FC001259F900D11244A
:105720001092EC0D1092ED0D1092EE0D1092EF0D07
:1057300021E0209338012091920322FF0AC020919A
:10574000900330919103280F391F309391032093D8
:105750009003092E000CAA0BBB0B40917B055091C6
:105760007C0560917D0570917E05840F951FA61FB5
:10577000B71F80937B0590937C05A0937D05B09324
:105780007E0580913801882311F160917B0570912D
:105790007C0580917D0590917E050E94E5E7209132
:1057A00073053091740540917505509176050E94FE
:1057B00044E869837A838B839C8360E2CE010196FF
:1057C0000E944EA5BC018FE59AE00E949A810F903D
:1057D0000F900F900F90DF91CF910895CF92DF92AD
:1057E000EF920F931F93CF93DF93CDB7DEB76497FC
:1057F0000FB6F894DEBF0FBECDBF80E090E0A0E80A
:10580000B0E48093800390938103A0938203B093CC
:1058100083030E94CA7F80917F058130C9F07CF4A8
:10582000811130C080E090E0A0EFB1E48093780374
:1058300090937903A0937A03B0937B0312C08230D4
:1058400061F08330F9F480E090E0A0EFB1E412C0A1
:1058500080E090E0A0E2B3E40DC080E090E0ACE531
:10586000B3E480937C0390937D03A0937E03B09375
:105870007F0308C08093780390937903A0937A0301
:10588000B0937B03E090DC0680E090E0A8E4B2E413
:10589000898B9A8BAB8BBC8B1D861E861F86188AC4
:1058A0008091780390917903A0917A03B0917B0362
:1058B00089839A83AB83BC8380917C0390917D0321
:1058C000A0917E03B0917F038D839E83AF83B887C1
:1058D0008091800390918103A0918203B091830312
:1058E00089879A87AB87BC87AE01475F5F4FBE0150
:1058F0006B5F7F4FCE0101960E94CE5DCE010D966B
:105900006C018E010F5E1F4F24E833E0AE01475F4C
:105910005F4FBE016B5F7F4F0C970E94824F1092CA
:1059200080031092810310928203109283030E94DD
:10593000CA7F80917F058F5F84301CF480937F0540
:1059400002C010927F0564960FB6F894DEBF0FBEBA
:10595000CDBFDF91CF911F910F91EF90DF90CF904E
:10596000089581E08093E10640E050E0BA018FEBBA
:105970009CE20E94DD8010927F050C94EE2BCF9369
:10598000DF9361E081E00E945C80D0914B06C0E033
:105990008D2F8C0FF9F48091D206882329F0809105
:1059A00038018823E9F10DC080915B068823B9F3A3
:1059B00010925B060E94EE2B8091D106882379F32A
:1059C00036C081E09091D206911180E020E24FE94B
:1059D0005BE023C0813021F58091D206813029F02F
:1059E000809138018823E1F00FC080915B06882305
:1059F000B9F310925B061092E1060E9483818091B8
:105A0000D106882369F313C081E09091D2069130CA
:105A100009F080E020E24AE95BE06C2F0E948BA74E
:105A2000CF5FC53009F0B4CF82E080934A06DF91A2
:105A3000CF910895CF93DF9361E081E00E945C8075
:105A4000D0914B06C0E0D11120C08091D2068823AE
:105A500031F080913801882309F488C00DC080910D
:105A60005B068823B1F310925B060E9483818091CC
:105A7000D106882371F399C081E09091D2069111EB
:105A800080E024E042E95BE06EC0D13069F58091AE
:105A9000D206813031F080913801882309F466C044
:105AA00019C080915B068823B1F310925B06409188
:105AB000190350911A036091150370911603809198
:105AC0001D0390911E030E9463CA8091D106882312
:105AD00011F36BC081E09091D206913009F080E023
