:100000000C948C150C94BD150C94BD150C94BD1559
:100010000C94BD150C94BD150C94BD150C94BD1518
:100020000C94BD150C94BD150C94BD150C94BD1508
:100030000C94BD150C94BD150C94BD150C94BD15F8
:100040000C94BD150C94E3370C94BD150C94BD15A0
:100050000C94BD150C94BD150C94C8AC0C945D515A
:100060000C94BD150C9444370C943A370C94BD1580
:100070000C94BD150C94BD150C94BD150C94BD15B8
:100080000C94BD150C94BD150C94BD150C94BD15A8
:100090000C94BD150C94BD150C94BD150C94BD1598
:1000A0000C94BD150C94BD150C94BD150C94BD1588
:1000B0000C94BD150C94BD150C94BD150C94BD1578
:1000C0000C94BD150C94BD150C94BD150C94BD1568
:1000D0000C94BD150C94BD150C94BD150C94BD1558
:1000E0000C94BD157154A354A554B454B9546F5411
:1000F000C454F078F378E278E678EC782A79F778E7
:10010000FB780179057909790F79137917792A79BB
:100110001D7921792579D77CDC7CE17CEB7CF57C31
:100120006E7DFF7C077D0F7D197D237D2D7D3C7DC0
:10013000467D6E7D507D5A7D647D084AD73B3BCE1F
:10014000016E84BCBFFDC12F3D6C74319ABD5683D6
:100150003DDA3D00C77F11BED9E4BB4C3E916BAA8E
:10016000AABE000000803F05A84CCDB2D44EB938DD
:1001700036A9020C50B9918688083CA6AAAA2ABEC4
:10018000000000803F000C94AA5C0C94FC580C9476
:10019000647D0C94507D0C94D98B0C94237D0C942D
:1001A000E6780C94C95C0C94B9540C94FC5F0C94E4
:1001B00043990C9449820C94DE500C9409790C9468
:1001C0006F540C941D5A0C946E7D0C94C3590C946E
:1001D000C4540C9443820C9485950C94197D0C9412
:1001E000A45C0C94A1920C945A7D0C9401790C940B
:1001F000AD5F0C94B17D0C9421790C9406820C9423
:1002000010590C9460590C9413790C940F7D0C9434
:10021000245A0C942A790C943C7D0C9405790C9406
:100220000F790C94F57C0C94E0590C947B590C9448
:100230004F820C94C3820C9459540C94CF580C9454
:100240000B820C9425790C94FB5F0C9438590C9418
:1002500004530C94F85F0C94D77C0C94925C0C942F
:10026000467D0C94FF5F0C9440520C94EB7C0C94F4
:10027000E6580C9468620C9471540C9401BB0C9475
:10028000FF7C0C9442680C944C590C9424820C947E
:10029000F55F0C942D7D0C9475B70C941A820C9418
:1002A00046990C94FB780C94E17C0C94E3590C94E3
:1002B0009E5C0C94865C0C941D790C94DC7C0C94F4
:1002C000F65C0C94985C0C944C890C949F920C9462
:1002D00089590C94A5540C943D820C94005A0C94AA
:1002E000F3780C948C5C0C941F820C94B8580C948A
:1002F000A6590C94B4540C9415820C9408510C9487
:1003000017790C94E6820C9481800C944C810C94A7
:1003100024590C94A3540C9424880C9449990C945B
:100320007A5C0C94F0780C94E2780C94A38A0C9488
:100330006E590C94805C0C9437970C94A85A0C94CA
:1003400035970C94077D0C9410820C94FF7E0C94CE
:10035000F7780C94EC784E414E494E495459494E29
:1003600046CDCCCC3D0AD7233C17B7D13877CC2B20
:10037000329595E6241FB14F0A000020410000C8C5
:100380004200401C4620BCBE4CCA1B0E5AAEC59D46
:1003900074434F4D4D554E49434154494F4E0044CF
:1003A000525952554E004552524F525300494E46F3
:1003B0004F004543484F0020746F6F206C6F6E678D
:1003C00020657874727573696F6E207072657665DA
:1003D0006E7465640A0020636F6C642065787472C3
:1003E0007573696F6E2070726576656E7465640AE8
:1003F0000047322F47332062616420706172616D63
:1004000065746572730A00536C6565702E2E2E003C
:10041000436C69636B20746F20726573756D652E14
:100420002E2E004E6F206D6F76652E00456E642077
:1004300066696C65206C6973740A00426567696E51
:100440002066696C65206C6973740A00286E6F20E1
:1004500066696C65290043757272656E7420666901
:100460006C653A20005344207072696E74696E673F
:10047000206279746520004E6F742053442070729E
:10048000696E74696E670A0044656C6574696F6EA5
:10049000206661696C65642C2046696C653A2000B1
:1004A00046696C652064656C657465643A0025690D
:1004B000730025696D202569730025696820256909
:1004C0006D202569730025696420256968202569E8
:1004D0006D202569730025697920256964202569C7
:1004E000682025696D20256973005072696E74203B
:1004F00074696D653A20006F666600B203AD03A6AD
:10050000039F03910344454255473A004D3131332F
:100510002053006F6B0050533A300A0050533A3169
:100520000A003344205072696E746572204F46464B
:100530002E004D4F54494F4E5F4D4F44455300548C
:100540004845524D414C5F50524F54454354494FDA
:100550004E004155544F5245504F52545F53445FE3
:1005600053544154555300454D455247454E435908
:100570005F50415253455200434153455F4C4947F8
:1005800048545F4252494748544E45535300544FD4
:1005900047474C455F4C494748545300534F4654D6
:1005A000574152455F504F574552004255494C44C0
:1005B0005F50455243454E54004C4556454C494EBC
:1005C000475F44415441005A5F50524F42450041F9
:1005D00055544F4C4556454C005052494E545F4A75
:1005E0004F420050524F4752455353004155544FCC
:1005F0005245504F52545F54454D5000564F4C5544
:100600004D455452494300454550524F4D005345C6
:100610005249414C5F584F4E5F584F46460046493D
:10062000524D574152455F4E414D453A4D61726CB6
:10063000696E206275676669782D322E302E7820BB
:10064000284769746875622920534F555243455FA6
:10065000434F44455F55524C3A68747470733A2F57
:100660002F6769746875622E636F6D2F4D61726CB0
:10067000696E4669726D776172652F4D61726C6942
:100680006E2050524F544F434F4C5F564552534982
:100690004F4E3A312E30204D414348494E455F542C
:1006A0005950453A3344205072696E746572204542
:1006B000585452554445525F434F554E543A312099
:1006C000555549443A63656465326132662D34316B
:1006D00061322D343734382D396231322D6335355E
:1006E0006336326633363766660A002F2F20004D98
:1006F00031343520533C696E6465783E206F7574E3
:10070000206F662072616E67652028302D31290ABE
:1007100000205400205200416363656C657261746F
:10072000696F6E3A2050004F4646004F4E00205AE7
:1007300000205900580020204D61783A2000205AAE
:1007400000205900580020204D696E3A2000536F58
:10075000667420656E6473746F70733A200020466F
:100760006C6F773A200050726F7465637465642013
:1007700050696E0A00496E76616C69642065787410
:1007800072756465720A0020643A0020693A00209C
:10079000703A004C434420436F6E74726173743A34
:1007A000200043290A0061626C656420286D696E2F
:1007B0002074656D702000436F6C642065787472DE
:1007C00075646573206172652000486F6D65202532
:1007D00073257325732066697273740020666972CD
:1007E00073740A005A0059005800486F6D65200064
:1007F0004F666673657473206170706C6965640020
:100800004572723A20546F6F206661722100546FF6
:100810006F206661722066726F6D20726566657208
:10082000656E636520706F696E740A0045455052AD
:100830004F4D2064697361626C65640A004E6F20DD
:1008400063617365206C696768740A00496E76613C
:100850006C69642065787472756465720A00363755
:100860002603353C3D380E312E303E12281A1C1816
:100870002A08440AFF430C090001627573793A2083
:1008800070617573656420666F7220696E7075742F
:100890000A00627573793A20706175736564206629
:1008A0006F7220757365720A00627573793A2070F1
:1008B000726F63657373696E670A004B494C4C2015
:1008C000636175736564206279204B494C4C2062EA
:1008D0007574746F6E2F70696E0A004B494C4C2012
:1008E00063617573656420627920746F6F206D7524
:1008F000636820696E6163746976652074696D65EB
:10090000202D2063757272656E7420636F6D6D614A
:100910006E643A2000506C65617365207265736582
:1009200074005052494E5445522048414C5445445D
:10093000004B494C4C45442E20005072696E746542
:10094000722068616C7465642E206B696C6C282958
:100950002063616C6C6564210A006563686F3A000E
:100960004572726F723A0020496E76616C6964203C
:100970006578747275646572200024F4D43050C3B5
:100980008E20C2A24017828B7011127A910D816C59
:10099000D90AA861E108C7586607615143061E4B92
:1009A0005D05C145A7041A411104093D9803713939
:1009B00031034036DB0265339102D4305402802E7D
:1009C0001D02632CEE01752AC501B028A001102775
:1009D00081018F2564012B244B01E0223401AC21DD
:1009E0001F018D200D01801FFC00841EED00971D4E
:1009F000DF00B81CD200E61BC600201BBC00641A36
:100A0000B200B219A8000A19A0006A189900D117FB
:100A1000910040178B00B516840031167E00B31587
:100A200079003A157300C7146F0058146A00EE136A
:100A300066008813630025135E00C7125B006C120A
:100A4000570015125400C111510070114F002111AF
:100A50004B00D61049008D1047004610440002108C
:100A60004200C00F4000800F3E00420F3C00060FC6
:100A70003B00CB0E3800930E37005C0E3500270E7E
:100A80003400F30D3200C10D3100900D3000600DC7
:100A90002E00320D2D00050D2C00D90C2B00AE0CB4
:100AA0002900850C29005C0C2700350C27000E0C52
:100AB0002600E80B2400C40B2400A00B23007D0BB0
:100AC00023005A0B2100390B2100180B2000F80AD3
:100AD0001F00D90A1E00BB0A1E009D0A1D00800AC5
:100AE0001D00630A1C00470A1B002C0A1B00110A88
:100AF0001A00F7091A00DD091900C4091900AB0929
:100B00001900920917007B091800630917004C09A6
:100B1000160036091600200916000A091500F50806
:100B20001500E0081400CC081400B8081400A4084C
:100B30001400900813007D0812006B081300580879
:100B40001200460812003408110023081100120890
:100B5000110001081100F0071000E0071000D00795
:100B60001000C0071000B0070F00A1071000910788
:100B70000E0083070F0074070F0065070E0057076C
:100B80000E0049070E003B070D002E070E00200740
:100B90000D0013070D0006070D00F9060C00ED0609
:100BA0000D00E0060C00D4060C00C8060C00BC06C4
:100BB0000C00B0060C00A4060B0099060C008D0674
:100BC0000B0082060B0077060B006C060B0061061B
:100BD0000A0057060B004C060A0042060A003806B7
:100BE0000A002E060A0024060A001A060A00100649
:100BF000090007060A00FD050900F4050900EB05D8
:100C00000900E2050900D9050900D0050900C7055A
:100C10000900BE050900B5050800AD050800A505D9
:100C200009009C050800940508008C05080084054F
:100C300008007C050800740508006C0507006505C0
:100C400008005D050700560508004E05070047052A
:100C500007004005080038050700310507002A0590
:100C60000700230507001C050600160507000F05F1
:100C700007000805060002050700FB040600F5044E
:100C80000700EE040600E8040600E2040700DB04A7
:100C90000600D5040600CF040600C9040600C304FC
:100CA0000600BD040600B7040600B1040500AC044C
:100CB0000600A6040600A00405009B040600950497
:100CC0000500900406008A040500850405008004E0
:100CD00006007A04050075040500700405006B0425
:100CE000050066040500610405005C040500570466
:100CF0000500520405004D040500480405004304A6
:100D000005003E0404003A040500350405003004E3
:100D100004002C04050027040400230405001E041D
:100D200004001A04040016040500110404000D0454
:100D30000400090405000404040000040400FC038A
:100D40000400F8030400F4030400F0030400EC03BF
:100D50000400E8030400E4030400E0030400DC03EF
:100D60000400D8030400D4030400D0030400CC031F
:100D70000400C8030300C503030024F404D9201BA6
:100D8000C40C5C0E9804C4095F0265077101F40588
:100D9000F900FB04B30048048700C103690058034D
:100DA000550003034500BE023A008402310053029D
:100DB0002A002902250004022000E4011C00C801C9
:100DC0001900AF011700980114008401130071018C
:100DD00010006101100051010E0043010D003601A9
:100DE0000B002B010B0020010B00150109000C0169
:100DF000090003010800FB000800F3000800EB00F5
:100E00000700E4000600DE000600D8000600D2005D
:100E10000600CC000500C7000500C2000500BD00AB
:100E20000400B9000400B5000400B1000400AD00E6
:100E30000400A9000400A5000300A20003009F0015
:100E400004009B000300980003009500020093003B
:100E50000300900003008D0002008B000300880057
:100E600002008600020084000300810002007F006F
:100E700002007D0002007B00020079000200770082
:100E8000010076000200740002007200010071008F
:100E900002006F0002006D0001006C0002006A0099
:100EA00001006900020067000100660001006500A2
:100EB00001006400020062000100610001006000A6
:100EC00001005F0002005D0001005C0001005B00AA
:100ED00001005A00010059000100580001005700AC
:100EE00001005600010055000100540001005300AC
:100EF00000005300010052000100510001005000A9
:100F000001004F0001004E0000004E0001004D00A6
:100F100001004C0001004B0000004B0001004A00A2
:100F2000010049000100480000004800010047009E
:100F30000100460000004600010045000000450099
:100F40000100440001004300000043000100420092
:100F5000000042000100410000004100010040008B
:100F600001003F0000003F0001003E0000003E0085
:100F700001003D0000003D0001003C0000003C007D
:100F800000003C0001003B0000003B0001003A0073
:100F900000003A000100390000003900010038006B
:100FA0000000380000003800010037000000370062
:100FB0000100360000003600000036000100350058
:100FC000000035000000350001003400000034004E
:100FD0000000340001003300000033000000330043
:100FE0000100320000003200000032000100310038
:100FF000000031000000310001003000000030002E
:101000000000300001002F0000002F0000002F0022
:1010100000002F0001002E0000002E0000002E0016
:1010200001002D0000002D0000002D0000002D000B
:1010300001002C0000002C0000002C0000002C00FF
:1010400001002B0000002B0000002B0000002B00F3
:1010500001002A0000002A0000002A0000002A00E7
:1010600001002900000029000000290000002900DB
:1010700000002900010028000000280000002800CE
:1010800000002800000028000100270000002700C1
:1010900000002700000027000000270001002600B4
:1010A00000002600000026000000260000002600A8
:1010B000010025000000250000002500000025009B
:1010C000000025000000250001002400000024008D
:1010D0000000240000002400000024000100230080
:1010E0000000230000002300000023000000230074
:1010F0000000230000002300010022000000220065
:101100000000220000002200000022000000220057
:10111000010021000000210000002100000021004A
:10112000000021000000210000002100010020003B
:10113000000020000000200000002000000020002F
:1011400000002000000020000000200001001F001F
:1011500000001F0000001F0000001F0000001F0013
:1011600000001F0000001F0001001E0000001E0004
:1011700000001E0000001E000000043700001E29B1
:101180000000511B00005810000010090000CC04A2
:1011900000007802000041010000556E6B6E6F7711
:1011A0006E20636F6D6D616E643A20220020746F53
:1011B0006F206C6F6E6720657874727573696F6EDF
:1011C0002070726576656E7465640A0020636F6CCA
:1011D0006420657874727573696F6E2070726576BD
:1011E000656E7465640A001FFFFFFFFFFFFF60006C
:1011F00000000001FF400000000000FF8000000030
:1012000000007F83CF00000C303F87FF80000C3050
:101210001F867980000C000F8C30C7838C30E78CE0
:1012200030CFC7CC31F38C30DCECEC33B98C30D818
:101230006C6C33198C30D06C0C33198C30D86C0C2E
:1012400033198C30DC6C0E3B198C30CF7C079F1926
:101250008C30C77C038F1940000000000002600042
:1012600000000000061FFFFFFFFFFFF82020506C6A
:10127000616E6E65724275666665724279746573F9
:101280003A20002046726565204D656D6F72793A8F
:101290002000436F6D70696C65643A20446563207B
:1012A000313620323031380A00207C204175746894
:1012B0006F723A20286E6F6E652C206465666175CA
:1012C0006C7420636F6E666967290A0032303138AA
:1012D0002D30312D323000204C61737420557064F4
:1012E000617465643A20006275676669782D322EF4
:1012F000302E780A004D61726C696E0020536F6663
:1013000074776172652052657365740A00205761B5
:10131000746368646F672052657365740A002042C5
:10132000726F776E206F75742052657365740A0052
:101330002045787465726E616C2052657365740A1D
:1013400000506F77657255700A0073746172740A89
:10135000006175746F25632E67006572726F72206D
:1013600077726974696E6720746F2066696C650AAC
:1013700000446F6E6520736176696E672066696CE4
:10138000652E0A004D323900456E6473746F7073B8
:1013900020256320256320256320256300205A3AF9
:1013A0000020593A0020583A00656E6473746F70DB
:1013B00073206869743A20004D3234004D32332076
:1013C00025730057726974696E6720746F206669AF
:1013D0006C653A20006F70656E206661696C6564AB
:1013E0002C2046696C653A20006F70656E2066613E
:1013F000696C65642C2046696C653A200046696C0E
:10140000652073656C65637465640A002053697AAE
:10141000653A200046696C65206F70656E65643AB8
:101420002000667265736800646F696E67002066ED
:10143000696C653A20004E6F772000454E4420537A
:101440005542524F5554494E450A002220706F7341
:10145000002220706172656E743A22005355425228
:101460004F5554494E452043414C4C20746172679E
:1014700065743A2200747279696E6720746F206314
:10148000616C6C207375622D67636F64652066699B
:101490006C6573207769746820746F6F206D616E5E
:1014A00079206C6576656C732E204D4158206C65F3
:1014B00076656C2069733A310A00FFE0FFD1A4AF72
:1014C000FF32FFD0FFFEFFE0FFD1AC00AEA5FFD0A2
:1014D000FFFEFFE0FFD11001FFFEFFD0FFE0FFD1D4
:1014E000FFCFA3A0C8602CFF322EFF322FFF322681
:1014F000A68118AFFF64A5FF64FF64A4FFD0FFFEC0
:1015000046696C2E204469612E0046696C2E204489
:1015100069612E004F6666004F6E004520696E209F
:101520006D6D5E3300416476616E63656420536562
:101530007474696E6773005049442D4400504944E7
:101540002D44005049442D49005049442D49005034
:1015500049442D50005049442D5000200820466138
:1015600063740020082046616374002008204D61E8
:1015700078002008204D6178002008204D696E0019
:101580002008204D696E004F6666004F6E00417561
:10159000746F74656D7000416476616E636564207C
:1015A00053657474696E67730023646566696E655C
:1015B0002044454641554C545F004B6420004B6924
:1015C00020004B702000504944204175746F7475A1
:1015D0006E652066696E6973686564212050757454
:1015E00020746865206C617374204B702C204B69EB
:1015F00020616E64204B6420636F6E7374616E743F
:10160000732066726F6D2062656C6F7720696E74EF
:101610006F20436F6E66696775726174696F6E2EB5
:10162000680A00504944204175746F74756E6520D6
:101630006661696C6564212074696D656F75740AF3
:1016400000453120544845524D414C2052554E41A1
:1016500057415900546865726D616C2052756E6116
:101660007761790045312048656174696E6720664D
:1016700061696C65640048656174696E67206661C4
:10168000696C656400504944204175746F74756ECF
:1016900065206661696C6564212054656D706572B2
:1016A000617475726520746F6F20686967680A00DD
:1016B000204B643A2000204B693A2000204B703ABE
:1016C00020000A20436C61737369632050494420F1
:1016D0000A002054753A2000204B753A2000206DF6
:1016E00061783A2000206D696E3A200020643A202B
:1016F0000020626961733A200050494420417574AA
:101700006F74756E652073746172740A0050494479
:10171000204175746F74756E65206661696C6564CF
:101720002120426164206578747275646572206E50
:10173000756D6265720A004572723A20757466387A
:1017400020666F6E74206E6F7420696E69746961B3
:101750006C697A65642E004572723A207574663839
:1017600020666F6E74206E6F7420696E6974696193
:101770006C697A65642E004572723A207574663819
:1017800020666F6E74206E6F7420696E6974696173
:101790006C697A65642E0000060C00FE07022603C1
:1017A000BC017FFE08FE08FE05080806000040F0A8
:1017B000C88888987810050808060000C0F888884E
:1017C000888888F80505050600012030F8302005D6
:1017D00008080600002070F820202020E0050909F4
:1017E0000600FF2070A8A8B88888702005060606A5
:1017F0000001E08CEA8C8A0A0509090600FFF8A8B6
:101800008888888888A8F8050A0A0600FE205050B3
:10181000505088A8A8887003030306000340A04026
:10182000FFFFFFFFFFFFFFFFFFFFFFFFFFFFFFFFC8
:10183000FFFFFFFFFFFF0000000605FF010707068F
:10184000020080808080800080030303060105A0E1
:10185000A0A005060606000050F85050F8500509F3
:10186000090600FF2070A8A07028A87020050707AF
:10187000060000C8C8102040989805070706000019
:1018800040A0A040A8906801030306020580808064
:101890000309090601FF204040808080404020036A
:1018A00009090601FF8040402020204040800507B4
:1018B0000706000020A8702070A820050505060076
:1018C000012020F820200203030601FFC04080050C
:1018D0000101060003F8020202060100C0C005076C
:1018E000070600000810102040408005070706008A
:1018F00000708898A8C8887003070706010040C0D8
:1019000040404040E00507070600007088081020AE
:1019100040F8050707060000F80810300888700531
:10192000070706000010305090F810100507070652
:101930000000F880F00808887005070706000030EE
:101940004080F0888870050707060000F80810102E
:10195000202020050707060000708888708888709E
:1019600005070706000070888878081060020505E2
:10197000060100C0C000C0C00206060601FFC0C0CC
:1019800000C040800305050601012040804020057D
:101990000303060002F800F8030505060101804074
:1019A00020408005070706000070881020200020D6
:1019B0000507070600007088B8A8B88070050707FB
:1019C000060000708888F8888888050707060000E8
:1019D000F04848704848F005070706000070888006
:1019E00080808870050707060000F048484848488E
:1019F000F0050707060000F88080F08080F80507F2
:101A000007060000F88080F0808080050707060048
:101A10000070888080988870050707060000888815
:101A200088F8888888030707060100E040404040A6
:101A300040E0050707060000381010101090600500
:101A400007070600008890A0C0A090880507070639
:101A50000000808080808080F805070706000088ED
:101A6000D8A8888888880507070600008888C8A83D
:101A7000988888050707060000708888888888701D
:101A8000050707060000F08888F0808080050707BA
:101A900006000070888888A890680507070600007F
:101AA000F08888F0A09088050707060000708880FD
:101AB00070088870050707060000F8202020202005
:101AC0002005070706000088888888888870050731
:101AD0000706000088888888505020050707060000
:101AE0000088888888A8A85005070706000088880D
:101AF000502050888805070706000088885020205D
:101B00002020050707060000F80810204080F80391
:101B100009090601FFE080808080808080E0050761
:101B20000706000080404020101008030909060144
:101B3000FFE020202020202020E0050303060005F0
:101B40002050880501010600FEF803030306010585
:101B50008040200505050600007008788878050794
:101B6000070600008080F0888888F00505050600DB
:101B700000708080887005070706000008087888D4
:101B80008888780505050600007088F080700507D4
:101B900007060000304840E04040400507070600C7
:101BA000FE70888888780870050707060000808026
:101BB000F0888888880307070601004000C040407D
:101BC00040E00409090601FE1000301010101090CA
:101BD0006005070706000080808890E09088030772
:101BE00007060100C04040404040E00505050600F2
:101BF00000D0A8A8A8A8050505060000B0C88888D8
:101C000088050505060000708888887005070706A6
:101C100000FEF0888888F080800507070600FE78BF
:101C2000888888780808050505060000B0C8808007
:101C30008005050506000078807008F00507070696
:101C400000002020F8202020180505050600008847
:101C50008888986805050506000088888850200552
:101C600005050600008888A8A8500505050600009F
:101C700088502050880507070600FE888888502075
:101C80004080050505060000F8102040F80309090A
:101C90000601FF20404040804040402001090906E5
:101CA00002FF808080808080808080030909060197
:101CB000FF80404040204040408005030306000272
:101CC00048A890FF20204D3235302043004C43443B
:101CD00020436F6E74726173743A0A0020440020CE
:101CE000490020204D3330312050005049442073AA
:101CF000657474696E67733A0A00204600204200DA
:101D000020480020204D3134352053004D6174654A
:101D10007269616C206865617475702070617261B0
:101D20006D65746572733A0A00205A0020590020CC
:101D3000204D323036205800486F6D65206F666642
:101D40007365743A0A00204500205A00205900208B
:101D5000580020540020530020204D3230352042BE
:101D60000020453C6D61785F655F6A65726B3E007F
:101D700020583C6D61785F785F6A65726B3E2059D0
:101D80003C6D61785F795F6A65726B3E205A3C6D8D
:101D900061785F7A5F6A65726B3E00416476616E5E
:101DA0006365643A20423C6D696E5F7365676D657B
:101DB0006E745F74696D655F75733E20533C6D6929
:101DC0006E5F66656564726174653E20543C6D6942
:101DD0006E5F74726176656C5F666565647261746E
:101DE000653E0020540020520020204D3230342027
:101DF0005000416363656C65726174696F6E202881
:101E0000756E6974732F7332293A20503C70726971
:101E10006E745F616363656C3E20523C72657472E0
:101E20006163745F616363656C3E20543C747261EE
:101E300076656C5F616363656C3E0A002045002037
:101E40005A0020590020204D3230312058004D6179
:101E500078696D756D20416363656C657261746945
:101E60006F6E2028756E6974732F7332293A0A00D9
:101E7000204500205A0020590020204D32303320C8
:101E800058004D6178696D756D2066656564726195
:101E90007465732028756E6974732F73293A0A006C
:101EA000204500205A0020590020204D393220586A
:101EB0000053746570732070657220756E69743A92
:101EC0000A0020204D3230302044300A0020204DBE
:101ED0003230302044002044697361626C65640ACA
:101EE0000046696C616D656E742073657474696E0B
:101EF00067733A0020204D3134392043203B205570
:101F00006E69747320696E2043656C736975730A1A
:101F10000020286D6D29002020473231202020200C
:101F20003B20556E69747320696E206D6D006F7073
:101F3000656E00545249474745524544003A2000D7
:101F40007A5F6D696E00795F6D696E00785F6D69AB
:101F50006E005265706F7274696E6720656E64738F
:101F6000746F70207374617475730A00205A3A009C
:101F700020593A0020436F756E7420583A0020456E
:101F80003A00205A3A0020593A00583A00486F6DFA
:101F9000696E67206661696C65640000000000007E
:101FA000000000000000000000484200004842001D
:101FB000008040000000005761726E696E673A2031
:101FC000486F6D696E672042756D7020446976694F
:101FD000736F72203C20310A000202040000A0400E
:101FE0000000A040000000400000484300004843BB
:101FF00000004843FFFFFF202F0020403A007C3CB8
:102000003E5E2B3D3F2F5B5D3B2C2A225C00000097
:102010002100240027002A002D0030003300010198
:102020000000040107010A01000022002500280029
:102030002B002E00310034000201000005010801D0
:102040000B01000020002300260029002C002F0097
:102050003200000100000301060109010505050524
:10206000070508080808020202020A0A0808040410
:10207000040401010101010101010303030303033E
:102080000303040707070C0C0C0C0C0C0C0C0202CD
:10209000020206060606060606060B0B0B0B0B0BCA
:1020A0000B0B010210202008081020401020408057
:1020B000020102010804020101020408102040800C
:1020C000804020100804020180040201804020109A
:1020D00008040201080402010102040810204080E3
:1020E000010204081020408000000A0B02090C0DB8
:1020F0000E080703040100000000000000000000BB
:1021000000000000000000000000000000000000CF
:10211000000000001211100000000000000000008C
:1021200000000000000000000000000000004D6FF3
:10213000766520302E316D6D004D6F766520316DE6
:102140006D004D6F76652031306D6D004D6F766599
:10215000206178697300486F74656E6420746F6FD6
:1021600020636F6C64004578747275646572004D0D
:102170006F7665205A004D6F76652059004D6F7659
:10218000652058004D6F76652058004D6F766520AC
:1021900059004D6F7665205A0045787472756465F4
:1021A00072004578747275646572004D6F766520B3
:1021B0005A004D6F76652059004D6F7665205800A6
:1021C0004D6F74696F6E0044697361626C65207352
:1021D00074657070657273004D3834004175746FAA
:1021E00020686F6D6500473238004D6F766520615D
:1021F000786973004D61696E0043616E6E6F742083
:10220000656E746572207375626469723A200002AB
:102210002E2E004D61696E005072656865617420F4
:10222000504C410050726568656174204142530012
:10223000436F6F6C646F776E0046616E20737065DC
:1022400065640046616E207370656564004E6F7A48
:102250007A6C65004E6F7A7A6C65004D61696E002C
:10226000466C6F7700466C6F770046616E20737026
:102270006565640046616E207370656564004E6F2D
:102280007A7A6C65004E6F7A7A6C6500537065657A
:1022900064005370656564004D61696E0025753A90
:1022A0002530327500253032753A253032750025DB
:1022B000756420253032753A253032750020202093
:1022C0002020200020202020001FE02010201020AF
:1022D00010102010202010201030300840048003FF
:1022E000001FE03FF03FF03FF01FE01FE03FF03FF6
:1022F000F03FF00FC0078003003FFFF03800703060
:10230000FC3020FC102078102030102C00D02E3112
:10231000D02F7BD02F7BD02E31D02C00D02030106E
:1023200020781020FC1030FC303800703FFFF03F68
:10233000FFF03800703186302387102787902F8771
:10234000D02F03D0203010207810207810203010AB
:102350002F03D02F87D027879023871031863038DE
:1023600000703FFFF056652D6A65726B0056652D53
:102370006A65726B00567A2D6A65726B00567A2D0B
:102380006A65726B0056792D6A65726B0056792DFD
:102390006A65726B0056782D6A65726B0056782DEF
:1023A0006A65726B00416476616E63656420536593
:1023B0007474696E6773004573746570732F6D6D07
:1023C000004573746570732F6D6D005A737465707A
:1023D000732F6D6D005A73746570732F6D6D005996
:1023E00073746570732F6D6D005973746570732FFE
:1023F0006D6D005873746570732F6D6D0058737434
:102400006570732F6D6D00416476616E6365642045
:1024100053657474696E6773004D343238004669D1
:102420006C616D656E740054656D70657261747574
:1024300072650053746570732F6D6D004A65726B21
:1024400000416363656C65726174696F6E00566507
:102450006C6F636974790053657420686F6D6520D3
:102460006F66667365747300436F6E666967757235
:102470006174696F6E004E6F7A7A6C65004E6F7A88
:102480007A6C650046616E20737065656400466114
:102490006E20737065656400436F6E666967757260
:1024A0006174696F6E006F70656E206661696C653E
:1024B000642C2046696C653A20005654726176207F
:1024C0006D696E005654726176206D696E00566DAE
:1024D000696E00566D696E00566D61782045005634
:1024E0006D6178204500566D6178205A00566D6107
:1024F00078205A00566D6178205900566D61782019
:102500005900566D6178205800566D61782058004A
:10251000416476616E6365642053657474696E67A7
:102520007300416D6178204500416D617820450060
:10253000416D6178205A00416D6178205A00416DEB
:102540006178205900416D6178205900416D6178B2
:10255000205800416D6178205800412D74726176D9
:10256000656C00412D74726176656C00412D726559
:10257000747261637400412D7265747261637400DA
:10258000416363656C00416363656C00416476611F
:102590006E6365642053657474696E677300526579
:1025A00073746F7265206661696C73616665005053
:1025B0007265686561742041425320636F6E6600E6
:1025C0005072656865617420504C4120636F6E667F
:1025D000004C434420636F6E7472617374004C430B
:1025E0004420636F6E747261737400416476616E2F
:1025F0006365642053657474696E6773004D616927
:102600006E004D3235005072696E742061626F72D7
:10261000746564004D3830005377697463682070C6
:102620006F776572206F6666004D383100436F6EBC
:1026300066696775726174696F6E0054656D706567
:10264000726174757265004D6F74696F6E005475B8
:102650006E65004E6F2053442063617264005072B7
:10266000696E742066726F6D2053440053746F70EE
:10267000207072696E7400526573756D652070729A
:10268000696E740053776974636820706F77657240
:10269000206F6E005061757365207072696E7400F2
:1026A000496E666F2073637265656E004361726484
:1026B0002072656D6F766564004361726420696E97
:1026C000736572746564003344205072696E74657A
:1026D000722052656164792E005072696E74696E61
:1026E000672E2E2E005072696E74207061757365AE
:1026F00064000000484300004843000048430000D5
:102700000000000000000000000048617264636F78
:102710006465642044656661756C742053657474E7
:10272000696E6773204C6F616465640A00B80B00C2
:1027300000B80B00006400000010270000000096A5
:1027400043000096430000A0400000C8410000A0E4
:10275000420000A04200007A450000FA4343617045
:102760003A00656E7175657565696E672022006F48
:102770006B00526573656E643A200053544F50509D
:1027800045442E20005072696E7465722073746F18
:10279000707065642064756520746F206572726F57
:1027A00072732E2046697820746865206572726F96
:1027B0007220616E6420757365204D39393920743B
:1027C0006F20726573746172742E202854656D7069
:1027D00065726174757265206973207265736574C2
:1027E0002E205365742069742061667465722072AE
:1027F000657374617274696E67290A004E6F2043B5
:102800006865636B73756D2077697468206C696E99
:1028100065206E756D6265722C204C617374204C5E
:10282000696E653A20004E6F20436865636B73756F
:102830006D2077697468206C696E65206E756D62B5
:1028400065722C204C617374204C696E653A2000CF
:10285000636865636B73756D206D69736D61746317
:10286000682C204C617374204C696E653A20004CD2
:10287000696E65204E756D626572206973206E6F9A
:1028800074204C617374204C696E65204E756D62C6
:1028900065722B312C204C617374204C696E653A43
:1028A00020004D313130004D3331005344207265EA
:1028B0006164206572726F720A00446F6E652070E9
:1028C00072696E74696E672066696C650A002057CC
:1028D0003A004520436F6F6C696E672E2E2E0045BF
:1028E0002048656174696E672E2E2E0043616E6EFE
:1028F0006F74206F70656E2073756264697220005A
:1029000053442063617264206F6B0A006F70656EC0
:10291000526F6F74206661696C65640A00766F6C33
:10292000756D652E696E6974206661696C65640AEF
:1029300000534420696E6974206661696C0A0070F6
:10294000012C0190012701B0012201C0011D01F0FD
:102950000118011002130130020E016002090190FA
:10296000020401C002FF000003FA004003F50080EA
:1029700003F000D003EB002004E6007004E100E067
:1029800004DC004005D700C005D2004006CD00D0D1
:1029900006C8008007C3003008BE00F008B900C0B8
:1029A00009B400B00AAF00B00BAA00D00CA500001B
:1029B0000EA000500F9B00C0109600501291000016
:1029C000148C00C0158700B0178200B0197D00D0AC
:1029D0001B7800001E730040206E0090226900F0FA
:1029E00024640040275F0090295A00E02B55001016
:1029F0002E500020304B0010324600E03341009052
:102A0000353C001037370070383200A0392D00B047
:102A10003A2800A03B2300603C1E00103D190090A6
:102A20003D1400103E0F00703E0A00C03E0500003D
:102A30003F0000403FFBFF803FF6FFC03FF1FF62D9
:102A400065640A002C2073797374656D2073746F4C
:102A50007070656421204865617465725F49443A0D
:102A60002000453120544845524D414C2052554E8E
:102A70004157415900546865726D616C2052756E02
:102A8000617761790045312048656174696E67201E
:102A90006661696C65640048656174696E6720668B
:102AA00061696C656400202D20496E76616C6964F3
:102AB000206578747275646572206E756D626572DA
:102AC00020210A004531204572723A204D41585468
:102AD000454D50004D415854454D50207472696722
:102AE0006765726564004531204572723A204D4930
:102AF0004E54454D50004D494E54454D5020747232
:102B000069676765726564004D3834205820592024
:102B10005A20450001BB75B711241FBECFEFD1E28B
:102B2000DEBFCDBF00E00CBF12E0A0E0B2E0E6EDFA
:102B3000F0E901E00BBF02C007900D92AE3AB10779
:102B4000D9F722E1AEEAB2E001C01D92AC36B2077D
:102B5000E1F715E1CBE8D5E100E006C021970109D6
:102B6000802FFE010E94B7C4CA38D10780E0080751
:102B7000A9F70E9433B20C9459C80C9400002F920C
:102B80003F924F925F926F927F928F929F92AF92FD
:102B9000BF92CF92DF92EF92FF920F931F93CF934A
:102BA000DF93CDB7DEB7C355D1090FB6F894DEBFBA
:102BB0000FBECDBF00914A0A20E6029F800111247A
:102BC0000653174F8091630880FF05C00E94C032F2
:102BD000C8010E9419371092E4021092E3028FE3B9
:102BE0008093E5021092DB021092DA021092D50275
:102BF0001092D6021092D7021092D802C8018C010E
:102C0000DC012C9101962032D1F32E34D9F41196A7
:102C10008C9190ED980F9A3020F08D3211F08B321C
:102C200089F4F80132969F012F5F3F4F80818053D6
:102C30008A3010F4F901F7CF8F013196D8018C91C9
:102C40008032D1F310935A03009359037801BFEFF8
:102C5000EB1AFB0AF80170806AE270E0C7010E947B
:102C600016C8009731F0FC01319780818032E1F382
:102C70001182FDE47F1631F024E5721619F037E475
:102C80007312EEC0F70180814FEFE41AF40A80322C
:102C9000C9F380538A3008F0E3C07092E50280E007
:102CA00090E06AE03196DF0111972C91022E000C22
:102CB000330B20533109689FA001699F500D1124E7
:102CC000C901840F951F208120532A3058F3909317
:102CD000DB028093DA02DF0131962C912032D9F3A6
:102CE0005DE475121AC08E31910591F03CF4873184
:102CF000910571F08C31910581F40AC085379105F9
:102D000064F08737910524F0803AE3E09E0729F4C8
:102D1000B093E402A093E302A3C0C12CD12C7601AE
:102D200040E050E0812C912C54018394FD013196B8
:102D30006C9161110DC05093E4024093E302C09284
:102D4000D502D092D602E092D702F092D80288C083
:102D50006132E9F42DE472121AC080329105B9F49F
:102D6000C092D502D092D602E092D702F092D80259
:102D7000F093E402E093E30263E270E0CF010E948B
:102D800016C8009709F46CC0DC011C9269C061543C
:102D90006A3108F042C09F01F90170812F5F3F4FF7
:102DA0007032D1F320ED270F2A30E8F07E3211F493
:102DB00021810CC07D3211F07B3259F4218130ED3C
:102DC000320F3A3080F02E3221F4228120532A3003
:102DD00050F04115510511F00C946F2BAF0141508B
:102DE00051090C946F2B9F01A62FB0E0140125010F
:102DF00004C0220C331C441C551C6A95D2F7C2280F
:102E0000D328E428F5282115310511F0201B01C035
:102E100020E0A255BD4F2C9304C04115510509F483
:102E2000AD01208121542A3110F4DF017FCF9F01B1
:102E3000F901D9016D916623C1F370ED760F7A30F7
:102E400010F49D01F5CF73ED760F7230D0F36B3235
:102E5000C1F3F9012F5F3F4F60816032D1F3E5CFBD
:102E600011E01093DC028091E5028D3411F40C9492
:102E7000871F843511F40C944D2B873411F00C947A
:102E8000682B2090DA023090DB02B4E02B1631047C
:102E900009F4F8C564F437FE02C00C94831F8091D6
:102EA0004702F2E02F1631040CF0F4C02BC02AE5E3
:102EB0002216310409F46DC73CF44CE124163104A8
:102EC00009F41EC60C94831F5BE52516310409F432
:102ED00064C78CE52816310411F00C94831F9BE421
:102EE000292E92E0392E2EE1E22E2BE0F22E4DE437
:102EF0005BE059A348A336E0C32E3BE0D32E00E0AD
:102F000010E08AC7882311F40C946A2B0E94732D59
:102F100080914402882321F08BE29BE00E94796B30
:102F20008091630883FD7DC0C090370BD090380B33
:102F3000E090390BF0903A0B2091590B30915A0BDD
:102F400040915B0B50915C0BC701B6010E9437C0EA
:102F5000882309F466C08091AC0381111FC0609181
:102F6000AD037091AE038091AF039091B0030E94C6
:102F700034C620911A0230911B026217730774F451
:102F8000C092590BD0925A0BE0925B0BF0925C0B03
:102F90000E94C03286ED93E00E949A328090370BF7
:102FA0009090380BA090390BB0903A0B2091590BB0
:102FB00030915A0B40915B0B50915C0BC501B401F1
:102FC0000E94C7C46B017C0120E030E0A9010E948F
:102FD00028C787FF04C0F7FAF094F7F8F09420911F
:102FE0001602309117024091180250911902C70140
:102FF000B6010E949DC020E030E048E453E40E9406
:1030000028C7181674F48092590B90925A0BA0920C
:103010005B0BB0925C0B0E94C03287EB93E00E9486
:103020009A326091340270913502072E000C880BA1
:10303000990B0E943EC020912202309123024091C0
:103040002402509125020E949DC02AE037ED43E200
:103050005CE30E949DC069837A838B839C83C12C2F
:10306000D12C76018E010F5F1F4F27E33BE043E336
:103070005BE06FE27BE08BE29BE00E94E74E80E149
:10308000EBE2FBE0ADE4BBE001900D928A95E1F745
:103090000C946A2B882311F40C946A2B0E94732DD4
:1030A00082E50E94662D882309F436C10E94EA2C2D
:1030B0006B017C0140904D0B50904E0B60904F0B7C
:1030C0007090500B2091510B3091520B4091530B4B
:1030D0005091540B28A339A34AA35BA380912B0BD7
:1030E00090912C0BA0912D0BB0912E0B8CA39DA336
:1030F000AEA3BFA320912F0B3091300B4091310B29
:103100005091320B28AB39AB4AAB5BAB20E030E0DF
:10311000A901C701B6010E9437C0882309F4AAC4D7
:103120002CA13DA14EA15FA1C301B2010E9437C0F5
:1031300081110DC028A939A94AA95BA968A179A163
:103140008AA19BA10E9437C0882309F493C411E08F
:1031500032E02316310409F010E020E030E0A9014C
:10316000C701B6010E9437C0881F8827881F18171B
:1031700049F080E090E0A0E8BFEB8CAB9DABAEAB3C
:10318000BFAB08C020E030E040E85FE32CAB3DABD4
:103190004EAB5FABA30192016CA17DA18EA19FA15B
:1031A0000E94C7C46CA77DA78EA79FA728A139A19D
:1031B0004AA15BA168A979A98AA99BA90E94C7C451
:1031C00068A779A78AA79BA72CA53DA54EA55FA5B3
:1031D000CA01B9010E949DC04B015C0128A539A517
:1031E0004AA55BA5CA01B9010E949DC09B01AC0123
:1031F000C501B4010E94C8C40E9476C74B015C019E
:103200009B01AC0160E070E080E89FE30E94C2C5D2
:1032100068AF79AF8AAF9BAF20E030E040E05FE37A
:10322000C501B4010E949DC04B015C01A70196013C
:10323000C701B6010E949DC06B017C01A5019401EC
:10324000C501B4010E949DC09B01AC01C701B6013C
:103250000E94C7C40E9476C72CA93DA94EA95FA9A8
:103260000E949DC04B015C0168A579A58AA59BA51C
:10327000905828AD39AD4AAD5BAD0E949DC0A50107
:1032800094010E949DC06B017C012CA13DA14EA127
:103290005FA1C301B2010E94C8C420E030E040E059
:1032A0005FE30E949DC09B01AC01C701B6010E9473
:1032B000C8C4A30192010E94C7C46B017C0128A964
:1032C00039A94AA95BA968A179A18AA19BA10E94F9
:1032D000C8C420E030E040E05FE30E949DC02B01C5
:1032E0003C0128AD39AD4AAD5BAD6CA57DA58EA581
:1032F0009FA50E949DC0A50194010E949DC09B01B5
:10330000AC01C301B2010E94C8C428A139A14AA1DD
:103310005BA10E94C7C414C089E40E94662D882363
:1033200029F00E94EA2C6B017C0103C0C12CD12C36
:1033300076018AE40E94662D8823D9F00E94EA2C47
:1033400068AB79AB8AAB9BAB20E030E0A901C70149
:10335000B6010E9437C081111AC020E030E0A901F7
:1033600068A979A98AA99BA90E9437C081110FC0B9
:1033700081C320E030E0A901C701B6010E9437C037
:10338000882309F477C318AA19AA1AAA1BAAD70175
:10339000C601B05888A399A3AAA3BBA328A939A999
:1033A0004AA95BA950582CA33DA34EA35FA39C013F
:1033B000AD01BC01CD010E949DC04B015C012CA15F
:1033C0003DA14EA15FA1CA01B9010E949DC09B0110
:1033D000AC01C501B4010E94C8C40E9476C72896FA
:1033E0006CAF7DAF8EAF9FAF289780914D0B9091C2
:1033F0004E0BA0914F0BB091500B8CA79DA7AEA781
:10340000BFA7A7019601BC01CD010E94C8C468AF47
:1034100079AF8AAF9BAF2091510B3091520B409105
:10342000530B5091540B2CAB3DAB4EAB5FAB28A96B
:1034300039A94AA95BA96CA97DA98EA99FA90E9457
:10344000C8C42C966CAF7DAF8EAF9FAF2C97809188
:103450002B0B90912C0BA0912D0BB0912E0B8CAFC0
:103460009DAFAEAFBFAF28AD39AD4AAD5BADBC01CE
:10347000CD010E94C7C46B017C0120912F0B3091BC
:10348000300B4091310B5091320B24962CAF3DAF55
:103490004EAF5FAF24972C962CAD3DAD4EAD5FADDA
:1034A0002C9724966CAD7DAD8EAD9FAD24970E9478
:1034B000C7C44B015C018091550B9091560BA091B4
:1034C000570BB091580B60968CAF9DAFAEAFBFAFAE
:1034D00060979C01AD016091330B7091340B80912A
:1034E000350B9091360B0E94C7C468A779A78AA7AD
:1034F0009BA7A701960168A179A18AA19BA10E941F
:103500009DC02B013C01A50194016CA17DA18EA160
:103510009FA10E949DC09B01AC01C301B2010E940A
:10352000C8C42B013C01A501940168A179A18AA11D
:103530009BA10E949DC04B015C01A70196016CA15B
:103540007DA18EA19FA10E949DC09B01AC01C501E0
:10355000B4010E94C7C4A30192010E9447C56B0138
:103560007C0120E030E0A9010E9437C087FF0AC03B
:103570002BED3FE049EC50E4C701B6010E94C8C4FE
:103580006B017C0192E02916310451F42BED3FE0F0
:1035900049EC50E4C701B6010E94C7C46B017C012D
:1035A00020E030E0A901C701B6010E9437C08111B7
:1035B00022C02CAD3DAD4EAD5FAD6CA57DA58EA5F9
:1035C0009FA50E9437C0811116C024962CAD3DAD39
:1035D0004EAD5FAD24976CA97DA98EA99FA90E94CD
:1035E00037C0811108C0EBEDCE2EEFE0DE2EE9EC06
:1035F000EE2EE0E4FE2EA701960128966CAD7DAD7F
:103600008EAD9FAD28970E949DC04B015C0120E0CC
:1036100030E0A90168A579A58AA59BA50E9437C0BD
:103620008823D9F0A5019401C501B4010E949DC071
:103630004B015C0128A539A54AA55BA5CA01B901C2
:103640000E949DC09B01AC01C501B4010E94C8C489
:103650000E9476C74B015C010DC020E030E0A9015B
:10366000C501B4010E9428C787FF04C0B7FAB0940F
:10367000B7F8B0942FE632E143E85AE3C501B4014C
:103680000E9437C087FDEAC1C501B4010E946AC625
:103690000E943BC67DAB6CABDB01AB2B21F4E1E0C0
:1036A000F0E0FDABECAB4090590B50905A0B6090A2
:1036B0005B0B70905C0B2CA93DA9B90180E090E0F8
:1036C0000E943CC04B015C019B01AC01C701B601EB
:1036D0000E94C2C56CA77DA78EA79FA7A5019401D4
:1036E00068A579A58AA59BA50E94C2C528966CAF3E
:1036F0007DAF8EAF9FAF2897A30192016091370BEA
:103700007091380B8091390B90913A0B0E94C7C48D
:10371000A50194010E94C2C564966CAF7DAF8EAFC7
:103720009FAF64972CA53DA54EA55FA5CA01B90121
:103730000E949DC020E030E040E05FE30E949DC019
:103740009B01AC0160E070E080E89FE30E94C7C489
:103750006CAF7DAF8EAF9FAF60968CAD9DADAEADC3
:10376000BFAD609789879A87AB87BC874D865E8699
:103770006F86788A6091340270913502072E000CB2
:10378000880B990B0E943EC02091220230912302A7
:1037900040912402509125020E949DC02AE037EDFD
:1037A00043E25CE30E949DC06C8F7D8F8E8F9F8F64
:1037B0000E9451519B01AC0128533F4F4F4F5F4F27
:1037C00024962CAF3DAF4EAF5FAF249748A059A0D1
:1037D0006AA07BA022242394312C39E138A74CA97C
:1037E0005DA94215530509F411C10E943BAF0E9427
:1037F0005151DC01CB0124962CAD3DAD4EAD5FADFA
:103800002497821B930BA40BB50BB7FD10C00E942D
:1038100051519B01AC0128533F4F4F4F5F4F2496AE
:103820002CAF3DAF4EAF5FAF24970E94233338A536
:10383000315038A73323E9F12CA13DA14EA15FA15E
:103840006CAD7DAD8EAD9FAD0E949DC06B017C01C6
:103850009201A3016CA57DA58EA59FA50E949DC088
:10386000A70196010E94C8C47B018C019201A301AB
:103870006CAD7DAD8EAD9FAD0E949DC04B015C01D6
:103880002CA13DA14EA15FA16CA57DA58EA59FA5F4
:103890000E949DC09B01AC01C501B4010E94C7C438
:1038A0002B013C01C701D8018CA39DA3AEA3BFA3EC
:1038B0004DC0B10180E090E00E943CC02CA53DA528
:1038C0004EA55FA50E949DC04B015C010E94BDC535
:1038D0006B017C01C501B4010E9468C74B015C010A
:1038E000A701960168A179A18AA19BA10E949DC010
:1038F0002B013C0128A939A94AA95BA9C501B4013A
:103900000E949DC0A30192010E94C8C42B013C01EA
:10391000A501940168A179A18AA19BA10E949DC0E3
:103920004B015C0128A939A94AA95BA9C701B601C5
:103930000E949DC09B01AC01C501B4010E94C7C497
:103940006CA37DA38EA39FA349E148A79201A30185
:1039500068AD79AD8AAD9BAD0E94C8C469837A8396
:103960008B839C832CA13DA14EA15FA12C966CADB5
:103970007DAD8EAD9FAD2C970E94C8C46D837E83B4
:103980008F83988728962CAD3DAD4EAD5FAD2897BF
:1039900069857A858B859C850E94C8C469877A87EA
:1039A0008B879C8764962CAD3DAD4EAD5FAD649723
:1039B0006D857E858F8598890E94C8C46D877E87B6
:1039C0008F87988B80914402882321F0CE01019645
:1039D0000E94796BC12CD12C60E8E62E6FE3F62EA5
:1039E0008E01045E1F4F9E01235F3F4FAE01475F74
:1039F0005F4FBE016B5F7F4FCE0101960E94E74E85
:103A0000882321F05FEF251A350AE9CE80E1EBE249
:103A1000FBE0DE01119601900D928A95E1F7C12C31
:103A2000D12C50E8E52E5FE3F52E8E01045E1F4F8A
:103A30009E01235F3F4FAE01475F5F4FBE016B5F4B
:103A40007F4FCE0101960E94E74E80E1FE01319644
:103A5000ADE4BBE001900D928A95E1F70E945151CF
:103A600060939011709391118093921190939311A0
:103A70000C946A2B0E94BC3281EF93E00E949A3230
:103A80000C946A2B80E50E94662D882329F00E9401
:103A9000A62C6B017C0103C0C12CD12C760183E5DF
:103AA0000E94662D882361F00E94EA2C20E030E01D
:103AB0004AE754E40E949DC00E943BC66B017C0112
:103AC0000E94D53F80915B03811105C060E087E0D3
:103AD00094E00E948D9E0E945151C60ED71EE81E92
:103AE000F91E0E945151DC01CB018C199D09AE09D0
:103AF000BF09B7FD02C00C946A2B0E942333F1CF9B
:103B00008FE40E94D74F882339F080912A0B877069
:103B1000873011F40C946A2B0E94D53F80912202C9
:103B200090912302A0912402B09125028093DF029C
:103B30009093E002A093E102B093E20280913402FC
:103B4000909135029093DE028093DD0284E690E04E
:103B5000909335028093340211E01093BB080E94C9
:103B6000D06D88E50E941D2D382E89E50E941D2DFF
:103B7000082F8AE50E941D2D282E311004C0011146
:103B800004C0182705C0011102C010E001C0182FA1
:103B900080E1EDE4FBE0ABE2BBE001900D928A95A1
:103BA000E1F782E50E94662D882369F00E94EA2CE5
:103BB0006B017C0120E030E0A9010E9437C088231E
:103BC00009F4ACC006C0C12CD12C40EAE42E40E47C
:103BD000F42E111105C0311003C0002309F4AFC049
:103BE000C092330BD092340BE092350BF092360B2F
:103BF000A70196016091550B7091560B8091570B60
:103C00009091580B0E9437C087FF88C08091510B5C
:103C10009091520BA091530BB091540B88A399A390
:103C2000AAA3BBA340904D0B50904E0B60904F0B3E
:103C30007090500B20912202309123024091240277
:103C4000509125022CA33DA34EA35FA3EFEAFFE111
:103C500085909590A590B490809222029092230234
:103C6000A0922402B0922502C092550BD092560B1E
:103C7000E092570BF092580B0E942B6C85E595E56E
:103C8000A5E0B3E48093220290932302A093240240
:103C9000B093250240924D0B50924E0B60924F0B09
:103CA0007092500B88A199A1AAA1BBA18093510B3E
:103CB0009093520BA093530BB093540B0E942B6C18
:103CC000A70196016091550B7091560B8091570B8F
:103CD0009091580B0E9428C7181694F480922202E3
:103CE00090922302A0922402B0922502C092550B1A
:103CF000D092560BE092570BF092580B0E942B6C0F
:103D00002CA13DA14EA15FA120932202309323025A
:103D100040932402509325020E94D53F111105C003
:103D2000311003C0011106C00AC080E00E94896CF6
:103D30001123C1F381E00E94896C111102C022207D
:103D400019F082E00E94896C0E94476C8091BA0849
:103D50008093BB088091DF029091E002A091E10284
:103D6000B091E2028093220290932302A093240256
:103D7000B09325028091DD029091DE02909335028E
:103D80008093340283E0809315020E94DB6D0C94D3
:103D90006A2B1092D9020C946A2B1093D9020C94BE
:103DA0006A2B0E94EA2C2B013C01133049F0F601EA
:103DB00020813181428153810E94C7C42B013C0183
:103DC000A8A1B9A12D913D914D915C91C301B20182
:103DD0000E94C7C44B015C012DEB37E346E855EB6D
:103DE0000E9428C787FD20C02DEB37E346E855E346
:103DF000C501B4010E9437C01816B4F01F5FB4E0CB
:103E0000EB0EF11CE8A1F9A13496F9A3E8A3F4E0C4
:103E1000CF0ED11C143039F1D1018D911D010E94BA
:103E2000662D882359F3BDCF133051F44092590BBE
:103E300050925A0B60925B0B70925C0B01E0DECFEC
:103E4000A5019401F70160817181828193810E94B3
:103E5000C8C4D7016D937D938D939C931397812F45
:103E60000E940B6CCBCF002309F449C02091840839
:103E70003091850840918608509187086091590BD0
:103E800070915A0B80915B0B90915C0B0E949DC0CE
:103E90000E9435C76093680E7093690E80936A0E16
:103EA00090936B0E9091460E8091470E981719F0E3
:103EB0000E94773F24C00E94D53F80916F00982FC9
:103EC000927081FF05C080916F008D7F80936F009D
:103ED0004091680E5091690E60916A0E70916B0E60
:103EE00040931A1250931B1260931C1270931D1270
:103EF000992329F080916F00826080936F000E9467
:103F0000DB6D0C946A2B0E94C74F0C946A2B809136
:103F1000DA029091DB028037910509F42DC50CF08F
:103F2000DAC08A32910509F472C40CF07FC088317E
:103F3000910509F490C20CF05DC08231910509F43D
:103F4000DCC5DCF497FF02C00C944A2B823091054B
:103F50000CF4F0C1419711F00C944A2B60E083E21D
:103F600094E00E948D9E5F988A98809108018170EC
:103F70008093060112980C946A2B8531910509F4FF
:103F800050C254F5449711F00C944A2B8BE394E003
:103F90000E949A321092C80A88E29EE00E946073E2
:103FA0008BE1E8E2FEE0DE01119601900D928A9528
:103FB000E1F740E050E0BE016F5F7F4F80E090E0AE
:103FC0000E942FABCE0101960E9465738CE294E0B3
:103FD0000E949A320C946A2B8631910509F425C20D
:103FE000479711F00C944A2B8091E3029091E402E0
:103FF000FC0128C28C31910509F4B2C23CF48A312B
:10400000910509F44AC20CF42EC255C28E319105B5
:1040100009F4B0C214F40C946A2B8F31910509F4A1
:104020004CC3809709F404C30C944A2B8535910541
:1040300009F492C534F58035910509F421C58CF455
:104040008C34910509F400C48D34910509F40FC432
:104050008B34910511F00C944A2B0E94C69D0C9450
:104060006A2B8235910509F441C50CF427C58335C7
:10407000910509F43EC58435910509F43EC50C94BB
:104080004A2B8B36910509F4F0C4ACF488369105BF
:1040900009F4F0C334F48C35910509F476C50C9419
:1040A0004A2B8936910509F490C48A36910509F4A2
:1040B000C4C40C944A2B8D36910509F4FEC30CF44C
:1040C00056C48E36910509F4FBC38F36910509F469
:1040D00008C40C944A2B8C3D910511F40C9487284C
:1040E0000CF0ACC08139910509F426C60CF083C0F0
:1040F0008537910509F4DAC50CF066C08237910561
:1041000009F4CFC50CF43CC48337910511F00C942D
:104110004A2B8EE196E00E949A3260E08EE096E0B3
:104120000E948EA760E087E096E00E948EA761E083
:104130008CEF95E00E948EA761E08CEE95E00E94E6
:104140008EA760E083EE95E00E948EA761E089ED86
:1041500095E00E948EA760E08FEC95E00E948EA70C
:1041600060E087EC95E00E948EA760E089EB95E027
:104170000E948EA760E08BEA95E00E948EA761E026
:104180008CE995E00E948EA760E08EE895E00E94A1
:104190008EA760E088E795E00E948EA760E087E642
:1041A00095E00E948EA760E082E595E00E948EA7D0
:1041B00061E08FE395E00E948EA760E082E395E0E6
:1041C0000E948EA70C946A2B8737910509F4A9C524
:1041D0000CF474C58837910509F4A6C58937910593
:1041E00011F00C944A2B1092BB081092BA080E944E
:1041F000D06D0C946A2B8B3C910509F44FC674F476
:10420000883C910509F4DAC5893C910509F423C677
:104210008B39910511F00C944A2BE9C38D3C910523
:1042200009F48CC60CF459C68E3C910509F496C667
:10423000833D910509F4B5C60C944A2B803921E0E1
:10424000920711F40C94292A94F58C3241E09407DA
:1042500011F40C9435297CF4823E910509F4BAC717
:104260008A3F910511F40C94CE298D3D910511F0F2
:104270000C944A2B59C78E32A1E09A0711F40C9482
:10428000E42914F40C944A298F32E1E09E0711F4DA
:104290000C94262A8336914011F00C944A2B0E94EC
:1042A000BC328DE398E00E949A320C946A2B863FD0
:1042B00021E0920711F40C94262B14F58C3A41E07E
:1042C000940711F40C942C2A4CF48A39914011F083
:1042D0000C944A2B0E9438320C946A2B843FB1E034
:1042E0009B0711F40C941F2B853F914011F00C9407
:1042F0004A2B0E94DC9B80E00E948C6E0C946A2BFF
:104300008C30F2E09F0711F40C94352B3CF4873F7E
:10431000914011F40C94292B0C944A2B803A43E0E1
:10432000940709F4BAC1873E934011F40C943D2BD5
:104330000C944A2BA090E302B090E40280E50E9426
:10434000662D882359F00E94A62C6B017C0111E098
:10435000672B682B692B31F410E004C010E0C12CEE
:10436000D12C760183E50E94662D882311F40C94EC
:10437000732B0E94EA2C20E030E04AE754E40E94CC
:104380009DC00E943BC66B017C0111110BC0672BC5
:10439000682B692B39F4A114B10421F0D5018C915B
:1043A000811102C010E001C011E00E94D53F11232D
:1043B00029F061E0C5010E94C79E05C060E080E170
:1043C00094E00E948D9E83E08093DC0281E08093E4
:1043D000EA10C114D104E104F104B1F00E9451517A
:1043E000C60ED71EE81EF91E0E945151DC01CB01FA
:1043F0008C199D09AE09BF09B7FF0DC08091EA1065
:1044000081110C94782B07C08091EA10882319F051
:104410000E942333F9CF0E94ED9E1092EA100C9473
:104420006A2B0E94BEA70C946A2B0E94D9568091D9
:10443000E10F877F8093E10F0C946A2B203209F4FF
:104440001082319620812111F9CF40E061E00E9475
:10445000E8560C946A2B0E944F580E94C69D0E94F9
:10446000ED9E0C946A2B8091E10F8B7F8093E10F7E
:104470008091F010813069F482E08093F0100E9406
:1044800051516093EC107093ED108093EE10909367
:10449000EF100E94ED9E0C946A2B8091E10F83FD3A
:1044A00002C00C946A2B83E50E94662D81110C9446
:1044B0007C2B0C946A2B83E40E941D2D882319F118
:1044C00086E594E00E949A328091D20D882391F083
:1044D000BE016F5F7F4F8FEC9DE00E9427728E01BF
:1044E0000F5F1F4FF80181918F01882339F00E94DF
:1044F0009332F8CF8CE494E00E949A328AE00E94D2
:1045000093320C946A2B8091E10F83FF23C082FFCA
:1045100021C085E694E00E949A326091DD0F70918F
:10452000DE0F8091DF0F9091E00F4AE00E94CE35C0
:104530008FE20E9493326091D90F7091DA0F8091CF
:10454000DB0F9091DC0F4AE00E94CE350E941337BA
:104550000C946A2B87E794E00E949A320C946A2BA1
:1045600040E060E08091E3029091E4020E94E8560E
:104570000C946A2B8091E10F83FD02C00C946A2B8E
:104580000E94B04F6091E3027091E4028091E10FCC
:1045900083FD02C00C946A2BCE014C960E9494902D
:1045A0008C01009711F40C946A2B6C8D7D8D19820F
:1045B0001C8222E0AC01CE0101960E949577811108
:1045C00002C0F12C14C0CE0101960E9402908823F3
:1045D000C1F361E0CE0101960E940B72009789F34E
:1045E00025EEDC012C931C820E94D4A8F82ECE016B
:1045F00001960E946573B801FF2089F080EA94E07B
:104600000E94A9328AE00E9493321092DD0F10922C
:10461000DE0F1092DF0F1092E00F0C946A2B88E8E7
:1046200094E00E94A9328EE20E9493320C946A2B8D
:104630008091E10F82FD0E94D53F8091E10F83FDC3
:1046400002C00C946A2B80E50E94D74F182F482F88
:1046500061E08091E3029091E4020E94E85683E5D4
:104660000E94662D882381F00E94B62CAB01BC010C
:104670004093DD0F5093DE0F6093DF0F7093E00FD8
:104680008FEC9DE00E9418710E944F5811110C94FC
:104690006A2B0E94C69D0C946A2B2091E3023091F4
:1046A000E4029091E10F92609093E10F40E060E0AE
:1046B000C9010E94E8560C946A2B0E94779D7B01E9
:1046C0008C0120E831E541E050E00E9428C4C90196
:1046D0006DE671E00E9470C44B015C01C801B70136
:1046E00020E13EE040E050E00E9428C4CA01B90148
:1046F00028E130E040E050E00E9428C4762E672E8A
:10470000C62ED72E8CE3282E312C412C512CC801DB
:10471000B701A20191010E9428C4F62EE72ECA011A
:10472000B901A20191010E9428C4CB018E010F5F43
:104730001F4F8114910499F0EF92FF927F936F9332
:104740006F927F92BF92AF929F928F9286ED94E08C
:104750009F938F931F930F930E94CFBF13C0A114F9
:10476000B104B1F0EF92FF927F936F936F927F92BB
:10477000BF92AF9286EC94E09F938F931F930F9319
:104780000E94CFBF0FB6F894DEBF0FBECDBF30C0C2
:10479000CD2879F0EF92FF927F936F936F927F9283
:1047A0008AEB94E09F938F931F930F930E94CFBF48
:1047B000E9CF892B69F0EF92FF927F936F9382EBA1
:1047C00094E09F938F931F930F930E94CFBFDACFF4
:1047D000EF92FF928EEA94E09F938F931F930F9333
:1047E0000E94CFBF0F900F900F900F900F900F90DF
:1047F00060E0C8010E94C79E0E94C032B8018AEEE4
:1048000094E00E94A9328AE00E94933263C783E554
:104810000E94662D882309F45DC70E94C62CF82EDD
:104820006DE070E080E50E94F72D8C0197FD52C786
:10483000E82E89E40E94D74F81116FC7802F0E9414
:104840000EB28111E4C469C78091F010813009F083
:1048500041C782E08093F0100E9451516093EC10A8
:104860007093ED108093EE109093EF1033C70E9479
:10487000EA9D30C78091630883FD2CC70E9464368F
:1048800087FD28C783E50E94662D882399F00E9442
:10489000EA2C0E9434C68B017093470B6093460B41
:1048A00080E00E9400AD0635110524F40E94EA9DC7
:1048B0000E94ED9E0E94003F0DC70E9453A20AC7AE
:1048C0008EE40E94662D882309F404C70E94B62C4A
:1048D00060938C1170938D1180938E1190938F1132
:1048E000F9C683E50E941D2D882359F083E50E94B7
:1048F000662D882319F00E94C62C01C080E08093A9
:1049000063080E94C03285E095E00E949A3280914F
:104910006308882349F10BEFE02E04E0F02E00E05D
:1049200010E020E08091630890E0002E02C0959591
:1049300087950A94E2F780FF0EC0DD24D394D20E4F
:10494000222319F08CE20E949332F7018591949111
:104950000E949A322D2D0F5F1F4F92E0E90EF11C3D
:1049600005301105F9F6CACD87EF94E0C5CD109258
:10497000EA1010922102AEC680E090E00E94C4329C
:1049800083E50E94662D882361F00E94C62C8093E7
:10499000000290E0CD970CF49DC68CE3809300025A
:1049A00099C60E94C032C0900002D12CE12CF12C9B
:1049B0008CE095E00E949A324AE0C701B6010E945D
:1049C000CE358AE00E94933285C60E946436182F45
:1049D00087FD0AC083E195E00E949A32812F0E94F0
:1049E00086788AE00E9493321092DC0295C783E5B4
:1049F0000E94662D882309F46DC60E94C62C182FCC
:104A000090E0CD970CF01CE31093CC020E94515122
:104A10006B017C01212F30E0A8EEB3E00E9455C469
:104A2000C60ED71EE81EF91EC092C802D092C90257
:104A3000E092CA02F092CB024DC680E50E94662D3C
:104A4000882321F00E94C62C182F01C010E06FEFC0
:104A500070E083E50E947BA711113CC68F3F910552
:104A600008F08FEF80939B0335C660E070E080E52F
:104A70000E947BA7892B09F02DC610929B032AC6A2
:104A800083E50E941D2D882361F080911C028823FC
:104A900019F08CE195E002C086E195E00E949A321F
:104AA00019C6269A2E9810931C0264E670E080E0E6
:104AB00090E00E94777D0E94ED9E0CC60E944FAD53
:104AC0000E94EA9D0E945D410E94903268EE73E070
:104AD00080E090E00E941432269A2E9A10921C02D6
:104AE00060E082E295E00E948D9EF4C51092D002B3
:104AF000F1C581E08093D002EDC583E50E94662D6B
:104B0000882399F00E94EA2C20E030E04AE754E440
:104B10000E949DC00E943BC66093010270930202F6
:104B20008093030290930402D5C588E50E941D2D51
:104B3000811106C689E50E941D2D811101C68AE5F5
:104B40000E941D2D8111FCC585E40E941D2D81113F
:104B5000F7C50E945D41BEC583E50E941D2D8823D7
:104B600009F4B8C50E94EA2C20E030E04AE754E49A
:104B70000E949DC00E943BC66093D1027093D202F6
:104B80008093D3029093D402A5C50E94643687FD1A
:104B9000A1C5BBE4CB2EB2E0DB2E14E6E12E18E07B
:104BA000F12E10E0D6018D916D010E941D2D8823FC
:104BB00009F46DC0133009F063C00E94EA2C4B0168
:104BC0005C0120E030E040EA51E40E9437C087FFFA
:104BD0004EC0A50194016091840870918508809170
:104BE0008608909187080E94C2C52B013C019B0159
:104BF000AC0160917F03709180038091810390915B
:104C000082030E949DC060937F0370938003809312
:104C1000810390938203A3019201609194087091A3
:104C2000950880919608909197080E949DC0609386
:104C300094087093950880939608909397086091D4
:104C40008F037091900380919103909192030E9441
:104C50003CC0A30192010E949DC00E943BC660938C
:104C60008F037093900380939103909392038092AB
:104C7000840890928508A0928608B092870807C0A1
:104C80000E94EA2CF701648B758B868B978B1F5FD4
:104C9000F4E0EF0EF11C143009F084CF0E94BA400A
:104CA00019C50E94D53F0E94DB6D14C560E080915C
:104CB000E3029091E4020E94C79E0CC50091E302BA
:104CC0001091E40283E0F12C40E08150E9F0D8013A
:104CD0009C91292F2B7F2134C1F711962C912133E0
:104CE000A1F7913421F0953421F441E002C0FF2472
:104CF000F39498012E5F3F4F89012F5F3F4FF801DA
:104D000090819032C9F3E1CF41110E94C032FF205F
:104D100021F08BEE96E00E949A32C8010E9419376A
:104D2000D9C40E94B46DD6C481E08093BB0880933F
:104D3000BA080E94D06DCEC460E070E083E50E94A6
:104D4000F72D8C011127023011053CF00E94BC3276
:104D50008FEE96E00E949A32BDC488E40E94662DD0
:104D60008823A9F00E94B62C6A3A71053CF06530A0
:104D7000F1E07F072CF064E071E002C06AEA70E0C5
:104D8000F801EE0FFF1FEE5FF44F7183608386E43E
:104D90000E94662D882309F49DC40E94B62C77FDDD
:104DA00007C06F3F710529F024F06FEF70E001C07C
:104DB00060E0F801E450F54F60838CC40E946436D3
:104DC000182F87FD87C484E40E941D2D882309F4D1
:104DD0003FC00E94EA2C6B017C0101E020E030E042
:104DE000A9010E9437C0811101C000E000933B0B74
:104DF00020E030E0A901C701B6010E9437C0882336
:104E000039F10E94EA2C24E01202F0011124E05C46
:104E1000F44F608371838283938320E030E0A901A3
:104E20006091400B7091410B8091420B9091430B2C
:104E30000E9437C081110CC080E090E0A0E4B0E493
:104E40008093400B9093410BA093420BB093430B84
:104E50000E9442683FC40E94643687FD3BC4EBE475
:104E6000EE2EE2E0FE2E04E618E0D7018D917D01E2
:104E70000E941D2D882349F00E94EA2C0E943BC607
:104E8000F80160837183828393830C5F1F4FF8E086
:104E900004371F0751F70E94303F1CC40E9464363C
:104EA00087FD18C47BE4E72E72E0F72E04E618E0D5
:104EB000D7018D917D010E941D2D882339F00E941C
:104EC000EA2CF80164A375A386A397A30C5F1F4F78
:104ED000F8E004371F0761F7FDC38091D60287FD14
:104EE0005FC48091D7028E7009F05AC4409198082F
:104EF0005091990860919A0870919B0887E197E01A
:104F00000E94023740919C0850919D0860919E0834
:104F100070919F0884E197E00E9402374091A008B9
:104F20005091A1086091A2087091A30881E197E0D7
:104F30000E9402378AE00E949332CCC38091D5024E
:104F4000827109F073C48091D7028C7809F06EC425
:104F50008091D802837009F069C4BCC35BE4C52E9C
:104F600052E0D52E6DEBE62E68E0F62E10E0D6016D
:104F70008D916D010E941D2D882351F00E94EA2C15
:104F8000F7016083718382839383812F0E940B6C6E
:104F90001F5FF4E0EF0EF11C133011F40C947F1F2F
:104FA000E6CF0E94C0328EE497E00E949A3283E5F9
:104FB0000E941D2D882321F00E94DA2C8093440248
:104FC00080914402882319F08BE297E002C087E2C7
:104FD00097E00E949A3286E497E00E949A322091EC
:104FE000060B3091070B4091080B5091090B609113
:104FF000120B7091130B8091140B9091150B0E9462
:10500000C8C4AB01BC0184E497E00E940237209140
:105010000A0B30910B0B40910C0B50910D0B6091D2
:10502000160B7091170B8091180B9091190B0E9421
:10503000C8C4AB01BC0181E497E00E940237209113
:105040000E0B30910F0B4091100B5091110B609192
:105050001A0B70911B0B80911C0B90911D0B0E94E1
:10506000C8C4AB01BC018EE397E00E94023786E31F
:1050700097E00E949A322091060B3091070B4091E5
:10508000080B5091090B60912602709127028091C4
:105090002802909129020E94C8C4AB01BC0184E39C
:1050A00097E00E94023720910A0B30910B0B409140
:1050B0000C0B50910D0B60912A0270912B02809184
:1050C0002C0290912D020E94C8C4AB01BC0181E367
:1050D00097E00E94023720910E0B30910F0B409108
:1050E000100B5091110B60912E0270912F02809144
:1050F0003002909131020E94C8C4AB01BC018EE223
:1051000097E00E9402378AE00E949332E3C283E56F
:105110000E94662D882309F4DDC20E94B62C70938C
:10512000350260933402D6C20E946436F82E87FDA1
:10513000D1C283E50E94662D0F2D0F2C000C110BA0
:10514000882369F10E94B62CF801EE0FFF1FEE5C78
:10515000FD4F71836083000F111F000F111F980115
:105160002A5E3D4F7901072E000C880B990B0E9497
:105170003EC02AE037ED43E25CE30E949DC0F801A7
:10518000E45CF44F20813181428153810E949DC0B3
:10519000D7016D937D938D939C9313979BC20E942F
:1051A000C03285E40E94933280E38F0D0E949332D7
:1051B000000F111FF801EE5CFD4F608171818EE5DB
:1051C00097E00E94573685E20E9493328AE00E945F
:1051D000933280C280E50E941D2D882309F47AC293
:1051E00060E070E080E50E94F72DF82E6FEF7FEF12
:1051F00083E50E94F72D8C010196039708F06AC29F
:10520000F7FC68C28F2D0E940EB2882339F00E94ED
:10521000BC3286E697E00E949A325CC20E94D53F7B
:1052200060E08F2D0E94727C0F3FBFEF1B0731F0B3
:105230000130110571F000E010E00DC08F2D0E94CB
:105240001A7C31E020E0892B09F030E0032F122F87
:1052500002C001E010E08F2D0E941A7C8017910798
:1052600009F438C20E942333F6CF64E071E083E58D
:105270000E947BA78C0168EE73E080E50E947BA70B
:105280008938E3E19E0710F088E893E1B8010E94B5
:10529000609E20C285E40E94662D811110C080E5C9
:1052A0000E941D2D8823B1F00E94EA2C60931E12EB
:1052B00070931F1280932012909321120BC00E94B2
:1052C000C62C882361F30E94BC3285E797E00E94D8
:1052D0009A3200C289E40E941D2D882381F00E9429
:1052E000EA2C2CEA35EC47E25EE30E949DC0609315
:1052F000221270932312809324129093251284E437
:105300000E941D2D882381F00E94EA2C2CEA35ECA6
:1053100047E25EE30E94C2C5609326127093271293
:1053200080932812909329120E94C03240911E123D
:1053300050911F1260912012709121128FE897E016
:105340000E9402372CEA35EC47E25EE360912212BC
:105350007091231280912412909125120E94C2C54F
:10536000AB01BC018BE897E00E9402372CEA35ECD8
:1053700047E25EE360912612709127128091281215
:10538000909129120E949DC0AB01BC0187E897E073
:105390000E9402378AE00E9493329CC183E40E94FB
:1053A0001D2D882329F00E94B62CCB010E94376264
:1053B0006091FA0A7091FB0A83E997E00E945736E0
:1053C0008AE00E94933286C183E50E941D2D182F2A
:1053D000882371F00E94EA2C0E9434C670931B024D
:1053E00060931A0221E0672B09F020E02093AC03C0
:1053F00080E50E941D2D882359F020911A023091DA
:105400001B02232B11F00E94DA2C8093AC0362C1A3
:10541000111160C10E94C0328091AC03882319F041
:105420006BE672E002C06EE672E087EB97E00E94E6
:10543000A93260911A0270911B0286EA97E00E94DD
:10544000573682EA97E00E949A3244C10E94536420
:1054500041C10E94D53F3EC180912A0B182F127086
:10546000082F0470F82FF170FF2E80FF04C0112365
:1054700011F0011144C00E94C0328AEE97E00E94F0
:105480009A32F11004C088EE97E00E949A3211110E
:1054900004C086EE97E00E949A32011104C084EEA7
:1054A00097E00E949A328CED97E00E949A320111A7
:1054B00003C042E752E002C04DEA52E0111103C0BE
:1054C00024E732E002C02DEA32E0F11003C086E7A3
:1054D00092E002C08DEA92E05F934F933F932F9347
:1054E0009F938F938AEC97E09F938F931F920E94D4
:1054F000974F0FB6F894DEBF0FBECDBFEBC00BE9E0
:105500001FE14DE45BE059A348A3CE0101965C0185
:1055100094EF892E9FE1992E1501F80165917591FF
:1055200085919491A8A1B9A1CD90DD90ED90FD90C9
:10553000B9A3A8A3A70196010E94C7C42B013C01EF
:10554000F101608371838283938320E030E040EA3D
:1055500051EC0E9428C787FD0AC020E030E040EAF5
:1055600051E4C301B2010E9437C018162CF4F401B3
:10557000849118160CF4C5C1D101CD90DD90ED9049
:10558000FD901D0120E030E040EA51ECC701B6017A
:105590000E9428C787FD0AC020E030E040EA51E4BD
:1055A000C701B6010E9437C01816A4F40E94BC328D
:1055B0008EE098E00E949A3261E080E098E00E94DC
:1055C0008D9E0E948A5A68E270E088EC90E00E940A
:1055D000609E80C00C5F1F4FBFEF8B1A9B0AEFE1EC
:1055E000073A1E0709F099CF8DEBE82E88E0F82ED8
:1055F00010E0F50181919191A191B1915F01F701C5
:1056000081939193A193B1937F01812F0E940B6CA1
:105610001F5F133071F70E94DB6D60E080EF97E051
:105620000E948D9E63E972E084E690E00E94609E95
:105630006AEB72E084E690E00E94609E4BC00E949C
:10564000BC328CE298E00E949A3244C00E94DC9BFB
:1056500041C083E50E941D2D882321F00E94DA2C91
:1056600091E089270E948C6E35C08091E10F82FF06
:1056700031C080628093E10F2DC081E080934702AA
:105680001092720383E50E94D74F811123C00E94BC
:105690003FA420C00E94C74F1DC00091DA021091A4
:1056A000DB020023B9F00E94C03284E50E949332ED
:1056B000B8017727072E000C880B990B0E943B3608
:1056C00080E20E9493328CE498E00E949A3202C0F9
:1056D0000E94C74F1092DC020E942FA41DC120E03F
:1056E00030E00C94F41611110C94D2210C94CB21BF
:1056F0000E9423330C94F4210E94B62CAB01BC0110
:105700004093DD0F5093DE0F6093DF0F7093E00F37
:105710008FEC9DE00E941871DDCF61E0802F0E9428
:10572000727C6F2D802F0E94437C6F2D70E0802F44
:105730000E94AE7CF9E0EF12CDCFF0929B03CACF6E
:105740000E94D53F88E50E941D2D882331F05F9A85
:105750008091BC088E7F8093BC0889E50E941D2D36
:10576000882331F08A9A8091BC088D7F8093BC0891
:105770008AE50E941D2D882359F0809108018095AB
:105780008170809306018091BC088B7F8093BC0858
:1057900085E40E941D2D882309F49CCF129A9ACF8C
:1057A00083E50E94662D882391F00E94EA2C609385
:1057B00098087093990880939A0890939B08609337
:1057C000A0087093A1088093A2089093A30880E595
:1057D0000E94662D882351F00E94EA2C609398085D
:1057E0007093990880939A0890939B0882E50E9491
:1057F000662D882351F00E94EA2C60939C087093D8
:105800009D0880939E0890939F0884E50E94662DD2
:10581000882309F45FCF0E94EA2C6093A00870935C
:10582000A1088093A2089093A30854CF82E40E9419
:105830001D2D882351F00E94A62C6093740870934C
:105840007508809376089093770883E50E941D2D54
:10585000882351F00E94EA2C6093A4087093A50855
:105860008093A6089093A70884E50E941D2D8823A5
:1058700051F00E94EA2C6093A8087093A9088093C5
:10588000AA089093AB0888E50E941D2D882351F04B
:105890000E94EA2C609373037093740380937503E2
:1058A0009093760389E50E941D2D882351F00E9474
:1058B000EA2C609377037093780380937903909335
:1058C0007A038AE50E941D2D882351F00E94EA2C5C
:1058D00060937B0370937C0380937D0390937E039E
:1058E00085E40E941D2D882309F4F4CE0E94EA2C41
:1058F00060937F037093800380938103909382036E
:10590000E9CEF7FAF094F7F8F094D101CD92DD9258
:10591000ED92FC92139730CECD5ADF4F0FB6F8942C
:10592000DEBF0FBECDBFDF91CF911F910F91FF90D2
:10593000EF90DF90CF90BF90AF909F908F907F902F
:105940006F905F904F903F902F9008958091030348
:1059500090910403009731F04AE050E060E070E07D
:105960000C9466BE60E070E0CB0108958091030363
:1059700090910403009731F04AE050E060E070E05D
:105980000C9438BD60E070E0CB0108950E94B62C05
:1059900097FD0CC00E94B62C6F3F710581059105E3
:1059A00009F034F40E94B62C862F089580E0089503
:1059B0008FEF08958091030390910403892B39F0B0
:1059C0000E94C62C91E0811103C090E001C091E0DB
:1059D000892F08950F931F93CF9380910303909184
:1059E00004030097F1F0FC018F01C1912C2F2F7D52
:1059F00089F0C53411F0C536B9F7F801108260E0BE
:105A000070E00E94DCBBF801C083562F472F382F6F
:105A1000292F0BC060E070E0CF911F910F910C9483
:105A2000DCBB50E040E030E020E0652F742F832F96
:105A3000922FCF911F910F91089581548A3108F0D0
:105A400042C0E82FF0E04091D5025091D60260911B
:105A5000D7027091D80204C07695679557954795FF
:105A60008A95D2F7842F817040FF2FC0E255FD4FF9
:105A70009081992309F1E0915903F0915A03E90FBC
:105A8000F11D908120ED290F2A3098F09E3211F4FB
:105A900091810CC09D3211F09B3271F4918120ED07
:105AA000290F2A3030F09E3239F4928190539A3087
:105AB00018F42E2F9F2F02C020E090E020930303C4
:105AC00090930403089580E0089508950E941D2D89
:105AD000882341F081E02091030330910403232BBC
