:100000000C9401160C9432160C9432160C94321681
:100010000C9432160C9432160C9432160C94321640
:100020000C9432160C9432160C9432160C94321630
:100030000C9432160C9432160C9432160C94321620
:100040000C9432160C94106F0C9432160C943216D9
:100050000C9432160C9432160C944CB30C942CA0C5
:100060000C9432160C94853C0C9432160C94321677
:100070000C9432160C9432160C9432160C943216E0
:100080000C9432160C9432160C9432160C943216D0
:100090000C9432160C9432160C9432160C943216C0
:1000A0000C9432160C9432160C9432160C943216B0
:1000B0000C9432160C9432160C9432160C943216A0
:1000C0000C9432160C9432160C9432160C94321690
:1000D0000C9432160C9432160C9432160C94321680
:1000E0000C94321615794779497958795D791379E5
:1000F00068799FAFA2AF91AF95AF9BAFD9AFA6AFD5
:10010000AAAFB0AFB4AFB8AFBEAFC2AFC6AFD9AF92
:10011000CCAFD0AFD4AF72B277B27CB286B290B26D
:1001200009B39AB2A2B2AAB2B4B2BEB2C8B2D7B23E
:10013000E1B209B3EBB2F5B2FFB2084AD73B3BCE0E
:10014000016E84BCBFFDC12F3D6C74319ABD5683D6
:100150003DDA3D00C77F11BED9E4BB4C3E916BAA8E
:10016000AABE000000803F05A84CCDB2D44EB938DD
:1001700036A9020C50B9918688083CA6AAAA2ABEC4
:10018000000000803F000C94CCAF0C9473930C944F
:100190007BA60C94B0AF0C94532E0C9464930C94E7
:1001A00016600C94EBB20C9467BA0C94E1B20C9408
:1001B000BEB20C94DD910C94D99A0C94F8840C94F2
:1001C000D4780C9444400C9449790C9447790C945D
:1001D0007CB20C94BEAF0C94A93D0C94229E0C945E
:1001E00073980C9485A90C9491AF0C94025D0C94B7
:1001F000AF3C0C94C2AF0C9469930C9476930C941E
:100200004E400C94A6AF0C94E6AB0C949BAF0C94B0
:1002100049400C94A69C0C94542E0C94C6AF0C949C
:100220009AB20C945F400C9409B30C9459400C940E
:100230003A5C0C940DC10C949F650C946E930C94D5
:10024000B4B20C9458790C94E1960C94AAAF0C9427
:10025000139A0C949FAF0C94EB980C94E8AB0C940D
:1002600095AF0C9479A60C946B2E0C94238B0C9464
:1002700084910C94D0AF0C94FD780C948C5E0C940B
:100280001D410C94D4AF0C9468790C94A2AF0C94DB
:1002900053400C94DD3C0C94A33D0C94C8B20C94D8
:1002A0005D790C94C75D0C94D9AF0C94A2B20C94F8
:1002B0003F400C9486B20C94AAB20C94B4AF0C9448
:1002C000F99F0C9472B20C9490B20C94068A0C9420
:1002D000515F0C9477B20C94FFB20C94EA790C94B1
:1002E000EBAB0C94F5B20C94D7B20C94C63C0C94C6
:1002F000DB600C94B8AF0C9481950C949C780C94B2
:10030000CF9F0C9415790C9413794E414E494E4968
:100310005459494E46CDCCCC3D0AD7233C17B7D1D2
:100320003877CC2B329595E6241FB14F0A00002078
:10033000410000C84200401C4620BCBE4CCA1B0EF7
:100340005AAEC59D74434F4D4D554E494341544996
:100350004F4E0044525952554E004552524F52533F
:1003600000494E464F004543484F0047322F473320
:100370002062616420706172616D65746572730AD8
:1003800000536C6565702E2E2E00436C69636B20E4
:10039000746F20726573756D652E2E2E004E6F2062
:1003A0006D6F76652E00456E642066696C65206C05
:1003B0006973740A00426567696E2066696C65201E
:1003C0006C6973740A00286E6F2066696C65290079
:1003D0005344207072696E74696E67206279746527
:1003E00020004E6F74205344207072696E74696EE1
:1003F000670A0043757272656E742066696C653AAF
:10040000200046696C652064656C657465643A001B
:1004100044656C6574696F6E206661696C65642CF7
:100420002046696C653A20002569730025696D20B6
:10043000256973002569682025696D202569730089
:10044000256964202569682025696D202569730068
:1004500025697920256964202569682025696D2032
:10046000256973005072696E742074696D653A2055
:1004700000660361035A03530345036F6666004435
:10048000454255473A004B494C4C45442E20004DBF
:100490003131332053006F6B0020573A0045204321
:1004A0006F6F6C696E672E2E2E0045204865617453
:1004B000696E672E2E2E0050533A310A0050533A7F
:1004C000300A003344205072696E746572204F66A2
:1004D000662E002C20002C2000544845524D414CE3
:1004E0005F50524F54454354494F4E004155544F6D
:1004F0005245504F52545F53445F535441545553E7
:1005000000454D455247454E43595F504152534572
:100510005200434153455F4C494748545F4252495A
:100520004748544E45535300544F47474C455F4C42
:10053000494748545300534F4654574152455F5022
:100540004F574552004255494C445F504552434530
:100550004E54004C4556454C494E475F444154412A
:10056000005A5F50524F4245004155544F4C45563A
:10057000454C005052494E545F4A4F420050524F32
:100580004752455353004155544F5245504F5254D2
:100590005F54454D5000564F4C554D4554524943BC
:1005A00000454550524F4D0053455249414C5F580C
:1005B0004F4E5F584F4646004649524D57415245AF
:1005C0005F4E414D453A4D61726C696E20312E315E
:1005D0002E3920284769746875622920534F555277
:1005E00043455F434F44455F55524C3A68747470BD
:1005F000733A2F2F6769746875622E636F6D2F4D84
:1006000061726C696E4669726D776172652F4D61BA
:10061000726C696E2050524F544F434F4C5F564599
:100620005253494F4E3A312E30204D414348494EA6
:10063000455F545950453A3344205072696E746591
:10064000722045585452554445525F434F554E54BD
:100650003A3120555549443A6365646532613266E2
:100660002D343161322D343734382D396231322D09
:100670006335356336326633363766660A002F2FA8
:1006800020004D31343520533C696E6465783E203E
:100690006F7574206F662072616E67652028302D3B
:1006A00031290A00205400205200416363656C65C3
:1006B000726174696F6E3A205000205A0020590010
:1006C000580020204D61783A2000205A002059001F
:1006D000580020204D696E3A20004F6E20004F6672
:1006E0006600536F667420656E6473746F70733A3E
:1006F000200020466C6F773A200000013637260331
:10070000FFFFFF353C3D380EFFFFFF312E303E121C
:10071000FFFFFFFF28FF0C0809FFFFFF1A1C18FF4F
:10072000FF2A08440AFF436C636420636F6E74728F
:100730006173742076616C75653A200020643A001C
:1007400020693A0020703A00496E76616C69642035
:1007500065787472756465720A0043290A006162E3
:100760006C656420286D696E2074656D702000438F
:100770006F6C64206578747275646573206172654E
:1007800020004E6F2063617365206C696768740A8E
:1007900000454550524F4D2064697361626C656439
:1007A0000A004163746976652045787472756465E2
:1007B000723A2000496E76616C69642065787472C3
:1007C000756465720A004B494C4C45442E20005319
:1007D000544F505045442E20005072696E7465721B
:1007E0002073746F707065642064756520746F2069
:1007F0006572726F72732E20466978207468652066
:100800006572726F7220616E6420757365204D3958
:10081000393920746F20726573746172742E2028C8
:1008200054656D70657261747572652069732072AC
:10083000657365742E205365742069742061667435
:1008400065722072657374617274696E67290A003B
:100850004E6F20436865636B73756D2077697468AC
:10086000206C696E65206E756D6265722C204C611E
:100870007374204C696E653A20004E6F20436865A2
:10088000636B73756D2077697468206C696E652081
:100890006E756D6265722C204C617374204C696EAC
:1008A000653A2000636865636B73756D206D6973CD
:1008B0006D617463682C204C617374204C696E65A3
:1008C0003A20004C696E65204E756D626572206934
:1008D00073206E6F74204C617374204C696E6520B8
:1008E0004E756D6265722B312C204C617374204CF7
:1008F000696E653A20004D313130004D333100537F
:10090000442072656164206572726F720A00446FE0
:100910006E65207072696E74696E672066696C65B9
:100920000A0020496E76616C69642065787472757E
:10093000646572200000000000000000000000005C
:1009400000000048430000484300004843486F6DE2
:10095000696E67206661696C65640050726F7465CA
:10096000637465642050696E0A00205A3A00205969
:100970003A0020436F756E7420583A0020453A00C3
:10098000205A3A0020593A00583A003A0043617020
:100990003A0023646566696E652044454641554CBE
:1009A000545F4B64200023646566696E652044458E
:1009B0004641554C545F4B69200023646566696E5F
:1009C000652044454641554C545F4B7020005049CA
:1009D00044204175746F74756E652066696E697325
:1009E000686564212050757420746865206C61739B
:1009F00074204B702C204B6920616E64204B642066
:100A0000636F6E7374616E74732066726F6D2062B3
:100A1000656C6F7720696E746F20436F6E666967CF
:100A200075726174696F6E2E680A005049442041E6
:100A300075746F74756E65206661696C65642120DC
:100A400074696D656F75740A0045312054484552CC
:100A50004D414C2052554E415741590054686572E2
:100A60006D616C2052756E61776179004531204867
:100A7000656174696E67206661696C6564004865CC
:100A80006174696E67206661696C656400504944F1
:100A9000204175746F74756E65206661696C65645C
:100AA000212054656D706572617475726520746F74
:100AB0006F20686967680A00204B643A2000204B69
:100AC000693A2000204B703A20000A20436C617381
:100AD00073696320504944200A002054753A20006D
:100AE000204B753A2000206D61783A2000206D6916
:100AF0006E3A200020643A200020626961733A2037
:100B000000504944204175746F74756E65206661AC
:100B1000696C656421204261642065787472756433
:100B20006572206E756D6265720A005049442041FD
:100B300075746F74756E652073746172740A004801
:100B40006F6D652025732573257320666972737434
:100B5000002066697273740A005A005900580048F0
:100B60006F6D6520004F66667365747320617070E9
:100B70006C696564004572723A20546F6F2066613B
:100B8000722100546F6F206661722066726F6D2053
:100B90007265666572656E636520706F696E740A52
:100BA000004D6F766520302E316D6D004D6F76658E
:100BB00020316D6D004D6F76652031306D6D004DCB
:100BC0006F76652061786973004578747275646525
:100BD00072004D6F7665205A004D6F766520590082
:100BE0004D6F7665205800457874727564657200A3
:100BF0004D6F7665205A004D6F76652059004D6F18
:100C00007665205800507265706172650052657398
:100C1000746F7265206661696C73616665004C4330
:100C20004420636F6E7472617374004C434420639C
:100C30006F6E74726173740046696C616D656E7479
:100C4000004D6F74696F6E0054656D7065726174EC
:100C5000757265004D61696E0050726568656174FA
:100C60002041425320636F6E660050726568656173
:100C70007420504C4120636F6E66005049442D44EF
:100C8000005049442D44005049442D4900504944E6
:100C90002D49005049442D50005049442D5000200A
:100CA00008204661637400200820466163740020B8
:100CB00008204D6178002008204D61780020082030
:100CC0004D6178002008204D696E002008204D6994
:100CD0006E002008204D696E004F6666004F6E2042
:100CE000004175746F74656D700046616E2073709D
:100CF0006565640046616E207370656564004E6FC3
:100D00007A7A6C65004E6F7A7A6C6500436F6E7408
:100D1000726F6C004E6F7A7A6C65004E6F7A7A6CE7
:100D2000650046616E2073706565640046616E20E3
:100D300073706565640054656D7065726174757279
:100D400065004D3234004D323320257300556E6BF3
:100D50006E6F776E20636F6D6D616E643A20220056
:100D600020746F6F206C6F6E672065787472757376
:100D7000696F6E2070726576656E7465640A002016
:100D8000636F6C6420657874727573696F6E207020
:100D9000726576656E7465640A006F6B0020746F0F
:100DA0006F206C6F6E6720657874727573696F6EF3
:100DB0002070726576656E7465640A0020636F6CDE
:100DC0006420657874727573696F6E2070726576D1
:100DD000656E7465640A00627573793A2070617596
:100DE00073656420666F7220696E7075740A0062A4
:100DF0007573793A2070617573656420666F72202F
:100E0000757365720A00627573793A2070726F6348
:100E1000657373696E670A004B494C4C45442E203C
:100E2000004B494C4C2063617573656420627920E6
:100E30004B494C4C20627574746F6E2F70696E0A4A
:100E4000004B494C4C45442E20004B494C4C2063F0
:100E5000617573656420627920746F6F206D7563AE
:100E60006820696E6163746976652074696D6520B8
:100E70002D2063757272656E7420636F6D6D616E87
:100E8000643A2000506C6561736520726573657407
:100E9000005052494E5445522048414C544544005C
:100EA0005072696E7465722068616C7465642E207E
:100EB0006B696C6C28292063616C6C6564210A0085
:100EC000656E7175657565696E67202200000000AA
:100ED0000000000000000000000000484200004840
:100EE0004200008040000000005761726E696E672A
:100EF0003A20486F6D696E672042756D70204469B5
:100F00007669736F72203C20310A000202040000EF
:100F1000A0400000A0400000004000004843000046
:100F2000484300004843FFFFFF436172642072653D
:100F30006D6F766564004361726420696E736572DB
:100F40007465640048617264636F6465642044651D
:100F50006661756C742053657474696E6773204C98
:100F60006F616465640A00B80B0000B80B00006490
:100F70000000001027000000009643000096430088
:100F800000A0400000C8410000A0420000A04200B4
:100F9000007A450000FA4320286D6D290020204D7D
:100FA0003235302043004C434420436F6E747261ED
:100FB00073743A0A0020440020490020204D333049
:100FC000312050005049442073657474696E677312
:100FD0003A0A0020460020420020480020204D31DF
:100FE00034352053004D6174657269616C20686509
:100FF0006174757020706172616D65746572733AA9
:101000000A00205A0020590020204D323036205846
:1010100000486F6D65206F66667365743A0A00203C
:101020004500205A00205900205800205400205329
:101030000020204D32303520510020453C6D617834
:101040005F655F6A65726B3E0020583C6D61785F3A
:10105000785F6A65726B3E20593C6D61785F795F9D
:101060006A65726B3E205A3C6D61785F7A5F6A6593
:10107000726B3E00416476616E6365643A20513C58
:101080006D696E5F7365676D656E745F74696D65BC
:101090005F75733E20533C6D696E5F666565647273
:1010A0006174653E20543C6D696E5F747261766553
:1010B0006C5F66656564726174653E002054002053
:1010C000520020204D323034205000416363656C63
:1010D00065726174696F6E2028756E6974732F7301
:1010E00032293A20503C7072696E745F61636365A7
:1010F0006C3E20523C726574726163745F6163631D
:10110000656C3E20543C74726176656C5F6163630C
:10111000656C3E0A00204500205A0020590020201E
:101120004D3230312058004D6178696D756D204128
:101130006363656C65726174696F6E2028756E6992
:1011400074732F7332293A0A00204500205A002078
:10115000590020204D3230332058004D6178696DA0
:10116000756D206665656472617465732028756E9F
:101170006974732F73293A0A00204500205A002011
:10118000590020204D393220580053746570732067
:1011900070657220756E69743A0A0020204D3230F5
:1011A000302044300A0020204D32303020440020CE
:1011B00044697361626C65640A0046696C616D65BF
:1011C0006E742073657474696E67733A0020204DE5
:1011D0003134392043203B20556E69747320696E89
:1011E0002043656C736975730A00202047323120F3
:1011F0002020203B00545249474745524544006F48
:1012000070656E003A20007A5F6D696E00795F6DDF
:10121000696E00785F6D696E005265706F727469F7
:101220006E6720656E6473746F702073746174757B
:10123000730A0024F4D43050C38E20C2A240178217
:101240008B7011127A910D816CD90AA861E108C7DF
:10125000586607615143061E4B5D05C145A7041A38
:10126000411104093D9803713931034036DB0265B1
:10127000339102D4305402802E1D02632CEE01758E
:101280002AC501B028A001102781018F2564012BF8
:10129000244B01E0223401AC211F018D200D01807F
:1012A0001FFC00841EED00971DDF00B81CD200E675
:1012B0001BC600201BBC00641AB200B219A8000AA9
:1012C00019A0006A189900D117910040178B00B53A
:1012D00016840031167E00B31579003A157300C7E5
:1012E000146F0058146A00EE13660088136300251B
:1012F000135E00C7125B006C12570015125400C138
:1013000011510070114F0021114B00D61049008D72
:101310001047004610440002104200C00F400080F9
:101320000F3E00420F3C00060F3B00CB0E380093EF
:101330000E37005C0E3500270E3400F30D3200C16D
:101340000D3100900D3000600D2E00320D2D000586
:101350000D2C00D90C2B00AE0C2900850C29005C4B
:101360000C2700350C27000E0C2600E80B2400C4C7
:101370000B2400A00B23007D0B23005A0B21003906
:101380000B2100180B2000F80A1F00D90A1E00BB11
:101390000A1E009D0A1D00800A1D00630A1C0047EA
:1013A0000A1B002C0A1B00110A1A00F7091A00DD9B
:1013B000091900C4091900AB091900920917007B2B
:1013C000091800630917004C091600360916002099
:1013D0000916000A091500F5081500E0081400CCEC
:1013E000081400B8081400A4081400900813007D25
:1013F0000812006B08130058081200460812003447
:10140000081100230811001208110001081100F052
:10141000071000E0071000D0071000C0071000B050
:10142000070F00A107100091070E0083070F00743B
:10143000070F0065070E0057070E0049070E003B17
:10144000070D002E070E0020070D0013070D0006E4
:10145000070D00F9060C00ED060D00E0060C00D4A7
:10146000060C00C8060C00BC060C00B0060C00A45C
:10147000060B0099060C008D060B0082060B007708
:10148000060B006C060B0061060A0057060B004CA9
:10149000060A0042060A0038060A002E060A002440
:1014A000060A001A060A001006090007060A00FDCF
:1014B000050900F4050900EB050900E2050900D95A
:1014C000050900D0050900C7050900BE050900B5DA
:1014D000050800AD050800A50509009C0508009455
:1014E0000508008C050800840508007C05080074C8
:1014F0000508006C050700650508005D0507005636
:101500000508004E0507004705070040050800389C
:10151000050700310507002A050700230507001C01
:10152000050600160507000F05070008050600025E
:10153000050700FB040600F5040700EE040600E8BA
:10154000040600E2040700DB040600D5040600CF11
:10155000040600C9040600C3040600BD040600B763
:10156000040600B1040500AC040600A6040600A0B1
:101570000405009B04060095040500900406008AFB
:1015800004050085040500800406007A0405007542
:10159000040500700405006B040500660405006185
:1015A0000405005C04050057040500520405004DC5
:1015B00004050048040500430405003E0404003A05
:1015C00004050035040500300404002C0405002740
:1015D000040400230405001E0404001A0404001679
:1015E000040500110404000D0404000904050004AE
:1015F00004040000040400FC030400F8030400F4E5
:10160000030400F0030400EC030400E8030400E416
:10161000030400E0030400DC030400D8030400D446
:10162000030400D0030400CC030400C8030300C576
:1016300003030024F404D9201BC40C5C0E9804C4DA
:10164000095F0265077101F405F900FB04B3004866
:10165000048700C10369005803550003034500BE19
:10166000023A008402310053022A002902250004B4
:10167000022000E4011C00C8011900AF0117009806
:101680000114008401130071011000610110005168
:10169000010E0043010D0036010B002B010B002051
:1016A000010B00150109000C01090003010800FBF2
:1016B000000800F3000800EB000700E4000600DE6D
:1016C000000600D8000600D2000600CC000500C7C6
:1016D000000500C2000500BD000400B9000400B50B
:1016E000000400B1000400AD000400A9000400A53E
:1016F000000300A20003009F0004009B0003009869
:101700000003009500020093000300900003008D89
:101710000002008B000300880002008600020084A3
:10172000000300810002007F0002007D0002007BB8
:1017300000020079000200770001007600020074C8
:1017400000020072000100710002006F0002006DD3
:101750000001006C0002006A0001006900020067DD
:1017600000010066000100650001006400020062E3
:1017700000010061000100600001005F0002005DE7
:101780000001005C0001005B0001005A00010059EB
:1017900000010058000100570001005600010055EB
:1017A00000010054000100530000005300010052EA
:1017B00000010051000100500001004F0001004EE7
:1017C0000000004E0001004D0001004C0001004BE4
:1017D0000000004B0001004A0001004900010048E0
:1017E00000000048000100470001004600000046DC
:1017F00000010045000000450001004400010043D5
:1018000000000043000100420000004200010041CE
:1018100000000041000100400001003F0000003FC7
:101820000001003E0000003E0001003D0000003DC0
:101830000001003C0000003C0000003C0001003BB7
:101840000000003B0001003A0000003A00010039AE
:1018500000000039000100380000003800000038A6
:10186000000100370000003700010036000000369C
:101870000000003600010035000000350000003592
:101880000001003400000034000000340001003387
:10189000000000330000003300010032000000327D
:1018A0000000003200010031000000310000003172
:1018B0000001003000000030000000300001002F67
:1018C0000000002F0000002F0000002F0001002E5C
:1018D0000000002E0000002E0001002D0000002D51
:1018E0000000002D0000002D0001002C0000002C45
:1018F0000000002C0000002C0001002B0000002B39
:101900000000002B0000002B0001002A0000002A2C
:101910000000002A0000002A000100290000002920
:101920000000002900000029000000290001002813
:101930000000002800000028000000280000002807
:1019400000010027000000270000002700000027FA
:1019500000000027000100260000002600000026ED
:1019600000000026000000260001002500000025E0
:1019700000000025000000250000002500000025D3
:1019800000010024000000240000002400000024C6
:1019900000000024000100230000002300000023B9
:1019A00000000023000000230000002300000023AB
:1019B000000100220000002200000022000000229E
:1019C0000000002200000022000100210000002190
:1019D0000000002100000021000000210000002183
:1019E0000000002100010020000000200000002075
:1019F0000000002000000020000000200000002067
:101A0000000000200001001F0000001F0000001F58
:101A10000000001F0000001F0000001F0000001F4A
:101A20000001001E0000001E0000001E0000001E3D
:101A3000000000043700001E290000511B00005860
:101A400010000010090000CC0400007802000041E2
:101A500001000000060900FE0701920321207FFF1C
:101A600007FF07FF0000000600000107070602004D
:101A700080808080800080030202060105A0A0050E
:101A800007070600005050F850F8505005070706A9
:101A900000002078A07028F020050707060000C08D
:101AA000C810204098180507070600006090A04065
:101AB000A89068020303060104C0408003070706DC
:101AC000010020408080804020030707060100803D
:101AD00040202020408005050506000120A870A8B0
:101AE000200505050600012020F82020020303063A
:101AF00002FFC04080050101060003F80202020651
:101B00000200C0C005050506000108102040800540
:101B10000707060000708888888888700307070612
:101B2000010040C040404040E0050707060000704B
:101B30008808708080F8050707060000F81020105C
:101B40000808F005070706000010305090F8101044
:101B5000050707060000F880F008088870050707E9
:101B6000060000708080F088887005070706000076
:101B7000F80810202020200507070600007088883C
:101B80007088887005070706000070888878080844
:101B900070020505060200C0C000C0C002060606AD
:101BA00002FFC0C000C040800407070600001020EC
:101BB0004080402010050303060002F800F80407E7
:101BC000070601008040201020408005070706001E
:101BD00000708808102000200507070600007088A4
:101BE0000868A8A870050707060000708888F888AC
:101BF0008888050707060000F08888F08888F005C7
:101C00000707060000708880808088700507070637
:101C10000000F08888888888F0050707060000F82B
:101C20008080F08080F8050707060000F88080F0CB
:101C3000808080050707060000708880B88888705B
:101C4000050707060000888888F888888801070744
:101C500006020080808080808080050707060000E3
:101C6000381010101090600507070600008890A03B
:101C7000C0A09088050707060000808080808080D3
:101C8000F805070706000088D8A88888888805070F
:101C9000070600008888C8A89888880507070600F6
:101CA0000070888888888870050707060000F0881B
:101CB00088F080808005070706000070888888A863
:101CC0009068050707060000F08888F0A090880556
:101CD0000707060000788080700808F005070706EF
:101CE0000000F8202020202020050707060000889B
:101CF0008888888888700507070600008888888893
:101D00008850200507070600008888888888A85022
:101D100005070706000088885020508888050707B7
:101D2000060000888888502020200507070600004C
:101D3000F80810204080F8030707060100E08080C3
:101D4000808080E005050506000180402010080322
:101D50000707060100E02020202020E005030306FD
:101D60000004205088050101060000F80202020666
:101D70000205804005050506000070087888780592
:101D800007070600008080B0C88888F005050506B2
:101D9000000070808088700507070600000808684A
:101DA000988888780505050600007088F880700519
:101DB00007070600003048E04040404005060606A0
:101DC00000FF70888878087005070706000080808B
:101DD000B0C88888880107070602008000808080DC
:101DE00080800308080601FF200020202020A0405A
:101DF000040707060000808090A0C0A0900307079A
:101E0000060100C04040404040E0050505060000D6
:101E1000D0A8A8A8A8050505060000B0C88888882D
:101E2000050505060000708888887005060606000E
:101E3000FFF08888F080800506060600FF78888815
:101E4000780808050505060000B0C88080800505F3
:101E50000506000070807008F004070706000040C7
:101E600040E040404030050505060000888888981D
:101E700068050505060000888888502005050506C8
:101E800000008888A8A85005050506000088502095
:101E900050880506060600FF8888887808700505C2
:101EA00005060000F8102040F8030707060100208F
:101EB000404080404020010707060200808080806B
:101EC000808080030707060100804040204040805A
:101ED0000502020600026890000000060000FFE014
:101EE000FFD1A4AFFF32FFD0FFFEFFE0FFD1AC0077
:101EF000AEA5FFD0FFFEFFE0FFD11001FFFEFFD037
:101F0000FFE0FFD1FFCFA3A0C8602CFF322EFF322D
:101F10002FFF3226A68118AFFF64A5FF64FF64A4DB
:101F2000FFD0FFFE7C3C3E5E2B3D3F2F5B5D3B2C9C
:101F30002A225C0070012C0190012701B0012201CE
:101F4000C0011D01F00118011002130130020E0141
:101F50006002090190020401C002FF000003FA00C0
:101F60004003F5008003F000D003EB002004E600FE
:101F70007004E100E004DC004005D700C005D20099
:101F80004006CD00D006C8008007C3003008BE0060
:101F9000F008B900C009B400B00AAF00B00BAA0045
:101FA000D00CA500000EA000500F9B00C0109600A2
:101FB0005012910000148C00C0158700B0178200E9
:101FC000B0197D00D01B7800001E730040206E0009
:101FD00090226900F024640040275F0090295A0095
:101FE000E02B5500102E500020304B0010324600E0
:101FF000E033410090353C00103737007038320034
:10200000A0392D00B03A2800A03B2300603C1E0000
:10201000103D1900903D1400103E0F00703E0A0064
:10202000C03E0500003F0000403FFBFF803FF6FF41
:10203000C03FF1FF202F0020403A0025753A25309F
:10204000327500253032753A2530327500257564B9
:1020500020253032753A253032750020202020208E
:1020600020005A005900202020200058000920009C
:102070000000000000000000000000003FFFF00032
:1020800000000000000000000000003800700000A8
:102090000000000000000000000030FC30000000E4
:1020A00000000000000000000020FC100000000004
:1020B0000000000000000000207810000000000078
:1020C00000000000000000203010000000000000B0
:1020D0000000000000002C00D03FC0000000000005
:1020E00000000000002E31D07FE000000000000062
:1020F000000000002F7BD07FE00000000000000007
:102100000000002F7BD07FE00000000000000000F6
:1021100000002E31D03FC000000000000000000091
:10212000002C00D03FC000000000000000000000B4
:102130002030107FE00000000000000000000020C0
:1021400078107FE00000000000000000000020FC8C
:10215000107FE00000000000000000000030FC30B4
:102160001F80000000000000000000003800700F19
:1021700000000000000000000000003FFFF006002B
:10218000000000000000000000000000000000004F
:102190000000000000000000003FFFF00000000011
:1021A0000000000000000000380070000000000087
:1021B0000000000000000031863000000000000038
:1021C0000000000000002387100000000000000055
:1021D00000000000002787900000000000000000C1
:1021E000000000002F87D000000000000000000069
:1021F0000000002F03D03FC00000000000000000DE
:1022000000002030107FE00000000000000000000F
:10221000002078107FE000000000000000000000B7
:102220002078107FE0000000000000000000002087
:1022300030103FC0000000000000000000002F032D
:10224000D03FC0000000000000000000002F87D039
:102250007FE0000000000000000000002787907F62
:10226000E0000000000000000000002387107FE075
:10227000000000000000000000003186301F8000D8
:102280000000000000000000003800700F00000097
:1022900000000000000000003FFFF006000000000A
:1022A0000000000000000000000000060900FE0021
:1022B0000000000001090008FE00000508080600F3
:1022C0000040F0C88888987810050808060000C00B
:1022D000F88888888888F80505050600012030F808
:1022E00030200508080600002070F820202020E09B
:1022F0000509090600FF2070A8A8B8888870200585
:1023000009090600FFE080C0B0A828302828050988
:10231000090600FFF8A88888888888A8F8050A0AAE
:102320000600FE205050505088A8A8887003030370
:1023300006000340A0403344205072696E746572F9
:102340002052656164792E005072696E74696E67FF
:102350002E2E2E005072696E742070617573656444
:10236000005072696E742061626F7274656400500F
:1023700072696E742066726F6D2053440053746FDF
:1023800070207072696E7400526573756D6520708F
:1023900072696E74004E6F20534420636172640052
:1023A0005061757365207072696E7400436F6E744E
:1023B000726F6C00507265706172650054756E6565
:1023C00000496E666F2073637265656E00466C6FC0
:1023D0007700466C6F770046616E207370656564A8
:1023E0000046616E207370656564004E6F7A7A6C8A
:1023F00065004E6F7A7A6C650053706565640053B2
:1024000070656564004D61696E004D343238004D71
:1024100038300053776974636820706F7765722075
:102420006F6666004D3831005072656865617420D2
:10243000414253005072656865617420504C410000
:10244000436F6F6C646F776E0053776974636820B5
:10245000706F776572206F6E0044697361626C659E
:10246000207374657070657273004D383400536565
:102470007420686F6D65206F6666736574730041C4
:1024800075746F20686F6D6500473238004D6F7648
:10249000652061786973004D61696E004D6F7665E6
:1024A0002058004D6F76652059004D6F7665205A93
:1024B0000045787472756465720056652D6A6572A0
:1024C0006B0056652D6A65726B0056652D6A6572E4
:1024D0006B00567A2D6A65726B00567A2D6A6572AA
:1024E0006B0056792D6A65726B0056792D6A65729C
:1024F0006B0056792D6A65726B0056782D6A65728D
:102500006B0056782D6A65726B0056782D6A65727D
:102510006B004D6F74696F6E004573746570732F37
:102520006D6D004573746570732F6D6D005A737413
:102530006570732F6D6D005A73746570732F6D6DB8
:10254000005973746570732F6D6D005973746570E5
:10255000732F6D6D005873746570732F6D6D005817
:1025600073746570732F6D6D004D6F74696F6E00BD
:1025700053746570732F6D6D004A65726B00416313
:1025800063656C65726174696F6E0056656C6F632C
:1025900069747900436F6E74726F6C0046696C2EBB
:1025A000204469612E0046696C2E204469612E002A
:1025B0004F6666004F6E20004520696E206D6D33BA
:1025C00000436F6E74726F6C0043616E6E6F7420A7
:1025D000656E746572207375626469723A200002D8
:1025E0002E2E004D61696E001FFFFFFFFFFFFF6091
:1025F0000000000001FF400000000000FF8000001C
:102600000000007F83CF00000C303F87FF80000C6C
:10261000301F867980000C000F8C30C7838C30E728
:102620008C30CFC7CC31F38C30DCECEC33B98C3050
:10263000D86C6C33198C30D06C0C33198C30D86C4E
:102640000C33198C30DC6C0E3B198C30CF7C079F1F
:10265000198C30C77C038F19400000000000026015
:102660000000000000061FFFFFFFFFFFF8202050C2
:102670006C616E6E657242756666657242797465EC
:10268000733A20002046726565204D656D6F727942
:102690003A2000436F6D70696C65643A204465634D
:1026A00020313620323031380A00207C20417574C8
:1026B000686F723A20286E6F6E652C2064656661C3
:1026C000756C7420636F6E666967290A0032303159
:1026D000382D30382D303100204C61737420557006
:1026E00064617465643A2000312E312E390A004D40
:1026F00061726C696E0020536F6674776172652039
:1027000052657365740A00205761746368646F676B
:102710002052657365740A002042726F776E206FD5
:1027200075742052657365740A002045787465726B
:102730006E616C2052657365740A00506F77657224
:1027400055700A0073746172740A006175746F25A4
:10275000692E67006572726F722077726974696E94
:102760006720746F2066696C650A00456E64737437
:102770006F70732025632025632025632025630067
:10278000205A3A0020593A0020583A00656E647386
:10279000746F7073206869743A2000446F6E65200E
:1027A000736176696E672066696C652E0A004D322A
:1027B000390053442063617264206F6B0A006F70AC
:1027C000656E526F6F74206661696C65640A00768D
:1027D0006F6C756D652E696E6974206661696C65D4
:1027E000640A00534420696E6974206661696C0A4A
:1027F0000057726974696E6720746F2066696C6532
:102800003A20006F70656E206661696C65642C20EB
:1028100046696C653A20006F70656E206661696C70
:1028200065642C2046696C653A200046696C652019
:1028300073656C65637465640A002053697A653A50
:10284000200046696C65206F70656E65643A2000F3
:102850002066696C653A2000646F696E6700667275
:10286000657368004E6F772000454E4420535542F3
:10287000524F5554494E450A002220706F73002272
:1028800020706172656E743A2200535542524F5562
:1028900054494E452043414C4C2074617267657425
:1028A0003A22004B494C4C45442E20007472796901
:1028B0006E6720746F2063616C6C207375622D6786
:1028C000636F64652066696C65732077697468203E
:1028D000746F6F206D616E79206C6576656C732EF8
:1028E000204D4158206C6576656C2069733A00452F
:1028F00072726F723A005654726176206D696E0082
:102900005654726176206D696E005654726176205D
:102910006D696E00566D696E00566D696E00566D7C
:10292000696E00566D6178204500566D61782045CE
:1029300000566D6178204500566D6178205A00562A
:102940006D6178205A00566D6178205A00566D618D
:1029500078205900566D6178205900566D617820B5
:102960005900566D6178205800566D6178205800E6
:10297000566D61782058004D6F74696F6E00416D1F
:102980006178204500416D6178204500416D617896
:10299000205A00416D6178205A00416D61782059BC
:1029A00000416D6178205900416D617820580041E7
:1029B0006D6178205800412D74726176656C00411C
:1029C0002D74726176656C00412D7265747261635D
:1029D0007400412D726574726163740041636365B4
:1029E0006C00416363656C004D6F74696F6E006FBE
:1029F00070656E206661696C65642C2046696C6543
:102A00003A200043616E6E6F74206F70656E2073A4
:102A1000756264697220006563686F3A0000002186
:102A200000240027002A002D00300033000101009F
:102A300000040107010A0100002200250028002BE4
:102A4000002E003100340002010000050108010BD6
:102A500001000020002300260029002C002F003256
:102A60000000010000030106010901050505050735
:102A70000508080808020202020A0A0808040404F9
:102A80000401010101010101010303030303030325
:102A900003040707070C0C0C0C0C0C0C0C020202B4
:102AA0000206060606060606060B0B0B0B0B0B0BA7
:102AB0000B01021020200808102040102040800246
:102AC0000102010804020101020408102040808074
:102AD00040201008040201800402018040201008F8
:102AE00004020108040201010204081020408001D0
:102AF0000204081020408000000A0B02090C0D0E91
:102B000008070304010000000000000000000000AE
:102B100000000000000000000000000000000000B5
:102B20000000001211100000000000000000000072
:102B3000000000000000000000000000006265646A
:102B40000A002C2073797374656D2073746F707034
:102B5000656421204865617465725F49443A2000CC
:102B6000453120544845524D414C2052554E415715
:102B7000415900546865726D616C2052756E6177C1
:102B800061790045312048656174696E672066612E
:102B9000696C65640048656174696E672066616987
:102BA0006C6564004531204572723A204D4158549D
:102BB000454D50004D415854454D50207472696741
:102BC0006765726564004531204572723A204D494F
:102BD0004E54454D50004D494E54454D5020747251
:102BE00069676765726564004D3834205820592044
:102BF0005A204500526573656E643A2000000DC18D
:102C000067BA11241FBECFEFD1E2DEBFCDBF00E017
:102C10000CBF12E0A0E0B2E0E4EEFFE901E00BBF80
:102C200002C007900D92AC3CB107D9F722E1ACECA1
:102C3000B2E001C01D92AF3EB207E1F715E1C0E07E
:102C4000D6E100E006C021970109802FFE010E9415
:102C50003ECCCF3FD10780E00807A9F70E945FBCB8
:102C60000C94E0CF0C9400002F923F924F925F9211
:102C70006F927F928F929F92AF92BF92CF92DF928C
:102C8000EF92FF920F931F93CF93DF93CDB7DEB7F1
:102C9000CF55D1090FB6F894DEBF0FBECDBF11E0FE
:102CA0001093C208809166128D3409F472C684357F
:102CB00011F40C94FA2B873411F00C943E2C2090D4
:102CC00064123090651224E02216310409F449C5DB
:102CD0004CF437FC5AC680914E0242E0241631046F
:102CE0007CF529C05AE52516310409F48FC534F462
:102CF0009CE12916310409F472C547C6ABE52A16D2
:102D0000310409F487C5BCE52B16310409F03DC632
:102D100032E5232E32E0332E40EDE42E48E0F42E4F
:102D2000ADEDB9E0BDA7ACA758EAC52E59E0D52E48
:102D300000E010E0AFC581110C94452C0C94402CA0
:102D4000882311F40C94402C0E94513182E50E949A
:102D50004431882309F436C10E94C8304B015C011C
:102D600020E030E0A9010E94CAC7882309F456C1B7
:102D70002091DD093091DE094091DF095091E00991
:102D80002CA73DA74EA75FA78091E1099091E2098A
:102D9000A091E309B091E40988AB99ABAAABBBABB6
:102DA0002091DC083091DD084091DE085091DF0869
:102DB0002CAF3DAF4EAF5FAF8091E0089091E1083E
:102DC000A091E208B091E30888AF99AFAAAFBBAF7A
:102DD0006CA57DA58EA59FA50E94CAC781110DC0B7
:102DE00028AD39AD4AAD5BAD68A979A98AA99BA97F
:102DF0000E94CAC7882309F411C111E092E0291684
:102E0000310409F010E020E030E0A901C501B4016F
:102E10000E94CAC7881F8827881F181759F020E00A
:102E200030E040E85FEB28962CAF3DAF4EAF5FAF90
:102E300028970AC080E090E0A0E8BFE328968CAF16
:102E40009DAFAEAFBFAF28972CA53DA54EA55FA502
:102E50006CAD7DAD8EAD9FAD0E944ECC24966CAF17
:102E60007DAF8EAF9FAF249728A939A94AA95BA946
:102E700068AD79AD8AAD9BAD0E944ECC6B017C01F3
:102E800024962CAD3DAD4EAD5FAD2497CA01B9017E
:102E90000E9430C82B013C01A7019601C701B60171
:102EA0000E9430C89B01AC01C301B2010E944FCC0B
:102EB0000E94FDCE6CAB7DAB8EAB9FAB20E030E0D3
:102EC00040E05FE30E9430C82B013C01A501940162
:102ED000C501B4010E9430C84B015C01A3019201FD
:102EE000C301B2010E9430C89B01AC01C501B4010D
:102EF0000E944ECC0E94FDCE28962CAD3DAD4EAD2D
:102F00005FAD28970E9430C84B015C01C701B60134
:102F100090582CA93DA94EA95FA90E9449CDA501B1
:102F200094010E9430C86B017C012CAD3DAD4EADCB
:102F30005FAD6CA57DA58EA59FA50E944FCC20E01E
:102F400030E040E05FE30E9430C89B01AC01C70164
:102F5000B6010E944FCC2CA53DA54EA55FA50E94B1
:102F60004ECC6B017C0128AD39AD4AAD5BAD68A993
:102F700079A98AA99BA90E944FCC20E030E040E0CB
:102F80005FE30E9430C82B013C012CA93DA94EA94A
:102F90005FA924966CAD7DAD8EAD9FAD24970E9448
:102FA00049CDA50194010E9430C89B01AC01C30129
:102FB000B2010E944FCC28A939A94AA95BA90E9455
:102FC0004ECC14C089E40E944431882329F00E9429
:102FD000C8306B017C0103C0C12CD12C76018AE47E
:102FE0000E9444318823E9F00E94C8306CAF7DAF65
:102FF0008EAF9FAF20E030E0A901C701B6010E946B
:10300000CAC781111BC020E030E0A9016CAD7DADC5
:103010008EAD9FAD0E94CAC7811110C0EFEEF8E2DD
:103020008CC320E030E0A901C701B6010E94CAC7E5
:103030008823A1F31CAE1DAE1EAE1FAEA7019601E4
:1030400050582CA73DA74EA75FA78CAD9DADAEAD48
:10305000BFADB05888AB99ABAAABBBABCA01B90145
:103060000E9430C84B015C0128A939A94AA95BA973
:10307000CA01B9010E9430C89B01AC01C501B4016D
:103080000E944FCC0E94FDCE64966CAF7DAF8EAF98
:103090009FAF64972091DD093091DE094091DF09EF
:1030A0005091E00928AF39AF4AAF5BAFA701960155
:1030B00068AD79AD8AAD9BAD0E944FCC28966CAFC0
:1030C0007DAF8EAF9FAF28978091E1099091E20983
:1030D000A091E309B091E40924968CAF9DAFAEAF07
:1030E000BFAF24972CAD3DAD4EAD5FADBC01CD0162
:1030F0000E944FCC68966CAF7DAF8EAF9FAF689744
:103100002091DC083091DD084091DE085091DF0805
:103110002C962CAF3DAF4EAF5FAF2C9728962CADC1
:103120003DAD4EAD5FAD28972C966CAD7DAD8EADAF
:103130009FAD2C970E944ECC6B017C018091E008E2
:103140009091E108A091E208B091E30860968CAFFD
:103150009DAFAEAFBFAF609768962CAD3DAD4EADA5
:103160005FAD6897BC01CD010E944ECC4B015C0164
:103170002091E5093091E6094091E7095091E8096D
:103180006C962CAF3DAF4EAF5FAF6C976091E4088B
:103190007091E5088091E6089091E7080E944ECC76
:1031A0006CAB7DAB8EAB9FABA70196016CA57DA5EB
:1031B0008EA59FA50E9430C82B013C01A50194015A
:1031C00068A979A98AA99BA90E9430C89B01AC0172
:1031D000C301B2010E944FCC2B013C01A501940117
:1031E0006CA57DA58EA59FA50E9430C84B015C01F2
:1031F000A701960168A979A98AA99BA90E9430C84C
:103200009B01AC01C501B4010E944ECCA301920107
:103210000E94CECC6B017C0120E030E0A9010E942D
:10322000CAC787FF0AC02BED3FE049EC50E4C70155
:10323000B6010E944FCC6B017C0132E023163104B1
:1032400051F42BED3FE049EC50E4C701B6010E9478
:103250004ECC6B017C0120E030E0A901C701B60132
:103260000E94CAC7811126C02C962CAD3DAD4EAD33
:103270005FAD2C9768AD79AD8AAD9BAD0E94CAC792
:10328000811118C060962CAD3DAD4EAD5FAD60971D
:1032900024966CAD7DAD8EAD9FAD24970E94CAC7BC
:1032A000811108C0EBEDCE2EEFE0DE2EE9ECEE2E24
:1032B000E0E4FE2EA701960164966CAD7DAD8EAD67
:1032C0009FAD64970E9430C84B015C0120E030E064
:1032D000A9016CA97DA98EA99FA90E94CAC78823AC
:1032E000D9F0A5019401C501B4010E9430C84B0179
:1032F0005C012CA93DA94EA95FA9CA01B9010E9490
:1033000030C89B01AC01C501B4010E944FCC0E94A2
:10331000FDCE4B015C010DC020E030E0A901C501EC
:10332000B4010E94AFCE87FF04C0B7FAB094B7F8DB
:10333000B0942FE632E143E85AE3C501B4010E949C
:10334000CAC787FF02C00C94402CC501B4010E947B
:10335000F1CD0E94C2CD22967FAF6EAF2297672B30
:1033600031F481E090E022969FAF8EAF229740909B
:10337000E9095090EA096090EB097090EC092296F7
:10338000AEADBFAD2297BD0180E090E00E94CFC7F7
:103390004B015C019B01AC01C701B6010E9449CD04
:1033A00068AF79AF8AAF9BAFA50194016CA97DA9E5
:1033B0008EA99FA90E9449CD64966CAF7DAF8EAF58
:1033C0009FAF6497A30192016091E8087091E908AA
:1033D0008091EA089091EB080E944ECCA5019401DF
:1033E0000E9449CDA0966CAF7DAF8EAF9FAFA097E6
:1033F00028AD39AD4AAD5BADCA01B9010E9430C8F4
:1034000020E030E040E05FE30E9430C89B01AC0167
:1034100060E070E080E89FE30E944ECC2C966CAF99
:103420007DAF8EAF9FAF2C976C962CAD3DAD4EAD62
:103430005FAD6C9729873A874B875C874D865E86A0
:103440006F86788A6091290270912A02072E000CFB
:10345000880B990B0E94D1C720911302309114025E
:1034600040911502509116020E9430C82AE037EDB3
:1034700043E25CE30E9430C868A779A78AA79BA7AC
:103480000E9420A09B01AC0128533F4F4F4F5F4F3C
:1034900060962CAF3DAF4EAF5FAF60974CA45DA47C
:1034A0006EA47FA422242394312C39E13CAB2296D4
:1034B0004EAD5FAD22974215530509F41AC10E9423
:1034C000DAB50E9420A0DC01CB0160962CAD3DADA9
:1034D0004EAD5FAD6097821B930BA40BB50BB7FD90
:1034E00010C00E9420A09B01AC0128533F4F4F4FBA
:1034F0005F4F60962CAF3DAF4EAF5FAF60970E94BD
:10350000F2573CA931503CAB332309F441C028A900
:1035100039A94AA95BA92C966CAD7DAD8EAD9FAD46
:103520002C970E9430C86B017C019201A30168AD09
:1035300079AD8AAD9BAD0E9430C8A70196010E946B
:103540004FCC7B018C019201A3012C966CAD7DAD1B
:103550008EAD9FAD2C970E9430C84B015C0128A90D
:1035600039A94AA95BA968AD79AD8AAD9BAD0E9426
:1035700030C89B01AC01C501B4010E944ECC2B01A7
:103580003C01C701D80188AB99ABAAABBBAB4DC01E
:10359000B10180E090E00E94CFC728AD39AD4AADBF
:1035A0005BAD0E9430C84B015C010E9444CD6B01B1
:1035B0007C01C501B4010E94EFCE4B015C01A70163
:1035C00096016CA57DA58EA59FA50E9430C82B01F4
:1035D0003C012CAD3DAD4EAD5FADC501B4010E94C7
:1035E00030C8A30192010E944FCC2B013C01A501E0
:1035F00094016CA57DA58EA59FA50E9430C84B01A6
:103600005C012CAD3DAD4EAD5FADC701B6010E9472
:1036100030C89B01AC01C501B4010E944ECC68AB1F
:1036200079AB8AAB9BAB49E14CAB9201A3012896E5
:103630006CAD7DAD8EAD9FAD28970E944FCC698358
:103640007A838B839C8328A939A94AA95BA96896A8
:103650006CAD7DAD8EAD9FAD68970E944FCC6D83F4
:103660007E838F83988764962CAD3DAD4EAD5FAD64
:10367000649769857A858B859C850E944FCC698784
:103680007A878B879C87A0962CAD3DAD4EAD5FAD04
:10369000A0976D857E858F8598890E944FCC6D8718
:1036A0007E878F87988B80913702882321F0CE0107
:1036B00001960E94D855E090F60818A219A21AA205
:1036C0001BA2CE0180966C018E01085D1F4F9E01EA
:1036D000235F3F4FAE01475F5F4FBE016B5F7F4F80
:1036E0004F970E947B44882321F09FEF291A390AC3
:1036F000DECEE090F6081CA21DA21EA21FA2DE01D3
:1037000094966D018E01085D1F4F28EE38E044EE5F
:1037100058E060EE78E08CED98E00E947B4480E118
:10372000ECEDF8E0ADEDB9E001900D928A95E1F78E
:103730000C94402C0E94DB31F80184918F010F5FC3
:103740001F4F8111F7CFEBE6F3E084918F010F5FFC
:103750001F4F882311F40C94402C0E94DB31F80198
:10376000F4CF80E50E944431882329F00E94843000
:103770006B017C0103C0C12CD12C760183E50E9432
:103780004431882361F00E94C83020E030E04AE7ED
:1037900054E40E9430C80E94C2CD6B017C010E949B
:1037A00065778091910D811105C060E081E893E01B
:1037B0000E9421620E9420A0C60ED71EE81EF91E9C
:1037C0000E9420A0DC01CB018C199D09AE09BF0924
:1037D000B7FD02C00C94402C0E94F257F1CF8091AB
:1037E000D0098770873011F00C944A2C8FE40E9426
:1037F0004431882319F00E94B83003C08FE40E943E
:10380000FB3081110C94402C0C944A2C1092D00265
:103810000C94402C1093D0020C94402C0E94C83081
:103820002B013C01133049F0D6012D913D914D9172
:103830005C910E944ECC2B013C01ECA5FDA52081A2
:10384000318142815381C301B2010E944ECC4B01B0
:103850005C012DEB37E346E855EB0E94AFCE87FDC8
:1038600021C02DEB37E346E855E3C501B4010E94C2
:10387000CAC71816BCF01F5FF4E0EF0EF11C2CA5B0
:103880003DA52C5F3F4F3DA72CA734E0C30ED11CB4
:10389000143031F1F10181911F010E9444318823DC
:1038A00051F3BCCF133051F44092E9095092EA0928
:1038B0006092EB097092EC0901E0DDCFA501940163
:1038C000D7016D917D918D919C910E944FCCF70114
:1038D0006083718382839383812F0E94E42ECBCFF8
:1038E000002309F44EC020E030E0A9016091E9090D
:1038F0007091EA098091EB099091EC090E944FCCFC
:103900002091AB083091AC084091AD085091AE08C1
:103910000E9430C80E94BCCE60931D0E70931E0E94
:1039200080931F0E9093200E9091FB0D8091FC0DC3
:10393000981719F00E94077724C00E94657780913C
:103940006F00982F927081FF05C080916F008D7F6E
:1039500080936F0040911D0E50911E0E60911F0EBE
:103960007091200E4093031250930412609305123D
:1039700070930612992329F080916F0082608093E2
:103980006F000E94BA390C94402C0E9474520C941F
:10399000402C80916412909165128037910509F452
:1039A000A8C50CF0C9C08A32910509F4CDC40CF049
:1039B00060C08831910509F472C2D4F58231910555
:1039C00011F40C942225DCF497FF02C00C94F72B21
:1039D000823091050CF493C1419711F00C94F72BB0
:1039E00060E08DE993E00E9421625F988A9880915F
:1039F000080181708093060112980C94402C853147
:103A0000910509F431C23CF4449711F00C94F72B62
:103A1000E5EBF3E0EBC18631910509F429C2479744
:103A200011F00C94F72BE0916212F09163122AC20C
:103A30008C31910509F4E2C264F48A31910509F4EC
:103A400037C20CF043C21092410E0E9456B40C943F
:103A5000402C8E31910509F4DBC214F40C94402CF7
:103A60008F31910509F4BAC3809709F46BC30C94A4
:103A7000F72B8535910511F40C9455254CF58035BF
:103A8000910509F49AC78CF48C34910509F490C41B
:103A90008D34910509F490C48B34910511F00C9488
:103AA000F72B0E9432B40C94402C8235910511F40E
:103AB0000C941B250CF4A7C78335910511F40C94C5
:103AC0001E258435910511F40C9422250C94F72BB6
:103AD0008B36910509F461C7FCF48836910509F429
:103AE0006FC484F48C35910511F00C94F72BB2E57A
:103AF000CB2EB2E0DB2E1FE9E12E18E0F12E10E014
:103B00000C946E258936910509F424C58A369105F1
:103B100009F427C70C94F72B8D36910509F45CC581
:103B20000CF4E3C48E36910509F479C48F369105FF
:103B300009F488C40C94F72B8C3D910511F40C9476
:103B4000BB290CF060C08139910511F40C94EB266F
:103B500074F58537910511F40C94882684F4823726
:103B6000910511F40C94EE250CF4C7C4833791052C
:103B700011F00C94F72BE8EBF5E00C942D26873729
:103B8000910511F40C94E22614F40C9495268837D0
:103B9000910511F40C94E5268937910511F00C94E8
:103BA000F72B1092CF091092CE090C94402C8B3C2D
:103BB000910511F40C94BC2784F4883C910511F410
:103BC0000C944A27893C910511F40C949A278B395F
:103BD000910511F00C94F72BD8C48D3C910511F48C
:103BE0000C944C2814F40C94D7278E3C910511F4B6
:103BF0000C94B728833D910511F00C94F72BE7E165
:103C0000FAE20C94DC28803941E0940711F40C941A
:103C1000BA2B84F58C32A1E09A0711F40C94842A13
:103C20008CF4823E910511F40C94372A8A3F910559
:103C300011F40C94602A8D3D910511F00C94F72B32
:103C40000C94C8298E32E1E09E0711F40C944D2BA0
:103C500014F40C94AD2A8F3221E0920711F40C94E5
:103C6000A12B8336914011F00C94F72BEFEEF8E284
:103C70000C94A72B863F41E0940711F40C94D32BAE
:103C800004F58C3AA1E09A0711F40C94D9284CF46D
:103C90008A39914011F00C94F72B0E94AB2F0C94B1
:103CA000402C843FF1E09F0731F1853F914011F0B6
:103CB0000C94F72B0E94056D80E00E9416690C940D
:103CC000402C8B3833E0930711F40C94402C3CF4D7
:103CD000873F914011F40C94D62B0C94F72B803A2B
:103CE000A3E09A0709F46DC2873E934011F40C9447
:103CF000E22B0C94F72BEFEEF8E20C94C02BA09083
:103D00006212B090631280E50E944431882359F01A
:103D10000E9484306B017C0111E0672B682B692BBA
:103D200031F410E004C010E0C12CD12C760183E501
:103D30000E944431882311F40C94842D0E94C830D1
:103D400020E030E04AE754E40E9430C80E94C2CD2F
:103D50006B017C0111110BC0672B682B692B39F4A7
:103D6000A114B10421F0F5018081811102C010E09D
:103D700001C011E00E946577112329F061E0C501BF
:103D80000E945B6205C060E08AE893E00E942162C5
:103D900083E08093C20881E080930209C114D104BA
:103DA000E104F104B1F00E9420A0C60ED71EE81E67
:103DB000F91E0E9420A0DC01CB018C199D09AE09DF
:103DC000BF09B7FF0DC08091020981110C94892DA4
:103DD00007C080910209882319F00E94F257F9CF99
:103DE0000E94C096109202090C94402C84918F017D
:103DF0000F5F1F4F882321F00E94DB31F801F6CFBF
:103E00001092BE1081E79EE00E9478548BE1E1E7BA
:103E1000FEE0DE01159601900D928A95E1F7809102
:103E20006F0E9091700E9C838B838CE792E09A8347
:103E3000898340E050E0BE016F5F7F4F80E090E0FB
:103E40000E94BFACCE0101960E946C57E6EAF3E0F7
:103E500084918F010F5F1F4F882311F40C94402C25
:103E60000E94DB31F801F4CF0E9401A50C94402C94
:103E70001092410E1092420E0C94402C803209F4A4
:103E80001082319680818111F9CF40E061E080910C
:103E90006212909163120E9415A30C94402C8091A1
:103EA000420E81111093410E0E9432B40C94402CAA
:103EB0008091420E882311F40C94402C83E50E94DB
:103EC000443181110C948D2D0C94402C83E40E947C
:103ED000FB30882309F450C0E3EFF3E084918F01B5
:103EE0000F5F1F4F882321F00E94DB31F801F6CFCE
:103EF00080910C10811103C0E6ECF3E012C0BE010A
:103F00006F5F7F4F89E090E10E94D8888E010F5F3C
:103F10001F4FD8018D918D01882349F10E94DB311B
:103F2000F8CF84918F010F5F1F4F882301F10E940A
:103F3000DB31F801F6CF91E7C92E94E0D92EE12CC0
:103F4000F12C20E080919E0890E00E2C02C0959507
:103F500087950A94E2F780FDA5C23FEFE31AF30AC2
:103F600042E0C40ED11C55E0E516F10459F78AE091
:103F70000E94DB310C94402C8091420E882339F052
:103F80008091410E882319F0E0EDF3E003C0E2EEEA
:103F9000F3E028C084918F010F5F1F4F882321F029
:103FA0000E94DB31F801F6CF6091BA107091BB101E
:103FB0008091BC109091BD104AE00E948A348FE23B
:103FC0000E94DB316091B6107091B7108091B810EB
:103FD0009091B9104AE00E948A348AE00E94DB3155
:103FE0000C94402C84918F010F5F1F4F882311F494
:103FF0000C94402C0E94DB31F801F4CF40E060E0EB
:1040000080916212909163120E9415A30C94402C2F
:104010008091420E882311F40C94402C89E090E1A9
:104020000E94AC8289E090E10E940C891092400EBF
:1040300010923F0E8091420E882311F40C94402C74
:1040400000916212109163121092410E80910C1037
:10405000882321F089E090E10E940C89B801CE010B
:1040600080960E94C8AE8C01892B11F40C94402CD0
:1040700068A179A16115710511F06C5F7F4F1982FC
:104080001C8222E0A801CE0101960E9415898111AF
:1040900002C0F12C14C0CE0101960E94EEAB882321
:1040A000C1F361E0CE0101960E945753009789F356
:1040B00025EEFC0120831C820E94B980F82ECE01DF
:1040C00001960E94D531F11003C0E0E1F4E022C076
:1040D000E2E0F4E084917F012FEFE21AF20A8823F4
:1040E00021F00E94DB31F701F5CFD8018D918D01D0
:1040F000882319F00E94DB31F8CF8AE00E94DB317F
:104100001092BA101092BB101092BC101092BD10F9
:104110000C94402C84917F01BFEFEB1AFB0A88239B
:1041200021F00E94DB31F701F5CFF80181918F0179
:10413000882319F00E94DB31F8CF8EE20E94DB3138
:104140000C94402C8091410E81110E9465778091E2
:10415000420E882311F40C94402C80E50E944431D7
:10416000882319F00E94B83003C080E50E94FB301C
:10417000182F482F61E080916212909163120E9483
:1041800015A383E50E944431882381F00E94943076
:10419000AB01BC014093BA105093BB106093BC10AC
:1041A0007093BD1089E090E10E94DF828091420E01
:1041B000882319F081E08093410E11110C94402C5A
:1041C00073CE809162129091631221E02093400E91
:1041D00040E060E00E9415A30C94402C0E94E3B3E1
:1041E0007B018C0120E831E541E050E00E94BBCB2F
:1041F000C9016DE671E00E94F7CB4B015C01C8017B
:10420000B70120E13EE040E050E00E94BBCBCA0194
:10421000B90128E130E040E050E00E94BBCB762EAF
:10422000672EC62ED72E2CE3222E312C412C512C5A
:10423000C801B701A20191010E94BBCBF62EE72E67
:10424000CA01B901A20191010E94BBCBCB018E0131
:104250000F5F1F4F8114910499F0EF92FF927F93AB
:104260006F936F927F92BF92AF929F928F9280E5F1
:1042700094E09F938F931F930F930E9462C713C084
:10428000A114B104B1F0EF92FF927F936F936F92FC
:104290007F92BF92AF9280E494E09F938F931F939D
:1042A0000F930E9462C70FB6F894DEBF0FBECDBF5A
:1042B00030C0CD2879F0EF92FF927F936F936F9289
:1042C0007F9284E394E09F938F931F930F930E94B8
:1042D00062C7E9CF892B69F0EF92FF927F936F93CA
:1042E0008CE294E09F938F931F930F930E9462C779
:1042F000DACFEF92FF9288E294E09F938F931F931F
:104300000F930E9462C70F900F900F900F900F9025
:104310000F9060E0C8010E945B62E7E1FAE28491DD
:104320007F01BFEFEB1AFB0A882321F00E94DB31EB
:10433000F701F5CFB80184E694E00E9491768AE017
:104340000E94DB310C94402C83E50E944431882389
:1043500011F40C94402C0E94A430E82E80E50E94B9
:104360004431882339F00E94A430182F87FF03C0FE
:104370000C94402C1DE089E40E944431882341F0D4
:104380000E94B83081110C940F2EEAEFF6E00BC0BA
:1043900089E40E94FB30F6CF319627E0E732F2073E
:1043A00011F40C940F2E84911813F6CF0C94E42D75
:1043B0000E9456B40C94402C0E946BB40C94402C78
:1043C00088E690E00E94F73481110C94402C809193
:1043D0009E0883FF02C00C94402C83E50E94443168
:1043E0008823C9F00E94C8300E94BBCD709350034F
:1043F00060934F0380E00E9484B30E94C83020E0A5
:1044000030E04AEA52E40E94CAC7181624F00E941B
:104410006BB40E94C0960E9470BB0C94402C8EE43A
:104420000E944431882311F40C94402C0E94943053
:1044300060938D0D70938E0D80938F0D9093900DE2
:104440000C94402C83E50E94FB30882359F083E5CF
:104450000E944431882319F00E94A43001C080E0FA
:1044600080939E08E7E1FAE284918F010F5F1F4F6E
:10447000811103C0EFE7F4E004C00E94DB31F801D2
:10448000F3CF84918F010F5F1F4F882321F00E948B
:10449000DB31F801F6CF80919E0881114CCDEBE71E
:1044A000F4E018C0BB24B394B20E222319F08CE2BE
:1044B0000E94DB31F60185919491FC0184918F017A
:1044C0000F5F1F4F882321F00E94DB31F801F6CFE8
:1044D0002B2D43CD84918F010F5F1F4F882309F44B
:1044E00046CD0E94DB31F801F5CF10923D020C94CD
:1044F000402C86E894E00E948D5783E50E94443169
:10450000811103C0E7E1FAE20DC00E94A4308D33AF
:1045100020F4809317020C94402C8CE380931702B4
:104520000C94402C84918F010F5F1F4F882321F042
:104530000E94DB31F801F6CF4091170250E060E0B5
:1045400070E08FE894E00E943E768AE00E94DB31C2
:104550000C94402C89E690E00E94F734811111C040
:10456000E6E9F4E084918F010F5F1F4F882321F06B
:104570000E94DB31F801F6CF0E942C918AE00E9464
:10458000DB311092C2080C94242E83E50E94443142
:10459000882311F40C94402C0E94A430182F8D33E2
:1045A00008F01CE31093CF080E9420A06B017C014F
:1045B000212F30E0A8EEB3E00E94E8CBC60ED71E54
:1045C000E81EF91EC092CB08D092CC08E092CD082C
:1045D000F092CE080C94402C8DE690E00E94F734C7
:1045E00081110C94402C80919E0883FF02C00C9492
:1045F000402C83E50E9444318CAF811107C082E5D5
:104600000E944431182F882309F43DC00E94C8300D
:104610000E94BBCD7093500360934F0380E00E94D3
:1046200084B30E94C83020E030E04AEA52E40E949D
:10463000CAC7181614F40C949E2D0E946BB40E94E5
:10464000C09660914F0370915003072E000C880BA9
:10465000990B0E94D1C76B017C018090CA03909096
:10466000CB03A090CC03B090CD03A50194010E9490
:10467000AFCE181614F40C94AA2D8CAD882311F427
:104680000C94A22D11E00E9470BB112311F40C9424
:10469000402C81E080933D021CAA1DAA1EAA1FAADD
:1046A00068961CAE1DAE1EAE1FAE689718AE29965A
:1046B0001FAE29979CE32D969FAF2D97ACE169968D
:1046C000AFAF6997B6E46196BFAF6197C12CD12CAB
:1046D00000E8E02E8FEBF82E412C512C3201609136
:1046E0004F0370915003072E000C880B990B0E940A
:1046F000D1C7162F072F8CA798AB9601A7010E9450
:10470000CAC7882309F12091CA033091CB03409195
:10471000CC035091CD03ECAD612F702F8CA598A9DF
:10472000E11107C00E94CAC7881F8827881F88AF69
:1047300011C00E94CAC787FF0CC080913D02882328
:1047400011F40C94402C0AC11C2D0D2DECA6F8AAD6
:1047500001C018AE0E9420A06B017C01DC01CB01DE
:1047600068962CAD3DAD4EAD5FAD6897821B930B47
:10477000A40BB50BB7FD3DC0D701C60188519C4FB6
:10478000AF4FBF4F68968CAF9DAFAEAFBFAF6897CE
:104790000E942C91E9E9F4E084915F019FEFA91A4E
:1047A000B90A882321F00E94DB31F501F5CF4114CD
:1047B000510461047104B9F0D301C201805F984DC6
:1047C000AF4FBF4FBC01CD016C197D098E099F0908
:1047D00028EE33E040E050E00E94BBCBCA01B901B3
:1047E0000E94393503C08FE30E94DB318AE00E94CA
:1047F000DB310E94F2570E9420A06093C30870939F
:10480000C4088093C5089093C6082090CA033090CE
:10481000CB03A091CC032196AFAF2197B091CD03EC
:104820002596BFAF25979101AD01612F702F8CA503
:1048300098A90E944ECC4B015C0120E030E0A90118
:104840000E94AFCE87FF04C0B7FAB094B7F8B09417
:10485000411451046104710459F420E030E040E84F
:104860005FE3C501B4010E94CAC787FF0DC00AC03B
:1048700020E030E040E450E4C501B4010E94AFCE36
:10488000181614F426013701E8ADEE2309F44AC0E6
:104890002CA93DA94EA95FA9211531054105510556
:1048A00041F0D701C601821B930BA40BB50BB7FDDA
:1048B00039C0910121964FAD219725965FAD25977F
:1048C00029966FAD29972D967FAD2D9769968FAD5F
:1048D000699761969FAD61970E944ECC20E030E0D1
:1048E00040EC5FE30E94CAC787FD27CFD701C6010E
:1048F000805A9541AF4FBF4F8CAB9DABAEABBFABBA
:1049000029962FAE29972D963FAE2D9721969FADD4
:10491000219769969FAF69972596AFAD25976196C8
:10492000AFAF619780913D02882309F406CF41140F
:1049300051046104710429F4C12ED02EECA4F8A80E
:10494000CECEB0E1CB1AB7E2DB0AE108F108C41819
:10495000D508E608F708F7FEF0CEEECF0E94C09625
:104960008FC780E50E944431811106C083E50E9413
:104970004431882359F005C00E94A430811180C7BA
:10498000F5CF0E9494306F3F710510F06FEF70E02B
:104990007093C8036093C70373C780E50E944431D6
:1049A000811105C01092C8031092C70369C70E9405
:1049B0009430672B09F064C7F5CF83E50E94FB3084
:1049C0008823A1F080913802882319F0E7EBF4E006
:1049D00002C0EDEBF4E084918F010F5F1F4F88233D
:1049E00009F44EC70E94DB31F801F5CF269A2E98C4
:1049F0001093380264E670E080E090E00E9412B309
:104A00000E94C0963DC70E9480B40E9464661092C6
:104A1000C8031092C70368EE73E080E090E00E9444
:104A20004E80269A2E9A1092380260E083EC94E031
:104A30000E94216225C71092CF0222C781E0809395
:104A4000CF021EC783E50E944431882399F00E945B
:104A5000C83020E030E04AE754E40E9430C80E94A9
:104A6000C2CD609318027093190280931A0290933A
:104A70001B0206C788E50E94FB3081110C94B42DFF
:104A800089E50E94FB3081110C94B42D8AE50E94C7
:104A9000FB3081110C94B42D85E40E94FB30811110
:104AA0000C94B42D0E946466EBC683E50E94FB3033
:104AB000882309F4E5C60E94C83020E030E04AE7C8
:104AC00054E40E9430C80E94C2CD6093C70870931E
:104AD000C8088093C9089093CA08D2C6F60181918C
:104AE0006F010E94FB30882309F46EC0133009F077
:104AF00063C00E94C8304B015C0120E030E040EA16
:104B000051E40E94CAC787FF4EC0A501940160917D
:104B1000AB087091AC088091AD089091AE080E94EE
:104B200049CD2B013C019B01AC0160917303709155
:104B3000740380917503909176030E9430C860934E
:104B40007303709374038093750390937603A301AA
:104B500092016091A3037091A4038091A5039091A9
:104B6000A6030E9430C86093A3037093A4038093AC
:104B7000A5039093A60360918303709184038091B1
:104B80008503909186030E94CFC7A30192010E94E2
:104B900030C80E94C2CD60938303709384038093D6
:104BA0008503909386038092AB089092AC08A09204
:104BB000AD08B092AE0808C00E94C830D7016D930E
:104BC0007D938D939C9313971F5FB4E0EB0EF11CC4
:104BD000143009F083CF0E944F7852C60E94657747
:104BE00083E50E944431882311F40C94C11C0E9477
:104BF00094306230710511F00C94C11C0E94015C6C
:104C00008BE50E94DB316091B6087091B708809106
:104C1000B8089091B90842E00E94103C4091BA084F
:104C20005091BB086091BC087091BD0886ED94E07E
:104C30000E945B764091BE085091BF086091C00809
:104C40007091C10883ED94E00E945B768DE50E942F
:104C5000DB318AE00E94DB3113C684918F010F5F44
:104C60001F4F882321F00E94DB31F801F6CF60E06E
:104C700088EA95E00E94833960E081EA95E00E942D
:104C8000833961E086E995E00E94833961E086E836
:104C900095E00E94833960E08DE795E00E948339BA
:104CA00061E083E795E00E94833960E089E695E062
:104CB0000E94833960E081E695E00E94833960E0DC
:104CC00083E595E00E94833960E085E495E00E94E9
:104CD000833961E086E395E00E94833960E088E2F1
:104CE00095E00E94833960E082E195E00E9483397B
:104CF00060E081E095E00E94833960E08CEE94E012
:104D00000E94833961E089ED94E00E948339B8C53F
:104D10008091621290916312FC012081222309F498
:104D20001DCE60E00E945B62ABC5009162121091E3
:104D3000631283E0D12C40E08150E9F0D8019C91CE
:104D4000292F2B7F2134C1F711962C912133A1F704
:104D5000913421F0953421F441E002C0DD24D39454
:104D600098012E5F3F4F89012F5F3F4FF8019081DF
:104D70009032C9F3E1CF442369F0E7E1FAE284918C
:104D80007F012FEFE21AF20A882321F00E94DB3123
:104D9000F701F5CFDD2069F0EEE7F6E084917F01C1
:104DA0003FEFE31AF30A882321F00E94DB31F70179
:104DB000F5CFD8018D918D01882309F4D8C80E94C0
:104DC000DB31F7CF0E94EC685BC581E08093CF09AF
:104DD0008093CE0955C583E50E944431882319F09C
:104DE0000E94943002C060E070E08B011127023015
:104DF0001105D4F0EFEEF8E284918F010F5F1F4FA1
:104E0000811103C0E2E8F6E004C00E94DB31F80142
:104E1000F3CF84918F010F5F1F4F882309F430C5B2
:104E20000E94DB31F801F5CF88E40E9444318823E9
:104E3000A9F00E9494306A3A71053CF06530B1E007
:104E40007B072CF064E071E002C06AEA70E0F801D0
:104E5000EE0FFF1FEF5AFC4F7183608386E40E94C0
:104E60004431882309F40CC50E949430000F111FAF
:104E7000F801EB5AFC4F718360836F3F710519F0A5
:104E800014F06FEF70E077FF02C060E070E07183B4
:104E90006083F6C488EC90E00E94F7348111F0C47E
:104EA00084E40E94FB30882309F441C00E94C8308A
:104EB0006B017C0111E020E030E0A9010E94CAC72B
:104EC000811101C010E01093C80920E030E0A90171
:104ED000C701B6010E94CAC7882349F10E94C830A1
:104EE000E091660924E0E29FF0011124EC53F64FB3
:104EF000608371838283938320E030E0A901609115
:104F0000C4097091C5098091C6099091C7090E9492
:104F1000CAC781110CC080E090E0A0E4B0E48093A7
:104F2000C4099093C509A093C609B093C7090E940C
:104F30009F65A6C472E5E72E72E0F72E08EA1DE031
:104F4000E8EBCE2EEDE0DE2ED7018D917D010E94A3
:104F5000FB30882349F00E94C8300E94C2CDF8017E
:104F600060837183828393830C5F1F4FC016D106C9
:104F700059F70E94AC7684C462E5E62E62E0F62E14
:104F800007E913E0D7018D917D010E94FB30882352
:104F900039F00E94C830F801608371838283938363
:104FA0000C5F1F4FF3E0073A1F0761F769C483E501
:104FB0000E9444318823A1F00E94C83060938F037F
:104FC00070939003809391039093920360938B036B
:104FD00070938C0380938D0390938E0310E001C037
:104FE00011E080E50E944431882359F00E94C830C6
:104FF00060938F0370939003809391039093920337
:1050000010E082E50E944431882359F00E94C830A4
:105010006093930370939403809395039093960306
:1050200010E084E50E944431882359F00E94C83082
:1050300060938B0370938C0380938D0390938E0306
:105040001FC4112309F41CC440918F035091900395
:1050500060919103709192038AEA96E00E945B76D8
:10506000409193035091940360919503709196033E
:1050700087EA96E00E945B7640918B0350918C0307
:1050800060918D0370918E0384EA96E00E945B76B6
:105090008AE00E94DB31F4C381E50E94FB30882363
:1050A00051F00E9484306093AB037093AC03809303
:1050B000AD039093AE0383E50E94FB30882351F04B
:1050C0000E94C8306093C3037093C4038093C503E8
:1050D0009093C60384E50E94FB30882351F00E9420
:1050E000C8306093BF037093C0038093C103909353
:1050F000C20388E50E94FB30882351F00E94C8302B
:1051000060936703709368038093690390936A03C5
:1051100089E50E94FB30882351F00E94C8306093DB
:105120006B0370936C0380936D0390936E038AE519
:105130000E94FB30882351F00E94C83060936F03B7
:1051400070937003809371039093720385E40E94BF
:10515000FB30882309F494C30E94C8306093730322
:1051600070937403809375039093760389C342E52B
:10517000C42E42E0D42E51EDE52E59E0F52E10E07C
:10518000D6018D916D010E94FB30882351F00E9461
:10519000C830F7016083718382839383812F0E94DB
:1051A000E42E1F5FF4E0EF0EF11C133049F70C946E
:1051B000C11C0E94843A64C384918F010F5F1F4F0A
:1051C000882321F00E94DB31F801F6CF83E50E94AD
:1051D000FB30882321F00E94B83080933702E2EE42
:1051E000F6E084918F010F5F1F4F882321F00E940A
:1051F000DB31F801F6CF80913702882319F0EAED10
:10520000F6E002C0EEEDF6E084918F010F5F1F4FD4
:10521000811103C0E2EDF6E004C00E94DB31F80129
:10522000F3CF84918F010F5F1F4F882321F00E94DD
:10523000DB31F801F6CF2091A8093091A9094091FE
:10524000AA095091AB096091B4097091B509809198
:10525000B6099091B7090E944FCCAB01BC0180ED1B
:1052600096E00E945B762091AC093091AD094091A7
:10527000AE095091AF096091B8097091B909809158
:10528000BA099091BB090E944FCCAB01BC018DECD7
:1052900096E00E945B762091B0093091B10940916F
:1052A000B2095091B3096091BC097091BD09809118
:1052B000BE099091BF090E944FCCAB01BC018AECA2
:1052C00096E00E945B76E2ECF6E084918F010F5F3E
:1052D0001F4F882321F00E94DB31F801F6CF209187
:1052E000A8093091A9094091AA095091AB09609190
:1052F0002B0270912C0280912D0290912E020E941F
:105300004FCCAB01BC0180EC96E00E945B76209113
:10531000AC093091AD094091AE095091AF0960914F
:105320002F027091300280913102909132020E94DE
:105330004FCCAB01BC018DEB96E00E945B762091D7
:10534000B0093091B1094091B2095091B30960910F
:1053500033027091340280913502909136020E949E
:105360004FCCAB01BC018AEB96E00E945B768AE0F1
:105370000E94DB3185C283E50E944431882309F411
:105380007FC20E94943070932A026093290278C2EF
:105390008DED90E00E94F734811172C283E50E9486
:1053A0004431811103C0E7E1FAE23BC00091660994
:1053B00010E00E949430000F111FF801E95DFD4FCD
:1053C000718360838091660990E08C01000F111F4A
:1053D000000F111F9801235F3D4F7901880F991F1E
:1053E000FC01E95DFD4F60817181072E000C880B87
:1053F000990B0E94D1C72AE037ED43E25CE30E949B
:1054000030C8F801EC55F64F20813181428153813B
:105410000E9430C8D7016D937D938D939C93139711
:105420002FC284918F010F5F1F4F882321F00E94AC
:10543000DB31F801F6CF85E40E94DB31809166090B
:10544000805D0E94DB31E0916609F0E0EE0FFF1F06
:10545000E95DFD4F6081718182EF96E00E94787670
:1054600085E20E94DB318AE00E94DB3109C280E5DF
:105470000E94FB30882309F403C20E9494306B0120
:105480007C0183E50E944431882321F00E949430FE
:105490008B0102C00FEF1FEFC8010196039708F0C0
:1054A000EFC1D7FCEDC18C2DEAEFF6E0949189179E
:1054B00009F48AC33196B7E0E732FB07B9F787C32F
:1054C00083E40E94FB30882329F00E949430CB01B2
:1054D0000E94F061E7E2F7E084918F010F5F1F4FB8
:1054E000882321F00E94DB31F801F6CF6091030997
:1054F00070910409072E000C880B990B0E94393516
:105500008AE00E94DB31BCC183E50E9444318823DC
:1055100019F00E94943002C064E071E079A368A39E
:1055200080E50E944431882339F00E949430693824
:10553000E3E17E0730F402C068EE73E07A836983AA
:1055400004C088E893E19A838983BE01605E7F4F3F
:10555000CE0101960E9445A693C185E40E94443184
:10556000811110C080E50E94FB30882391F00E94D9
:10557000C830609342037093430380934403909335
:10558000450307C00E94A430882361F3EFEEF8E2E0
:1055900071C089E40E94FB30882381F00E94C830EA
:1055A0002CEA35EC47E25EE30E9430C860934A0380
:1055B00070934B0380934C0390934D0384E40E94BB
:1055C000FB30882381F00E94C8302CEA35EC47E29A
:1055D0005EE30E9449CD6093460370934703809336
:1055E000480390934903E7E1FAE284918F010F5F4A
:1055F0001F4F882321F00E94DB31F801F6CF409144
:10560000420350914303609144037091450384E445
:1056100097E00E945B762CEA35EC47E25EE360910E
:105620004A0370914B0380914C0390914D030E946B
:1056300049CDAB01BC0180E497E00E945B762CEA87
:1056400035EC47E25EE36091460370914703809139
:105650004803909149030E9430C8AB01BC018CE320
:1056600097E00E945B768AE00E94DB3109C10E94CC
:10567000DB31F80184918F010F5F1F4F8111F7CF4C
:10568000E8E4F7E084918F010F5F1F4F882309F44E
:10569000F7C00E94DB31F801F5CF83E50E94FB30B3
:1056A000182F882371F00E94C8300E94BBCD7093E0
:1056B00012026093110221E0672B09F020E0209391
:1056C000C90380E50E94FB30882359F02091110224
:1056D00030911202232B11F00E94B8308093C9033D
:1056E000CFC01111CDC0E7E1FAE284918F010F5FC5
:1056F0001F4F882321F00E94DB31F801F6CF809103
:10570000C903882319F060E972E002C063E972E01E
:105710008FE697E00E9491766091110270911202DB
:105720008EE597E00E947876EAE5F7E084918F01B4
:105730000F5F1F4F882309F4A3C00E94DB31F801DB
:10574000F5CF0E9455359CC00E94DB31F801849151
:105750008F010F5F1F4F8111F7CFE2E8F7E08491CF
:105760008F010F5F1F4F882309F48AC00E94DB312D
:10577000F801F5CF0E94657783C00E94DB31F80104
:1057800084918F010F5F1F4F8111F7CFE1E9F7E09F
:1057900084918F010F5F1F4F882309F471C00E940D
:1057A000DB31F801F5CF0E94056D6AC083E50E94E8
:1057B000FB30882321F00E94B83091E089270E94B5
:1057C00016695EC081E080934E021092660383E505
:1057D0000E944431882339F00E94B830811150C0B2
:1057E0000E94A0B84DC083E50E94FB30F7CF0E9415
:1057F000745246C0F09064120E946577FF2029F130
:10580000E7E1FAE284918F010F5F1F4F882321F0B7
:105810000E94DB31F801F6CF84E50E94DB316F2D69
:1058200070E080E090E04AE00E948A3480E20E94CA
:10583000DB31E4EBF7E084918F010F5F1F4F88238A
:10584000F9F00E94DB31F801F6CF1092F608E7E19B
:10585000FAE284918F010F5F1F4F882321F00E948D
:10586000DB31F801F6CF6091F60870E082EA97E04C
:105870000E9478768AE00E94DB3102C00E94745256
:105880001092C2080E941D5CDFC10E9451310E942B
:10589000EC5AF6CF0E946577809113029091140222
:1058A000A0911502B09116028093D3029093D40276
:1058B000A093D502B093D6028091290290912A023A
:1058C0009093D2028093D10284E690E090932A02D2
:1058D0008093290211E01093CF0988E50E94FB30E4
:1058E000282E89E50E94FB30082F8AE50E94FB30B4
:1058F000382E211004C0011104C0132505C0011168
:1059000002C010E001C0132D80E1EDEDF9E0ACED37
:10591000B8E001900D928A95E1F782E50E9444314A
:10592000882369F00E94C8306B017C0120E030E0E0
:10593000A9010E94CAC7882309F4ACC006C0C12CC3
:10594000D12C60EAE62E60E4F62E111105C021107C
:1059500003C0002309F4AFC0C092E408D092E50868
:10596000E092E608F092E708A70196016091E50948
:105970007091E6098091E7099091E8090E94CAC7F1
:1059800087FF88C02091E1093091E2094091E30945
:105990005091E4092CA73DA74EA75FA74090DD09D1
:1059A0005090DE096090DF097090E0098091130249
:1059B00090911402A0911502B091160288AB99AB98
:1059C000AAABBBABE1EEFEE085909590A590B490BC
:1059D0008092130290921402A0921502B0921602C5
:1059E000C092E509D092E609E092E709F092E80951
:1059F0000E94B82E85E595E5A5E0B3E480931302F7
:105A000090931402A0931502B09316024092DD0900
:105A10005092DE096092DF097092E0092CA53DA545
:105A20004EA55FA52093E1093093E2094093E30975
:105A30005093E4090E94B82EA70196016091E509F0
:105A40007091E6098091E7099091E8090E94AFCE34
:105A5000181694F48092130290921402A0921502E8
:105A6000B0921602C092E509D092E609E092E709E9
:105A7000F092E8090E94B82E0E94657788A999A93A
:105A8000AAA9BBA98093130290931402A0931502B4
:105A9000B0931602111105C0211003C0011106C0F8
:105AA0000AC080E00E946A561123C1F381E00E947F
:105AB0006A56111102C0332019F082E00E946A5622
:105AC0000E94A12F8091CE098093CF098091D302AB
:105AD0009091D402A091D502B091D6028093130286
