:100000000C9454160C947E160C947E160C947E164A
:100010000C947E160C947E160C947E160C947E1610
:100020000C947E160C947E160C947E160C947E1600
:100030000C947E160C94C42F0C947E160C947E1691
:100040000C947E160C9483550C949B820C947E1613
:100050000C948AB30C947E160C947E160C947E1627
:100060000C947E160C947E160C947E160C947E16C0
:100070000C947E160C947E160C947E160C947E16B0
:100080000C947E160C947E160C947E16C659C95993
:10009000BC59C059E059E059CD59D159D759DB590C
:1000A0004B5F505F555F5F5F8D5F8D5F695F715F15
:1000B000795F835F05823782398248824D8203826D
:1000C0005882084AD73B3BCE016E84BCBFFDC12F8E
:1000D0003D6C74319ABD56833DDA3D00C77F11BE39
:1000E000D9E4BB4C3E916BAAAABE000000803F053C
:1000F000A84CCDB2D44EB93836A9020C50B991866D
:1001000088083CA6AAAA2ABE000000803F004E41F3
:100110004E494E495459494E46CDCCCC3D0AD72381
:100120003C17B7D13877CC2B329595E6241FB14FC9
:100130000A000020410000C84200401C4620BCBE0E
:100140004CCA1B0E5AAEC59D74434F4D4D554E497A
:10015000434154494F4E0044525952554E00455266
:10016000524F525300494E464F004543484F0047B7
:10017000322F47332062616420706172616D657453
:100180006572730A00536C6565702E2E2E00436CE9
:1001900069636B20746F20726573756D652E2E2EEA
:1001A000004E6F206D6F76652E00456E6420666987
:1001B0006C65206C6973740A00426567696E20661D
:1001C000696C65206C6973740A00286E6F2066691B
:1001D0006C6529005344207072696E74696E6720E3
:1001E0006279746520004E6F7420534420707269E8
:1001F0006E74696E670A0043757272656E7420666C
:10020000696C653A200046696C652064656C6574AC
:1002100065643A0044656C6574696F6E2066616957
:100220006C65642C2046696C653A20002569730072
:1002300025696D20256973002569682025696D2071
:1002400025697300256964202569682025696D206A
:10025000256973002569792025696420256968204E
:1002600025696D20256973005072696E7420746968
:100270006D653A20006A0165015E01570149016F11
:1002800066660044454255473A004B494C4C45444C
:100290002E20004D3131332053006F6B0020573A30
:1002A0000042656420636F6F6C696E672E2E2E00AE
:1002B0004265642068656174696E672E2E2E004564
:1002C0006E646572203344204F66662E002C200039
:1002D0002C2000544845524D414C5F50524F5445DC
:1002E0004354494F4E004155544F5245504F52547C
:1002F0005F53445F53544154555300454D45524755
:10030000454E43595F504152534552004341534576
:100310005F4C494748545F4252494748544E455301
:100320005300544F47474C455F4C4947485453008E
:10033000534F4654574152455F504F574552004224
:1003400055494C445F50455243454E54004C455628
:10035000454C494E475F44415441005A5F50524F0B
:100360004245004155544F4C4556454C005052496A
:100370004E545F4A4F420050524F4752455353002C
:100380004155544F5245504F52545F54454D5000C3
:10039000564F4C554D455452494300454550524FD8
:1003A0004D0053455249414C5F584F4E5F584F46A0
:1003B00046004649524D574152455F4E414D453AE0
:1003C0004D61726C696E206275676669782D312E99
:1003D000312E7820284769746875622920534F555B
:1003E0005243455F434F44455F55524C3A687474DD
:1003F00070733A2F2F6769746875622E636F6D2F63
:100400004D61726C696E4669726D776172652F4DD0
:1004100061726C696E2050524F544F434F4C5F567F
:10042000455253494F4E3A312E30204D41434849B1
:100430004E455F545950453A456E646572203344C9
:100440002045585452554445525F434F554E543AF7
:100450003120555549443A63656465326132662DF1
:10046000343161322D343734382D396231322D63D5
:1004700035356336326633363766660A002F2F20ED
:10048000004D31343520533C696E6465783E206FF1
:100490007574206F662072616E67652028302D317B
:1004A000290A00205400205200416363656C657284
:1004B0006174696F6E3A205000205A00205900582C
:1004C0000020204D61783A2000205A002059005821
:1004D0000020204D696E3A20004F6E20004F666666
:1004E00000536F667420656E6473746F70733A2086
:1004F0000020466C6F773A200000010F150E12FFA6
:10050000FFFFFF16170E13FFFFFFFF03021A14FF72
:10051000FFFFFFFFFFFF0C04FFFFFF01000EFFFFC7
:10052000FF0C190DFF1820643A0020693A00207072
:100530003A00496E76616C696420657874727564FE
:1005400065720A0043290A0061626C656420286DA7
:10055000696E2074656D702000436F6C642065784F
:100560007472756465732061726520004E6F20633C
:10057000617365206C696768740A00454550524F85
:100580004D2064697361626C65640A00416374693B
:1005900076652045787472756465723A2000496EFC
:1005A00076616C69642065787472756465720A009E
:1005B00024F4D43050C38E20C2A24017828B701115
:1005C000127A910D816CD90AA861E108C7586607B3
:1005D000615143061E4B5D05C145A7041A41110434
:1005E000093D9803713931034036DB0265339102CE
:1005F000D4305402802E1D02632CEE01752AC501F1
:10060000B028A001102781018F2564012B244B0104
:10061000E0223401AC211F018D200D01801FFC0060
:10062000841EED00971DDF00B81CD200E61BC6003B
:10063000201BBC00641AB200B219A8000A19A0005D
:100640006A189900D117910040178B00B5168400E5
:1006500031167E00B31579003A157300C7146F0088
:1006600058146A00EE1366008813630025135E00B9
:10067000C7125B006C12570015125400C1115100D3
:1006800070114F0021114B00D61049008D1047000A
:100690004610440002104200C00F4000800F3E0090
:1006A000420F3C00060F3B00CB0E3800930E370084
:1006B0005C0E3500270E3400F30D3200C10D310001
:1006C000900D3000600D2E00320D2D00050D2C0018
:1006D000D90C2B00AE0C2900850C29005C0C2700DE
:1006E000350C27000E0C2600E80B2400C40B240058
:1006F000A00B23007D0B23005A0B2100390B210096
:10070000180B2000F80A1F00D90A1E00BB0A1E00A1
:100710009D0A1D00800A1D00630A1C00470A1B0079
:100720002C0A1B00110A1A00F7091A00DD0919002A
:10073000C4091900AB091900920917007B091800B8
:10074000630917004C091600360916002009160027
:100750000A091500F5081500E0081400CC0814007B
:10076000B8081400A4081400900813007D081200B3
:100770006B081300580812004608120034081100D4
:10078000230811001208110001081100F0071000E1
:10079000E0071000D0071000C0071000B0070F00DE
:1007A000A107100091070E0083070F0074070F00C8
:1007B00065070E0057070E0049070E003B070D00A6
:1007C0002E070E0020070D0013070D0006070D0071
:1007D000F9060C00ED060D00E0060C00D4060C0036
:1007E000C8060C00BC060C00B0060C00A4060B00EA
:1007F00099060C008D060B0082060B0077060B0095
:100800006C060B0061060A0057060B004C060A0036
:1008100042060A0038060A002E060A0024060A00CC
:100820001A060A001006090007060A00FD0509005D
:10083000F4050900EB050900E2050900D9050900E6
:10084000D0050900C7050900BE050900B505080067
:10085000AD050800A50509009C05080094050800E1
:100860008C050800840508007C0508007405080054
:100870006C050700650508005D05070056050800C2
:100880004E0507004705070040050800380507002A
:10089000310507002A050700230507001C0506008F
:1008A000160507000F0507000805060002050700EA
:1008B000FB040600F5040700EE040600E804060049
:1008C000E2040700DB040600D5040600CF0406009E
:1008D000C9040600C3040600BD040600B7040600F0
:1008E000B1040500AC040600A6040600A00405003F
:1008F0009B04060095040500900406008A04050088
:1009000085040500800406007A04050075040500CE
:10091000700405006B040500660405006104050011
:100920005C04050057040500520405004D04050051
:1009300048040500430405003E0404003A04050091
:1009400035040500300404002C04050027040400CD
:10095000230405001E0404001A0404001604050004
:10096000110404000D04040009040500040404003B
:1009700000040400FC030400F8030400F403040072
:10098000F0030400EC030400E8030400E4030400A3
:10099000E0030400DC030400D8030400D4030400D3
:1009A000D0030400CC030400C8030300C503030004
:1009B00024F404D9201BC40C5C0E9804C4095F0203
:1009C00065077101F405F900FB04B30048048700D2
:1009D000C10369005803550003034500BE023A00F5
:1009E0008402310053022A0029022500040220005B
:1009F000E4011C00C8011900AF01170098011400A0
:100A000084011300710110006101100051010E00FA
:100A100043010D0036010B002B010B0020010B00E0
:100A2000150109000C01090003010800FB00080082
:100A3000F3000800EB000700E4000600DE000600FB
:100A4000D8000600D2000600CC000500C700050053
:100A5000C2000500BD000400B9000400B500040098
:100A6000B1000400AD000400A9000400A5000300CB
:100A7000A20003009F0004009B00030098000300F5
:100A80009500020093000300900003008D00020017
:100A90008B0003008800020086000200840003002F
:100AA000810002007F0002007D0002007B00020046
:100AB0007900020077000100760002007400020055
:100AC00072000100710002006F0002006D00010061
:100AD0006C0002006A00010069000200670001006A
:100AE0006600010065000100640002006200010070
:100AF00061000100600001005F0002005D00010074
:100B00005C0001005B0001005A0001005900010077
:100B10005800010057000100560001005500010077
:100B20005400010053000000530001005200010076
:100B300051000100500001004F0001004E00000074
:100B40004E0001004D0001004C0001004B00000070
:100B50004B0001004A00010049000100480000006C
:100B60004800010047000100460000004600010067
:100B70004500000045000100440001004300000062
:100B8000430001004200000042000100410000005B
:100B900041000100400001003F0000003F00010053
:100BA0003E0000003E0001003D0000003D0001004D
:100BB0003C0000003C0000003C0001003B00000045
:100BC0003B0001003A0000003A000100390000003B
:100BD0003900010038000000380000003800010032
:100BE000370000003700010036000000360000002A
:100BF000360001003500000035000000350001001E
:100C00003400000034000000340001003300000014
:100C10003300000033000100320000003200000009
:100C200032000100310000003100000031000100FD
:100C30003000000030000000300001002F000000F4
:100C40002F0000002F0000002F0001002E000000E8
:100C50002E0000002E0001002D0000002D000000DD
:100C60002D0000002D0001002C0000002C000000D1
:100C70002C0000002C0001002B0000002B000000C5
:100C80002B0000002B0001002A0000002A000000B9
:100C90002A0000002A0001002900000029000000AD
:100CA00029000000290000002900010028000000A0
:100CB0002800000028000000280000002800010093
:100CC0002700000027000000270000002700000088
:100CD000270001002600000026000000260000007A
:100CE000260000002600010025000000250000006D
:100CF000250000002500000025000000250001005F
:100D00002400000024000000240000002400000053
:100D10002400010023000000230000002300000045
:100D20002300000023000000230000002300010036
:100D3000220000002200000022000000220000002B
:100D4000220000002200010021000000210000001C
:100D5000210000002100000021000000210000000F
:100D60002100010020000000200000002000000001
:100D700020000000200000002000000020000000F3
:100D8000200001001F0000001F0000001F000000E5
:100D90001F0000001F0000001F0000001F000100D6
:100DA0001E0000001E0000001E0000001E000000CB
:100DB000043700001E290000511B000058100000DD
:100DC00010090000CC04000078020000410100007E
:100DD0006265640A002C2073797374656D207374E6
:100DE0006F7070656421204865617465725F494465
:100DF0003A200000060900FE0701920321207FFF30
:100E000007FF07FF000000060000010707060200B9
:100E100080808080800080030202060105A0A0057A
:100E200007070600005050F850F850500507070615
:100E300000002078A07028F020050707060000C0F9
:100E4000C810204098180507070600006090A040D1
:100E5000A89068020303060104C040800307070648
:100E600001002040808080402003070706010080A9
:100E700040202020408005050506000120A870A81C
:100E8000200505050600012020F8202002030306A6
:100E900002FFC04080050101060003F802020206BD
:100EA0000200C0C0050505060001081020408005AD
:100EB000070706000070888888888870030707067F
:100EC000010040C040404040E005070706000070B8
:100ED0008808708080F8050707060000F8102010C9
:100EE0000808F005070706000010305090F81010B1
:100EF000050707060000F880F00808887005070756
:100F0000060000708080F0888870050707060000E2
:100F1000F8081020202020050707060000708888A8
:100F200070888870050707060000708888780808B0
:100F300070020505060200C0C000C0C00206060619
:100F400002FFC0C000C04080040707060000102058
:100F50004080402010050303060002F800F8040753
:100F6000070601008040201020408005070706008A
:100F70000070880810200020050707060000708810
:100F80000868A8A870050707060000708888F88818
:100F90008888050707060000F08888F08888F00533
:100FA00007070600007088808080887005070706A4
:100FB0000000F08888888888F0050707060000F898
:100FC0008080F08080F8050707060000F88080F038
:100FD000808080050707060000708880B8888870C8
:100FE000050707060000888888F8888888010707B1
:100FF0000602008080808080808005070706000050
:10100000381010101090600507070600008890A0A7
:10101000C0A090880507070600008080808080803F
:10102000F805070706000088D8A88888888805077B
:10103000070600008888C8A8988888050707060062
:101040000070888888888870050707060000F08887
:1010500088F080808005070706000070888888A8CF
:101060009068050707060000F08888F0A0908805C2
:101070000707060000788080700808F0050707065B
:101080000000F82020202020200507070600008807
:1010900088888888887005070706000088888888FF
:1010A0008850200507070600008888888888A8508F
:1010B0000507070600008888502050888805070724
:1010C00006000088888850202020050707060000B9
:1010D000F80810204080F8030707060100E0808030
:1010E000808080E00505050600018040201008038F
:1010F0000707060100E02020202020E0050303066A
:101100000004205088050101060000F802020206D2
:1011100002058040050505060000700878887805FE
:1011200007070600008080B0C88888F0050505061E
:1011300000007080808870050707060000080868B6
:10114000988888780505050600007088F880700585
:1011500007070600003048E040404040050606060C
:1011600000FF7088887808700507070600008080F7
:10117000B0C8888888010707060200800080808048
:1011800080800308080601FF200020202020A040C6
:10119000040707060000808090A0C0A09003070706
:1011A000060100C04040404040E005050506000043
:1011B000D0A8A8A8A8050505060000B0C88888889A
:1011C000050505060000708888887005060606007B
:1011D000FFF08888F080800506060600FF78888882
:1011E000780808050505060000B0C8808080050560
:1011F0000506000070807008F00407070600004034
:1012000040E0404040300505050600008888889889
:101210006805050506000088888850200505050634
:1012200000008888A8A85005050506000088502001
:1012300050880506060600FF88888878087005052E
:1012400005060000F8102040F803070706010020FB
:1012500040408040402001070706020080808080D7
:1012600080808003070706010080404020404080C6
:101270000502020600026890000000060000FFE080
:10128000FFD11000FFFEFFD0FFE0FFC1FFD1E24021
:10129000A0C8A6A22FF800238127AC00AFFF64A549
:1012A000FF64FF64A4FFD0FFFE4D6F766520302EF3
:1012B000316D6D004D6F766520316D6D004D6F762F
:1012C000652031306D6D004D6F76652061786973F2
:1012D000004578747275646572004D6F7665205AAA
:1012E000004D6F76652059004D6F7665205800459A
:1012F00078747275646572004D6F7665205A004D82
:101300006F76652059004D6F7665205800507265E4
:101310007061726500526573746F726520666169F1
:101320006C736166650046696C616D656E74004D35
:101330006F74696F6E0054656D706572617475725B
:1013400065004D61696E0050726568656174204189
:10135000425320636F6E6600507265686561742049
:10136000504C4120636F6E66005049442D4400503C
:1013700049442D44005049442D49005049442D49C9
:10138000005049442D50005049442D500020082061
:1013900046616374002008204661637400200820C1
:1013A0004D6178002008204D6178002008204D61B3
:1013B00078002008204D696E002008204D696E00DD
:1013C0002008204D696E004F6666004F6E20004178
:1013D00075746F74656D700046616E20737065651D
:1013E000640046616E2073706565640046616E201E
:1013F000737065656400426564004265640042651F
:1014000064004E6F7A7A6C65004E6F7A7A6C650074
:101410004E6F7A7A6C6500436F6E74726F6C004227
:1014200065640042656400426564004E6F7A7A6CC0
:1014300065004E6F7A7A6C65004E6F7A7A6C650043
:1014400046616E2073706565640046616E2073703E
:101450006565640046616E2073706565640054655F
:101460006D70657261747572650025753A2530324C
:101470007500253032753A253032750025756420A7
:10148000253032753A25303275002020202020206A
:10149000005A005900202020200058000920000098
:1014A0000000000000000000000000003FFFF0000E
:1014B0000000000000000000000000003800700084
:1014C00000000000000000000000000030FC3000C0
:1014D00000000000000000000000000020FC1000E0
:1014E0000000000000000000000000002078100054
:1014F000000000000000000000000000203010008C
:101500000006000000000000000000002C00D0FEDB
:10151000000200001FE00000082080002E31D042B1
:10152000000200003FF00000041040002F7BD04874
:10153000000200003FF00000041040002F7BD04864
:10154000DC3E3CEE3FF00000082080002E31D078D9
:10155000624242321FE00000104100002C00D048DF
:10156000424242201FE0000020820000203010484C
:1015700042427E203FF00000208200002078104090
:10158000424240203FF000001041000020FC104289
:10159000424642203FF000000820800030FC30FE30
:1015A000E73B3CF80FC0000000000000380070006E
:1015B0000000000007800000FFFFC0003FFFF000B8
:1015C0000000000003000000FFFFC000000000005A
:1015D0000000000000000000000000003FFFF000DD
:1015E0000000000000000000000000003800700053
:1015F0000000000000000000000000003387300001
:10160000000000000000000000000000278790009C
:101610000000000000000000000000002F87D00044
:101620000000000000000000000000002F87D00034
:101630000006000000000000000000002F03D0FEA4
:10164000000200001FE0000008208000203010424F
:10165000000200003FF00000041040002078104815
:10166000000200003FF00000041040002078104805
:10167000DC3E3CEE3FF00000082080002030107877
:10168000624242321FE00000104100002F03D048A8
:10169000424242201FE00000208200002F87D048F5
:1016A00042427E203FF00000208200002F87D04081
:1016B000424240203FF00000104100002787904246
:1016C000424642203FF0000008208000338730FE71
:1016D000E73B3CF80FC0000000000000380070003D
:1016E0000000000007800000FFFFC0003FFFF00087
:1016F0000000000003000000FFFFC00000000045E4
:101700006E6465722033442052656164792E005006
:1017100072696E74696E672E2E2E005072696E7437
:1017200020706175736564005072696E7420616227
:101730006F72746564004D3231004E6F2053442047
:1017400063617264004368616E676520534420637F
:10175000617264004D3231005072696E742066729D
:101760006F6D2053440053746F70207072696E74F3
:1017700000526573756D65207072696E7400496EF4
:1017800069742E2053442063617264005061757344
:1017900065207072696E7400436F6E74726F6C00B6
:1017A000507265706172650054756E6500496E66B1
:1017B0006F2073637265656E0042656420686561C1
:1017C00074696E67206661696C6564004865617460
:1017D000696E67206661696C656400453120486503
:1017E0006174696E67206661696C65640048656153
:1017F00074696E67206661696C65640070012C0114
:1018000090012701B0012201C0011D01F001180162
:101810001002130130020E0160020901900204015E
:10182000C002FF000003FA004003F5008003F0004F
:10183000D003EB002004E6007004E100E004DC00CB
:101840004005D700C005D2004006CD00D006C80034
:101850008007C3003008BE00F008B900C009B4001A
:10186000B00AAF00B00BAA00D00CA500000EA0007B
:10187000500F9B00C01096005012910000148C0075
:10188000C0158700B0178200B0197D00D01B78000A
:10189000001E730040206E0090226900F024640056
:1018A00040275F0090295A00E02B5500102E500071
:1018B00020304B0010324600E033410090353C00B0
:1018C0001037370070383200A0392D00B03A2800A8
:1018D000A03B2300603C1E00103D1900903D140009
:1018E000103E0F00703E0A00C03E0500003F0000A1
:1018F000403FFBFF803FF6FFC03FF1FF45312054E2
:101900004845524D414C2052554E41574159004295
:10191000454420544845524D414C2052554E415764
:10192000415900546865726D616C2052756E617723
:101930006179004531204572723A204D4158544535
:101940004D50004572723A204D415854454D50203B
:10195000424544004D415854454D502074726967CA
:101960006765726564004531204572723A204D49C1
:101970004E54454D50004572723A204D494E5445E3
:101980004D5020424544004D494E54454D50207421
:101990007269676765726564004D38342058205954
:1019A000205A204500202F002042403A0020403A93
:1019B0000000060900FE000000000001090008FE0A
:1019C000000005080806000040F0C88888987810D4
:1019D000050808060000C0F88888888888F805058A
:1019E000050600012030F830200508080600002018
:1019F00070F820202020E00509090600FF2070A8CB
:101A0000A8B8888870200509090600FFE080C0B0EA
:101A1000A8283028280509090600FFF8A888888822
:101A20008888A8F8050A0A0600FE20505050508801
:101A3000A8A8887003030306000340A0400000210B
:101A400000240027002A0000002200250028002B87
:101A500000000020002300260029000202020202EA
:101A60000202020404040404040404030303030341
:101A70000303030101010101010101010204081036
:101A80002040800102040810204080010204081058
:101A90002040808040201008040201000000010264
:101AA0000000000000000004030807000000000020
:101AB00000000000000000000000004D3234004D26
:101AC000323320257300556E6B6E6F776E20636F17
:101AD0006D6D616E643A202200534420636172642C
:101AE000206F6B0A006F70656E526F6F74206661B5
:101AF000696C65640A00766F6C756D652E696E6938
:101B000074206661696C65640A00534420696E69DB
:101B100074206661696C0A0020286D6D29002044DC
:101B20000020490020204D333031205000504944DE
:101B30002073657474696E67733A0A00204600204A
:101B4000420020480020204D3134352053004D61A3
:101B500074657269616C206865617475702070616C
:101B600072616D65746572733A0A00205A002059DB
:101B70000020204D323036205800486F6D65206FB0
:101B800066667365743A0A00204500205A002059A1
:101B90000020580020540020530020204D323035C2
:101BA00020510020453C6D61785F655F6A65726B0E
:101BB0003E0020583C6D61785F785F6A65726B3ECD
:101BC00020593C6D61785F795F6A65726B3E205A7F
:101BD0003C6D61785F7A5F6A65726B3E0041647646
:101BE000616E6365643A20513C6D696E5F73656731
:101BF0006D656E745F74696D655F75733E20533CEF
:101C00006D696E5F66656564726174653E20543C03
:101C10006D696E5F74726176656C5F66656564722E
:101C20006174653E0020540020520020204D323067
:101C300034205000416363656C65726174696F6E36
:101C40002028756E6974732F7332293A20503C70C6
:101C500072696E745F616363656C3E20523C7265AD
:101C600074726163745F616363656C3E20543C749D
:101C7000726176656C5F616363656C3E0A00204546
:101C800000205A0020590020204D323031205800C9
:101C90004D6178696D756D20416363656C65726136
:101CA00074696F6E2028756E6974732F7332293AC8
:101CB0000A00204500205A0020590020204D3230D3
:101CC000332058004D6178696D756D2066656564D7
:101CD00072617465732028756E6974732F73293A65
:101CE0000A00204500205A0020590020204D39329A
:101CF00020580053746570732070657220756E698A
:101D0000743A0A0020204D3230302044300A00203E
:101D1000204D3230302044002044697361626C658C
:101D2000640A0046696C616D656E74207365747435
:101D3000696E67733A0020204D3134392043203BCF
:101D400020556E69747320696E2043656C736975E4
:101D5000730A002020473231202020203B005452BB
:101D600049474745524544006F70656E003A200070
:101D70007A5F6D696E00795F6D696E00785F6D697D
:101D80006E005265706F7274696E6720656E647361
:101D9000746F70207374617475730A0020496E76D5
:101DA000616C6964206578747275646572200000E6
:101DB00000000000000000000000000000164300CA
:101DC00000164300004843486F6D696E67206661E6
:101DD000696C65640050726F74656374656420504B
:101DE000696E0A0020573A004520436F6F6C696E98
:101DF000672E2E2E00452048656174696E672E2E71
:101E00002E00205A3A0020593A0020436F756E7414
:101E100020583A0020453A00205A3A0020593A000A
:101E2000583A003A004361703A0023646566696E6F
:101E3000652044454641554C545F4B642000236463
:101E40006566696E652044454641554C545F4B6953
:101E5000200023646566696E652044454641554C03
:101E6000545F4B702000504944204175746F747565
:101E70006E652066696E69736865642120507574AB
:101E800020746865206C617374204B702C204B6942
:101E900020616E64204B6420636F6E7374616E7496
:101EA000732066726F6D2062656C6F7720696E7447
:101EB0006F20436F6E66696775726174696F6E2E0D
:101EC000680A00504944204175746F74756E65202E
:101ED0006661696C6564212074696D656F75740A4B
:101EE00000453120544845524D414C2052554E41F9
:101EF00057415900546865726D616C2052756E616E
:101F00007761790045312048656174696E672066A4
:101F100061696C65640048656174696E672066611B
:101F2000696C656400504944204175746F74756E26
:101F300065206661696C6564212054656D70657209
:101F4000617475726520746F6F20686967680A0034
:101F5000204B643A2000204B693A2000204B703A15
:101F600020000A20436C6173736963205049442048
:101F70000A002054753A2000204B753A2000206D4D
:101F800061783A2000206D696E3A200020643A2082
:101F90000020626961733A20005049442041757401
:101FA0006F74756E65206661696C6564212042619D
:101FB00064206578747275646572206E756D6265F3
:101FC000720A00504944204175746F74756E652023
:101FD00073746172740A00486F6D652025732573F0
:101FE0002573206669727374002066697273740ABF
:101FF000005A0059005800486F6D6520004F666612
:1020000073657473206170706C69656400457272E9
:102010003A20546F6F206661722100546F6F206602
:1020200061722066726F6D207265666572656E639F
:102030006520706F696E740A0020746F6F206C6F7A
:102040006E6720657874727573696F6E2070726543
:1020500076656E7465640A0020636F6C6420657831
:1020600074727573696F6E2070726576656E7465D3
:10207000640A00FFFFFFFFEFFFFFFFFFFFFFFFFF0F
:10208000FFFFEFEFFFFFFFFFFFFFFFFFFFE7DFFFB8
:10209000FFFFFFFFFFFFFFFFE7DFFFFFFFFFFFFF88
:1020A000FFFFFFE3DFFFFFFFFFFFFFFFFFFFF3CFB8
:1020B000FFFFFFFFFFFFFFFFE1E1CFFFFFFFFFFF9C
:1020C000FFFE78000003DDFFFFFFFFFEFF807E00C4
:1020D00001EEFFFFFFFFFE7DCFFC0000F77FFFFF5B
:1020E000FFFF8E060000007BBFFFFFFFFFC0000068
:1020F00000007DDFFFFFFFFFFC01FE00003EE7FF69
:10210000FFFFFFFFFFFC00031F73FFFFFFFFFFFF49
:10211000F800018F81FFFFFFFFFFFFE0000083F960
:10212000FFFFFFFFFFFF00FC0000F0FFFFFFFFFFCE
:10213000E00FFFC00000FFFFFFFFFE03FFFFC00036
:1021400000FFFFFFFFFFFFFFF9000000FFFFFFFFA1
:10215000FFFFFFFC0007C0FFFFFFFFFFFFFFFF00C7
:1021600007E0FFFFFFFFFFFFFFFFE007F1FFFFFFBB
:10217000FFFFFFFFFFFC07F9FFFFFFFFFFFFFFFF70
:10218000FF03F9FFFFFFFFFFFFFFFFFF83F9FFFFE3
:10219000FFFFFFFFFFFFFFC3FFFFFFFFFFFFFFFF8B
:1021A000FFFFE1FFFFFFFFFFFFFFFFFFFFF0BFFFAC
:1021B000FFFFFFFFFFFFFFFBF83FFFFFFFFFFFFFFA
:1021C000FFFFF9F83FFFFFFFFFFFFFFFFF7EF0FF7C
:1021D000FFFFFFFFFFFFFFFF8E03FFFFFFFFFFFF7C
:1021E000FFFFFFE01FFFFFFFFFFFFFFFFFFFFFFFFE
:1021F000FFFFFFFFFFFFFFFFFFFFFFFFFFFFFFFFEF
:10220000FFFFFFFFFFFF7FFFFFFFFF00007FFFFFDC
:10221000F87FFFFFFFFF80007FFFFFE07FFFFFFFF2
:10222000FFC3FCFFFFFFF8FFFFFFFFFFC3FCFFFF43
:10223000FFF8FFFFFFFFFF87FDFFFFFFF1FFFFFF3D
:10224000FFFF87FFFFFFFFF1FFFFFFFFFF0FE7F338
:102250000FFC23FC3FFFFFFF0FEF8007F003F01E92
:10226000007FFE1FCF8187C787C70C007FFE001F3E
:10227000C7C78FC79F0F0CFFFE001F878F1F8F1FC1
:102280000F1FFFFC3F9F8F8F1F8E001E3FFFFC7FA5
:102290003F0F1E3F1E3FFE3FFFF87FFF1F1C3F1CEE
:1022A0007FFC7FFFF8FFFF1E1C7E1C7FFC7FFFF082
:1022B000FFCE3E3C7E3C7FB8FFFFF0FF9E3C387C6B
:1022C000387E78FFFFE1FF3C7C787C783CF1FFFFB3
:1022D000E1F8387878101801F1FFFF000060203C29
:1022E000007C07807FFFFFFFFFFFFE1FFE1FFFFF39
:1022F000FF1FFFFFFFFFFFFF600000000001FF4026
:102300000000000000FF8000000000007F83CF007D
:10231000000C303F87FF80000C301F867980000C56
:10232000000F8C30C7838C30E78C30CFC7CC31F3B3
:102330008C30DCECEC33B98C30D86C6C33198C30CD
:10234000D06C0C33198C30D86C0C33198C30DC6C9D
:102350000E3B198C30CF7C079F198C30C77C038FC4
:102360001940000000000002600000000000061F8D
:10237000FFFFFFFFFFF82020506C616E6E65724218
:10238000756666657242797465733A2000204672FC
:102390006565204D656D6F72793A2000436F6D70F1
:1023A000696C65643A2044656320313620323031EF
:1023B000380A00207C20417574686F723A202874B6
:1023C0006F6D6D69652C20456E64657220322F3407
:1023D000290A00323031382D30372D333100204C6E
:1023E00061737420557064617465643A200062758D
:1023F000676669782D312E312E780A004D61726C36
:10240000696E0020536F6674776172652052657340
:1024100065740A00205761746368646F67205265B1
:102420007365740A002042726F776E206F75742096
:1024300052657365740A002045787465726E616C2C
:102440002052657365740A00506F77657255700A83
:102450000073746172740A006175746F25692E6768
:10246000006572726F722077726974696E6720748A
:102470006F2066696C650A00456E6473746F7073D3
:1024800020256320256320256320256300205A3AF8
:102490000020593A0020583A00656E6473746F70DA
:1024A00073206869743A2000446F6E65207361760A
:1024B000696E672066696C652E0A004D3239007CB2
:1024C0003C3E5E2B3D3F2F5B5D3B2C2A225C005641
:1024D000652D6A65726B0056652D6A65726B0056D4
:1024E000652D6A65726B00567A2D6A65726B0056AF
:1024F0007A2D6A65726B0056792D6A65726B00568B
:10250000792D6A65726B0056792D6A65726B00567B
:10251000782D6A65726B0056782D6A65726B00566D
:10252000782D6A65726B004D6F74696F6E0045732C
:10253000746570732F6D6D004573746570732F6DC6
:102540006D005A73746570732F6D6D005A737465E6
:1025500070732F6D6D005973746570732F6D6D00FE
:102560005973746570732F6D6D0058737465707353
:102570002F6D6D005873746570732F6D6D004D6F06
:1025800074696F6E0053746570732F6D6D004A65CA
:10259000726B00416363656C65726174696F6E0094
:1025A00056656C6F6369747900436F6E74726F6CFB
:1025B0000046696C2E204469612E0046696C2E200D
:1025C0004469612E004F6666004F6E200045206909
:1025D0006E206D6D3300436F6E74726F6C004361DB
:1025E0006E6E6F7420656E746572207375626469B7
:1025F000723A2000022E2E000152656672657368E1
:10260000004D61696E00526573656E643A20006F1B
:102610006B0020746F6F206C6F6E6720657874722A
:102620007573696F6E2070726576656E7465640A85
:102630000020636F6C6420657874727573696F6EC7
:102640002070726576656E7465640A0062757379D0
:102650003A2070617573656420666F7220696E70D0
:1026600075740A00627573793A20706175736564D8
:1026700020666F7220757365720A00627573793A0D
:102680002070726F63657373696E670A004B494C03
:102690004C45442E20004B494C4C206361757365BA
:1026A0006420627920746F6F206D75636820696E95
:1026B0006163746976652074696D65202D2063758A
:1026C0007272656E7420636F6D6D616E643A200086
:1026D000506C656173652072657365740050524972
:1026E0004E5445522048414C544544005072696E46
:1026F0007465722068616C7465642E206B696C6C03
:1027000028292063616C6C6564210A00656E71750F
:10271000657565696E6720220000000000000000FA
:102720000000000000000048420000484200008015
:1027300040000000005761726E696E673A20486F72
:102740006D696E672042756D702044697669736F9C
:1027500072203C20310A000202040000A040000068
:10276000A0400000803F0000164300001643000018
:102770004843FFFFFF6F70656E206661696C65649A
:102780002C2046696C653A200043616E6E6F7420A0
:102790006F70656E2073756264697220006563688E
:1027A0006F3A00466C6F7700466C6F7700466C6F2F
:1027B000770046616E2073706565640046616E2027
:1027C00073706565640046616E20737065656400B2
:1027D0004265640042656400426564004E6F7A7A27
:1027E0006C65004E6F7A7A6C65004E6F7A7A6C6514
:1027F00000537065656400537065656400537065CF
:102800006564004D61696E00507265686561742091
:10281000504C4120456E64005072656865617420BB
:10282000504C4120426564005072656865617420B7
:10283000504C41005072657061726500507265685D
:102840006561742041425320456E64005072656892
:10285000656174204142532042656400507265688E
:102860006561742041425300507265706172650069
:102870004D343238005072656865617420504C41A7
:1028800000436F6F6C646F776E00507265686561AE
:1028900074204142530044697361626C6520737413
:1028A000657070657273004D38340053657420682C
:1028B0006F6D65206F666673657473004175746F24
:1028C00020686F6D6500473238004D6F7665206176
:1028D000786973004D61696E004D6F766520580010
:1028E0004D6F76652059004D6F7665205A0045780A
:1028F000747275646572004B494C4C45442E20003F
:1029000053544F505045442E20005072696E7465E8
:10291000722073746F707065642064756520746FC5
:10292000206572726F72732E204669782074686514
:10293000206572726F7220616E6420757365204D20
:1029400039393920746F20726573746172742E2066
:102950002854656D706572617475726520697320A5
:1029600072657365742E20536574206974206166E6
:102970007465722072657374617274696E67290A76
:10298000004E6F20436865636B73756D20776974C3
:1029900068206C696E65206E756D6265722C204CC6
:1029A000617374204C696E653A20004E6F20436855
:1029B00065636B73756D2077697468206C696E65EB
:1029C000206E756D6265722C204C617374204C69A9
:1029D0006E653A2000636865636B73756D206D6981
:1029E000736D617463682C204C617374204C696E44
:1029F000653A20004C696E65204E756D62657220E7
:102A00006973206E6F74204C617374204C696E651D
:102A1000204E756D6265722B312C204C61737420D1
:102A20004C696E653A20004D313130004D33310034
:102A300053442072656164206572726F720A0044AB
:102A40006F6E65207072696E74696E672066696C5E
:102A5000650A005654726176206D696E0056547294
:102A60006176206D696E005654726176206D696ED4
:102A700000566D696E00566D696E00566D696E0088
:102A8000566D6178204500566D6178204500566D81
:102A90006178204500566D6178205A00566D617846
:102AA000205A00566D6178205A00566D6178205981
:102AB00000566D6178205900566D61782059005696
:102AC0006D6178205800566D6178205800566D6110
:102AD000782058004D6F74696F6E00416D617820E9
:102AE0004500416D6178204500416D6178205A00B4
:102AF000416D6178205A00416D6178205900416D27
:102B00006178205900416D6178205800416D6178ED
:102B1000205800412D74726176656C00412D7472ED
:102B20006176656C00412D72657472616374004159
:102B30002D7265747261637400416363656C00415A
:102B40006363656C004D6F74696F6E0048617264F9
:102B5000636F6465642044656661756C74205365B9
:102B60007474696E6773204C6F616465640A00F465
:102B7000010000F401000064000000881300000060
:102B800000FA430000FA430000A0400000C84100E2
:102B900000A0420000A0420000C8430000BA425713
:102BA000726974696E6720746F2066696C653A207B
:102BB000006F70656E206661696C65642C204669E3
:102BC0006C653A20006F70656E206661696C6564A3
:102BD0002C2046696C653A200046696C6520736557
:102BE0006C65637465640A002053697A653A200055
:102BF00046696C65206F70656E65643A20002066DA
:102C0000696C653A2000646F696E6700667265736F
:102C100068004E6F772000454E4420535542524F76
:102C20005554494E450A002220706F7300222070CF
:102C30006172656E743A2200535542524F555449A1
:102C40004E452043414C4C207461726765743A22B2
:102C5000004B494C4C45442E2000747279696E67D4
:102C600020746F2063616C6C207375622D67636FD5
:102C700064652066696C6573207769746820746F79
:102C80006F206D616E79206C6576656C732E204DBA
:102C90004158206C6576656C2069733A0045727204
:102CA0006F723A00F4C85BC811241FBECFEFD0E4A6
:102CB000DEBFCDBF11E0A0E0B1E0E4E1FDEA01E05C
:102CC0000BBF02C007900D92A43DB107D9F722E1D6
:102CD000A4EDB1E001C01D92AE30B207E1F716E1FC
:102CE000C3E5D6E104C02197FE010E94CED2C235D1
:102CF000D107C9F70E94A9C30C947DD60C9400009B
:102D00002F923F924F925F926F927F928F929F92FB
:102D1000AF92BF92CF92DF92EF92FF920F931F93E9
:102D2000CF93DF93CDB7DEB7CF55D1090FB6F89467
:102D3000DEBF0FBECDBF11E01093FA0C80916B0C7B
:102D40008D3409F472C6843511F40C94712A8734D9
:102D500011F00C94B52A2090690C30906A0C24E094
:102D60002216310409F449C54CF437FC5AC6809147
:102D7000090142E0241631047CF529C05AE52516E4
:102D8000310409F48FC534F49CE12916310409F4A7
:102D900072C547C6ABE52A16310409F487C5BCE500
:102DA0002B16310409F03DC643E5242E41E0342EB4
:102DB00058E0E52E5DE0F52EA2EABAE0BDA7ACA78B
:102DC0006DE6C62E61E1D62E00E010E0AFC58111A0
:102DD0000C94BC2A0C94B72A882311F40C94B72ABB
:102DE0000E94B26D82E50E94CAAF882309F436C101
:102DF0000E944EAF4B015C0120E030E0A9010E942F
:102E00004CCE882309F456C12091A20A3091A30A1E
:102E10004091A40A5091A50A2CA73DA74EA75FA7F1
:102E20008091A60A9091A70AA091A80AB091A90A38
:102E300088AB99ABAAABBBAB2091140D3091150DAB
:102E40004091160D5091170D2CAF3DAF4EAF5FAFB7
:102E50008091180D9091190DA0911A0DB0911B0D34
:102E600088AF99AFAAAFBBAF6CA57DA58EA59FA576
:102E70000E944CCE81110DC028AD39AD4AAD5BAD7D
:102E800068A979A98AA99BA90E944CCE882309F434
:102E900011C111E092E02916310409F010E020E0A0
:102EA00030E0A901C501B4010E944CCE881F8827DB
:102EB000881F181759F020E030E040E85FEB2896B3
:102EC0002CAF3DAF4EAF5FAF28970AC080E090E0D7
:102ED000A0E8BFE328968CAF9DAFAEAFBFAF2897F9
:102EE0002CA53DA54EA55FA56CAD7DAD8EAD9FAD6E
:102EF0000E94EBD224966CAF7DAF8EAF9FAF24972C
:102F000028A939A94AA95BA968AD79AD8AAD9BAD5D
:102F10000E94EBD26B017C0124962CAD3DAD4EADF1
:102F20005FAD2497CA01B9010E94B2CE2B013C01CA
:102F3000A7019601C701B6010E94B2CE9B01AC0168
:102F4000C301B2010E94ECD20E949AD56CAB7DAB5A
:102F50008EAB9FAB20E030E040E05FE30E94B2CE5A
:102F60002B013C01A5019401C501B4010E94B2CE20
:102F70004B015C01A3019201C301B2010E94B2CED8
:102F80009B01AC01C501B4010E94EBD20E949AD50D
:102F900028962CAD3DAD4EAD5FAD28970E94B2CEC8
:102FA0004B015C01C701B60190582CA93DA94EA95F
:102FB0005FA90E94E6D3A50194010E94B2CE6B01E5
:102FC0007C012CAD3DAD4EAD5FAD6CA57DA58EA554
:102FD0009FA50E94ECD220E030E040E05FE30E9439
:102FE000B2CE9B01AC01C701B6010E94ECD22CA568
:102FF0003DA54EA55FA50E94EBD26B017C0128ADDB
:1030000039AD4AAD5BAD68A979A98AA99BA90E948F
:10301000ECD220E030E040E05FE30E94B2CE2B0132
:103020003C012CA93DA94EA95FA924966CAD7DADAC
:103030008EAD9FAD24970E94E6D3A50194010E9416
:10304000B2CE9B01AC01C301B2010E94ECD228A90F
:1030500039A94AA95BA90E94EBD214C089E40E9455
:10306000CAAF882329F00E944EAF6B017C0103C0D8
:10307000C12CD12C76018AE40E94CAAF8823E9F0E2
:103080000E944EAF6CAF7DAF8EAF9FAF20E030E0BF
:10309000A901C701B6010E944CCE81111BC020E0DE
:1030A00030E0A9016CAD7DAD8EAD9FAD0E944CCEE0
:1030B000811110C0EDE9FCE28CC320E030E0A901F1
:1030C000C701B6010E944CCE8823A1F31CAE1DAEF1
:1030D0001EAE1FAEA701960150582CA73DA74EA7C4
:1030E0005FA78CAD9DADAEADBFADB05888AB99AB11
:1030F000AAABBBABCA01B9010E94B2CE4B015C01C5
:1031000028A939A94AA95BA9CA01B9010E94B2CE6E
:103110009B01AC01C501B4010E94ECD20E949AD57A
:1031200064966CAF7DAF8EAF9FAF64972091A20A7B
:103130003091A30A4091A40A5091A50A28AF39AF53
:103140004AAF5BAFA701960168AD79AD8AAD9BAD83
:103150000E94ECD228966CAF7DAF8EAF9FAF2897C0
:103160008091A60A9091A70AA091A80AB091A90AF5
:1031700024968CAF9DAFAEAFBFAF24972CAD3DADC5
:103180004EAD5FADBC01CD010E94ECD268966CAF34
:103190007DAF8EAF9FAF68972091140D3091150DC4
:1031A0004091160D5091170D2C962CAF3DAF4EAFA0
:1031B0005FAF2C9728962CAD3DAD4EAD5FAD2897F7
:1031C0002C966CAD7DAD8EAD9FAD2C970E94EBD251
:1031D0006B017C018091180D9091190DA0911A0D31
:1031E000B0911B0D60968CAF9DAFAEAFBFAF609737
:1031F00068962CAD3DAD4EAD5FAD6897BC01CD017D
:103200000E94EBD24B015C012091AA0A3091AB0ADB
:103210004091AC0A5091AD0A6C962CAF3DAF4EAFC9
:103220005FAF6C9760911C0D70911D0D80911E0D0C
:1032300090911F0D0E94EBD26CAB7DAB8EAB9FAB20
:10324000A70196016CA57DA58EA59FA50E94B2CE73
:103250002B013C01A501940168A979A98AA99BA920
:103260000E94B2CE9B01AC01C301B2010E94ECD21C
:103270002B013C01A50194016CA57DA58EA59FA500
:103280000E94B2CE4B015C01A701960168A979A901
:103290008AA99BA90E94B2CE9B01AC01C501B401D1
:1032A0000E94EBD2A30192010E946BD36B017C01BF
:1032B00020E030E0A9010E944CCE87FF0AC02BED30
:1032C0003FE049EC50E4C701B6010E94ECD26B012B
:1032D0007C0132E02316310451F42BED3FE049EC40
:1032E00050E4C701B6010E94EBD26B017C0120E0E3
:1032F00030E0A901C701B6010E944CCE811126C061
:103300002C962CAD3DAD4EAD5FAD2C9768AD79AD33
:103310008AAD9BAD0E944CCE811118C060962CAD39
:103320003DAD4EAD5FAD609724966CAD7DAD8EAD7D
:103330009FAD24970E944CCE811108C0FBEDCF2E8B
:10334000FFE0DF2EF9ECEF2EF0E4FF2EA70196014F
:1033500064966CAD7DAD8EAD9FAD64970E94B2CE8C
:103360004B015C0120E030E0A9016CA97DA98EA988
:103370009FA90E944CCE8823D9F0A5019401C501D4
:10338000B4010E94B2CE4B015C012CA93DA94EA90B
:103390005FA9CA01B9010E94B2CE9B01AC01C5016F
:1033A000B4010E94ECD20E949AD54B015C010DC081
:1033B00020E030E0A901C501B4010E944CD587FF8F
:1033C00004C0B7FAB094B7F8B0942FE632E143E8FE
:1033D0005AE3C501B4010E944CCE87FF02C00C9491
:1033E000B72AC501B4010E948ED40E945FD42296F0
:1033F0007FAF6EAF2297672B31F481E090E0229689
:103400009FAF8EAF22974090AE0A5090AF0A609067
:10341000B00A7090B10A2296AEADBFAD2297BD0141
:1034200080E090E00E9451CE4B015C019B01AC0119
:10343000C701B6010E94E6D368AF79AF8AAF9BAFF0
:10344000A50194016CA97DA98EA99FA90E94E6D32C
:1034500064966CAF7DAF8EAF9FAF6497A30192016E
:103460006091200D7091210D8091220D9091230D7E
:103470000E94EBD2A50194010E94E6D3A0966CAF06
:103480007DAF8EAF9FAFA09728AD39AD4AAD5BAD94
:10349000CA01B9010E94B2CE20E030E040E05FE313
:1034A0000E94B2CE9B01AC0160E070E080E89FE337
:1034B0000E94EBD22C966CAF7DAF8EAF9FAF2C9756
:1034C0006C962CAD3DAD4EAD5FAD6C9729873A87BC
:1034D0004B875C874D865E866F86788A6091440153
:1034E00070914501072E000C880B990B0E9453CE5A
:1034F0002091290130912A0140912B0150912C01FA
:103500000E94B2CE2AE037ED43E25CE30E94B2CEE5
:1035100068A779A78AA79BA70E948F829B01AC010D
:1035200028533F4F4F4F5F4F60962CAF3DAF4EAF8C
:103530005FAF60974CA45DA46EA47FA42224239463
:10354000312C39E13CAB22964EAD5FAD229742154E
:10355000530509F41AC10E942B570E948F82DC0187
:10356000CB0160962CAD3DAD4EAD5FAD6097821B3B
:10357000930BA40BB50BB7FD10C00E948F829B016B
:10358000AC0128533F4F4F4F5F4F60962CAF3DAF7C
:103590004EAF5FAF60970E94D3933CA931503CABD4
:1035A000332309F441C028A939A94AA95BA92C965B
:1035B0006CAD7DAD8EAD9FAD2C970E94B2CE6B01F0
:1035C0007C019201A30168AD79AD8AAD9BAD0E94EB
:1035D000B2CEA70196010E94ECD27B018C01920130
:1035E000A3012C966CAD7DAD8EAD9FAD2C970E9446
:1035F000B2CE4B015C0128A939A94AA95BA968ADE3
:1036000079AD8AAD9BAD0E94B2CE9B01AC01C501E4
:10361000B4010E94EBD22B013C01C701D80188AB59
:1036200099ABAAABBBAB4DC0B10180E090E00E946A
:1036300051CE28AD39AD4AAD5BAD0E94B2CE4B0143
:103640005C010E94E1D36B017C01C501B4010E94C1
:103650008CD54B015C01A70196016CA57DA58EA5BB
:103660009FA50E94B2CE2B013C012CAD3DAD4EADCD
:103670005FADC501B4010E94B2CEA30192010E94C8
:10368000ECD22B013C01A50194016CA57DA58EA572
:103690009FA50E94B2CE4B015C012CAD3DAD4EAD5D
:1036A0005FADC701B6010E94B2CE9B01AC01C5015E
:1036B000B4010E94EBD268AB79AB8AAB9BAB49E11A
:1036C0004CAB9201A30128966CAD7DAD8EAD9FAD44
:1036D00028970E94ECD269837A838B839C8328A9E4
:1036E00039A94AA95BA968966CAD7DAD8EAD9FAD39
:1036F00068970E94ECD26D837E838F83988764964F
:103700002CAD3DAD4EAD5FAD649769857A858B85F7
:103710009C850E94ECD269877A878B879C87A096CC
:103720002CAD3DAD4EAD5FADA0976D857E858F858F
:1037300098890E94ECD26D877E878F87988B8091C5
:103740005201882321F0CE0101960E94C291E0909F
:103750002C0D18A219A21AA21BA2CE0180966C01F0
:103760008E01085D1F4F9E01235F3F4FAE01475FF3
:103770005F4FBE016B5F7F4F4F970E94037388239B
:1037800021F09FEF291A390ADECEE0902C0D1CA201
:103790001DA21EA21FA2DE0194966D018E01085D7E
:1037A0001F4F20E23DE04CE15DE068E17DE084E117
:1037B0009DE00E94037380E1E4E1FDE0A2EABAE04B
:1037C00001900D928A95E1F70C94B72A0E94DDAF23
:1037D000F80184918F010F5F1F4F8111F7CFEFE642
:1037E000F1E084918F010F5F1F4F882311F40C9437
:1037F000B72A0E94DDAFF801F4CF80E50E94CAAF7E
:10380000882329F00E940AAF6B017C0103C0C12C00
:10381000D12C760183E50E94CAAF882361F00E9413
:103820004EAF20E030E04AE754E40E94B2CE0E945E
:103830005FD46B017C010E94C6608091440D8111B0
:1038400005C060E085E891E00E9426400E948F82DA
:10385000C60ED71EE81EF91E0E948F82DC01CB0126
:103860008C199D09AE09BF09B7FD02C00C94B72A97
:103870000E94D393F1CF8091950A8770873011F021
:103880000C94C12A8FE40E94CAAF882319F00E94C9
:103890003EAF03C08FE40E9481AF81110C94B72A20
:1038A0000C94C12A1092D8010C94B72A1093D80115
:1038B0000C94B72A0E944EAF2B013C01133049F003
:1038C000D6012D913D914D915C910E94EBD22B013F
:1038D0003C01ECA5FDA52081318142815381C301CA
:1038E000B2010E94EBD24B015C012DEB37E346E8BD
:1038F00055EB0E944CD587FD21C02DEB37E346E800
:1039000055E3C501B4010E944CCE1816BCF01F5FF0
:10391000F4E0EF0EF11C2CA53DA52C5F3F4F3DA719
:103920002CA734E0C30ED11C143031F1F101819188
:103930001F010E94CAAF882351F3BCCF133051F44A
:103940004092AE0A5092AF0A6092B00A7092B10AE9
:1039500001E0DDCFA5019401D7016D917D918D919D
:103960009C910E94ECD2F7016083718382839383E0
:10397000812F0E94026FCBCF002309F44EC020E0BC
:1039800030E0A9016091AE0A7091AF0A8091B00A4F
:103990009091B10A0E94ECD22091820A3091830A60
:1039A0004091840A5091850A0E94B2CE0E9459D556
:1039B0006093C00D7093C10D8093C20D9093C30DA1
:1039C00090919E0D80919F0D981719F00E9468604C
:1039D00024C00E94C66080916F00982F927081FF72
:1039E00005C080916F008D7F80936F004091C00D66
:1039F0005091C10D6091C20D7091C30D4093FA01B9
:103A00005093FB016093FC017093FD01992329F011
:103A100080916F00826080936F000E94E86C0C942C
:103A2000B72A0E945E5B0C94B72A8091690C909132
:103A30006A0C8137910509F497C50CF0B9C08A3238
:103A4000910509F4B7C40CF05BC08831910509F405
:103A500064C2ACF58231910509F46CC6BCF497FFE1
:103A600002C00C946E2A823091050CF486C14197F5
:103A700011F00C946E2A60E081EA91E00E942640E9
:103A80005E985E9815985E980C94B72A85319105DA
:103A900009F428C23CF4449711F00C946E2AE9EB27
:103AA000F1E0E2C18631910509F420C2479711F097
:103AB0000C946E2AE091670CF091680C21C28C3155
:103AC000910509F4D9C264F48A31910509F42EC232
:103AD0000CF03AC21092E40D0E945E2F0C94B72AAB
:103AE0008E31910509F4D2C214F40C94B72A8F31A7
:103AF000910509F4A9C3809709F45AC30C946E2A5E
:103B00008C35910509F462C634F58135910509F4C7
:103B1000F6C58CF48C34910509F481C48D3491057B
:103B200009F481C48B34910511F00C946E2A0E9423
:103B30003A2F0C94B72A8335910509F4F7C50CF494
:103B4000F2C58435910509F4F5C58535910509F46B
:103B500024C60C946E2A8C36910509F4FDC4ACF48D
:103B60008936910509F42DC534F48836910509F498
:103B70005EC40C946E2A8A36910509F494C58B367E
:103B8000910509F4ACC50C946E2A8E36910509F4A2
:103B90007DC40CF457C58F36910509F48AC480376B
:103BA000910511F00C946E2A8AE892E00E947293BB
:103BB0008C3D910511F40C944E280CF05FC08139B6
:103BC000910509F48EC70CF58637910509F42EC7C7
:103BD00064F48337910509F4CDC00CF480C68537B1
:103BE000910509F414C70C946E2A8837910509F4DD
:103BF0006DC70CF468C78937910509F46DC78C3817
:103C0000910509F422C50C946E2A8B3C910511F4A0
:103C10000C945226ECF48E3B910509F430C534F433
:103C20008B39910509F4E8C40C946E2A883C9105FF
:103C300011F40C94E925893C910511F00C946E2A3D
:103C400073E5E72E71E0F72E02EF11E10C943926AF
:103C50008D3C910511F40C94E22614F40C946D261D
:103C60008E3C910511F40C944D27833D910511F084
:103C70000C946E2AEDE9F7E20C946F278A3941E043
:103C8000940709F46DC484F58D32A1E09A0711F40C
:103C90000C941C2994F4823E910511F40C94CA28CA
:103CA0008C32E1E09E0711F40C94F3288D3D9105D0
:103CB00011F00C946E2A0C945B288F32F1E09F0770
:103CC00011F40C94102A14F40C94BC29833631E0BE
:103CD000930709F44BC08039914011F00C946E2A7F
:103CE0000E94C6600C94B72A873F51E0950711F4F3
:103CF0000C94452AECF4843FB1E09B0799F14CF415
:103D00008C3A914011F00C946E2A0E94426F0C94F0
:103D1000B72A853F21E0920711F40C943F2A863F91
:103D2000914011F00C946E2A0E9429B90C94B72A84
:103D30008B3843E0940711F40C94B72A3CF48C3090
:103D4000924011F40C94502A0C946E2A803AB3E0FD
:103D50009B0709F46CC2873E934011F40C94592AD6
:103D60000C946E2AEDE9FCE20C942C2AEDE9FCE2BD
:103D70000C94162AE2EBF3E0EFC5A090670CB0902C
:103D8000680C80E50E94CAAF882359F00E940AAFF0
:103D90006B017C0111E0672B682B692B31F410E07B
:103DA00004C010E0C12CD12C760183E50E94CAAF7B
:103DB000882311F40C94FB2B0E944EAF20E030E0DE
:103DC0004AE754E40E94B2CE0E945FD46B017C01AA
:103DD00011110BC0672B682B692B39F4A114B104A6
:103DE00021F0D5018C91811102C010E001C011E0D9
:103DF0000E94C660112329F061E0C5010E94649F02
:103E000005C060E08EE891E00E94264083E0809348
:103E1000FA0C81E08093380DC114D104E104F1045F
:103E2000B1F00E948F82C60ED71EE81EF91E0E94B6
:103E30008F82DC01CB018C199D09AE09BF09B7FF48
:103E40000DC08091380D81110C94002C07C0809119
:103E5000380D882319F00E94D393F9CF0E94E748C8
:103E60001092380D0C94B72A84918F010F5F1F4F69
:103E7000882321F00E94DDAFF801F6CF1092621086
:103E800085E19EE00E946F858BE1E5E1FEE0DE01C9
:103E9000159601900D928A95E1F78091130E9091FD
:103EA000140E9C838B838DE791E09A83898340E095
:103EB00050E0BE016F5F7F4F80E090E00E9451A410
:103EC000CE0101960E945693EAEAF1E084918F01B7
:103ED0000F5F1F4F882311F40C94B72A0E94DDAFA7
:103EE000F801F4CF0E94E05D0C94B72A1092E40D23
:103EF0001092E50D0C94B72A803209F410823196A5
:103F000080818111F9CF40E061E08091670C909150
:103F1000680C0E94FABE0C94B72A8091E50D8111BD
:103F20001093E40D0E943A2F0C94B72A8091E50D6E
:103F3000882311F40C94B72A83E50E94CAAF81113B
:103F40000C94042C0C94B72A83E40E9481AF88233C
:103F500009F450C0E7EFF1E084918F010F5F1F4F2C
:103F6000882321F00E94DDAFF801F6CF8091B00FD9
:103F7000811103C0EAECF1E012C0BE016F5F7F4F18
:103F80008DEA9FE00E9436848E010F5F1F4FF8017B
:103F900081918F01882349F10E94DDAFF8CF849190
:103FA0008F010F5F1F4F882301F10E94DDAFF801E1
:103FB000F6CF25E7C22E22E0D22EE12CF12C20E014
:103FC0008091750A90E00E2C02C0959587950A9411
:103FD000E2F780FD9EC2BFEFEB1AFB0AE2E0CE0ED5
:103FE000D11CF5E0EF16F10459F78AE00E94DDAF2D
:103FF0000C94B72A8091E50D882339F08091E40D67
:10400000882319F0E4EDF1E003C0E6EEF1E028C00A
:1040100084918F010F5F1F4F882321F00E94DDAF35
:10402000F801F6CF60915E1070915F108091601082
:10403000909161104AE00E948CB28FE20E94DDAF45
:1040400060915A1070915B1080915C1090915D109E
:104050004AE00E948CB28AE00E94DDAF0C94B72A3D
:1040600084918F010F5F1F4F882311F40C94B72A9E
:104070000E94DDAFF801F4CF40E060E08091670C72
:104080009091680C0E94FABE0C94B72A8091E50DBD
:10409000882311F40C94B72A8DEA9FE00E9433BD67
:1040A0008DEA9FE00E9411841092E30D1092E20DC0
:1040B0008091E50D882311F40C94B72A0091670CC8
:1040C0001091680C0E9444A4B801CE0180960E9411
:1040D0005AA68C01892B11F40C94B72A68A179A1F6
:1040E0006115710511F06C5F7F4F19821C8222E00F
:1040F000A801CE0101960E94C089811102C0F12C55
:1041000014C0CE0101960E94B2A38823C1F361E0DE
:10411000CE0101960E941A84009789F325EEDC01F6
:104120002C931C820E94D8BAF82ECE0101960E94D0
:10413000D7AFF11003C0E4E1F2E022C0E6E0F2E024
:1041400084917F01BFEFEB1AFB0A882321F00E94C4
:10415000DDAFF701F5CFF80181918F01882319F0C8
:104160000E94DDAFF8CF8AE00E94DDAF10925E10B2
:1041700010925F1010926010109261100C94B72A88
:1041800084917F012FEFE21AF20A882321F00E9426
:10419000DDAFF701F5CFD8018D918D01882319F09E
:1041A0000E94DDAFF8CF8EE20E94DDAF0C94B72AFB
:1041B0008091E40D81110E94C6608091E50D8823F5
:1041C00011F40C94B72A80E50E94CAAF882319F035
:1041D0000E943EAF03C080E50E9481AF182F482F98
:1041E00061E08091670C9091680C0E94FABE83E5B3
:1041F0000E94CAAF882381F00E941AAFAB01BC01B4
:1042000040935E1050935F10609360107093611044
:104210008DEA9FE00E9427838091E50D882319F0A5
:1042200081E08093E40D11110C94B72A7BCE80912C
:10423000670C9091680C21E02093E30D40E060E072
:104240000E94FABE0C94B72A0E94EB2E7B018C01CF
:1042500020E831E541E050E00E943DD2C9016DE621
:1042600071E00E9487D24B015C01C801B70120E1D7
:104270003EE040E050E00E943DD2CA01B90128E191
:1042800030E040E050E00E943DD2762E672EC62EF0
:10429000D72E3CE3232E312C412C512CC801B701E1
:1042A000A20191010E943DD2F62EE72ECA01B9016A
:1042B000A20191010E943DD2CB018E010F5F1F4FE1
:1042C0008114910499F0EF92FF927F936F936F9214
:1042D0007F92BF92AF929F928F9284E592E09F93DC
:1042E0008F931F930F930E94E4CD13C0A114B104C8
:1042F000B1F0EF92FF927F936F936F927F92BF9294
:10430000AF9284E492E09F938F931F930F930E9448
:10431000E4CD0FB6F894DEBF0FBECDBF30C0CD28C0
:1043200079F0EF92FF927F936F936F927F9288E381
:1043300092E09F938F931F930F930E94E4CDE9CF58
:10434000892B69F0EF92FF927F936F9380E392E065
:104350009F938F931F930F930E94E4CDDACFEF9238
:10436000FF928CE292E09F938F931F930F930E9492
:10437000E4CD0F900F900F900F900F900F9060E092
:10438000C8010E94649FEDE9F7E284917F019FEFED
:10439000E91AF90A882321F00E94DDAFF701F5CF71
:1043A000B80188E692E00E9453378AE00E94DDAFB0
:1043B0000C94B72A83E50E94CAAF882311F40C94A9
:1043C000B72A0E942AAFE82E80E50E94CAAF882350
:1043D00011F40C94B72A0E942AAF182F87FF02C04D
:1043E0000C94B72A89E40E94CAAF882341F00E9446
:1043F0003EAF81110C94062EE9EFF4E00BC089E486
:104400000E9481AFF6CF3196A5E0E632FA0711F4AB
:104410000C94062E84911813F6CF0C94DB2D0E9479
:104420005E2F0C94B72A0E94732F0C94B72A88E64B
:1044300090E00E94CE7081110C94B72A8091750A89
:1044400083FF02C00C94B72A83E50E94CAAF882379
:10445000C9F00E944EAF0E9458D470931F0360931E
:104460001E0380E00E9407560E944EAF20E030E01D
:104470004AEA52E40E944CCE181624F00E94732F90
:104480000E94E7480E946E370C94B72A8EE40E947F
:10449000CAAF882311F40C94B72A0E941AAF609314
:1044A00004127093051280930612909307120C94D5
:1044B000B72A83E50E9481AF882359F083E50E94E3
:1044C000CAAF882319F00E942AAF01C080E0809310
:1044D000750AEDE9F7E284918F010F5F1F4F81119B
:1044E00003C0E3E8F2E004C00E94DDAFF801F3CFBF
:1044F00084918F010F5F1F4F882321F00E94DDAF51
:10450000F801F6CF8091750A811153CDEFE7F2E003
:1045100018C0BB24B394B20E222319F08CE20E947F
:10452000DDAFF60185919491FC0184918F010F5FBD
:104530001F4F882321F00E94DDAFF801F6CF2B2D0D
:104540004ACD84918F010F5F1F4F882309F44DCD11
:104550000E94DDAFF801F5CF109228010C94B72A24
:104560000E944A680C94B72A83E50E94CAAF811161
:1045700003C0EDE9F7E20DC00E942AAF8D3320F4AD
:1045800080932D010C94B72A8CE380932D010C9419
:10459000B72A84918F010F5F1F4F882321F00E945B
:1045A000DDAFF801F6CF40912D0150E060E070E002
:1045B00083E992E00E9400378AE00E94DDAF0C940C
:1045C000B72A89E690E00E94CE70811111C0EAE915
:1045D000F2E084918F010F5F1F4F882321F00E942A
:1045E000DDAFF801F6CF0E94B5538AE00E94DDAF3F
:1045F0001092FA0C0C941B2E83E50E94CAAF8823FC
:1046000011F40C94B72A0E942AAF182F8D3308F0AA
:104610001CE31093070D0E948F826B017C01212FF8
:1046200030E0A8EEB3E00E946AD2C60ED71EE81EA4
:10463000F91EC092030DD092040DE092050DF09288
:10464000060D95C70E94107192C78091750A83FD6F
:104650008EC783E50E94CAAF882309F488C70E94E9
:104660004EAF0E9458D46D37710514F06DE770E0BD
:1046700070931D0360931C030E94BB5578C7809103
:10468000750A83FD74C783E50E94CAAF25968FAF74
:10469000259781110C94152C82E50E94CAAF8111D7
:1046A0000C94152C64C780E50E94CAAF811106C026
:1046B00083E50E94CAAF882359F005C00E942AAF43
:1046C000811155C7F5CF0E941AAF6F3F710510F0E9
:1046D0006FEF70E070939F0560939E0548C780E57B
:1046E0000E94CAAF811105C010929F0510929E05CD
:1046F0003EC70E941AAF672B09F039C7F5CF0E9459
:1047000053560E94DD6110929F0510929E0568EE3F
:1047100073E080E090E00E94673F60E08FEB92E002
:104720000E94264024C71092D70121C781E08093C0
:10473000D7011DC783E50E94CAAF882399F00E9464
:104740004EAF20E030E04AE754E40E94B2CE0E942F
:104750005FD460932E0170932F018093300190936A
:10476000310105C788E50E9481AF81110C94B62DF7
:1047700089E50E9481AF81110C94B62D8AE50E94D3
:1047800081AF81110C94B62D85E40E9481AF811117
:104790000C94B62D0E94DD61EAC683E50E9481AFCC
:1047A000882309F4E4C60E944EAF20E030E04AE7D7
:1047B00054E40E94B2CE0E945FD46093FF0C7093C9
:1047C000000D8093010D9093020DD1C613E5C12E0B
:1047D00011E0D12E06E7E02E0AE0F02E10E0F601FF
:1047E00081916F010E9481AF882309F46EC013305C
:1047F00009F063C00E944EAF4B015C0120E030E045
:1048000040EA51E40E944CCE87FF4EC0A5019401BE
:104810006091820A7091830A8091840A9091850A3E
:104820000E94E6D32B013C019B01AC0160914A053B
:1048300070914B0580914C0590914D050E94B2CE30
:1048400060934A0570934B0580934C0590934D05FA
:10485000A301920160917A0570917B0580917C059E
:1048600090917D050E94B2CE60937A0570937B058E
:1048700080937C0590937D0560915A0570915B054E
:1048800080915C0590915D050E9451CEA30192013B
:104890000E94B2CE0E945FD460935A0570935B056C
:1048A00080935C0590935D058092820A9092830AC2
:1048B000A092840AB092850A08C00E944EAFD70128
:1048C0006D937D938D939C9313971F5FB4E0EB0ED4
:1048D000F11C143009F083CF0E94F93748C60E94BA
:1048E000C66083E50E94CAAF882309F496C80E9477
:1048F0001AAF6230710509F090C80E94A5978BE548
:104900000E94DDAF6091EE0C7091EF0C8091F00C85
:104910009091F10C42E00E9415B34091F20C50913D
:10492000F30C6091F40C7091F50C80ED92E00E9414
:104930001D374091F60C5091F70C6091F80C709176
:10494000F90C8DEC92E00E941D378DE50E94DDAFE1
:104950008AE00E94DDAF0BC684918F010F5F1F4F6D
:10496000882321F00E94DDAFF801F6CF60E082EAF3
:1049700093E00E94B16C60E08BE993E00E94B16C1F
:1049800061E080E993E00E94B16C61E080E893E02F
:104990000E94B16C60E087E793E00E94B16C61E037
:1049A0008DE693E00E94B16C60E083E693E00E94A4
:1049B000B16C60E08BE593E00E94B16C60E08DE447
:1049C00093E00E94B16C60E08FE393E00E94B16CD1
:1049D00060E080E393E00E94B16C60E082E293E0EB
:1049E0000E94B16C60E08CE093E00E94B16C60E0EA
:1049F0008BEF92E00E94B16C60E086EE92E00E9444
:104A0000B16C61E083ED92E00E94B16CB0C5809121
:104A1000670C9091680CFC012081211103C00E9459
:104A2000E748A5C560E00E94649FA1C50091670C9E
:104A30001091680C83E0D12C40E08150E9F0D8015E
:104A40009C91292F2B7F2134C1F711962C91213372
:104A5000A1F7913421F0953421F441E002C0DD2426
:104A6000D39498012E5F3F4F89012F5F3F4FF8018C
:104A700090819032C9F3E1CF442369F0EDE9F7E288
:104A800084917F012FEFE21AF20A882321F00E941D
:104A9000DDAFF701F5CFDD2069F0EDE7F4E08491BB
:104AA0007F013FEFE31AF30A882321F00E94DDAF74
:104AB000F701F5CFD8018D918D01882309F495CAAE
:104AC0000E94DDAFF7CF0E94636451C581E08093FF
:104AD000940A8093930A4BC51092940A1092930AF9
:104AE00046C583E50E94CAAF882319F00E941AAF19
:104AF00002C060E070E08B01112702301105D4F094
:104B0000EDE9FCE284918F010F5F1F4F811103C01B
:104B1000E1E8F4E004C00E94DDAFF801F3CF849136
:104B20008F010F5F1F4F882309F421C50E94DDAF5D
:104B3000F801F5CF88E40E94CAAF8823A9F00E944B
:104B40001AAF6A3A71053CF06530B1E07B072CF092
:104B500064E071E002C06AEA70E0F801EE0FFF1F46
:104B6000E359FD4F7183608386E40E94CAAF8823B6
:104B7000A9F00E941AAFF801EE0FFF1FEF58FD4F8A
:104B8000718360836F3F710519F014F06FEF70E06F
:104B900077FF02C060E070E07183608382E40E946E
:104BA000CAAF882309F4E3C40E941AAF65307105C7
:104BB00034F06F3671052CF06EE670E002C065E0EF
:104BC00070E0000F111FF801E759FD4F71836083FA
:104BD000CEC488EC90E00E94CE708111C8C484E4F9
:104BE0000E9481AF882309F441C00E944EAF6B013F
:104BF0007C0111E020E030E0A9010E944CCE81113F
:104C000001C010E01093480C20E030E0A901C7017A
:104C1000B6010E944CCE882349F10E944EAFE0912C
:104C2000C00224E0E29FF0011124EC5BF34F6083AB
:104C300071838283938320E030E0A9016091440C6A
:104C40007091450C8091460C9091470C0E944CCE7F
:104C500081110CC080E090E0A0E4B0E48093440CAB
:104C60009093450CA093460CB093470C0E94D05FE4
:104C70007EC4D7018D917D010E9481AF882349F0C8
:104C80000E944EAF0E945FD4F801608371838283DB
:104C900093830C5F1F4FF2E102301F0751F70E9410
:104CA0009E3765C463E5E62E61E0F62E0EE615E05C
:104CB000D7018D917D010E9481AF882339F00E9438
:104CC0004EAFF80160837183828393830C5F1F4F23
:104CD000F5E00E371F0761F74AC483E50E94CAAFAB
:104CE0008823A1F00E944EAF60936605709367051C
:104CF00080936805909369056093620570936305DE
:104D0000809364059093650510E001C011E080E593
:104D10000E94CAAF882359F00E944EAF6093660587
:104D200070936705809368059093690510E082E5AC
:104D30000E94CAAF882359F00E944EAF60936A0563
:104D400070936B0580936C0590936D0510E084E57E
:104D50000E94CAAF882359F00E944EAF609362054B
:104D600070936305809364059093650500C41123D7
:104D700009F4FDC34091660550916705609168058F
:104D80007091690589EA94E00E941D3740916A0597
:104D900050916B0560916C0570916D0586EA94E009
:104DA0000E941D3740916205509163056091640532
:104DB0007091650583EA94E00E941D378AE00E94A5
:104DC000DDAFD5C381E50E9481AF882351F00E94F9
:104DD0000AAF609382057093830580938405909356
:104DE000850583E50E9481AF882351F00E944EAF74
:104DF00060939A0570939B0580939C0590939D0505
:104E000084E50E9481AF882351F00E944EAF6093E9
:104E1000960570939705809398059093990588E57A
:104E20000E9481AF882351F00E944EAF60933E05EF
:104E300070933F05809340059093410589E50E945A
:104E400081AF882351F00E944EAF6093420570936A
:104E5000430580934405909345058AE50E9481AF00
:104E6000882351F00E944EAF60934605709347052A
:104E7000809348059093490585E40E9481AF88237B
:104E800009F475C30E944EAF60934A0570934B05B9
:104E900080934C0590934D056AC343E5C42E41E0D1
:104EA000D42E56E9E52E5AE0F52E10E0D6018D916C
:104EB0006D010E9481AF882351F00E944EAFF7012F
:104EC0006083718382839383812F0E94026F1F5FAF
:104ED000F4E0EF0EF11C133049F70C940D1D849192
:104EE0008F010F5F1F4F882321F00E94DDAFF80173
:104EF000F6CF83E50E9481AF882321F00E943EAF68
:104F000080935201E1EEF4E084918F010F5F1F4F17
:104F1000882321F00E94DDAFF801F6CF8091520185
:104F2000882319F0E9EDF4E002C0EDEDF4E084919E
:104F30008F010F5F1F4F811103C0E1EDF4E004C04A
:104F40000E94DDAFF801F3CF84918F010F5F1F4FF7
:104F5000882321F00E94DDAFF801F6CF20916D117A
:104F600030916E1140916F115091701160917911D3
:104F700070917A1180917B1190917C110E94ECD2FA
:104F8000AB01BC018FEC94E00E941D3720917111A0
:104F900030917211409173115091741160917D1193
:104FA00070917E1180917F11909180110E94ECD2BE
:104FB000AB01BC018CEC94E00E941D37209175116F
:104FC0003091761140917711509178116091811153
:104FD0007091821180918311909184110E94ECD282
:104FE000AB01BC0189EC94E00E941D37E1ECF4E0D8
:104FF00084918F010F5F1F4F882321F00E94DDAF46
:10500000F801F6CF20916D1130916E1140916F1122
:105010005091701160914601709147018091480153
:10502000909149010E94ECD2AB01BC018FEB94E05E
:105030000E941D37209171113091721140917311AE
:105040005091741160914A0170914B0180914C0113
:1050500090914D010E94ECD2AB01BC018CEB94E02D
:105060000E941D3720917511309176114091771172
:105070005091781160914E0170914F0180915001D3
:10508000909151010E94ECD2AB01BC0189EB94E0FC
:105090000E941D378AE00E94DDAF69C283E50E944D
:1050A000CAAF882309F463C20E941AAF7093450106
:1050B000609344015CC28DED90E00E94CE7081113E
:1050C00056C283E50E94CAAF811103C0EDE9F7E241
:1050D0003BC00091C00210E00E941AAF000F111FE8
:1050E000F801EE5BFE4F718360838091C00290E017
:1050F0008C01000F111F000F111F9801245E3E4FFD
:105100007901880F991FFC01EE5BFE4F6081718170
:10511000072E000C880B990B0E9453CE2AE037ED26
:1051200043E25CE30E94B2CEF801E759FE4E2081D3
:105130003181428153810E94B2CED7016D937D931C
:105140008D939C93139713C284918F010F5F1F4F10
:10515000882321F00E94DDAFF801F6CF85E40E949C
:10516000DDAF8091C002805D0E94DDAFE091C002A2
:10517000F0E0EE0FFF1FEE5BFE4F6081718181EF6B
:1051800094E00E943A3785E20E94DDAF8AE00E94F7
:10519000DDAFEDC180E50E9481AF882309F4E7C14E
:1051A0000E941AAF6B017C0183E50E94CAAF88237D
:1051B00021F00E941AAF8B0102C00FEF1FEFC80150
:1051C0000196039708F0D3C1D7FCD1C18C2DE9EF2C
:1051D000F4E09491891709F4EEC43196B5E0E63213
:1051E000FB07B9F7EBC483E50E94CAAF882319F027
:1051F0000E941AAF02C064E071E079A368A380E561
:105200000E94CAAF882339F00E941AAF6938E3E1DF
:105210007E0730F402C068EE73E07A83698304C0CD
:1052200088E893E19A838983BE01605E7F4FCE0157
:1052300001960E94DEC09BC185E40E94CAAF811125
:1052400010C080E50E9481AF882391F00E944EAF8C
:1052500060935C0270935D0280935E0290935F02A4
:1052600007C00E942AAF882361F3EDE9FCE271C018
:1052700089E40E9481AF882381F00E944EAF2CEA1E
:1052800035EC47E25EE30E94B2CE60936402709315
:105290006502809366029093670284E40E9481AF66
:1052A000882381F00E944EAF2CEA35EC47E25EE3A2
:1052B0000E94E6D360936002709361028093620261
:1052C00090936302EDE9F7E284918F010F5F1F4F26
:1052D000882321F00E94DDAFF801F6CF40915C02F7
:1052E00050915D0260915E0270915F028EE295E0E6
:1052F0000E941D372CEA35EC47E25EE360916402C0
:105300007091650280916602909167020E94E6D3D7
:10531000AB01BC018AE295E00E941D372CEA35EC16
:1053200047E25EE3609160027091610280916202E7
:10533000909163020E94B2CEAB01BC0186E295E07F
:105340000E941D378AE00E94DDAF11C10E94DDAFCF
:10535000F80184918F010F5F1F4F8111F7CFE2E3B6
:10536000F5E084918F010F5F1F4F882309F4FFC080
:105370000E94DDAFF801F5CF83E50E9481AF182FC1
:10538000882371F00E944EAF0E9458D4709321017F
:105390006093200121E0672B09F020E02093A00515
:1053A00080E50E9481AF882359F02091200130913F
:1053B0002101232B11F00E943EAF8093A005D7C09E
:1053C0001111D5C0EDE9F7E284918F010F5F1F4FF6
:1053D000882321F00E94DDAFF801F6CF8091A0056F
:1053E000882319F061E971E002C064E971E089E5A0
:1053F00095E00E945337609120017091210188E46B
:1054000095E00E943A37E4E4F5E084918F010F5F64
:105410001F4F882309F4ABC00E94DDAFF801F5CF20
:105420000E948368A4C00E94DDAFF80184918F01BF
:105430000F5F1F4F8111F7CFECE6F5E084918F01EC
:105440000F5F1F4F882309F492C00E94DDAFF8015F
:10545000F5CF0E94DDAFF80184918F010F5F1F4FE0
:105460008111F7CFEBE7F5E084918F010F5F1F4FBC
:10547000882309F47CC00E94DDAFF801F5CF0E94BB
:1054800029B980E00E948C6472C083E50E9481AFDC
:10549000882319F00E943EAF81270E948C6467C068
:1054A0008091E40D882309F462C081E08093E70DC8
:1054B0005EC081E08093090110923D0583E50E9462
:1054C000CAAF882339F00E943EAF811150C00E94BC
:1054D000DE974DC083E50E9481AFF7CF0E945E5BEF
:1054E00046C0F090690C0E94C660FF2029F1EDE9EA
:1054F000F7E284918F010F5F1F4F882321F00E94F4
:10550000DDAFF801F6CF84E50E94DDAF6F2D70E0CE
:1055100080E090E04AE00E948CB280E20E94DDAF21
:10552000EEE9F5E084918F010F5F1F4F8823F9F0BA
:105530000E94DDAFF801F6CF10922C0DEDE9F7E2F5
:1055400084918F010F5F1F4F882321F00E94DDAFF0
:10555000F801F6CF60912C0D70E08CE895E00E9488
:105560003A378AE00E94DDAF02C00E945E5B109273
:10557000FA0C0E94C1975FC30E94B26D0E94909680
:10558000F6CF0E94C6608091290190912A01A091D6
:105590002B01B0912C018093DB019093DC01A0934F
:1055A000DD01B093DE01809144019091450190931B
:1055B000DA018093D90184E690E0909345018093CD
:1055C000440111E01093940A88E50E9481AF282ECF
:1055D00089E50E9481AF082F8AE50E9481AF382EAD
:1055E000211004C0011104C0132505C0011102C01F
:1055F00010E001C0132D80E1E2EAFAE0A4E1BDE091
:1056000001900D928A95E1F782E50E94CAAF882346
:1056100069F00E944EAF6B017C0120E030E0A901EF
:105620000E944CCE882309F4ACC006C0C12CD12CFA
:1056300070EAE72E70E4F72E111105C0211003C0A7
:10564000002309F4AFC0C0921C0DD0921D0DE09252
:105650001E0DF0921F0DA70196016091AA0A70918C
:10566000AB0A8091AC0A9091AD0A0E944CCE87FFA4
:1056700088C02091A60A3091A70A4091A80A5091AB
:10568000A90A2CA73DA74EA75FA74090A20A509059
:10569000A30A6090A40A7090A50A809129019091B4
:1056A0002A01A0912B01B0912C0188AB99ABAAAB38
:1056B000BBABEDE2F7E285909590A590B490809217
:1056C000290190922A01A0922B01B0922C01C09244
:1056D000AA0AD092AB0AE092AC0AF092AD0A0E94FC
:1056E000D66E85E595E5A5E0B3E480932901909316
:1056F0002A01A0932B01B0932C014092A20A509250
:10570000A30A6092A40A7092A50A2CA53DA54EA5F5
:105710005FA52093A60A3093A70A4093A80A509346
:10572000A90A0E94D66EA70196016091AA0A7091FB
:10573000AB0A8091AC0A9091AD0A0E944CD5181624
:1057400094F48092290190922A01A0922B01B092A8
:105750002C01C092AA0AD092AB0AE092AC0AF09255
:10576000AD0A0E94D66E0E94C66088A999A9AAA90E
:10577000BBA98093290190932A01A0932B01B09398
:105780002C01111105C0211003C0011106C00AC06F
:1057900080E00E9454921123C1F381E00E94549250
:1057A000111102C0332019F082E00E9454920E942D
:1057B00000AF8091930A8093940A8091DB019091CD
:1057C000DC01A091DD01B091DE018093290190936D
:1057D0002A01A0932B01B0932C018091D9019091C3
:1057E000DA01909345018093440183E080931B018B
:1057F0000E94E86CBCCE11110C94F51E0C94EE1EA8
:105800000E94D3930C94171F0E941AAFAB01BC01E6
:1058100040935E1050935F1060936010709361101E
:105820008DEA9FE00E942783A2CE0E944EAF0E9485
:1058300058D46D3771050CF096C170931D036093B9
:105840001C030E94BB550E944EAF20E030E040EAAE
:1058500050E40E944CD5181614F40E943A2F60911F
:105860001C0370911D03072E000C880B990B0E94DE
:1058700053CE20917E0230917F0240918002509160
:1058800081020E944CD518161CF480EB92E002C0F5
:1058900081EA92E060E00E94264081E08093280146
:1058A00080912C0D8093C00218AE19AE1AAE1BAEBB
:1058B00068961CAE1DAE1EAE1FAE68971CAE299634
:1058C0001FAE29972CE32D962FAF2D973CE16996BB
:1058D0003FAF699746E461964FAF6197C12CD12CD9
:1058E00080E8E82E9FEBF92E412C512C320160917B
:1058F0001C0370911D03072E000C880B990B0E944E
:1059000053CE162F072F8CA798AB9601A7010E94A4
:105910004CCE882321F120917E0230917F0240916C
:1059200080025091810225968FAD2597612F702FAF
:10593000811109C08CA598A90E944CCE881F882788
:10594000881F8CAF12C08CA598A90E944CCE87FFEF
:105950000BC080912801882309F409CE60C81C2D52
:105960000D2DECA6F8AA01C01CAE0E948F826B011F
:105970007C01DC01CB0168962CAD3DAD4EAD5FAD39
:105980006897821B930BA40BB50BB7FD3DC0D701E5
:10599000C60188519C4FAF4FBF4F68968CAF9DAFEB
:1059A000AEAFBFAF68970E94B553EDE9F2E08491C6
:1059B0005F019FEFA91AB90A882321F00E94DDAF89
:1059C000F501F5CF4114510461047104B9F0D3011C
:1059D000C201805F984DAF4FBF4FBC01CD016C1924
:1059E0007D098E099F0928EE33E040E050E00E94D7
:1059F0003DD2CA01B9010E94F9B203C08FE30E94EF
:105A0000DDAF8AE00E94DDAF0E94D3930E948F82B7
:105A10006093FB0C7093FC0C8093FD0C9093FE0C38
:105A200020907E0230907F02A0918002ACABB091BA
:105A300081022196BFAF21979101AD01612F702F97
:105A40008CA598A90E94EBD24B015C0120E030E0CC
:105A5000A9010E944CD587FF04C0B7FAB094B7F8EB
:105A6000B094411451046104710459F420E030E011
:105A700040E85FE3C501B4010E944CCE87FF0DC032
:105A80000AC020E030E040E450E4C501B4010E94C7
:105A90004CD5181614F426013701ECADEE2309F4A9
:105AA00046C028AD39AD4AAD5BAD21153105410584
:105AB000510541F0D701C601821B930BA40BB50B16
:105AC000B7FD35C091014CA921965FAD219729966C
:105AD0006FAD29972D967FAD2D9769968FAD6997FC
