:100000000C944D160C9477160C9477160C94771666
:100010000C9477160C9477160C9477160C9477162C
:100020000C9477160C9477160C9477160C9477161C
:100030000C9477160C941E360C9477160C94771645
:100040000C9477160C94F96A0C945B890C947716CF
:100050000C9494B50C9477160C9477160C94771630
:100060000C9477160C9477160C9477160C947716DC
:100070000C9477160C9477160C9477160C947716CC
:100080000C9477160C9477160C9477163C6F3F6F90
:10009000326F366F566F566F436F476F4D6F516FAC
:1000A000C174C674CB74D57403750375DF74E774BB
:1000B000EF74F974C588F788F98808890D89C388B1
:1000C0001889084AD73B3BCE016E84BCBFFDC12FC7
:1000D0003D6C74319ABD56833DDA3D00C77F11BE39
:1000E000D9E4BB4C3E916BAAAABE000000803F053C
:1000F000A84CCDB2D44EB93836A9020C50B991866D
:1001000088083CA6AAAA2ABE000000803F004E41F3
:100110004E494E495459494E46CDCCCC3D0AD72381
:100120003C17B7D13877CC2B329595E6241FB14FC9
:100130000A000020410000C84200401C4620BCBE0E
:100140004CCA1B0E5AAEC59D74434F4D4D554E497A
:10015000434154494F4E0044525952554E00455266
:10016000524F525300494E464F004543484F0047B7
:10017000322F47332062616420706172616D657453
:100180006572730A00536C6565702E2E2E00436CE9
:1001900069636B20746F20726573756D652E2E2EEA
:1001A000004E6F206D6F76652E00456E6420666987
:1001B0006C65206C6973740A00426567696E20661D
:1001C000696C65206C6973740A00286E6F2066691B
:1001D0006C6529005344207072696E74696E6720E3
:1001E0006279746520004E6F7420534420707269E8
:1001F0006E74696E670A0043757272656E7420666C
:10020000696C653A200046696C652064656C6574AC
:1002100065643A0044656C6574696F6E2066616957
:100220006C65642C2046696C653A20002569730072
:1002300025696D20256973002569682025696D2071
:1002400025697300256964202569682025696D206A
:10025000256973002569792025696420256968204E
:1002600025696D20256973005072696E7420746968
:100270006D653A20006A0165015E01570149016F11
:1002800066660044454255473A004B494C4C45444C
:100290002E20004D3131332053006F6B0020573A30
:1002A0000042656420636F6F6C696E672E2E2E00AE
:1002B0004265642068656174696E672E2E2E004564
:1002C0006E646572203344204F66662E002C200039
:1002D0002C2000544845524D414C5F50524F5445DC
:1002E0004354494F4E004155544F5245504F52547C
:1002F0005F53445F53544154555300454D45524755
:10030000454E43595F504152534552004341534576
:100310005F4C494748545F4252494748544E455301
:100320005300544F47474C455F4C4947485453008E
:10033000534F4654574152455F504F574552004224
:1003400055494C445F50455243454E54004C455628
:10035000454C494E475F44415441005A5F50524F0B
:100360004245004155544F4C4556454C005052496A
:100370004E545F4A4F420050524F4752455353002C
:100380004155544F5245504F52545F54454D5000C3
:10039000564F4C554D455452494300454550524FD8
:1003A0004D0053455249414C5F584F4E5F584F46A0
:1003B00046004649524D574152455F4E414D453AE0
:1003C0004D61726C696E20312E312E3920284769BB
:1003D000746875622920534F555243455F434F441B
:1003E000455F55524C3A68747470733A2F2F6769A1
:1003F000746875622E636F6D2F4D61726C696E4605
:1004000069726D776172652F4D61726C696E2050F3
:10041000524F544F434F4C5F56455253494F4E3AFB
:10042000312E30204D414348494E455F5459504587
:100430003A456E6465722033442045585452554401
:1004400045525F434F554E543A3120555549443A31
:1004500063656465326132662D343161322D343723
:1004600034382D396231322D633535633632663397
:10047000363766660A002F2F20004D313435205361
:100480003C696E6465783E206F7574206F662072DB
:10049000616E67652028302D31290A002054002024
:1004A0005200416363656C65726174696F6E3A20D6
:1004B0005000205A00205900580020204D61783A01
:1004C0002000205A00205900580020204D696E3A23
:1004D00020004F6E20004F666600536F66742065E3
:1004E0006E6473746F70733A200020466C6F773AB5
:1004F000200000010F150E12FFFFFFFF16170E134D
:10050000FFFFFFFF03021A14FFFFFFFFFFFFFF0CB7
:1005100004FFFFFF01000EFFFFFF0C190DFF182065
:10052000643A0020693A0020703A00496E76616CA6
:1005300069642065787472756465720A0043290ADB
:100540000061626C656420286D696E2074656D7051
:100550002000436F6C642065787472756465732045
:1005600061726520004E6F2063617365206C69675E
:1005700068740A00454550524F4D206469736162AA
:100580006C65640A0041637469766520457874720D
:10059000756465723A2000496E76616C6964206505
:1005A000787472756465720A0057726974696E674F
:1005B00020746F2066696C653A20006F70656E204C
:1005C0006661696C65642C2046696C653A20006F31
:1005D00070656E206661696C65642C2046696C6587
:1005E0003A200046696C652073656C6563746564C8
:1005F0000A002053697A653A200046696C65206FCD
:1006000070656E65643A20002066696C653A20006A
:10061000646F696E67006672657368004E6F77205D
:1006200000454E4420535542524F5554494E450AB9
:10063000002220706F73002220706172656E743A20
:100640002200535542524F5554494E452043414C88
:100650004C207461726765743A22004B494C4C45DA
:10066000442E2000747279696E6720746F20636174
:100670006C6C207375622D67636F64652066696CAE
:100680006573207769746820746F6F206D616E796F
:10069000206C6576656C732E204D4158206C657614
:1006A000656C2069733A004572726F723A006F7020
:1006B000656E206661696C65642C2046696C653ADC
:1006C000200043616E6E6F74206F70656E207375CD
:1006D0006264697220006563686F3A0024F4D43064
:1006E00050C38E20C2A24017828B7011127A910DD6
:1006F000816CD90AA861E108C758660761514306B1
:100700001E4B5D05C145A7041A411104093D98031C
:10071000713931034036DB0265339102D430540223
:10072000802E1D02632CEE01752AC501B028A001A0
:10073000102781018F2564012B244B01E022340115
:10074000AC211F018D200D01801FFC00841EED00D7
:10075000971DDF00B81CD200E61BC600201BBC00A2
:10076000641AB200B219A8000A19A0006A18990008
:10077000D117910040178B00B516840031167E000A
:10078000B31579003A157300C7146F0058146A0046
:10079000EE1366008813630025135E00C7125B002A
:1007A0006C12570015125400C111510070114F0006
:1007B00021114B00D61049008D104700461044000F
:1007C00002104200C00F4000800F3E00420F3C006C
:1007D000060F3B00CB0E3800930E37005C0E350041
:1007E000270E3400F30D3200C10D3100900D3000A2
:1007F000600D2E00320D2D00050D2C00D90C2B00A4
:10080000AE0C2900850C29005C0C2700350C270054
:100810000E0C2600E80B2400C40B2400A00B2300C0
:100820007D0B23005A0B2100390B2100180B2000EF
:10083000F80A1F00D90A1E00BB0A1E009D0A1D00EF
:10084000800A1D00630A1C00470A1B002C0A1B00BB
:10085000110A1A00F7091A00DD091900C409190064
:10086000AB091900920917007B09180063091700EA
:100870004C09160036091600200916000A09150051
:10088000F5081500E0081400CC081400B80814009E
:10089000A4081400900813007D0812006B081300D0
:1008A00058081200460812003408110023081100ED
:1008B0001208110001081100F0071000E0071000F5
:1008C000D0071000C0071000B0070F00A1071000EC
:1008D00091070E0083070F0074070F0065070E00D5
:1008E00057070E0049070E003B070D002E070E00AC
:1008F00020070D0013070D0006070D00F9060C0078
:10090000ED060D00E0060C00D4060C00C8060C0035
:10091000BC060C00B0060C00A4060B0099060C00E7
:100920008D060B0082060B0077060B006C060B0091
:1009300061060A0057060B004C060A0042060A0030
:1009400038060A002E060A0024060A001A060A00C3
:100950001006090007060A00FD050900F405090054
:10096000EB050900E2050900D9050900D0050900D9
:10097000C7050900BE050900B5050800AD0508005A
:10098000A50509009C050800940508008C050800D1
:10099000840508007C050800740508006C05070044
:1009A000650508005D050700560508004E050700AF
:1009B0004705070040050800380507003105070016
:1009C0002A050700230507001C0506001605070079
:1009D0000F0507000805060002050700FB040600D6
:1009E000F5040700EE040600E8040600E204070030
:1009F000DB040600D5040600CF040600C904060087
:100A0000C3040600BD040600B7040600B1040500D7
:100A1000AC040600A6040600A00405009B04060022
:100A200095040500900406008A040500850405006D
:100A3000800406007A0405007504050070040500B2
:100A40006B04050066040500610405005C040500F4
:100A500057040500520405004D0405004804050034
:100A6000430405003E0404003A0405003504050073
:100A7000300404002C0405002704040023040500AE
:100A80001E0404001A0404001604050011040400E6
:100A90000D0404000904050004040400000404001B
:100AA000FC030400F8030400F4030400F003040052
:100AB000EC030400E8030400E4030400E003040082
:100AC000DC030400D8030400D4030400D0030400B2
:100AD000CC030400C8030300C503030024F404D9B5
:100AE000201BC40C5C0E9804C4095F0265077101E9
:100AF000F405F900FB04B30048048700C103690052
:100B00005803550003034500BE023A008402310039
:100B100053022A002902250004022000E4011C00DF
:100B2000C8011900AF0117009801140084011300D7
:100B3000710110006101100051010E0043010D0010
:100B400036010B002B010B0020010B0015010900E1
:100B50000C01090003010800FB000800F300080075
:100B6000EB000700E4000600DE000600D8000600E7
:100B7000D2000600CC000500C7000500C200050039
:100B8000BD000400B9000400B5000400B100040079
:100B9000AD000400A9000400A5000300A2000300AA
:100BA0009F0004009B0003009800030095000200D2
:100BB00093000300900003008D0002008B000300EF
:100BC0008800020086000200840003008100020009
:100BD0007F0002007D0002007B000200790002001D
:100BE000770001007600020074000200720001002C
:100BF000710002006F0002006D0001006C00020035
:100C00006A0001006900020067000100660001003F
:100C10006500010064000200620001006100010043
:100C2000600001005F0002005D0001005C00010047
:100C30005B0001005A00010059000100580001004A
:100C4000570001005600010055000100540001004A
:100C50005300000053000100520001005100010048
:100C6000500001004F0001004E0000004E00010046
:100C70004D0001004C0001004B0000004B00010042
:100C80004A0001004900010048000000480001003E
:100C9000470001004600000046000100450000003A
:100CA0004500010044000100430000004300010032
:100CB000420000004200010041000000410001002C
:100CC000400001003F0000003F0001003E00000026
:100CD0003E0001003D0000003D0001003C0000001E
:100CE0003C0000003C0001003B0000003B00010014
:100CF0003A0000003A00010039000000390001000C
:100D00003800000038000000380001003700000003
:100D100037000100360000003600000036000100F8
:100D200035000000350000003500010034000000EF
:100D300034000000340001003300000033000000E4
:100D400033000100320000003200000032000100D8
:100D500031000000310000003100010030000000CF
:100D600030000000300001002F0000002F000000C4
:100D70002F0000002F0001002E0000002E000000B8
:100D80002E0001002D0000002D0000002D000000AD
:100D90002D0001002C0000002C0000002C000000A1
:100DA0002C0001002B0000002B0000002B00000095
:100DB0002B0001002A0000002A0000002A00000089
:100DC0002A0001002900000029000000290000007D
:100DD0002900000029000100280000002800000070
:100DE0002800000028000000280001002700000063
:100DF0002700000027000000270000002700010056
:100E0000260000002600000026000000260000004A
:100E1000260001002500000025000000250000003C
:100E2000250000002500000025000100240000002E
:100E30002400000024000000240000002400010021
:100E40002300000023000000230000002300000016
:100E50002300000023000000230001002200000006
:100E600022000000220000002200000022000000FA
:100E700022000100210000002100000021000000EC
:100E800021000000210000002100000021000100DD
:100E900020000000200000002000000020000000D2
:100EA00020000000200000002000000020000100C1
:100EB0001F0000001F0000001F0000001F000000B6
:100EC0001F0000001F0000001F0001001E000000A6
:100ED0001E0000001E0000001E000000043700007D
:100EE0001E290000511B00005810000010090000CE
:100EF000CC04000078020000410100006265640A31
:100F0000002C2073797374656D2073746F70706535
:100F10006421204865617465725F49443A2000206D
:100F2000746F6F206C6F6E6720657874727573696B
:100F30006F6E2070726576656E7465640A0020635A
:100F40006F6C6420657874727573696F6E2070724F
:100F50006576656E7465640A0000060900FE070187
:100F6000920321207FFF07FF07FF0000000600001B
:100F70000107070602008080808080008003020253
:100F8000060105A0A00507070600005050F850F81C
:100F900050500507070600002078A07028F02005B3
:100FA0000707060000C0C81020409818050707066C
:100FB00000006090A040A89068020303060104C0EE
:100FC0004080030707060100204080808040200306
:100FD0000707060100804020202040800505050607
:100FE000000120A870A8200505050600012020F8B2
:100FF00020200203030602FFC04080050101060015
:1010000003F8020202060200C0C005050506000141
:10101000081020408005070706000070888888882F
:10102000887003070706010040C040404040E005CB
:101030000707060000708808708080F8050707061B
:101040000000F81020100808F0050707060000103F
:10105000305090F81010050707060000F880F008DF
:10106000088870050707060000708080F088887087
:10107000050707060000F8081020202020050707B4
:1010800006000070888870888870050707060000D1
:1010900070888878080870020505060200C0C00044
:1010A000C0C00206060602FFC0C000C040800407A0
:1010B00007060000102040804020100503030600B2
:1010C00002F800F8040707060100804020102040C5
:1010D000800507070600007088081020002005071B
:1010E0000706000070880868A8A8700507070600B2
:1010F00000708888F8888888050707060000F0884F
:1011000088F08888F00507070600007088808080D6
:101110008870050707060000F08888888888F00531
:101120000707060000F88080F08080F805070706B2
:101130000000F88080F080808005070706000070BE
:101140008880B8888870050707060000888888F8B6
:101150008888880107070602008080808080808060
:1011600005070706000038101010109060050707EB
:101170000600008890A0C0A0908805070706000020
:10118000808080808080F805070706000088D8A846
:10119000888888880507070600008888C8A8988876
:1011A000880507070600007088888888887005070A
:1011B00007060000F08888F0808080050707060099
:1011C0000070888888A89068050707060000F088E6
:1011D00088F0A090880507070600007880807008D6
:1011E00008F0050707060000F82020202020200531
:1011F0000707060000888888888888700507070622
:101200000000888888888850200507070600008825
:1012100088888888A850050707060000888850201D
:1012200050888805070706000088888850202020FD
:10123000050707060000F80810204080F80307079C
:10124000060100E08080808080E005050506000141
:101250008040201008030707060100E0202020201E
:1012600020E0050303060004205088050101060064
:1012700000F802020206020580400505050600008E
:1012800070087888780507070600008080B0C88855
:1012900088F0050505060000708080887005070746
:1012A000060000080868988888780505050600008B
:1012B0007088F880700507070600003048E040405D
:1012C00040400506060600FF70888878087005070C
:1012D000070600008080B0C88888880107070602DA
:1012E00000800080808080800308080601FF2000C5
:1012F00020202020A040040707060000808090A046
:10130000C0A090030707060100C04040404040E0F5
:10131000050505060000D0A8A8A8A8050505060033
:1013200000B0C88888880505050600007088888890
:10133000700506060600FFF08888F0808005060626
:101340000600FF788888780808050505060000B0C3
:10135000C880808005050506000070807008F004D4
:1013600007070600004040E0404040300505050604
:101370000000888888986805050506000088888828
:1013800050200505050600008888A8A85005050519
:1013900006000088502050880506060600FF888851
:1013A00088780870050505060000F8102040F8034D
:1013B0000707060100204040804040200107070643
:1013C0000200808080808080800307070601008003
:1013D0004040204040800502020600026890000064
:1013E00000060000FFE0FFD11000FFFEFFD0FFE08D
:1013F000FFC1FFD1E240A0C8A6A22FF80023812799
:10140000AC00AFFF64A5FF64FF64A4FFD0FFFE4DF6
:101410006F766520302E316D6D004D6F7665203111
:101420006D6D004D6F76652031306D6D004D6F76BE
:10143000652061786973004578747275646572001F
:101440004D6F7665205A004D6F76652059004D6FBF
:1014500076652058004578747275646572004D6F2A
:101460007665205A004D6F76652059004D6F766580
:101470002058005072657061726500526573746F18
:101480007265206661696C736166650046696C61AE
:101490006D656E74004D6F74696F6E0054656D708C
:1014A00065726174757265004D61696E0050726598
:1014B000686561742041425320636F6E660050720C
:1014C000656865617420504C4120636F6E66005002
:1014D00049442D44005049442D44005049442D496D
:1014E000005049442D49005049442D500050494472
:1014F0002D500020082046616374002008204661BA
:101500006374002008204D6178002008204D617828
:10151000002008204D6178002008204D696E0020D1
:1015200008204D696E002008204D696E004F6666E8
:10153000004F6E20004175746F74656D70004661D8
:101540006E2073706565640046616E20737065651A
:10155000640046616E2073706565640042656400D6
:1015600042656400426564004E6F7A7A6C65004E95
:101570006F7A7A6C65004E6F7A7A6C6500436F6E95
:1015800074726F6C00426564004265640042656479
:10159000004E6F7A7A6C65004E6F7A7A6C65004EF9
:1015A0006F7A7A6C650046616E20737065656400C1
:1015B00046616E2073706565640046616E207370CD
:1015C0006565640054656D7065726174757265005F
:1015D00025753A2530327500253032753A2530327E
:1015E000750025756420253032753A253032750036
:1015F000202020202020005A0059002020202000F8
:101600005800092000000000000000000000000059
:1016100000003FFFF000000000000000000000009C
:101620000000380070000000000000000000000012
:10163000000030FC3000000000000000000000004E
:10164000000020FC1000000000000000000000006E
:1016500000002078100000000000000000000000E2
:101660000000203010000006000000000000000014
:1016700000002C00D0FE000200001FE00000082047
:1016800080002E31D042000200003FF00000041024
:1016900040002F7BD048000200003FF00000041003
:1016A00040002F7BD048DC3E3CEE3FF0000008209D
:1016B00080002E31D078624242321FE0000010419B
:1016C00000002C00D048424242201FE0000020824F
:1016D00000002030104842427E203FF0000020826F
:1016E000000020781040424240203FF000001041AE
:1016F000000020FC1042424642203FF0000008203B
:10170000800030FC30FEE73B3CF80FC000000000DA
:101710000000380070000000000007800000FFFF9C
:10172000C0003FFFF0000000000003000000FFFFCA
:10173000C0000000000000000000000000000000E9
:1017400000003FFFF000000000000000000000006B
:1017500000003800700000000000000000000000E1
:10176000000033873000000000000000000000008F
:10177000000027879000000000000000000000002B
:1017800000002F87D00000000000000000000000D3
:1017900000002F87D00000060000000000000000BD
:1017A00000002F03D0FE000200001FE00000082010
:1017B000800020301042000200003FF000000410C2
:1017C000400020781048000200003FF000000410A4
:1017D000400020781048DC3E3CEE3FF0000008203E
:1017E000800020301078624242321FE00000104139
:1017F00000002F03D048424242201FE00000208218
:1018000000002F87D04842427E203FF00000208217
:1018100000002F87D040424240203FF0000010419E
:10182000000027879042424642203FF000000820F7
:101830008000338730FEE73B3CF80FC0000000001B
:101840000000380070000000000007800000FFFF6B
:10185000C0003FFFF0000000000003000000FFFF99
:10186000C000000000456E6465722033442052655C
:101870006164792E005072696E74696E672E2E2E27
:10188000005072696E7420706175736564005072E7
:10189000696E742061626F72746564004D3231004C
:1018A0004E6F2053442063617264004368616E6729
:1018B000652053442063617264004D3231005072E0
:1018C000696E742066726F6D2053440053746F709C
:1018D000207072696E7400526573756D6520707248
:1018E000696E7400496E69742E20534420636172DE
:1018F00064005061757365207072696E7400436F87
:101900006E74726F6C005072657061726500547510
:101910006E6500496E666F2073637265656E004286
:1019200065642068656174696E67206661696C65CD
:10193000640048656174696E67206661696C6564FE
:101940000045312048656174696E67206661696C85
:1019500065640048656174696E67206661696C65DD
:10196000640070012C0190012701B0012201C00127
:101970001D01F00118011002130130020E01600276
:10198000090190020401C002FF000003FA004003B5
:10199000F5008003F000D003EB002004E6007004A3
:1019A000E100E004DC004005D700C005D20040069D
:1019B000CD00D006C8008007C3003008BE00F00884
:1019C000B900C009B400B00AAF00B00BAA00D00C37
:1019D000A500000EA000500F9B00C01096005012F2
:1019E000910000148C00C0158700B0178200B01958
:1019F0007D00D01B7800001E730040206E009022F6
:101A00006900F024640040275F0090295A00E02B11
:101A10005500102E500020304B0010324600E033AD
:101A2000410090353C001037370070383200A03943
:101A30002D00B03A2800A03B2300603C1E00103D62
:101A40001900903D1400103E0F00703E0A00C03E89
:101A50000500003F0000403FFBFF803FF6FFC03F16
:101A6000F1FF453120544845524D414C2052554ECE
:101A7000415741590042454420544845524D414C3C
:101A80002052554E4157415900546865726D616C42
:101A90002052756E61776179004531204572723A46
:101AA000204D415854454D50004572723A204D41E9
:101AB0005854454D5020424544004D415854454DE1
:101AC000502074726967676572656400453120450E
:101AD00072723A204D494E54454D50004572723A4B
:101AE000204D494E54454D5020424544004D494EED
:101AF00054454D5020747269676765726564004D86
:101B0000383420582059205A204500202F002042E8
:101B1000403A0020403A0000060900FE00000000A4
:101B20000001090008FE000005080806000040F05A
:101B3000C88888987810050808060000C0F88888CA
:101B4000888888F80505050600012030F830200552
:101B500008080600002070F820202020E005090970
:101B60000600FF2070A8A8B888887020050909061B
:101B700000FFE080C0B0A828302828050909060029
:101B8000FFF8A88888888888A8F8050A0A0600FE51
:101B9000205050505088A8A8887003030306000303
:101BA00040A04000002100240027002A000000225D
:101BB00000250028002B000000200023002600291B
:101BC00000020202020202020204040404040404E9
:101BD00004030303030303030301010101010101E2
:101BE0000101020408102040800102040810204076
:101BF0008001020408102040808040201008040268
:101C000001000000010200000000000000040308C1
:101C100007000000000000000000000000000000BD
:101C2000004D3234004D323320257300556E6B6EFB
:101C30006F776E20636F6D6D616E643A2022005382
:101C4000442063617264206F6B0A006F70656E528E
:101C50006F6F74206661696C65640A00766F6C75DD
:101C60006D652E696E6974206661696C65640A0031
:101C7000534420696E6974206661696C0A002028EB
:101C80006D6D290020440020490020204D33303163
:101C90002050005049442073657474696E67733A2C
:101CA0000A0020460020420020480020204D313408
:101CB000352053004D6174657269616C20686561FF
:101CC00074757020706172616D65746572733A0A23
:101CD00000205A0020590020204D32303620580074
:101CE000486F6D65206F66667365743A0A0020451B
:101CF00000205A0020590020580020540020530092
:101D000020204D32303520510020453C6D61785FF8
:101D1000655F6A65726B3E0020583C6D61785F7844
:101D20005F6A65726B3E20593C6D61785F795F6ACE
:101D300065726B3E205A3C6D61785F7A5F6A6572AE
:101D40006B3E00416476616E6365643A20513C6D80
:101D5000696E5F7365676D656E745F74696D655FED
:101D600075733E20533C6D696E5F66656564726194
:101D700074653E20543C6D696E5F74726176656C6B
:101D80005F66656564726174653E00205400205290
:101D90000020204D323034205000416363656C6573
:101DA000726174696F6E2028756E6974732F733257
:101DB000293A20503C7072696E745F616363656C90
:101DC0003E20523C726574726163745F6163636547
:101DD0006C3E20543C74726176656C5F6163636530
:101DE0006C3E0A00204500205A0020590020204D5A
:101DF0003230312058004D6178696D756D20416336
:101E000063656C65726174696F6E2028756E6974A4
:101E1000732F7332293A0A00204500205A002059B6
:101E20000020204D3230332058004D6178696D75A7
:101E30006D206665656472617465732028756E69CE
:101E400074732F73293A0A00204500205A00205944
:101E50000020204D39322058005374657073207073
:101E6000657220756E69743A0A0020204D32303058
:101E70002044300A0020204D3230302044002044DD
:101E8000697361626C65640A0046696C616D656EB8
:101E9000742073657474696E67733A0020204D3145
:101EA00034392043203B20556E69747320696E20BD
:101EB00043656C736975730A002020473231202016
:101EC00020203B00545249474745524544006F701B
:101ED000656E003A20007A5F6D696E00795F6D690A
:101EE0006E00785F6D696E005265706F7274696E16
:101EF0006720656E6473746F70207374617475739A
:101F00000A0020496E76616C696420657874727588
:101F10006465722000000000000000000000000066
:101F200000000016430000164300004843486F6D50
:101F3000696E67206661696C65640050726F7465D4
:101F4000637465642050696E0A0020573A0045208A
:101F5000436F6F6C696E672E2E2E004520486561B9
:101F600074696E672E2E2E00205A3A0020593A00CE
:101F700020436F756E7420583A0020453A00205A6D
:101F80003A0020593A00583A003A004361703A004A
:101F900023646566696E652044454641554C545F2F
:101FA0004B64200023646566696E652044454641A4
:101FB000554C545F4B69200023646566696E65204B
:101FC00044454641554C545F4B70200050494420D5
:101FD0004175746F74756E652066696E69736865A6
:101FE00064212050757420746865206C61737420BE
:101FF0004B702C204B6920616E64204B6420636F12
:102000006E7374616E74732066726F6D2062656C9E
:102010006F7720696E746F20436F6E6669677572A3
:102020006174696F6E2E680A0050494420417574CE
:102030006F74756E65206661696C656421207469D2
:102040006D656F75740A00453120544845524D4105
:102050004C2052554E4157415900546865726D618C
:102060006C2052756E617761790045312048656159
:1020700074696E67206661696C65640048656174A7
:10208000696E67206661696C65640050494420414F
:1020900075746F74756E65206661696C6564212066
:1020A00054656D706572617475726520746F6F2010
:1020B000686967680A00204B643A2000204B693A3F
:1020C0002000204B703A20000A20436C6173736932
:1020D0006320504944200A002054753A2000204BC8
:1020E000753A2000206D61783A2000206D696E3AC3
:1020F000200020643A200020626961733A20005079
:102100004944204175746F74756E65206661696C11
:10211000656421204261642065787472756465721B
:10212000206E756D6265720A0050494420417574D5
:102130006F74756E652073746172740A00486F6DF8
:1021400065202573257325732066697273740020DA
:1021500066697273740A005A0059005800486F6D1E
:102160006520004F666673657473206170706C69DA
:102170006564004572723A20546F6F206661722167
:1021800000546F6F206661722066726F6D207265F9
:10219000666572656E636520706F696E740A00FF14
:1021A000FFFFFFEFFFFFFFFFFFFFFFFFFFFFEFEF6F
:1021B000FFFFFFFFFFFFFFFFFFE7DFFFFFFFFFFF67
:1021C000FFFFFFFFE7DFFFFFFFFFFFFFFFFFFFE373
:1021D000DFFFFFFFFFFFFFFFFFFFF3CFFFFFFFFF6B
:1021E000FFFFFFFFE1E1CFFFFFFFFFFFFFFE7800F2
:1021F0000003DDFFFFFFFFFEFF807E0001EEFFFF1B
:10220000FFFFFE7DCFFC0000F77FFFFFFFFF8E0684
:102210000000007BBFFFFFFFFFC0000000007DDF6C
:10222000FFFFFFFFFC01FE00003EE7FFFFFFFFFF97
:10223000FFFC00031F73FFFFFFFFFFFFF800018F8C
:1022400081FFFFFFFFFFFFE0000083F9FFFFFFFFBB
:10225000FFFF00FC0000F0FFFFFFFFFFE00FFFC0EB
:102260000000FFFFFFFFFE03FFFFC00000FFFFFFB6
:10227000FFFFFFFFF9000000FFFFFFFFFFFFFFFC74
:102280000007C0FFFFFFFFFFFFFFFF0007E0FFFFAA
:10229000FFFFFFFFFFFFE007F1FFFFFFFFFFFFFF73
:1022A000FFFC07F9FFFFFFFFFFFFFFFFFF03F9FF41
:1022B000FFFFFFFFFFFFFFFF83F9FFFFFFFFFFFFB0
:1022C000FFFFFFC3FFFFFFFFFFFFFFFFFFFFE1FF78
:1022D000FFFFFFFFFFFFFFFFFFF0BFFFFFFFFFFF5D
:1022E000FFFFFFFBF83FFFFFFFFFFFFFFFFFF9F8D6
:1022F0003FFFFFFFFFFFFFFFFF7EF0FFFFFFFFFF3E
:10230000FFFFFFFF8E03FFFFFFFFFFFFFFFFFFE069
:102310001FFFFFFFFFFFFFFFFFFFFFFFFFFFFFFFAD
:10232000FFFFFFFFFFFFFFFFFFFFFFFFFFFFFFFFBD
:10233000FFFF7FFFFFFFFF00007FFFFFF87FFFFF32
:10234000FFFF80007FFFFFE07FFFFFFFFFC3FCFF79
:10235000FFFFF8FFFFFFFFFFC3FCFFFFFFF8FFFFDA
:10236000FFFFFF87FDFFFFFFF1FFFFFFFFFF87FF7D
:10237000FFFFFFF1FFFFFFFFFF0FE7F30FFC23FC61
:102380003FFFFFFF0FEF8007F003F01E007FFE1FEF
:10239000CF8187C787C70C007FFE001FC7C78FC7C5
:1023A0009F0F0CFFFE001F878F1F8F1F0F1FFFFC4B
:1023B0003F9F8F8F1F8E001E3FFFFC7F3F0F1E3FF2
:1023C0001E3FFE3FFFF87FFF1F1C3F1C7FFC7FFF6F
:1023D000F8FFFF1E1C7E1C7FFC7FFFF0FFCE3E3C03
:1023E0007E3C7FB8FFFFF0FF9E3C387C387E78FF54
:1023F000FFE1FF3C7C787C783CF1FFFFE1F8387826
:1024000078101801F1FFFF000060203C007C07807D
:102410007FFFFFFFFFFFFE1FFE1FFFFFFF1FFFFFEE
:10242000FFFFFFFF600000000001FF400000000010
:1024300000FF8000000000007F83CF00000C303FD1
:1024400087FF80000C301F867980000C000F8C30D5
:10245000C7838C30E78C30CFC7CC31F38C30DCECC9
:10246000EC33B98C30D86C6C33198C30D06C0C33A5
:10247000198C30D86C0C33198C30DC6C0E3B198CF9
:1024800030CF7C079F198C30C77C038F1940000028
:1024900000000002600000000000061FFFFFFFFFB9
:1024A000FFF82020506C616E6E657242756666653D
:1024B0007242797465733A20002046726565204D3A
:1024C000656D6F72793A2000436F6D70696C656459
:1024D0003A2044656320313620323031380A0020FA
:1024E0007C20417574686F723A2028746F6D6D6935
:1024F000652C20456E64657220322F34290A003223
:102500003031382D30382D303100204C617374203B
:10251000557064617465643A2000312E312E390A99
:10252000004D61726C696E0020536F667477617242
:10253000652052657365740A00205761746368648E
:102540006F672052657365740A002042726F776E60
:10255000206F75742052657365740A002045787485
:1025600065726E616C2052657365740A00506F77F6
:10257000657255700A0073746172740A0061757433
:102580006F25692E67006572726F722077726974A9
:10259000696E6720746F2066696C650A00456E6419
:1025A00073746F70732025632025632025632025B5
:1025B0006300205A3A0020593A0020583A00656ECC
:1025C0006473746F7073206869743A2000446F6E8E
:1025D0006520736176696E672066696C652E0A00F6
:1025E0004D3239007C3C3E5E2B3D3F2F5B5D3B2CEA
:1025F0002A225C0056652D6A65726B0056652D6A4D
:1026000065726B0056652D6A65726B00567A2D6A8D
:1026100065726B00567A2D6A65726B0056792D6A69
:1026200065726B0056792D6A65726B0056792D6A5A
:1026300065726B0056782D6A65726B0056782D6A4C
:1026400065726B0056782D6A65726B004D6F746908
:102650006F6E004573746570732F6D6D00457374F4
:102660006570732F6D6D005A73746570732F6D6D87
:10267000005A73746570732F6D6D005973746570B3
:10268000732F6D6D005973746570732F6D6D0058E5
:1026900073746570732F6D6D005873746570732F4C
:1026A0006D6D004D6F74696F6E0053746570732F9C
:1026B0006D6D004A65726B00416363656C657261A4
:1026C00074696F6E0056656C6F6369747900436F4F
:1026D0006E74726F6C0046696C2E204469612E0026
:1026E00046696C2E204469612E004F6666004F6E6D
:1026F00020004520696E206D6D3300436F6E74724B
:102700006F6C0043616E6E6F7420656E746572202D
:102710007375626469723A2000022E2E00015265C0
:102720006672657368004D61696E00526573656E0F
:10273000643A20006F6B0020746F6F206C6F6E67BF
:1027400020657874727573696F6E20707265766536
:102750006E7465640A0020636F6C6420657874721F
:102760007573696F6E2070726576656E7465640A44
:1027700000627573793A2070617573656420666FC5
:102780007220696E7075740A00627573793A2070F0
:10279000617573656420666F7220757365720A00D7
:1027A000627573793A2070726F63657373696E67CF
:1027B0000A004B494C4C45442E20004B494C4C20C0
:1027C00063617573656420627920746F6F206D7525
:1027D000636820696E6163746976652074696D65EC
:1027E000202D2063757272656E7420636F6D6D614C
:1027F0006E643A2000506C65617365207265736584
:1028000074005052494E5445522048414C5445445E
:10281000005072696E7465722068616C7465642E14
:10282000206B696C6C28292063616C6C6564210ADB
:1028300000656E7175657565696E67202200000020
:1028400000000000000000000000000048420000FE
:10285000484200008040000000005761726E696EBF
:10286000673A20486F6D696E672042756D7020442D
:10287000697669736F72203C20310A0002020400FD
:1028800000A0400000A0400000803F000016430070
:1028900000164300004843FFFFFF466C6F77004679
:1028A0006C6F7700466C6F770046616E20737065C1
:1028B00065640046616E2073706565640046616EF4
:1028C000207370656564004265640042656400427F
:1028D0006564004E6F7A7A6C65004E6F7A7A6C652B
:1028E000004E6F7A7A6C65005370656564005370B2
:1028F000656564005370656564004D61696E0050E4
:1029000072656865617420504C4120456E640050CA
:1029100072656865617420504C41204265640050C6
:1029200072656865617420504C4100507265706139
:10293000726500507265686561742041425320459C
:102940006E64005072656865617420414253204294
:10295000656400507265686561742041425300509F
:10296000726570617265004D34323800507265686E
:1029700065617420504C4100436F6F6C646F776EDB
:102980000050726568656174204142530044697368
:1029900061626C65207374657070657273004D3888
:1029A000340053657420686F6D65206F66667365CB
:1029B0007473004175746F20686F6D65004732381D
:1029C000004D6F76652061786973004D61696E0016
:1029D0004D6F76652058004D6F76652059004D6F1C
:1029E0007665205A004578747275646572004B49AB
:1029F0004C4C45442E200053544F505045442E20FB
:102A0000005072696E7465722073746F70706564C3
:102A10002064756520746F206572726F72732E204A
:102A200046697820746865206572726F7220616EE5
:102A30006420757365204D39393920746F207265B3
:102A400073746172742E202854656D7065726174A0
:102A50007572652069732072657365742E205365E5
:102A60007420697420616674657220726573746184
:102A70007274696E67290A004E6F20436865636B44
:102A800073756D2077697468206C696E65206E754A
:102A90006D6265722C204C617374204C696E653ACE
:102AA00020004E6F20436865636B73756D207769F6
:102AB0007468206C696E65206E756D6265722C207D
:102AC0004C617374204C696E653A200063686563DD
:102AD0006B73756D206D69736D617463682C204C28
:102AE000617374204C696E653A20004C696E6520F4
:102AF0004E756D626572206973206E6F74204C6133
:102B00007374204C696E65204E756D6265722B3151
:102B10002C204C617374204C696E653A20004D3155
:102B20003130004D333100534420726561642065BB
:102B300072726F720A00446F6E65207072696E74F3
:102B4000696E672066696C650A005654726176206A
:102B50006D696E005654726176206D696E00565430
:102B6000726176206D696E00566D696E00566D69F2
:102B70006E00566D696E00566D6178204500566D89
:102B80006178204500566D6178204500566D61786A
:102B9000205A00566D6178205A00566D6178205A8F
:102BA00000566D6178205900566D617820590056A5
:102BB0006D6178205900566D6178205800566D611E
:102BC00078205800566D61782058004D6F74696FF9
:102BD0006E00416D6178204500416D6178204500AF
:102BE000416D6178205A00416D6178205A00416D35
:102BF0006178205900416D6178205900416D6178FC
:102C0000205800416D6178205800412D7472617622
:102C1000656C00412D74726176656C00412D7265A2
:102C2000747261637400412D726574726163740023
:102C3000416363656C00416363656C004D6F74694B
:102C40006F6E0048617264636F64656420446566FA
:102C500061756C742053657474696E6773204C6F72
:102C6000616465640A00F4010000F401000064007E
:102C70000000881300000000FA430000FA4300003F
:102C8000A0400000C8410000A0420000A042000097
:102C9000C8430000BA4204C15CC911241FBECFEF73
:102CA000D0E4DEBFCDBF11E0A0E0B1E0EAE0FDEA94
:102CB00001E00BBF02C007900D92AE3CB107D9F7FF
:102CC00022E1AEECB1E001C01D92A830B207E1F7FD
:102CD00016E1CCE4D6E104C02197FE010E94C9D2DE
:102CE000CB34D107C9F70E94A1C40C9478D60C94B8
:102CF00000002F923F924F925F926F927F928F923D
:102D00009F92AF92BF92CF92DF92EF92FF920F937A
:102D10001F93CF93DF93CDB7DEB7CF55D1090FB651
:102D2000F894DEBF0FBECDBF21E020931F1180912C
:102D300090108D3409F472C6843511F40C94692A0C
:102D4000873411F00C94AD2A20908E1030908F10A3
:102D500034E02316310409F449C54CF437FC5AC653
:102D60008091170152E0251631047CF529C08AE5CF
:102D70002816310409F48FC534F4ACE12A16310465
:102D800009F472C547C6BBE52B16310409F487C5A3
:102D9000ECE52E16310409F03DC643E5242E41E052
:102DA000342E5DE2E52E51E1F52EA6ECBEE0BDA786
:102DB000ACA76DE6C62E61E1D62E00E010E0AFC5EF
:102DC00081110C94B42A0C94AF2A882311F40C942A
:102DD000AF2A0E94288382E50E94D4B1882309F497
:102DE00036C10E9458B14B015C0120E030E0A901DE
:102DF0000E9447CE882309F456C12091C60E309117
:102E0000C70E4091C80E5091C90E2CA73DA74EA7E2
:102E10005FA78091CA0E9091CB0EA091CC0EB0917D
:102E2000CD0E88AB99ABAAABBBAB209139113091D9
:102E30003A1140913B1150913C112CAF3DAF4EAF38
:102E40005FAF80913D1190913E11A0913F11B091E3
:102E5000401188AF99AFAAAFBBAF6CA57DA58EA579
:102E60009FA50E9447CE81110DC028AD39AD4AAD56
:102E70005BAD68A979A98AA99BA90E9447CE88233E
:102E800009F411C111E092E02916310409F010E0B3
:102E900020E030E0A901C501B4010E9447CE881F9F
:102EA0008827881F181759F020E030E040E85FEBD2
:102EB00028962CAF3DAF4EAF5FAF28970AC080E099
:102EC00090E0A0E8BFE328968CAF9DAFAEAFBFAF58
:102ED00028972CA53DA54EA55FA56CAD7DAD8EAD0B
:102EE0009FAD0E94E6D224966CAF7DAF8EAF9FAFB0
:102EF000249728A939A94AA95BA968AD79AD8AADFB
:102F00009BAD0E94E6D26B017C0124962CAD3DADB9
:102F10004EAD5FAD2497CA01B9010E94ADCE2B0121
:102F20003C01A7019601C701B6010E94ADCE9B01ED
:102F3000AC01C301B2010E94E7D20E9495D56CABEF
:102F40007DAB8EAB9FAB20E030E040E05FE30E94C2
:102F5000ADCE2B013C01A5019401C501B4010E9435
:102F6000ADCE4B015C01A3019201C301B2010E94ED
:102F7000ADCE9B01AC01C501B4010E94E6D20E9416
:102F800095D528962CAD3DAD4EAD5FAD28970E94EE
:102F9000ADCE4B015C01C701B60190582CA93DA9EB
:102FA0004EA95FA90E94E1D3A50194010E94ADCE74
:102FB0006B017C012CAD3DAD4EAD5FAD6CA57DA52B
:102FC0008EA59FA50E94E7D220E030E040E05FE3BD
:102FD0000E94ADCE9B01AC01C701B6010E94E7D2B1
:102FE0002CA53DA54EA55FA50E94E6D26B017C01F4
:102FF00028AD39AD4AAD5BAD68A979A98AA99BA96D
:103000000E94E7D220E030E040E05FE30E94ADCED6
:103010002B013C012CA93DA94EA95FA924966CADBA
:103020007DAD8EAD9FAD24970E94E1D3A5019401A3
:103030000E94ADCE9B01AC01C301B2010E94E7D258
:1030400028A939A94AA95BA90E94E6D214C089E43B
:103050000E94D4B1882329F00E9458B16B017C01F1
:1030600003C0C12CD12C76018AE40E94D4B18823FC
:10307000E9F00E9458B16CAF7DAF8EAF9FAF20E0FA
:1030800030E0A901C701B6010E9447CE81111BC0E3
:1030900020E030E0A9016CAD7DAD8EAD9FAD0E940A
:1030A00047CE811110C0E7EAF6E08CC320E030E0A3
:1030B000A901C701B6010E9447CE8823A1F31CAE27
:1030C0001DAE1EAE1FAEA701960150582CA73DA7FE
:1030D0004EA75FA78CAD9DADAEADBFADB05888AB70
:1030E00099ABAAABBBABCA01B9010E94ADCE4B01F3
:1030F0005C0128A939A94AA95BA9CA01B9010E94A2
:10310000ADCE9B01AC01C501B4010E94E7D20E9483
:1031100095D564966CAF7DAF8EAF9FAF64972091CD
:10312000C60E3091C70E4091C80E5091C90E28AFFF
:1031300039AF4AAF5BAFA701960168AD79AD8AADF3
:103140009BAD0E94E7D228966CAF7DAF8EAF9FAF4C
:1031500028978091CA0E9091CB0EA091CC0EB09181
:10316000CD0E24968CAF9DAFAEAFBFAF24972CADE4
:103170003DAD4EAD5FADBC01CD010E94E7D268967A
:103180006CAF7DAF8EAF9FAF6897209139113091B2
:103190003A1140913B1150913C112C962CAF3DAF10
:1031A0004EAF5FAF2C9728962CAD3DAD4EAD5FADC9
:1031B00028972C966CAD7DAD8EAD9FAD2C970E945F
:1031C000E6D26B017C0180913D1190913E11A0915E
:1031D0003F11B091401160968CAF9DAFAEAFBFAFC5
:1031E000609768962CAD3DAD4EAD5FAD6897BC0164
:1031F000CD010E94E6D24B015C012091CE0E3091B0
:10320000CF0E4091D00E5091D10E6C962CAF3DAFA9
:103210004EAF5FAF6C9760914111709142118091F8
:103220004311909144110E94E6D26CAB7DAB8EAB02
:103230009FABA70196016CA57DA58EA59FA50E94B9
:10324000ADCE2B013C01A501940168A979A98AA9F9
:103250009BA90E94ADCE9B01AC01C301B2010E94AB
:10326000E7D22B013C01A50194016CA57DA58EA59B
:103270009FA50E94ADCE4B015C01A701960168A9F4
:1032800079A98AA99BA90E94ADCE9B01AC01C50179
:10329000B4010E94E6D2A30192010E9466D36B01A1
:1032A0007C0120E030E0A9010E9447CE87FF0AC0E0
:1032B0002BED3FE049EC50E4C701B6010E94E7D294
:1032C0006B017C0132E02316310451F42BED3FE019
:1032D00049EC50E4C701B6010E94E6D26B017C01C3
:1032E00020E030E0A901C701B6010E9447CE81115C
:1032F00026C02C962CAD3DAD4EAD5FAD2C9768AD84
:1033000079AD8AAD9BAD0E9447CE811118C0609601
:103310002CAD3DAD4EAD5FAD609724966CAD7DADEF
:103320008EAD9FAD24970E9447CE811108C0FBED62
:10333000CF2EFFE0DF2EF9ECEF2EF0E4FF2EA701F9
:10334000960164966CAD7DAD8EAD9FAD64970E9485
:10335000ADCE4B015C0120E030E0A9016CA97DA954
:103360008EA99FA90E9447CE8823D9F0A501940178
:10337000C501B4010E94ADCE4B015C012CA93DA951
:103380004EA95FA9CA01B9010E94ADCE9B01AC0153
:10339000C501B4010E94E7D20E9495D54B015C01A2
:1033A0000DC020E030E0A901C501B4010E9447D55D
:1033B00087FF04C0B7FAB094B7F8B0942FE632E1B3
:1033C00043E85AE3C501B4010E9447CE87FF02C01B
:1033D0000C94AF2AC501B4010E9489D40E945AD42A
:1033E00022967FAF6EAF2297672B31F481E090E099
:1033F00022969FAF8EAF22974090D20E5090D30E60
:103400006090D40E7090D50E2296AEADBFAD2297CF
:10341000BD0180E090E00E944CCE4B015C019B011D
:10342000AC01C701B6010E94E1D368AF79AF8AAFA2
:103430009BAFA50194016CA97DA98EA99FA90E94AB
:10344000E1D364966CAF7DAF8EAF9FAF6497A3015D
:1034500092016091451170914611809147119091B0
:1034600048110E94E6D2A50194010E94E1D3A096E2
:103470006CAF7DAF8EAF9FAFA09728AD39AD4AAD91
:103480005BADCA01B9010E94ADCE20E030E040E062
:103490005FE30E94ADCE9B01AC0160E070E080E88C
:1034A0009FE30E94E6D22C966CAF7DAF8EAF9FAFAC
:1034B0002C976C962CAD3DAD4EAD5FAD6C972987CA
:1034C0003A874B875C874D865E866F86788A6091E7
:1034D000440170914501072E000C880B990B0E9446
:1034E0004ECE2091370130913801409139015091F1
:1034F0003A010E94ADCE2AE037ED43E25CE30E9440
:10350000ADCE68A779A78AA79BA70E944F899B0188
:10351000AC0128533F4F4F4F5F4F60962CAF3DAFEC
:103520004EAF5FAF60974CA45DA46EA47FA422242D
:103530002394312C39E13CAB22964EAD5FAD2297FE
:103540004215530509F41AC10E94A16C0E944F89CB
:10355000DC01CB0160962CAD3DAD4EAD5FAD60970B
:10356000821B930BA40BB50BB7FD10C00E944F89B3
:103570009B01AC0128533F4F4F4F5F4F60962CAFDC
:103580003DAF4EAF5FAF60970E94939A3CA9315018
:103590003CAB332309F441C028A939A94AA95BA946
:1035A0002C966CAD7DAD8EAD9FAD2C970E94ADCEAF
:1035B0006B017C019201A30168AD79AD8AAD9BAD31
:1035C0000E94ADCEA70196010E94E7D27B018C013B
:1035D0009201A3012C966CAD7DAD8EAD9FAD2C9765
:1035E0000E94ADCE4B015C0128A939A94AA95BA96B
:1035F00068AD79AD8AAD9BAD0E94ADCE9B01AC01AB
:10360000C501B4010E94E6D22B013C01C701D801DB
:1036100088AB99ABAAABBBAB4DC0B10180E090E0E9
:103620000E944CCE28AD39AD4AAD5BAD0E94ADCE07
:103630004B015C010E94DCD36B017C01C501B4012C
:103640000E9487D54B015C01A70196016CA57DA561
:103650008EA59FA50E94ADCE2B013C012CAD3DADAA
:103660004EAD5FADC501B4010E94ADCEA301920184
:103670000E94E7D22B013C01A50194016CA57DA518
:103680008EA59FA50E94ADCE4B015C012CAD3DAD3A
:103690004EAD5FADC701B6010E94ADCE9B01AC013E
:1036A000C501B4010E94E6D268AB79AB8AAB9BAB93
:1036B00049E14CAB9201A30128966CAD7DAD8EAD76
:1036C0009FAD28970E94E7D269837A838B839C837E
:1036D00028A939A94AA95BA968966CAD7DAD8EADC4
:1036E0009FAD68970E94E7D26D837E838F83988712
:1036F00064962CAD3DAD4EAD5FAD649769857A851E
:103700008B859C850E94E7D269877A878B879C8707
:10371000A0962CAD3DAD4EAD5FADA0976D857E857D
:103720008F8598890E94E7D26D877E878F87988BD7
:1037300080915201882321F0CE0101960E94829847
:10374000E090511118A219A21AA21BA2CE018096D4
:103750006C018E01085D1F4F9E01235F3F4FAE013C
:10376000475F5F4FBE016B5F7F4F4F970E94E53E03
:10377000882321F09FEF291A390ADECEE0905111FB
:103780001CA21DA21EA21FA2DE0194966D018E0135
:10379000085D1F4F25E431E141E451E16DE371E142
:1037A00089E391E10E94E53E80E1E9E3F1E1A6ECE5
:1037B000BEE001900D928A95E1F70C94AF2A0E9429
:1037C000E7B1F80184918F010F5F1F4F8111F7CF8F
:1037D000EFE6F1E084918F010F5F1F4F882311F412
:1037E0000C94AF2A0E94E7B1F801F4CF80E50E9463
:1037F000D4B1882329F00E9414B16B017C0103C06D
:10380000C12CD12C760183E50E94D4B1882361F0CC
:103810000E9458B120E030E04AE754E40E94ADCE67
:103820000E945AD46B017C010E943C768091D901A0
:10383000811105C060E085E891E00E949C550E94DE
:103840004F89C60ED71EE81EF91E0E944F89DC0163
:10385000CB018C199D09AE09BF09B7FD02C00C94BC
:10386000AF2A0E94939AF1CF8091B90E877087306A
:1038700011F00C94B92A8FE40E94D4B1882319F076
:103880000E9448B103C08FE40E948BB181110C9457
:10389000AF2A0C94B92A1092D2010C94AF2A20932B
:1038A000D2010C94AF2A0E9458B12B013C01133075
:1038B00049F0D6012D913D914D915C910E94E6D247
:1038C0002B013C01ECA5FDA5208131814281538172
:1038D000C301B2010E94E6D24B015C012DEB37E33C
:1038E00046E855EB0E9447D587FD21C02DEB37E315
:1038F00046E855E3C501B4010E9447CE1816BCF056
:103900001F5FF4E0EF0EF11C2CA53DA52C5F3F4F8F
:103910003DA72CA734E0C30ED11C143031F1F101C6
:1039200081911F010E94D4B1882351F3BCCF133081
:1039300051F44092D20E5092D30E6092D40E7092F7
:10394000D50E01E0DDCFA5019401D7016D917D91E8
:103950008D919C910E94E7D2F701608371838283ED
:103960009383812F0E947884CBCF002309F44EC02B
:1039700020E030E0A9016091D20E7091D30E8091C9
:10398000D40E9091D50E0E94E7D22091C00D3091B7
:10399000C10D4091C20D5091C30D0E94ADCE0E9449
:1039A00054D56093550270935602809357029093BA
:1039B00058029091330280913402981719F00E94B6
:1039C000DE7524C00E943C7680916F00982F927023
:1039D00081FF05C080916F008D7F80936F004091C3
:1039E00055025091560260915702709158024093CF
:1039F00018065093190660931A0670931B069923B4
:103A000029F080916F00826080936F000E945E8237
:103A10000C94AF2A0E94D4700C94AF2A80918E101F
:103A200090918F108137910509F4A3C50CF0B9C0AE
:103A30008A32910509F4C6C40CF05BC08831910547
:103A400009F46BC2ACF58231910509F477C6BCF478
:103A500097FF02C00C94662A823091050CF48DC148
:103A6000419711F00C94662A60E081EA91E00E948F
:103A70009C555E985E9815985E980C94AF2A853197
:103A8000910509F42FC23CF4449711F00C94662A76
:103A9000E9EBF1E0E9C18631910509F427C24797C6
:103AA00011F00C94662AE0918C10F0918D1028C2D0
:103AB0008C31910509F4E0C264F48A31910509F46E
:103AC00035C20CF041C2109279020E94B8350C94B4
:103AD000AF2A8E31910509F4D9C214F40C94AF2A9F
:103AE0008F31910509F4B8C3809709F469C30C9428
:103AF000662A8C35910509F46DC634F5813591053A
:103B000009F401C68CF48C34910509F491C48D3408
:103B1000910509F491C48B34910511F00C94662A37
:103B20000E9494350C94AF2A8335910509F402C69E
:103B30000CF4FDC58435910509F400C68535910561
:103B400009F42FC60C94662A8C36910509F40DC52C
:103B5000ACF48936910509F439C534F488369105F9
:103B600009F46EC40C94662A8A36910509F49FC53F
:103B70008B36910509F4B7C50C94662A8E369105EB
:103B800009F48DC40CF462C58F36910509F49AC40A
:103B90008037910511F00C94662A8AE892E00E9421
:103BA000329A833D910509F4E1C00CF063C081397C
:103BB000910509F49AC70CF58637910509F43AC7BF
:103BC00064F48337910509F4D5C00CF48CC68537AD
:103BD000910509F420C70C94662A8837910509F4E9
:103BE00079C70CF474C78937910509F479C78C3803
:103BF000910509F42EC50C94662A893C910511F4AF
:103C00000C943D267CF48E3B910509F43CC5883C20
:103C1000910511F40C94ED258B39910511F00C945C
:103C2000662AEFC48C3C910511F40C9472266CF456
:103C30008B3C910511F00C94662A63E5E62E61E059
:103C4000F62E0CEA18E00C9463268D3C910511F4D5
:103C50000C94E7268E3C910511F00C94662A43E5FE
:103C6000C42E41E0D42E5AEBE52E5EE0F52E10E096
:103C70000C945A27803941E0940711F40C94292AB6
:103C800084F58C32A1E09A0711F40C94F3288CF49B
:103C90008D3D910511F40C945B28823E910511F441
:103CA0000C94CA288C3D910511F00C94662A0C9452
:103CB0004E288E32E1E09E0711F40C94BC2914F4D6
:103CC0000C941C298F3221E0920711F40C94102AD5
:103CD0008336914011F00C94662AE7EAF6E00C94E2
:103CE000162A863F41E0940711F40C94422A04F509
:103CF0008C3AA1E09A0711F40C946C274CF48A39A1
:103D0000914011F00C94662A0E94C07D0C94AF2A59
:103D1000843FF1E09F0731F1853F914011F00C9411
:103D2000662A0E9433BB80E00E94027A0C94AF2A7C
:103D30008B3833E0930711F40C94AF2A3CF4873F9F
:103D4000914011F40C94452A0C94662A803AA3E021
:103D50009A0709F474C2873E934011F40C94512AD7
:103D60000C94662AE7EAF6E00C942F2AE6EDF6E0DA
:103D70000C946F27E2EBF3E0F3C5A0908C10B090A9
:103D80008D1080E50E94D4B1882359F00E9414B1AF
:103D90006B017C0111E0672B682B692B31F410E07B
:103DA00004C010E0C12CD12C760183E50E94D4B16F
:103DB000882311F40C94F32B0E9458B120E030E0DA
:103DC0004AE754E40E94ADCE0E945AD46B017C01B4
:103DD00011110BC0672B682B692B39F4A114B104A6
:103DE00021F0F5018081811102C010E001C011E0D5
:103DF0000E943C76112329F061E0C5010E9424A6AF
:103E000005C060E08EE891E00E949C5583E08093BD
:103E10001F1181E080935D11C114D104E104F1040C
:103E2000B1F00E944F89C60ED71EE81EF91E0E94EF
:103E30004F89DC01CB018C199D09AE09BF09B7FF81
:103E40000DC080915D1181110C94F82B07C08091F9
:103E50005D11882319F00E94939AF9CF0E945D5E4C
:103E600010925D110C94AF2A84918F010F5F1F4F48
:103E7000882321F00E94E7B1F801F6CF1092F604F2
:103E800089EA92E00E942F8C8BE1E9EAF2E0DE0100
:103E9000159601900D928A95E1F78091A702909175
:103EA000A8029C838B838DE691E09A83898340E00E
:103EB00050E0BE016F5F7F4F80E090E00E941030C5
:103EC000CE0101960E94169AEAEAF1E084918F01F0
:103ED0000F5F1F4F882311F40C94AF2A0E94E7B1A3
:103EE000F801F4CF0E9456730C94AF2A1092790215
:103EF00010927A020C94AF2A803209F41082319623
:103F000080818111F9CF40E061E080918C10909127
:103F10008D100E94D5320C94AF2A80917A028111C3
:103F2000209379020E9494350C94AF2A80917A02F2
:103F3000882311F40C94AF2A83E50E94D4B1811137
:103F40000C94FC2B0C94AF2A83E40E948BB1882341
:103F500009F450C0E7EFF1E084918F010F5F1F4F2C
:103F6000882321F00E94E7B1F801F6CF8091440444
:103F7000811103C0EAECF1E012C0BE016F5F7F4F18
:103F800081E494E00E94F68A8E010F5F1F4FD801F2
:103F90008D918D01882349F10E94E7B1F8CF84917A
:103FA0008F010F5F1F4F882301F10E94E7B1F801D5
:103FB000F6CF25E7C22E22E0D22EE12CF12C20E014
:103FC0008091B30D90E00E2C02C0959587950A94D0
:103FD000E2F780FDA7C2EFEFEE1AFE0AF2E0CF0E85
:103FE000D11C35E0E316F10459F78AE00E94E7B1ED
:103FF0000C94AF2A80917A02882339F0809179025B
:10400000882319F0E4EDF1E003C0E6EEF1E028C00A
:1040100084918F010F5F1F4F882321F00E94E7B129
:10402000F801F6CF6091F2047091F3048091F404EA
:104030009091F5044AE00E9496B48FE20E94E7B1A5
:104040006091EE047091EF048091F0049091F1047E
:104050004AE00E9496B48AE00E94E7B10C94AF2A2D
:1040600084918F010F5F1F4F882311F40C94AF2AA6
:104070000E94E7B1F801F4CF40E060E080918C103D
:1040800090918D100E94D5320C94AF2A80917A02C3
:10409000882311F40C94AF2A81E494E00E943DBF80
:1040A00081E494E00E94D18A109278021092770203
:1040B00080917A02882311F40C94AF2A00918C101D
:1040C00010918D101092790280914404882321F080
:1040D00081E494E00E94D18AB801CE0180960E94CA
:1040E00019328C01892B11F40C94AF2A68A179A1A3
:1040F0006115710511F06C5F7F4F19821C8222E0FF
:10410000A801CE0101960E948090811102C0F12C7D
:1041100014C0CE0101960E947E2F8823C1F361E076
:10412000CE0101960E94DA8A009789F325EEFC0100
:1041300020831C820E94E2BCF82ECE0101960E94D0
:10414000E1B1F11003C0E4E1F2E022C0E6E0F2E008
:1041500084917F012FEFE21AF20A882321F00E9456
:10416000E7B1F701F5CFD8018D918D01882319F0C2
:104170000E94E7B1F8CF8AE00E94E7B11092F20402
:104180001092F3041092F4041092F5040C94AF2AE8
:1041900084917F01BFEFEB1AFB0A882321F00E9474
:1041A000E7B1F701F5CFF80181918F01882319F06C
:1041B0000E94E7B1F8CF8EE20E94E7B10C94AF2ADB
:1041C0008091790281110E943C7680917A02882345
:1041D00011F40C94AF2A80E50E94D4B1882319F021
:1041E0000E9448B103C080E50E948BB1182F482F70
:1041F00061E080918C1090918D100E94D53283E502
:104200000E94D4B1882381F00E9424B1AB01BC018B
:104210004093F2045093F3046093F4047093F50414
:1042200081E494E00E94E78980917A02882319F062
:1042300081E08093790211110C94AF2A73CE8091A2
:104240008C1090918D1021E02093780240E060E086
:104250000E94D5320C94AF2A0E9445357B018C0117
:1042600020E831E541E050E00E9438D2C9016DE616
:1042700071E00E9482D24B015C01C801B70120E1CC
:104280003EE040E050E00E9438D2CA01B90128E186
:1042900030E040E050E00E9438D2762E672EC62EE5
:1042A000D72E3CE3232E312C412C512CC801B701D1
:1042B000A20191010E9438D2F62EE72ECA01B9015F
:1042C000A20191010E9438D2CB018E010F5F1F4FD6
:1042D0008114910499F0EF92FF927F936F936F9204
:1042E0007F92BF92AF929F928F9284E592E09F93CC
:1042F0008F931F930F930E94DFCD13C0A114B104BD
:10430000B1F0EF92FF927F936F936F927F92BF9283
:10431000AF9284E492E09F938F931F930F930E9438
:10432000DFCD0FB6F894DEBF0FBECDBF30C0CD28B5
:1043300079F0EF92FF927F936F936F927F9288E371
:1043400092E09F938F931F930F930E94DFCDE9CF4D
:10435000892B69F0EF92FF927F936F9380E392E055
:104360009F938F931F930F930E94DFCDDACFEF922D
:10437000FF928CE292E09F938F931F930F930E9482
:10438000DFCD0F900F900F900F900F900F9060E087
:10439000C8010E9424A6E6EDF6E084917F01BFEFFC
:1043A000EB1AFB0A882321F00E94E7B1F701F5CF51
:1043B000B80188E692E00E94AD3D8AE00E94E7B134
:1043C0000C94AF2A83E50E94D4B1882311F40C9495
:1043D000AF2A0E9434B1E82E80E50E94D4B1882330
:1043E00011F40C94AF2A0E9434B1182F87FF02C039
:1043F0000C94AF2A89E40E94D4B1882351F00E9422
:1044000048B181110C94FD2DE2EFF4E08FE195E0CD
:104410000AC089E40E948BB1F4CF31968E179F07B2
:1044200011F40C94FD2D24911213F7CF0C94D22D7E
:104430000E94B8350C94AF2A0E94CD350C94AF2A57
:1044400088E690E00E94448681110C94AF2A809106
:10445000B30D83FF02C00C94AF2A83E50E94D4B150
:104460008823C9F00E9458B10E9453D470939D0EC6
:1044700060939C0E80E00E947D6B0E9458B120E00A
:1044800030E04AEA52E40E9447CE181624F00E9417
:10449000CD350E945D5E0E94C83D0C94AF2A8EE42B
:1044A0000E94D4B1882311F40C94AF2A0E9424B145
:1044B0006093C80D7093C90D8093CA0D9093CB0D76
:1044C0000C94AF2A83E50E948BB1882359F083E5D1
:1044D0000E94D4B1882319F00E9434B101C080E059
:1044E0008093B30DE6EDF6E084918F010F5F1F4FCF
:1044F000811103C0E3E8F2E004C00E94E7B1F801D3
:10450000F3CF84918F010F5F1F4F882321F00E940A
:10451000E7B1F801F6CF8091B30D81114ACDEFE7F5
:10452000F2E018C0BB24B394B20E222319F08CE23F
:104530000E94E7B1F60185919491FC0184918F016D
:104540000F5F1F4F882321F00E94E7B1F801F6CFDB
:104550002B2D41CD84918F010F5F1F4F882309F4CC
:1045600044CD0E94E7B1F801F5CF109236010C94CA
:10457000AF2A83E50E94D4B1811103C0E6EDF6E0D5
:104580000DC00E9434B18D3320F480933B010C9414
:10459000AF2A8CE380933B010C94AF2A84918F0166
:1045A0000F5F1F4F882321F00E94E7B1F801F6CF7B
:1045B00040913B0150E060E070E083E992E00E94AE
:1045C0005A3D8AE00E94E7B10C94AF2A89E690E058
:1045D0000E944486811111C0EAE9F2E084918F01C2
:1045E0000F5F1F4F882321F00E94E7B1F801F6CF3B
:1045F0000E942B698AE00E94E7B110921F110C946F
:10460000122E83E50E94D4B1882309F4A8C70E9422
:1046100034B1182F8D3308F01CE310932C110E9435
:104620004F896B017C01212F30E0A8EEB3E00E949E
:1046300065D2C60ED71EE81EF91EC0922811D09270
:104640002911E0922A11F0922B1189C70E948686C7
:1046500086C78091B30D83FD82C783E50E94D4B1E4
:10466000882309F47CC70E9458B10E9453D46D3747
:10467000710514F06DE770E070939B0E60939A0ED5
:104680000E94316B6CC78091B30D83FD68C783E5D1
:104690000E94D4B125968FAF259781110C940D2CD3
:1046A00082E50E94D4B181110C940D2C58C780E58D
:1046B0000E94D4B1811106C083E50E94D4B1882341
:1046C00059F005C00E9434B1811149C7F5CF0E944D
:1046D00024B16F3F710510F06FEF70E07093DD084B
:1046E0006093DC083CC780E50E94D4B1811105C00D
:1046F0001092DD081092DC0832C70E9424B1672BAB
:1047000009F02DC7F5CF0E94C96B0E945377109214
:10471000DD081092DC0868EE73E080E090E00E9413
:10472000DD5460E08FEB92E00E949C5518C7109218
:10473000D10115C781E08093D10111C783E50E94A3
:10474000D4B1882399F00E9458B120E030E04AE7C4
:1047500054E40E94ADCE0E945AD460933C01709301
:104760003D0180933E0190933F01F9C688E50E9488
:104770008BB181110C94AD2D89E50E948BB1811113
:104780000C94AD2D8AE50E948BB181110C94AD2D56
:1047900085E40E948BB181110C94AD2D0E9453775A
:1047A000DEC683E50E948BB1882309F4D8C60E9437
:1047B00058B120E030E04AE754E40E94ADCE0E94B8
:1047C0005AD46093241170932511809326119093ED
:1047D0002711C5C613E5C12E11E0D12E04EBE02E42
:1047E0000DE0F02E10E0F60181916F010E948BB177
:1047F000882309F46EC0133009F063C00E9458B1D9
:104800004B015C0120E030E040EA51E40E9447CED9
:1048100087FF4EC0A50194016091C00D7091C10D3C
:104820008091C20D9091C30D0E94E1D32B013C01F8
:104830009B01AC01609188087091890880918A0879
:1048400090918B080E94ADCE609388087093890880
:1048500080938A0890938B08A30192016091B80815
:104860007091B9088091BA089091BB080E94ADCEB2
:104870006093B8087093B9088093BA089093BB0806
:10488000609198087091990880919A0890919B087E
:104890000E944CCEA30192010E94ADCE0E945AD438
:1048A000609398087093990880939A0890939B0856
:1048B0008092C00D9092C10DA092C20DB092C30D16
:1048C00008C00E9458B1D7016D937D938D939C933E
:1048D00013971F5FB4E0EB0EF11C143009F083CF87
:1048E0000E94533E3CC60E943C7683E50E94D4B1B0
:1048F000882309F48BC80E9424B16230710509F045
:1049000085C80E94659E8BE50E94E7B160911311F6
:1049100070911411809115119091161142E00E942E
:104920001FB5409117115091181160911911709194
:104930001A1180ED92E00E94773D40911B11509139
:104940001C1160911D1170911E118DEC92E00E945E
:10495000773D8DE50E94E7B18AE00E94E7B1FFC58F
:1049600084918F010F5F1F4F882321F00E94E7B1D0
:10497000F801F6CF60E082EA93E00E94278260E0CF
:104980008BE993E00E94278261E080E993E00E9436
:10499000278261E080E893E00E94278260E087E759
:1049A00093E00E94278261E08DE693E00E942782D7
:1049B00060E083E693E00E94278260E08BE593E06D
:1049C0000E94278260E08DE493E00E94278260E0ED
:1049D0008FE393E00E94278260E080E393E00E94EF
:1049E000278260E082E293E00E94278260E08CE010
:1049F00093E00E94278260E08BEF92E00E94278282
:104A000060E086EE92E00E94278261E083ED92E012
:104A10000E942782A4C580918C1090918D10FC017A
:104A20002081211103C00E945D5E99C560E00E9453
:104A300024A695C500918C1010918D1083E0D12C87
:104A400040E08150E9F0D8019C91292F2B7F21343F
:104A5000C1F711962C912133A1F7913421F09534AF
:104A600021F441E002C0DD24D39498012E5F3F4F32
:104A700089012F5F3F4FF80190819032C9F3E1CF58
:104A8000442369F0E6EDF6E084917F012FEFE21A0E
:104A9000F20A882321F00E94E7B1F701F5CFDD206B
:104AA00069F0E6E7F4E084917F013FEFE31AF30A4F
:104AB000882321F00E94E7B1F701F5CFD8018D914D
:104AC0008D01882309F491CA0E94E7B1F7CF0E94B3
:104AD000D97945C581E08093B80E8093B70E3FC564
:104AE0001092B80E1092B70E3AC583E50E94D4B169
:104AF000882319F00E9424B102C060E070E08B01AD
:104B0000112702301105D4F0E7EAF6E084918F0115
:104B10000F5F1F4F811103C0EAE7F4E004C00E9459
:104B2000E7B1F801F3CF84918F010F5F1F4F882306
:104B300009F415C50E94E7B1F801F5CF88E40E9499
:104B4000D4B18823A9F00E9424B16A3A71053CF0DF
:104B50006530B1E07B072CF064E071E002C06AEAE6
:104B600070E0F801EE0FFF1FE551F24F7183608393
:104B700086E40E94D4B18823A9F00E9424B1F801F0
:104B8000EE0FFF1FE151F24F718360836F3F71059C
:104B900019F014F06FEF70E077FF02C060E070E092
:104BA0007183608382E40E94D4B1882309F4D7C45E
:104BB0000E9424B16530710534F06F3671052CF018
:104BC0006EE670E002C065E070E0000F111FF801B2
:104BD000E951F24F71836083C2C488EC90E00E9477
:104BE00044868111BCC484E40E948BB1882309F4FB
:104BF00041C00E9458B16B017C0111E020E030E01F
:104C0000A9010E9447CE811101C010E010936D10E0
:104C100020E030E0A901C701B6010E9447CE8823F9
:104C200049F10E9458B1E0913E0E24E0E29FF0016C
:104C30001124E759FF4E608371838283938320E0C0
:104C400030E0A9016091691070916A1080916B1039
:104C500090916C100E9447CE81110CC080E090E0D2
:104C6000A0E4B0E48093691090936A10A0936B1055
:104C7000B0936C100E94467572C473E5E72E71E024
:104C8000F72E02EF11E1D7018D917D010E948BB1CA
:104C9000882349F00E9458B10E945AD4F8016083D9
:104CA0007183828393830C5F1F4FF2E102301F07F1
:104CB00051F70E94F83D53C40C5F1F4FF8E00C3BC6
:104CC0001F0709F44CC4D7018D917D010E948BB15F
:104CD000882391F30E9458B1F80160837183828325
:104CE0009383EACF83E50E94D4B18823A1F00E9488
:104CF00058B16093A4087093A5088093A608909378
:104D0000A7086093A0087093A1088093A2089093CD
:104D1000A30810E001C011E080E50E94D4B188230F
:104D200059F00E9458B16093A4087093A50880932D
:104D3000A6089093A70810E082E50E94D4B18823CA
:104D400059F00E9458B16093A8087093A908809305
:104D5000AA089093AB0810E084E50E94D4B18823A0
:104D600059F00E9458B16093A0087093A1088093F5
:104D7000A2089093A308F3C3112309F4F0C3409150
:104D8000A4085091A5086091A6087091A70882EA2E
:104D900094E00E94773D4091A8085091A908609145
:104DA000AA087091AB088FE994E00E94773D40918A
:104DB000A0085091A1086091A2087091A3088CE905
:104DC00094E00E94773D8AE00E94E7B1C8C381E584
:104DD0000E948BB1882351F00E9414B16093C008E7
:104DE0007093C1088093C2089093C30883E50E9422
:104DF0008BB1882351F00E9458B16093D80870930A
:104E0000D9088093DA089093DB0884E50E948BB17F
:104E1000882351F00E9458B16093D4087093D5084C
:104E20008093D6089093D70888E50E948BB1882399
:104E300051F00E9458B160937C0870937D08809374
:104E40007E0890937F0889E50E948BB1882351F0FA
:104E50000E9458B160938008709381088093820803
:104E6000909383088AE50E948BB1882351F00E94B9
:104E700058B1609384087093850880938608909356
:104E8000870885E40E948BB1882309F468C30E94D7
:104E900058B1609388087093890880938A0890932A
:104EA0008B085DC31F5FF4E0EF0EF11C133011F4AB
:104EB0000C94061DD6018D916D010E948BB1882343
:104EC00089F30E9458B1F7016083718382839383D1
:104ED000812F0E947884E6CF0E94B88440C38491D9
:104EE0008F010F5F1F4F882321F00E94E7B1F80167
:104EF000F6CF83E50E948BB1882321F00E9448B150
:104F000080935201EAEDF4E084918F010F5F1F4F0F
:104F1000882321F00E94E7B1F801F6CF8091520179
:104F2000882319F0E2EDF4E002C0E6EDF4E08491AC
:104F30008F010F5F1F4F811103C0EAECF4E004C042
:104F40000E94E7B1F801F3CF84918F010F5F1F4FEB
:104F5000882321F00E94E7B1F801F6CF20916D116E
:104F600030916E1140916F115091701160917911D3
:104F700070917A1180917B1190917C110E94E7D2FF
:104F8000AB01BC0188EC94E00E94773D2091711147
:104F900030917211409173115091741160917D1193
:104FA00070917E1180917F11909180110E94E7D2C3
:104FB000AB01BC0185EC94E00E94773D2091751116
:104FC0003091761140917711509178116091811153
:104FD0007091821180918311909184110E94E7D287
:104FE000AB01BC0182EC94E00E94773DEAEBF4E077
:104FF00084918F010F5F1F4F882321F00E94E7B13A
:10500000F801F6CF20916D1130916E1140916F1122
:105010005091701160914601709147018091480153
:10502000909149010E94E7D2AB01BC0188EB94E06A
:105030000E94773D2091711130917211409173114E
:105040005091741160914A0170914B0180914C0113
:1050500090914D010E94E7D2AB01BC0185EB94E039
:105060000E94773D20917511309176114091771112
:105070005091781160914E0170914F0180915001D3
:10508000909151010E94E7D2AB01BC0182EB94E008
:105090000E94773D8AE00E94E7B161C283E50E94E9
:1050A000D4B1882309F45BC20E9424B170934501F6
:1050B0006093440154C28DED90E00E9444868111BA
:1050C0004EC283E50E94D4B1811103C0E6EDF6E043
:1050D0003BC000913E0E10E00E9424B1000F111F52
:1050E000F801EE5BFE4F7183608380913E0E90E08D
:1050F0008C01000F111F000F111F9801275E3E4FFA
:105100007901880F991FFC01EE5BFE4F6081718170
:10511000072E000C880B990B0E944ECE2AE037ED2B
:1051200043E25CE30E94ADCEF801E759FE4E2081D8
:105130003181428153810E94ADCED7016D937D9321
:105140008D939C9313970BC284918F010F5F1F4F18
:10515000882321F00E94E7B1F801F6CF85E40E9490
:10516000E7B180913E0E805D0E94E7B1E0913E0E76
:10517000F0E0EE0FFF1FEE5BFE4F608171818AEE63
:1051800094E00E94943D85E20E94E7B18AE00E948B
:10519000E7B1E5C180E50E948BB1882309F4DFC146
:1051A0000E9424B16B017C0183E50E94D4B1882365
:1051B00021F00E9424B18B0102C00FEF1FEFC80144
:1051C0000196039708F0CBC1D7FCC9C18C2DE2EF43
:1051D000F4E09491891709F4E5C43196B5E0EF3114
:1051E000FB07B9F7E2C483E50E94D4B1882319F024
:1051F0000E9424B102C064E071E079A368A380E555
:105200000E94D4B1882339F00E9424B16938E3E1C7
:105210007E0730F402C068EE73E07A83698304C0CD
:1052200088E893E19A838983BE01605E7F4FCE0157
:1052300001960E94B13E93C185E40E94D4B18111D0
:1052400010C080E50E948BB1882391F00E9458B174
:105250006093DA0D7093DB0D8093DC0D9093DD0D80
:1052600007C00E9434B1882361F3E7EAF6E071C019
:1052700089E40E948BB1882381F00E9458B12CEA06
:1052800035EC47E25EE30E94ADCE6093E20D709391
:10529000E30D8093E40D9093E50D84E40E948BB1BF
:1052A000882381F00E9458B12CEA35EC47E25EE396
:1052B0000E94E1D36093DE0D7093DF0D8093E00DCB
:1052C0009093E10DE6EDF6E084918F010F5F1F4FA3
:1052D000882321F00E94E7B1F801F6CF4091DA0D62
:1052E0005091DB0D6091DC0D7091DD0D87E295E052
:1052F0000E94773D2CEA35EC47E25EE36091E20DD7
:105300007091E30D8091E40D9091E50D0E94E1D341
:10531000AB01BC0183E295E00E94773D2CEA35ECBD
:1053200047E25EE36091DE0D7091DF0D8091E00D4C
:105330009091E10D0E94ADCEAB01BC018FE195E0F3
:105340000E94773D8AE00E94E7B109C10E94E7B15F
:10535000F80184918F010F5F1F4F8111F7CFEBE2AE
:10536000F5E084918F010F5F1F4F882309F4F7C088
:105370000E94E7B1F801F5CF83E50E948BB1182FA9
:10538000882371F00E9458B10E9453D470931E017B
:1053900060931D0121E0672B09F020E02093DE08D7
:1053A00080E50E948BB1882359F020911D01309136
:1053B0001E01232B11F00E9448B18093DE08CFC05C
:1053C0001111CDC0E6EDF6E084918F010F5F1F4F04
:1053D000882321F00E94E7B1F801F6CF8091DE0822
:1053E000882319F061E971E002C064E971E082E5A7
:1053F00095E00E94AD3D60911D0170911E0181E418
:1054000095E00E94943DEDE3F5E084918F010F5FFC
:105410001F4F882309F4A3C00E94E7B1F801F5CF1C
:105420000E94F97D9CC00E94E7B1F80184918F0130
:105430000F5F1F4F8111F7CFE5E6F5E084918F01F3
:105440000F5F1F4F882309F48AC00E94E7B1F8015B
:10545000F5CF0E943C7683C00E94E7B1F8018491A9
:105460008F010F5F1F4F8111F7CFE4E7F5E08491C3
:105470008F010F5F1F4F882309F471C00E94E7B1AD
:10548000F801F5CF0E9433BB6AC083E50E948BB15F
:10549000882321F00E9448B191E089270E94027A76
:1054A0005EC081E08093170110927B0883E50E9423
:1054B000D4B1882339F00E9448B1811150C00E94B4
:1054C0009E9E4DC083E50E948BB1F7CF0E94D470A1
:1054D00046C0F0908E100E943C76FF2029F1E6ED48
:1054E000F6E084918F010F5F1F4F882321F00E9407
:1054F000E7B1F801F6CF84E50E94E7B16F2D70E0C7
:1055000080E090E04AE00E9496B480E20E94E7B119
:10551000E7E9F5E084918F010F5F1F4F8823F9F0D1
:105520000E94E7B1F801F6CF10925111E6EDF6E0D6
:1055300084918F010F5F1F4F882321F00E94E7B1F4
:10554000F801F6CF6091511170E085E895E00E9476
:10555000943D8AE00E94E7B102C00E94D47010928C
:105560001F110E94819E5EC30E9428830E94509D4D
:10557000F6CF0E943C768091370190913801A0913E
:105580003901B0913A018093D5019093D601A0934F
:10559000D701B093D8018091440190914501909337
:1055A000D4018093D30184E690E0909345018093E9
:1055B000440111E01093B80E88E50E948BB1282EAB
:1055C00089E50E948BB1082F8AE50E948BB1382EA5
:1055D000211004C0011104C0132505C0011102C02F
:1055E00010E001C0132D80E1E6ECFEE0A9E3B1E19B
:1055F00001900D928A95E1F782E50E94D4B188234B
:1056000069F00E9458B16B017C0120E030E0A901F3
:105610000E9447CE882309F4ACC006C0C12CD12C0F
:1056200070EAE72E70E4F72E111105C0211003C0B7
:10563000002309F4AFC0C0924111D0924211E09210
:105640004311F0924411A70196016091CE0E709122
:10565000CF0E8091D00E9091D10E0E9447CE87FF41
:1056600088C02091CA0E3091CB0E4091CC0E509143
:10567000CD0E2CA73DA74EA75FA74090C60E509019
:10568000C70E6090C80E7090C90E8091370190913E
:105690003801A0913901B0913A0188AB99ABAAAB1E
:1056A000BBABE2E5F8E285909590A590B49080922E
:1056B000370190923801A0923901B0923A01C0921C
:1056C000CE0ED092CF0EE092D00EF092D10E0E946C
:1056D0004C8485E595E5A5E0B3E48093370190938C
:1056E0003801A0933901B0933A014092C60E50920E
:1056F000C70E6092C80E7092C90E2CA53DA54EA58E
:105700005FA52093CA0E3093CB0E4093CC0E5093DE
:10571000CD0E0E944C84A70196016091CE0E70912F
:10572000CF0E8091D00E9091D10E0E9447D51816C1
:1057300094F48092370190923801A0923901B0928E
:105740003A01C092CE0ED092CF0EE092D00EF092DF
:10575000D10E0E944C840E943C7688A999A9AAA9DE
:10576000BBA98093370190933801A0933901B0937E
:105770003A01111105C0211003C0011106C00AC071
:1057800080E00E9414991123C1F381E00E941499D2
:10579000111102C0332019F082E00E9414990E9476
:1057A0000AB18091B70E8093B80E8091D501909187
:1057B000D601A091D701B091D80180933701909381
:1057C0003801A0933901B0933A018091D3019091AF
:1057D000D401909345018093440183E080931801A4
:1057E0000E945E82BCCE11110C94F51E0C94EE1E2C
:1057F0000E94939A0C94171F0E9424B1AB01BC0124
:105800004093F2045093F3046093F4047093F5040E
:1058100081E494E00E94E789A2CE0E9458B10E94E0
:1058200053D46D3771050CF095C170939B0E609346
:105830009A0E0E94316B0E9458B120E030E040EA9D
:1058400050E40E9447D5181614F40E9494356091D4
:105850009A0E70919B0E072E000C880B990B0E94DC
:105860004ECE2091FC0D3091FD0D4091FE0D5091DA
:10587000FF0D0E9447D518161CF480EB92E002C081
:1058800081EA92E060E00E949C5581E080933601BD
:105890008091511180933E0E18AE19AE1AAE1BAE18
:1058A00068961CAE1DAE1EAE1FAE68971CAE299644
:1058B0001FAE29974CE32D964FAF2D975CE169966B
:1058C0005FAF699786E461968FAF6197C12CD12C49
:1058D00080E8E82E9FEBF92E412C512C320160918B
:1058E0009A0E70919B0E072E000C880B990B0E944C
:1058F0004ECE162F072F8CA798AB9601A7010E94BA
:1059000047CE882319F12091FC0D3091FD0D409177
:10591000FE0D5091FF0D25969FAD2597612F702F9D
:105920008CA5911108C098A90E9447CE881F88278E
:10593000881F8CAF11C098A90E9447CE87FF0BC06B
:1059400080913601882309F40ACE6DC81C2D0D2DD7
:10595000ECA6F8AA01C01CAE0E944F896B017C0125
:10596000DC01CB0168962CAD3DAD4EAD5FAD6897C7
:10597000821B930BA40BB50BB7FD3DC0D701C6012D
:1059800088519C4FAF4FBF4F68968CAF9DAFAEAF65
:10599000BFAF68970E942B69EDE9F2E084915F0147
:1059A0009FEFA91AB90A882321F00E94E7B1F501F7
:1059B000F5CF4114510461047104B9F0D301C2015F
:1059C000805F984DAF4FBF4FBC01CD016C197D0971
:1059D0008E099F0928EE33E040E050E00E9438D263
:1059E000CA01B9010E9403B503C08FE30E94E7B169
:1059F0008AE00E94E7B10E94939A0E944F896093C7
:105A000020117093211180932211909323112090E3
:105A1000FC0D3090FD0DA091FE0DACABB091FF0DD3
:105A20002196BFAF21979101AD01612F702F8CA5F9
:105A300098A90E94E6D24B015C0120E030E0A90168
:105A40000E9447D587FF04C0B7FAB094B7F8B09466
:105A5000411451046104710459F420E030E040E83D
:105A60005FE3C501B4010E9447CE87FF0DC00AC0A5
:105A700020E030E040E450E4C501B4010E9447D585
:105A8000181614F426013701ECADEE2309F446C0D4
:105A900028AD39AD4AAD5BAD211531054105510544
:105AA00041F0D701C601821B930BA40BB50BB7FDC8
:105AB00035C091014CA921965FAD219729966FAD14
:105AC00029972D967FAD2D9769968FAD6997619631
:105AD0009FAD61970E94E6D220E030E040EC5FE3AA
