:100000000C9467160C9491160C9491160C949116FE
:100010000C94A76C0C94A76C0C94A76C0C94A76C14
:100020000C9491160C9491160C9491160C949116B4
:100030000C9491160C9422460C9491160C949116E3
:100040000C9491160C94E4980C948BAF0C9491162C
:100050000C9438350C942E350C9491160C94911602
:100060000C9491160C9491160C9491160C94911674
:100070000C9491160C9491160C9491160C94911664
:100080000C9491160C9491160C949116C69B549C4A
:10009000589C6B9C769C899C8D9CB69BEDABF0AB81
:1000A000E3ABE7AB07AC07ACF4ABF8ABFEAB02AC31
:1000B000FAAEFFAE04AF0EAF3CAF3CAF18AF20AF0F
:1000C00028AF32AF4E414E494E495459494E46CD64
:1000D000CCCC3D0AD7233C17B7D13877CC2B3295FF
:1000E00095E6241FB14F0A000020410000C84200DD
:1000F000401C4620BCBE4CCA1B0E5AAEC59D744364
:100100004F4D4D554E49434154494F4E004452596D
:1001100052554E004552524F525300494E464F00E1
:100120004543484F0020746F6F206C6F6E672065E9
:100130007874727573696F6E2070726576656E740F
:1001400065640A0020636F6C64206578747275734F
:10015000696F6E2070726576656E7465640A00530F
:100160006C6565702E2E2E00436C69636B20746F76
:1001700020726573756D652E2E2E004E6F206D6F8B
:1001800076652E00456E642066696C65206C697327
:10019000740A00426567696E2066696C65206C6947
:1001A00073740A00286E6F2066696C6529004375B8
:1001B0007272656E742066696C653A200053442043
:1001C0007072696E74696E67206279746520004E82
:1001D0006F74205344207072696E74696E670A00F0
:1001E00044656C6574696F6E206661696C65642C2A
:1001F0002046696C653A200046696C652064656C30
:10020000657465643A002569730025696D20256968
:1002100073002569682025696D20256973002569AB
:1002200064202569682025696D202569730025698A
:100230007920256964202569682025696D20256954
:1002400073005072696E742074696D653A200020E5
:10025000573A004520436F6F6C696E672E2E2E0053
:10026000452048656174696E672E2E2E006F6666A4
:100270000020011B0114010D01FF004445425547B8
:100280003A0020573A0042656420636F6F6C696ED4
:10029000672E2E2E004265642068656174696E6762
:1002A0002E2E2E006F6B00416E6574204138204F5A
:1002B00046462E004D4F54494F4E5F4D4F444553D7
:1002C00000544845524D414C5F50524F54454354A1
:1002D000494F4E004155544F5245504F52545F5371
:1002E000445F53544154555300454D455247454E84
:1002F00043595F50415253455200434153455F4C6F
:10030000494748545F4252494748544E4553530069
:10031000544F47474C455F4C494748545300534F4F
:100320004654574152455F504F5745520042554938
:100330004C445F50455243454E54004C4556454C45
:10034000494E475F44415441005A5F50524F424525
:10035000004155544F4C4556454C005052494E545F
:100360005F4A4F420050524F475245535300415548
:10037000544F5245504F52545F54454D5000564FC4
:100380004C554D455452494300454550524F4D0040
:1003900053455249414C5F584F4E5F584F464600B7
:1003A0004649524D574152455F4E414D453A4D6188
:1003B000726C696E206275676669782D322E302EF8
:1003C0007820284769746875622920534F55524335
:1003D000455F434F44455F55524C3A68747470739F
:1003E0003A2F2F6769746875622E636F6D2F4D61A8
:1003F000726C696E4669726D776172652F4D6172BC
:100400006C696E2050524F544F434F4C5F564552CB
:1004100053494F4E3A312E30204D414348494E45C5
:100420005F545950453A416E657420413820455813
:100430005452554445525F434F554E543A3120551E
:100440005549443A63656465326132662D343161E1
:10045000322D343734382D396231322D63353563DE
:1004600036326633363766660A002F2F20004D314C
:10047000343520533C696E6465783E206F75742076
:100480006F662072616E67652028302D31290A0061
:10049000205400205200416363656C657261746989
:1004A0006F6E3A2050004F4646004F4E00205A00D3
:1004B000205900580020204D61783A2000205A0031
:1004C000205900580020204D696E3A2000536F6675
:1004D0007420656E6473746F70733A200020466CEC
:1004E0006F773A200050726F7465637465642050B2
:1004F000696E0A00496E76616C6964206578747271
:10050000756465720A0020643A0020693A00207020
:100510003A0043290A0061626C656420286D696EA7
:100520002074656D702000436F6C64206578747270
:1005300075646573206172652000486F6D652025C4
:10054000732573257320666972737400206669725F
:1005500073740A005A0059005800486F6D652000F6
:100560004F666673657473206170706C69656400B2
:100570004572723A20546F6F206661722100546F89
:100580006F206661722066726F6D2072656665729B
:10059000656E636520706F696E740A004545505240
:1005A0004F4D204F4B0A004E6F2063617365206CE6
:1005B000696768740A00496E76616C6964206578C1
:1005C0007472756465720A004572726F7220777278
:1005D0006974696E6720746F20454550524F4D21F4
:1005E0000A000F150E1216170E1303021A1401003B
:1005F0000E0C190DFF180C0400014B494C4C2063E4
:10060000617573656420627920746F6F206D756306
:100610006820696E6163746976652074696D652010
:100620002D2063757272656E7420636F6D6D616EDF
:10063000643A2000506C656173652072657365745F
:10064000005052494E5445522048414C54454400B4
:100650004B494C4C45442E20005072696E746572B3
:100660002068616C7465642E206B696C6C2829208D
:1006700063616C6C6564210A006563686F3A0045CC
:1006800072726F723A0020496E76616C69642065FF
:1006900078747275646572200043616E6E6F7420A9
:1006A0006F70656E20737562646972200053442018
:1006B00063617264206F6B0A006F70656E526F6FBA
:1006C00074206661696C65640A00766F6C756D658F
:1006D0002E696E6974206661696C65640A00534412
:1006E00020696E6974206661696C0A004D323400BD
:1006F0004D32332025730057726974696E67207418
:100700006F2066696C653A20006F70656E206661C7
:10071000696C65642C2046696C653A20006F7065D1
:100720006E206661696C65642C2046696C653A20B0
:100730000046696C652073656C65637465640A00C6
:100740002053697A653A200046696C65206F7065B0
:100750006E65643A2000667265736800646F696E46
:1007600067002066696C653A20004E6F772000456F
:100770004E4420535542524F5554494E450A00228B
:1007800020706F73002220706172656E743A2200CF
:10079000535542524F5554494E452043414C4C20ED
:1007A0007461726765743A2200747279696E6720A9
:1007B000746F2063616C6C207375622D67636F6466
:1007C000652066696C6573207769746820746F6F43
:1007D000206D616E79206C6576656C732E204D41BD
:1007E00058206C6576656C2069733A310A0068742C
:1007F00074703A2F2F6D61726C696E66772E6F720E
:100800006700687474703A2F2F6D61726C696E6640
:10081000772E6F726700687474703A2F2F6D617253
:100820006C696E66772E6F726700627567666978AD
:100830002D322E302E78006275676669782D322E43
:10084000302E78006275676669782D322E302E78EA
:100850000000687474703A2F2F6D61726C696E6657
:10086000772E6F726700687474703A2F2F6D617203
:100870006C696E66772E6F726700687474703A2FB9
:100880002F6D61726C696E66772E6F7267002062E1
:1008900075676669782D322E302E78002020506CD6
:1008A000616E6E65724275666665724279746573D3
:1008B0003A20002046726565204D656D6F72793A69
:1008C0002000436F6D70696C65643A204465632055
:1008D000313620323031380A00207C20417574686E
:1008E0006F723A2028426F62204B75686E2C20414F
:1008F0006E657420636F6E666967290A0032303155
:10090000382D30312D323000204C617374205570F9
:1009100064617465643A20006275676669782D3297
:100920002E302E780A004D61726C696E0020536F74
:100930006674776172652052657365740A0020578A
:1009400061746368646F672052657365740A002080
:1009500042726F776E206F75742052657365740AEA
:10096000002045787465726E616C20526573657401
:100970000A00506F77657255700A00737461727463
:100980000A006175746F25632E67006572726F725D
:100990002077726974696E6720746F2066696C6570
:1009A0000A00446F6E6520736176696E6720666920
:1009B0006C652E0A004D323900456E6473746F7099
:1009C0007320256320256320256320256300205A9A
:1009D0003A0020593A0020583A00656E6473746FEB
:1009E0007073206869743A2000202F002042403A3A
:1009F0000020403A007C3C3E5E2B3D3F2F5B5D3B40
:100A00002C2A225C0024F4D43050C38E20C2A24091
:100A100017828B7011127A910D816CD90AA861E14D
:100A200008C7586607615143061E4B5D05C145A7BF
:100A3000041A411104093D9803713931034036DB32
:100A40000265339102D4305402802E1D02632CEED5
:100A500001752AC501B028A001102781018F2564E6
:100A6000012B244B01E0223401AC211F018D200D0C
:100A700001801FFC00841EED00971DDF00B81CD212
:100A800000E61BC600201BBC00641AB200B219A805
:100A9000000A19A0006A189900D117910040178B1D
:100AA00000B516840031167E00B31579003A15732F
:100AB00000C7146F0058146A00EE136600881363B1
:100AC0000025135E00C7125B006C1257001512540C
:100AD00000C111510070114F0021114B00D6104977
:100AE000008D1047004610440002104200C00F4025
:100AF00000800F3E00420F3C00060F3B00CB0E383B
:100B000000930E37005C0E3500270E3400F30D32D3
:100B100000C10D3100900D3000600D2E00320D2D02
:100B200000050D2C00D90C2B00AE0C2900850C29DA
:100B3000005C0C2700350C27000E0C2600E80B2467
:100B400000C40B2400A00B23007D0B23005A0B21B3
:100B500000390B2100180B2000F80A1F00D90A1ECB
:100B600000BB0A1E009D0A1D00800A1D00630A1CAE
:100B700000470A1B002C0A1B00110A1A00F7091A69
:100B800000DD091900C4091900AB09190092091701
:100B9000007B091800630917004C09160036091676
:100BA00000200916000A091500F5081500E00814D0
:100BB00000CC081400B8081400A40814009008130E
:100BC000007D0812006B0813005808120046081236
:100BD0000034081100230811001208110001081147
:100BE00000F0071000E0071000D0071000C0071049
:100BF00000B0070F00A107100091070E0083070F38
:100C00000074070F0065070E0057070E0049070E16
:100C1000003B070D002E070E0020070D0013070DE7
:100C20000006070D00F9060C00ED060D00E0060CAD
:100C300000D4060C00C8060C00BC060C00B0060C64
:100C400000A4060B0099060C008D060B0082060B13
:100C50000077060B006C060B0061060A0057060BB6
:100C6000004C060A0042060A0038060A002E060A50
:100C70000024060A001A060A001006090007060AE0
:100C800000FD050900F4050900EB050900E205096E
:100C900000D9050900D0050900C7050900BE0509EE
:100CA00000B5050800AD050800A50509009C05086C
:100CB00000940508008C050800840508007C0508E0
:100CC00000740508006C050700650508005D050750
:100CD00000560508004E05070047050700400508B7
:100CE0000038050700310507002A0507002305071E
:100CF000001C050600160507000F0507000805067D
:100D00000002050700FB040600F5040700EE0406D8
:100D100000E8040600E2040700DB040600D5040630
:100D200000CF040600C9040600C3040600BD040683
:100D300000B7040600B1040500AC040600A60406D2
:100D400000A00405009B040600950405009004061D
:100D5000008A04050085040500800406007A040565
:100D60000075040500700405006B040500660405A9
:100D700000610405005C04050057040500520405E9
:100D8000004D04050048040500430405003E04042A
:100D9000003A04050035040500300404002C040565
:100DA0000027040400230405001E0404001A0404A0
:100DB0000016040500110404000D040400090405D4
:100DC000000404040000040400FC030400F803040D
:100DD00000F4030400F0030400EC030400E803043F
:100DE00000E4030400E0030400DC030400D803046F
:100DF00000D4030400D0030400CC030400C80303A0
:100E000000C503030024F404D9201BC40C5C0E9815
:100E100004C4095F0265077101F405F900FB04B31E
:100E20000048048700C103690058035500030345C7
:100E300000BE023A008402310053022A0029022532
:100E40000004022000E4011C00C8011900AF0117D2
:100E50000098011400840113007101100061011059
:100E60000051010E0043010D0036010B002B010B58
:100E70000020010B00150109000C01090003010805
:100E800000FB000800F3000800EB000700E4000688
:100E900000DE000600D8000600D2000600CC0005E7
:100EA00000C7000500C2000500BD000400B9000431
:100EB00000B5000400B1000400AD000400A9000466
:100EC00000A5000300A20003009F0004009B000394
:100ED00000980003009500020093000300900003B7
:100EE000008D0002008B00030088000200860002D3
:100EF0000084000300810002007F0002007D0002E8
:100F0000007B0002007900020077000100760002F9
:100F1000007400020072000100710002006F000204
:100F2000006D0001006C0002006A0001006900020F
:100F30000067000100660001006500010064000216
:100F4000006200010061000100600001005F00021A
:100F5000005D0001005C0001005B0001005A00011F
:100F6000005900010058000100570001005600011F
:100F7000005500010054000100530000005300011F
:100F8000005200010051000100500001004F00011B
:100F9000004E0000004E0001004D0001004C000119
:100FA000004B0000004B0001004A00010049000115
:100FB0000048000000480001004700010046000012
:100FC000004600010045000000450001004400010A
:100FD0000043000000430001004200000042000105
:100FE000004100000041000100400001003F0000FE
:100FF000003F0001003E0000003E0001003D0000F7
:10100000003D0001003C0000003C0000003C0001ED
:10101000003B0000003B0001003A0000003A0001E4
:1010200000390000003900010038000000380000DD
:1010300000380001003700000037000100360000D2
:1010400000360000003600010035000000350000C9
:1010500000350001003400000034000000340001BD
:1010600000330000003300000033000100320000B4
:1010700000320000003200010031000000310000A9
:10108000003100010030000000300000003000019D
:10109000002F0000002F0000002F0000002F000193
:1010A000002E0000002E0000002E0001002D000088
:1010B000002D0000002D0000002D0001002C00007C
:1010C000002C0000002C0000002C0001002B000070
:1010D000002B0000002B0000002B0001002A000064
:1010E000002A0000002A0000002A00010029000058
:1010F000002900000029000000290000002900014B
:10110000002800000028000000280000002800003F
:101110000028000100270000002700000027000031
:101120000027000000270001002600000026000024
:101130000026000000260000002600010025000017
:10114000002500000025000000250000002500000B
:1011500000250001002400000024000000240000FD
:1011600000240000002400010023000000230000F0
:1011700000230000002300000023000000230000E3
:1011800000230001002200000022000000220000D5
:1011900000220000002200000022000100210000C7
:1011A00000210000002100000021000000210000BB
:1011B00000210000002100010020000000200000AC
:1011C000002000000020000000200000002000009F
:1011D0000020000000200001001F0000001F000090
:1011E000001F0000001F0000001F0000001F000083
:1011F000001F0001001E0000001E0000001E000075
:10120000001E000000043700001E290000511B00D2
:10121000005810000010090000CC04000078020003
:10122000004101000000005C4300005C43000070CE
:1012300043000004C2000020C100000000290A0091
:101240002062797465733B20637263200053657478
:1012500074696E67732053746F726564202800454B
:101260004550524F4D206461746173697A65206501
:1012700072726F722E0A00290A00206279746573F7
:101280003B2063726320002073746F726564207367
:10129000657474696E6773207265747269657665CA
:1012A00064202800202863616C63756C6174656438
:1012B00029210A0020213D2000454550524F4D2054
:1012C000435243206D69736D61746368202D20283B
:1012D00073746F7265642920002053697A653A201F
:1012E00000496E6465783A2000204D61726C696E29
:1012F0003D563633290A0028454550524F4D3D0092
:10130000454550524F4D2076657273696F6E206D62
:1013100069736D617463682000556E6B6E6F776ED4
:1013200020636F6D6D616E643A20220020746F6FD0
:10133000206C6F6E6720657874727573696F6E20AC
:1013400070726576656E7465640A0020636F6C6404
:1013500020657874727573696F6E2070726576653A
:101360006E7465640A0048617264636F646564202A
:1013700044656661756C742053657474696E677337
:10138000204C6F616465640A00D0070000D007003C
:101390000064000000102700000000C8430000C8DF
:1013A0004300000041000048420000C8420000C85D
:1013B000420000C8430000C84220440020490020E9
:1013C000204D3330312050005049442073657474EF
:1013D000696E67733A0A00204600204200204800E8
:1013E00020204D3134352053004D617465726961A0
:1013F0006C2068656174757020706172616D6574D0
:101400006572733A0A00205A0020590020204D329C
:101410003036205800486F6D65206F6666736574BE
:101420003A0A00204500205A002059002058002088
:10143000540020530020204D3230352042002045FA
:101440003C6D61785F655F6A65726B3E0020583C59
:101450006D61785F785F6A65726B3E20593C6D61A3
:10146000785F795F6A65726B3E205A3C6D61785F88
:101470007A5F6A65726B3E00416476616E63656493
:101480003A20423C6D696E5F7365676D656E745F8F
:1014900074696D655F75733E20533C6D696E5F6660
:1014A000656564726174653E20543C6D696E5F745D
:1014B000726176656C5F66656564726174653E0035
:1014C00020540020520020204D3230342050004162
:1014D0006363656C65726174696F6E2028756E69EF
:1014E00074732F7332293A20503C7072696E745FA6
:1014F000616363656C3E20523C7265747261637413
:101500005F616363656C3E20543C74726176656C08
:101510005F616363656C3E0A00204500205A00202D
:10152000590020204D3230312058004D6178696DCE
:10153000756D20416363656C65726174696F6E20BF
:1015400028756E6974732F7332293A0A002045009A
:10155000205A0020590020204D3230332058004DB1
:101560006178696D756D2066656564726174657317
:101570002028756E6974732F73293A0A002045007C
:10158000205A0020590020204D3932205800537431
:101590006570732070657220756E69743A0A002058
:1015A000204D3230302044300A0020204D3230307F
:1015B0002044002044697361626C65640A004669D6
:1015C0006C616D656E742073657474696E67733ACF
:1015D0000020204D3134392043203B20556E697462
:1015E0007320696E2043656C736975730A00202847
:1015F0006D6D29002020473231202020203B2055CE
:101600006E69747320696E206D6D006F70656E0079
:10161000545249474745524544003A20007A5F6D8D
:10162000696E00795F6D696E00785F6D696E00525A
:1016300065706F7274696E6720656E6473746F7025
:10164000207374617475730A00205A3A0020593A65
:101650000020436F756E7420583A0020453A0020F0
:101660005A3A0020593A00583A00486F6D696E673F
:10167000206661696C656400000004C2000020C13E
:10168000000000000000C8420000C8420000804086
:10169000000000005761726E696E673A20486F6DF6
:1016A000696E672042756D702044697669736F7248
:1016B000203C20310A000202040000A0400000A0EB
:1016C000400000004000007D4300006643000070C1
:1016D00043FFFFFF001C1F11111F00000006191817
:1016E00003130C00040E1F041C000000000E131551
:1016F000110E00001C10181705060500040A0A0A3E
:101700000A11110E0C12120C00000000001F15111E
:10171000151F00002D2D2D2D2D2D007C4D61726C7F
:10172000696E7C002D2D2D2D2D2D00000000000157
:101730000204040000001C1C0C040404020100004C
:10174000000000040810000000000046696C2E2014
:101750004469612E0046696C2E204469612E004F59
:101760006666004F6E004520696E206D6D5E330029
:10177000416476616E6365642053657474696E6755
:10178000730056652D6A65726B0056652D6A657229
:101790006B00567A2D6A65726B00567A2D6A6572F7
:1017A0006B0056792D6A65726B0056792D6A6572E9
:1017B0006B0056782D6A65726B0056782D6A6572DB
:1017C0006B00416476616E6365642053657474696F
:1017D0006E6773004573746570732F6D6D0045738C
:1017E000746570732F6D6D005A73746570732F6D0F
:1017F0006D005A73746570732F6D6D005973746545
:1018000070732F6D6D005973746570732F6D6D005B
:101810005873746570732F6D6D00587374657073B1
:101820002F6D6D00416476616E636564205365744D
:1018300074696E677300496E697469616C697A6571
:1018400020454550524F4D00416476616E6365649A
:101850002053657474696E6773004D3432380049E3
:101860006E697469616C697A6520454550524F4DC7
:101870000046696C616D656E740054656D706572CB
:1018800061747572650053746570732F6D6D004AD5
:1018900065726B00416363656C65726174696F6E3C
:1018A0000056656C6F636974790053657420686FC6
:1018B0006D65206F66667365747300436F6E66694D
:1018C0006775726174696F6E0053746F726520730F
:1018D000657474696E6773004265640042656400F4
:1018E0004E6F7A7A6C65004E6F7A7A6C650046614D
:1018F0006E2073706565640046616E207370656567
:101900006400436F6E66696775726174696F6E001B
:101910005049442D44005049442D44005049442D21
:1019200049005049442D49005049442D5000504928
:10193000442D5000416476616E6365642053657484
:1019400074696E6773005654726176206D696E001B
:101950005654726176206D696E00566D696E005640
:101960006D696E00566D6178204500566D61782076
:101970004500566D6178205A00566D6178205A00F6
:10198000566D6178205900566D6178205900566D6A
:101990006178205800566D61782058004164766166
:1019A0006E6365642053657474696E677300416D7E
:1019B0006178204500416D6178204500416D617876
:1019C000205A00416D6178205A00416D617820599C
:1019D00000416D6178205900416D617820580041C7
:1019E0006D6178205800412D74726176656C0041FC
:1019F0002D74726176656C00412D7265747261633D
:101A00007400412D72657472616374004163636593
:101A10006C00416363656C00416476616E6365646C
:101A20002053657474696E677300507265686561F0
:101A30007420504C4120456E6400507265686561A9
:101A40007420504C41005072656865617420504CA0
:101A500041204265640054656D70657261747572F1
:101A60006500507265686561742041425320456E7F
:101A7000640050726568656174204142532042657C
:101A8000640050726568656174204142530054657A
:101A90006D7065726174757265005072656865611C
:101AA0007420414253005072656865617420504C47
:101AB0004100436F6F6C646F776E0046616E2073F8
:101AC000706565640046616E2073706565640042F0
:101AD000656400426564004E6F7A7A6C65004E6FF3
:101AE0007A7A6C65004D61696E0042616279737447
:101AF0006570205A004261627973746570205A00E3
:101B0000466C6F7700466C6F770046616E2073708D
:101B10006565640046616E207370656564004265AA
:101B20006400426564004E6F7A7A6C65004E6F7A8D
:101B30007A6C650053706565640053706565640078
:101B40004D61696E00656E7175657565696E6720BA
:101B500022006F6B00526573656E643A2000535427
:101B60004F505045442E20005072696E74657220AB
:101B700073746F707065642064756520746F206580
:101B800072726F72732E20466978207468652065C2
:101B900072726F7220616E6420757365204D3939E1
:101BA0003920746F20726573746172742E2028540A
:101BB000656D7065726174757265206973207265F8
:101BC0007365742E20536574206974206166746592
:101BD000722072657374617274696E67290A004EAF
:101BE0006F20436865636B73756D20776974682037
:101BF0006C696E65206E756D6265722C204C617328
:101C000074204C696E653A20004E6F20436865630E
:101C10006B73756D2077697468206C696E65206ED2
:101C2000756D6265722C204C617374204C696E6511
:101C30003A2000636865636B73756D206D69736D21
:101C4000617463682C204C617374204C696E653A32
:101C500020004C696E65204E756D62657220697357
:101C6000206E6F74204C617374204C696E65204E39
:101C7000756D6265722B312C204C617374204C6938
:101C80006E653A20004D313130004D333100534400
:101C90002072656164206572726F720A00446F6E13
:101CA00065207072696E74696E672066696C650A7A
:101CB0000023646566696E652044454641554C5471
:101CC0005F004B6420004B6920004B70200050499E
:101CD00044204175746F74756E652066696E697312
:101CE000686564212050757420746865206C617388
:101CF00074204B702C204B6920616E64204B642053
:101D0000636F6E7374616E74732066726F6D2062A0
:101D1000656C6F7720696E746F20436F6E666967BC
:101D200075726174696F6E2E680A005049442041D3
:101D300075746F74756E65206661696C65642120C9
:101D400074696D656F75740A0045312054484552B9
:101D50004D414C2052554E415741590054686572CF
:101D60006D616C2052756E61776179004531204854
:101D7000656174696E67206661696C6564004865B9
:101D80006174696E67206661696C656400504944DE
:101D9000204175746F74756E65206661696C656449
:101DA000212054656D706572617475726520746F61
:101DB0006F20686967680A00204B643A2000204B56
:101DC000693A2000204B703A20000A20436C61736E
:101DD00073696320504944200A002054753A20005A
:101DE000204B753A2000206D61783A2000206D6903
:101DF0006E3A200020643A200020626961733A2024
:101E000000504944204175746F74756E6520737479
:101E10006172740A00504944204175746F74756E84
:101E200065206661696C6564212042616420657883
:101E3000747275646572206E756D6265720A00A1B8
:101E40000000006900A20000006300B0000000096B
:101E500000C10000004100C20000004100C30000BA
:101E6000004100C40000004100C50000004100C660
:101E70000000004145C70000004300C800000045C5
:101E800000C90000004500CD0000004900D100005D
:101E9000004E00D50000004F00D60000004F00D7D4
:101EA0000000007800DC0000005500DD0000005953
:101EB00000E00000006100E10000006100E20000BD
:101EC000006100E30000006100E40000006100E543
:101ED0000000006100E60000006165E700000063AB
:101EE00000E80000006500E90000006500EA00006D
:101EF000006500EB0000006500EC0000006900EDEB
:101F00000000006900EE0000006900EF00000069B9
:101F100000F10000006E00F20000006F00F300000E
:101F2000006F00F40000006F00F50000006F00F685
:101F30000000006F00F80000006F00F9000000755D
:101F400000FA0000007500FB0000007500FC0000B6
:101F5000007500FD0000007900FF0000007900041A
:101F6000010000410005010000610006010000437E
:101F7000000701000063000C01000043000D010098
:101F80000063000E01000044000F01000064001116
:101F900001000064001901000065001F01000067D6
:101FA00000300100004900310100006900410100DA
:101FB000004C00420100006C00430100004E004450
:101FC0000100006E00480100006E0059010000721F
:101FD000005A01000053005B01000073005F010024
:101FE0000073006001000053006101000073006590
:101FF00001000074006F01000075007C0100007A90
:10200000007D0100005A007E0100007A009201006C
:10201000006600E3020000780084030000270085CA
:102020000300002700860300004100870300002E04
:10203000008803000045008903000048008A03006F
:102040000049008C0300004F008E03000059008FF0
:102050000300004F0090030000690091030000415D
:102060000092030000420093030000540094030018
:10207000003400950300004500960300005A0097C5
:102080000300004800980300003000990300004955
:10209000009A0300004B009B0300005E009C0300BD
:1020A000004D009D0300004E009E03000033009F82
:1020B0000300004F00A00300006E00A103000050C9
:1020C00000A30300004500A40300005400A5030082
:1020D000005900A60300007000A70300005800A8E4
:1020E0000300005000A90300004F00AA03000049AC
:1020F00000AB0300005900AC0300006100AD030019
:10210000006500AE0300006E00AF0300006900B080
:102110000300007600B10300006100B2030000423A
:1021200000B30300007600B40300006400B50300B0
:10213000006500B60300005A00B70300006E00B847
:102140000300003000B90300006900BA0300006B0F
:1021500000BB0300004C00BC0300007500BD030081
:10216000007600BE0300006500BF0300006F00C0E2
:102170000300006E00C10300007000C20300006392
:1021800000C30300006F00C40300007400C5030017
:10219000007600C60300007000C70300005800C8A6
:1021A0000300005700C90300007700CA030000695C
:1021B00000CB0300007600CC0300006F00CD0300CD
:1021C000007600CE030000770001040000450010F7
:1021D00004000041001104000062001204000042EB
:1021E0000013040000540014040000510015040002
:1021F000004500160400002A0017040000450018DE
:102200000400004E00190400004E001A0400004BA8
:10221000001B04000054001C0400004D001D0400BD
:102220000048001E0400004F001F0400006E002044
:102230000400005000210400004300220400005468
:1022400000230400005900240400006F002504004E
:1022500000580026040000550027040000790028DB
:1022600004000057002904000057002A04000062FF
:10227000002B040000627C2C04000062002D04008E
:102280000065002E0400007C4F2F040000397C30D4
:1022900004000061003104000036003204000042F6
:1022A00000330400007200340400006100350400B3
:1022B000006500360400002A00370400006500387D
:1022C00004000075003904000075003A0400006B3A
:1022D000003B0400006E003C0400006D003D040063
:1022E0000048003E0400006F003F0400006E004004
:1022F0000400007000410400006300420400007408
:10230000004304000079004404000071704504009B
:10231000007800460400007500470400007900487A
:1023200004000077004904000077004A04000062BE
:10233000004B040000627C4C04000062004D04006D
:102340000065004E0400007C6F4F040000670051E0
:102350000400006500222000002E001E2100005015
:102360007822210000544D902100003C2D92210044
:10237000002D3EB02100000300BB21000004003C02
:102380002200007E00482200007E3D6022000021E5
:102390003D612200003D00642200003C3D652200BA
:1023A000003E3DF12300000700A03000003D002169
:1023B000F301000200C2F401000500A2000000ECDD
:1023C00000B0000000DF00E4000000E100F60000C3
:1023D00000EF00F7000000FD00FC000000F500E346
:1023E000020000EB0087030000A5008F030000F44B
:1023F0000098030000F2009E030000E300A3030026
:1024000000F600A9030000F400AC030000E000ADFA
:10241000030000E300B1030000E000B2030000E2AB
:1024200000B5030000E300B8030000F200BC0300A5
:1024300000E400BE030000E300C0030000F700C199
:10244000030000E600C3030000E500902100007FC8
:1024500000922100007E001A220000E8001E2200E7
:1024600000F30088250000FF0002300000A1000CEE
:10247000300000A2000D300000A3009B300000DE01
:10248000009C300000DF00A03000003D00A13000C3
:1024900000A700A2300000B100A3300000A800A4F3
:1024A000300000B200A5300000A900A6300000B343
:1024B00000A7300000AA00A8300000B400A9300036
:1024C00000AB00AA300000B500AB300000B600AC95
:1024D000300000B6DEAD300000B700AE300000B70F
:1024E000DEAF300000B800B0300000B8DEB1300020
:1024F00000B900B2300000B9DEB3300000BA00B459
:10250000300000BADEB5300000BB00B6300000BBC2
:10251000DEB7300000BC00B8300000BCDEB93000CF
:1025200000BD00BA300000BDDEBB300000BE00BC04
:10253000300000BEDEBD300000BF00BE300000BF76
:10254000DEBF300000C000C0300000C0DEC130007F
:1025500000C100C2300000C1DEC3300000AF00C4C3
:10256000300000C200C5300000C2DEC6300000C32B
:1025700000C7300000C3DEC8300000C400C930000E
:1025800000C4DECA300000C500CB300000C600CC5D
:10259000300000C700CD300000C800CE300000C9B8
:1025A00000CF300000CA00D0300000CADED13000B9
:1025B00000CADFD2300000CB00D3300000CBDED425
:1025C000300000CBDFD5300000CC00D6300000CC8E
:1025D000DED7300000CCDFD8300000CD00D930008D
:1025E00000CDDEDA300000CDDFDB300000CE00DCD5
:1025F000300000CEDEDD300000CEDFDE300000CF68
:1026000000DF300000D000E0300000D100E13000F9
:1026100000D200E2300000D300E3300000AC00E460
:10262000300000D400E5300000AD00E6300000D5F9
:1026300000E7300000AE00E8300000D600E93000CE
:1026400000D700EA300000D800EB300000D900ECE1
:10265000300000DA00ED300000DB00EF300000DC7D
:1026600000F2300000A600F3300000DD00F430007E
:1026700000B3DEF7300000DCDEFA300000A6DEFB3F
:10268000300000A500FC300000B000FD300000A4C8
:1026900000074E0000FB0086510000FC0043530081
:1026A00000FA0064FF0000A40065FF0000A50066BA
:1026B000FF0000A60067FF0000A70068FF0000A859
:1026C0000069FF0000A9006AFF0000AA006BFF007C
:1026D00000AB006CFF0000AC006DFF0000AD006EB1
:1026E000FF0000AE006FFF0000AF0070FF0000B001
:1026F0000071FF0000B10072FF0000B20073FF0024
:1027000000B30074FF0000B40075FF0000B5007650
:10271000FF0000B60077FF0000B70078FF0000B8A8
:102720000079FF0000B9007AFF0000BA007BFF00CB
:1027300000BB007CFF0000BC007DFF0000BD007EF0
:10274000FF0000BE007FFF0000BF0080FF0000C050
:102750000081FF0000C10082FF0000C20083FF0073
:1027600000C30084FF0000C40085FF0000C5008690
:10277000FF0000C60087FF0000C70088FF0000C8F8
:102780000089FF0000C9008AFF0000CA008BFF001B
:1027900000CB008CFF0000CC008DFF0000CD008E30
:1027A000FF0000CE008FFF0000CF0090FF0000D0A0
:1027B0000091FF0000D10092FF0000D20093FF00C3
:1027C00000D30094FF0000D40095FF0000D50096D0
:1027D000FF0000D60097FF0000D70098FF0000D848
:1027E0000099FF0000D9009AFF0000DA009BFF006B
:1027F00000DB009CFF0000DC009DFF0000DD009E70
:10280000FF0000DE009FFF0000DF00E5FF00005C2E
:102810000025753A2530327500253032753A25305D
:102820003275002D2D2D0053440020202020202023
:10283000002020202000A00F001003A00F00100295
:10284000A00F0010012C01F401086C079808053A4C
:10285000026603076E0A360B047E04AA0506416E63
:1028600065742041382052656164792E0050726988
:102870006E74696E672E2E2E005072696E74207011
:102880006175736564006265640A002C2073797356
:1028900074656D2073746F70706564212048656184
:1028A0007465725F49443A2000426564206865613E
:1028B00074696E67206661696C656400486561745F
:1028C000696E67206661696C656400453120486502
:1028D0006174696E67206661696C65640048656152
:1028E00074696E67206661696C656400202D2049FB
:1028F0006E76616C696420657874727564657220A7
:102900006E756D62657220210A001000C902100107
:102910002C014001220170011801B0010E01F001EB
:1029200004015002FA00B002F0003003E600D003C8
:10293000DC009004D2007005C800A006BE000008AC
:10294000B400B009AA00D00BA000600E9600601180
:102950008C000015820020197800C01D6E00A02296
:102960006400B0275A00902C500000314600E0343B
:102970003C0010383200903A2800603C1E00A03D18
:102980001400803E0A00203F00004531204572724D
:102990003A204D415854454D50004572723A204DF1
:1029A000415854454D5020424544004D41585445EE
:1029B0004D50207472696767657265640045312007
:1029C0004572723A204D494E54454D500045727241
:1029D0003A204D494E54454D5020424544004D4902
:1029E0004E54454D50207472696767657265640086
:1029F0004D383420582059205A2045004C6F6164CE
:102A00002073657474696E677300526573746F72B6
:102A100065206661696C736166650053746F7265E9
:102A20002073657474696E677300507265686561C0
:102A3000742041425320636F6E6600507265686572
:102A4000617420504C4120636F6E66004164766172
:102A50006E6365642053657474696E6773004D61BD
:102A6000696E004D3235005072696E742061626F7C
:102A7000727465640054656D706572617475726519
:102A8000004D6F74696F6E0054756E6500496E6914
:102A9000742E2053442063617264004D3231004E25
:102AA0006F2053442063617264004368616E676500
:102AB0002053442063617264004D323100507269CA
:102AC0006E742066726F6D2053440053746F7020D3
:102AD0007072696E7400526573756D6520707269ED
:102AE0006E74005061757365207072696E74004376
:102AF0006F6E66696775726174696F6E00496E66A4
:102B00006F2073637265656E004D6F7665205800A7
:102B10004D6F76652059004D6F7665205A004578D7
:102B200074727564657200457874727564657200BC
:102B30004D6F7665205A004D6F76652059004D6FB8
:102B400076652058004D6F74696F6E00446973613B
:102B5000626C65207374657070657273004D3834F3
:102B6000004175746F20686F6D6500473238004D05
:102B70006F76652061786973004D61696E0043610D
:102B80006E6E6F7420656E74657220737562646911
:102B9000723A2000052E2E00045265667265736835
:102BA000004D61696E0000002100240027002A000A
:102BB00000002200250028002B0000002000230038
:102BC0002600290002020202020202020404040496
:102BD00004040404030303030303030301010101C9
:102BE00001010101010204081020408001020408D3
:102BF00010204080010204081020408080402010F6
:102C000008040201000000010200000000000000B2
:102C1000040308070000000000000000000000009E
:102C2000000000004D6F766520302E316D6D004D37
:102C30006F766520316D6D004D6F76652031306D9A
:102C40006D004D6F7665206178697300486F74651B
:102C50006E6420746F6F20636F6C640045787472CB
:102C600075646572004D6F7665205A004D6F76650C
:102C70002059004D6F76652058006F70656E206694
:102C800061696C65642C2046696C653A20004531A9
:102C900020544845524D414C2052554E41574159C0
:102CA0000042454420544845524D414C2052554E17
:102CB0004157415900546865726D616C2052756EC0
:102CC00061776179004361703A002DBC06B311242D
:102CD0001FBECFEFD0E4DEBFCDBF12E0A0E0B1E079
:102CE000EAE1F1E901E00BBF02C007900D92AE33BB
:102CF000B107D9F720E1AEE3B2E001C01D92A53CD7
:102D0000B207E1F716E1C6E6D6E104C02197FE015D
:102D10000E94E7C5C536D107C9F70E9420B30C94BD
:102D200080C80C9400002F923F924F925F926F9256
:102D30007F928F929F92AF92BF92CF92DF92EF924B
:102D4000FF920F931F93CF93DF93CDB7DEB7E99731
:102D50000FB6F894DEBF0FBECDBF00919E0420E6F3
:102D6000029F80011124025E1C4F80912B0A80FF7C
:102D700005C00E942232C8010E940D3510927602D1
:102D8000109275028FE38093780210926A0210927B
:102D90006902109265021092660210926702109208
:102DA0006802C8018C01DC012C9101962032D1F31C
:102DB0002E34D9F411968C9190ED980F9A3020F022
:102DC0008D3211F08B3289F4F80132969F012F5F1A
:102DD0003F4F808180538A3010F4F901F7CF8F0183
:102DE0003196D8018C918032D1F310932405009351
:102DF00023057801BFEFEB1AFB0AF80170806AE245
:102E000070E0C7010E943DC8009731F0FC01319786
:102E100080818032E1F31182BDE47B120C943B2867
:102E2000F70180812FEFE21AF20A8032C9F3805352
:102E30008A3010F00C9445287092780280E090E07F
:102E40006AE03196DF0111972C91022E000C330BB2
:102E500020533109689FA001699F500D1124C901B9
:102E6000840F951F208120532A3058F390936A02D3
:102E700080936902DF0131962C912032D9F33DE431
:102E800073121AC08E31910591F03CF4873191058F
:102E900071F08C31910581F40AC08537910564F099
:102EA0008737910524F0803A43E0940729F4B093E2
:102EB0007602A0937502A3C0C12CD12C760140E00C
:102EC00050E0812C912C54018394FD0131966C913A
:102ED00061110DC05093760240937502C092650255
:102EE000D0926602E0926702F092680288C0613276
:102EF000E9F42DE472121AC080329105B9F4C0923F
:102F00006502D0926602E0926702F0926802F09346
:102F10007602E093750263E270E0CF010E943DC843
:102F2000009709F4D8C4DC011C9269C061546A316D
:102F300008F042C09F01F90170812F5F3F4F70324E
:102F4000D1F320ED270F2A30E8F07E3211F42181F1
:102F50000CC07D3211F07B3259F4218130ED320FFB
:102F60003A3080F02E3221F4228120532A3050F062
:102F70004115510511F00C944A28AF0141505109F7
:102F80000C944A289F01A62FB0E01401250104C02B
:102F9000220C331C441C551C6A95D2F7C228D32836
:102FA000E428F5282115310511F0201B01C020E08F
:102FB000A25CBD4F2C9304C04115510509F4AD012D
:102FC000208121542A3110F4DF017FCF9F01F901C4
:102FD000D9016D916623C1F370ED760F7A3010F44C
:102FE0009D01F5CF73ED760F7230D0F36B32C1F3E4
:102FF000F9012F5F3F4F60816032D1F3E5CF8091BF
:1030000078028D3409F467C4843511F40C942028B7
:10301000873411F00C9445288091690290916A02DE
:103020008C31910509F441C24CF497FD50C48230B3
:103030009105A4F0049709F4FAC149C48B359105B0
:1030400009F47CC38C35910509F47DC38A3591055B
:1030500009F03DC4109277020C94472880912B010F
:10306000882311F40C944728A2E38A2EA1E09A2E1B
:10307000BDE9EB2EBAE0FB2E06EC1EE084E8A82E9C
:103080008AE0B82E91E7C92E92E0D92E712CF40176
:1030900081914F010E94392D882311F10E94062D44
:1030A000D6012C91211104C020917702222341F0F6
:1030B000F80120813181428153810E94F9C50AC003
:1030C000F3E07F1639F0D5012D913D914D915C9142
:1030D0000E94F8C5F70160837183828393830AC0DD
:1030E000F80180819181A281B381F701808391836E
:1030F000A283B3837394F4E0EF0EF11C0C5F1F4FB7
:1031000024E0A20EB11C3FEFC31AD30A44E07412AC
:10311000BECF86E40E94822D8823C9F00E94062D2E
:1031200020E030E0A9010E947CC7181684F40E94B8
:10313000062D20E030E040E752E40E947CC6609318
:10314000230170932401809325019093260180919F
:103150002F01882309F4B4C0C0900905D0900A0556
:10316000E0900B05F0900C0520919D0A30919E0A8D
:1031700040919F0A5091A00AC701B6010E947CC7E6
:10318000181644F4C0929D0AD0929E0AE0929F0ABB
:10319000F092A00AC0900D05D0900E05E0900F05AA
:1031A000F09010052091A10A3091A20A4091A30A43
:1031B0005091A40AC701B6010E947CC7181644F4B6
:1031C000C092A10AD092A20AE092A30AF092A40AA5
:1031D000C0901101D0901201E0901301F090140101
:1031E00020919D0A30919E0A40919F0A5091A00A19
:1031F000C701B6010E9451C187FF08C0C0929D0A55
:10320000D0929E0AE0929F0AF092A00AC090150107
:10321000D0901601E0901701F09018012091A10ABA
:103220003091A20A4091A30A5091A40AC701B601A5
:103230000E9451C187FF08C0C092A10AD092A20A81
:10324000E092A30AF092A40AC0901105D090120552
:10325000E0901305F09014052091A50A3091A60A7C
:103260004091A70A5091A80AC701B6010E947CC7E5
:10327000181644F4C092A50AD092A60AE092A70AB2
:10328000F092A80AC0901901D0901A01E0901B0199
:10329000F0901C012091A50A3091A60A4091A70A3E
:1032A0005091A80AC701B6010E9451C187FF08C00A
:1032B000C092A50AD092A60AE092A70AF092A80AA4
:1032C00080912B0A83FD7DC0C090A90AD090AA0AE4
:1032D000E090AB0AF090AC0A2091D20E3091D30E60
:1032E0004091D40E5091D50EC701B6010E9451C134
:1032F000882309F466C08091740581111FC0609114
:1033000075057091760580917705909178050E94FA
:10331000EEC620912101309122016217730774F4E7
:10332000C092D20ED092D30EE092D40EF092D50E6F
:103330000E94223284E491E00E94FC318090A90A2C
:103340009090AA0AA090AB0AB090AC0A2091D20E3D
:103350003091D30E4091D40E5091D50EC501B401D9
:103360000E94F8C56B017C0120E030E0A9010E94B9
:103370007CC787FF04C0F7FAF094F7F8F094209127
:103380001D0130911E0140911F0150912001C70184
:10339000B6010E94B7C120E030E048E453E40E9447
:1033A0007CC7181674F48092D20E9092D30EA0921D
:1033B000D40EB092D50E0E94223285E291E00E9496
:1033C000FC316091270170912801072E000C880BB9
:1033D000990B0E9458C12091230130912401409102
:1033E0002501509126010E94B7C12AE037ED43E242
:1033F0005CE30E94B7C169837A838B839C838E01CF
:103400000F5F1F4F29EA3AE045EA5AE061EA7AE0A5
:103410008DE99AE00E94E06680E1EDE9FAE0A6EC31
:10342000BEE001900D928A95E1F70C94472880E563
:103430000E94822D882329F00E94C22C6B017C01FE
:1034400003C0C12CD12C760183E50E94822D8823F4
:1034500061F00E94062D20E030E04AE754E40E942B
:10346000B7C10E94F5C66B017C010E94CF4D8091CF
:103470002505811105C060E08FE591E00E946C9503
:103480000E947FAFC60ED71EE81EF91E0E947FAFB6
:10349000DC01CB018C199D09AE09BF09B7FD02C043
:1034A0000C9447280E94C432F1CF8FE40E94006838
:1034B000882339F080919C0A8770873011F40C942E
:1034C00047280E94CF4D8091230190912401A09123
:1034D0002501B091260180936D0290936E02A09316
:1034E0006F02B09370028091270190912801909310
:1034F0006C0280936B0284E690E0909328018093A5
:10350000270111E010930E030E94A16C88E50E9430
:10351000392D382E89E50E94392D082F8AE50E9421
:10352000392D282E311004C0011104C0182705C000
:10353000011102C010E001C0182F80E1E6ECFEE0AE
:10354000ADE9BAE001900D928A95E1F782E50E941B
:10355000822D882369F00E94062D6B017C0120E0FA
:1035600030E0A9010E9451C1882309F4ACC006C013
:10357000C12CD12CF0EAEF2EF0E4FF2E111105C082
:10358000311003C0002309F4AFC0C092A50AD09245
:10359000A60AE092A70AF092A80AA70196016091F4
:1035A000CE0E7091CF0E8091D00E9091D10E0E94D0
:1035B00051C187FF88C08091CA0E9091CB0EA09117
:1035C000CC0EB091CD0E8E8F9F8FA8A3B9A3409043
:1035D000C60E5090C70E6090C80E7090C90E209114
:1035E00023013091240140912501509126012AA305
:1035F0003BA34CA35DA3ECE8F6E185909590A590E4
:10360000B4908092230190922401A0922501B0925F
:103610002601C092CE0ED092CF0EE092D00EF09244
:10362000D10E0E94FF6A80E090E0A8ECB2E48093A3
:10363000230190932401A0932501B0932601409289
:10364000C60E5092C70E6092C80E7092C90E8E8D33
:103650009F8DA8A1B9A18093CA0E9093CB0EA09381
:10366000CC0EB093CD0E0E94FF6AA7019601609127
:10367000CE0E7091CF0E8091D00E9091D10E0E94FF
:103680007CC7181694F48092230190922401A09292
:103690002501B0922601C092CE0ED092CF0EE092BC
:1036A000D00EF092D10E0E94FF6A2AA13BA14CA13C
:1036B0005DA1209323013093240140932501509371
:1036C00026010E94CF4D111105C0311003C0011118
:1036D00006C00AC080E00E94526B1123C1F381E052
:1036E0000E94526B111102C0222019F082E00E9448
:1036F000526B0E94106B80910D0380930E0380919A
:103700006D0290916E02A0916F02B0917002809351
:10371000230190932401A0932501B0932601809169
:103720006B0290916C02909328018093270183E0B3
:10373000809331010E94E36D0C94472881E08093CF
:1037400077020C94472862E3262E61E0362E70E95A
:10375000E72E7AE0F72E46EC5EE05F8F4E8FE4E8CE
:10376000CE2EEAE0DE2E00E010E0D1018D911D01A9
:103770000E94822D882309F44BC00E94062D2B0144
:103780003C01133049F0F60120813181428153819F
:103790000E94F8C52B013C01AE8DBF8D2D913D914E
:1037A0004D915C91C301B2010E94F8C54B015C01CF
:1037B0002DEB37E346E855EB0E947CC787FD0AC036
:1037C0002DEB37E346E855E3C501B4010E9451C132
:1037D0001816F4F4133051F44092D20E5092D30ED6
:1037E0006092D40E7092D50E01E012C0A501940132
:1037F000F70160817181828193810E94F9C5D701AF
:103800006D937D938D939C931397812F0E94DF6A14
:103810001F5FB4E0EB0EF11CEE8DFF8D3496FF8F31
:10382000EE8FF4E0CF0ED11C143009F09ECF0023B0
:1038300009F449C020914C0A30914D0A40914E0A3A
:1038400050914F0A6091D20E7091D30E8091D40E98
:103850009091D50E0E94B7C10E9481C760937F0FDF
:103860007093800F8093810F9093820F90915D0FE2
:1038700080915E0F981719F00E94714D24C00E942C
:10388000CF4D80916F00982F927081FF05C080917D
:103890006F008D7F80936F0040917F0F5091800F5C
:1038A0006091810F7091820F4093000C5093010C36
:1038B0006093020C7093030C992329F080916F00A0
:1038C000826080936F000E94E36D0C9447280E94F1
:1038D000F0670C9447288091690290916A028237C0
:1038E000910509F4B1C60CF0D9C08A32910509F4EA
:1038F0005EC40CF07BC08831910509F47CC20CF0E9
:1039000059C08231910509F4C7C5BCF497FF02C0C4
:103910000C941D28823091050CF4DFC1419711F001
:103920000C941D2860E08BE791E00E946C955E98F6
:103930005E9815985E980C9447288531910509F496
:1039400040C254F5449711F00C941D2883E991E08E
:103950000E94FC311092FF028FE39FE00E94CC3F57
:103960008BE1EFE3FFE0DE01119601900D928A9565
:10397000E1F740E050E0BE016F5F7F4F80E090E0F4
:103980000E941B3ACE0101960E94D13F84E891E04B
:103990000E94FC310C9447288631910509F415C228
:1039A000479711F00C941D28809175029091760232
:1039B000FC0118C28C31910509F4A2C23CF48A3191
:1039C000910509F43AC20CF41EC245C28E3191052C
:1039D00009F4A0C214F40C9447288F31910509F41E
:1039E0003CC3809709F4F4C20C941D288C359105D2
:1039F00009F49EC534F58135910509F432C58CF47E
:103A00008C34910509F4F0C38D34910509F4FFC39A
:103A10008B34910511F00C941D280E9433950C9461
:103A200047288335910509F433C50CF42EC5843538
:103A3000910509F431C58535910509F460C50C94EB
:103A40001D288C36910509F474C4ACF489369105AF
:103A500009F4A3C434F48836910509F4DBC30C944B
:103A60001D288A36910509F4D1C48B36910509F4D5
:103A7000EAC40C941D288E36910509F403C40CF495
:103A8000ECC38F36910509F40EC48037910511F00F
:103A90000C941D2880E090E00E9426328C3D910518
:103AA00011F40C947A250CF0A5C08B39910509F41A
:103AB00087C40CF07CC08737910509F405C60CF06B
:103AC00066C08537910509F4C4C50CF0CAC58337B3
:103AD000910511F00C941D2880EA93E00E94FC31BE
:103AE00060E080E993E00E94C7B261E089E893E07A
:103AF0000E94C7B261E08EE793E00E94C7B261E026
:103B00008EE693E00E94C7B260E085E693E00E94F3
:103B1000C7B261E08BE593E00E94C7B260E081E547
:103B200093E00E94C7B260E089E493E00E94C7B2CC
:103B300060E08BE393E00E94C7B260E08DE293E027
:103B40000E94C7B260E08EE193E00E94C7B260E0DD
:103B500080E193E00E94C7B260E08AEF92E00E94A9
:103B6000C7B260E089EE92E00E94C7B260E084EDE7
:103B700092E00E94C7B261E081EC92E00E94C7B27D
:103B800060E084EB92E00E94C7B20C94472889372A
:103B9000910509F4A4C50CF49AC58C38910509F473
:103BA000D0C38139910509F4A1C50C941D288B3C23
:103BB000910509F466C674F4883C910509F4F1C5D1
:103BC000893C910509F43AC68E3B910511F00C949D
:103BD0001D28D1C38D3C910509F4A3C60CF470C611
:103BE0008E3C910509F4ADC6833D910509F4CCC620
:103BF0000C941D288A3921E0920709F49FC37CF5B3
:103C00008D3241E0940711F40C94332684F4823E03
:103C1000910509F4D2C78232A1E09A0711F40C94FD
:103C200028268D3D910511F00C941D2870C78F3208
:103C3000B1E09B0711F40C94F92614F40C94B72608
:103C40008336F1E09F0711F40C94092880399140E4
:103C500011F00C941D280E94CF4D0C944728873FEB
:103C600031E0930711F40C94E427ECF4843F51E025
:103C7000950711F40C94DE273CF48C3A914011F432
:103C80000C94FC260C941D28853FE1E09E0711F45E
:103C90000C94E127863F914011F00C941D280E945E
:103CA000CF6C0C9447288C3022E0920711F40C94CE
:103CB00001283CF4883F914011F40C94F0270C94B7
:103CC0001D28803A53E0950709F4B7C1873E934019
:103CD00011F40C9410280C941D28A0907502B0903B
:103CE000760280E50E94822D882359F00E94C22C22
:103CF0006B017C0111E0672B682B692B31F410E01C
:103D000004C010E0C12CD12C760183E50E94822DE5
:103D1000882311F40C944E280E94062D20E030E0F8
:103D20004AE754E40E94B7C10E94F5C66B017C01CA
:103D300011110BC0672B682B692B39F4A114B10446
:103D400021F0F5018081811102C010E001C011E075
:103D50000E94CF4D112329F061E0C5010E94A69574
:103D600005C060E088E691E00E946C9581E0809358
:103D7000D30BC114D104E104F104B1F00E947FAF70
:103D8000C60ED71EE81EF91E0E947FAFDC01CB01D4
:103D90008C199D09AE09BF09B7FF0DC08091D30BE7
:103DA00081110C94532807C08091D30B882319F0FC
:103DB0000E94C432F9CF0E94CC951092D30B0C9480
:103DC00047280E9470370C9447280E94F83680914B
:103DD000B510877F8093B5100C944728203209F4E2
:103DE0001082319620812111F9CF40E061E00E94DC
:103DF000B93B0C9447280E9407370E9433950E94D4
:103E0000CC950C9447288091B5108B7F8093B5108A
:103E100080910805813069F482E0809308050E9452
:103E20007FAF60930405709305058093060590931A
:103E300007050E94CC950C9447288091B51083FD0E
:103E400002C00C94472883E50E94822D81110C94B6
:103E500057280C94472883E40E94392D882319F1B0
:103E60008EEA91E00E94FC318091E90E882391F066
:103E7000BE016F5F7F4F86EE9EE00E94933E8E01F3
:103E80000F5F1F4FD8018D918D01882339F00E945B
:103E9000F531F8CF84EA91E00E94FC318AE00E947B
:103EA000F5310C9447288091B51083FF23C082FF21
:103EB00021C08DEB91E00E94FC316091B1107091B6
:103EC000B2108091B3109091B4104AE00E94C233B6
:103ED0008FE20E94F5316091AD107091AE1080912B
:103EE000AF109091B0104AE00E94C2330E94073593
:103EF0000C9447288FEC91E00E94FC310C944728E9
:103F000040E060E080917502909176020E94B93B9A
:103F10000C9447288091B51083FD02C00C9447286B
:103F20000E94D96760917502709176028091B510F8
:103F300083FD02C00C944728CE014C960E94CFB15D
:103F40008C01009711F40C9447286C8D7D8D19829B
:103F50001C8222E0AC01CE0101960E940144811135
:103F600002C0F12C14C0CE0101960E943DB18823FD
:103F7000C1F361E0CE0101960E943B3E009789F3B8
:103F800025EEFC0120831C820E94C037F82ECE0152
:103F900001960E94D13FB801FF2089F088EF91E09F
:103FA0000E940B328AE00E94F5311092B1101092FB
:103FB000B2101092B3101092B4100C94472880EEF7
:103FC00091E00E940B328EE20E94F5310C9447285A
:103FD0008091B51082FD0E94CF4D8091B51083FD78
:103FE00002C00C94472880E50E940068182F482FD3
:103FF00061E080917502909176020E94B93B83E561
:104000000E94822D882381F00E94D22CAB01BC013A
:104010004093B1105093B2106093B3107093B410EA
:1040200086EE9EE00E94513D0E94073711110C94CC
:1040300047280E9433950C944728209175023091AF
:1040400076029091B51092609093B51040E060E0D8
:10405000C9010E94B93B0C9447280E9460597B011A
:104060008C0120E831E541E050E00E9458C5C901CB
:104070006DE671E00E94A0C54B015C01C801B7016B
:1040800020E13EE040E050E00E9458C5CA01B9017D
:1040900028E130E040E050E00E9458C5762E672EBF
:1040A000C62ED72E5CE3252E312C412C512CC80175
:1040B000B701A20191010E9458C5F62EE72ECA0150
:1040C000B901A20191010E9458C5CB018E010F5F79
:1040D0001F4F8114910499F0EF92FF927F936F9399
:1040E0006F927F92BF92AF929F928F928EE292E0F8
:1040F0009F938F931F930F930E94E9C013C0A11445
:10410000B104B1F0EF92FF927F936F936F927F9221
:10411000BF92AF928EE192E09F938F931F930F9384
:104120000E94E9C00FB6F894DEBF0FBECDBF30C00D
:10413000CD2879F0EF92FF927F936F936F927F92E9
:1041400082E192E09F938F931F930F930E94E9C0A7
:10415000E9CF892B69F0EF92FF927F936F938AE00A
:1041600092E09F938F931F930F930E94E9C0DACF41
:10417000EF92FF9286E092E09F938F931F930F93AD
:104180000E94E9C00F900F900F900F900F900F902A
:1041900060E0C8010E94A6950E942232B80182E424
:1041A00092E00E940B328AE00E94F53170C783E5ED
:1041B0000E94822D882309F46AC70E94E22CF82EFF
:1041C0006FEF7FEF80E50E948F2D8C0197FD5FC719
:1041D000E82E89E40E94006881117AC7802F0E942E
:1041E000E1B2811107C574C780910805813009F0DB
:1041F0004EC782E0809308050E947FAF609304055C
:1042000070930505809306059093070540C70E94AB
:1042100057953DC780912B0A83FD39C70E945834BA
:1042200087FD35C783E50E94822D882309F42FC7B7
:104230000E94062D0E94EEC68B017093C00E609303
:10424000BF0E80E00E946B99013511050CF01FC76D
:104250000E9457950E94CC951AC780912B0A83FD26
:1042600016C70E9458348EA787FD11C783E50E94A8
:10427000822D8E8F81113FC782E50E94822D811190
:104280003AC705C78EE40E94822D882309F4FFC631
:104290000E94D22C6093610B7093620B8093630B2E
:1042A0009093640BF4C683E50E94392D882359F05E
:1042B00083E50E94822D882319F00E94E22C01C020
:1042C00080E080932B0A0E9422328BE792E00E94CA
:1042D000FC3180912B0A882349F121E7E22E22E06C
:1042E000F22E00E010E020E080912B0A90E0002EFA
:1042F00002C0959587950A94E2F780FF0EC0DD24F1
:10430000D394D20E222319F08CE20E94F531F701EA
:10431000859194910E94FC312D2D0F5F1F4F32E04B
:10432000E30EF11C05301105F9F6B8CD8DE692E0EB
:10433000B3CD1092D30B10920A01A9C60E945D3131
:10434000A6C680912B0A83FDA2C683E50E94822D1A
:10435000882309F49CC60E94062D0E94EEC662388E
:10436000710514F062E870E07093BE0E6093BD0EAC
:104370000E941C998CC680912B0A83FD88C683E518
:104380000E94822D8DA781110C940A2A82E50E9439
:10439000822D81110C940A2A7AC60E945834182F53
:1043A00087FF02C00C94A92C84EA92E00E94FC31A1
:1043B000812F0E94F2448AE00E94F5310C94A92CCE
:1043C00083E50E94822D882309F461C60E94E22CB5
:1043D000182F90E0CD970CF01CE3109360020E9420
:1043E0007FAF6B017C01212F30E0A8EEB3E00E948B
:1043F00085C5C60ED71EE81EF91EC0925C02D0927B
:104400005D02E0925E02F0925F0241C680E50E948A
:10441000822D882321F00E94E22C182F01C010E089
:1044200083E50E94822D882311F40C94892B0E942D
:10443000D22C11112CC66F3F710510F06FEF70E098
:104440006093630524C680E50E94822D811103C01C
:10445000109263051CC60E94D22C672B09F017C668
:10446000F7CF0E94BA990E9457950E94574F0E9419
:10447000B53168EE73E080E090E00E94393160E091
:1044800087EA92E00E946C9502C610927402FFC502
:1044900081E080937402FBC583E50E94822D88230E
:1044A00099F00E94062D20E030E04AE754E40E9493
:1044B000B7C10E94F5C6609300017093010180931B
:1044C000020190930301E3C588E50E94392D811113
:1044D0000C948D2B89E50E94392D81110C948D2B24
:1044E0008AE50E94392D81110C948D2B85E40E9460
:1044F000392D81110C948D2B0E94574FC8C583E52F
:104500000E94392D882309F4C2C50E94062D20E09F
:1045100030E04AE754E40E94B7C10E94F5C66093B8
:104520006102709362028093630290936402AFC54C
:104530000E94583487FDABC512E3C12E11E0D12E85
:104540000CE2E02E0AE0F02E10E0D6018D916D0114
:104550000E94392D882309F46DC0133009F063C01F
:104560000E94062D4B015C0120E030E040EA51E45E
:104570000E9451C187FF4EC0A501940160914C0A71
:1045800070914D0A80914E0A90914F0A0E947CC60C
:104590002B013C019B01AC016091470570914805DE
:1045A0008091490590914A050E94B7C160934705E3
:1045B000709348058093490590934A05A3019201A1
:1045C00060915C0A70915D0A80915E0A90915F0A29
:1045D0000E94B7C160935C0A70935D0A80935E0A83
:1045E00090935F0A60915705709158058091590525
:1045F00090915A050E9456C1A30192010E94B7C131
:104600000E94F5C66093570570935805809359052D
:1046100090935A0580924C0A90924D0AA0924E0AAD
:10462000B0924F0A07C00E94062DF701648B758B6C
:10463000868B978B1F5FF4E0EF0EF11C143009F0AE
:1046400084CF0E94B44E23C50E94CF4D0E94E36DDB
:104650001EC560E080917502909176020E94A69539
:1046600016C5009175021091760283E0F12C40E0AE
:104670008150E9F0D8019C91292F2B7F2134C1F77B
:1046800011962C912133A1F7913421F0953421F426
:1046900041E002C0FF24F39498012E5F3F4F89014F
:1046A0002F5F3F4FF80190819032C9F3E1CF411164
:1046B0000E942232FF2021F08AE694E00E94FC3121
:1046C000C8010E940D35E3C40E94806CE0C481E003
:1046D00080930E0380930D030E94A16CD8C41092A6
:1046E0000E0310920D030E94A16CD1C460E070E033
:1046F00083E50E948F2D8C011127023011053CF0BB
:104700000E941E328EE694E00E94FC31C0C488E410
:104710000E94822D8823A9F00E94D22C603A710554
:104720003CF06530F1E07F072CF064E071E002C0FE
:1047300060EA70E0F801EE0FFF1FE058F54F71835B
:10474000608386E40E94822D882381F00E94D22C0F
:1047500077FD07C06F3F710529F024F06FEF70E01F
:1047600001C060E0F801E658F54F608382E40E94E2
:10477000822D882309F48BC40E94D22C65307105E8
:1047800034F0643771052CF063E770E002C065E037
:1047900070E0F801EE0FFF1FE458F54F718360835E
:1047A00076C40E945834182F87FD71C484E40E9497
:1047B000392D882309F43FC00E94062D6B017C012E
:1047C00001E020E030E0A9010E9451C1811101C047
:1047D00000E00093A80420E030E0A901C701B60181
:1047E0000E9451C1882339F10E94062D24E0120253
:1047F000F0011124E355FB4F60837183828393831F
:1048000020E030E0A9016091AD047091AE04809188
:10481000AF049091B0040E9451C181110CC080E09E
:1048200090E0A0EEBFE38093AD049093AE04A0931C
:10483000AF04B093B0040E94654529C40E94583467
:1048400087FD25C4E2E3EE2EE1E0FE2E0CE21AE045
:10485000D7018D917D010E94392D882349F00E9456
:10486000062D0E94F5C6F8016083718382839383CD
:104870000C5F1F4FFAE00C331F0751F70E942A4DBF
:1048800006C40E94583487FD02C472E3E72E71E02B
:10489000F72E0CE21AE0D7018D917D010E94392D8F
:1048A000882339F00E94062DF80164A375A386A31E
:1048B00097A30C5F1F4FFAE00C331F0761F7E7C3A4
:1048C0008091660287FD4EC7809167028E7009F065
:1048D00049C74091600A5091610A6091620A7091E3
:1048E000630A86E994E00E94F6344091640A50918C
:1048F000650A6091660A7091670A83E994E00E94F4
:10490000F6344091680A5091690A60916A0A709180
:104910006B0A80E994E00E94F6348AE00E94F53147
:10492000B6C380916502827109F062C78091670207
:104930008C7809F05DC780916802837009F058C7D0
:10494000A6C352E3C52E51E0D52E61E1E62E63E009
:10495000F62E10E0D6018D916D010E94392D88232D
:1049600051F00E94062DF701608371838283938347
:10497000812F0E94DF6A1F5FF4E0EF0EF11C1330FD
:1049800011F40C94631CE6CF0E9422328DEC94E06B
:104990000E94FC3183E50E94392D882321F00E947A
:1049A000F62C80932F0180912F01882319F08AEA39
:1049B00094E002C086EA94E00E94FC3185EC94E029
:1049C0000E94FC312091840A3091850A4091860A28
:1049D0005091870A6091090570910A0580910B0535
:1049E00090910C050E94F9C5AB01BC0183EC94E0E9
:1049F0000E94F6342091880A3091890A40918A0AEF
:104A000050918B0A60910D0570910E0580910F05F4
:104A1000909110050E94F9C5AB01BC0180EC94E0B7
:104A20000E94F63420918C0A30918D0A40918E0AB2
:104A300050918F0A609111057091120580911305B4
:104A4000909114050E94F9C5AB01BC018DEB94E077
:104A50000E94F63485EB94E00E94FC312091840A98
:104A60003091850A4091860A5091870A6091110120
:104A70007091120180911301909114010E94F9C567
:104A8000AB01BC0183EB94E00E94F6342091880ACC
:104A90003091890A40918A0A50918B0A60911501E0
:104AA0007091160180911701909118010E94F9C52B
:104AB000AB01BC0180EB94E00E94F63420918C0A9B
:104AC00030918D0A40918E0A50918F0A60911901A0
:104AD00070911A0180911B0190911C010E94F9C5EF
:104AE000AB01BC018DEA94E00E94F6348AE00E949A
:104AF000F531CDC283E50E94822D882309F4C7C217
:104B00000E94D22C7093280160932701C0C20E949A
:104B10005834F82E87FDBBC283E50E94822D0F2DED
:104B20000F2C000C110B882369F10E94D22CF80184
:104B3000EE0FFF1FE55FFE4F71836083000F111FB3
:104B4000000F111F9801235E3E4F7901072E000CC4
:104B5000880B990B0E9458C12AE037ED43E25CE3D1
:104B60000E94B7C1F801E755FB4F20813181428196
:104B700053810E94B7C1D7016D937D938D939C9310
:104B8000139785C20E94223285E40E94F53180E3AA
:104B90008F0D0E94F531000F111FF801E55FFE4FE8
:104BA000608171818DED94E00E944B3485E20E941A
:104BB000F5318AE00E94F5316AC280E50E94392D04
:104BC000882309F464C260E070E080E50E948F2DC4
:104BD000F82E6FEF7FEF83E50E948F2D8C010196F9
:104BE000039708F054C2F7FC52C28F2D0E94E1B225
:104BF000882339F00E941E3285EE94E00E94FC3139
:104C000046C20E94CF4D60E08F2D0E9497AE0F3FAD
:104C1000BFEF1B0731F00130110571F000E010E02B
:104C20000DC08F2D0E9404AE31E020E0892B09F0E9
:104C300030E0032F122F02C001E010E08F2D0E9400
:104C400004AE8017910709F422C20E94C432F6CF45
:104C50008AE50E94822D811136C683E50E94822D4D
:104C6000811131C614C285E40E94822D811110C0C9
:104C700080E50E94392D8823B1F00E94062D6093B3
:104C8000040C7093050C8093060C9093070C0BC0DA
:104C90000E94E22C882361F30E941E3284EF94E08C
:104CA0000E94FC31F4C189E40E94392D882381F0EF
:104CB0000E94062D2CEA35EC47E25EE30E94B7C164
:104CC0006093080C7093090C80930A0C90930B0C62
:104CD00084E40E94392D882381F00E94062D2CEA5D
:104CE00035EC47E25EE30E947CC660930C0C709347
:104CF0000D0C80930E0C90930F0C0E942232409169
:104D0000040C5091050C6091060C7091070C8EE01C
:104D100095E00E94F6342CEA35EC47E25EE36091C0
:104D2000080C7091090C80910A0C90910B0C0E9458
:104D30007CC6AB01BC018AE095E00E94F6342CEA07
:104D400035EC47E25EE360910C0C70910D0C8091A4
:104D50000E0C90910F0C0E94B7C1AB01BC0186E014
:104D600095E00E94F6348AE00E94F53190C183E517
:104D70000E94392D182F882371F00E94062D0E9461
:104D8000EEC6709322016093210121E0672B09F0A8
:104D900020E02093740580E50E94392D882359F086
:104DA0002091210130912201232B11F00E94F62C39
:104DB000809374056CC111116AC10E9422328091E6
:104DC0007405882319F066EF71E002C069EF71E0A5
:104DD00087E295E00E940B326091210170912201DF
:104DE00086E195E00E944B3482E195E00E94FC311F
:104DF0004EC10E94F1894BC180919C0A182F1270FC
:104E0000082F0470E82FE170FE2E80FF04C01123EC
:104E100011F0011144C00E9422328AE595E00E94FF
:104E2000FC31F11004C088E595E00E94FC311111BD
:104E300004C086E595E00E94FC31011104C084E5C0
:104E400095E00E94FC318CE495E00E94FC31011158
:104E500003C04DEF51E002C044E052E0111103C025
:104E60002FEF31E002C024E032E0F11003C081E016
:104E700092E002C084E092E05F934F933F932F93C0
:104E80009F938F938AE395E09F938F931F920E9445
:104E9000C0670FB6F894DEBF0FBECDBFF8C008E7FD
:104EA00016E146EC5EE05F8F4E8FCE0101965C010D
:104EB00091ED892E96E1992E1501F8016591759174
:104EC00085919491AE8DBF8DCD90DD90ED90FD904C
:104ED000BF8FAE8FA70196010E94F8C52B013C0140
:104EE000F101608371838283938320E030E040EAA4
:104EF00051EC0E947CC787FD0AC020E030E040EA08
:104F000051E4C301B2010E9451C118162CF4F401FE
:104F1000849118160CF412C5D101CD90DD90ED905E
:104F2000FD901D0120E030E040EA51ECC701B601E0
:104F30000E947CC787FD0AC020E030E040EA51E4CF
:104F4000C701B6010E9451C1181674F40E941E32A6
:104F50008EE795E00E94FC3161E080E795E00E94D9
:104F60006C950E94307593C00C5F1F4FBFEF8B1A7A
:104F70009B0AE4E8F6E1E017F10709F09ECF81E132
:104F8000E82E83E0F82E10E0F50181919191A19136
:104F9000B1915F01F70181939193A193B1937F0147
:104FA000812F0E94DF6A1F5F133071F70E94E36D4B
:104FB00060E080E695E00E946C9569C00E94A74F72
:104FC00066C00E94D56D63C083E50E94392D882399
:104FD00021F00E94F62C91E089270E94946E57C020
:104FE00081E08093790A0E94E5531092790A882320
:104FF00009F44DC00E9422328CE995E00E94FC31F8
:1050000046C08091B51082FF42C080628093B51087
:105010003EC00E941E3287EA95E00E94FC3137C0F4
:1050200081E080932B0110923A0583E50E9400688D
:1050300081112DC00E94F08D2AC00E94F06727C008
:105040000091690210916A02002309F10E94223244
:1050500084E50E94F531B8017727072E000C880BF4
:10506000990B0E942F3480E20E94F53186EB95E087
:105070000E94FC310CC0E4E57E1611F40C9410176C
:10508000F7E47F1611F40C9410170E94F0670E9449
:10509000E08D5FC420E030E00C94C31711110C9434
:1050A000A51E0C949E1E0E94C4320C94C41E0E9425
:1050B000D22CAB01BC014093B1105093B21060935D
:1050C000B3107093B41086EE9EE00E94513DDFCF86
:1050D00061E0802F0E9497AE6F2D802F0E942DAE31
:1050E0006F2D70E0802F0E94D3AEF4E0EF12CFCF8F
:1050F000F0926305CCCF0E94062D0E94EEC67093FD
:10510000C00E6093BF0E80E00E946B990E94062D36
:1051100020E030E040EA52E40E9451C118162CF021
:105120000E9457950E94CC9502C00E9433956091D1
:10513000BF0E7091C00E072E000C880B990B0E94B9
:1051400058C16B017C018090750590907605A09008
:105150007705B0907805A50194010E947CC71816C8
:105160000CF455C1BE8DB1110EC0A5019401C7014B
:10517000B6010E947CC718160CF449C183E592E081
:1051800060E00E946C9581E080930A011EA21FA23C
:1051900018A619A61AAA1BAA1CAA1DAA1AA21EAAF8
:1051A000ECE3EFABFCE1F8AF26E429AFC12CD12C46
:1051B00030E8E32E4FEBF42E812C912C54016091BA
:1051C000BF0E7091C00E072E000C880B990B0E9429
:1051D00058C1162F072F382E292E9601A7010E949D
:1051E00051C1882349F1C0907505D0907605E090B3
:1051F0007705F0907805A7019601612F702F832D18
:10520000922D0E9451C1881F8827881F8AA33E8D36
:105210003323C1F0A7019601612F702F832D922DAA
:105220000E9451C187FF0DC080910A01882309F4B3
:10523000EBC00E94CC95E8C01C2D0D2D3E2C2F2CD0
:1052400001C01AA20E947FAF6B017C01DC01CB017F
:105250002AA93BA94CA95DA9821B930BA40BB50BF2
:10526000B7FD33C0D701C60188519C4FAF4FBF4F28
:105270008AAB9BABACABBDAB8EA50E94F2448FE476
:1052800092E00E94FC3181149104A104B104B9F0B0
:10529000D501C4018059984EAF4FBF4FBC01CD011D
:1052A0006C197D098E099F0928EE33E040E050E03B
:1052B0000E9458C5CA01B9010E942F3403C08FE370
:1052C0000E94F5318AE00E94F5310E94C4320E94AA
:1052D0007FAF609358027093590280935A02909363
:1052E0005B02909175059AA7A0917605ABA7B09146
:1052F0007705BCA7E0917805EDA7292F3A2F4B2F12
:105300005E2F612F702F832D922D0E94F8C52B01E7
:105310003C0120E030E0A9010E947CC787FF04C067
:1053200077FA709477F8709481149104A104B10411
:1053300059F420E030E040E85FE3C301B2010E948D
:1053400051C187FF0DC00AC020E030E040E450E4C6
:10535000C301B2010E947CC7181614F4460157011C
:10536000FAA1FF23A9F12EA13FA148A559A5211516
:1053700031054105510541F0D701C601821B930B50
:10538000A40BB50BB7FD24C02AA53BA54CA55DA574
:105390006EA97FA988AD99AD0E94F8C520E030E0E4
:1053A00040EC5FE30E9451C187FD3ECFD701C601AB
:1053B000805A9541AF4FBF4F8EA39FA3A8A7B9A70F
:1053C0009AA59EABABA5AFABBCA5B8AFEDA5E9AFB9
:1053D00080910A01882309F427CF81149104A10444
:1053E000B10429F4C12ED02EE32CF22CE8CEF0E744
:1053F000CF1AF7E1DF0AE108F108C818D908EA086E
:10540000FB08F7FE11CFEECF80910A0140CE80E677
:1054100092E0B6CE0E94062D0E94EEC6623871055B
:105420000CF074C17093BE0E6093BD0E0E941C9967
:105430000E94062D20E030E040EA50E40E947CC744
:10544000181614F40E9433956091BD0E7091BE0E33
:10545000072E000C880B990B0E9458C12091A404C0
:105460003091A5044091A6045091A7040E947CC7E6
:1054700018161CF485E992E002C086E892E060E02C
:105480000E946C9581E080930A011AA21BA21CA2C3
:105490001DA21EA61FA618AA19AA1E8E1AAA4CE3A0
:1054A0004EAB5CE15FAB86E488AFC12CD12C80E8C9
:1054B000E82E9FEBF92E812C912C54016091BD0EAA
:1054C0007091BE0E072E000C880B990B0E9458C1DC
:1054D000162F072F782E692E9601A7010E9451C121
:1054E000882349F1C090A404D090A504E090A604BC
:1054F000F090A704A7019601612F702F872D962D9C
:105500000E9451C1881F8827881F8E8F9DA59923CF
:10551000C1F0A7019601612F702F872D962D0E9453
:1055200051C187FF0DC080910A01882309F4EBC0A7
:105530000E94CC95E8C01C2D0D2D7E2C6F2C01C037
:105540001E8E0E947FAF6B017C01DC01CB012EA57A
:105550003FA548A959A9821B930BA40BB50BB7FD16
:1055600033C0D701C60188519C4FAF4FBF4F8EA7A4
:105570009FA7A8ABB9AB80E00E94F24482E892E01A
:105580000E94FC3181149104A104B104B9F0D50149
:10559000C4018059984EAF4FBF4FBC01CD016C196B
:1055A0007D098E099F0928EE33E040E050E00E941B
:1055B00058C5CA01B9010E942F3403C08FE30E946D
:1055C000F5318AE00E94F5310E94C4320E947FAF1B
:1055D000609358027093590280935A0290935B0231
:1055E0009091A4049EA3A091A504AAA7B091A6049B
:1055F000BBA7E091A704ECA7292F3A2F4B2F5E2FD2
:10560000612F702F872D962D0E94F8C51B012C014C
:1056100020E030E0A9010E947CC787FF04C057FA50
:10562000509457F8509481149104A104B10459F492
:1056300020E030E040E85FE3C201B1010E9451C1C7
:1056400087FF0DC00AC020E030E040E450E4C20112
:10565000B1010E947CC7181614F446015701FE8D53
:10566000FF23A9F12AA13BA14CA15DA12115310580
:105670004105510541F0D701C601821B930BA40BD4
:10568000B50BB7FD24C02EA13AA54BA55CA56AA910
:105690007EA98FA998AD0E94F8C520E030E040ECCB
:1056A0005FE30E9451C187FD3ECFD701C601805AFA
:1056B0009541AF4FBF4F8AA39BA3ACA3BDA39EA1AF
:1056C0009AABAAA5AEABBBA5BFABECA5E8AF8091EA
:1056D0000A01882309F427CF81149104A104B1049D
:1056E00029F4C12ED02EE72CF62CE8CEF0E7CF1A05
:1056F000F7E1DF0AE108F108C818D908EA08FB0851
:10570000F7FE11CFEECF80910A01C1CC62E870E0C4
:1057100089CE1111BCCC0C941E220E94CF4D88E57D
:105720000E94392D882331F05E9A80910F038E7F7D
:1057300080930F0389E50E94392D882331F05E9A0A
:1057400080910F038D7F80930F038AE50E94392D8E
:10575000882309F49CCC159A80910F038B7F80934A
:105760000F0395CC83E50E94822D882391F00E943F
:10577000062D6093600A7093610A8093620A909389
:10578000630A6093680A7093690A80936A0A909327
:105790006B0A80E50E94822D882351F00E94062D1D
:1057A0006093600A7093610A8093620A9093630A1F
:1057B00082E50E94822D882351F00E94062D60937D
:1057C000640A7093650A8093660A9093670A84E579
:1057D0000E94822D882309F45ACC0E94062D6093E2
:1057E000680A7093690A80936A0A90936B0A4FCC97
:1057F00082E40E94392D882351F00E94C22C6093CC
:105800003C0A70933D0A80933E0A90933F0A83E5D9
:105810000E94392D882351F00E94062D60936C0A56
:1058200070936D0A80936E0A90936F0A84E50E94CC
:10583000392D882351F00E94062D6093700A7093D1
:10584000710A8093720A9093730A88E50E94392D39
:10585000882351F00E94062D60933B0570933C0510
:1058600080933D0590933E0589E50E94392D88235C
:1058700051F00E94062D60933F0570934005809380
:105880004105909342058AE50E94392D882351F005
:105890000E94062D6093430570934405809345054F
:1058A0009093460585E40E94392D882309F4EFCBB7
:1058B0000E94062D60934705709348058093490523
:1058C00090934A05E4CB0E94062D20E030E040E0B2
:1058D00050EC0E9451C187FD12C00E94062D20E0AD
:1058E00030E040E050E40E947CC718161CF00E9493
:1058F000062D09C060E070E080E090E404C060E044
:1059000070E080E090EC2091480A3091490A409183
:105910004A0A50914B0A0E94B7C10E94EEC62091DC
:105920000F0322FFB4CB2091150C3091160C620F9F
:10593000731F7093160C6093150CA9CBF7FAF094B3
:10594000F7F8F094D101CD92DD92ED92FC9213978D
:10595000E3CAE9960FB6F894DEBF0FBECDBFDF9164
:10596000CF911F910F91FF90EF90DF90CF90BF905C
:10597000AF909F908F907F906F905F904F903F90EF
:105980002F90089580918C0290918D02009731F0B4
:105990004AE050E060E070E00C9480BF60E070E0AE
:1059A000CB01089580918C0290918D02009731F087
:1059B0004AE050E060E070E00C9452BE60E070E0BD
:1059C000CB0108950E94D22C97FD0CC00E94D22CCE
:1059D0006F3F71058105910509F034F40E94D22CC6
:1059E000862F089580E008958FEF089580918C02AE
:1059F00090918D02892B39F00E94E22C91E0811167
:105A000003C090E001C091E0892F08950F931F9388
:105A1000CF9380918C0290918D020097F1F0FC0160
:105A20008F01C1912C2F2F7D89F0C53411F0C5361F
:105A3000B9F7F801108260E070E00E94F6BCF8014E
:105A4000C083562F472F382F292F0BC060E070E0FE
:105A5000CF911F910F910C94F6BC50E040E030E0E4
:105A600020E0652F742F832F922FCF911F910F91DC
:105A7000089581548A3108F042C0E82FF0E0409147
:105A8000650250916602609167027091680204C0DD
:105A900076956795579547958A95D2F7842F8170AB
:105AA00040FF2FC0E25CFD4F9081992309F1E09106
:105AB0002305F0912405E90FF11D908120ED290FB8
:105AC0002A3098F09E3211F491810CC09D3211F071
:105AD0009B3271F4918120ED290F2A3030F09E32F3
