:100000000C940E160C9438160C9438160C94381662
:100010000C9438160C9438160C9438160C94381628
:100020000C9438160C9438160C9438160C94381618
:100030000C9438160C9429410C9438160C943816EC
:100040000C9438160C94858F0C94EA550C94381641
:100050000C94CC360C94C2360C9438160C9438168A
:100060000C9438160C9438160C9438160C943816D8
:100070000C9438160C9438160C9438160C943816C8
:100080000C9438160C9438160C94381659555E5545
:1000900063556D559B559B5577557F5587559155A4
:1000A0007B567E567156755695569556825686568F
:1000B0008C569056E5B3A4B2DBB221B4DBB2DBB20E
:1000C000DBB2DBB2DBB2DBB2DBB2DBB2DBB2DBB2C8
:1000D000DBB2DBB2DBB2DBB2DBB2DBB2DBB2DBB2B8
:1000E000DBB2DBB2DBB2DBB2DBB2DBB2DBB2DBB2A8
:1000F0001BB4DBB2DBB2DBB2DBB2DBB2DBB2DBB256
:10010000DBB2F4B3DBB2DBB2DBB2DBB2DBB2DBB26D
:10011000DBB2DBB2DBB2DBB238B4D8B2084AD73BD1
:100120003BCE016E84BCBFFDC12F3D6C74319ABDC6
:1001300056833DDA3D00C77F11BED9E4BB4C3E91EA
:100140006BAAAABE000000803F05A84CCDB2D44ED9
:10015000B93836A9020C50B9918688083CA6AAAADB
:100160002ABE000000803F004E414E494E4954597E
:10017000494E46CDCCCC3D0AD7233C17B7D1387772
:10018000CC2B329595E6241FB14F0A000020410088
:1001900000C84200401C4620BCBE4CCA1B0E5AAED2
:1001A000C59D74434F4D4D554E49434154494F4EA3
:1001B0000044525952554E004552524F5253004935
:1001C0004E464F004543484F0020746F6F206C6FC0
:1001D0006E6720657874727573696F6E20707265D2
:1001E00076656E7465640A0020636F6C64206578C0
:1001F00074727573696F6E2070726576656E746562
:10020000640A0047322F47332062616420706172B4
:10021000616D65746572730A00536C6565702E2E8E
:100220002E00436C69636B20746F20726573756D6B
:10023000652E2E2E004E6F206D6F76652E00456E5A
:10024000642066696C65206C6973740A0042656796
:10025000696E2066696C65206C6973740A00286E8B
:100260006F2066696C65290043757272656E742033
:1002700066696C653A20005344207072696E746937
:100280006E67206279746520004E6F74205344209D
:100290007072696E74696E670A0044656C65746992
:1002A0006F6E206661696C65642C2046696C653AE6
:1002B000200046696C652064656C657465643A006D
:1002C00043616E6E6F74206F70656E20737562642B
:1002D000697220002569730025696D202569730006
:1002E0002569682025696D202569730025696420CA
:1002F0002569682025696D202569730025697920A5
:10030000256964202569682025696D2025697300A9
:100310005072696E742074696D653A20006F66666C
:1003200000C401BF01B801B101A3014445425547D2
:100330003A004D3131332053006F6B004D616C79C1
:10034000616E204D313530204F46462E004D4F54C2
:10035000494F4E5F4D4F44455300544845524D411F
:100360004C5F50524F54454354494F4E00415554F1
:100370004F5245504F52545F53445F53544154556C
:100380005300454D455247454E43595F50415253E6
:10039000455200434153455F4C494748545F4252E0
:1003A000494748544E45535300544F47474C455FC7
:1003B0004C494748545300534F4654574152455FA8
:1003C000504F574552004255494C445F50455243A7
:1003D000454E54004C4556454C494E475F444154A8
:1003E00041005A5F50524F4245004155544F4C45D1
:1003F00056454C005052494E545F4A4F42005052AD
:100400004F4752455353004155544F5245504F5258
:10041000545F54454D5000564F4C554D455452492C
:100420004300454550524F4D0053455249414C5FA2
:10043000584F4E5F584F4646004649524D5741521D
:10044000455F4E414D453A4D61726C696E20627553
:10045000676669782D322E302E78202847697468B7
:1004600075622920534F555243455F434F44455FC2
:1004700055524C3A68747470733A2F2F67697468D8
:1004800075622E636F6D2F4D61726C696E46697275
:100490006D776172652F4D61726C696E2050524F9D
:1004A000544F434F4C5F56455253494F4E3A312EAD
:1004B00030204D414348494E455F545950453A4DCF
:1004C000616C79616E204D3135302045585452555C
:1004D0004445525F434F554E543A31205555494497
:1004E0003A30303030303030302D303030302D3008
:1004F0003030302D303030302D3030303030303002
:1005000030303030300A002F2F20004D313435206C
:10051000533C696E6465783E206F7574206F662069
:1005200072616E67652028302D31290A0020540041
:10053000205200416363656C65726174696F6E3A45
:100540002050004F4646004F4E00205A00205900D0
:10055000580020204D61783A2000205A0020590090
:10056000580020204D696E3A2000536F6674206554
:100570006E6473746F70733A200020466C6F773A24
:10058000200050726F7465637465642050696E0A50
:1005900000496E76616C6964206578747275646573
:1005A000720A0020643A0020693A0020703A004341
:1005B000290A0061626C656420286D696E2074658B
:1005C0006D702000436F6C6420657874727564658B
:1005D00073206172652000454550524F4D204F4BAE
:1005E0000A004E6F2063617365206C696768740A46
:1005F00000496E76616C6964206578747275646513
:10060000720A004572726F722077726974696E6740
:1006100020746F20454550524F4D210A000F150E92
:100620001216170E1303021A1401000E0C190DFFF7
:10063000180C040001627573793A20706175736556
:100640006420666F7220696E7075740A006275733B
:10065000793A2070617573656420666F72207573D6
:1006600065720A00627573793A2070726F63657300
:1006700073696E670A004B494C4C20636175736562
:100680006420627920746F6F206D75636820696ED5
:100690006163746976652074696D65202D206375CA
:1006A0007272656E7420636F6D6D616E643A2000C6
:1006B000506C6561736520726573657400505249B2
:1006C0004E5445522048414C544544004B494C4CF3
:1006D00045442E20005072696E7465722068616C0A
:1006E0007465642E206B696C6C28292063616C6CC6
:1006F0006564210A006563686F3A004572726F7223
:100700003A0020496E76616C696420657874727570
:1007100064657220007C3C3E5E2B3D3F2F5B5D3B61
:100720002C2A225C0024F4D43050C38E20C2A24074
:1007300017828B7011127A910D816CD90AA861E130
:1007400008C7586607615143061E4B5D05C145A7A2
:10075000041A411104093D9803713931034036DB15
:100760000265339102D4305402802E1D02632CEEB8
:1007700001752AC501B028A001102781018F2564C9
:10078000012B244B01E0223401AC211F018D200DEF
:1007900001801FFC00841EED00971DDF00B81CD2F5
:1007A00000E61BC600201BBC00641AB200B219A8E8
:1007B000000A19A0006A189900D117910040178B00
:1007C00000B516840031167E00B31579003A157312
:1007D00000C7146F0058146A00EE13660088136394
:1007E0000025135E00C7125B006C125700151254EF
:1007F00000C111510070114F0021114B00D610495A
:10080000008D1047004610440002104200C00F4007
:1008100000800F3E00420F3C00060F3B00CB0E381D
:1008200000930E37005C0E3500270E3400F30D32B6
:1008300000C10D3100900D3000600D2E00320D2DE5
:1008400000050D2C00D90C2B00AE0C2900850C29BD
:10085000005C0C2700350C27000E0C2600E80B244A
:1008600000C40B2400A00B23007D0B23005A0B2196
:1008700000390B2100180B2000F80A1F00D90A1EAE
:1008800000BB0A1E009D0A1D00800A1D00630A1C91
:1008900000470A1B002C0A1B00110A1A00F7091A4C
:1008A00000DD091900C4091900AB091900920917E4
:1008B000007B091800630917004C09160036091659
:1008C00000200916000A091500F5081500E00814B3
:1008D00000CC081400B8081400A4081400900813F1
:1008E000007D0812006B0813005808120046081219
:1008F000003408110023081100120811000108112A
:1009000000F0071000E0071000D0071000C007102B
:1009100000B0070F00A107100091070E0083070F1A
:100920000074070F0065070E0057070E0049070EF9
:10093000003B070D002E070E0020070D0013070DCA
:100940000006070D00F9060C00ED060D00E0060C90
:1009500000D4060C00C8060C00BC060C00B0060C47
:1009600000A4060B0099060C008D060B0082060BF6
:100970000077060B006C060B0061060A0057060B99
:10098000004C060A0042060A0038060A002E060A33
:100990000024060A001A060A001006090007060AC3
:1009A00000FD050900F4050900EB050900E2050951
:1009B00000D9050900D0050900C7050900BE0509D1
:1009C00000B5050800AD050800A50509009C05084F
:1009D00000940508008C050800840508007C0508C3
:1009E00000740508006C050700650508005D050733
:1009F00000560508004E050700470507004005089A
:100A00000038050700310507002A05070023050700
:100A1000001C050600160507000F0507000805065F
:100A20000002050700FB040600F5040700EE0406BB
:100A300000E8040600E2040700DB040600D5040613
:100A400000CF040600C9040600C3040600BD040666
:100A500000B7040600B1040500AC040600A60406B5
:100A600000A00405009B0406009504050090040600
:100A7000008A04050085040500800406007A040548
:100A80000075040500700405006B0405006604058C
:100A900000610405005C04050057040500520405CC
:100AA000004D04050048040500430405003E04040D
:100AB000003A04050035040500300404002C040548
:100AC0000027040400230405001E0404001A040483
:100AD0000016040500110404000D040400090405B7
:100AE000000404040000040400FC030400F80304F0
:100AF00000F4030400F0030400EC030400E8030422
:100B000000E4030400E0030400DC030400D8030451
:100B100000D4030400D0030400CC030400C8030382
:100B200000C503030024F404D9201BC40C5C0E98F8
:100B300004C4095F0265077101F405F900FB04B301
:100B40000048048700C103690058035500030345AA
:100B500000BE023A008402310053022A0029022515
:100B60000004022000E4011C00C8011900AF0117B5
:100B7000009801140084011300710110006101103C
:100B80000051010E0043010D0036010B002B010B3B
:100B90000020010B00150109000C010900030108E8
:100BA00000FB000800F3000800EB000700E400066B
:100BB00000DE000600D8000600D2000600CC0005CA
:100BC00000C7000500C2000500BD000400B9000414
:100BD00000B5000400B1000400AD000400A9000449
:100BE00000A5000300A20003009F0004009B000377
:100BF000009800030095000200930003009000039A
:100C0000008D0002008B00030088000200860002B5
:100C10000084000300810002007F0002007D0002CA
:100C2000007B0002007900020077000100760002DC
:100C3000007400020072000100710002006F0002E7
:100C4000006D0001006C0002006A000100690002F2
:100C500000670001006600010065000100640002F9
:100C6000006200010061000100600001005F0002FD
:100C7000005D0001005C0001005B0001005A000102
:100C80000059000100580001005700010056000102
:100C90000055000100540001005300000053000102
:100CA000005200010051000100500001004F0001FE
:100CB000004E0000004E0001004D0001004C0001FC
:100CC000004B0000004B0001004A000100490001F8
:100CD00000480000004800010047000100460000F5
:100CE00000460001004500000045000100440001ED
:100CF00000430000004300010042000000420001E8
:100D0000004100000041000100400001003F0000E0
:100D1000003F0001003E0000003E0001003D0000D9
:100D2000003D0001003C0000003C0000003C0001D0
:100D3000003B0000003B0001003A0000003A0001C7
:100D400000390000003900010038000000380000C0
:100D500000380001003700000037000100360000B5
:100D600000360000003600010035000000350000AC
:100D700000350001003400000034000000340001A0
:100D80000033000000330000003300010032000097
:100D9000003200000032000100310000003100008C
:100DA0000031000100300000003000000030000180
:100DB000002F0000002F0000002F0000002F000176
:100DC000002E0000002E0000002E0001002D00006B
:100DD000002D0000002D0000002D0001002C00005F
:100DE000002C0000002C0000002C0001002B000053
:100DF000002B0000002B0000002B0001002A000047
:100E0000002A0000002A0000002A0001002900003A
:100E1000002900000029000000290000002900012D
:100E20000028000000280000002800000028000022
:100E30000028000100270000002700000027000014
:100E40000027000000270001002600000026000007
:100E500000260000002600000026000100250000FA
:100E600000250000002500000025000000250000EE
:100E700000250001002400000024000000240000E0
:100E800000240000002400010023000000230000D3
:100E900000230000002300000023000000230000C6
:100EA00000230001002200000022000000220000B8
:100EB00000220000002200000022000100210000AA
:100EC000002100000021000000210000002100009E
:100ED000002100000021000100200000002000008F
:100EE0000020000000200000002000000020000082
:100EF0000020000000200001001F0000001F000073
:100F0000001F0000001F0000001F0000001F000065
:100F1000001F0001001E0000001E0000001E000057
:100F2000001E000000043700001E290000511B00B5
:100F3000005810000010090000CC040000780200E6
:100F40000041010000000048430000484300003415
:100F500043000000000000000000000000290A001B
:100F60002062797465733B2063726320005365745B
:100F700074696E67732053746F726564202800452E
:100F80004550524F4D206461746173697A652065E4
:100F900072726F722E0A00290A00206279746573DA
:100FA0003B2063726320002073746F72656420734A
:100FB000657474696E6773207265747269657665AD
:100FC00064202800202863616C63756C617465641B
:100FD00029210A0020213D2000454550524F4D2037
:100FE000435243206D69736D61746368202D20281E
:100FF00073746F7265642920002053697A653A2002
:1010000000496E6465783A2000204D61726C696E0B
:101010003D563633290A0028454550524F4D3D0074
:10102000454550524F4D2076657273696F6E206D45
:1010300069736D61746368200000000000000000A7
:101040000000000000000000000700000380000016
:101050000000000000000000001FC0000FE07C0343
:10106000E0781C0781E0F03E0E7FE0003FF07E0755
:10107000E0FC1C0381C1F83F0E7FF8007FF07E0783
:10108000E0FC1C03C3C1F83F0E7BFE01FEF07F0FA6
:10109000E1FE1C01C383FC3F8E7CFF87F9F0770ED5
:1010A000E1FE1C01E783FC3B8E7F7FCFF7F0779E4C
:1010B000E1CE1C00E7039C3BCE7F9FFFCFF0739CEB
:1010C000E3CF1C00FF079E39CE7FE7FF3FF073FCA4
:1010D000E3871C007E070E39EE7FFBFEFFF071F800
:1010E000E3871C007E0F0F38EE7FFCF9FFF071F8EC
:1010F000E7FF9C003C0FFF38FE7FFF27FFF070F0FA
:10110000E7FF9C003C0FFF387E7FFFDFFFF070F0B1
:10111000EFFFDC003C1FFFB87E7FDFFFDFF0706079
:10112000EF03DFF83C1E07B83E7FC7FF1FF070607B
:10113000EE01DFF83C1C03B83E7FC3FE1FF07000D9
:10114000EE01DFF83C1C03B81E7FC3FE1FF0000059
:101150000000000000000000007FC3DE1FF07FFFE2
:10116000FFFFFFFFFFFFFFFFFE7FC3DE1FF07FFFDC
:10117000FFFFFFFFFFFFFFFFFE7FC3DE1FF07C3F8F
:10118000FAFBFFFFFFFD7ABFFE7FC3DE1FF07D9FEE
:10119000FBFFFFFFFFFF7EF7FE7FC3DE1FF07D93A7
:1011A0001A8A18E38C451AA2DE3FC3DE0FF07C2DAD
:1011B000CACAD6E924CD6AB6BE1F83DE07E07DA386
:1011C0006A9AD6E926656AB63E0603DE01807D91FD
:1011D0000A8AD8E38C451AB37E0003DE00007FFF45
:1011E000FFFFFEEFFFFFFFFF7E0003DE00007FFF3B
:1011F000FFFFF1EFFFFFFFFEFE0003DE00007FFFB9
:10120000FFFFFFFFFFFFFFFFFE0003DE00007FFF89
:10121000FFFFFFFFFFFFFFFFFE0003DE00000000F7
:101220000000000000000000000001DC00000000E1
:10123000000000000000000000000050000000005E
:101240000000000000000000001FFFFFFFFFFFFF85
:10125000600000000001FF400000000000FF80006F
:10126000000000007F83CF00000C303F87FF80002C
:101270000C301F867980000C000F8C30C7838C30B7
:10128000E78C30CFC7CC31F38C30DCECEC33B98C4D
:1012900030D86C6C33198C30D06C0C33198C30D83E
:1012A0006C0C33198C30DC6C0E3B198C30CF7C0706
:1012B0009F198C30C77C038F19400000000000028A
:1012C000600000000000061FFFFFFFFFFFF8202066
:1012D000506C616E6E6572427566666572427974B5
:1012E00065733A20002046726565204D656D6F720A
:1012F000793A2000436F6D70696C65643A204465EB
:101300006320313620323031380A00207C2041758C
:1013100074686F723A202847756E74686572290A7E
:1013200000323031382D30312D323000204C617395
:101330007420557064617465643A20006275676654
:1013400069782D322E302E780A004D61726C696EEC
:101350000020536F667477617265205265736574FF
:101360000A00205761746368646F67205265736573
:10137000740A002042726F776E206F757420526578
:101380007365740A002045787465726E616C205232
:10139000657365740A00506F77657255700A007343
:1013A000746172740A006175746F25632E6700653D
:1013B00072726F722077726974696E6720746F2021
:1013C00066696C650A00446F6E6520736176696EAC
:1013D000672066696C652E0A004D323900456E64DF
:1013E00073746F7073202563202563202563202587
:1013F0006300205A3A0020593A0020583A00656E9E
:101400006473746F7073206869743A20000000215F
:1014100000240027002A0000002200250028002BBD
:101420000000002000230026002900020202020220
:101430000202020404040404040404030303030377
:10144000030303010101010101010101020408106C
:10145000204080010204081020408001020408108E
:10146000204080804020100804020100000001029A
:101470000000000000000004030807000000000056
:1014800000000000000000000000004D6F766520A5
:10149000302E316D6D004D6F766520316D6D004DD4
:1014A0006F76652031306D6D004D6F766520617807
:1014B000697300486F74656E6420746F6F20636F8A
:1014C0006C64004578747275646572004D6F766562
:1014D000205A004D6F76652059004D6F7665205873
:1014E0000048617264636F64656420446566617579
:1014F0006C742053657474696E6773204C6F6164FB
:1015000065640A00BC020000BC0200006400000028
:101510001027000000009643000096430000A04002
:101520000000C8415E45B9425E45B9420000C8446A
:101530000000CE4220440020490020204D333031AD
:101540002050005049442073657474696E67733A83
:101550000A0020460020420020480020204D31345F
:10156000352053004D6174657269616C2068656156
:1015700074757020706172616D65746572733A0A7A
:1015800000205A0020590020204D323036205800CB
:10159000486F6D65206F66667365743A0A00204572
:1015A00000205A00205900205800205400205300E9
:1015B00020204D32303520420020453C6D61785F5F
:1015C000655F6A65726B3E0020583C6D61785F789C
:1015D0005F6A65726B3E20593C6D61785F795F6A26
:1015E00065726B3E205A3C6D61785F7A5F6A657206
:1015F0006B3E00416476616E6365643A20423C6DE7
:10160000696E5F7365676D656E745F74696D655F44
:1016100075733E20533C6D696E5F666565647261EB
:1016200074653E20543C6D696E5F74726176656CC2
:101630005F66656564726174653E002054002052E7
:101640000020204D323034205000416363656C65CA
:10165000726174696F6E2028756E6974732F7332AE
:10166000293A20503C7072696E745F616363656CE7
:101670003E20523C726574726163745F616363659E
:101680006C3E20543C74726176656C5F6163636587
:101690006C3E0A00204500205A0020590020204DB1
:1016A0003230312058004D6178696D756D2041638D
:1016B00063656C65726174696F6E2028756E6974FC
:1016C000732F7332293A0A00204500205A0020590E
:1016D0000020204D3230332058004D6178696D75FF
:1016E0006D206665656472617465732028756E6926
:1016F00074732F73293A0A00204500205A0020599C
:101700000020204D393220580053746570732070CA
:10171000657220756E69743A0A0020204D323030AF
:101720002044300A0020204D323030204400204434
:10173000697361626C65640A0046696C616D656E0F
:10174000742073657474696E67733A0020204D319C
:1017500034392043203B20556E69747320696E2014
:1017600043656C736975730A0020286D6D2900202C
:1017700020473231202020203B20556E6974732091
:10178000696E206D6D006F70656E00545249474759
:1017900045524544003A20007A5F6D696E00795FDA
:1017A0006D696E00785F6D696E005265706F72745E
:1017B000696E6720656E6473746F702073746174F2
:1017C00075730A00205A3A0020593A0020436F7579
:1017D0006E7420583A0020453A00205A3A002059A9
:1017E0003A00583A00486F6D696E67206661696C0F
:1017F0006564000000000000000000000000000020
:1018000000484200004842000080400000000057AD
:1018100061726E696E673A20486F6D696E6720422B
:10182000756D702044697669736F72203C20310AAF
:10183000000202040000A0400000A04000000040A0
:10184000000048430000484300003443FFFFFF4CC2
:101850006F61642073657474696E67730052657399
:10186000746F7265206661696C736166650053749C
:101870006F72652073657474696E6773005072656A
:10188000686561742041425320636F6E6600507238
:10189000656865617420504C4120636F6E6600413D
:1018A0006476616E6365642053657474696E6773F2
:1018B000004D61696E004D3235005072696E7420C2
:1018C00061626F727465640054656D7065726174F5
:1018D000757265004D6F74696F6E0054756E6500AA
:1018E000496E69742E2053442063617264004D3246
:1018F00031004E6F2053442063617264004368617D
:101900006E67652053442063617264004D3231007C
:101910005072696E742066726F6D20534400537468
:101920006F70207072696E7400526573756D6520FA
:101930007072696E7400436F6E6669677572617468
:10194000696F6E005061757365207072696E740006
:10195000496E666F2073637265656E004D6F7665C4
:101960002058004D6F76652059004D6F7665205ADE
:101970000045787472756465720045787472756498
:101980006572004D6F7665205A004D6F766520595F
:10199000004D6F76652058004D6F74696F6E00467C
:1019A0006C6F7700466C6F770046616E20737065D0
:1019B00065640046616E207370656564004265640D
:1019C00000426564004E6F7A7A6C65004E6F7A7AD9
:1019D0006C65005370656564005370656564004D07
:1019E00061696E0025753A253032750025303275F3
:1019F0003A253032750025756420253032753A2538
:101A000030327500202020202020002020202000BF
:101A10001FE0201020102010102010202010201077
:101A200030300840048003001FE03FF03FF03FF0FB
:101A30001FE01FE03FF03FF03FF00FC007800300C2
:101A40003FFFF038007030FC3020FC102078102070
:101A500030102C00D02E31D02F7BD02F7BD02E31C8
:101A6000D02C00D020301020781020FC1030FC301A
:101A70003800703FFFF03FFFF038007031863023B0
:101A800087102787902F87D02F03D0203010207801
:101A9000102078102030102F03D02F87D027879068
:101AA0002387103186303800703FFFF01FFFF81F8A
:101AB000FFF804104002082002082004104008200B
:101AC00080104100104100082080041040000000F8
:101AD0001FFFF81FFFF844697361626C652073741F
:101AE000657070657273004D3834004175746F20F5
:101AF000686F6D6500473238004D6F7665206178FC
:101B00006973004D61696E0043616E6E6F7420658C
:101B10006E746572207375626469723A2000022ED9
:101B20002E000152656672657368004D61696E0032
:101B30005072656865617420504C4120456E6400A8
:101B40005072656865617420504C412042656400A4
:101B50005072656865617420504C410054656D7029
:101B60006572617475726500507265686561742094
:101B700041425320456E640050726568656174206F
:101B8000414253204265640050726568656174206B
:101B90004142530054656D706572617475726500E1
:101BA00050726568656174204142530050726568E7
:101BB00065617420504C4100436F6F6C646F776EA9
:101BC0000046616E2073706565640046616E207327
:101BD000706565640042656400426564004E6F7A1A
:101BE0007A6C65004E6F7A7A6C65004D61696E00A3
:101BF000556E6B6E6F776E20636F6D6D616E643ABC
:101C000020220020746F6F206C6F6E6720657874DF
:101C1000727573696F6E2070726576656E74656437
:101C20000A0020636F6C6420657874727573696F45
:101C30006E2070726576656E7465640A0043616E2D
:101C40006E6F74206F70656E2073756264697220A8
:101C50000053442063617264206F6B0A006F7065EB
:101C60006E526F6F74206661696C65640A00766FEE
:101C70006C756D652E696E6974206661696C65644A
:101C80000A00534420696E6974206661696C0A0019
:101C90004D3234004D323320257300577269746918
:101CA0006E6720746F2066696C653A20006F7065FE
:101CB0006E206661696C65642C2046696C653A200B
:101CC000006F70656E206661696C65642C204669E2
:101CD0006C653A200046696C652073656C656374B9
:101CE00065640A002053697A653A200046696C658C
:101CF000206F70656E65643A2000667265736800D7
:101D0000646F696E67002066696C653A20004E6FEB
:101D1000772000454E4420535542524F5554494E6A
:101D2000450A002220706F73002220706172656E78
:101D3000743A2200535542524F5554494E45204360
:101D4000414C4C207461726765743A220074727958
:101D5000696E6720746F2063616C6C207375622DEF
:101D600067636F64652066696C6573207769746862
:101D700020746F6F206D616E79206C6576656C7371
:101D80002E204D4158206C6576656C2069733A3180
:101D90000A006265640A002C2073797374656D20F3
:101DA00073746F7070656421204865617465725F3B
:101DB00049443A20004265642068656174696E6731
:101DC000206661696C65640048656174696E6720AE
:101DD0006661696C65640045312048656174696EAF
:101DE00067206661696C65640048656174696E6747
:101DF000206661696C656400202D20496E76616CF7
:101E00006964206578747275646572206E756D62A0
:101E1000657220210A0070012C0190012701B00198
:101E20002201C0011D01F00118011002130130024E
:101E30000E016002090190020401C002FF000003CC
:101E4000FA004003F5008003F000D003EB0020040B
:101E5000E6007004E100E004DC004005D700C005A6
:101E6000D2004006CD00D006C8008007C30030086D
:101E7000BE00F008B900C009B400B00AAF00B00B52
:101E8000AA00D00CA500000EA000500F9B00C010AF
:101E900096005012910000148C00C0158700B017F6
:101EA0008200B0197D00D01B7800001E7300402016
:101EB0006E0090226900F024640040275F009029A2
:101EC0005A00E02B5500102E500020304B001032ED
:101ED0004600E033410090353C0010373700703841
:101EE0003200A0392D00B03A2800A03B2300603C0E
:101EF0001E00103D1900903D1400103E0F00703E72
:101F00000A00C03E0500003F0000403FFBFF803F4D
:101F1000F6FFC03FF1FF453120544845524D414C3A
:101F20002052554E4157415900424544205448459E
:101F3000524D414C2052554E41574159005468650D
:101F4000726D616C2052756E617761790045312048
:101F50004572723A204D415854454D5000457272B9
:101F60003A204D415854454D5020424544004D4182
:101F70005854454D502074726967676572656400F6
:101F80004531204572723A204D494E54454D50001E
:101F90004572723A204D494E54454D5020424544B9
:101FA000004D494E54454D50207472696767657203
:101FB0006564004D383420582059205A20450020AF
:101FC0002F002042403A0020403A0056652D6A65B5
:101FD000726B0056652D6A65726B00567A2D6A65C4
:101FE000726B00567A2D6A65726B0056792D6A65A0
:101FF000726B0056792D6A65726B0056782D6A6592
:10200000726B0056782D6A65726B00416476616E62
:102010006365642053657474696E677300457374F7
:102020006570732F6D6D004573746570732F6D6DE2
:10203000005A73746570732F6D6D005A73746570F8
:10204000732F6D6D005973746570732F6D6D00592A
:1020500073746570732F6D6D005873746570732F92
:102060006D6D005873746570732F6D6D00416476EB
:10207000616E6365642053657474696E67730049AB
:102080006E697469616C697A6520454550524F4D9F
:1020900000416476616E6365642053657474696E93
:1020A0006773004D34323800496E697469616C6938
:1020B0007A6520454550524F4D0046696C616D650B
:1020C0006E740054656D706572617475726500534D
:1020D000746570732F6D6D004A65726B00416363A8
:1020E000656C65726174696F6E0056656C6F6369CB
:1020F00074790053657420686F6D65206F66667330
:1021000065747300436F6E66696775726174696F99
:102110006E0053746F72652073657474696E6773B3
:102120000042656400426564004E6F7A7A6C650017
:102130004E6F7A7A6C650046616E207370656564D7
:102140000046616E20737065656400436F6E66695A
:102150006775726174696F6E0023646566696E6588
:102160002044454641554C545F004B6420004B6968
:1021700020004B702000504944204175746F7475E5
:102180006E652066696E6973686564212050757498
:1021900020746865206C617374204B702C204B692F
:1021A00020616E64204B6420636F6E7374616E7483
:1021B000732066726F6D2062656C6F7720696E7434
:1021C0006F20436F6E66696775726174696F6E2EFA
:1021D000680A00504944204175746F74756E65201B
:1021E0006661696C6564212074696D656F75740A38
:1021F00000453120544845524D414C2052554E41E6
:1022000057415900546865726D616C2052756E615A
:102210007761790045312048656174696E67206691
:1022200061696C65640048656174696E6720666108
:10223000696C656400504944204175746F74756E13
:1022400065206661696C6564212054656D706572F6
:10225000617475726520746F6F20686967680A0021
:10226000204B643A2000204B693A2000204B703A02
:1022700020000A20436C6173736963205049442035
:102280000A002054753A2000204B753A2000206D3A
:1022900061783A2000206D696E3A200020643A206F
:1022A0000020626961733A200050494420417574EE
:1022B0006F74756E652073746172740A00504944BE
:1022C000204175746F74756E65206661696C656414
:1022D0002120426164206578747275646572206E95
:1022E000756D6265720A004572723A2075746638BF
:1022F00020666F6E74206E6F7420696E69746961F8
:102300006C697A65642E004572723A20757466387D
:1023100020666F6E74206E6F7420696E69746961D7
:102320006C697A65642E004572723A20757466385D
:1023300020666F6E74206E6F7420696E69746961B7
:102340006C697A65642E0000060C00FE0702260305
:10235000BC017FFE08FE08FE05080806000040F0EC
:10236000C88888987810050808060000C0F8888892
:10237000888888F80505050600012030F83020051A
:1023800008080600002070F820202020E005090938
:102390000600FF2070A8A8B88888702005060606E9
:1023A0000001E08CEA8C8A0A0509090600FFF8A8FA
:1023B0008888888888A8F8050A0A0600FE205050F8
:1023C000505088A8A8887003030306000340A0406B
:1023D000FFFFFFFFFFFFFFFFFFFFFFFFFFFFFFFF0D
:1023E000FFFFFFFFFFFF0000000605FF01070706D4
:1023F000020080808080800080030303060105A026
:10240000A0A005060606000050F85050F850050937
:10241000090600FF2070A8A07028A87020050707F3
:10242000060000C8C810204098980507070600005D
:1024300040A0A040A89068010303060205808080A8
:102440000309090601FF20404080808040402003AE
:1024500009090601FF8040402020204040800507F8
:102460000706000020A8702070A8200505050600BA
:10247000012020F820200203030601FFC040800550
:102480000101060003F8020202060100C0C00507B0
:1024900007060000081010204040800507070600CE
:1024A00000708898A8C8887003070706010040C01C
:1024B00040404040E00507070600007088081020F3
:1024C00040F8050707060000F80810300888700576
:1024D000070706000010305090F810100507070697
:1024E0000000F880F0080888700507070600003033
:1024F0004080F0888870050707060000F808101073
:1025000020202005070706000070888870888870E2
:102510000507070600007088887808106002050526
:10252000060100C0C000C0C00206060601FFC0C010
:1025300000C04080030505060101204080402005C1
:102540000303060002F800F80305050601018040B8
:10255000204080050707060000708810202000201A
:102560000507070600007088B8A8B880700507073F
:10257000060000708888F88888880507070600002C
:10258000F04848704848F00507070600007088804A
:1025900080808870050707060000F04848484848D2
:1025A000F0050707060000F88080F08080F8050736
:1025B00007060000F88080F080808005070706008D
:1025C000007088808098887005070706000088885A
:1025D00088F8888888030707060100E040404040EB
:1025E00040E0050707060000381010101090600545
:1025F00007070600008890A0C0A09088050707067E
:102600000000808080808080F80507070600008831
:10261000D8A8888888880507070600008888C8A881
:102620009888880507070600007088888888887061
:10263000050707060000F08888F0808080050707FE
:1026400006000070888888A89068050707060000C3
:10265000F08888F0A0908805070706000070888041
:1026600070088870050707060000F8202020202049
:102670002005070706000088888888888870050775
:102680000706000088888888505020050707060044
:102690000088888888A8A850050707060000888851
:1026A00050205088880507070600008888502020A1
:1026B0002020050707060000F80810204080F803D6
:1026C00009090601FFE080808080808080E00507A6
:1026D0000706000080404020101008030909060189
:1026E000FFE020202020202020E005030306000535
:1026F0002050880501010600FEF8030303060105CA
:1027000080402005050506000070087888780507D8
:10271000070600008080F0888888F005050506001F
:102720000070808088700507070600000808788818
:102730008888780505050600007088F08070050718
:1027400007060000304840E040404005070706000B
:10275000FE7088888878087005070706000080806A
:10276000F0888888880307070601004000C04040C1
:1027700040E00409090601FE10003010101010900E
:102780006005070706000080808890E090880307B6
:1027900007060100C04040404040E0050505060036
:1027A00000D0A8A8A8A8050505060000B0C888881C
:1027B00088050505060000708888887005070706EB
:1027C00000FEF0888888F080800507070600FE7804
:1027D000888888780808050505060000B0C880804C
:1027E0008005050506000078807008F005070706DB
:1027F00000002020F820202018050505060000888C
:102800008888986805050506000088888850200596
:1028100005050600008888A8A850050505060000E3
:1028200088502050880507070600FE8888885020B9
:102830004080050505060000F8102040F80309094E
:102840000601FF2040404080404040200109090629
:1028500002FF8080808080808080800309090601DB
:10286000FF804040402040404080050303060002B6
:1028700048A890FF486F6D65202573257325732048
:102880006669727374002066697273740A005A0074
:1028900059005800486F6D6520004F666673657477
:1028A00073206170706C696564004572723A2054DF
:1028B0006F6F206661722100546F6F206661722015
:1028C00066726F6D207265666572656E63652070F5
:1028D0006F696E740A004361703A00656E717565C8
:1028E0007565696E672022006F6B00526573656EB7
:1028F000643A200053544F505045442E20005072EB
:10290000696E7465722073746F707065642064758D
:102910006520746F206572726F72732E204669781D
:1029200020746865206572726F7220616E64207514
:102930007365204D39393920746F20726573746165
:1029400072742E202854656D70657261747572659D
:102950002069732072657365742E20536574206935
:102960007420616674657220726573746172746933
:102970006E67290A004E6F20436865636B73756D3F
:102980002077697468206C696E65206E756D62656C
:10299000722C204C617374204C696E653A20004E95
:1029A0006F20436865636B73756D20776974682069
:1029B0006C696E65206E756D6265722C204C61735A
:1029C00074204C696E653A2000636865636B7375AB
:1029D0006D206D69736D617463682C204C61737434
:1029E000204C696E653A20004C696E65204E756D0D
:1029F000626572206973206E6F74204C617374205D
:102A00004C696E65204E756D6265722B312C204CC1
:102A1000617374204C696E653A20004D313130008D
:102A20004D33310053442072656164206572726FCA
:102A3000720A00446F6E65207072696E74696E6709
:102A40002066696C650A0020573A004520436F6F85
:102A50006C696E672E2E2E00452048656174696E84
:102A6000672E2E2E0020573A0042656420636F6F58
:102A70006C696E672E2E2E00426564206865617455
:102A8000696E672E2E2E005049442D440050494453
:102A90002D44005049442D49005049442D490050CF
:102AA00049442D50005049442D5000416476616ED8
:102AB0006365642053657474696E6773005654725D
:102AC0006176206D696E005654726176206D696E74
:102AD00000566D696E00566D696E00566D61782006
:102AE0004500566D6178204500566D6178205A008A
:102AF000566D6178205A00566D6178205900566DE8
:102B00006178205900566D6178205800566D6178C3
:102B1000205800416476616E636564205365747467
:102B2000696E677300416D6178204500416D617881
:102B3000204500416D6178205A00416D6178205A2E
:102B400000416D6178205900416D61782059004144
:102B50006D6178205800416D6178205800412D74D6
:102B6000726176656C00412D74726176656C00410E
:102B70002D7265747261637400412D7265747261A7
:102B8000637400416363656C00416363656C00417D
:102B90006476616E6365642053657474696E6773EF
:102BA000006F70656E206661696C65642C204669F3
:102BB0006C653A200046696C2E204469612E0046FF
:102BC000696C2E204469612E004F6666004F6E00CE
:102BD0004520696E206D6D5E3300416476616E63E1
:102BE00065642053657474696E6773004D616C7918
:102BF000616E204D3135302052656164792E005070
:102C000072696E74696E672E2E2E005072696E7432
:102C1000207061757365640088CA0ECA11241FBED6
:102C2000CFEFD0E4DEBFCDBF12E0A0E0B1E0E2E341
:102C3000F0EB01E00BBF02C007900D92A034B1078A
:102C4000D9F722E1A0E4B2E001C01D92AF31B20792
:102C5000E1F716E1CDE0D6E104C02197FE010E9424
:102C600062D4CC30D107C9F70E94CBC10C940CD8E8
:102C70000C9400002F923F924F925F926F927F923E
:102C80008F929F92AF92BF92CF92DF92EF92FF927C
:102C90000F931F93CF93DF93CDB7DEB7CA56D109F9
:102CA0000FB6F894DEBF0FBECDBF00919A0420E6A8
:102CB000029F80011124065E1C4F8091830C80FFCF
:102CC00005C00E944633C8010E94A13610927602C8
:102CD000109275028FE38093770210926D0210922A
:102CE0006C021092670210926802109269021092B0
:102CF0006A02C8018C01DC012C9101962032D1F3CB
:102D00002E34D9F411968C9190ED980F9A3020F0D2
:102D10008D3211F08B3289F4F80132969F012F5FCA
:102D20003F4F808180538A3010F4F901F7CF8F0133
:102D30003196D8018C918032D1F310937A070093A9
:102D400079077801BFEFEB1AFB0AF80170806AE29D
:102D500070E0C7010E94C9D7009731F0FC0131979C
:102D600080818032E1F31182FDE47F1631F024E5A9
:102D7000721619F037E47312EEC0F70180814FEF3D
:102D8000E41AF40A8032C9F380538A3008F0E3C0B1
:102D90007092770280E090E06AE03196DF0111974F
:102DA0002C91022E000C330B20533109689FA00197
:102DB000699F500D1124C901840F951F2081205354
:102DC0002A3058F390936D0280936C02DF013196A4
:102DD0002C912032D9F35DE475121AC08E31910521
:102DE00091F03CF48731910571F08C31910581F4BB
:102DF0000AC08537910564F08737910524F0803A41
:102E0000E3E09E0729F4B0937602A0937502A3C075
:102E1000C12CD12C760140E050E0812C912C540142
:102E20008394FD0131966C9161110DC0509376022F
:102E300040937502C0926702D0926802E0926902E4
:102E4000F0926A0288C06132E9F42DE472121AC06D
:102E500080329105B9F4C0926702D0926802E09284
:102E60006902F0926A02F0937602E093750263E2DF
:102E700070E0CF010E94C9D7009709F46CC0DC0153
:102E80001C9269C061546A3108F042C09F01F90187
:102E900070812F5F3F4F7032D1F320ED270F2A3022
:102EA000E8F07E3211F421810CC07D3211F07B32CA
:102EB00059F4218130ED320F3A3080F02E3221F476
:102EC000228120532A3050F04115510511F00C9405
:102ED0006C2CAF01415051090C946C2C9F01A62F12
:102EE000B0E01401250104C0220C331C441C551C05
:102EF0006A95D2F7C228D328E428F5282115310590
:102F000011F0201B01C020E0A05CBD4F2C9304C039
:102F10004115510509F4AD01208121542A3110F4E5
:102F2000DF017FCF9F01F901D9016D916623C1F3C4
:102F300070ED760F7A3010F49D01F5CF73ED760FBA
:102F40007230D0F36B32C1F3F9012F5F3F4F6081D4
:102F50006032D1F3E5CF11E010936E0280917702D9
:102F60008D3411F40C949B20843511F40C944A2C6C
:102F7000873411F00C94652C20906C0230906D0217
:102F8000B4E02B16310409F466C664F437FE02C0BF
:102F90000C94972080912C01F2E02F1631040CF054
:102FA000F7C02EC02AE52216310411F40C94DD1F5F
:102FB0003CF44CE12416310409F48BC60C949720A0
:102FC0005BE52516310411F40C94E11F8CE52816FD
:102FD000310411F00C94972020E4222E21E0322EAF
:102FE0003DE3E32E37E0F32E40EB54E058AF4FAB18
:102FF00045E2C42E47E0D42E00E010E00C942020DF
:10300000882311F40C94672C0E945A2E809122017F
:10301000882321F08AE497E00E946C5F8091830C02
:1030200083FD7DC0C0905607D0905707E0905807A9
:10303000F09059072091BC043091BD044091BE042A
:103040005091BF04C701B6010E94CCCF882309F478
:1030500066C08091CC0781111FC06091CD0770912F
:10306000CE078091CF079091D0070E94E0D52091A4
:103070002A0130912B016217730774F4C092BC04CB
:10308000D092BD04E092BE04F092BF040E94463389
:1030900088EE91E00E942033809056079090570769
:1030A000A0905807B09059072091BC043091BD04FE
:1030B0004091BE045091BF04C501B4010E9473D475
:1030C0006B017C0120E030E0A9010E94D4D687FF8B
:1030D00004C0F7FAF094F7F8F094209126013091AB
:1030E00027014091280150912901C701B6010E9492
:1030F00032D020E030E048E453E40E94D4D61816E1
:1031000074F48092BC049092BD04A092BE04B0926C
:10311000BF040E94463389EC91E00E942033609105
:10312000230170912401072E000C880B990B0E943B
:10313000D3CF20911201309113014091140150918D
:1031400015010E9432D02AE037ED43E25CE30E9491
:1031500032D069837A838B839C83C12CD12C7601F6
:103160008E010F5F1F4F26E537E042E557E06EE422
:1031700077E08AE497E00E94308680E1EAE4F7E0B5
:10318000A0EBB4E001900D928A95E1F70C94672CC6
:10319000882311F40C94672C0E945A2E82E50E9419
:1031A0004D2E882309F456C10E94D12D6B017C015C
:1031B0004090B0045090B1046090B2047090B30499
:1031C0002091B4043091B5044091B6045091B704F5
:1031D0002FAB38AF49AF5AAF80914A0790914B0758
:1031E000A0914C07B0914D078BAF9CAFADAFBEAF78
:1031F00020914E0730914F07409150075091510751
:1032000027962CAF3DAF4EAF5FAF279720E030E061
:10321000A901C701B6010E94CCCF882309F413C5C8
:103220002BAD3CAD4DAD5EADC301B2010E94CCCF24
:1032300081110FC027962CAD3DAD4EAD5FAD2797E8
:103240006FA978AD89AD9AAD0E94CCCF882309F4DF
:10325000FAC411E032E02316310409F010E020E056
:1032600030E0A901C701B6010E94CCCF881F882792
:10327000881F181759F080E090E0A0E8BFEB2F9668
:103280008CAF9DAFAEAFBFAF2F970AC020E030E04C
:1032900040E85FE32F962CAF3DAF4EAF5FAF2F9767
:1032A000A30192016BAD7CAD8DAD9EAD0E9473D438
:1032B00023966CAF7DAF8EAF9FAF23972FA938AD0C
:1032C00049AD5AAD27966CAD7DAD8EAD9FAD2797BC
:1032D0000E9473D42B966CAF7DAF8EAF9FAF2B97B0
:1032E00023962CAD3DAD4EAD5FAD2397CA01B9011C
:1032F0000E9432D04B015C012B962CAD3DAD4EAD02
:103300005FAD2B97CA01B9010E9432D09B01AC017D
:10331000C501B4010E9474D40E9422D74B015C0104
:103320009B01AC0160E070E080E89FE30E946ED5F5
:1033300063966CAF7DAF8EAF9FAF639720E030E0B8
:1033400040E05FE3C501B4010E9432D04B015C0153
:10335000A7019601C701B6010E9432D06B017C0122
:10336000A5019401C501B4010E9432D09B01AC01BA
:10337000C701B6010E9473D40E9422D72F962CADAC
:103380003DAD4EAD5FAD2F970E9432D04B015C0139
:103390002B966CAD7DAD8EAD9FAD2B9790586396FF
:1033A0002CAD3DAD4EAD5FAD63970E9432D0A5010F
:1033B00094010E9432D06B017C012BAD3CAD4DAD30
:1033C0005EADC301B2010E9474D420E030E040E061
:1033D0005FE30E9432D09B01AC01C701B6010E949D
:1033E00074D4A30192010E9473D46B017C012796CF
:1033F0002CAD3DAD4EAD5FAD27976FA978AD89ADD2
:103400009AAD0E9474D420E030E040E05FE30E9477
:1034100032D02B013C0163962CAD3DAD4EAD5FAD7E
:10342000639723966CAD7DAD8EAD9FAD23970E94C3
:1034300032D0A50194010E9432D09B01AC01C3019E
:10344000B2010E9474D42FA938AD49AD5AAD0E9483
:1034500073D414C089E40E944D2E882329F00E9461
:10346000D12D6B017C0103C0C12CD12C76018AE4E3
:103470000E944D2E8823F9F00E94D12D27966CAF23
:103480007DAF8EAF9FAF279720E030E0A901C70145
:10349000B6010E94CCCF81111EC020E030E0A9010E
:1034A00027966CAD7DAD8EAD9FAD27970E94CCCF9A
:1034B000811111C0C8C320E030E0A901C701B601E5
:1034C0000E94CCCF882309F4BEC327961CAE1DAE44
:1034D0001EAE1FAE2797D701C601B0588FAB98AF6D
:1034E000A9AFBAAF27962CAD3DAD4EAD5FAD2797D6
:1034F00050582BAF3CAF4DAF5EAF9C01AD01BC014E
:10350000CD010E9432D04B015C012BAD3CAD4DADE5
:103510005EADCA01B9010E9432D09B01AC01C50168
:10352000B4010E9474D40E9422D76F966CAF7DAF15
:103530008EAF9FAF6F978091B0049091B104A0912E
:10354000B204B091B30423968CAF9DAFAEAFBFAFC2
:103550002397A7019601BC01CD010E9474D4639604
:103560006CAF7DAF8EAF9FAF63972091B404309165
:10357000B5044091B6045091B7042F962CAF3DAFDF
:103580004EAF5FAF2F9727962CAD3DAD4EAD5FADE3
:1035900027972F966CAD7DAD8EAD9FAD2F970E9476
:1035A00074D4A3966CAF7DAF8EAF9FAFA39780917D
:1035B0004A0790914B07A0914C07B0914D07679631
:1035C0008CAF9DAFAEAFBFAF679763962CAD3DADEF
:1035D0004EAD5FAD6397BC01CD010E9473D46B010A
:1035E0007C0120914E0730914F0740915007509138
:1035F00051076B962CAF3DAF4EAF5FAF6B97A39665
:103600002CAD3DAD4EAD5FADA3976B966CAD7DAD72
:103610008EAD9FAD6B970E9473D44B015C0180917E
:10362000B8049091B904A091BA04B091BB04A796D4
:103630008CAF9DAFAEAFBFAFA7979C01AD016091BE
:1036400052077091530780915407909155070E943B
:1036500073D42B966CAF7DAF8EAF9FAF2B97A70126
:1036600096016FA978AD89AD9AAD0E9432D02B0139
:103670003C01A50194016BAD7CAD8DAD9EAD0E946A
:1036800032D09B01AC01C301B2010E9474D42B0162
:103690003C01A50194016FA978AD89AD9AAD0E9456
:1036A00032D04B015C01A70196016BAD7CAD8DADB5
:1036B0009EAD0E9432D09B01AC01C501B4010E94B5
:1036C00073D4A30192010E94F3D46B017C0120E02A
:1036D00030E0A9010E94CCCF87FF0AC02BED3FE06C
:1036E00049EC50E4C701B6010E9474D46B017C011F
:1036F00092E02916310451F42BED3FE049EC50E4FF
:10370000C701B6010E9473D46B017C0120E030E058
:10371000A901C701B6010E94CCCF811128C06796CC
:103720002CAD3DAD4EAD5FAD679723966CAD7DADD5
:103730008EAD9FAD23970E94CCCF811118C06B96A0
:103740002CAD3DAD4EAD5FAD6B972F966CAD7DADA5
:103750008EAD9FAD2F970E94CCCF811108C0EBEDAD
:10376000CE2EEFE0DE2EE9ECEE2EE0E4FE2EA701F9
:1037700096016F966CAD7DAD8EAD9FAD6F970E943B
:1037800032D04B015C0120E030E0A9012B966CADFA
:103790007DAD8EAD9FAD2B970E94CCCF8823E9F0F5
:1037A000A5019401C501B4010E9432D04B015C0116
:1037B0002B962CAD3DAD4EAD5FAD2B97CA01B90137
:1037C0000E9432D09B01AC01C501B4010E9474D4A7
:1037D0000E9422D74B015C010DC020E030E0A9011E
:1037E000C501B4010E94D4D687FF04C0B7FAB094D3
:1037F000B7F8B0942FE632E143E85AE3C501B401CB
:103800000E94CCCF87FD13C2C501B4010E9416D619
:103810000E94E7D52D967FAF6EAF2D97DB01AB2BC6
:1038200031F4E1E0F0E02D96FFAFEEAF2D97409040
:10383000BC045090BD046090BE047090BF042D96EF
:103840002EAD3FAD2D97B90180E090E00E94D1CF21
:103850004B015C019B01AC01C701B6010E946ED512
:1038600023966CAF7DAF8EAF9FAF2397A5019401D8
:103870002B966CAD7DAD8EAD9FAD2B970E946ED516
:103880006F966CAF7DAF8EAF9FAF6F97A301920124
:10389000609156077091570780915807909159078A
:1038A0000E9473D4A50194010E946ED5AB966CAFB3
:1038B0007DAF8EAF9FAFAB9723962CAD3DAD4EAD98
:1038C0005FAD2397CA01B9010E9432D020E030E0F9
:1038D00040E05FE30E9432D09B01AC0160E070E009
:1038E00080E89FE30E9473D467966CAF7DAF8EAF84
:1038F0009FAF6797A7968CAD9DADAEADBFADA797B7
:1039000089879A87AB87BC874D865E866F86788A63
:103910006091230170912401072E000C880B990BF4
:103920000E94D3CF209112013091130140911401D4
:10393000509115010E9432D02AE037ED43E25CE35A
:103940000E9432D06C8F7D8F8E8F9F8F0E94DE55AC
:103950009B01AC0128533F4F4F4F5F4F6B962CAFED
:103960003DAF4EAF5FAF6B974FA858AC69AC7AAC28
:1039700022242394312C39E128963FAF28972D96A5
:103980004EAD5FAD2D974215530509F428C10E9435
:103990004A940E94DE55DC01CB016B962CAD3DAD07
:1039A0004EAD5FAD6B97821B930BA40BB50BB7FDB0
:1039B00010C00E94DE559B01AC0128533F4F4F4F72
:1039C0005F4F6B962CAF3DAF4EAF5FAF6B970E94D2
:1039D000F93328963FAD2897315028963FAF289766
:1039E000332309F445C02BAD3CAD4DAD5EAD6796BC
:1039F0006CAD7DAD8EAD9FAD67970E9432D06B01EF
:103A00007C019201A30123966CAD7DAD8EAD9FAD7F
:103A100023970E9432D0A70196010E9474D47B01A3
:103A20008C019201A30167966CAD7DAD8EAD9FAD0B
:103A300067970E9432D04B015C012BAD3CAD4DAD80
:103A40005EAD23966CAD7DAD8EAD9FAD23970E948C
:103A500032D09B01AC01C501B4010E9473D42B018B
:103A60003C01C701D8018BAF9CAFADAFBEAF55C015
:103A7000B10180E090E00E94D1CF23962CAD3DAD06
:103A80004EAD5FAD23970E9432D04B015C010E9486
:103A900069D56B017C01C501B4010E9414D74B01AB
:103AA0005C01A70196016FA978AD89AD9AAD0E941E
:103AB00032D02B013C0127962CAD3DAD4EAD5FAD14
:103AC0002797C501B4010E9432D0A30192010E9440
:103AD00074D42B013C01A50194016FA978AD89AD87
:103AE0009AAD0E9432D04B015C0127962CAD3DADC2
:103AF0004EAD5FAD2797C701B6010E9432D09B0142
:103B0000AC01C501B4010E9473D46BAF7CAF8DAF23
:103B10009EAF49E128964FAF28979201A301639683
:103B20006CAD7DAD8EAD9FAD63970E9474D46983FB
:103B30007A838B839C832BAD3CAD4DAD5EADA3965C
:103B40006CAD7DAD8EAD9FADA3970E9474D46D8397
:103B50007E838F8398876F962CAD3DAD4EAD5FAD64
:103B60006F9769857A858B859C850E9474D4698757
:103B70007A878B879C87AB962CAD3DAD4EAD5FAD04
:103B8000AB976D857E858F8598890E9474D46D87EB
:103B90007E878F87988B80912201882321F0CE0128
:103BA00001960E946C5FC12CD12C60E8E62E6FE379
:103BB000F62E8E01045E1F4F9E01235F3F4FAE0124
:103BC000475F5F4FBE016B5F7F4FCE0101960E9442
:103BD0003086882321F05FEF251A350AD0CE80E1A8
:103BE000EAE4F7E0DE01119601900D928A95E1F783
:103BF000C12CD12C50E8E52E5FE3F52E8E01045E3A
:103C00001F4F9E01235F3F4FAE01475F5F4FBE01D5
:103C10006B5F7F4FCE0101960E94308680E1FE01EE
:103C20003196A0EBB4E001900D928A95E1F70E94E5
:103C3000DE5560934E0E70934F0E8093500E90930E
:103C4000510E0C94672C0E94423383E092E00E9454
:103C500020330C94672C80E50E944D2E882329F098
:103C60000E948D2D6B017C0103C0C12CD12C7601EB
:103C700083E50E944D2E882361F00E94D12D20E023
:103C800030E04AE754E40E9432D00E94E7D56B014D
:103C90007C010E94D94880917B07811105C060E0BA
:103CA00089E192E00E9447BE0E94DE55C60ED71EF3
:103CB000E81EF91E0E94DE55DC01CB018C199D091E
:103CC000AE09BF09B7FD02C00C94672C0E94F933FE
:103CD000F1CF8FE40E942087882339F08091490733
:103CE0008770873011F40C94672C0E94D94880911A
:103CF000120190911301A0911401B09115018093CC
:103D0000710290937202A0937302B0937402809137
:103D10002301909124019093700280936F0284E6B6
:103D200090E0909324018093230111E010930B0302
:103D30000E94C66188E50E94042EA82E89E50E9493
:103D4000042E082F8AE50E94042EB82EA11004C06C
:103D5000011104C0182705C0011102C010E001C004
:103D6000182F80E1E0EBF4E0AAE4B7E001900D92B7
:103D70008A95E1F782E50E944D2E882309F4E2C07E
:103D80000E94D12D6B017C0120E030E0A9010E944E
:103D9000CCCF882309F4D6C0111105C0A11003C0EF
:103DA000002309F4E0C0C0925207D0925307E0927A
:103DB0005407F09255072091B8043091B90440910E
:103DC000BA045091BB04C701B6010E94D4D618169C
:103DD0000CF0B8C08091B4049091B504A091B604E1
:103DE000B091B7048BAF9CAFADAFBEAF2091B00424
:103DF0003091B1044091B2045091B30427962CAF96
:103E00003DAF4EAF5FAF27978091120190911301A4
:103E1000A0911401B091150123968CAF9DAFAEAF68
:103E2000BFAF2397E7E0F8E1259135914591549193
:103E30002FAB38AF49AF5AAF209312013093130123
:103E40004093140150931501C092B804D092B90464
:103E5000E092BA04F092BB040E941E606090AC0C29
:103E60007090AD0C8090AE0C9090AF0C2090A80C90
:103E70003090A90C4090AA0C5090AB0C9101A2017B
:103E8000B301C4010E94D4D6181614F431014201C2
:103E9000C301D4018093120190931301A0931401E4
:103EA000B093150127968CAD9DADAEADBFAD2797F4
:103EB0008093B0049093B104A093B204B093B30480
:103EC0002BAD3CAD4DAD5EAD2093B4043093B50445
:103ED0004093B6045093B7040E941E602091B8042A
:103EE0003091B9044091BA045091BB04C701B601A6
:103EF0000E94CCCF87FF16C08FA998ADA9ADBAADEF
:103F00008093120190931301A0931401B0931501B3
:103F1000C092B804D092B904E092BA04F092BB0403
:103F20000E941E6023962CAD3DAD4EAD5FAD239734
:103F30002093120130931301409314015093150103
:103F40000E94D948111105C0A11003C0011106C07B
:103F50000AC080E00E947C601123C1F381E00E94CE
:103F60007C60111102C0BB2019F082E00E947C60CD
:103F70000E943A6080910A0380930B038091710242
:103F800090917202A0917302B09174028093120119
:103F900090931301A0931401B093150180916F02C7
:103FA00090917002909324018093230183E0809389
:103FB00025010E94E6620C94672C10926B020C940F
:103FC000672C10936B020C94672C0E94D12D2B014F
:103FD0003C01133049F0F601208131814281538147
:103FE0000E9473D42B013C01AFA9B8AD2D913D9136
:103FF0004D915C91C301B2010E9473D44B015C01ED
:104000002DEB37E346E855EB0E94D4D687FD20C060
:104010002DEB37E346E855E3C501B4010E94CCCF50
:104020001816B4F01F5FB4E0EB0EF11CEFA9F8AD69
:104030003496F8AFEFABF4E0CF0ED11C143039F169
:10404000D1018D911D010E944D2E882359F3BDCFC2
:10405000133051F44092BC045092BD046092BE04EF
:104060007092BF0401E0DECFA5019401F7016081E9
:104070007181828193810E9474D4D7016D937D9365
:104080008D939C931397812F0E94FE5FCBCF0023CB
:1040900009F449C02091A40C3091A50C4091A60CC4
:1040A0005091A70C6091BC047091BD048091BE0436
:1040B0009091BF040E9432D00E94E1D66093600FBD
:1040C0007093610F8093620F9093630F90913E0FF6
:1040D00080913F0F981719F00E947B4824C00E94DE
:1040E000D94880916F00982F927081FF05C0809110
:1040F0006F008D7F80936F004091600F5091610F32
:104100006091620F7091630F4093600D5093610D49
:104110006093620D7093630D992329F080916F0075
:10412000826080936F000E94E6620C94672C0E946C
:1041300010870C94672C80916C0290916D028137EE
:10414000910509F4AAC50CF0FAC08A32910509F468
:10415000ECC40CF09CC08831910509F457C20CF0F6
:1041600059C08231910509F44BC6BCF497FF02C0D7
:104170000C94472C823091050CF4B7C1419711F093
:104180000C94472C60E085E392E00E9447BE5E9865
:104190005E9815985E980C94672C8531910509F40A
:1041A0001BC254F5449711F00C94472C8DE492E017
:1041B0000E9420331092420D80E29FE00E946C3AF0
:1041C0008BE1E0E2FFE0DE01119601900D928A950D
:1041D000E1F740E050E0BE016F5F7F4F80E090E08C
:1041E0000E94378BCE0101960E94863D8EE392E0BD
:1041F0000E9420330C94672C8631910509F4F0C19C
:10420000479711F00C94472C80917502909176029B
:10421000FC01F3C18D31910511F40C94672CC4F4A9
:104220008A31910509F414C20CF4F8C18B3191055F
:1042300009F41CC24C9711F00C94472C40E060E04C
:1042400080917502909176020E94D58C0C94672C17
:104250008F31910509F4BFC30CF475C2803291050A
:1042600009F4CFC2819711F00C94472C009175028C
:104270001091760282E08093420DF80101900020B7
:10428000E9F731975F01A01AB10AF801F4C28C3541
:10429000910509F4FDC534F58135910509F495C5FD
:1042A0008CF48C34910509F45DC48D34910509F4C6
:1042B0006CC48B34910511F00C94472C0E94A754C8
:1042C0000C94672C8335910509F496C50CF491C5BF
:1042D0008435910509F494C58535910509F4BFC568
:1042E0000C94472C8C36910509F4CFC4ACF4893674
:1042F000910509F40FC534F48836910509F448C4D2
:104300000C94472C8A36910509F43CC58B369105EF
:1043100009F450C50C94472C8E36910509F45EC4FF
:104320000CF459C48F36910509F469C4803791059E
:1043300011F00C94472C80E090E00E944A338C3DB1
:10434000910511F40C947D2A0CF058C08139910527
:1043500009F4CFC64CF58637910509F486C6A4F456
:104360008337910509F427C60CF420C685379105DB
:1043700011F00C94472C60E08091750290917602C8
:104380000E9481BE0C94672C8837910509F4A2C65F
:104390000CF49DC68937910509F4A4C68C389105A3
:1043A00009F49BC40C94472C8B3C910509F46CC711
:1043B000ACF48E3B910509F4AAC434F48B39910511
:1043C00009F4BAC40C94472C883C910509F4ECC656
:1043D000893C910509F435C70C94472C8D3C910517
:1043E00009F4A2C70CF46FC78E3C910509F4ACC761
:1043F000833D910509F4CBC70C94472C8A3921E001
:10440000920709F447C48CF58D3241E0940711F40A
:104410000C94402B94F4823E910511F40C94E02A04
:104420008C32A1E09A0711F40C942B2B8D3D910551
:1044300011F00C94472C0C948A2A8F32B1E09B0720
:1044400011F40C94062C14F40C94C42B8336F1E074
:104450009F0711F40C94332C8039914011F00C9487
:10446000472C0E94D9480C94672C873F31E0930772
:1044700011F40C940F2CFCF4843F51E0950711F4D7
:104480000C94092C4CF48C3A914011F00C94472C6C
:104490000E94E4AA0C94672C853FE1E09E0711F48A
:1044A0000C940C2C863F914011F00C94472C0E94E8
:1044B000D1610C94672C8C3022E0920711F40C949B
:1044C0002B2C3CF4883F914011F40C941A2C0C9442
:1044D000472C803A53E0950709F46EC2873E93401B
:1044E00011F40C943A2C0C94472CA0907502B090C7
:1044F000760280E50E944D2E882359F00E948D2D72
:104500006B017C0111E0672B682B692B31F410E003
:1045100004C010E0C12CD12C760183E50E944D2E01
:10452000882311F40C94702C0E94D12D20E030E0EF
:104530004AE754E40E9432D00E94E7D56B017C0127
:1045400011110BC0672B682B692B39F4A114B1042E
:1045500021F0F5018081811102C010E001C011E05D
:104560000E94D948112329F061E0C5010E9481BE53
:1045700005C060E082E292E00E9447BE83E0809343
:104580006E0281E080930612C114D104E104F104AB
:10459000B1F00E94DE55C60ED71EE81EF91E0E941D
:1045A000DE55DC01CB018C199D09AE09BF09B7FFAF
:1045B0000DC08091061281110C94752C07C080915A
:1045C0000612882319F00E94F933F9CF0E94A7BE82
:1045D000109206120C94672C0E941A8A0C94672C75
:1045E0000E94A2898091D910877F8093D9100C9462
:1045F000672C203209F41082319620812111F9CFE5
:1046000040E061E00E94D58C0C94672C0E94B18937
:104610000E94A7540E94A7BE0C94672C8091D910C9
:104620008B7F8093D9108091E902813069F482E018
:104630008093E9020E94DE556093E5027093E602E2
:104640008093E7029093E8020E94A7BE0C94672C27
:104650008091D91083FD02C00C94672C83E50E94E1
:104660004D2E81110C94792C0C94672C83E40E94BC
:10467000042E8823D9F188E692E00E9420338091AD
:10468000CA0E882351F1BE016F5F7F4F87EC9EE019
:104690000E94163D8E010F5F1F4FD8018D918D0135
:1046A000882319F00E941933F8CFBE016F5F7F4F46
:1046B00080E090E00E949D8C8091EC04882389F03A
:1046C00080E20E9419330CEE14E0F80181918F0111
:1046D000882339F00E941933F8CF8EE592E00E94CA
:1046E00020338AE00E9419330C94672C8091D910F2
:1046F00083FF23C082FF21C087E792E00E9420331E
:104700006091D5107091D6108091D7109091D810EB
:104710004AE00E9445358FE20E9419336091D11022
:104720007091D2108091D3109091D4104AE00E94E1
:1047300045350E949B360C94672C89E892E00E94D4
:1047400020330C94672C8091D91083FD02C00C9407
:10475000672C0E94F98660917502709176028091B3
:10476000D91083FD02C00C94672CCE014C960E9498
:10477000ACB88C01009711F40C94672C6C8D7D8D76
:1047800019821C8222E0AC01CE0101960E947B3F7F
:10479000811102C0F12C14C0CE0101960E941AB8FA
:1047A0008823C1F361E0CE0101960E94FA3C009794
:1047B00089F325EEDC012C931C820E948F37F82EA2
:1047C000CE0101960E94863DB801FF2089F082EB60
:1047D00092E00E942F338AE00E9419331092D51084
:1047E0001092D6101092D7101092D8100C94672CFB
:1047F0008AE992E00E942F338EE20E9419330C94D2
:10480000672C8091D91082FD0E94D9488091D910DF
:1048100083FD02C00C94672C80E50E942087182F2E
:10482000482F61E080917502909176020E94D58CAC
:1048300083E50E944D2E882381F00E949D2DAB01BF
:10484000BC014093D5105093D6106093D71070934D
:10485000D81087EC9EE00E94D5390E94B1891111D1
:104860000C94672C0E94A7540C94672C80818F3283
:1048700009F410823196CF01801B910B8A159B059C
:10488000ACF38BE1E0E2FFE0DE015C9601900D927B
:104890008A95E1F7E12CF12CEA14FB040CF084C0BA
:1048A000F801EE0DFF1D8081811103C0BFEFEB1AEF
:1048B000FB0A6801CE0CDF1CF6018081882309F415
:1048C00073C0FFEFEF1AFF0AF801EE0DFF1D7F0125
:1048D000E01AF10A81918111FACFCE014C960E9423
:1048E0006C3A8BE1FE017C96DE01119601900D92EF
:1048F0008A95E1F7A601BE016F5F7F4F80E090E0EF
:104900000E94378BCE0101960E94863D8FE20E9465
:1049100019338091EC04882319F08CEE94E002C0E6
:1049200084EF91E04C01D4018D914D01882319F061
:104930000E941933F8CF8091D91084FF35C01982B5
:104940001C8221E0A601BE01645E7F4FCE0101966C
:104950000E947B3F811116C08AE00E9419330E9499
:10496000463380EC92E00E942033F60181916F0182
:10497000882319F00E941933F8CFCE0101960E94C6
:10498000863D12C0CE014C960E947D3D8BE1FE011A
:104990003196DE015C9601900D928A95E1F7CE0189
:1049A00001960E94863D78CF8AE00E941933CE019D
:1049B0004C960E94863D8BC72091750230917602FD
:1049C0009091D91092609093D91040E060E0C901B5
:1049D0000E94D58C7CC70E9458547B018C0120E832
:1049E00031E541E050E00E94D3D3C9016DE671E0AA
:1049F0000E941BD44B015C01C801B70120E13EE0DD
:104A000040E050E00E94D3D3CA01B90128E130E070
:104A100040E050E00E94D3D3762E672EC62ED72ECC
:104A20009CE3292E312C412C512CC801B701A20145
:104A300091010E94D3D3F62EE72ECA01B901A2013B
:104A400091010E94D3D3CB018E010F5F1F4F8114C0
:104A5000910499F0EF92FF927F936F936F927F9200
:104A6000BF92AF929F928F928CEF92E09F938F9321
:104A70001F930F930E9464CF13C0A114B104B1F02F
:104A8000EF92FF927F936F936F927F92BF92AF925C
:104A90008CEE92E09F938F931F930F930E9464CFAD
:104AA0000FB6F894DEBF0FBECDBF30C0CD2879F071
:104AB000EF92FF927F936F936F927F9280EE92E0DE
:104AC0009F938F931F930F930E9464CFE9CF892BFD
:104AD00069F0EF92FF927F936F9388ED92E09F933E
:104AE0008F931F930F930E9464CFDACFEF92FF92C0
:104AF00084ED92E09F938F931F930F930E9464CF56
:104B00000F900F900F900F900F900F9060E0C801E2
:104B10000E9481BE0E944633B80180E193E00E946A
:104B20002F338AE00E941933D2C683E50E944D2EAE
:104B3000882309F4CCC60E94AD2DF82E6BE170E0FD
:104B400080E50E94DE2E8C0197FDC1C6E82E89E427
:104B50000E9420878111DEC6802F0E94A6C181118C
:104B60004CC5D8C68091E902813009F0B0C682E018
:104B70008093E9020E94DE556093E5027093E6029D
:104B80008093E7029093E802A2C60E94CB549FC68E
:104B90008091830C83FD9BC60E94EC3587FD97C6F0
:104BA00083E50E944D2E882309F491C60E94D12DE1
:104BB0000E94E0D58B017093AA046093A90480E061
:104BC0000E940C90063511050CF081C60E94CB5452
:104BD0000E94A7BE7CC60E949BA579C68EE40E9457
:104BE0004D2E882309F473C60E949D2D60934A0EB2
:104BF00070934B0E80934C0E90934D0E68C683E5D8
:104C00000E94042E882359F083E50E944D2E8823AC
:104C100019F00E94AD2D01C080E08093830C0E94AA
:104C200046338BE293E00E9420338091830C8823EB
:104C300049F181E2E82E83E0F82E00E010E020E068
:104C40008091830C90E0002E02C0959587950A9480
:104C5000E2F780FF0EC0DD24D394D20E222319F098
:104C60008CE20E941933F701859194910E942033C0
:104C70002D2D0F5F1F4FB2E0EB0EF11C053011051B
:104C8000F9F62FCD8DE193E02ACD10920612109205
:104C900011011DC60E9481321AC683E50E944D2E65
:104CA000882361F00E94AD2D8093000190E0CD97A4
:104CB0000CF40DC68CE38093000109C60E944633B4
:104CC0004091000150E060E070E082E393E00E94D8
:104CD000B2358AE00E941933FAC58091830C83FDB6
:104CE000F6C583E50E944D2E882309F4F0C50E9485
:104CF000D12D0E94E0D56639710514F066E970E0A7
:104D00007093A8046093A7040E94BD8FE0C50E9421
:104D1000E4A3DDC50E94EC35182F87FD0AC089E3A6
:104D200093E00E942033812F0E94128F8AE00E941C
:104D3000193310926E02D7C683E50E944D2E882348
:104D400009F4C5C50E94AD2D182F90E0CD970CF049
:104D50001CE310935E020E94DE556B017C01212F43
:104D600030E0A8EEB3E00E9400D4C60ED71EE81EC5
:104D7000F91EC0925A02D0925B02E0925C02F0925D
:104D80005D02A5C580E50E944D2E882321F00E947A
:104D9000AD2D182F01C010E06FEF70E083E50E9489
:104DA000B7AA111194C58F3F910508F08FEF80933A
:104DB000BB078DC560E070E080E50E94B7AA892B33
:104DC00009F085C51092BB0782C50E945B900E94C6
:104DD000CB540E94614A0E94D93268EE73E080E0B1
:104DE00090E00E945D3260E08CE393E00E9447BE59
:104DF0006EC5109262026BC581E08093620267C546
:104E000083E50E944D2E882399F00E94D12D20E049
:104E100030E04AE754E40E9432D00E94E7D5609324
:104E200001017093020180930301909304014FC527
:104E300088E50E94042E811180C589E50E94042E18
:104E400081117BC58AE50E94042E811176C585E417
:104E50000E94042E811171C50E94614A38C583E504
:104E60000E94042E882309F432C50E94D12D20E02F
:104E700030E04AE754E40E9432D00E94E7D56093C4
:104E800063027093640280936502909366021FC56B
:104E90000E94EC3587FD1BC510E4C12E11E0D12E18
:104EA00004E8E02E0CE0F02E10E0F60181916F0195
:104EB0000E94042E882309F46FC0133009F063C0E8
:104EC0000E94D12D4B015C0120E030E040EA51E42A
:104ED0000E94CCCF87FF4EC0A50194016091A40C25
:104EE0007091A50C8091A60C9091A70C0E946ED594
:104EF0002B013C019B01AC0160919F077091A007C1
:104F00008091A1079091A2070E9432D060939F07E1
:104F10007093A0078093A1079093A207A301920129
:104F20006091B40C7091B50C8091B60C9091B70C57
:104F30000E9432D06093B40C7093B50C8093B60C81
:104F40009093B70C6091AF077091B0078091B10753
:104F50009091B2070E94D1CFA30192010E9432D05A
:104F60000E94E7D56093AF077093B0078093B107B5
:104F70009093B2078092A40C9092A50CA092A60CDC
:104F8000B092A70C09C00E94D12DD70154966D9301
:104F90007D938D939C9357971F5FB4E0EB0EF11CAC
:104FA000143009F082CF0E94BE4991C40E94D948B2
:104FB0000E94E6628CC489E394E00E94203360E0A2
:104FC00089E294E00E94CAAA61E082E294E00E9431
:104FD000CAAA61E087E194E00E94CAAA61E087E082
:104FE00094E00E94CAAA60E08EEF93E00E94CAAAF1
:104FF00061E084EF93E00E94CAAA60E08AEE93E049
:105000000E94CAAA60E082EE93E00E94CAAA60E011
:1050100084ED93E00E94CAAA60E086EC93E00E94CF
:10502000CAAA60E087EB93E00E94CAAA60E089EA1E
:1050300093E00E94CAAA60E083E993E00E94CAAAB2
:1050400060E082E893E00E94CAAA60E08DE693E007
:105050000E94CAAA61E08AE593E00E94CAAA60E0C1
:105060008DE493E00E94CAAA32C4009175021091A7
:10507000760283E0F12C40E08150E1F0F80190816C
:10508000292F2B7F2134C1F721812133A9F79134B6
:1050900021F0953421F441E002C0FF24F3949801FB
:1050A0002E5F3F4F89012F5F3F4FD8019C91903277
:1050B000C9F3E2CF41110E944633FF2021F087E07F
:1050C00095E00E942033C8010E94A13600C40E94CE
:1050D000A561FDC381E080930B0380930A030E94C6
:1050E000C661F5C310920B0310920A030E94C661B9
:1050F000EEC360E070E083E50E94DE2E8C01112794
:10510000023011053CF00E9442338BE095E00E9492
:105110002033DDC388E40E944D2E8823A9F00E942D
:105120009D2D6A3A71053CF06530B1E07B072CF0AB
:1051300064E071E002C06AEA70E0F801EE0FFF1F60
:10514000EF5DF84F7183608386E40E944D2E8823C3
:1051500081F00E949D2D77FD07C06F3F710529F0FA
:1051600024F06FEF70E001C060E0F801E55EF84FF9
:10517000608382E40E944D2E882309F4A8C30E9414
:105180009D2D6530710534F0683871052CF067E8A5
:1051900070E002C065E070E0F801EE0FFF1FE35E13
:1051A000F84F7183608393C30E94EC35182F87FDFD
:1051B0008EC384E40E94042E882309F43FC00E9419
:1051C000D12D6B017C0101E020E030E0A9010E94BB
:1051D000CCCF811101C000E00093910220E030E0CB
:1051E000A901C701B6010E94CCCF882339F10E94E2
:1051F000D12D24E01202F0011124EA56FD4F608304
:1052000071838283938320E030E0A901609196024C
:105210007091970280919802909199020E94CCCF50
:1052200081110CC080E090E0A0E4B0E4809396028D
:1052300090939702A0939802B09399020E946C40B9
:1052400046C30E94EC3587FD42C360E4E62E61E070
:10525000F62E04E81CE0D7018D917D010E94042EFA
:10526000882349F00E94D12D0E94E7D5F801608380
:105270007183828393830C5F1F4FFCE004391F0707
:1052800051F70E94344823C30E94EC3587FD1FC3A9
:1052900050E4E52E51E0F52E04E81CE0D7018D9195
:1052A0007D010E94042E882339F00E94D12DF8013F
:1052B00064A375A386A397A30C5F1F4FFCE004397A
:1052C0001F0761F704C38091680287FD5BC380916B
:1052D00069028E7009F056C34091B80C5091B90C18
:1052E0006091BA0C7091BB0C83E395E00E948A3602
:1052F0004091BC0C5091BD0C6091BE0C7091BF0CE4
:1053000080E395E00E948A364091C00C5091C10C18
:105310006091C20C7091C30C8DE295E00E948A36B8
:105320008AE00E941933D3C280916702827109F02A
:105330006FC3809169028C7809F06AC380916A0218
:10534000837009F065C3C3C230E4C32E31E0D32EAD
:105350004DE0E42E43E0F42E10E0D6018D916D0176
:105360000E94042E882351F00E94D12DF701608302
:10537000718382839383812F0E94FE5F1F5FF4E01D
:10538000EF0EF11C133011F40C949320E6CF0E9421
:1053900046338AE695E00E94203383E50E94042E7E
:1053A000882321F00E94C12D809322018091220147
:1053B000882319F087E495E002C083E495E00E9419
:1053C000203382E695E00E9420332091250730911A
:1053D0002607409127075091280760913107709167
:1053E000320780913307909134070E9474D4AB0147
:1053F000BC0180E695E00E948A3620912907309111
:105400002A0740912B0750912C0760913507709126
:10541000360780913707909138070E9474D4AB010A
:10542000BC018DE595E00E948A3620912D073091D0
:105430002E0740912F0750913007609139077091E6
:105440003A0780913B0790913C070E9474D4AB01CE
:10545000BC018AE595E00E948A3682E595E00E94CB
:10546000203320912507309126074091270750913E
:105470002807609116017091170180911801909191
:1054800019010E9474D4AB01BC0180E595E00E9433
:105490008A362091290730912A0740912B07509195
:1054A0002C0760911A0170911B0180911C01909151
:1054B0001D010E9474D4AB01BC018DE495E00E94F3
:1054C0008A3620912D0730912E0740912F07509159
:1054D000300760911E0170911F0180912001909111
:1054E00021010E9474D4AB01BC018AE495E00E94C2
:1054F0008A368AE00E941933EAC183E50E944D2E64
:10550000882309F4E4C10E949D2D709324016093C7
:105510002301DDC10E94EC35F82E87FDD8C183E55B
:105520000E944D2E0F2D0F2C000C110B882369F1BA
:105530000E949D2DF801EE0FFF1FEB5FFE4F718360
:105540006083000F111F000F111F98012A5D3E4F4D
:105550007901072E000C880B990B0E94D3CF2AE00B
:1055600037ED43E25CE30E9432D0F801EE56FD4F86
:1055700020813181428153810E9432D0D7016D93C5
:105580007D938D939C931397A2C10E94463385E42B
:105590000E94193380E38F0D0E941933000F111FF1
:1055A000F801EB5FFE4F608171818AE795E00E9410
:1055B000DF3585E20E9419338AE00E94193387C1E2
:1055C00080E50E94042E882309F481C160E070E028
:1055D00080E50E94DE2EF82E6FEF7FEF83E50E94BC
:1055E000DE2E8C010196039708F071C1F7FC6FC1A4
:1055F0008F2D0E94A6C1882339F00E94423382E891
:1056000095E00E94203363C10E94D94860E08F2D4D
:105610000E945E5C0F3FBFEF1B0731F001301105A8
:1056200071F000E010E00DC08F2D0E94065C31E0AB
:1056300020E0892B09F030E0032F122F02C001E097
:1056400010E08F2D0E94065C8017910709F43FC17E
:105650000E94F933F6CF64E071E083E50E94B7AAB7
:105660008C0168EE73E080E50E94B7AA8938E3E117
:105670009E0710F088E893E1B8010E941ABE27C186
:1056800085E40E944D2E811110C080E50E94042EF9
:105690008823B1F00E94D12D6093640D7093650D45
:1056A0008093660D9093670D0BC00E94AD2D8823EB
:1056B00061F30E94423381E995E00E94203307C1E3
:1056C00089E40E94042E882381F00E94D12D2CEAC7
:1056D00035EC47E25EE30E9432D06093680D709330
:1056E000690D80936A0D90936B0D84E40E94042EE3
:1056F000882381F00E94D12D2CEA35EC47E25EE34D
:105700000E946ED560936C0D70936D0D80936E0D3D
:1057100090936F0D0E9446334091640D5091650D3A
:105720006091660D7091670D8BEA95E00E948A3654
:105730002CEA35EC47E25EE36091680D7091690DEB
:1057400080916A0D90916B0D0E946ED5AB01BC01EA
:1057500087EA95E00E948A362CEA35EC47E25EE360
:1057600060916C0D70916D0D80916E0D90916F0D2B
:105770000E9432D0AB01BC0183EA95E00E948A36D8
:105780008AE00E941933A3C083E50E94042E182FDB
:10579000882371F00E94D12D0E94E0D570932B01D7
:1057A00060932A0121E0672B09F020E02093CC07C9
:1057B00080E50E94042E882359F020912A0130911F
:1057C0002B01232B11F00E94C12D8093CC077FC0A9
:1057D00011117DC00E9446338091CC07882319F0B7
:1057E00068EF71E002C06BEF71E084EC95E00E941D
:1057F0002F3360912A0170912B0183EB95E00E9479
:10580000DF358FEA95E00E94203361C00E94C39F7C
:105810005EC00E94B14A5BC00E94D86258C083E556
:105820000E94042E882319F00E94C12D81270E9416
:1058300097634DC081E080931A070E94E24E109258
:105840001A07882309F443C00E94463387ED95E088
:105850000E9420333CC08091D91082FF38C0806202
:105860008093D91034C00E94423382EE95E00E94AA
:1058700020332DC081E080932C011092920783E5A4
:105880000E942087811123C00E947BA720C00E9414
:1058900010871DC000916C0210916D020023B9F0B9
:1058A0000E94463384E50E941933B8017727072EFA
:1058B000000C880B990B0E94C33580E20E941933BB
:1058C00081EF95E00E94203302C00E941087109261
:1058D0006E020E946BA707C120E030E00C946F17A6
:1058E00011110C94AD220C94A6220E94F9330C9451
:1058F000CF220E949D2DAB01BC014093D510509347
:10590000D6106093D7107093D81087EC9EE00E9459
:10591000D539DDCF61E0802F0E945E5C6F2D802F36
:105920000E942F5C6F2D70E0802F0E943255F4E0B2
:10593000EF12CDCFF092BB07CACF0E94D94888E5BD
:105940000E94042E882331F05E9A80910C038E7F92
:1059500080930C0389E50E94042E882331F05E9A1F
:1059600080910C038D7F80930C038AE50E94042EA6
:10597000882309F4ACCF159A80910C038B7F809318
:105980000C03A5CF83E50E944D2E882391F00E9441
:10599000D12D6093B80C7093B90C8093BA0C90938E
:1059A000BB0C6093C00C7093C10C8093C20C90939D
:1059B000C30C80E50E944D2E882351F00E94D12D0A
:1059C0006093B80C7093B90C8093BA0C9093BB0C95
:1059D00082E50E944D2E882351F00E94D12D6093C4
:1059E000BC0C7093BD0C8093BE0C9093BF0C84E5EF
:1059F0000E944D2E882309F46ACF0E94D12D609316
:105A0000C00C7093C10C8093C20C9093C30C5FCFF9
:105A100082E40E94042E882351F00E948D2D609311
:105A2000940C7093950C8093960C9093970C83E54F
:105A30000E94042E882351F00E94D12D6093C40C43
:105A40007093C50C8093C60C9093C70C84E50E949C
:105A5000042E882351F00E94D12D6093C80C7093BE
:105A6000C90C8093CA0C9093CB0C88E50E94042E3D
:105A7000882351F00E94D12D60939307709394076F
:105A8000809395079093960789E50E94042E8823BA
:105A900051F00E94D12D60939707709398078093DF
:105AA000990790939A078AE50E94042E882351F063
:105AB0000E94D12D60939B0770939C0780939D0754
:105AC00090939E0785E40E94042E882309F4FFCE5C
:105AD0000E94D12D60939F077093A0078093A10728
