:100000000C94BD170C94EE170C94EE170C94EE178D
:100010000C94EE170C94EE170C94EE170C94EE174C
:100020000C94EE170C94EE170C94EE170C94EE173C
:100030000C94EE170C94EE170C94EE170C94EE172C
:100040000C94EE170C940C3B0C94EE170C94EE17DA
:100050000C94EE170C94EE170C9420AC0C94F956FB
:100060000C94EE170C946D3A0C94633A0C94EE17C2
:100070000C94EE170C94EE170C94EE170C94EE17EC
:100080000C94EE170C94EE170C94EE170C94EE17DC
:100090000C94EE170C94EE170C94EE170C94EE17CC
:1000A0000C94EE170C94EE170C94EE170C94EE17BC
:1000B0000C94EE170C94EE170C94EE170C94EE17AC
:1000C0000C94EE170C94EE170C94EE170C94EE179C
:1000D0000C94EE170C94EE170C94EE170C94EE178C
:1000E0000C94EE176657695758575C576257A057DC
:1000F0006D57715777577B577F57855789578D575E
:10010000A057935797579B578A5C8F5C945C9E5C73
:10011000A85C215DB25CBA5CC25CCC5CD65CE05C85
:10012000EF5CF95C215D035D0D5D175D084AD73B0F
:100130003BCE016E84BCBFFDC12F3D6C74319ABDB6
:1001400056833DDA3D00C77F11BED9E4BB4C3E91DA
:100150006BAAAABE000000803F05A84CCDB2D44EC9
:10016000B93836A9020C50B9918688083CA6AAAACB
:100170002ABE000000803F000C94D65C0C94906670
:100180000C949C870C940D5D0C948F5C0C94B78A36
:100190000C946EAA0C94F8840C94BB840C949E84EA
:1001A0000C9466570C94C7830C94035D0C946257AF
:1001B0000C9473840C944E660C9496870C94D3879D
:1001C0000C9454660C943B680C94F4830C94F95C86
:1001D0000C945C560C9489570C94DE440C949B57F9
:1001E0000C9408840C94EF5C0C945C570C94B397BB
:1001F0000C94969B0C941C850C9432A00C94DE837A
:100200000C9490870C9484870C94DB840C94158553
:100210000C947F570C942F660C9440680C9458846F
:100220000C94FF8A0C948AA70C94F89B0C94695741
:100230000C948D570C942A660C943A960C94448432
:100240000C9454650C94AE870C9424C00C941EAC92
:100250000C9402950C9420660C948A870C94B487B5
:100260000C94028B0C946D570C942F9D0C944A683F
:100270000C9488A70C94FDB60C949E5C0C94A85C1E
:100280000C9469560C94A2870C945A6A0C94775774
:100290000C94C25C0C942D450C9430840C947D56C7
:1002A0000C94D8840C94B0830C94215D0C94E05C85
:1002B0000C9466840C9481840C94175D0C945D6A94
:1002C0000C9400880C94AF850C9460990C9425666E
:1002D0000C94945C0C948A5C0C9432560C94A88711
:1002E0000C941C840C94BA5C0C9448660C94DF94B7
:1002F0000C9485570C9497570C94A0570C947B57EB
:100300000C9499560C94CC5C0C94199A0C949357B9
:100310000C9471570C9445680C94DD440C94606AFD
:100320000C94F7790C94B25C0C9458574E414E499A
:100330004E495459494E46CDCCCC3D0AD7233C17A3
:10034000B7D13877CC2B329595E6241FB14F0A00F0
:100350000020410000C84200401C4620BCBE4CCAE0
:100360001B0E5AAEC59D74434F4D4D554E494341EA
:1003700054494F4E0044525952554E004552524F27
:10038000525300494E464F004543484F0020746F7A
:100390006F206C6F6E6720657874727573696F6E0D
:1003A0002070726576656E7465640A0020636F6CF8
:1003B0006420657874727573696F6E2070726576EB
:1003C000656E7465640A0047322F473320626164AA
:1003D00020706172616D65746572730A00536C659B
:1003E00065702E2E2E00436C69636B20746F207233
:1003F0006573756D652E2E2E004E6F206D6F7665C0
:100400002E00456E642066696C65206C6973740A01
:1004100000426567696E2066696C65206C6973745B
:100420000A00286E6F2066696C6529004375727238
:10043000656E742066696C653A20005344207072C2
:10044000696E74696E67206279746520004E6F74FE
:10045000205344207072696E74696E670A004465A7
:100460006C6574696F6E206661696C65642C2046EA
:10047000696C653A200046696C652064656C65743A
:1004800065643A002569730025696D20256973004C
:100490002569682025696D20256973002569642018
:1004A0002569682025696D202569730025697920F3
:1004B000256964202569682025696D2025697300F8
:1004C0005072696E742074696D653A20006F6666BB
:1004D00000880383037C0375036703444542554743
:1004E0003A004D3131332053006F6B005665727402
:1004F0006578204F46462E004D4F54494F4E5F4D74
:100500004F44455300544845524D414C5F50524F63
:1005100054454354494F4E004155544F5245504F56
:1005200052545F53445F53544154555300454D4515
:100530005247454E43595F50415253455200434143
:1005400053455F4C494748545F4252494748544ECF
:1005500045535300544F47474C455F4C4947485417
:100560005300534F4654574152455F504F574552E1
:10057000004255494C445F50455243454E54004C4F
:100580004556454C494E475F44415441005A5F50DF
:10059000524F4245004155544F4C4556454C005032
:1005A00052494E545F4A4F420050524F47524553B2
:1005B00053004155544F5245504F52545F54454D8E
:1005C0005000564F4C554D455452494300454550F7
:1005D000524F4D0053455249414C5F584F4E5F5862
:1005E0004F4646004649524D574152455F4E414D98
:1005F000453A4D61726C696E206275676669782D47
:10060000322E302E7820284769746875622920536D
:100610004F555243455F434F44455F55524C3A68EE
:10062000747470733A2F2F6769746875622E636FE4
:100630006D2F6269726B6574742F5665727465787C
:100640002D4B383430302D4669726D7761726520DC
:1006500050524F544F434F4C5F56455253494F4EA3
:100660003A312E30204D414348494E455F54595050
:10067000453A56657274657820455854525544453C
:10068000525F434F554E543A3120555549443A63D1
:10069000656465326132662D343161322D34373410
:1006A000382D396231322D63353563363266333653
:1006B0003766660A002F2F20004D31343520533C19
:1006C000696E6465783E206F7574206F6620726174
:1006D0006E67652028302D31290A002054002052F1
:1006E00000416363656C65726174696F6E3A205096
:1006F000004F4646004F4E00205A00205900580037
:1007000020204D61783A2000205A002059005800DE
:1007100020204D696E3A2000536F667420656E6428
:1007200073746F70733A200020466C6F773A200024
:1007300050726F7465637465642050696E0A004975
:100740006E76616C69642065787472756465720A8E
:100750000020643A0020693A0020703A0043290AD8
:100760000061626C656420286D696E2074656D702F
:100770002000436F6C642065787472756465732023
:100780006172652000486F6D6520257325732573A0
:10079000206669727374002066697273740A005A65
:1007A0000059005800486F6D6520004F66667365FC
:1007B0007473206170706C696564004572723A20D0
:1007C000546F6F206661722100546F6F20666172F2
:1007D0002066726F6D207265666572656E63652056
:1007E000706F696E740A00454550524F4D204F4B53
:1007F0000A004E6F2063617365206C696768740A34
:1008000000496E76616C6964206578747275646500
:10081000720A004572726F722077726974696E672E
:1008200020746F20454550524F4D210A003637261F
:1008300003353C3D380E312E303F12281A1C182A41
:1008400009440AFF43080C020001627573793A20DB
:1008500070617573656420666F7220696E7075745F
:100860000A00627573793A20706175736564206659
:100870006F7220757365720A00627573793A207021
:10088000726F63657373696E670A004B494C4C2045
:1008900063617573656420627920746F6F206D7574
:1008A000636820696E6163746976652074696D653B
:1008B000202D2063757272656E7420636F6D6D619B
:1008C0006E643A2000506C656173652072657365D3
:1008D00074005052494E5445522048414C544544AE
:1008E000004B494C4C45442E20005072696E746593
:1008F000722068616C7465642E206B696C6C2829A9
:100900002063616C6C6564210A006563686F3A005E
:100910004572726F723A0020496E76616C6964208C
:100920006578747275646572200024F4D43050C305
:100930008E20C2A24017828B7011127A910D816CA9
:10094000D90AA861E108C7586607615143061E4BE2
:100950005D05C145A7041A411104093D9803713989
:1009600031034036DB0265339102D4305402802ECD
:100970001D02632CEE01752AC501B028A0011027C5
:1009800081018F2564012B244B01E0223401AC212D
:100990001F018D200D01801FFC00841EED00971D9E
:1009A000DF00B81CD200E61BC600201BBC00641A86
:1009B000B200B219A8000A19A0006A189900D1174C
:1009C000910040178B00B516840031167E00B315D8
:1009D00079003A157300C7146F0058146A00EE13BB
:1009E00066008813630025135E00C7125B006C125B
:1009F000570015125400C111510070114F00211100
:100A00004B00D61049008D104700461044000210DC
:100A10004200C00F4000800F3E00420F3C00060F16
:100A20003B00CB0E3800930E37005C0E3500270ECE
:100A30003400F30D3200C10D3100900D3000600D17
:100A40002E00320D2D00050D2C00D90C2B00AE0C04
:100A50002900850C29005C0C2700350C27000E0CA2
:100A60002600E80B2400C40B2400A00B23007D0B00
:100A700023005A0B2100390B2100180B2000F80A23
:100A80001F00D90A1E00BB0A1E009D0A1D00800A15
:100A90001D00630A1C00470A1B002C0A1B00110AD8
:100AA0001A00F7091A00DD091900C4091900AB0979
:100AB0001900920917007B091800630917004C09F7
:100AC000160036091600200916000A091500F50857
:100AD0001500E0081400CC081400B8081400A4089D
:100AE0001400900813007D0812006B0813005808CA
:100AF00012004608120034081100230811001208E1
:100B0000110001081100F0071000E0071000D007E5
:100B10001000C0071000B0070F00A10710009107D8
:100B20000E0083070F0074070F0065070E005707BC
:100B30000E0049070E003B070D002E070E00200790
:100B40000D0013070D0006070D00F9060C00ED0659
:100B50000D00E0060C00D4060C00C8060C00BC0614
:100B60000C00B0060C00A4060B0099060C008D06C4
:100B70000B0082060B0077060B006C060B0061066B
:100B80000A0057060B004C060A0042060A00380607
:100B90000A002E060A0024060A001A060A00100699
:100BA000090007060A00FD050900F4050900EB0528
:100BB0000900E2050900D9050900D0050900C705AB
:100BC0000900BE050900B5050800AD050800A5052A
:100BD00009009C050800940508008C0508008405A0
:100BE00008007C050800740508006C050700650511
:100BF00008005D050700560508004E05070047057B
:100C000007004005080038050700310507002A05E0
:100C10000700230507001C050600160507000F0541
:100C200007000805060002050700FB040600F5049E
:100C30000700EE040600E8040600E2040700DB04F7
:100C40000600D5040600CF040600C9040600C3044C
:100C50000600BD040600B7040600B1040500AC049C
:100C60000600A6040600A00405009B0406009504E7
:100C70000500900406008A04050085040500800430
:100C800006007A04050075040500700405006B0475
:100C9000050066040500610405005C0405005704B6
:100CA0000500520405004D040500480405004304F6
:100CB00005003E0404003A04050035040500300434
:100CC00004002C04050027040400230405001E046E
:100CD00004001A04040016040500110404000D04A5
:100CE0000400090405000404040000040400FC03DB
:100CF0000400F8030400F4030400F0030400EC0310
:100D00000400E8030400E4030400E0030400DC033F
:100D10000400D8030400D4030400D0030400CC036F
:100D20000400C8030300C503030024F404D9201BF6
:100D3000C40C5C0E9804C4095F0265077101F405D8
:100D4000F900FB04B30048048700C103690058039D
:100D5000550003034500BE023A00840231005302ED
:100D60002A002902250004022000E4011C00C80119
:100D70001900AF01170098011400840113007101DC
:100D800010006101100051010E0043010D003601F9
:100D90000B002B010B0020010B00150109000C01B9
:100DA000090003010800FB000800F3000800EB0045
:100DB0000700E4000600DE000600D8000600D200AE
:100DC0000600CC000500C7000500C2000500BD00FC
:100DD0000400B9000400B5000400B1000400AD0037
:100DE0000400A9000400A5000300A20003009F0066
:100DF00004009B000300980003009500020093008C
:100E00000300900003008D0002008B0003008800A7
:100E100002008600020084000300810002007F00BF
:100E200002007D0002007B000200790002007700D2
:100E300001007600020074000200720001007100DF
:100E400002006F0002006D0001006C0002006A00E9
:100E500001006900020067000100660001006500F2
:100E600001006400020062000100610001006000F6
:100E700001005F0002005D0001005C0001005B00FA
:100E800001005A00010059000100580001005700FC
:100E900001005600010055000100540001005300FC
:100EA00000005300010052000100510001005000F9
:100EB00001004F0001004E0000004E0001004D00F7
:100EC00001004C0001004B0000004B0001004A00F3
:100ED00001004900010048000000480001004700EF
:100EE00001004600000046000100450000004500EA
:100EF00001004400010043000000430001004200E3
:100F000000004200010041000000410001004000DB
:100F100001003F0000003F0001003E0000003E00D5
:100F200001003D0000003D0001003C0000003C00CD
:100F300000003C0001003B0000003B0001003A00C3
:100F400000003A00010039000000390001003800BB
:100F500000003800000038000100370000003700B2
:100F600001003600000036000000360001003500A8
:100F7000000035000000350001003400000034009E
:100F80000000340001003300000033000000330093
:100F90000100320000003200000032000100310088
:100FA000000031000000310001003000000030007E
:100FB0000000300001002F0000002F0000002F0073
:100FC00000002F0001002E0000002E0000002E0067
:100FD00001002D0000002D0000002D0000002D005C
:100FE00001002C0000002C0000002C0000002C0050
:100FF00001002B0000002B0000002B0000002B0044
:1010000001002A0000002A0000002A0000002A0037
:10101000010029000000290000002900000029002B
:10102000000029000100280000002800000028001E
:101030000000280000002800010027000000270011
:101040000000270000002700000027000100260004
:1010500000002600000026000000260000002600F8
:1010600001002500000025000000250000002500EB
:1010700000002500000025000100240000002400DD
:1010800000002400000024000000240001002300D0
:1010900000002300000023000000230000002300C4
:1010A00000002300000023000100220000002200B5
:1010B00000002200000022000000220000002200A8
:1010C000010021000000210000002100000021009B
:1010D000000021000000210000002100010020008C
:1010E0000000200000002000000020000000200080
:1010F00000002000000020000000200001001F0070
:1011000000001F0000001F0000001F0000001F0063
:1011100000001F0000001F0001001E0000001E0054
:1011200000001E0000001E000000043700001E2901
:101130000000511B00005810000010090000CC04F2
:101140000000780200004101000043616E6E6F7480
:10115000206F70656E20737562646972200053445D
:101160002063617264206F6B0A006F70656E526F4E
:101170006F74206661696C65640A00766F6C756DCA
:10118000652E696E6974206661696C65640A005336
:101190004420696E6974206661696C0A004D3234BE
:1011A000004D32332025730057726974696E6720D1
:1011B000746F2066696C653A20006F70656E2066FA
:1011C00061696C65642C2046696C653A20006F701B
:1011D000656E206661696C65642C2046696C653AB1
:1011E000200046696C652073656C65637465640AEC
:1011F000002053697A653A200046696C65206F705B
:10120000656E65643A2000667265736800646F6994
:101210006E67002066696C653A20004E6F7720008B
:10122000454E4420535542524F5554494E450A00AD
:101230002220706F73002220706172656E743A22F2
:1012400000535542524F5554494E452043414C4C52
:10125000207461726765743A2200747279696E67EE
:1012600020746F2063616C6C207375622D67636FEF
:1012700064652066696C6573207769746820746F93
:101280006F206D616E79206C6576656C732E204DD4
:101290004158206C6576656C2069733A310A0029E3
:1012A0000A002062797465733B20637263200053E7
:1012B000657474696E67732053746F726564202857
:1012C00000454550524F4D206461746173697A65E1
:1012D000206572726F722E0A00290A0020627974EA
:1012E00065733B2063726320002073746F726564C2
:1012F0002073657474696E677320726574726965B2
:10130000766564202800202863616C63756C6174C5
:10131000656429210A0020213D2000454550524F97
:101320004D20435243206D69736D61746368202DB5
:10133000202873746F7265642920002053697A65D0
:101340003A2000496E6465783A2000204D61726C45
:10135000696E3D563633290A0028454550524F4D97
:101360003D00454550524F4D2076657273696F6E52
:10137000206D69736D6174636820004861726463F5
:101380006F6465642044656661756C742053657490
:1013900074696E6773204C6F616465640A0028236A
:1013A0000000282300006400000010270000000057
:1013B0002043000020430000204100401C4671BD36
:1013C000064371BD06434855854533B314436874DD
:1013D00074703A2F2F6D61726C696E66772E6F7222
:1013E0006700687474703A2F2F6D61726C696E6655
:1013F000772E6F726700687474703A2F2F6D617268
:101400006C696E66772E6F726700627567666978C1
:101410002D322E302E78006275676669782D322E57
:10142000302E78006275676669782D322E302E78FE
:101430000000687474703A2F2F6D61726C696E666B
:10144000772E6F726700687474703A2F2F6D617217
:101450006C696E66772E6F726700687474703A2FCD
:101460002F6D61726C696E66772E6F7267002062F5
:1014700075676669782D322E302E78002020506CEA
:10148000616E6E65724275666665724279746573E7
:101490003A20002046726565204D656D6F72793A7D
:1014A0002000436F6D70696C65643A204465632069
:1014B000313620323031380A00207C204175746882
:1014C0006F723A2028416E74686F6E79204269729B
:1014D0006B6574742C2064656661756C7420636F31
:1014E0006E666967290A00323031382D30312D326D
:1014F0003000204C61737420557064617465643AE7
:1015000020006275676669782D322E302E780A00C9
:101510004D61726C696E0020536F667477617265FD
:101520002052657365740A00205761746368646FA4
:10153000672052657365740A002042726F776E20CF
:101540006F75742052657365740A00204578746560
:10155000726E616C2052657365740A00506F776516
:101560007255700A0073746172740A006175746F49
:1015700025632E67006572726F72207772697469D5
:101580006E6720746F2066696C650A00446F6E6533
:1015900020736176696E672066696C652E0A004D5E
:1015A000323900456E6473746F7073202563202593
:1015B0006320256320256300205A3A0020593A0011
:1015C00020583A00656E6473746F70732068697494
:1015D0003A200000002100240027002A002D0030BE
:1015E00000330001010000040107010A010000228C
:1015F00000250028002B002E0031003400020100DD
:1016000000050108010B010000200023002600292D
:10161000002C002F00320000010000030106010928
:101620000105050505070508080808020202020A67
:101630000A08080404040401010101010101010375
:1016400003030303030303040707070C0C0C0C0C30
:101650000C0C0C0202020206060606060606060B23
:101660000B0B0B0B0B0B0B0102102020080810209A
:10167000401020408002010201080402010102041E
:1016800008102040808040201008040201800402DD
:101690000180402010080402010804020101020434
:1016A0000810204080010204081020408000000A39
:1016B0000B02090C0D0E08070304010000000000D6
:1016C000000000000000000000000000000000001A
:1016D00000000000000000000012111000000000D7
:1016E00000000000000000000000000000000000FA
:1016F0000000004D6F766520302E316D6D004D6F0E
:10170000766520316D6D004D6F76652031306D6DE1
:10171000004D6F7665206178697300486F74656E5F
:101720006420746F6F20636F6C6400457874727509
:10173000646572004D6F7665205A004D6F766520A6
:1017400059004D6F7665205800202F0020403A0048
:101750007C3C3E5E2B3D3F2F5B5D3B2C2A225C0098
:101760004C6F61642073657474696E6773005265B1
:1017700073746F7265206661696C7361666500538E
:10178000746F72652073657474696E67730050724C
:1017900065686561742041425320636F6E66005036
:1017A00072656865617420504C4120636F6E6600FD
:1017B000416476616E6365642053657474696E6715
:1017C00073004D61696E004D3235005072696E7460
:1017D0002061626F727465640054656D706572613A
:1017E00074757265004D6F74696F6E0054756E6527
:1017F00000496E69742E2053442063617264004D69
:101800003231004E6F20534420636172640043689C
:10181000616E67652053442063617264004D32310C
:10182000005072696E742066726F6D2053440053CD
:10183000746F70207072696E7400436F6E666967B2
:1018400075726174696F6E00526573756D65207095
:1018500072696E74005061757365207072696E7480
:1018600000496E666F2073637265656E004D6F761A
:10187000652058004D6F76652059004D6F766520C4
:101880005A00457874727564657200457874727593
:10189000646572004D6F7665205A004D6F76652045
:1018A00059004D6F76652058004D6F74696F6E005A
:1018B000556E6B6E6F776E20636F6D6D616E643AFF
:1018C00020220020746F6F206C6F6E672065787423
:1018D000727573696F6E2070726576656E7465647B
:1018E0000A0020636F6C6420657874727573696F89
:1018F0006E2070726576656E7465640A002044001F
:1019000020490020204D33303120500050494420E0
:1019100073657474696E67733A0A0020460020424A
:101920000020480020204D3134352053004D617493
:10193000657269616C206865617475702070617290
:10194000616D65746572733A0A00205A002059006F
:1019500020204D323036205800486F6D65206F666C
:10196000667365743A0A00204500205A0020590029
:1019700020580020540020530020204D32303520C4
:10198000420020453C6D61785F655F6A65726B3E21
:101990000020583C6D61785F785F6A65726B3E200D
:1019A000593C6D61785F795F6A65726B3E205A3C85
:1019B0006D61785F7A5F6A65726B3E004164766143
:1019C0006E6365643A20423C6D696E5F7365676D56
:1019D000656E745F74696D655F75733E20533C6D11
:1019E000696E5F66656564726174653E20543C6D26
:1019F000696E5F74726176656C5F6665656472615D
:101A000074653E0020540020520020204D323034B6
:101A1000205000416363656C65726174696F6E206C
:101A200028756E6974732F7332293A20503C707296
:101A3000696E745F616363656C3E20523C726574CD
:101A4000726163745F616363656C3E20543C7472C1
:101A50006176656C5F616363656C3E0A00204500DA
:101A6000205A0020590020204D3230312058004D9E
:101A70006178696D756D20416363656C6572617431
:101A8000696F6E2028756E6974732F7332293A0A54
:101A900000204500205A0020590020204D323033CC
:101AA0002058004D6178696D756D206665656472BA
:101AB000617465732028756E6974732F73293A0AEF
:101AC00000204500205A0020590020204D393220A6
:101AD000580053746570732070657220756E697458
:101AE0003A0A0020204D3230302044300A002020B5
:101AF0004D3230302044002044697361626C65646B
:101B00000A0046696C616D656E7420736574746952
:101B10006E67733A0020204D3134392043203B203A
:101B2000556E69747320696E2043656C73697573B3
:101B30000A0020286D6D2900202047323120202006
:101B4000203B20556E69747320696E206D6D0048CE
:101B50006F6D696E67206661696C6564006F7065A2
:101B60006E00545249474745524544003A20007A96
:101B70005F6D696E00795F6D696E00785F6D696E8B
:101B8000005265706F7274696E6720656E6473745D
:101B90006F70207374617475730A00205A3A0020C4
:101BA000593A0020436F756E7420583A0020453A28
:101BB00000205A3A0020593A00583A00000000002C
:101BC0000000000000000000000048420000484201
:101BD00000000041000000005761726E696E673AB4
:101BE00020486F6D696E672042756D70204469767C
:101BF00069736F72203C20310A0002020400002049
:101C000041000020410000404000004843000034F3
:101C10004300003E43FFFFFF46696C2E204469618C
:101C20002E0046696C2E204469612E004F666600C6
:101C30004F6E004520696E206D6D5E330041647605
:101C4000616E6365642053657474696E67730050D8
:101C500049442D44005049442D44005049442D49E5
:101C6000005049442D49005049442D5000504944EA
:101C70002D5000200220466163740020022046613E
:101C80006374002002204D6178002002204D6178AD
:101C9000002002204D696E002002204D696E004F29
:101CA0006666004F6E004175746F74656D7000411B
:101CB0006476616E6365642053657474696E6773DE
:101CC0000020573A004520436F6F6C696E672E2ED7
:101CD0002E00452048656174696E672E2E2E002304
:101CE000646566696E652044454641554C545F0005
:101CF0004B6420004B6920004B7020005049442069
:101D00004175746F74756E652066696E6973686578
:101D100064212050757420746865206C6173742090
:101D20004B702C204B6920616E64204B6420636FE4
:101D30006E7374616E74732066726F6D2062656C71
:101D40006F7720696E746F20436F6E666967757276
:101D50006174696F6E2E680A0050494420417574A1
:101D60006F74756E65206661696C656421207469A5
:101D70006D656F75740A00453120544845524D41D8
:101D80004C2052554E4157415900546865726D615F
:101D90006C2052756E61776179004531204865612C
:101DA00074696E67206661696C656400486561747A
:101DB000696E67206661696C656400504944204122
:101DC00075746F74756E65206661696C6564212039
:101DD00054656D706572617475726520746F6F20E3
:101DE000686967680A00204B643A2000204B693A12
:101DF0002000204B703A20000A20436C6173736905
:101E00006320504944200A002054753A2000204B9A
:101E1000753A2000206D61783A2000206D696E3A95
:101E2000200020643A200020626961733A2000504B
:101E30004944204175746F74756E652073746172C6
:101E4000740A00504944204175746F74756E6520A2
:101E50006661696C656421204261642065787472F2
:101E600075646572206E756D6265720A00A100006E
:101E7000006900A20000006300B00000000900C17A
:101E80000000004100C20000004100C3000000410A
:101E900000C40000004100C50000004100C6000071
:101EA000004145C70000004300C80000004500C9CC
:101EB0000000004500CD0000004900D10000004EA8
:101EC00000D50000004F00D60000004F00D70000F2
:101ED000007800DC0000005500DD0000005900E043
:101EE0000000006100E10000006100E2000000610C
:101EF00000E30000006100E40000006100E5000074
:101F0000006100E60000006165E70000006300E892
:101F10000000006500E90000006500EA00000065BF
:101F200000EB0000006500EC0000006900ED00001F
:101F3000006900EE0000006900EF0000006900F198
:101F40000000006E00F20000006F00F30000006F60
:101F500000F40000006F00F50000006F00F60000C4
:101F6000006F00F80000006F00F90000007500FA33
:101F70000000007500FB0000007500FC000000750B
:101F800000FD0000007900FF00000079000401005E
:101F90000041000501000061000601000043000748
:101FA00001000063000C01000043000D010000630C
:101FB000000E01000044000F010000640011010048
:101FC0000064001901000065001F01000067003077
:101FD0000100004900310100006900410100004C8E
:101FE00000420100006C00430100004E004401006B
:101FF000006E00480100006E005901000072005A96
:1020000001000053005B01000073005F01000073DA
:1020100000600100005300610100007300650100D1
:102020000074006F01000075007C0100007A007DE3
:102030000100005A007E0100007A00920100006653
:1020400000E30200007800840300002700850300FD
:10205000002700860300004100870300002E00884F
:1020600003000045008903000048008A030000497E
:10207000008C0300004F008E03000059008F030006
:10208000004F00900300006900910300004100929E
:102090000300004200930300005400940300003446
:1020A00000950300004500960300005A00970300C6
:1020B0000048009803000030009903000049009A8E
:1020C0000300004B009B0300005E009C0300004DDA
:1020D000009D0300004E009E03000033009F03009C
:1020E000004F00A00300006E00A10300005000A3F9
:1020F0000300004500A40300005400A5030000599C
:1021000000A60300007000A70300005800A8030009
:10211000005000A90300004F00AA0300004900ABD3
:102120000300005900AC0300006100AD030000652E
:1021300000AE0300006E00AF0300006900B00300B2
:10214000007600B10300006100B20300004200B35A
:102150000300007600B40300006400B503000065CE
:1021600000B60300005A00B70300006E00B8030079
:10217000003000B90300006900BA0300006B00BB27
:102180000300004C00BC0300007500BD0300007696
:1021900000BE0300006500BF0300006F00C0030025
:1021A000006E00C10300007000C20300006300C3A2
:1021B0000300006F00C40300007400C50300007634
:1021C00000C60300007000C70300005800C80300E9
:1021D000005700C90300007700CA0300006900CB64
:1021E0000300007600CC0300006F00CD03000076F2
:1021F00000CE030000770001040000450010040039
:1022000000410011040000620012040000420013AB
:10221000040000540014040000510015040000459F
:1022200000160400002A00170400004500180400EE
:10223000004E00190400004E001A0400004B001B61
:1022400004000054001C0400004D001D0400004860
:10225000001E0400004F001F0400006E0020040058
:102260000050002104000043002204000054002319
:102270000400005900240400006F002504000058E9
:1022800000260400005500270400007900280400FF
:102290000057002904000057002A04000062002BA8
:1022A000040000627C2C04000062002D0400006524
:1022B000002E0400007C4F2F040000397C30040005
:1022C0000061003104000036003204000042003397
:1022D0000400007200340400006100350400006551
:1022E00000360400002A00370400006500380400AE
:1022F0000075003904000075003A0400006B003BD3
:102300000400006E003C0400006D003D0400004825
:10231000003E0400006F003F0400006E0040040017
:102320000070004104000063004204000074004398
:102330000400007900440400007170450400007836
:1023400000460400007500470400007900480400BE
:102350000077004904000077004A04000062004B47
:10236000040000627C4C04000062004D0400006523
:10237000004E0400007C6F4F040000670051040011
:10238000006500222000002E001E2100005078224F
:10239000210000544D902100003C2D922100002D81
:1023A0003EB02100000300BB21000004003C2200DD
:1023B000007E00482200007E3D60220000213D6139
:1023C0002200003D00642200003C3D652200003EEA
:1023D0003DF12300000700A03000003D0021F30183
:1023E000000200C2F401000500A2000000EC00B0F1
:1023F000000000DF00E4000000E100F6000000EF54
:1024000000F7000000FD00FC000000F500E3020002
:1024100000EB0087030000A5008F030000F4009884
:10242000030000F2009E030000E300A3030000F697
:1024300000A9030000F400AC030000E000AD0300BD
:1024400000E300B1030000E000B2030000E200B5C9
:10245000030000E300B8030000F200BC030000E446
:1024600000BE030000E300C0030000F700C103004A
:1024700000E600C3030000E500902100007F009209
:102480002100007E001A220000E8001E220000F356
:102490000088250000FF0002300000A1000C300081
:1024A00000A2000D300000A3009B300000DE009C65
:1024B000300000DF00A03000003D00A1300000A788
:1024C00000A2300000B100A3300000A800A430003A
:1024D00000B200A5300000A900A6300000B300A79C
:1024E000300000AA00A8300000B400A9300000AB02
:1024F00000AA300000B500AB300000B600AC3000E0
:1025000000B6DEAD300000B700AE300000B7DEAF81
:10251000300000B800B0300000B8DEB1300000B9C3
:1025200000B2300000B9DEB3300000BA00B43000B1
:1025300000BADEB5300000BB00B6300000BBDEB72D
:10254000300000BC00B8300000BCDEB9300000BD77
:1025500000BA300000BDDEBB300000BE00BC300061
:1025600000BEDEBD300000BF00BE300000BFDEBFD9
:10257000300000C000C0300000C0DEC1300000C12B
:1025800000C2300000C1DEC3300000AF00C4300024
:1025900000C200C5300000C2DEC6300000C300C764
:1025A000300000C3DEC8300000C400C9300000C4E1
:1025B000DECA300000C500CB300000C600CC3000C1
:1025C00000C700CD300000C800CE300000C900CFE9
:1025D000300000CA00D0300000CADED1300000CA8E
:1025E000DFD2300000CB00D3300000CBDED430008F
:1025F00000CBDFD5300000CC00D6300000CCDED7D9
:10260000300000CCDFD8300000CD00D9300000CD44
:10261000DEDA300000CDDFDB300000CE00DC300041
:1026200000CEDEDD300000CEDFDE300000CF00DF88
:10263000300000D000E0300000D100E1300000D2D6
:1026400000E2300000D300E3300000AC00E43000D2
:1026500000D400E5300000AD00E6300000D500E712
:10266000300000AE00E8300000D600E9300000D7AE
:1026700000EA300000D800EB300000D900EC300058
:1026800000DA00ED300000DB00EF300000DC00F28B
:10269000300000A600F3300000DD00F4300000B38D
:1026A000DEF7300000DCDEFA300000A6DEFB300092
:1026B00000A500FC300000B000FD300000A40007C1
:1026C0004E0000FB0086510000FC0043530000FA5E
:1026D0000064FF0000A40065FF0000A50066FF0085
:1026E00000A60067FF0000A70068FF0000A80069BF
:1026F000FF0000A9006AFF0000AA006BFF0000AB0A
:10270000006CFF0000AC006DFF0000AD006EFF002C
:1027100000AE006FFF0000AF0070FF0000B000715E
:10272000FF0000B10072FF0000B20073FF0000B3B1
:102730000074FF0000B40075FF0000B50076FF00D4
:1027400000B60077FF0000B70078FF0000B80079FE
:10275000FF0000B9007AFF0000BA007BFF0000BB59
:10276000007CFF0000BC007DFF0000BD007EFF007C
:1027700000BE007FFF0000BF0080FF0000C000819E
:10278000FF0000C10082FF0000C20083FF0000C301
:102790000084FF0000C40085FF0000C50086FF0024
:1027A00000C60087FF0000C70088FF0000C800893E
:1027B000FF0000C9008AFF0000CA008BFF0000CBA9
:1027C000008CFF0000CC008DFF0000CD008EFF00CC
:1027D00000CE008FFF0000CF0090FF0000D00091DE
:1027E000FF0000D10092FF0000D20093FF0000D351
:1027F0000094FF0000D40095FF0000D50096FF0074
:1028000000D60097FF0000D70098FF0000D800997D
:10281000FF0000D9009AFF0000DA009BFF0000DBF8
:10282000009CFF0000DC009DFF0000DD009EFF001B
:1028300000DE009FFF0000DF00E5FF00005C0000FD
:102840001C1F11111F00000006191803130C0004AF
:102850000E1F041C000000000E1315110E00001CBA
:1028600010181705060500040A0A0A0A11110E0CB1
:1028700012120C00000000001F1511151F00002D82
:102880002D2D2D2D2D007C4D61726C696E7C002DDF
:102890002D2D2D2D2D00000000000102040400004C
:1028A000001C1C0C040404020100000000000408C9
:1028B00010000000000044697361626C652073744D
:1028C000657070657273004D3834004175746F2007
:1028D000686F6D6500473238004D6F76652061780E
:1028E0006973004D61696E0043616E6E6F7420659F
:1028F0006E746572207375626469723A2000052EE9
:102900002E000452656672657368004D61696E0041
:102910005072656865617420504C41005072656862
:102920006561742041425300436F6F6C646F776E32
:102930000046616E20737065656420320046616EEA
:1029400020737065656420320046616E2073706587
:10295000656420310046616E2073706565642031C6
:10296000004E6F7A7A6C65004E6F7A7A6C65004D16
:1029700061696E00466C6F7700466C6F7700466148
:102980006E20737065656420320046616E2073703E
:1029900065656420320046616E2073706565642051
:1029A000310046616E2073706565642031004E6FA2
:1029B0007A7A6C65004E6F7A7A6C65005370656543
:1029C00064005370656564004D61696E0056652D45
:1029D0006A65726B0056652D6A65726B00567A2DBA
:1029E0006A65726B00567A2D6A65726B0056792D96
:1029F0006A65726B0056792D6A65726B0056782D88
:102A00006A65726B0056782D6A65726B0041647658
:102A1000616E6365642053657474696E6773004505
:102A200073746570732F6D6D004573746570732FCB
:102A30006D6D005A73746570732F6D6D005A7374E9
:102A40006570732F6D6D005973746570732F6D6DA4
:102A5000005973746570732F6D6D005873746570D1
:102A6000732F6D6D005873746570732F6D6D004119
:102A70006476616E6365642053657474696E677310
:102A800000496E697469616C697A652045455052E8
:102A90004F4D00416476616E6365642053657474C4
:102AA000696E6773004D34323800496E697469612C
:102AB0006C697A6520454550524F4D0046696C61FE
:102AC0006D656E740054656D7065726174757265C4
:102AD0000053746570732F6D6D004A65726B004111
:102AE0006363656C65726174696F6E0056656C6FC7
:102AF000636974790053657420686F6D65206F6633
:102B0000667365747300436F6E666967757261748E
:102B1000696F6E0053746F72652073657474696EAB
:102B20006773004E6F7A7A6C65004E6F7A7A6C65C7
:102B30000046616E2073706565640046616E2073A7
:102B40007065656400436F6E66696775726174696C
:102B50006F6E0025753A2530327500253032753A92
:102B600025303275002D2D2D0053440020202020CB
:102B700020200020202020005665727465782052A5
:102B8000656164792E005072696E74696E672E2ECD
:102B90002E005072696E7420706175736564000058
:102BA0000048430000344300003E430000000000A2
:102BB000000000000000005654726176206D696EBE
:102BC000005654726176206D696E00566D696E0014
:102BD000566D696E00566D6178204500566D6178BE
:102BE000204500566D6178205A00566D6178205A54
:102BF00000566D6178205900566D61782059005655
:102C00006D6178205800566D6178205800416476D7
:102C1000616E6365642053657474696E6773004107
:102C20006D6178204500416D6178204500416D61FE
:102C300078205A00416D6178205A00416D617820FA
:102C40005900416D6178205900416D61782058002C
:102C5000416D6178205800412D74726176656C0079
:102C6000412D74726176656C00412D7265747261DC
:102C7000637400412D726574726163740041636313
:102C8000656C00416363656C00416476616E6365E9
:102C9000642053657474696E6773001000C9021074
:102CA000012C014001220170011801B0010E01F058
:102CB0000104015002FA00B002F0003003E600D037
:102CC00003DC009004D2007005C800A006BE00001E
:102CD00008B400B009AA00D00BA000600E960060F6
:102CE000118C000015820020197800C01D6E00A014
:102CF000226400B0275A00902C500000314600E0BA
:102D0000343C0010383200903A2800603C1E00A08D
:102D10003D1400803E0A00203F00006265640A0006
:102D20002C2073797374656D2073746F7070656493
:102D300021204865617465725F49443A200045313D
:102D400020544845524D414C2052554E415741590F
:102D500000546865726D616C2052756E617761799F
:102D60000045312048656174696E67206661696C51
:102D700065640048656174696E67206661696C65A9
:102D80006400202D20496E76616C6964206578743A
:102D90007275646572206E756D62657220210A001D
:102DA0004531204572723A204D415854454D5000EE
:102DB0004D415854454D502074726967676572657E
:102DC00064004531204572723A204D494E54454DBC
:102DD00050004D494E54454D5020747269676765E7
:102DE000726564004D383420582059205A2045001F
:102DF0004361703A00656E7175657565696E67202F
:102E000022006F6B00526573656E643A2000535464
:102E10004F505045442E20005072696E74657220E8
:102E200073746F707065642064756520746F2065BD
:102E300072726F72732E20466978207468652065FF
:102E400072726F7220616E6420757365204D39391E
:102E50003920746F20726573746172742E20285447
:102E6000656D706572617475726520697320726535
:102E70007365742E205365742069742061667465CF
:102E8000722072657374617274696E67290A004EEC
:102E90006F20436865636B73756D20776974682074
:102EA0006C696E65206E756D6265722C204C617365
:102EB00074204C696E653A20004E6F20436865634C
:102EC0006B73756D2077697468206C696E65206E10
:102ED000756D6265722C204C617374204C696E654F
:102EE0003A2000636865636B73756D206D69736D5F
:102EF000617463682C204C617374204C696E653A70
:102F000020004C696E65204E756D62657220697394
:102F1000206E6F74204C617374204C696E65204E76
:102F2000756D6265722B312C204C617374204C6975
:102F30006E653A20004D313130004D33310053443D
:102F40002072656164206572726F720A00446F6E50
:102F500065207072696E74696E672066696C650AB7
:102F6000006F70656E206661696C65642C2046692F
:102F70006C653A20000024C0FDB611241FBECFEFBF
:102F8000D1E2DEBFCDBF00E00CBF13E0A0E0B2E0B5
:102F9000E4E2FBE901E00BBF02C007900D92A83408
:102FA000B107D9F72AE1A8E4B3E001C01D92AC3122
:102FB000B207E1F717E1CCEBD7E100E006C02197BB
:102FC0000109802FFE010E94DEC9CB3BD10780E0C2
:102FD0000807A9F70E9417B70C9480CD0C94000045
:102FE0002F923F924F925F926F927F928F929F9219
:102FF000AF92BF92CF92DF92EF92FF920F931F9307
:10300000CF93DF93CDB7DEB7C355D1090FB6F89490
:10301000DEBF0FBECDBF0091610E20E6029F800192
:1030200011240F551B4F8091FD1580FF05C00E9494
:103030005535C8010E94423A10927E0310927D03DA
:103040008FE380937F0310927503109274031092A4
:103050006F03109270031092710310927203C801F3
:103060008C01DC012C9101962032D1F32E34D9F45D
:1030700011968C9190ED980F9A3020F08D3211F0CE
:103080008B3289F4F80132969F012F5F3F4F808188
:1030900080538A3010F4F901F7CF8F013196D801AF
:1030A0008C918032D1F31093E5100093E4107801F5
:1030B000BFEFEB1AFB0AF80170806AE270E0C7010B
:1030C0000E943DCD009731F0FC0131978081803224
:1030D000E1F31182FDE47F1631F024E5721619F058
:1030E00037E47312EEC0F70180814FEFE41AF40A5F
:1030F0008032C9F380538A3008F0E3C070927F03B6
:1031000080E090E06AE03196DF0111972C91022E69
:10311000000C330B20533109689FA001699F500DAB
:103120001124C901840F951F208120532A3058F3A0
:103130009093750380937403DF0131962C912032B4
:10314000D9F35DE475121AC08E31910591F03CF40B
:103150008731910571F08C31910581F40AC0853772
:10316000910564F08737910524F0803AE3E09E07EB
:1031700029F4B0937E03A0937D03A3C0C12CD12C6E
:10318000760140E050E0812C912C54018394FD01A4
:1031900031966C9161110DC050937E0340937D0375
:1031A000C0926F03D0927003E0927103F0927203A9
:1031B00088C06132E9F42DE472121AC080329105A0
:1031C000B9F4C0926F03D0927003E0927103F09251
:1031D0007203F0937E03E0937D0363E270E0CF011E
:1031E0000E943DCD009709F46CC0DC011C9269C0BF
:1031F00061546A3108F042C09F01F90170812F5F6C
:103200003F4F7032D1F320ED270F2A30E8F07E32A5
:1032100011F421810CC07D3211F07B3259F42181EF
:1032200030ED320F3A3080F02E3221F422812053DB
:103230002A3050F04115510511F00C94BA2DAF0110
:10324000415051090C94BA2D9F01A62FB0E01401F2
:10325000250104C0220C331C441C551C6A95D2F76E
:10326000C228D328E428F5282115310511F0201BA8
:1032700001C020E0A85BBC4F2C9304C04115510550
:1032800009F4AD01208121542A3110F4DF017FCFF0
:103290009F01F901D9016D916623C1F370ED760F9D
:1032A0007A3010F49D01F5CF73ED760F7230D0F3C4
:1032B0006B32C1F3F9012F5F3F4F60816032D1F370
:1032C000E5CF11E01093760380917F038D3411F4E4
:1032D0000C942E22843511F40C94982D873411F01F
:1032E0000C94B32D2090740330907503B4E02B162A
:1032F000310409F4FAC564F437FE02C00C942A22A2
:1033000080913902F2E02F1631040CF0F6C02DC086
:103310002AE52216310411F40C9470213CF44CE19E
:103320002416310409F41FC60C942A225BE52516E5
:10333000310409F4D9C78CE52816310411F00C9436
:103340002A229DE3292E92E0392E2DE6E22E26E157
:10335000F22E83E79EE099A388A335E5C32E36E1DC
:10336000D32E00E010E00C94B321882311F40C94C8
:10337000B52D0E94C92F80911B02882321F08AE776
:1033800096E10E94807C8091FD1583FD7DC0C090F8
:103390008616D0908716E0908816F09089162091B6
:1033A0007F0E3091800E4091810E5091820EC701A8
:1033B000B6010E9448C5882309F466C08091361181
:1033C00081111FC0609137117091381180913911AE
:1033D00090913A110E945BCB209121023091220200
:1033E0006217730774F4C0927F0ED092800EE09241
:1033F000810EF092820E0E9455358CEA93E00E9475
:103400002F358090861690908716A0908816B090E1
:10341000891620917F0E3091800E4091810E50913F
:10342000820EC501B4010E94EEC96B017C0120E04F
:1034300030E0A9010E944FCC87FF04C0F7FAF09456
:10344000F7F8F09420911D0230911E0240911F0266
:1034500050912002C701B6010E94AEC520E030E0C5
:1034600048E453E40E944FCC181674F480927F0E07
:103470009092800EA092810EB092820E0E945535DD
:103480008DE893E00E942F356091350270913602ED
:10349000072E000C880B990B0E944FC52091230228
:1034A0003091240240912502509126020E94AEC51F
:1034B0002AE037ED43E25CE30E94AEC569837A837C
:1034C0008B839C83C12CD12C76018E010F5F1F4F03
:1034D00026E836E142E856E16EE776E18AE796E1D2
:1034E0000E94C67880E1EAE7F6E1A3E7BEE001903A
:1034F0000D928A95E1F70C94B52D882311F40C9464
:10350000B52D0E94C92F82E50E94BC2F882309F4A3
:1035100036C10E94402F6B017C014090730E509089
:10352000740E6090750E7090760E2091770E30912B
:10353000780E4091790E50917A0E28A339A34AA3B0
:103540005BA380917A1690917B16A0917C16B09126
:103550007D168CA39DA3AEA3BFA320917E163091B0
:103560007F16409180165091811628A739A74AA747
:103570005BA720E030E0A901C701B6010E9448C561
:10358000882309F4AAC42CA13DA14EA15FA1C301C7
:10359000B2010E9448C581110DC028A539A54AA5D0
:1035A0005BA568A179A18AA19BA10E9448C5882337
:1035B00009F493C411E032E02316310409F010E05D
:1035C00020E030E0A901C701B6010E9448C5881F6C
:1035D0008827881F181749F080E090E0A0E8BFEB2B
:1035E0008CAB9DABAEABBFAB08C020E030E040E899
:1035F0005FE32CAB3DAB4EAB5FABA30192016CA183
:103600007DA18EA19FA10E94EEC96CA77DA78EA768
:103610009FA728A139A14AA15BA168A579A58AA580
:103620009BA50E94EEC968AB79AB8AAB9BAB2CA57E
:103630003DA54EA55FA5CA01B9010E94AEC54B01CB
:103640005C0128A939A94AA95BA9CA01B9010E944C
:10365000AEC59B01AC01C501B4010E94EFC90E9437
:103660009DCC4B015C019B01AC0160E070E080E807
:103670009FE30E94E9CA68AF79AF8AAF9BAF20E0B1
:1036800030E040E05FE3C501B4010E94AEC54B01EC
:103690005C01A7019601C701B6010E94AEC56B018E
:1036A0007C01A5019401C501B4010E94AEC59B0136
:1036B000AC01C701B6010E94EEC90E949DCC2CA9A5
:1036C0003DA94EA95FA90E94AEC54B015C0168A946
:1036D00079A98AA99BA9905828AD39AD4AAD5BADAF
:1036E0000E94AEC5A50194010E94AEC56B017C018C
:1036F0002CA13DA14EA15FA1C301B2010E94EFC95F
:1037000020E030E040E05FE30E94AEC59B01AC01E9
:10371000C701B6010E94EFC9A30192010E94EEC940
:103720006B017C0128A539A54AA55BA568A179A1F3
:103730008AA19BA10E94EFC920E030E040E05FE356
:103740000E94AEC52B013C0128AD39AD4AAD5BAD41
:103750006CA57DA58EA59FA50E94AEC5A50194016F
:103760000E94AEC59B01AC01C301B2010E94EFC92A
:1037700028A139A14AA15BA10E94EEC914C089E425
:103780000E94BC2F882329F00E94402F6B017C01EE
:1037900003C0C12CD12C76018AE40E94BC2F88235F
:1037A000D9F00E94402F68A779A78AA79BA720E09D
:1037B00030E0A901C701B6010E9448C581111AC0B5
:1037C00020E030E0A90168A579A58AA59BA50E9403
:1037D00048C581110FC081C320E030E0A901C701B5
:1037E000B6010E9448C5882309F477C318A619A614
:1037F0001AA61BA6D701C601B05888A399A3AAA3ED
:10380000BBA328A539A54AA55BA550582CA33DA369
:103810004EA35FA39C01AD01BC01CD010E94AEC5CA
:103820004B015C012CA13DA14EA15FA1CA01B901D0
:103830000E94AEC59B01AC01C501B4010E94EFC955
:103840000E949DCC28966CAF7DAF8EAF9FAF28971E
:103850008091730E9091740EA091750EB091760EBA
:103860008CA79DA7AEA7BFA7A7019601BC01CD015C
:103870000E94EFC968AF79AF8AAF9BAF2091770EF6
:103880003091780E4091790E50917A0E2CAB3DAB71
:103890004EAB5FAB28A539A54AA55BA56CA97DA950
:1038A0008EA99FA90E94EFC92C966CAF7DAF8EAFF9
:1038B0009FAF2C9780917A1690917B16A0917C16E1
:1038C000B0917D168CAF9DAFAEAFBFAF28AD39AD17
:1038D0004AAD5BADBC01CD010E94EEC96B017C011C
:1038E00020917E1630917F1640918016509181165E
:1038F00024962CAF3DAF4EAF5FAF24972C962CADE6
:103900003DAD4EAD5FAD2C9724966CAD7DAD8EADCB
:103910009FAD24970E94EEC94B015C0180917B0E04
:1039200090917C0EA0917D0EB0917E0E60968CAF32
:103930009DAFAEAFBFAF60979C01AD0160918216A5
:103940007091831680918416909185160E94EEC91D
:1039500068AB79AB8AAB9BABA701960168A179A153
:103960008AA19BA10E94AEC52B013C01A501940137
:103970006CA17DA18EA19FA10E94AEC59B01AC014F
:10398000C301B2010E94EFC92B013C01A5019401C2
:1039900068A179A18AA19BA10E94AEC54B015C01DF
:1039A000A70196016CA17DA18EA19FA10E94AEC529
:1039B0009B01AC01C501B4010E94EEC9A3019201B3
:1039C0000E946ECA6B017C0120E030E0A9010E94D8
:1039D00048C587FF0AC02BED3FE049EC50E4C70122
:1039E000B6010E94EFC96B017C0192E029163104F7
:1039F00051F42BED3FE049EC50E4C701B6010E94C1
:103A0000EEC96B017C0120E030E0A901C701B601DD
:103A10000E9448C5811122C02CAD3DAD4EAD5FADB9
:103A20006CA57DA58EA59FA50E9448C5811116C0D5
:103A300024962CAD3DAD4EAD5FAD24976CA97DA90C
:103A40008EA99FA90E9448C5811108C0EBEDCE2E1A
:103A5000EFE0DE2EE9ECEE2EE0E4FE2EA70196016B
:103A600028966CAD7DAD8EAD9FAD28970E94AEC5FA
:103A70004B015C0120E030E0A90168A979A98AA97D
:103A80009BA90E9448C58823D9F0A5019401C501CE
:103A9000B4010E94AEC54B015C0128A939A94AA90D
:103AA0005BA9CA01B9010E94AEC59B01AC01C50169
:103AB000B4010E94EFC90E949DCC4B015C010DC076
:103AC00020E030E0A901C501B4010E944FCC87FF7E
:103AD00004C0B7FAB094B7F8B0942FE632E143E8E7
:103AE0005AE3C501B4010E9448C587FDEAC1C5017A
:103AF000B4010E9491CB0E9462CB7DAB6CABDB0129
:103B0000AB2B21F4E1E0F0E0FDABECAB40907F0E9D
:103B10005090800E6090810E7090820E2CA93DA96D
:103B2000B90180E090E00E944DC54B015C019B0112
:103B3000AC01C701B6010E94E9CA6CA77DA78EA798
:103B40009FA7A501940168A979A98AA99BA90E94A8
:103B5000E9CA28966CAF7DAF8EAF9FAF2897A301BF
:103B600092016091861670918716809188169091C7
:103B700089160E94EEC9A50194010E94E9CA6496C3
:103B80006CAF7DAF8EAF9FAF64972CA53DA54EA5C2
:103B90005FA5CA01B9010E94AEC520E030E040E057
:103BA0005FE30E94AEC59B01AC0160E070E080E87D
:103BB0009FE30E94EEC96CAF7DAF8EAF9FAF609662
:103BC0008CAD9DADAEADBFAD609789879A87AB8751
:103BD000BC874D865E866F86788A609135027091CB
:103BE0003602072E000C880B990B0E944FC52091BE
:103BF00023023091240240912502509126020E9416
:103C0000AEC52AE037ED43E25CE30E94AEC56C8F9F
:103C10007D8F8E8F9F8F0E94ED569B01AC012853A4
:103C20003F4F4F4F5F4F24962CAF3DAF4EAF5FAF2E
:103C3000249748A059A06AA07BA022242394312C69
:103C400039E138AB4CA95DA94215530509F411C1FE
:103C50000E9493AE0E94ED56DC01CB0124962CAD60
:103C60003DAD4EAD5FAD2497821B930BA40BB50BFE
:103C7000B7FD10C00E94ED569B01AC0128533F4F89
:103C80004F4F5F4F24962CAF3DAF4EAF5FAF2497A1
:103C90000E94F33538A9315038AB3323E9F12CA118
:103CA0003DA14EA15FA16CAD7DAD8EAD9FAD0E94DB
:103CB000AEC56B017C019201A3016CA57DA58EA50B
:103CC0009FA50E94AEC5A70196010E94EFC97B0186
:103CD0008C019201A3016CAD7DAD8EAD9FAD0E94B4
:103CE000AEC54B015C012CA13DA14EA15FA16CA50D
:103CF0007DA58EA59FA50E94AEC59B01AC01C50107
:103D0000B4010E94EEC92B013C01C701D8018CA36C
:103D10009DA3AEA3BFA34DC0B10180E090E00E947F
:103D20004DC52CA53DA54EA55FA50E94AEC54B0176
:103D30005C010E94E4CA6B017C01C501B4010E94D0
:103D40008FCC4B015C01A701960168A179A18AA1E2
:103D50009BA10E94AEC52B013C0128A539A54AA50F
:103D60005BA5C501B4010E94AEC5A30192010E94EA
:103D7000EFC92B013C01A501940168A179A18AA199
:103D80009BA10E94AEC54B015C0128A539A54AA59F
:103D90005BA5C701B6010E94AEC59B01AC01C50180
:103DA000B4010E94EEC96CA37DA38EA39FA349E139
:103DB00048AB9201A30168AD79AD8AAD9BAD0E947D
:103DC000EFC969837A838B839C832CA13DA14EA18B
:103DD0005FA12C966CAD7DAD8EAD9FAD2C970E94F2
:103DE000EFC96D837E838F83988728962CAD3DAD78
:103DF0004EAD5FAD289769857A858B859C850E943D
:103E0000EFC969877A878B879C8764962CAD3DAD17
:103E10004EAD5FAD64976D857E858F8598890E94D4
:103E2000EFC96D877E878F87988B80911B028823CF
:103E300021F0CE0101960E94807CC12CD12C60E83B
:103E4000E62E6FE3F62E8E01045E1F4F9E01235F68
:103E50003F4FAE01475F5F4FBE016B5F7F4FCE01AB
:103E600001960E94C678882321F05FEF251A350A53
:103E7000E9CE80E1EAE7F6E1DE01119601900D92CC
:103E80008A95E1F7C12CD12C50E8E52E5FE3F52EA1
:103E90008E01045E1F4F9E01235F3F4FAE01475FBF
:103EA0005F4FBE016B5F7F4FCE0101960E94C678C7
:103EB00080E1FE013196A3E7BEE001900D928A9564
:103EC000E1F70E94ED566093C1167093C21680937D
:103ED000C3169093C4160C94B52D0E94513587ECEF
:103EE00093E00E942F350C94B52D80E50E94BC2FE5
:103EF000882329F00E94FC2E6B017C0103C0C12C99
:103F0000D12C760183E50E94BC2F882361F00E94AA
:103F1000402F20E030E04AE754E40E94AEC50E9402
:103F200062CB6B017C010E94FE428091E610811100
:103F300005C060E08DED93E00E9458A40E94ED560C
:103F4000C60ED71EE81EF91E0E94ED56DC01CB01FD
:103F50008C199D09AE09BF09B7FD02C00C94B52D9F
:103F60000E94F335F1CF8FE40E94EA79882339F07B
:103F7000809179168770873011F40C94B52D0E94CA
:103F8000FE428091230290912402A0912502B091DB
:103F900026028093790390937A03A0937B03B093D6
:103FA0007C03809135029091360290937803809340
:103FB000770384E690E0909336028093350211E017
:103FC000109392040E94E17E88E50E94732F382EA0
:103FD00089E50E94732F882E8AE50E94732F282E70
:103FE000311005C0811005C0B82EB12605C0811062
:103FF00002C0B12C01C0B82E80E1E3E7FEE0AAE7E1
:10400000B6E101900D928A95E1F782E50E94BC2FFE
:10401000882369F00E94402F2B013C0120E030E012
:10402000A9010E9448C5882309F43FC006C0412C5D
:10403000512C40EA642E40E4742EB11005C03110BA
:1040400003C0882009F422C1409282165092831640
:104050006092841670928516A301920160917B0E86
:1040600070917C0E80917D0E90917E0E0E9448C5CD
:1040700087FF1BC019821A821B821C822091770E37
:104080003091780E4091790E50917A0E6091730EB6
:104090007091740E8091750E9091760EDE011196DE
:1040A0006D01830172010E94327DB1100DC031108B
:1040B00003C08110E6C0EAC0811006C080E00E9403
:1040C000B77FBB20B1F3DDC01092770E1092780E4F
:1040D0001092790E10927A0E1092730E1092740E46
:1040E0001092750E1092760E0E94237EE5E1FCE19F
:1040F000B491BCA7E9E0FCE1C590D590E590F490BF
:10410000EDE0FCE14590559065907490A30192011B
:10411000C701B6010E944FCC18162CF4A7019601D6
:10412000C301B20104C0A3019201C701B6010E94FC
:10413000E9CA68A779A78AA79BA7ECECFBE12591C0
:1041400035914591549128A339A34AA35BA3E8EC88
:10415000FBE185919591A591B4918CA39DA3AEA30C
:10416000BFA39C01AD0168A179A18AA19BA10E9476
:104170004FCC18162CF4ACA00DA11EA19FA004C01A
:10418000A8A009A11AA19BA028A539A54AA55BA5AD
:10419000CA01B9010E94AEC520E030E040E85FE30B
:1041A0000E94EFC90E949DCC2A2D302F412F592DFE
:1041B0000E94AEC569837A838B839C83E6E1FCE130
:1041C000149120917B0E30917C0E40917D0E509188
:1041D0007E0E28A339A34AA35BA320E030E040EC85
:1041E0005FE3C301B2010E94AEC52B013C01612F08
:1041F000110F770B880B990B0E944FC59B01AC01E7
:10420000C301B2010E94AEC52B013C0120E030E0A9
:1042100040EC5FE3C701B6010E94AEC56B017C01B3
:104220003CA5632F330F770B880B990B0E944FC56A
:104230009B01AC01C701B6010E94AEC5AE014F5F44
:104240005F4F6A01E8A0F9A00AA11BA1A301920196
:104250000E94327D0E94EC7E1092770E1092780EB2
:104260001092790E10927A0E1092730E1092740EB4
:104270001092750E1092760EB11020CF31101ECF15
:1042800018CF81E00E94B77FB11002C0222019F040
:1042900082E00E94B77F0E94237E809191048093E8
:1042A00092048091790390917A03A0917B03B0915D
:1042B0007C038093230290932402A0932502B09361
:1042C0002602809177039091780390933602809331
:1042D000350283E080931C020E9488800C94B52DE7
:1042E000109273030C94B52D109373030C94B52D99
:1042F0000E94402F2B013C01133049F0F601208130
:104300003181428153810E94EEC92B013C01A8A159
:10431000B9A12D913D914D915C91C301B2010E94D3
:10432000EEC94B015C012DEB37E346E855EB0E94EB
:104330004FCC87FD20C02DEB37E346E855E3C501A0
:10434000B4010E9448C51816B4F01F5FB4E0EB0E2C
:10435000F11CE8A1F9A13496F9A3E8A3F4E0CF0E8B
:10436000D11C143039F1D1018D911D010E94BC2F57
:10437000882359F3BDCF133051F440927F0E5092F1
:10438000800E6092810E7092820E01E0DECFA50158
:104390009401F70160817181828193810E94EFC94C
:1043A000D7016D937D938D939C931397812F0E94DA
:1043B000127DCBCF002309F449C020911E16309105
:1043C0001F16409120165091211660917F0E70911A
:1043D000800E8091810E9091820E0E94AEC50E9447
:1043E0005CCC6093DE187093DF188093E018909394
:1043F000E1189091BC188091BD18981719F00E948F
:10440000A04224C00E94FE4280916F00982F9270BB
:1044100081FF05C080916F008D7F80936F00409178
:10442000DE185091DF186091E0187091E118409308
:104430000A1750930B1760930C1770930D1799235D
:1044400029F080916F00826080936F000E948880C5
:104450000C94B52D0E94DA790C94B52D80917403DB
:10446000909175038037910509F414C50CF0D1C003
:104470008A32910509F459C40CF07FC08831910546
:1044800009F47AC20CF05DC08231910509F4ADC522
:10449000DCF497FF02C00C94952D823091050CF44A
:1044A000DAC1419711F00C94952D60E089EF93E00B
:1044B0000E9458A45F988A98809108018270809326
:1044C000060112980C94B52D8531910509F43AC274
:1044D00054F5449711F00C94952D81E194E00E94DD
:1044E0002F35109261048EE998E10E94DF5F8BE125
:1044F000EEE9F8E1DE01119601900D928A95E1F75F
:1045000040E050E0BE016F5F7F4F80E090E00E948E
:10451000A849CE0101960E94E45F82E094E00E94E7
:104520002F350C94B52D8631910509F40FC24797AC
:1045300011F00C94952D80917D0390917E03FC01E8
:1045400012C28C31910509F49CC23CF48A31910568
:1045500009F434C20CF418C23FC28E31910509F43B
:104560009AC214F40C94B52D8F31910509F433C31C
:10457000809709F4EEC20C94952D8C35910509F4C1
:104580007CC534F58135910509F414C58CF48C345F
:10459000910509F4E7C38D34910509F4F6C38B3412
:1045A000910511F00C94952D0E941FA40C94B52D2B
:1045B0008335910509F415C50CF410C584359105B2
:1045C00009F413C58535910509F43EC50C94952D64
:1045D0008B36910509F4DBC464F48936910509F43E
:1045E0007DC40CF0B3C48836910509F4D1C30C9492
:1045F000952D8D36910509F4EEC30CF446C48E3624
:10460000910509F4EBC38F36910509F4F8C30C94B6
:10461000952D8C3D910511F40C94FF2A0CF0ACC043
:104620008139910509F400C60CF083C085379105E6
:1046300009F4B4C50CF066C08237910509F4A9C528
:104640000CF42CC48337910511F00C94952D84EE55
:1046500095E00E942F3560E084ED95E00E94E4B47F
:1046600061E08DEC95E00E94E4B461E082EC95E0BD
:104670000E94E4B461E082EB95E00E94E4B460E063
:1046800089EA95E00E94E4B461E08FE995E00E9438
:10469000E4B460E085E995E00E94E4B460E08DE870
:1046A00095E00E94E4B460E08FE795E00E94E4B4F6
:1046B00060E081E795E00E94E4B460E082E695E086
:1046C0000E94E4B460E084E595E00E94E4B460E018
:1046D0008EE395E00E94E4B460E08DE295E00E94F4
:1046E000E4B460E088E195E00E94E4B461E085E034
:1046F00095E00E94E4B460E088EF94E00E94E4B4A6
:104700000C94B52D8737910509F483C50CF44EC57B
:104710008837910509F480C58937910511F00C940B
:10472000952D10929204109291040E94E17E0C94B7
:10473000B52D8B3C910509F429C674F4883C91058C
:1047400009F4B4C5893C910509F4FDC58B3991057F
:1047500011F00C94952DD4C38D3C910509F466C6D7
:104760000CF433C68E3C910509F470C6833D910567
:1047700009F48FC60C94952D8C3A21E0920711F420
:104780000C94762CACF58E3241E0940711F40C9425
:10479000312C7CF4823E910509F494C78D32A1E05E
:1047A0009A0709F4DAC78D3D910511F00C94952D07
:1047B00033C78336B1E09B0711F40C94812D4CF480
:1047C0008F32914011F00C94952D0E94148F0C940F
:1047D000B52D803921E0920711F40C94732C8A399D
:1047E000914011F00C94952D0E948E340C94B52DAF
:1047F000873F41E0940711F40C945D2D94F4853FBC
:10480000A1E09A0711F40C94572D14F00C945A2D32
:10481000843F914011F00C94952D0E94AC520C9461
:10482000B52D8C30F2E09F0711F40C94792D3CF4F7
:10483000883F914011F40C94682D0C94952D803A8A
:1048400043E0940709F4B8C1873E934011F40C94F7
:10485000882D0C94952DA0907D03B0907E0380E56B
:104860000E94BC2F882359F00E94FC2E6B017C0112
:1048700011E0672B682B692B31F410E004C010E0C5
:10488000C12CD12C760183E50E94BC2F882311F422
:104890000C94BE2D0E94402F20E030E04AE754E403
:1048A0000E94AEC50E9462CB6B017C0111110BC04E
:1048B000672B682B692B39F4A114B10421F0D501C1
:1048C0008C91811102C010E001C011E00E94FE42F3
:1048D000112329F061E0C5010E9492A405C060E0A7
:1048E00086EE93E00E9458A483E08093760381E0F3
:1048F0008093CA16C114D104E104F104B1F00E94FE
:10490000ED56C60ED71EE81EF91E0E94ED56DC01BC
:10491000CB018C199D09AE09BF09B7FF0DC080916D
:10492000CA1681110C94C32D07C08091CA16882322
:1049300019F00E94F335F9CF0E94B8A41092CA165C
:104940000C94B52D0E9430460C94B52D0E94B845AC
:104950008091141A877F8093141A0C94B52D2032FD
:1049600009F41082319620812111F9CF40E061E0F5
:104970000E94464B0C94B52D0E94C7450E941FA46F
:104980000E94B8A40C94B52D8091141A8B7F80934B
:10499000141A8091CF16813069F482E08093CF168B
:1049A0000E94ED566093CB167093CC168093CD1673
:1049B0009093CE160E94B8A40C94B52D8091141A31
:1049C00083FD02C00C94B52D83E50E94BC2F81119C
:1049D0000C94C72D0C94B52D83E40E94732F88236B
:1049E00019F18CE294E00E942F35809148188823B9
:1049F00091F0BE016F5F7F4F85E498E10E94A65E53
:104A00008E010F5F1F4FF80181918F01882339F0CC
:104A10000E942835F8CF82E294E00E942F358AE088
:104A20000E9428350C94B52D8091141A83FF23C061
:104A300082FF21C08BE394E00E942F356091101A11
:104A40007091111A8091121A9091131A4AE00E94E3
:104A5000E6388FE20E94283560910C1A70910D1A89
:104A600080910E1A90910F1A4AE00E94E6380E9437
:104A70003C3A0C94B52D8DE494E00E942F350C94B3
:104A8000B52D40E060E080917D0390917E030E940F
:104A9000464B0C94B52D8091141A83FD02C00C94E2
:104AA000B52D0E94C37960917D0370917E03809142
:104AB000141A83FD02C00C94B52DCE014C960E94B1
:104AC00028B68C01009711F40C94B52D6C8D7D8D5A
:104AD00019821C8222E0AC01CE0101960E9414646E
:104AE000811102C0F12C14C0CE0101960E9496B52E
:104AF0008823C1F361E0CE0101960E944E5E0097CB
:104B000089F325EEDC012C931C820E944D47F82E80
:104B1000CE0101960E94E45FB801FF2089F086E78C
:104B200094E00E943E358AE00E9428351092101AC7
:104B30001092111A1092121A1092131A0C94B52D89
:104B40008EE594E00E943E358EE20E9428350C945A
:104B5000B52D8091141A82FD0E94FE428091141A94
:104B600083FD02C00C94B52D80E50E94EA79182FD0
:104B7000482F61E080917D0390917E030E94464B17
:104B800083E50E94BC2F882381F00E940C2FAB018B
:104B9000BC014093101A5093111A6093121A70932B
:104BA000131A85E498E10E94645D0E94C7451111C3
:104BB000DCC70E941FA4D9C720917D0330917E03DA
:104BC0009091141A92609093141A40E060E0C90129
:104BD0000E94464BCAC70E94FE9F7B018C0120E8C1
:104BE00031E541E050E00E944FC9C9016DE671E036
:104BF0000E9497C94B015C01C801B70120E13EE06A
:104C000040E050E00E944FC9CA01B90128E130E0FC
:104C100040E050E00E944FC9762E672EC62ED72E58
:104C20008CE3282E312C412C512CC801B701A20154
:104C300091010E944FC9F62EE72ECA01B901A201C7
:104C400091010E944FC9CB018E010F5F1F4F81144C
:104C5000910499F0EF92FF927F936F936F927F92FE
:104C6000BF92AF929F928F928CEA94E09F938F9322
:104C70001F930F930E94E0C413C0A114B104B1F0BC
:104C8000EF92FF927F936F936F927F92BF92AF925A
:104C90008CE994E09F938F931F930F930E94E0C43D
:104CA0000FB6F894DEBF0FBECDBF30C0CD2879F06F
:104CB000EF92FF927F936F936F927F9280E994E0DF
:104CC0009F938F931F930F930E94E0C4E9CF892B8A
:104CD00069F0EF92FF927F936F9388E894E09F933F
:104CE0008F931F930F930E94E0C4DACFEF92FF924D
:104CF00084E894E09F938F931F930F930E94E0C4E6
:104D00000F900F900F900F900F900F9060E0C801E0
:104D10000E9492A40E945535B80180EC94E00E9454
:104D20003E358AE00E94283520C783E50E94BC2FCB
:104D3000882309F41AC70E941C2FF82E6DE070E03A
:104D400080E50E944D308C0197FD0FC7E82E89E465
:104D50000E94EA7981112CC7802F0E94D8B6811158
:104D6000CEC426C78091CF16813009F0FEC682E0FE
:104D70008093CF160E94ED566093CB167093CC169D
:104D80008093CD169093CE16F0C60E9443A4EDC634
:104D90008091FD1583FDE9C60E948D3987FDE5C62A
:104DA00083E50E94BC2F882399F00E94402F0E9427
:104DB0005BCB8B017093DE106093DD1080E00E946E
:104DC00058AC0635110524F40E9443A40E94B8A4EF
:104DD0000E942942CAC60E940393C7C68EE40E945D
:104DE000BC2F882309F4C1C60E940C2F6093D817EA
:104DF0007093D9178093DA179093DB17B6C683E5C3
:104E00000E94732F882359F083E50E94BC2F8823CA
:104E100019F00E941C2F01C080E08093FD150E94B4
:104E200055358BED94E00E942F358091FD15882338
:104E300049F101EDE02E04E0F02E00E010E020E06A
:104E40008091FD1590E0002E02C0959587950A94FB
:104E5000E2F780FF0EC0DD24D394D20E222319F096
:104E60008CE20E942835F701859194910E942F359C
:104E70002D2D0F5F1F4F92E0E90EF11C053011053B
:104E8000F9F6CDCD8DEC94E0C8CD1092CA161092F3
:104E900019026BC680E090E00E94593583E50E94BC
:104EA000BC2F882361F00E941C2F8093000290E0A9
:104EB000CD970CF45AC68CE38093000256C60E942C
:104EC00055354091000250E060E070E082EE94E0E1
:104ED0000E9453398AE00E94283547C60E948D39C6
:104EE000182F87FD0AC089EE94E00E942F35812F8C
:104EF0000E9405658AE00E9428351092760362C7F9
:104F000083E50E94BC2F882309F42FC60E941C2F22
:104F1000182F90E0CD970CF01CE3109366030E94CD
:104F2000ED566B017C01212F30E0A8EEB3E00E942A
:104F30007CC9C60ED71EE81EF91EC0926203D0922D
:104F40006303E0926403F09265030FC680E50E945C
:104F5000BC2F882321F00E941C2F182F01C010E0C5
:104F600083E50E94BC2F882309F43BC60E940C2FC6
:104F7000123008F0FAC5812F90E06F3F710510F0F4
:104F80006FEF70E0FC01EC5DFE4E6083EEC580E5E6
:104F90000E94BC2F882339F00E940C2F62307105CB
:104FA00008F0E3C502C060E070E0FB01EC5DFE4E7E
:104FB0001082DBC50E94A7AC0E9443A40E948644D5
:104FC0000E94E63468EE73E080E090E00E946A346C
:104FD00060E08CEE94E00E9458A4C7C510926A036A
:104FE000C4C581E080936A03C0C583E50E94BC2FDD
:104FF000882399F00E94402F20E030E04AE754E4F3
:105000000E94AEC50E9462CB6093010270930202BF
:105010008093030290930402A8C588E50E94732F31
:105020008111E4C589E50E94732F8111DFC58AE5EE
:105030000E94732F8111DAC585E40E94732F8111BC
:10504000D5C50E94864491C583E50E94732F8823AD
:1050500009F48BC50E94402F20E030E04AE754E479
:105060000E94AEC50E9462CB60936B0370936C0389
:1050700080936D0390936E0378C50E948D3987FDF0
:1050800074C5BDE3CB2EB2E0DB2E1EEFE12E15E1A1
:10509000F12E10E0D6018D916D010E94732F8823AF
:1050A00009F46DC0133009F063C00E94402F4B011A
:1050B0005C0120E030E040EA51E40E9448C587FFEF
:1050C0004EC0A501940160911E1670911F1680912B
:1050D0002016909121160E94E9CA2B013C019B01E8
:1050E000AC01609108117091091180910A119091A1
:1050F0000B110E94AEC56093081170930911809343
:105100000A1190930B11A301920160912E167091D8
:105110002F1680913016909131160E94AEC5609383
:105120002E1670932F16809330169093311660913F
:1051300018117091191180911A1190911B110E94F0
:105140004DC5A30192010E94AEC50E9462CB60933F
:1051500018117093191180931A1190931B1180925A
:105160001E1690921F16A0922016B092211607C00C
:105170000E94402FF701648B758B868B978B1F5F86
:10518000F4E0EF0EF11C143009F084CF0E94E343E9
:10519000ECC40E94FE420E948880E7C460E08091D7
:1051A0007D0390917E030E9492A4DFC400917D0351
:1051B00010917E0383E0F12C40E08150E9F0D801AA
:1051C0009C91292F2B7F2134C1F711962C912133EB
:1051D000A1F7913421F0953421F441E002C0FF247D
:1051E000F39498012E5F3F4F89012F5F3F4FF801E5
:1051F00090819032C9F3E1CF41110E945535FF20D3
:1052000021F085EB96E00E942F35C8010E94423ABA
:10521000ACC40E94BF7EA9C481E0809392048093B5
:1052200091040E94E17EA1C460E070E083E50E94E9
:105230004D308C011127023011053CF00E94513590
:1052400089EB96E00E942F3590C488E40E94BC2F21
:105250008823A9F00E940C2F6A3A71053CF0653052
:10526000F1E07F072CF064E071E002C06AEA70E0D0
:10527000F801EE0FFF1FEF5AF94E7183608386E449
:105280000E94BC2F882309F470C40E940C2F77FD64
:1052900007C06F3F710529F024F06FEF70E001C087
:1052A00060E0F801E55BF94E60835FC40E948D39D0
:1052B000182F87FD5AC484E40E94732F882309F4B1
:1052C0003FC00E94402F6B017C0101E020E030E0F4
:1052D000A9010E9448C5811101C000E000938A160F
:1052E00020E030E0A901C701B6010E9448C588232B
:1052F00039F10E94402F24E01202F0011124E157FD
:10530000F94E608371838283938320E030E0A901AA
:1053100060918F16709190168091911690919216CF
:105320000E9448C581110CC080E090E0A0E4B0E488
:1053300080938F1690939016A0939116B093921627
:105340000E94F77912C40E948D3987FD0EC4EDE3E7
:10535000EE2EE2E0FE2E0EEF15E1D7018D917D01DC
:105360000E94732F882349F00E94402F0E9462CB35
:10537000F80160837183828393830C5F1F4FF6E192
:105380000E301F0751F70E945942EFC30E948D391A
:1053900087FDEBC37DE3E72E72E0F72E0EEF15E1FC
:1053A000D7018D917D010E94732F882339F00E94CF
:1053B000402FF80164A375A386A397A30C5F1F4F2A
:1053C000F6E10E301F0761F7D0C38091700387FDAF
:1053D0003DC4809171038E7009F038C4409132163B
:1053E00050913316609134167091351681EE96E027
:1053F0000E942B3A4091361650913716609138161C
:10540000709139168EED96E00E942B3A40913A1633
:1054100050913B1660913C1670913D168BED96E0D5
:105420000E942B3A8AE00E9428359FC380916F0327
:10543000827109F051C4809171038C7809F04CC4D9
:1054400080917203837009F047C48FC35DE3C52E5A
:1054500052E0D52E64E9E62E64E0F62E10E0D60187
:105460008D916D010E94732F882351F00E94402F6F
:10547000F7016083718382839383812F0E94127D61
:105480001F5FF4E0EF0EF11C133011F40C94262290
:10549000E6CF0E94553588E197E00E942F3583E5DD
:1054A0000E94732F882321F00E94302F80931B02CB
:1054B00080911B02882319F085EF96E002C081EFEE
:1054C00096E00E942F3580E197E00E942F352091D1
:1054D00055163091561640915716509158166091B6
:1054E00061167091621680916316909164160E9405
:1054F000EFC9AB01BC018EE097E00E942B3A2091EE
:10550000591630915A1640915B1650915C16609175
:1055100065167091661680916716909168160E94C4
:10552000EFC9AB01BC018BE097E00E942B3A2091C0
:105530005D1630915E1640915F1650916016609135
:10554000691670916A1680916B1690916C160E9484
:10555000EFC9AB01BC0188E097E00E942B3A80E0E4
:1055600097E00E942F3520915516309156164091A4
:105570005716509158166091270270912802809119
:10558000290290912A020E94EFC9AB01BC018EEF63
:1055900096E00E942B3A2091591630915A1640916C
:1055A0005B1650915C1660912B0270912C028091D9
:1055B0002D0290912E020E94EFC9AB01BC018BEF2E
:1055C00096E00E942B3A20915D1630915E16409134
:1055D0005F165091601660912F0270913002809199
:1055E0003102909132020E94EFC9AB01BC0188EFF9
:1055F00096E00E942B3A8AE00E942835B6C283E5E5
:105600000E94BC2F882309F4B0C20E940C2F709313
:10561000360260933502A9C20E948D39F82E87FDAB
:10562000A4C283E50E94BC2F0F2D0F2C000C110B80
:10563000882369F10E940C2FF801EE0FFF1FED5C2B
:10564000FD4F71836083000F111F000F111F980120
:10565000235E3D4F7901072E000C880B990B0E94A9
:105660004FC52AE037ED43E25CE30E94AEC5F80186
:10567000E557F94E20813181428153810E94AEC5A8
:10568000D7016D937D938D939C9313976EC20E9467
:10569000553585E40E94283580E38F0D0E9428351A
:1056A000000F111FF801ED5CFD4F6081718188E2F0
:1056B00097E00E94803985E20E9428358AE00E94A6
:1056C000283553C280E50E94732F882309F44DC208
:1056D00060E070E080E50E944D30F82E6FEF7FEFC4
:1056E00083E50E944D308C010196039708F03DC27E
:1056F000F7FC3BC28F2D0E94D8B6882339F00E9458
:10570000513580E397E00E942F352FC20E94FE4260
:1057100060E08F2D0E94255C0F3FBFEF1B0731F02B
:105720000130110571F000E010E00DC08F2D0E94D6
:10573000925B31E020E0892B09F030E0032F122F3B
:1057400002C001E010E08F2D0E94925B801791074C
:1057500009F40BC20E94F335F6CF85E40E94BC2FFA
:10576000811110C080E50E94732F8823B1F00E9440
:10577000402F60930E1770930F178093101790931C
:1057800011170BC00E941C2F882361F30E94513512
:105790008FE397E00E942F35E8C189E40E94732FC0
:1057A000882381F00E94402F2CEA35EC47E25EE32B
:1057B0000E94AEC56093121770931317809314174D
:1057C0009093151784E40E94732F882381F00E9420
:1057D000402F2CEA35EC47E25EE30E94E9CA609371
:1057E00016177093171780931817909319170E9424
:1057F000553540910E1750910F1760911017709109
:10580000111789E597E00E942B3A2CEA35EC47E224
:105810005EE36091121770911317809114179091A5
:1058200015170E94E9CAAB01BC0185E597E00E940B
:105830002B3A2CEA35EC47E25EE360911617709143
:10584000171780911817909119170E94AEC5AB01D8
:10585000BC0181E597E00E942B3A8AE00E9428353E
:1058600084C183E50E94732F182F882371F00E9452
:10587000402F0E945BCB709322026093210221E0B3
:10588000672B09F020E02093361180E50E94732FEA
:10589000882359F02091210230912202232B11F00C
:1058A0000E94302F8093361160C111115EC10E9499
:1058B000553580913611882319F061E073E002C0FC
:1058C00064E073E082E797E00E943E356091210238
:1058D0007091220281E697E00E9480398DE597E081
:1058E0000E942F3542C10E94FE423FC1809179162D
:1058F000182F1270082F0470E82FE170FE2E80FF21
:1059000004C0112311F0011144C00E94553585EAED
:1059100097E00E942F35F11004C083EA97E00E94BF
:105920002F35111104C081EA97E00E942F35011133
:1059300004C08FE997E00E942F3587E997E00E9425
:105940002F35011103C048E053E002C04FE053E09F
:10595000111103C02AE033E002C02FE033E0F11060
:1059600003C08CE093E002C08FE093E05F934F931D
:105970003F932F939F938F9385E897E09F938F9307
:105980001F920E94AA790FB6F894DEBF0FBECDBF5A
:10599000ECC00CEB1BE143E75EE059A348A3CE014A
:1059A00001965C0195E1892E9CE1992E1501F80183
:1059B0006591759185919491A8A1B9A1CD90DD9043
:1059C000ED90FD90B9A3A8A3A70196010E94EEC98E
:1059D0002B013C01F101608371838283938320E07A
:1059E00030E040EA51EC0E944FCC87FD0AC020E035
:1059F00030E040EA51E4C301B2010E9448C51816E4
:105A00002CF4F401849118160CF4D1C1D101CD907D
:105A1000DD90ED90FD901D0120E030E040EA51EC7A
:105A2000C701B6010E944FCC87FD0AC020E030E0DC
:105A300040EA51E4C701B6010E9448C5181674F443
:105A40000E94513589EC97E00E942F3561E08BEB85
:105A500097E00E9458A40E94918587C00C5F1F4F59
:105A6000BFEF8B1A9B0AEBE1083C1E0709F09FCFA2
:105A700084E9E82E84E0F82E10E0F50181919191FF
:105A8000A191B1915F01F70181939193A193B1939A
:105A90007F01812F0E94127D1F5F133071F70E94DA
:105AA000888060E08BEA97E00E9458A45EC00E9464
:105AB0009E525BC00E94994C58C083E50E94732F90
:105AC000882319F00E94302F81270E9439814DC010
:105AD00081E0809364040E949C4D109264048823AA
