:100000000C9486120C94B7120C94B7120C94B7127D
:100010000C94B7120C94B7120C94B7120C94B7123C
:100020000C94B7120C94B7120C94B7120C94B7122C
:100030000C94B7120C94B7120C94B7120C94B7121C
:100040000C94B7120C943C3A0C94B7120C94B7125F
:100050000C94B7120C94B7120C9429AB0C94C84BA7
:100060000C94B7120C94BA390C94B7120C94B712C2
:100070000C94B7120C94B7120C94B7120C94B712DC
:100080000C94B7120C94B7120C94B7120C94B712CC
:100090000C94B7120C94B7120C94B7120C94B712BC
:1000A0000C94B7120C94B7120C94B7120C94B712AC
:1000B0000C94B7120C94B7120C94B7120C94B7129C
:1000C0000C94B7120C94B7120C94B7120C94B7128C
:1000D0000C94B7120C94B7120C94B7120C94B7127C
:1000E0000C94B712A786AA8699869D86A386E18678
:1000F000AE86B286B886BC86C086C686CA86CE86DE
:10010000E186D486D886DC86848A898A8E8A988A13
:10011000A28A1B8BAC8AB48ABC8AC68AD08ADA8A45
:10012000E98AF38A1B8BFD8A078B118B084AD73B20
:100130003BCE016E84BCBFFDC12F3D6C74319ABDB6
:1001400056833DDA3D00C77F11BED9E4BB4C3E91DA
:100150006BAAAABE000000803F05A84CCDB2D44EC9
:10016000B93836A9020C50B9918688083CA6AAAACB
:100170002ABE000000803F000C94E29E0C94078B86
:100180000C94B2860C944D9D0C9428740C94B886F3
:100190000C94A7860C94AE600C94CE860C94E79ECB
:1001A0000C94AA860C94E52A0C94059D0C94E1C449
:1001B0000C94CE9C0C94FE690C94EF9E0C948C5F76
:1001C0000C94119D0C947BA90C941B8B0C94C086F1
:1001D0000C94988A0C94A3860C9493940C94FBC171
:1001E0000C94554B0C94145D0C94BC860C94BCB9C7
:1001F0000C941D5F0C9473A90C94EC9E0C94CB93FF
:100200000C94D08A0C94C6860C94E1860C94875F7B
:100210000C94FD5C0C940B9D0C94915F0C94CA861D
:100220000C94825F0C94E98A0C94BC8A0C9413960B
:100230000C94A28A0C94848A0C9484680C949D86F5
:100240000C948F660C94E42A0C9410A40C94B6675A
:100250000C948E8A0C94F38A0C94DC860C9478A906
:100260000C94E25D0C94AC8A0C9474A60C94924CA1
:100270000C94FD8A0C9472A60C9499860C941466C6
:100280000C9475A90C9403930C94E65C0C94118B5C
:100290000C94C68A0C94898A0C947F4B0C943D4430
:1002A0000C94DD9E0C94DA8A0C9418A20C94886449
:1002B0000C9491460C94DE960C94AE860C94D486E5
:1002C0000C94B48A0C94D8860C9450654E414E49D7
:1002D0004E495459494E46CDCCCC3D0AD7233C1704
:1002E000B7D13877CC2B329595E6241FB14F0A0051
:1002F0000020410000C84200401C4620BCBE4CCA41
:100300001B0E5AAEC59D74434F4D4D554E4943414A
:1003100054494F4E0044525952554E004552524F87
:10032000525300494E464F004543484F0047322F35
:1003300047332062616420706172616D657465721B
:10034000730A00536C6565702E2E2E00436C696332
:100350006B20746F20726573756D652E2E2E004EA6
:100360006F206D6F76652E00456E642066696C6542
:10037000206C6973740A00426567696E2066696C57
:1003800065206C6973740A00286E6F2066696C655D
:1003900029005344207072696E74696E6720627917
:1003A000746520004E6F74205344207072696E741F
:1003B000696E670A0043757272656E742066696CB7
:1003C000653A200046696C652064656C65746564F7
:1003D0003A0044656C6574696F6E206661696C658E
:1003E000642C2046696C653A2000256973002569F4
:1003F0006D20256973002569682025696D202569B0
:100400007300256964202569682025696D202569A8
:10041000730025697920256964202569682025698C
:100420006D20256973005072696E742074696D6562
:100430003A2000280323031C03150307036F666695
:100440000044454255473A004B494C4C45442E2008
:10045000004D3131332053006F6B0020573A004577
:1004600020436F6F6C696E672E2E2E004520486505
:100470006174696E672E2E2E005665727465782041
:100480004F66662E002C20002C2000544845524D0B
:10049000414C5F50524F54454354494F4E004155D3
:1004A000544F5245504F52545F53445F535441543C
:1004B000555300454D455247454E43595F504152B3
:1004C00053455200434153455F4C494748545F42AE
:1004D00052494748544E45535300544F47474C45A3
:1004E0005F4C494748545300534F46545741524577
:1004F0005F504F574552004255494C445F5045525A
:1005000043454E54004C4556454C494E475F444187
:100510005441005A5F50524F4245004155544F4C90
:100520004556454C005052494E545F4A4F42005088
:10053000524F4752455353004155544F5245504F27
:1005400052545F54454D5000564F4C554D455452F2
:10055000494300454550524F4D0053455249414C87
:100560005F584F4E5F584F4646004649524D5741DF
:1005700052455F4E414D453A4D61726C696E203176
:100580002E312E3920284769746875622920534F0F
:10059000555243455F434F44455F55524C3A68744A
:1005A0007470733A2F2F6769746875622E636F6D6C
:1005B0002F6269726B6574742F5665727465782D3D
:1005C0004B383430302D4669726D7761726520503A
:1005D000524F544F434F4C5F56455253494F4E3A3A
:1005E000312E30204D414348494E455F54595045C6
:1005F0003A566572746578204558545255444552B0
:100600005F434F554E543A3120555549443A63653E
:100610006465326132662D343161322D34373438BD
:100620002D396231322D63353563363266333637D4
:1006300066660A002F2F20004D31343520533C6967
:100640006E6465783E206F7574206F662072616EEF
:1006500067652028302D31290A00205400205200DF
:10066000416363656C65726174696F6E3A20500016
:10067000205A00205900580020204D61783A20006F
:10068000205A00205900580020204D696E3A200061
:100690004F6E20004F666600536F667420656E646F
:1006A00073746F70733A200020466C6F773A2000A5
:1006B000000136372603FFFFFF353C3D380EFFFFB4
:1006C000FF312E303F12FFFFFFFF28FFFF09080C0C
:1006D000FF021A1C18FFFF2A09440AFF4320643A4C
:1006E0000020693A0020703A00496E76616C6964B6
:1006F0002065787472756465720A0043290A006186
:10070000626C656420286D696E2074656D702000D0
:10071000436F6C64206578747275646573206172D0
:100720006520004E6F2063617365206C6967687493
:100730000A00454550524F4D204F4B0A004163740B
:100740006976652045787472756465723A2000494F
:100750006E76616C69642065787472756465720A7E
:10076000004B494C4C45442E200053544F505045AB
:10077000442E20005072696E7465722073746F701D
:100780007065642064756520746F206572726F7285
:10079000732E2046697820746865206572726F72C6
:1007A00020616E6420757365204D39393920746F6E
:1007B00020726573746172742E202854656D7065A3
:1007C0007261747572652069732072657365742E29
:1007D00020536574206974206166746572207265A7
:1007E0007374617274696E67290A004E6F204368E2
:1007F00065636B73756D2077697468206C696E65CD
:10080000206E756D6265722C204C617374204C698A
:100810006E653A20004E6F20436865636B73756D9B
:100820002077697468206C696E65206E756D6265ED
:10083000722C204C617374204C696E653A20006301
:100840006865636B73756D206D69736D6174636842
:100850002C204C617374204C696E653A20004C6901
:100860006E65204E756D626572206973206E6F74BF
:10087000204C617374204C696E65204E756D626505
:10088000722B312C204C617374204C696E653A20B8
:10089000004D313130004D333100534420726561D9
:1008A00064206572726F720A00446F6E6520707208
:1008B000696E74696E672066696C650A0020496E0E
:1008C00076616C6964206578747275646572200065
:1008D000000000000000000000000000000048438D
:1008E0000000344300003E4350726F7465637465CA
:1008F000642050696E0A00205A3A0020593A0020BC
:10090000436F756E7420583A0020453A00205A3AD9
:100910000020593A00583A003A004361703A0023E7
:10092000646566696E652044454641554C545F4B8D
:1009300064200023646566696E6520444546415520
:100940004C545F4B69200023646566696E652044E2
:10095000454641554C545F4B70200050494420415E
:1009600075746F74756E652066696E697368656409
:10097000212050757420746865206C617374204B5D
:10098000702C204B6920616E64204B6420636F6E75
:100990007374616E74732066726F6D2062656C6F24
:1009A0007720696E746F20436F6E66696775726138
:1009B00074696F6E2E680A00504944204175746F47
:1009C00074756E65206661696C6564212074696D5B
:1009D000656F75740A00453120544845524D414CAD
:1009E0002052554E4157415900546865726D616CF3
:1009F0002052756E617761790045312048656174D8
:100A0000696E67206661696C656400486561746938
:100A10006E67206661696C656400504944204175C9
:100A2000746F74756E65206661696C65642120540D
:100A3000656D706572617475726520746F6F206882
:100A40006967680A00204B643A2000204B693A200D
:100A500000204B703A20000A20436C617373696375
:100A600020504944200A002054753A2000204B753C
:100A70003A2000206D61783A2000206D696E3A209E
:100A80000020643A200020626961733A20005049D6
:100A900044204175746F74756E65206661696C657C
:100AA00064212042616420657874727564657220E7
:100AB0006E756D6265720A00504944204175746F0D
:100AC00074756E652073746172740A00486F6D6589
:100AD0002025732573257320666972737400206660
:100AE000697273740A005A0059005800486F6D65A6
:100AF00020004F666673657473206170706C696561
:100B000064004572723A20546F6F20666172210052
:100B1000546F6F206661722066726F6D2072656619
:100B20006572656E636520706F696E740A0024F4E7
:100B3000D43050C38E20C2A24017828B7011127A1B
:100B4000910D816CD90AA861E108C7586607615107
:100B500043061E4B5D05C145A7041A411104093D1A
:100B60009803713931034036DB0265339102D4308A
:100B70005402802E1D02632CEE01752AC501B02897
:100B8000A001102781018F2564012B244B01E02255
:100B90003401AC211F018D200D01801FFC00841E3B
:100BA000ED00971DDF00B81CD200E61BC600201B1D
:100BB000BC00641AB200B219A8000A19A0006A1891
:100BC0009900D117910040178B00B516840031169B
:100BD0007E00B31579003A157300C7146F005814DE
:100BE0006A00EE1366008813630025135E00C712C7
:100BF0005B006C12570015125400C11151007011A6
:100C00004F0021114B00D61049008D1047004610AF
:100C1000440002104200C00F4000800F3E00420F0F
:100C20003C00060F3B00CB0E3800930E37005C0EE5
:100C30003500270E3400F30D3200C10D3100900D48
:100C40003000600D2E00320D2D00050D2C00D90C4A
:100C50002B00AE0C2900850C29005C0C2700350CFC
:100C600027000E0C2600E80B2400C40B2400A00B68
:100C700023007D0B23005A0B2100390B2100180B98
:100C80002000F80A1F00D90A1E00BB0A1E009D0A98
:100C90001D00800A1D00630A1C00470A1B002C0A65
:100CA0001B00110A1A00F7091A00DD091900C4090E
:100CB0001900AB091900920917007B091800630994
:100CC00017004C09160036091600200916000A09FB
:100CD0001500F5081500E0081400CC081400B80849
:100CE0001400A4081400900813007D0812006B087B
:100CF0001300580812004608120034081100230897
:100D000011001208110001081100F0071000E0079F
:100D10001000D0071000C0071000B0070F00A10797
:100D2000100091070E0083070F0074070F0065077E
:100D30000E0057070E0049070E003B070D002E0757
:100D40000E0020070D0013070D0006070D00F90621
:100D50000C00ED060D00E0060C00D4060C00C806E1
:100D60000C00BC060C00B0060C00A4060B00990693
:100D70000C008D060B0082060B0077060B006C063C
:100D80000B0061060A0057060B004C060A004206DB
:100D90000A0038060A002E060A0024060A001A066F
:100DA0000A001006090007060A00FD050900F405FF
:100DB0000900EB050900E2050900D9050900D00585
:100DC0000900C7050900BE050900B5050800AD0505
:100DD0000800A50509009C050800940508008C057D
:100DE0000800840508007C050800740508006C05EF
:100DF0000700650508005D050700560508004E055B
:100E000007004705070040050800380507003105C1
:100E100007002A050700230507001C050600160524
:100E200007000F0507000805060002050700FB0480
:100E30000600F5040700EE040600E8040600E204DC
:100E40000700DB040600D5040600CF040600C90431
:100E50000600C3040600BD040600B7040600B10482
:100E60000500AC040600A6040600A00405009B04CF
:100E7000060095040500900406008A040500850418
:100E80000500800406007A0405007504050070045E
:100E900005006B04050066040500610405005C04A0
:100EA000050057040500520405004D0405004804E0
:100EB0000500430405003E0404003A04050035041F
:100EC0000500300404002C0405002704040023045A
:100ED00005001E0404001A04040016040500110491
:100EE00004000D04040009040500040404000004C7
:100EF0000400FC030400F8030400F4030400F003FE
:100F00000400EC030400E8030400E4030400E0032D
:100F10000400DC030400D8030400D4030400D0035D
:100F20000400CC030400C8030300C503030024F439
:100F300004D9201BC40C5C0E9804C4095F02650729
:100F40007101F405F900FB04B30048048700C103F4
:100F500069005803550003034500BE023A008402AD
:100F6000310053022A002902250004022000E40176
:100F70001C00C8011900AF0117009801140084017A
:100F80001300710110006101100051010E004301B6
:100F90000D0036010B002B010B0020010B00150189
:100FA00009000C01090003010800FB000800F30020
:100FB0000800EB000700E4000600DE000600D80091
:100FC0000600D2000600CC000500C7000500C200E4
:100FD0000500BD000400B9000400B5000400B10024
:100FE0000400AD000400A9000400A5000300A20055
:100FF00003009F0004009B0003009800030095007D
:10100000020093000300900003008D0002008B009B
:1010100003008800020086000200840003008100B3
:1010200002007F0002007D0002007B0002007900C8
:1010300002007700010076000200740002007200D6
:101040000100710002006F0002006D0001006C00E1
:1010500002006A00010069000200670001006600EA
:1010600001006500010064000200620001006100EF
:101070000100600001005F0002005D0001005C00F3
:1010800001005B0001005A000100590001005800F6
:1010900001005700010056000100550001005400F6
:1010A00001005300000053000100520001005100F4
:1010B0000100500001004F0001004E0000004E00F2
:1010C00001004D0001004C0001004B0000004B00EE
:1010D00001004A00010049000100480000004800EA
:1010E00001004700010046000000460001004500E5
:1010F00000004500010044000100430000004300DF
:1011000001004200000042000100410000004100D7
:101110000100400001003F0000003F0001003E00D0
:1011200000003E0001003D0000003D0001003C00C9
:1011300000003C0000003C0001003B0000003B00C0
:1011400001003A0000003A000100390000003900B7
:1011500001003800000038000000380001003700AE
:1011600000003700010036000000360000003600A5
:10117000010035000000350000003500010034009A
:101180000000340000003400010033000000330090
:101190000000330001003200000032000000320085
:1011A000010031000000310000003100010030007A
:1011B000000030000000300001002F0000002F0070
:1011C00000002F0000002F0001002E0000002E0064
:1011D00000002E0001002D0000002D0000002D0059
:1011E00000002D0001002C0000002C0000002C004D
:1011F00000002C0001002B0000002B0000002B0041
:1012000000002B0001002A0000002A0000002A0034
:1012100000002A0001002900000029000000290028
:10122000000029000000290001002800000028001B
:10123000000028000000280000002800010027000E
:101240000000270000002700000027000000270002
:1012500001002600000026000000260000002600F5
:1012600000002600010025000000250000002500E8
:1012700000002500000025000000250001002400DA
:1012800000002400000024000000240000002400CE
:1012900001002300000023000000230000002300C1
:1012A00000002300000023000000230001002200B2
:1012B00000002200000022000000220000002200A6
:1012C0000000220001002100000021000000210098
:1012D000000021000000210000002100000021008A
:1012E000010020000000200000002000000020007D
:1012F000000020000000200000002000000020006E
:1013000001001F0000001F0000001F0000001F0060
:1013100000001F0000001F0000001F0001001E0051
:1013200000001E0000001E0000001E000000043728
:1013300000001E290000511B000058100000100979
:101340000000CC0400007802000041010000100001
:10135000C90210012C014001220170011801B001E5
:101360000E01F00104015002FA00B002F000300357
:10137000E600D003DC009004D2007005C800A0068F
:10138000BE000008B400B009AA00D00BA000600E97
:10139000960060118C000015820020197800C01D95
:1013A0006E00A0226400B0275A00902C500000313B
:1013B0004600E0343C0010383200903A2800603C8F
:1013C0001E00A03D1400803E0A00203F0000202F98
:1013D0000020403A0025753A25303275002530321C
:1013E000753A25303275002D2D2D005344002020F4
:1013F000202020200020202020005665727465786F
:101400002052656164792E005072696E74696E674E
:101410002E2E2E005072696E742070617573656493
:10142000005072696E742061626F72746564004D61
:101430003231004E6F205344206361726400436870
:10144000616E67652053442063617264004D3231E0
:10145000005072696E742066726F6D2053440053A1
:10146000746F70207072696E7400526573756D656B
:10147000207072696E7400496E69742E2053442086
:1014800063617264005061757365207072696E7477
:1014900000436F6E74726F6C00507265706172659C
:1014A0000054756E6500496E666F207363726565E2
:1014B0006E0000000000010204040000001C1C0C6F
:1014C00004040402010000000000040810000000F1
:1014D00000002D2D2D2D2D2D007C4D61726C696E1F
:1014E0007C002D2D2D2D2D2D00687474703A2F2F1A
:1014F0006D61726C696E66772E6F726700687474C6
:10150000703A2F2F6D61726C696E66772E6F7267FD
:101510000020312E312E39002020506C616E6E6516
:101520007242756666657242797465733A2000206E
:1015300046726565204D656D6F72793A2000436F84
:101540006D70696C65643A204465632031362032E1
:101550003031380A00207C20417574686F723A205F
:1015600028416E74686F6E79204269726B6574747D
:101570002C2064656661756C7420636F6E666967A4
:10158000290A00323031382D30382D303100204CCE
:1015900061737420557064617465643A2000312E63
:1015A000312E390A004D61726C696E0020536F66EE
:1015B00074776172652052657365740A0020576103
:1015C000746368646F672052657365740A00204213
:1015D000726F776E206F75742052657365740A00A0
:1015E0002045787465726E616C2052657365740A6B
:1015F00000506F77657255700A0073746172740AD7
:10160000006175746F25692E67006572726F7220B4
:1016100077726974696E6720746F2066696C650AF9
:1016200000456E6473746F707320256320256320FA
:10163000256320256300205A3A0020593A0020589B
:101640003A00656E6473746F7073206869743A2031
:1016500000446F6E6520736176696E672066696C01
:10166000652E0A004D32390020746F6F206C6F6E4A
:101670006720657874727573696F6E207072657615
:10168000656E7465640A0020636F6C64206578740D
:10169000727573696F6E2070726576656E746564BD
:1016A0000A004578747275646572004D6F76652026
:1016B0005A004D6F76652059004D6F7665205800B1
:1016C0005072657061726500496E697469616C6918
:1016D0007A6520454550524F4D00436F6E74726FCE
:1016E0006C00526573746F7265206661696C73611A
:1016F0006665004C6F61642073657474696E67730E
:1017000000496E697469616C697A6520454550527B
:101710004F4D0053746F72652073657474696E6702
:10172000730046696C616D656E74004D6F74696F0E
:101730006E0054656D7065726174757265004D61FF
:10174000696E005072656865617420414253206380
:101750006F6E66005072656865617420504C412060
:10176000636F6E66005049442D44005049442D4437
:10177000005049442D49005049442D4900504944E6
:101780002D50005049442D500020022046616374C2
:101790000020022046616374002002204D61780021
:1017A0002002204D6178002002204D617800200247
:1017B000204D696E002002204D696E002002204DF0
:1017C000696E004F6666004F6E20004175746F743D
:1017D000656D700046616E2073706565642032002F
:1017E00046616E20737065656420320046616E202C
:1017F000737065656420320046616E2073706565A4
:101800006420310046616E2073706565642031008C
:1018100046616E2073706565642031004E6F7A7A80
:101820006C65004E6F7A7A6C65004E6F7A7A6C65E3
:1018300000436F6E74726F6C0053746F7265207327
:10184000657474696E6773004E6F7A7A6C65004ECA
:101850006F7A7A6C65004E6F7A7A6C650046616EBD
:101860002073706565640046616E20737065656401
:101870000046616E2073706565640054656D706527
:10188000726174757265004573746570732F6D6D48
:10189000004573746570732F6D6D005A73746570B5
:1018A000732F6D6D005A73746570732F6D6D0059D1
:1018B00073746570732F6D6D005973746570732F39
:1018C0006D6D005873746570732F6D6D005873746F
:1018D0006570732F6D6D004D6F74696F6E0053747A
:1018E0006570732F6D6D004A65726B0041636365AF
:1018F0006C65726174696F6E0056656C6F636974B4
:101900007900436F6E74726F6C0046696C2E2044D0
:1019100069612E0046696C2E204469612E004F6675
:1019200066004F6E20004520696E206D6D330043C8
:101930006F6E74726F6C0043616E6E6F7420656EB3
:10194000746572207375626469723A2000052E2EE8
:10195000000452656672657368004D61696E0052DD
:101960006573656E643A20006F6B0020746F6F20A2
:101970006C6F6E6720657874727573696F6E207016
:10198000726576656E7465640A0020636F6C64200E
:10199000657874727573696F6E2070726576656EA6
:1019A0007465640A00627573793A207061757365B5
:1019B0006420666F7220696E7075740A00627573B8
:1019C000793A2070617573656420666F7220757353
:1019D00065720A00627573793A2070726F6365737D
:1019E00073696E670A004B494C4C45442E20004BEE
:1019F000494C4C2063617573656420627920746F73
:101A00006F206D75636820696E6163746976652007
:101A100074696D65202D2063757272656E74206324
:101A20006F6D6D616E643A2000506C656173652066
:101A30007265736574005052494E544552204841B6
:101A40004C544544005072696E7465722068616C34
:101A50007465642E206B696C6C28292063616C6C42
:101A60006564210A00656E7175657565696E67202C
:101A70002200000000000000000000000000000044
:101A80004842000048420000004100000000576149
:101A9000726E696E673A20486F6D696E6720427595
:101AA0006D702044697669736F72203C20310A00A2
:101AB00002020400002041000020410000404000DC
:101AC0000048430000344300003E43FFFFFF4861ED
:101AD0007264636F6465642044656661756C74202C
:101AE00053657474696E6773204C6F616465640A32
:101AF00000282300002823000064000000102700B5
:101B00000000002043000020430000204100401C52
:101B10004671BD064371BD06434855854533B31430
:101B20004320286D6D290020440020490020204DCD
:101B30003330312050005049442073657474696E0D
:101B400067733A0A00204600204200204800202007
:101B50004D3134352053004D6174657269616C20DC
:101B600068656174757020706172616D657465720D
:101B7000733A0A00205A0020590020204D32303696
:101B8000205800486F6D65206F66667365743A0A69
:101B900000204500205A0020590020580020540001
:101BA00020530020204D32303520510020453C6D1F
:101BB00061785F655F6A65726B3E0020583C6D61BD
:101BC000785F785F6A65726B3E20593C6D61785F23
:101BD000795F6A65726B3E205A3C6D61785F7A5F0F
:101BE0006A65726B3E00416476616E6365643A209B
:101BF000513C6D696E5F7365676D656E745F746986
:101C00006D655F75733E20533C6D696E5F666565FB
:101C100064726174653E20543C6D696E5F747261DC
:101C200076656C5F66656564726174653E0020541C
:101C30000020520020204D32303420500041636398
:101C4000656C65726174696F6E2028756E69747356
:101C50002F7332293A20503C7072696E745F616351
:101C600063656C3E20523C726574726163745F619F
:101C70006363656C3E20543C74726176656C5F6191
:101C80006363656C3E0A00204500205A002059001D
:101C900020204D3230312058004D6178696D756DCE
:101CA00020416363656C65726174696F6E2028758D
:101CB0006E6974732F7332293A0A00204500205A46
:101CC0000020590020204D3230332058004D6178DB
:101CD000696D756D20666565647261746573202831
:101CE000756E6974732F73293A0A00204500205AD3
:101CF0000020590020204D3932205800537465705F
:101D0000732070657220756E69743A0A0020204D48
:101D10003230302044300A0020204D323030204410
:101D2000002044697361626C65640A0046696C61F5
:101D30006D656E742073657474696E67733A002004
:101D4000204D3134392043203B20556E6974732077
:101D5000696E2043656C736975730A0020204732F1
:101D600031202020203B00486F6D696E672066613E
:101D7000696C656400545249474745524544006FB9
:101D800070656E003A20007A5F6D696E00795F6D54
:101D9000696E00785F6D696E005265706F7274696C
:101DA0006E6720656E6473746F70207374617475F0
:101DB000730A00454550524F4D2064617461736948
:101DC0007A65206572726F722E0A00290A002062FD
:101DD000797465733B206372632000536574746982
:101DE0006E67732053746F726564202800290A009F
:101DF0002062797465733B206372632000207374E2
:101E00006F7265642073657474696E6773207265A0
:101E100074726965766564202800202863616C63AC
:101E2000756C6174656429210A0020213D200045FC
:101E30004550524F4D20435243206D69736D61747C
:101E40006368202D202873746F7265642920002038
:101E500053697A653A2000496E6465783A2000201B
:101E60004D61726C696E3D563535290A002845452D
:101E700050524F4D3D00454550524F4D20766572B2
:101E800073696F6E206D69736D6174636820000003
:101E9000002100240027002A002D0030003300011B
:101EA000010000040107010A0100002200250028AA
:101EB000002B002E00310034000201000005010853
:101EC000010B01000020002300260029002C002F18
:101ED00000320000010000030106010901050505AB
:101EE00005070508080808020202020A0A08080491
:101EF00004040401010101010101010303030303BF
:101F0000030303040707070C0C0C0C0C0C0C0C024D
:101F100002020206060606060606060B0B0B0B0B54
:101F20000B0B0B010210202008081020401020404D
:101F3000800201020108040201010204081020408D
:101F400080804020100804020180040201804020AB
:101F500010080402010804020101020408102040D4
:101F600080010204081020408000000A0B02090CC6
:101F70000D0E08070304010000000000000000002F
:101F80000000000000000000000000000000000051
:101F9000000000000012111000000000000000000E
:101FA0000000000000000000000000000000004DE4
:101FB0003234004D323320257300556E6B6E6F77CF
:101FC0006E20636F6D6D616E643A20220053442071
:101FD00063617264206F6B0A006F70656E526F6F81
:101FE00074206661696C65640A00766F6C756D6556
:101FF0002E696E6974206661696C65640A005344D9
:1020000020696E6974206661696C0A007C3C3E5EE2
:102010002B3D3F2F5B5D3B2C2A225C00466C6F778B
:1020200000466C6F7700466C6F770046616E2073D8
:102030007065656420320046616E2073706565646A
:1020400020320046616E2073706565642032004660
:10205000616E20737065656420310046616E207387
:102060007065656420310046616E2073706565643B
:102070002031004E6F7A7A6C65004E6F7A7A6C650B
:10208000004E6F7A7A6C650053706565640053701A
:10209000656564005370656564004D61696E004D4F
:1020A000343238005072656865617420504C4100CC
:1020B000436F6F6C646F776E005072656865617412
:1020C000204142530044697361626C6520737465FA
:1020D0007070657273004D38340053657420686FFA
:1020E0006D65206F666673657473004175746F204B
:1020F000686F6D6500473238004D6F7665206178F6
:102100006973004D61696E004D6F76652058004D12
:102110006F76652059004D6F7665205A00457874BA
:102120007275646572004D6F766520302E316D6D6D
:10213000004D6F766520316D6D004D6F76652031F5
:10214000306D6D004D6F766520617869730045785C
:10215000747275646572004D6F7665205A004D6F1C
:1021600076652059004D6F7665205800565472618F
:1021700076206D696E005654726176206D696E002E
:102180005654726176206D696E00566D696E005608
:102190006D696E00566D696E00566D617820450060
:1021A000566D6178204500566D6178204500566D6A
:1021B0006178205A00566D6178205A00566D61781A
:1021C000205A00566D6178205900566D617820596B
:1021D00000566D6178205900566D61782058005680
:1021E0006D6178205800566D61782058004D6F74ED
:1021F000696F6E00416D6178204500416D61782006
:102200004500416D6178205A00416D6178205A0087
:10221000416D6178205900416D6178205900416D10
:102220006178205800416D6178205800412D74720A
:102230006176656C00412D74726176656C00412D8C
:102240007265747261637400412D726574726163AA
:102250007400416363656C00416363656C004D6F9E
:1022600074696F6E0056652D6A65726B0056652D38
:102270006A65726B0056652D6A65726B00567A2D21
:102280006A65726B00567A2D6A65726B0056792DFD
:102290006A65726B0056792D6A65726B0056792DEE
:1022A0006A65726B0056782D6A65726B0056782DE0
:1022B0006A65726B0056782D6A65726B004D6F749B
:1022C000696F6E006265640A002C2073797374650F
:1022D0006D2073746F70706564212048656174654A
:1022E000725F49443A2000453120544845524D41DF
:1022F0004C2052554E4157415900546865726D61EA
:102300006C2052756E6177617900453120486561B6
:1023100074696E67206661696C6564004865617404
:10232000696E67206661696C65640045312045729D
:10233000723A204D415854454D50004D4158544536
:102340004D5020747269676765726564004531207D
:102350004572723A204D494E54454D50004D494EFC
:1023600054454D5020747269676765726564004D0D
:10237000383420582059205A204500001C1F1111C4
:102380001F00000006191803130C00040E1F041C84
:10239000000000000E1315110E00001C1018170588
:1023A000060500040A0A0A0A11110E0C12120C008A
:1023B000000000001F1511151F00006F70656E20D2
:1023C0006661696C65642C2046696C653A2000433F
:1023D000616E6E6F74206F70656E207375626469D4
:1023E0007220006563686F3A004572726F722077E1
:1023F000726974696E6720746F20454550524F4D65
:10240000210A0057726974696E6720746F206669CB
:102410006C653A20006F70656E206661696C65645A
:102420002C2046696C653A20006F70656E206661ED
:10243000696C65642C2046696C653A200046696CBD
:10244000652073656C65637465640A002053697A5E
:10245000653A200046696C65206F70656E65643A68
:1024600020002066696C653A2000646F696E670021
:102470006672657368004E6F772000454E442053A6
:102480005542524F5554494E450A002220706F73F1
:10249000002220706172656E743A220053554252D8
:1024A0004F5554494E452043414C4C20746172674E
:1024B00065743A22004B494C4C45442E20007472FE
:1024C00079696E6720746F2063616C6C207375622C
:1024D0002D67636F64652066696C65732077697426
:1024E0006820746F6F206D616E79206C6576656C05
:1024F000732E204D4158206C6576656C2069733AC7
:10250000004572726F723A00E1C4FBC111241FBE14
:10251000CFEFD1E2DEBFCDBF00E00CBF13E0A0E003
:10252000B2E0E8E4F4EA01E00BBF02C007900D92CC
:10253000A232B107D9F72AE1A2E2B3E001C01D92AD
:10254000A436B207E1F712E1C5E8D2E100E006C027
:1025500021970109802FFE010E9470CEC438D10757
:1025600080E00807A9F70E9412BD0C9412D20C94C7
:1025700000002F923F924F925F926F927F928F92C4
:102580009F92AF92BF92CF92DF92EF92FF920F9302
:102590001F93CF93DF93CDB7DEB7CF55D1090FB6D9
:1025A000F894DEBF0FBECDBF11E010936A16809184
:1025B000DB158D3409F472C6843511F40C9415289A
:1025C000873411F00C9459282090D9153090DA15E1
:1025D00024E02216310409F449C54CF437FC5AC6EC
:1025E0008091400242E0241631047CF529C05AE56E
:1025F0002516310409F48FC534F49CE12916310401
:1026000009F472C547C6ABE52A16310409F487C53B
:10261000BCE52B16310409F03DC654E4252E52E0EA
:10262000352E68E7E62E66E1F62E2FE134E03DA771
:102630002CA772EFC72E76E1D72E00E010E0AEC5D2
:1026400081110C9460280C945B28882311F40C945D
:102650005B280E947D2E82E50E94702E882309F45B
:1026600036C10E94F42D4B015C0120E030E0A9014D
:102670000E94E6C9882309F456C120911F043091B5
:10268000200440912104509122042CA73DA74EA77D
:102690005FA78091230490912404A0912504B09118
:1026A000260488AB99ABAAABBBAB209184163091C2
:1026B000851640918616509187162CAB3DAB4EABDC
:1026C0005FAB8091881690918916A0918A16B0917F
:1026D0008B1688AF99AFAAAFBBAF6CA57DA58EA5B1
:1026E0009FA50E94E6C981110DC028AD39AD4AAD44
:1026F0005BAD68A979A98AA99BA90E94E6C988232C
:1027000009F411C111E092E02916310409F010E03A
:1027100020E030E0A901C501B4010E94E6C9881F8C
:102720008827881F181759F020E030E040E85FEB59
:1027300028962CAF3DAF4EAF5FAF28970AC080E020
:1027400090E0A0E8BFE328968CAF9DAFAEAFBFAFDF
:1027500028972CA53DA54EA55FA56CA97DA98EA99E
:102760009FA90E9480CE24966CAF7DAF8EAF9FAFA5
:10277000249728A939A94AA95BA968AD79AD8AAD82
:102780009BAD0E9480CE6B017C0124962CAD3DADAB
:102790004EAD5FAD2497CA01B9010E944CCA2B010E
:1027A0003C01A7019601C701B6010E944CCA9B01DA
:1027B000AC01C301B2010E9481CE0E942FD16CAF47
:1027C0007DAF8EAF9FAF20E030E040E05FE30E943E
:1027D0004CCA2B013C01A5019401C501B4010E9422
:1027E0004CCA4B015C01A3019201C301B2010E94DA
:1027F0004CCA9B01AC01C501B4010E9480CE0E946D
:102800002FD128962CAD3DAD4EAD5FAD28970E94DF
:102810004CCA4B015C01C701B60190582CAD3DADCF
:102820004EAD5FAD0E947BCFA50194010E944CCAC2
:102830006B017C012CA93DA94EA95FA96CA57DA5C2
:102840008EA59FA50E9481CE20E030E040E05FE3AE
:102850000E944CCA9B01AC01C701B6010E9481CE07
:102860002CA53DA54EA55FA50E9480CE6B017C01E5
:1028700028AD39AD4AAD5BAD68A979A98AA99BA9F4
:102880000E9481CE20E030E040E05FE30E944CCA2D
:102890002B013C012CAD3DAD4EAD5FAD24966CAD32
:1028A0007DAD8EAD9FAD24970E947BCFA501940195
:1028B0000E944CCA9B01AC01C301B2010E9481CEAF
:1028C00028A939A94AA95BA90E9480CE14C089E42D
:1028D0000E94702E882329F00E94F42D6B017C0148
:1028E00003C0C12CD12C76018AE40E94702E88236B
:1028F000E9F00E94F42D6CAB7DAB8EAB9FAB20E07A
:1029000030E0A901C701B6010E94E6C981111BC0D0
:1029100020E030E0A9016CA97DA98EA99FA90E94A1
:10292000E6C9811110C0E1E0F5E28CC320E030E09F
:10293000A901C701B6010E94E6C98823A1F31CAA18
:102940001DAA1EAA1FAAA701960150582CA73DA791
:102950004EA75FA78CA99DA9AEA9BFA9B05888AB07
:1029600099ABAAABBBABCA01B9010E944CCA4B01DF
:102970005C0128A939A94AA95BA9CA01B9010E9429
:102980004CCA9B01AC01C501B4010E9481CE0E94DA
:102990002FD164966CAF7DAF8EAF9FAF64972091BF
:1029A0001F0430912004409121045091220428AF4B
:1029B00039AF4AAF5BAFA701960168AD79AD8AAD7B
:1029C0009BAD0E9481CE28966CAF7DAF8EAF9FAF3E
:1029D00028978091230490912404A0912504B0911C
:1029E000260424968CAF9DAFAEAFBFAF24972CA921
:1029F0003DA94EA95FA9BC01CD010E9481CE689678
:102A00006CAF7DAF8EAF9FAF6897209184163091E9
:102A1000851640918616509187162C962CAF3DAFA7
:102A20004EAF5FAF2C9728962CAD3DAD4EAD5FAD50
:102A300028972C966CAD7DAD8EAD9FAD2C970E94E6
:102A400080CE6B017C018091881690918916A091AF
:102A50008A16B0918B1660968CAF9DAFAEAFBFAFAC
:102A6000609768962CAD3DAD4EAD5FAD6897BC01EB
:102A7000CD010E9480CE4B015C0120912704309152
:102A800028044091290450912A046C962CAF3DAF44
:102A90004EAF5FAF6C9760918C1670918D168091E0
:102AA0008E1690918F160E9480CE6CAF7DAF8EAF48
:102AB0009FAFA70196016CA57DA58EA59FA50E943D
:102AC0004CCA2B013C01A501940168A979A98AA9E6
:102AD0009BA90E944CCA9B01AC01C301B2010E9498
:102AE00081CE2B013C01A50194016CA57DA58EA58D
:102AF0009FA50E944CCA4B015C01A701960168A9E1
:102B000079A98AA99BA90E944CCA9B01AC01C50165
:102B1000B4010E9480CEA30192010E9400CF6B01FC
:102B20007C0120E030E0A9010E94E6C987FF0AC0CD
:102B30002BED3FE049EC50E4C701B6010E9481CE85
:102B40006B017C0132E02316310451F42BED3FE0A0
:102B500049EC50E4C701B6010E9480CE6B017C01B4
:102B600020E030E0A901C701B6010E94E6C9811149
:102B700026C02C962CAD3DAD4EAD5FAD2C9768AD0B
:102B800079AD8AAD9BAD0E94E6C9811118C06096EF
:102B90002CAD3DAD4EAD5FAD609724966CAD7DAD77
:102BA0008EAD9FAD24970E94E6C9811108C0ABEDA0
:102BB000CA2EAFE0DA2EA9ECEA2EA0E4FA2EA70185
:102BC000960164966CAD7DAD8EAD9FAD64970E940D
:102BD0004CCA4B015C0120E030E0A9016CAD7DAD39
:102BE0008EAD9FAD0E94E6C98823D9F0A50194015E
:102BF000C501B4010E944CCA4B015C012CAD3DAD36
:102C00004EAD5FADCA01B9010E944CCA9B01AC0137
:102C1000C501B4010E9481CE0E942FD14B015C01FD
:102C20000DC020E030E0A901C501B4010E94E1D04F
:102C300087FF04C0B7FAB094B7F8B0942FE632E13A
:102C400043E85AE3C501B4010E94E6C987FF02C008
:102C50000C945B28C501B4010E9423D00E94F4CFDC
:102C600022967FAF6EAF2297672B31F481E090E020
:102C700022969FAF8EAF229740902B0450902C0449
:102C800060902D0470902E042296AEADBFAD2297B9
:102C9000BD0180E090E00E94EBC94B015C019B010B
:102CA000AC01C701B6010E947BCF68AF79AF8AAF94
:102CB0009BAFA50194016CAD7DAD8EAD9FAD0E9423
:102CC0007BCF64966CAF7DAF8EAF9FAF6497A3014F
:102CD0009201609190167091911680919216909148
:102CE00093160E9480CEA50194010E947BCFA096EE
:102CF0006CAF7DAF8EAF9FAFA09728AD39AD4AAD19
:102D00005BADCA01B9010E944CCA20E030E040E04E
:102D10005FE30E944CCA9B01AC0160E070E080E878
:102D20009FE30E9480CE2C966CAF7DAF8EAF9FAF9D
:102D30002C976C962CAD3DAD4EAD5FAD6C97298751
:102D40003A874B875C874D865E866F86788A60916E
:102D5000310270913202072E000C880B990B0E94F1
:102D6000EDC920912102309122024091230250911D
:102D700024020E944CCA2AE037ED43E25CE30E9441
:102D80004CCA68A779A78AA79BA70E94BC4B9B0146
:102D9000AC0128533F4F4F4F5F4F60962CAF3DAF74
:102DA0004EAF5FAF60974CA45DA46EA47FA42224B5
:102DB0002394312C39E13CAF22964EAD5FAD229782
:102DC0004215530509F41AC10E94B7AD0E94BC4BCD
:102DD000DC01CB0160962CAD3DAD4EAD5FAD609793
:102DE000821B930BA40BB50BB7FD10C00E94BC4B0C
:102DF0009B01AC0128533F4F4F4F5F4F60962CAF64
:102E00003DAF4EAF5FAF60970E94FF6D3CAD31505C
:102E10003CAF332309F441C028A939A94AA95BA9C9
:102E20002C966CAD7DAD8EAD9FAD2C970E944CCA9B
:102E30006B017C019201A30168AD79AD8AAD9BADB8
:102E40000E944CCAA70196010E9481CE7B018C0191
:102E50009201A3012C966CAD7DAD8EAD9FAD2C97EC
:102E60000E944CCA4B015C0128A939A94AA95BA957
:102E700068AD79AD8AAD9BAD0E944CCA9B01AC0197
:102E8000C501B4010E9480CE2B013C01C701D801CD
:102E900088AB99ABAAABBBAB4DC0B10180E090E071
:102EA0000E94EBC928AD39AD4AAD5BAD0E944CCA5A
:102EB0004B015C010E9476CF6B017C01C501B4011E
:102EC0000E9421D14B015C01A70196016CA57DA553
:102ED0008EA59FA50E944CCA2B013C012CA93DA99F
:102EE0004EA95FA9C501B4010E944CCAA301920179
:102EF0000E9481CE2B013C01A50194016CA57DA50A
:102F00008EA59FA50E944CCA4B015C012CA93DA92E
:102F10004EA95FA9C701B6010E944CCA9B01AC0132
:102F2000C501B4010E9480CE68AB79AB8AAB9BAB84
:102F300049E14CAF9201A30128966CAD7DAD8EADF9
:102F40009FAD28970E9481CE69837A838B839C836F
:102F500028A939A94AA95BA968966CAD7DAD8EAD4B
:102F60009FAD68970E9481CE6D837E838F83988703
:102F700064962CAD3DAD4EAD5FAD649769857A85A5
:102F80008B859C850E9481CE69877A878B879C87F9
:102F9000A0962CAD3DAD4EAD5FADA0976D857E8505
:102FA0008F8598890E9481CE6D877E878F87988BC9
:102FB00080913F02882321F0CE0101960E94FA6B96
:102FC000E090D01618A219A21AA21BA2CE018096D8
:102FD0006C018E01085D1F4F9E01235F3F4FAE01C4
:102FE000475F5F4FBE016B5F7F4F4F970E94FA4D67
:102FF000882321F09FEF291A390ADECEE090D016FF
:103000001CA21DA21EA21FA2DE0194966D018E01BC
:10301000085D1F4F20E936E14CE856E168E876E1AB
:1030200084E896E10E94FA4D80E1E4E8F6E1AFE140
:10303000B4E001900D928A95E1F70C945B280E9410
:10304000072FF80184918F010F5F1F4F8111F7CF78
:10305000EDE2F3E084918F010F5F1F4F882311F49D
:103060000C945B280E94072FF801F4CF80E50E94A2
:10307000702E882329F00E94B02D6B017C0103C0C3
:10308000C12CD12C760183E50E94702E882361F03B
:103090000E94F42D20E030E04AE754E40E944CCA3C
:1030A0000E94F4CF6B017C010E94914280917C17B9
:1030B000811105C060E083E493E00E94F1990E94D1
:1030C000BC4BC60ED71EE81EF91E0E94BC4BDC018D
:1030D000CB018C199D09AE09BF09B7FD02C00C9444
:1030E0005B280E94FF6DF1CF8091120487708730BA
:1030F00011F00C9465288FE40E94702E882319F03B
:103100000E94E42D03C08FE40E94272E81110C94AD
:103110005B280C946528109226030C945B2810936E
:1031200026030C945B280E94F42D2B013C011330E4
:1031300049F0F60120813181428153810E9480CE85
:103140002B013C01ACA5BDA52D913D914D915C910C
:10315000C301B2010E9480CE4B015C012DEB37E32D
:1031600046E855EB0E94E1D087FD20C02DEB37E308
:1031700046E855E3C501B4010E94E6C91816B4F04B
:103180001F5FB4E0EB0EF11CECA5FDA53496FDA786
:10319000ECA7F4E0CF0ED11C143039F1D1018D91A0
:1031A0001D010E94702E882359F3BDCF133051F4B6
:1031B00040922B0450922C0460922D0470922E04A5
:1031C00001E0DECFA5019401F70160817181828168
:1031D00093810E9481CED7016D937D938D939C93B3
:1031E0001397812F0E941A2CCBCF002309F44EC0D5
:1031F00020E030E0A90160912B0470912C048091B3
:103200002D0490912E040E9481CE20918A15309138
:103210008B1540918C1550918D150E944CCA0E94BF
:10322000EED06093CE177093CF178093D017909302
:10323000D1179091AC178091AD17981719F00E9493
:10324000334224C00E94914280916F00982F927067
:1032500081FF05C080916F008D7F80936F0040914A
:10326000CE175091CF176091D0177091D11740931E
:103270003B1750933C1760933D1770933E1799236B
:1032800029F080916F00826080936F000E94E63683
:103290000C945B280E94FA860C945B288091D915C7
:1032A0009091DA158037910509F48DC50CF0B4C002
:1032B0008A32910509F4B1C40CF060C088319105DF
:1032C00009F456C2D4F58231910511F40C9477219A
:1032D000DCF497FF02C00C941228823091050CF4A4
:1032E00077C1419711F00C94122860E08FE593E0CC
:1032F0000E94F1995F988A9880910801827080936A
:10330000060112980C945B288531910509F415C2C9
:103310003CF4449711F00C941228E7E7F3E0CFC196
:103320008631910509F40DC2479711F00C941228CB
:10333000E091D715F091D8150EC28C31910509F4A2
:10334000C6C264F48A31910509F41BC20CF027C28D
:103350001092D4170E9433AC0C945B288E319105E7
:1033600009F4BFC214F40C945B288F31910509F461
:103370009EC3809709F44FC30C9412288C35910595
:1033800011F40C94C3213CF58135910509F490C7E3
:103390008CF48C34910509F475C48D34910509F4CD
:1033A00075C48B34910511F00C9412280E940FAC57
:1033B0000C945B288335910509F495C70CF490C7EC
:1033C0008435910509F493C78535910511F40C9462
:1033D000AA210C9412288B36910509F453C764F482
:1033E0008936910509F420C50CF027C78836910568
:1033F00009F450C40C9412288D36910509F456C571
:103400000CF4DDC48E36910509F473C48F36910532
:1034100009F482C40C9412288C3D910511F40C948B
:1034200016260CF060C08139910511F40C944923E3
:1034300074F58537910511F40C94E62284F48237F3
:10344000910511F40C944C220CF4C1C483379105FE
:1034500011F00C941228EAE6F5E00C948B228737E1
:10346000910511F40C94402314F40C94F322883742
:10347000910511F40C9443238937910511F00C94B4
:10348000122810921104109210040C945B288B3CAB
:10349000910511F40C94172484F4883C910511F4DF
:1034A0000C94A823893C910511F40C94F8238B39D2
:1034B000910511F00C941228D2C48D3C910511F4A1
:1034C0000C94A72414F40C9432248E3C910511F42E
:1034D0000C941225833D910511F00C941228E3EE13
:1034E000F3E20C9437258C3A21E0920711F40C9406
:1034F0003425BCF58E3241E0940711F40C945B271F
:1035000094F4823E910511F40C9492268D32A1E040
:103510009A0711F40C94BB268D3D910511F00C9483
:1035200012280C9423268336B1E09B0709F44CC083
:103530004CF48F32914011F00C9412280E94813289
:103540000C945B28803921E0920711F40C94C52774
:103550008A39914011F00C9412280E94E12C0C94AD
:103560005B28873F41E0940711F40C94CE2794F434
:10357000853FA1E09A0711F40C94C82714F00C942D
:10358000CB27843F914011F00C9412280E940F82A7
:103590000C945B288B38F3E09F0711F40C945B28A4
:1035A0003CF4883F914011F40C94D9270C941228D4
:1035B000803A43E0940709F46DC2873E934011F4CA
:1035C0000C94FD270C941228E1E0F5E20C94B2274C
:1035D000A090D715B090D81580E50E94702E882352
:1035E00059F00E94B02D6B017C0111E0672B682B14
:1035F000692B31F410E004C010E0C12CD12C76010D
:1036000083E50E94702E882311F40C940E2A0E94E8
:10361000F42D20E030E04AE754E40E944CCA0E94B6
:10362000F4CF6B017C0111110BC0672B682B692B48
:1036300039F4A114B10421F0D5018C91811102C09B
:1036400010E001C011E00E949142112329F061E0D5
:10365000C5010E942B9A05C060E08CE493E00E94B3
:10366000F19983E080936A1681E08093DB16C114A0
:10367000D104E104F104B1F00E94BC4BC60ED71E88
:10368000E81EF91E0E94BC4BDC01CB018C199D0980
:10369000AE09BF09B7FF0DC08091DB1681110C94F4
:1036A000132A07C08091DB16882319F00E94FF6D52
:1036B000F9CF0E94A7431092DB160C945B288491EB
:1036C0008F010F5F1F4F882321F00E94072FF80101
:1036D000F6CF1092511A84E098E10E94C18D8BE1DF
:1036E000E4E0F8E1DE01159601900D928A95E1F78C
:1036F00080910218909103189C838B8388EE92E04E
:103700009A83898340E050E0BE016F5F7F4F80E085
:1037100090E00E9487B1CE0101960E948E6DE8E68E
:10372000F3E084918F010F5F1F4F882311F40C94F5
:103730005B280E94072FF801F4CF0E9417890C9490
:103740005B281092D4171092D5170C945B28803206
:1037500009F41082319680818111F9CF40E061E057
:103760008091D7159091D8150E9470BA0C945B285F
:103770008091D51781111093D4170E940FAC0C942F
:103780005B288091D517882311F40C945B2883E57E
:103790000E94702E81110C94172A0C945B2883E4EC
:1037A0000E94272E882309F450C0E5EBF3E08491B2
:1037B0008F010F5F1F4F882321F00E94072FF80110
:1037C000F6CF80919F19811103C0E8E8F3E012C0A1
:1037D000BE016F5F7F4F8CE999E10E94888C8E015A
:1037E0000F5F1F4FF80181918F01882349F10E94DB
:1037F000072FF8CF84918F010F5F1F4F882301F1AE
:103800000E94072FF801F6CF33E3C32E34E0D32E06
:10381000E12CF12C20E080917D1590E00E2C02C06F
:10382000959587950A94E2F780FDA6C2AFEFEA1A54
:10383000FA0AB2E0CB0ED11CE5E0EE16F10459F71E
:103840008AE00E94072F0C945B288091D51788236B
:1038500039F08091D417882319F0E2E9F3E003C02E
:10386000E4EAF3E028C084918F010F5F1F4F8823A3
:1038700021F00E94072FF801F6CF60914D1A709148
:103880004E1A80914F1A9091501A4AE00E94B63118
:103890008FE20E94072F6091491A70914A1A809115
:1038A0004B1A90914C1A4AE00E94B6318AE00E946D
:1038B000072F0C945B2884918F010F5F1F4F882383
:1038C00011F40C945B280E94072FF801F4CF40E01C
:1038D00060E08091D7159091D8150E9470BA0C9431
:1038E0005B288091D517882311F40C945B288CE910
:1038F00099E10E9407B88CE999E10E94638C1092CB
:10390000D3171092D2178091D517882311F40C94F5
:103910005B280091D7151091D8151092D41780917B
:103920009F19882321F08CE999E10E94638CB801EA
:10393000CE0180960E9490B38C01892B11F40C94D7
:103940005B2868A179A16115710511F06C5F7F4F4B
:1039500019821C8222E0A801CE0101960E941292D7
:10396000811102C0F12C14C0CE0101960E947DB0DD
:103970008823C1F361E0CE0101960E946C8C009710
:1039800089F325EEDC012C931C820E94ACB5F82E45
:10399000CE0101960E94012FF11003C0E2EDF3E089
:1039A00022C0E4ECF3E084917F01BFEFEB1AFB0A45
:1039B000882321F00E94072FF701F5CFF8018191AC
:1039C0008F01882319F00E94072FF8CF8AE00E9408
:1039D000072F10924D1A10924E1A10924F1A1092F1
:1039E000501A0C945B2884917F012FEFE21AF20A9F
:1039F000882321F00E94072FF701F5CFD8018D9180
:103A00008D01882319F00E94072FF8CF8EE20E94C3
:103A1000072F0C945B288091D41781110E9491424A
:103A20008091D517882311F40C945B2880E50E94BF
:103A3000702E882319F00E94E42D03C080E50E94B7
:103A4000272E182F482F61E08091D7159091D81517
:103A50000E9470BA83E50E94702E882381F00E9434
:103A6000C02DAB01BC0140934D1A50934E1A609388
:103A70004F1A7093501A8CE999E10E94798B8091CA
:103A8000D517882319F081E08093D41711110C9475
:103A90005B2873CE8091D7159091D81521E02093A3
:103AA000D31740E060E00E9470BA0C945B280E943B
:103AB000C0AB7B018C0120E831E541E050E00E9481
:103AC000EDCDC9016DE671E00E9429CE4B015C018C
:103AD000C801B70120E13EE040E050E00E94EDCD9A
:103AE000CA01B90128E130E040E050E00E94EDCD8C
:103AF000762E672EC62ED72E4CE3242E312C412C49
:103B0000512CC801B701A20191010E94EDCDF62E02
:103B1000E72ECA01B901A20191010E94EDCDCB01AE
:103B20008E010F5F1F4F8114910499F0EF92FF9265
:103B30007F936F936F927F92BF92AF929F928F927B
:103B400082E194E09F938F931F930F930E947EC90D
:103B500013C0A114B104B1F0EF92FF927F936F9361
:103B60006F927F92BF92AF9282E094E09F938F9387
:103B70001F930F930E947EC90FB6F894DEBF0FBE4D
:103B8000CDBF30C0CD2879F0EF92FF927F936F9335
:103B90006F927F9286EF93E09F938F931F930F9383
:103BA0000E947EC9E9CF892B69F0EF92FF927F9343
:103BB0006F938EEE93E09F938F931F930F930E94CA
:103BC0007EC9DACFEF92FF928AEE93E09F938F93B4
:103BD0001F930F930E947EC90F900F900F900F902C
:103BE0000F900F9060E0C8010E942B9AE3EEF3E281
:103BF00084917F019FEFE91AF90A882321F00E943E
:103C0000072FF701F5CFB80186E294E00E94BD418D
:103C10008AE00E94072F0C945B2883E50E94702E97
:103C2000882311F40C945B280E94D02DE82E80E5A7
:103C30000E94702E882339F00E94D02D182F87FF04
:103C400003C00C945B281DE089E40E94702E882339
:103C500051F00E94E42D81110C94992AE0EBF6E0DA
:103C60008DED96E00AC089E40E94272EF4CF3196AC
:103C70008E179F0711F40C94992A24911213F7CFF1
:103C80000C946E2A0E9433AC0C945B280E9448ACC2
:103C90000C945B2888E690E00E94233281110C94FA
:103CA0005B2880917D1583FF02C00C945B2883E51F
:103CB0000E94702E8823C9F00E94F42D0E94EDCF3F
:103CC0007093A3156093A21580E00E9461AB0E94DF
:103CD000F42D20E030E04AEA52E40E94E6C91816CA
:103CE00024F00E9448AC0E94A7430E9477BC0C9429
:103CF0005B288EE40E94702E882311F40C945B28BC
:103D00000E94C02D60935A1A70935B1A80935C1ABC
:103D100090935D1A0C945B2883E50E94272E8823DC
:103D200059F083E50E94702E882319F00E94D02D4F
:103D300001C080E080937D15E3EEF3E284918F0172
:103D40000F5F1F4F811103C0E1E4F4E004C00E9443
:103D5000072FF801F3CF84918F010F5F1F4F882346
:103D600021F00E94072FF801F6CF80917D15811177
:103D70004BCDEDE3F4E018C0BB24B394B20E222384
:103D800019F08CE20E94072FF60185919491FC01B5
:103D900084918F010F5F1F4F882321F00E94072F0E
:103DA000F801F6CF2B2D42CD84918F010F5F1F4F6D
:103DB000882309F445CD0E94072FF801F5CF109212
:103DC0000D020C945B2888E494E00E94AF6D83E5BB
:103DD0000E94702E811103C0E3EEF3E20DC00E9439
:103DE000D02D8D3320F4809325020C945B288CE336
:103DF000809325020C945B2884918F010F5F1F4FE5
:103E0000882321F00E94072FF801F6CF4091250268
:103E100050E060E070E081E594E00E946A418AE051
:103E20000E94072F0C945B2889E690E00E942332C1
:103E3000811111C0E8E5F4E084918F010F5F1F4FFD
:103E4000882321F00E94072FF801F6CF0E94FD4A37
:103E50008AE00E94072F10926A160C94B52A83E517
:103E60000E94702E882311F40C945B280E94D02DA0
:103E7000182F8D3308F01CE3109377160E94BC4B6B
:103E80006B017C01212F30E0A8EEB3E00E941ACE36
:103E9000C60ED71EE81EF91EC0927316D092741675
:103EA000E0927516F09276160C945B288DE690E001
:103EB0000E94233281110C945B2880917D1583FF31
:103EC00002C00C945B2883E50E94702E8CAB81119C
:103ED00007C082E50E94702E182F882309F43DC088
:103EE0000E94F42D0E94EDCF7093A3156093A2154C
:103EF00080E00E9461AB0E94F42D20E030E04AEAAD
:103F000052E40E94E6C9181614F40C94282A0E9460
:103F100048AC0E94A7436091A2157091A315072E8B
:103F2000000C880B990B0E94EDC96B017C018090FD
:103F3000891090908A10A0908B10B0908C10A501E1
:103F400094010E94E1D0181614F40C94342AFCA9B0
:103F5000FF2311F40C942C2A11E00E9477BC11234A
:103F600011F40C945B2881E080930D021CAE1DAE11
:103F70001EAE1FAE68961CAE1DAE1EAE1FAE68977D
:103F800018AE29961FAE29972CE32D962FAF2D97AB
:103F90003CE169963FAF699746E461964FAF619700
:103FA000C12CD12C90E8E92E2FEBF22E412C512C74
:103FB00032016091A2157091A315072E000C880B99
:103FC000990B0E94EDC9162F072F8CA798AB96016D
:103FD000A7010E94E6C9882319F120918910309128
:103FE0008A1040918B1050918C108CA9612F702FEA
:103FF000811109C08CA598A90E94E6C9881F88274D
:10400000881F88AF13C08CA598A90E94E6C987FFB6
:104010000CC080910D02882311F40C945B280AC116
:104020001C2D0D2DECA6F8AA01C018AE0E94BC4BA9
:104030006B017C01DC01CB0168962CAD3DAD4EAD32
:104040005FAD6897821B930BA40BB50BB7FD3DC00A
:10405000D701C60188519C4FAF4FBF4F68968CAFB8
:104060009DAFAEAFBFAF68970E94FD4AEBE5F4E0AD
:1040700084915F019FEFA91AB90A882321F00E9459
:10408000072FF501F5CF4114510461047104B9F013
:10409000D301C2018053984FAF4FBF4FBC01CD0138
:1040A0006C197D098E099F0928EE33E040E050E04D
:1040B0000E94EDCDCA01B9010E94653203C08FE3B1
:1040C0000E94072F8AE00E94072F0E94FF6D0E9426
:1040D000BC4B60936B1670936C1680936D16909327
:1040E0006E162090891030908A10A0918B10219626
:1040F000AFAF2197B0918C102596BFAF2597910156
:10410000AD01612F702F8CA598A90E9480CE4B0124
:104110005C0120E030E0A9010E94E1D087FF04C0EB
:10412000B7FAB094B7F8B094411451046104710423
:1041300059F420E030E040E85FE3C501B4010E949B
:10414000E6C987FF0DC00AC020E030E040EA50E435
:10415000C501B4010E94E1D0181614F426013701FC
:10416000E8ADEE2309F44AC02CAD3DAD4EAD5FADD8
:10417000211531054105510541F0D701C601821BCA
:10418000930BA40BB50BB7FD39C0910121964FAD30
:10419000219725965FAD259729966FAD29972D9686
:1041A0007FAD2D9769968FAD699761969FAD6197A9
:1041B0000E9480CE20E030E040EC5FE30E94E6C940
:1041C00087FD27CFD701C601805A9541AF4FBF4F1A
:1041D0008CAF9DAFAEAFBFAF29962FAE29972D966E
:1041E0003FAE2D9721969FAD219769969FAF699716
:1041F0002596AFAD25976196AFAF619780910D027F
:10420000882309F406CF411451046104710429F490
:10421000C12ED02EECA4F8A8CCCEB0EDCB1AB7E0CE
:10422000DB0AE108F108C418D508E608F708F7FE2C
:10423000F0CEEECF0E94A7433EC780E50E94702ECD
:10424000882339F00E94D02D182F823008F033C710
:1042500001C010E083E50E94702E882319F00E94AF
:10426000C02D02C06FEF70E0E12FF0E06F3F7105ED
:1042700010F06FEF70E0EE0FFF1FEC57FF4E7183F1
:10428000608319C780E50E94702E882339F00E9450
:10429000C02D6230710508F00EC702C060E070E00A
:1042A000660F771FFB01EC57FF4E1182108203C788
:1042B0000E945DAC0E94ED741092851010928410E3
:1042C000109287101092861068EE73E080E090E004
:1042D0000E94739960E089E794E00E94F199EBC62F
:1042E00010922503E8C681E080932503E4C683E5A8
:1042F0000E94702E882399F00E94F42D20E030E077
:104300004AE754E40E944CCA0E94F4CF609326020C
:10431000709327028093280290932902CCC688E5E7
:104320000E94272E81110C943E2A89E50E94272E97
:1043300081110C943E2A8AE50E94272E81110C944B
:104340003E2A85E40E94272E81110C943E2A0E9469
:10435000ED74B1C683E50E94272E882309F4ABC60D
:104360000E94F42D20E030E04AE754E40E944CCA59
:104370000E94F4CF60936F1670937016809371163D
:104380009093721698C6B4E4CB2EB2E0DB2E1EE7F3
:10439000E12E15E1F12E10E0F60181916F010E94EE
:1043A000272E882309F46EC0133009F063C00E94E1
:1043B000F42D4B015C0120E030E040EA51E40E9422
:1043C000E6C987FF4EC0A501940160918A157091DE
:1043D0008B1580918C1590918D150E947BCF2B01B0
:1043E0003C019B01AC0160913010709131108091C3
:1043F0003210909133100E944CCA60933010709329
:1044000031108093321090933310A3019201609188
:1044100060107091611080916210909163100E9401
:104420004CCA6093601070936110809362109093F7
:1044300063106091401070914110809142109091F2
:1044400043100E94EBC9A30192010E944CCA0E9432
:10445000F4CF60934010709341108093421090937A
:10446000431080928A1590928B15A0928C15B09271
:104470008D1508C00E94F42DD7016D937D938D9307
:104480009C9313971F5FB4E0EB0EF11C143009F0FE
:1044900083CF0E947B430FC60E94914283E50E9416
:1044A000702E882311F40C9446190E94C02D62309E
:1044B000710511F00C9446190E9443728BE50E941D
:1044C000072F60915E1670915F1680916016909133
:1044D000611642E00E944539409162165091631680
:1044E000609164167091651688E894E00E94874197
:1044F0004091661650916716609168167091691622
:1045000085E894E00E9487418DE50E94072F8AE0AC
:104510000E94072FD0C584918F010F5F1F4F882302
:1045200021F00E94072FF801F6CF60E08AE595E0C0
:104530000E94AF3661E083E595E00E94AF3661E00E
:1045400088E495E00E94AF3661E088E395E00E9440
:10455000AF3660E08FE295E00E94AF3661E085E221
:1045600095E00E94AF3660E08BE195E00E94AF36A7
:1045700060E083E195E00E94AF3660E085E095E081
:104580000E94AF3660E087EF94E00E94AF3660E0B3
:1045900088EE94E00E94AF3660E08AED94E00E94DD
:1045A000AF3660E084EC94E00E94AF3660E083EBCD
:1045B00094E00E94AF3660E08EE994E00E94AF364E
:1045C00061E08BE894E00E94AF3675C58091D71505
:1045D0009091D815FC012081222309F42BCE60E0B4
:1045E0000E942B9A68C50091D7151091D81583E0C9
:1045F000D12C40E08150E9F0D8019C91292F2B7FEC
:104600002134C1F711962C912133A1F7913421F077
:10461000953421F441E002C0DD24D39498012E5F4B
:104620003F4F89012F5F3F4FF80190819032C9F3CE
:10463000E1CF442369F0E3EEF3E284917F012FEFB1
:10464000E21AF20A882321F00E94072FF701F5CF22
:10465000DD2069F0E4E3F6E084917F013FEFE31AA7
:10466000F30A882321F00E94072FF701F5CFD80124
:104670008D918D01882309F4E3C80E94072FF7CF9D
:104680000E94757718C581E080931104809310040F
:1046900012C583E50E94702E882319F00E94C02D58
:1046A00002C060E070E08B01112702301105D4F0E8
:1046B000E1E0F5E284918F010F5F1F4F811103C08C
:1046C000E8E3F6E004C00E94072FF801F3CF8491DD
:1046D0008F010F5F1F4F882309F4EDC40E94072F3D
:1046E000F801F5CF88E40E94702E8823A9F00E947B
:1046F000C02D6A3A71053CF06530B1E07B072CF0C3
:1047000064E071E002C06AEA70E0F801EE0FFF1F9A
:10471000EC55FA4E7183608386E40E94702E8823E4
:1047200009F4C9C40E94C02D000F111FF801E855FB
:10473000FA4E718360836F3F710519F014F06FEFCB
:1047400070E077FF02C060E070E071836083B3C403
:1047500088EC90E00E9423328111ADC484E40E9471
:10476000272E882309F441C00E94F42D6B017C019F
:1047700011E020E030E0A9010E94E6C9811101C0EA
:1047800010E01093B81520E030E0A901C701B60190
:104790000E94E6C9882349F10E94F42DE091DE03CE
:1047A00024E0E29FF0011124EC54FA4E60837183FF
:1047B0008283938320E030E0A9016091B415709169
:1047C000B5158091B6159091B7150E94E6C9811173
:1047D0000CC080E090E0A0E4B0E48093B415909326
:1047E000B515A093B615B093B7150E94287463C48D
:1047F00074E4E72E72E0F72E00E117E1D7018D9106
:104800007D010E94272E882349F00E94F42D0E94EA
:10481000F4CFF80160837183828393830C5F1F4F11
:10482000F7E100321F0751F70E94D84144C464E405
:10483000E62E62E0F62E04E510E1D7018D917D01B0
:104840000E94272E882339F00E94F42DF8016083FE
:104850007183828393830C5F1F4FF0E104361F073F
:1048600061F729C483E50E94702E8823A1F00E947D
:10487000F42D60934C1070934D1080934E109093D4
:104880004F10609348107093491080934A10909392
:104890004B1010E001C011E080E50E94702E8823CB
:1048A00059F00E94F42D60934C1070934D1080933A
:1048B0004E1090934F1010E082E50E94702E8823D6
:1048C00059F00E94F42D6093501070935110809312
:1048D00052109093531010E084E50E94702E8823AC
:1048E00059F00E94F42D6093481070934910809302
:1048F0004A1090934B10DFC3112309F4DCC340919D
:104900004C1050914D1060914E1070914F1080E6F8
:1049100096E00E9487414091501050915110609153
:104920005210709153108DE596E00E94874140919E
:1049300048105091491060914A1070914B108AE5CF
:1049400096E00E9487418AE00E94072FB4C381E568
:104950000E94272E882351F00E94B02D609368108A
:104960007093691080936A1090936B1083E50E9496
:10497000272E882351F00E94F42D609380107093AD
:104980008110809382109093831084E50E94272EDB
:10499000882351F00E94F42D60937C1070937D1059
:1049A00080937E1090937F1088E50E94272E8823A5
:1049B00051F00E94F42D6093241070932510809381
:1049C00026109093271089E50E94272E882351F006
:1049D0000E94F42D609328107093291080932A1060
:1049E00090932B108AE50E94272E882351F00E9475
:1049F000F42D60932C1070932D1080932E109093B3
:104A00002F1085E40E94272E882309F454C30E94A6
:104A1000F42D609330107093311080933210909386
:104A2000331049C344E4C42E42E0D42E53E1E52EB2
:104A300054E0F52E10E0D6018D916D010E94272ED5
:104A4000882351F00E94F42DF701608371838283E3
:104A50009383812F0E941A2C1F5FF4E0EF0EF11C4C
:104A6000133049F70C9446190E94B03724C384913F
:104A70008F010F5F1F4F882321F00E94072FF8013D
:104A8000F6CF83E50E94272E882321F00E94E42D93
:104A900080933F02E8E9F6E084918F010F5F1F4F9A
:104AA000882321F00E94072FF801F6CF80913F0262
:104AB000882319F0E0E9F6E002C0E4E9F6E0849129
:104AC0008F010F5F1F4F811103C0E8E8F6E004C0BB
:104AD0000E94072FF801F3CF84918F010F5F1F4FC2
:104AE000882321F00E94072FF801F6CF2091F216BB
:104AF0003091F3164091F4165091F5166091FE1620
:104B00007091FF1680910017909101170E9481CE3D
:104B1000AB01BC0186E896E00E9487412091F61621
:104B20003091F7164091F8165091F91660910217DE
:104B30007091031780910417909105170E9481CE00
:104B4000AB01BC0183E896E00E9487412091FA16F0
:104B50003091FB164091FC165091FD16609106179E
:104B60007091071780910817909109170E9481CEC4
:104B7000AB01BC0180E896E00E948741E8E7F6E0DF
:104B800084918F010F5F1F4F882321F00E94072F10
:104B9000F801F6CF2091F2163091F3164091F416F9
:104BA0005091F51660913302709134028091350274
:104BB000909136020E9481CEAB01BC0186E796E05F
:104BC0000E9487412091F6163091F7164091F81611
:104BD0005091F91660913702709138028091390234
:104BE00090913A020E9481CEAB01BC0183E796E02E
:104BF0000E9487412091FA163091FB164091FC16D5
:104C00005091FD1660913B0270913C0280913D02F3
:104C100090913E020E9481CEAB01BC0180E796E0FC
:104C20000E9487418AE00E94072F45C283E50E94C7
:104C3000702E882309F43FC20E94C02D7093320267
:104C40006093310238C28DED90E00E9423328111D1
:104C500032C283E50E94702E811103C0E3EEF3E2BD
:104C60003BC00091DE0310E00E94C02D000F111F19
:104C7000F801E15DFD4F718360838091DE0390E078
:104C80008C01000F111F000F111F9801215F3D4F74
:104C90007901880F991FFC01E15DFD4F60817181F1
:104CA000072E000C880B990B0E94EDC92AE037ED06
:104CB00043E25CE30E944CCAF801E251F94E2081C4
:104CC0003181428153810E944CCAD7016D937D93FB
:104CD0008D939C931397EFC184918F010F5F1F4FAA
:104CE000882321F00E94072FF801F6CF85E40E9467
:104CF000072F8091DE03805D0E94072FE091DE0385
:104D0000F0E0EE0FFF1FE15DFD4F6081718188EAE9
:104D100096E00E94A44185E20E94072F8AE00E944B
:104D2000072FC9C180E50E94272E882309F4C3C13B
:104D30000E94C02D6B017C0183E50E94702E8823A8
:104D400021F00E94C02D8B0102C00FEF1FEFC801A0
:104D50000196039708F0AFC1D7FCADC18C2DE0EBF5
:104D6000F6E09491891709F4B9C33196B6E0ED3DA8
:104D7000FB07B9F7B6C385E40E94702E811110C0FD
:104D800080E50E94272E882391F00E94F42D6093E5
:104D9000951570939615809397159093981507C065
:104DA0000E94D02D882361F3E1E0F5E271C089E42F
:104DB0000E94272E882381F00E94F42D2CEA35ECE6
:104DC00047E25EE30E944CCA60939D1570939E1566
:104DD00080939F159093A01584E40E94272E88232A
:104DE00081F00E94F42D2CEA35EC47E25EE30E944C
:104DF0007BCF6093991570939A1580939B15909330
:104E00009C15E3EEF3E284918F010F5F1F4F88231F
:104E100021F00E94072FF801F6CF4091951550918F
:104E20009615609197157091981585EE96E00E9401
:104E300087412CEA35EC47E25EE360919D15709165
:104E40009E1580919F159091A0150E947BCFAB017C
:104E5000BC0181EE96E00E9487412CEA35EC47E2E6
:104E60005EE36091991570919A1580919B159091D0
:104E70009C150E944CCAAB01BC018DED96E00E94CE
:104E800087418AE00E94072F16C10E94072FF80170
:104E900084918F010F5F1F4F8111F7CFE9EEF6E08C
:104EA00084918F010F5F1F4F882309F404C10E9472
:104EB000072FF801F5CF83E50E94272E182F8823AE
:104EC00071F00E94F42D0E94EDCF70931402609354
:104ED000130221E0672B09F020E02093881080E581
:104EE0000E94272E882359F020911302309114023A
:104EF000232B11F00E94E42D80938810DCC0111147
:104F0000DAC0E3EEF3E284918F010F5F1F4F882335
:104F100021F00E94072FF801F6CF80918810882396
:104F200019F06CEF72E002C06FEF72E080E197E081
:104F30000E94BD4160911302709114028FEF96E0C0
:104F40000E94A441EBEFF6E084918F010F5F1F4FA9
:104F5000882309F4B0C00E94072FF801F5CF0E9402
:104F6000072FF80184918F010F5F1F4F8111F7CF39
:104F7000E3E2F7E084918F010F5F1F4F882309F46C
:104F80009AC00E94072FF801F5CF0E94914293C06A
:104F90000E94018290C00E946C7B8DC083E50E94BC
:104FA000272E882319F00E94E42D81270E94AE77D6
:104FB00082C081E08093AA160E949E7C1092AA165D
:104FC000882309F478C0E3EEF3E284918F010F5F48
:104FD0001F4F811103C0E2E3F7E004C00E94072FD6
:104FE000F801F3CF84918F010F5F1F4F882309F4DD
:104FF00062C00E94072FF801F5CF81E08093400244
:105000001092231083E50E94702E882339F00E94AD
:10501000E42D811150C00E947C724DC083E50E9436
:10502000272EF7CF0E94FA8646C0F090D9150E942D
:105030009142FF2029F1E3EEF3E284918F010F5FAB
:105040001F4F882321F00E94072FF801F6CF84E537
:105050000E94072F6F2D70E080E090E04AE00E94F0
:10506000B63180E20E94072FEFE4F7E084918F01D0
:105070000F5F1F4F8823F9F00E94072FF801F6CF2A
:105080001092D016E3EEF3E284918F010F5F1F4F71
:10509000882321F00E94072FF801F6CF6091D016E7
:1050A00070E08DE397E00E94A4418AE00E94072F00
:1050B00002C00E94FA8610926A160E945F7255C260
:1050C0000E947D2E0E942E71F6CF0E949142809107
:1050D000210290912202A0912302B0912402809398
:1050E000290390932A03A0932B03B0932C03809160
:1050F000310290913202909328038093270384E633
:1051000090E0909332028093310211E010931104E9
:1051100088E50E94272E282E89E50E94272E382E0A
:105120008AE50E94272EA82E211005C0311005C047
:10513000BA2CB12605C0311002C0B12C01C0BA2C66
:1051400080E1EFE1F4E0A4E8B6E101900D928A95E8
:10515000E1F782E50E94702E882369F00E94F42D09
:105160002B013C0120E030E0A9010E94E6C9882320
:1051700009F43FC006C0412C512CE0EA6E2EE0E459
:105180007E2EB11005C0211003C0332009F41DC1CB
:1051900040928C1650928D1660928E1670928F16D9
:1051A000A301920160912704709128048091290441
:1051B00090912A040E94E6C987FF1BC019821A82B7
:1051C0001B821C82209123043091240440912504E9
:1051D0005091260460911F04709120048091210455
:1051E00090912204FE0131966F01830172010E94A9
:1051F000282BB1100DC0211003C03110E1C0E5C053
:10520000311006C080E00E948C6CBB20B1F3D8C086
:105210001092230410922404109225041092260464
:1052200010921F0410922004109221041092220464
:105230000E94D72CEBECFAE1249128AFEFEBFAE1D6
:10524000C590D590E590F490E3ECFAE14590559047
:1052500065907490A7019601C301B2010E94E6C94E
:1052600087FF05C0A7019601C301B20104C0A301D5
:105270009201C701B6010E947BCF6CAB7DAB8EABB8
:105280009FABE2E8FAE185919591A591B4918CA745
:105290009DA7AEA7BFA7EEE7FAE12591359145910D
:1052A000549128AB39AB4AAB5BABBC01CD010E943A
:1052B000E1D018162CF498A809A91AA98BA804C043
:1052C0009CA40DA51EA58FA42CA93DA94EA95FA93C
:1052D000CA01B9010E944CCA20E030E040E85FE317
:1052E0000E9481CE0E942FD1292D302F412F582D81
:1052F0000E944CCA69837A838B839C83ECECFAE12D
:1053000014918091270490912804A0912904B091D0
:105310002A048CA79DA7AEA7BFA720E030E040ECF1
:105320005FE3C301B2010E944CCA2B013C01612F13
:10533000110F770B880B990B0E94EDC99B01AC01F3
:10534000C301B2010E944CCA2B013C0120E030E0B5
:1053500040EC5FE3C701B6010E944CCA6B017C01BF
:10536000A8AD6A2FAA0F770B880B990B0E94EDC985
:105370009B01AC01C701B6010E944CCAFE013196E7
:105380006F01ECA4FDA40EA51FA5A30192010E942C
:10539000282B0E94A37710922304109224041092C9
:1053A00025041092260410921F04109220041092DB
:1053B000210410922204B11025CF211023CF1DCF3C
:1053C00081E00E948C6CB11002C0AA2019F082E02A
:1053D0000E948C6C0E94D72C809110048093110441
:1053E0008091290390912A03A0912B03B0912C0363
:1053F0008093210290932202A0932302B09324026F
:105400008091270390912803909332028093310278
:1054100083E080930E020E94E6364DCE11110C946B
:10542000201B0C94191B0E94FF6D0C94421B0E94C0
:10543000C02DAB01BC0140934D1A50934E1A60939E
:105440004F1A7093501A8CE999E10E94798B33CEF0
:105450000E940FAC0C948B1FA5019401C701B601EB
:105460000E94E1D018161CF48CE694E002C08FE58F
:1054700094E060E00E94F1990C94AC1F0E9491426C
:1054800088E50E94272E882331F05F9A80911204CC
:105490008E7F8093120489E50E94272E882331F0A5
:1054A0008A9A809112048D7F809312048AE50E946B
:1054B000272E882359F0809108018095827080936F
:1054C0000601809112048B7F8093120485E40E9470
:1054D000272E882309F4EFCD129AEDCD0E945CBCF3
:1054E000EACD0E949142BC2C60E08C2D0E94DB88AA
:1054F0000F3FEFEF1E0759F48C2D0E94838831E097
:1055000020E0892B09F030E0032F122F05C0013075
:10551000110561F401E010E08B2D0E948388801753
:10552000910709F4C8CD0E94FF6DF6CF00E010E0AE
:10553000F3CF61E0812F0E94DB886E2D812F0E94C6
:10554000AC88F12CB701812F0E945B8A183029F4B6
:10555000F0928510E0928410AECD1C3009F0ABCDF6
:10556000F0928710E0928610A6CDC15ADF4F0FB699
:10557000F894DEBF0FBECDBFDF91CF911F910F9189
:10558000FF90EF90DF90CF90BF90AF909F908F9063
:105590007F906F905F904F903F902F9008959091E3
:1055A0004904E92FF0E0E15DFB4F80839F5F9A3172
:1055B00018F49093490402C01092490480910C0E93
:1055C0008F5F80930C0E0895089580E090E0089519
:1055D00080915C1690915D16981759F0E92FF0E0D4
:1055E000E452FA4E80819F5F9F7790935D1690E022
:1055F00008958FEF9FEF0895CF92DF92EF920F9370
:105600001F93CF93DF9300D01F92CDB7DEB7E0900A
:10561000D01619821A821B821C82CE0101966C015F
:1056200001E212E02BE234E047E254E063E274E08E
:105630008FE194E00E94FA4D0F900F900F900F9021
:10564000DF91CF911F910F91EF90DF90CF90089550
:105650002F923F924F925F926F927F928F929F9282
:10566000AF92BF92CF92DF92EF92FF920F931F9370
:10567000CF93DF93CDB7DEB72A970FB6F894DEBF8E
:105680000FBECDBF2B013C012D833E834F83588736
:1056900047015801DA86C986809121029091220241
:1056A000A0912302B091240289839A83AB83BC83A7
:1056B000D6011C9111960C91119712963C9012975D
:1056C00013962C9020E030E0A901612F702F832DDC
:1056D000922D0E94E6C981110AC0E6E8FAE185919F
:1056E0009591A591B491182F092F3A2E2B2EA50133
:1056F000940160912704709128048091290490916D
:105700002A040E94E6C987FF16C0812F902FA32D7F
:10571000B22D8093210290932202A0932302B09392
:1057200024028092270490922804A0922904B09227
:105730002A040E94FC2AE985FA85C080D180E28093
:10574000F38020E030E0A901C701B6010E94E6C95C
:10575000811107C085E5C82EDC2C85E0E82E83E4A6
:10576000F82EC0922102D0922202E0922302F092FF
:10577000240240921F0450922004609221047092EF
:1057800022048D819E81AF81B885809323049093FC
:105790002404A0932504B09326040E94FC2A20919F
:1057A0002704309128044091290450912A04C5010E
:1057B000B4010E94E6C987FF16C0812F902FA32D48
:1057C000B22D8093210290932202A0932302B093E2
:1057D00024028092270490922804A0922904B09277
:1057E0002A040E94FC2A0E94914289819A81AB81FD
:1057F000BC818093210290932202A0932302B09354
:1058000024022A960FB6F894DEBF0FBECDBFDF91FB
:10581000CF911F910F91FF90EF90DF90CF90BF90AD
:10582000AF909F908F907F906F905F904F903F9040
:105830002F9008950F931F93CF93DF9394E0899F48
:10584000E00111248E010E50194EFE01ED5EFB4F5A
:10585000DE01A858B94E2D913D914D915C9160812A
:105860007181828193810E9481CEF801608371836E
:1058700082839383FE01E053F74F85919591A59123
:10588000B491FE01E250F94E80839183A283B383E9
:10589000FE01E452F74F85919591A591B491CD5CAD
:1058A000DD4F88839983AA83BB83DF91CF911F91BA
:1058B0000F910895CF93FC0120812B33A9F0209103
:1058C0000C0E2A3188F4C62FBC0180914904F0E601
:1058D0008F9FC0011124855B9B4F0E94E3D18C2FC9
:1058E0000E94CF2A81E001C080E0CF910895DF922D
:1058F000EF92FF920F931F93CF93DF93CDB7DEB755
:105900006E970FB6F894DEBF0FBECDBF6091CB1679
:105910007091CC166115710509F14DE150E0CE0191
:1059200001967C010E9455C91E8EF7018F010E1948
:105930001F09D190DD2019F09AE0D912F7CFF701B5
:10594000E00FF11F108260E0C7010E945A2C8823EB
:1059500029F0C7010E946D6D811109C081E020917D
:10596000CB163091CC16232BA1F480E012C0DD20A1
:1059700049F00F5F1F4F8091CB169091CC16080F06
:10598000191F02C000E010E01093CC160093CB1654
:10599000E5CF6E960FB6F894DEBF0FBECDBFDF9198
:1059A000CF911F910F91FF90EF90DF9008952BE220
:1059B00034E047E254E063E274E08FE194E00C9459
:1059C000A142CF9380916F00C82FC27081FF05C0A4
:1059D00080916F008D7F80936F008091AD178093D1
:1059E000AC178093AB178093AA1784E68093A9170E
:1059F0000E94007788EE93E090938F1580938E1528
:105A0000CC2329F080916F00826080936F0081E049
:105A1000809322170E9491420E9443728CE0EEE52F
:105A2000F6E1AFE1B4E001900D928A95E1F7CF91F4
:105A30000C94D72C2F923F924F925F926F927F924D
:105A40009F92AF92BF92CF92DF92EF92FF920F930D
:105A50001F93CF93DF93CDB7DEB728970FB6F89497
:105A6000DEBF0FBECDBF1A012B01922EF32EC82E22
:105A7000D12CF601E553F54EE491AA24A3941E1609
:105A80000CF4A12CBB24B39420E030E0A901C201A6
:105A9000B1010E94E1D018160CF0B12CCC0CDD1C29
:105AA000CC0CDD1CC601815E9B4F3C01FC011082C9
:105AB0001182128213820E94D72CF301208231823C
:105AC00042825382E090D01620E030E0A901B80174
:105AD000892D9F2D0E94E6C981110AC0F601E25866
